{
	"contracts/KipProtocol.sol": {
		"KipProtocol": {
			"abi": [
				{
					"inputs": [
						{
							"internalType": "address",
							"name": "initialOwner",
							"type": "address"
						},
						{
							"internalType": "address",
							"name": "price_token",
							"type": "address"
						},
						{
							"internalType": "uint256",
							"name": "commission_rate",
							"type": "uint256"
						}
					],
					"stateMutability": "nonpayable",
					"type": "constructor"
				},
				{
					"inputs": [
						{
							"internalType": "address",
							"name": "owner",
							"type": "address"
						}
					],
					"name": "OwnableInvalidOwner",
					"type": "error"
				},
				{
					"inputs": [
						{
							"internalType": "address",
							"name": "account",
							"type": "address"
						}
					],
					"name": "OwnableUnauthorizedAccount",
					"type": "error"
				},
				{
					"inputs": [],
					"name": "ReentrancyGuardReentrantCall",
					"type": "error"
				},
				{
					"anonymous": false,
					"inputs": [
						{
							"indexed": false,
							"internalType": "uint256",
							"name": "newfee_",
							"type": "uint256"
						}
					],
					"name": "CommissionRateChanged",
					"type": "event"
				},
				{
					"anonymous": false,
					"inputs": [
						{
							"indexed": false,
							"internalType": "uint256",
							"name": "consume_id",
							"type": "uint256"
						},
						{
							"indexed": false,
							"internalType": "uint256",
							"name": "_amount",
							"type": "uint256"
						},
						{
							"components": [
								{
									"internalType": "uint256",
									"name": "reference_id",
									"type": "uint256"
								},
								{
									"internalType": "uint256",
									"name": "profit_per_share",
									"type": "uint256"
								}
							],
							"indexed": false,
							"internalType": "struct KipProtocol.receipt[]",
							"name": "_receipt",
							"type": "tuple[]"
						}
					],
					"name": "ConsumeLog",
					"type": "event"
				},
				{
					"anonymous": false,
					"inputs": [
						{
							"indexed": false,
							"internalType": "address",
							"name": "_walletAddress",
							"type": "address"
						},
						{
							"indexed": false,
							"internalType": "uint256",
							"name": "amount_",
							"type": "uint256"
						}
					],
					"name": "ConsumerBalanceRecharged",
					"type": "event"
				},
				{
					"anonymous": false,
					"inputs": [
						{
							"indexed": true,
							"internalType": "address",
							"name": "previousOwner",
							"type": "address"
						},
						{
							"indexed": true,
							"internalType": "address",
							"name": "newOwner",
							"type": "address"
						}
					],
					"name": "OwnershipTransferred",
					"type": "event"
				},
				{
					"anonymous": false,
					"inputs": [
						{
							"indexed": false,
							"internalType": "address",
							"name": "token_address",
							"type": "address"
						}
					],
					"name": "PriceTokenChanged",
					"type": "event"
				},
				{
					"anonymous": false,
					"inputs": [
						{
							"indexed": false,
							"internalType": "address",
							"name": "_providerAddress",
							"type": "address"
						},
						{
							"indexed": false,
							"internalType": "bool",
							"name": "_enabled",
							"type": "bool"
						}
					],
					"name": "ServiceProviderChanged",
					"type": "event"
				},
				{
					"anonymous": false,
					"inputs": [
						{
							"indexed": false,
							"internalType": "address",
							"name": "sft_address",
							"type": "address"
						},
						{
							"indexed": false,
							"internalType": "uint256",
							"name": "slot_value",
							"type": "uint256"
						},
						{
							"indexed": false,
							"internalType": "uint256",
							"name": "token_amount",
							"type": "uint256"
						},
						{
							"indexed": false,
							"internalType": "uint256",
							"name": "reference_id",
							"type": "uint256"
						}
					],
					"name": "TokenCreated",
					"type": "event"
				},
				{
					"inputs": [],
					"name": "_lastConsumeID",
					"outputs": [
						{
							"internalType": "uint256",
							"name": "",
							"type": "uint256"
						}
					],
					"stateMutability": "view",
					"type": "function"
				},
				{
					"inputs": [],
					"name": "commissionRate",
					"outputs": [
						{
							"internalType": "uint256",
							"name": "",
							"type": "uint256"
						}
					],
					"stateMutability": "view",
					"type": "function"
				},
				{
					"inputs": [
						{
							"internalType": "address",
							"name": "_consumer",
							"type": "address"
						},
						{
							"internalType": "uint256",
							"name": "_amount",
							"type": "uint256"
						},
						{
							"components": [
								{
									"internalType": "uint256",
									"name": "reference_id",
									"type": "uint256"
								},
								{
									"internalType": "uint256",
									"name": "profit_per_share",
									"type": "uint256"
								}
							],
							"internalType": "struct KipProtocol.receipt[]",
							"name": "_receipt",
							"type": "tuple[]"
						}
					],
					"name": "consume",
					"outputs": [],
					"stateMutability": "nonpayable",
					"type": "function"
				},
				{
					"inputs": [
						{
							"internalType": "address",
							"name": "",
							"type": "address"
						}
					],
					"name": "consumer_balance",
					"outputs": [
						{
							"internalType": "uint256",
							"name": "",
							"type": "uint256"
						}
					],
					"stateMutability": "view",
					"type": "function"
				},
				{
					"inputs": [
						{
							"internalType": "address",
							"name": "sft_address",
							"type": "address"
						},
						{
							"internalType": "uint256",
							"name": "slot_value",
							"type": "uint256"
						},
						{
							"internalType": "uint256",
							"name": "token_amount",
							"type": "uint256"
						}
					],
					"name": "createToken",
					"outputs": [],
					"stateMutability": "nonpayable",
					"type": "function"
				},
				{
					"inputs": [],
					"name": "lastConsumeID",
					"outputs": [
						{
							"internalType": "uint256",
							"name": "",
							"type": "uint256"
						}
					],
					"stateMutability": "view",
					"type": "function"
				},
				{
					"inputs": [],
					"name": "owner",
					"outputs": [
						{
							"internalType": "address",
							"name": "",
							"type": "address"
						}
					],
					"stateMutability": "view",
					"type": "function"
				},
				{
					"inputs": [],
					"name": "priceToken",
					"outputs": [
						{
							"internalType": "address",
							"name": "",
							"type": "address"
						}
					],
					"stateMutability": "view",
					"type": "function"
				},
				{
					"inputs": [
						{
							"internalType": "uint256",
							"name": "amount_",
							"type": "uint256"
						}
					],
					"name": "recharge",
					"outputs": [],
					"stateMutability": "nonpayable",
					"type": "function"
				},
				{
					"inputs": [],
					"name": "renounceOwnership",
					"outputs": [],
					"stateMutability": "nonpayable",
					"type": "function"
				},
				{
					"inputs": [
						{
							"internalType": "address",
							"name": "",
							"type": "address"
						}
					],
					"name": "service_provider",
					"outputs": [
						{
							"internalType": "bool",
							"name": "",
							"type": "bool"
						}
					],
					"stateMutability": "view",
					"type": "function"
				},
				{
					"inputs": [
						{
							"internalType": "uint256",
							"name": "_newrate",
							"type": "uint256"
						}
					],
					"name": "setCommissionRate",
					"outputs": [],
					"stateMutability": "nonpayable",
					"type": "function"
				},
				{
					"inputs": [
						{
							"internalType": "address",
							"name": "newtoken",
							"type": "address"
						}
					],
					"name": "setPriceToken",
					"outputs": [],
					"stateMutability": "nonpayable",
					"type": "function"
				},
				{
					"inputs": [
						{
							"internalType": "address",
							"name": "_address",
							"type": "address"
						},
						{
							"internalType": "bool",
							"name": "_enabled",
							"type": "bool"
						}
					],
					"name": "setServiceProvider",
					"outputs": [],
					"stateMutability": "nonpayable",
					"type": "function"
				},
				{
					"inputs": [],
					"name": "sftSlot",
					"outputs": [
						{
							"internalType": "uint256",
							"name": "",
							"type": "uint256"
						}
					],
					"stateMutability": "view",
					"type": "function"
				},
				{
					"inputs": [
						{
							"internalType": "uint256",
							"name": "",
							"type": "uint256"
						}
					],
					"name": "sft_assets",
					"outputs": [
						{
							"internalType": "address",
							"name": "",
							"type": "address"
						}
					],
					"stateMutability": "view",
					"type": "function"
				},
				{
					"inputs": [
						{
							"internalType": "address",
							"name": "newOwner",
							"type": "address"
						}
					],
					"name": "transferOwnership",
					"outputs": [],
					"stateMutability": "nonpayable",
					"type": "function"
				}
			],
			"devdoc": {
				"errors": {
					"OwnableInvalidOwner(address)": [
						{
							"details": "The owner is not a valid owner account. (eg. `address(0)`)"
						}
					],
					"OwnableUnauthorizedAccount(address)": [
						{
							"details": "The caller account is not authorized to perform an operation."
						}
					],
					"ReentrancyGuardReentrantCall()": [
						{
							"details": "Unauthorized reentrant call."
						}
					]
				},
				"kind": "dev",
				"methods": {
					"owner()": {
						"details": "Returns the address of the current owner."
					},
					"renounceOwnership()": {
						"details": "Leaves the contract without owner. It will not be possible to call `onlyOwner` functions. Can only be called by the current owner. NOTE: Renouncing ownership will leave the contract without an owner, thereby disabling any functionality that is only available to the owner."
					},
					"transferOwnership(address)": {
						"details": "Transfers ownership of the contract to a new account (`newOwner`). Can only be called by the current owner."
					}
				},
				"version": 1
			},
			"evm": {
				"assembly": "    /* \"contracts/KipProtocol.sol\":368:4655  contract KipProtocol is Ownable, ReentrancyGuard {... */\n  mstore(0x40, 0x80)\n    /* \"contracts/KipProtocol.sol\":1514:1747  constructor(address initialOwner, address price_token, uint256 commission_rate) Ownable(initialOwner) {... */\n  callvalue\n  dup1\n  iszero\n  tag_1\n  jumpi\n  0x00\n  dup1\n  revert\ntag_1:\n  pop\n  mload(0x40)\n  sub(codesize, bytecodeSize)\n  dup1\n  bytecodeSize\n  dup4\n  codecopy\n  dup2\n  add\n  0x40\n  dup2\n  swap1\n  mstore\n  tag_2\n  swap2\n  tag_3\n  jump\t// in\ntag_2:\n    /* \"contracts/KipProtocol.sol\":1602:1614  initialOwner */\n  dup3\n  sub(shl(0xa0, 0x01), 0x01)\n    /* \"@openzeppelin/contracts/access/Ownable.sol\":1273:1299  initialOwner == address(0) */\n  dup2\n  and\n    /* \"@openzeppelin/contracts/access/Ownable.sol\":1269:1364  if (initialOwner == address(0)) {... */\n  tag_8\n  jumpi\n    /* \"@openzeppelin/contracts/access/Ownable.sol\":1322:1353  OwnableInvalidOwner(address(0)) */\n  mload(0x40)\n  shl(0xe0, 0x1e4fbdf7)\n  dup2\n  mstore\n    /* \"@openzeppelin/contracts/access/Ownable.sol\":1350:1351  0 */\n  0x00\n    /* \"@openzeppelin/contracts/access/Ownable.sol\":1322:1353  OwnableInvalidOwner(address(0)) */\n  0x04\n  dup3\n  add\n    /* \"#utility.yul\":701:752   */\n  mstore\n    /* \"#utility.yul\":674:692   */\n  0x24\n  add\n    /* \"@openzeppelin/contracts/access/Ownable.sol\":1322:1353  OwnableInvalidOwner(address(0)) */\n  mload(0x40)\n  dup1\n  swap2\n  sub\n  swap1\n  revert\n    /* \"@openzeppelin/contracts/access/Ownable.sol\":1269:1364  if (initialOwner == address(0)) {... */\ntag_8:\n    /* \"@openzeppelin/contracts/access/Ownable.sol\":1373:1405  _transferOwnership(initialOwner) */\n  tag_11\n    /* \"@openzeppelin/contracts/access/Ownable.sol\":1392:1404  initialOwner */\n  dup2\n    /* \"@openzeppelin/contracts/access/Ownable.sol\":1373:1391  _transferOwnership */\n  tag_12\n    /* \"@openzeppelin/contracts/access/Ownable.sol\":1373:1405  _transferOwnership(initialOwner) */\n  jump\t// in\ntag_11:\n  pop\n    /* \"@openzeppelin/contracts/utils/ReentrancyGuard.sol\":1713:1714  1 */\n  0x01\n    /* \"@openzeppelin/contracts/utils/ReentrancyGuard.sol\":1917:1938  _status = NOT_ENTERED */\n  dup1\n  dup1\n  sstore\n    /* \"contracts/KipProtocol.sol\":1626:1636  priceToken */\n  0x02\n    /* \"contracts/KipProtocol.sol\":1626:1650  priceToken = price_token */\n  dup1\n  sload\n  not(sub(shl(0xa0, 0x01), 0x01))\n  and\n  sub(shl(0xa0, 0x01), 0x01)\n  swap5\n  swap1\n  swap5\n  and\n  swap4\n  swap1\n  swap4\n  or\n  swap1\n  swap3\n  sstore\n    /* \"contracts/KipProtocol.sol\":1660:1674  commissionRate */\n  0x03\n    /* \"contracts/KipProtocol.sol\":1660:1692  commissionRate = commission_rate */\n  sstore\n    /* \"contracts/KipProtocol.sol\":1702:1715  lastConsumeID */\n  0x04\n    /* \"contracts/KipProtocol.sol\":1702:1719  lastConsumeID = 1 */\n  dup2\n  swap1\n  sstore\n    /* \"contracts/KipProtocol.sol\":1729:1736  sftSlot */\n  0x05\n    /* \"contracts/KipProtocol.sol\":1729:1740  sftSlot = 1 */\n  sstore\n  pop\n    /* \"contracts/KipProtocol.sol\":368:4655  contract KipProtocol is Ownable, ReentrancyGuard {... */\n  jump(tag_18)\n    /* \"@openzeppelin/contracts/access/Ownable.sol\":2912:3099  function _transferOwnership(address newOwner) internal virtual {... */\ntag_12:\n    /* \"@openzeppelin/contracts/access/Ownable.sol\":2985:3001  address oldOwner */\n  0x00\n    /* \"@openzeppelin/contracts/access/Ownable.sol\":3004:3010  _owner */\n  dup1\n  sload\n  sub(shl(0xa0, 0x01), 0x01)\n    /* \"@openzeppelin/contracts/access/Ownable.sol\":3020:3037  _owner = newOwner */\n  dup4\n  dup2\n  and\n  not(sub(shl(0xa0, 0x01), 0x01))\n  dup4\n  and\n  dup2\n  or\n  dup5\n  sstore\n    /* \"@openzeppelin/contracts/access/Ownable.sol\":3052:3092  OwnershipTransferred(oldOwner, newOwner) */\n  mload(0x40)\n    /* \"@openzeppelin/contracts/access/Ownable.sol\":3004:3010  _owner */\n  swap2\n  swap1\n  swap3\n  and\n  swap3\n  dup4\n  swap2\n    /* \"@openzeppelin/contracts/access/Ownable.sol\":3052:3092  OwnershipTransferred(oldOwner, newOwner) */\n  0x8be0079c531659141344cd1fd0a4f28419497f9722a3daafe3b4186f6b6457e0\n  swap2\n    /* \"@openzeppelin/contracts/access/Ownable.sol\":2985:3001  address oldOwner */\n  swap1\n    /* \"@openzeppelin/contracts/access/Ownable.sol\":3052:3092  OwnershipTransferred(oldOwner, newOwner) */\n  log3\n    /* \"@openzeppelin/contracts/access/Ownable.sol\":2975:3099  {... */\n  pop\n    /* \"@openzeppelin/contracts/access/Ownable.sol\":2912:3099  function _transferOwnership(address newOwner) internal virtual {... */\n  pop\n  jump\t// out\n    /* \"#utility.yul\":14:191   */\ntag_17:\n    /* \"#utility.yul\":93:106   */\n  dup1\n  mload\n  sub(shl(0xa0, 0x01), 0x01)\n    /* \"#utility.yul\":135:166   */\n  dup2\n  and\n    /* \"#utility.yul\":125:167   */\n  dup2\n  eq\n    /* \"#utility.yul\":115:185   */\n  tag_20\n  jumpi\n    /* \"#utility.yul\":181:182   */\n  0x00\n    /* \"#utility.yul\":178:179   */\n  dup1\n    /* \"#utility.yul\":171:183   */\n  revert\n    /* \"#utility.yul\":115:185   */\ntag_20:\n    /* \"#utility.yul\":14:191   */\n  swap2\n  swap1\n  pop\n  jump\t// out\n    /* \"#utility.yul\":196:550   */\ntag_3:\n    /* \"#utility.yul\":284:290   */\n  0x00\n    /* \"#utility.yul\":292:298   */\n  dup1\n    /* \"#utility.yul\":300:306   */\n  0x00\n    /* \"#utility.yul\":353:355   */\n  0x60\n    /* \"#utility.yul\":341:350   */\n  dup5\n    /* \"#utility.yul\":332:339   */\n  dup7\n    /* \"#utility.yul\":328:351   */\n  sub\n    /* \"#utility.yul\":324:356   */\n  slt\n    /* \"#utility.yul\":321:373   */\n  iszero\n  tag_22\n  jumpi\n    /* \"#utility.yul\":369:370   */\n  0x00\n    /* \"#utility.yul\":366:367   */\n  dup1\n    /* \"#utility.yul\":359:371   */\n  revert\n    /* \"#utility.yul\":321:373   */\ntag_22:\n    /* \"#utility.yul\":392:432   */\n  tag_23\n    /* \"#utility.yul\":422:431   */\n  dup5\n    /* \"#utility.yul\":392:432   */\n  tag_17\n  jump\t// in\ntag_23:\n    /* \"#utility.yul\":382:432   */\n  swap3\n  pop\n    /* \"#utility.yul\":451:500   */\n  tag_24\n    /* \"#utility.yul\":496:498   */\n  0x20\n    /* \"#utility.yul\":485:494   */\n  dup6\n    /* \"#utility.yul\":481:499   */\n  add\n    /* \"#utility.yul\":451:500   */\n  tag_17\n  jump\t// in\ntag_24:\n    /* \"#utility.yul\":441:500   */\n  swap2\n  pop\n    /* \"#utility.yul\":540:542   */\n  0x40\n    /* \"#utility.yul\":529:538   */\n  dup5\n    /* \"#utility.yul\":525:543   */\n  add\n    /* \"#utility.yul\":519:544   */\n  mload\n    /* \"#utility.yul\":509:544   */\n  swap1\n  pop\n    /* \"#utility.yul\":196:550   */\n  swap3\n  pop\n  swap3\n  pop\n  swap3\n  jump\t// out\n    /* \"#utility.yul\":555:758   */\ntag_18:\n    /* \"contracts/KipProtocol.sol\":368:4655  contract KipProtocol is Ownable, ReentrancyGuard {... */\n  dataSize(sub_0)\n  dup1\n  dataOffset(sub_0)\n  0x00\n  codecopy\n  0x00\n  return\nstop\n\nsub_0: assembly {\n        /* \"contracts/KipProtocol.sol\":368:4655  contract KipProtocol is Ownable, ReentrancyGuard {... */\n      mstore(0x40, 0x80)\n      callvalue\n      dup1\n      iszero\n      tag_1\n      jumpi\n      0x00\n      dup1\n      revert\n    tag_1:\n      pop\n      jumpi(tag_2, lt(calldatasize, 0x04))\n      shr(0xe0, calldataload(0x00))\n      dup1\n      0xa335a003\n      gt\n      tag_20\n      jumpi\n      dup1\n      0xdbdcebde\n      gt\n      tag_21\n      jumpi\n      dup1\n      0xdbdcebde\n      eq\n      tag_15\n      jumpi\n      dup1\n      0xec10342c\n      eq\n      tag_16\n      jumpi\n      dup1\n      0xef299b0b\n      eq\n      tag_17\n      jumpi\n      dup1\n      0xf2fde38b\n      eq\n      tag_18\n      jumpi\n      dup1\n      0xfb771cb5\n      eq\n      tag_19\n      jumpi\n      0x00\n      dup1\n      revert\n    tag_21:\n      dup1\n      0xa335a003\n      eq\n      tag_11\n      jumpi\n      dup1\n      0xb0e0a569\n      eq\n      tag_12\n      jumpi\n      dup1\n      0xb85f4344\n      eq\n      tag_13\n      jumpi\n      dup1\n      0xcae5ec04\n      eq\n      tag_14\n      jumpi\n      0x00\n      dup1\n      revert\n    tag_20:\n      dup1\n      0x48818bde\n      gt\n      tag_22\n      jumpi\n      dup1\n      0x48818bde\n      eq\n      tag_7\n      jumpi\n      dup1\n      0x5ea1d6f8\n      eq\n      tag_8\n      jumpi\n      dup1\n      0x715018a6\n      eq\n      tag_9\n      jumpi\n      dup1\n      0x8da5cb5b\n      eq\n      tag_10\n      jumpi\n      0x00\n      dup1\n      revert\n    tag_22:\n      dup1\n      0x017e4d1e\n      eq\n      tag_3\n      jumpi\n      dup1\n      0x19fac8fd\n      eq\n      tag_4\n      jumpi\n      dup1\n      0x2ff6fe76\n      eq\n      tag_5\n      jumpi\n      dup1\n      0x411092e3\n      eq\n      tag_6\n      jumpi\n    tag_2:\n      0x00\n      dup1\n      revert\n        /* \"contracts/KipProtocol.sol\":4464:4653  function setServiceProvider(address _address, bool _enabled) public onlyOwner {... */\n    tag_3:\n      tag_23\n      tag_24\n      calldatasize\n      0x04\n      tag_25\n      jump\t// in\n    tag_24:\n      tag_26\n      jump\t// in\n    tag_23:\n      stop\n        /* \"contracts/KipProtocol.sol\":4164:4314  function setCommissionRate(uint256 _newrate) public onlyOwner {... */\n    tag_4:\n      tag_23\n      tag_28\n      calldatasize\n      0x04\n      tag_29\n      jump\t// in\n    tag_28:\n      tag_30\n      jump\t// in\n        /* \"contracts/KipProtocol.sol\":547:572  address public priceToken */\n    tag_5:\n      sload(0x02)\n      tag_31\n      swap1\n      sub(shl(0xa0, 0x01), 0x01)\n      and\n      dup2\n      jump\n    tag_31:\n      mload(0x40)\n      sub(shl(0xa0, 0x01), 0x01)\n        /* \"#utility.yul\":1009:1041   */\n      swap1\n      swap2\n      and\n        /* \"#utility.yul\":991:1042   */\n      dup2\n      mstore\n        /* \"#utility.yul\":979:981   */\n      0x20\n        /* \"#utility.yul\":964:982   */\n      add\n        /* \"contracts/KipProtocol.sol\":547:572  address public priceToken */\n    tag_33:\n      mload(0x40)\n      dup1\n      swap2\n      sub\n      swap1\n      return\n        /* \"contracts/KipProtocol.sol\":4320:4458  function setPriceToken(address newtoken) public onlyOwner {... */\n    tag_6:\n      tag_23\n      tag_36\n      calldatasize\n      0x04\n      tag_37\n      jump\t// in\n    tag_36:\n      tag_38\n      jump\t// in\n        /* \"contracts/KipProtocol.sol\":675:703  uint256 public lastConsumeID */\n    tag_7:\n      tag_39\n      sload(0x04)\n      dup2\n      jump\n    tag_39:\n      mload(0x40)\n        /* \"#utility.yul\":1451:1476   */\n      swap1\n      dup2\n      mstore\n        /* \"#utility.yul\":1439:1441   */\n      0x20\n        /* \"#utility.yul\":1424:1442   */\n      add\n        /* \"contracts/KipProtocol.sol\":675:703  uint256 public lastConsumeID */\n      tag_33\n        /* \"#utility.yul\":1305:1482   */\n      jump\n        /* \"contracts/KipProtocol.sol\":624:653  uint256 public commissionRate */\n    tag_8:\n      tag_39\n      sload(0x03)\n      dup2\n      jump\n        /* \"@openzeppelin/contracts/access/Ownable.sol\":2293:2394  function renounceOwnership() public virtual onlyOwner {... */\n    tag_9:\n      tag_23\n      tag_47\n      jump\t// in\n        /* \"@openzeppelin/contracts/access/Ownable.sol\":1638:1723  function owner() public view virtual returns (address) {... */\n    tag_10:\n        /* \"@openzeppelin/contracts/access/Ownable.sol\":1684:1691  address */\n      0x00\n        /* \"@openzeppelin/contracts/access/Ownable.sol\":1710:1716  _owner */\n      sload\n      sub(shl(0xa0, 0x01), 0x01)\n      and\n        /* \"@openzeppelin/contracts/access/Ownable.sol\":1638:1723  function owner() public view virtual returns (address) {... */\n      jump(tag_31)\n        /* \"contracts/KipProtocol.sol\":790:841  mapping(address => uint256) public consumer_balance */\n    tag_11:\n      tag_39\n      tag_52\n      calldatasize\n      0x04\n      tag_37\n      jump\t// in\n    tag_52:\n      mstore(0x20, 0x07)\n      0x00\n      swap1\n      dup2\n      mstore\n      0x40\n      swap1\n      keccak256\n      sload\n      dup2\n      jump\n        /* \"contracts/KipProtocol.sol\":738:783  mapping(uint256 => address) public sft_assets */\n    tag_12:\n      tag_31\n      tag_56\n      calldatasize\n      0x04\n      tag_29\n      jump\t// in\n    tag_56:\n      mstore(0x20, 0x06)\n      0x00\n      swap1\n      dup2\n      mstore\n      0x40\n      swap1\n      keccak256\n      sload\n      sub(shl(0xa0, 0x01), 0x01)\n      and\n      dup2\n      jump\n        /* \"contracts/KipProtocol.sol\":2375:3783  function consume(address _consumer, uint256 _amount, receipt[] memory _receipt) public {... */\n    tag_13:\n      tag_23\n      tag_60\n      calldatasize\n      0x04\n      tag_61\n      jump\t// in\n    tag_60:\n      tag_62\n      jump\t// in\n        /* \"contracts/KipProtocol.sol\":847:895  mapping(address => bool) public service_provider */\n    tag_14:\n      tag_63\n      tag_64\n      calldatasize\n      0x04\n      tag_37\n      jump\t// in\n    tag_64:\n      mstore(0x20, 0x08)\n      0x00\n      swap1\n      dup2\n      mstore\n      0x40\n      swap1\n      keccak256\n      sload\n      0xff\n      and\n      dup2\n      jump\n    tag_63:\n      mload(0x40)\n        /* \"#utility.yul\":3718:3732   */\n      swap1\n      iszero\n        /* \"#utility.yul\":3711:3733   */\n      iszero\n        /* \"#utility.yul\":3693:3734   */\n      dup2\n      mstore\n        /* \"#utility.yul\":3681:3683   */\n      0x20\n        /* \"#utility.yul\":3666:3684   */\n      add\n        /* \"contracts/KipProtocol.sol\":847:895  mapping(address => bool) public service_provider */\n      tag_33\n        /* \"#utility.yul\":3553:3740   */\n      jump\n        /* \"contracts/KipProtocol.sol\":1753:2369  function createToken(address sft_address, uint256 slot_value, uint256 token_amount) public {... */\n    tag_15:\n      tag_23\n      tag_69\n      calldatasize\n      0x04\n      tag_70\n      jump\t// in\n    tag_69:\n      tag_71\n      jump\t// in\n        /* \"contracts/KipProtocol.sol\":3789:3882  function _lastConsumeID() public view returns (uint256) {... */\n    tag_16:\n        /* \"contracts/KipProtocol.sol\":3862:3875  lastConsumeID */\n      sload(0x04)\n        /* \"contracts/KipProtocol.sol\":3789:3882  function _lastConsumeID() public view returns (uint256) {... */\n      jump(tag_39)\n        /* \"contracts/KipProtocol.sol\":3888:4158  function recharge(uint256 amount_) public {... */\n    tag_17:\n      tag_23\n      tag_76\n      calldatasize\n      0x04\n      tag_29\n      jump\t// in\n    tag_76:\n      tag_77\n      jump\t// in\n        /* \"@openzeppelin/contracts/access/Ownable.sol\":2543:2758  function transferOwnership(address newOwner) public virtual onlyOwner {... */\n    tag_18:\n      tag_23\n      tag_79\n      calldatasize\n      0x04\n      tag_37\n      jump\t// in\n    tag_79:\n      tag_80\n      jump\t// in\n        /* \"contracts/KipProtocol.sol\":709:731  uint256 public sftSlot */\n    tag_19:\n      tag_39\n      sload(0x05)\n      dup2\n      jump\n        /* \"contracts/KipProtocol.sol\":4464:4653  function setServiceProvider(address _address, bool _enabled) public onlyOwner {... */\n    tag_26:\n        /* \"@openzeppelin/contracts/access/Ownable.sol\":1531:1544  _checkOwner() */\n      tag_85\n        /* \"@openzeppelin/contracts/access/Ownable.sol\":1531:1542  _checkOwner */\n      tag_86\n        /* \"@openzeppelin/contracts/access/Ownable.sol\":1531:1544  _checkOwner() */\n      jump\t// in\n    tag_85:\n      sub(shl(0xa0, 0x01), 0x01)\n        /* \"contracts/KipProtocol.sol\":4552:4578  service_provider[_address] */\n      dup3\n      and\n      0x00\n      dup2\n      dup2\n      mstore\n        /* \"contracts/KipProtocol.sol\":4552:4568  service_provider */\n      0x08\n        /* \"contracts/KipProtocol.sol\":4552:4578  service_provider[_address] */\n      0x20\n      swap1\n      dup2\n      mstore\n      0x40\n      swap2\n      dup3\n      swap1\n      keccak256\n        /* \"contracts/KipProtocol.sol\":4552:4589  service_provider[_address] = _enabled */\n      dup1\n      sload\n      not(0xff)\n      and\n      dup6\n      iszero\n      iszero\n      swap1\n      dup2\n      or\n      swap1\n      swap2\n      sstore\n        /* \"contracts/KipProtocol.sol\":4604:4646  ServiceProviderChanged(_address, _enabled) */\n      dup3\n      mload\n        /* \"#utility.yul\":4301:4352   */\n      swap4\n      dup5\n      mstore\n        /* \"#utility.yul\":4368:4386   */\n      swap1\n      dup4\n      add\n        /* \"#utility.yul\":4361:4411   */\n      mstore\n        /* \"contracts/KipProtocol.sol\":4604:4646  ServiceProviderChanged(_address, _enabled) */\n      0x3178e1e682d183b22b2c0a13af9e136c3e9a37b76bd71d47bf24a80710441e8f\n      swap2\n        /* \"#utility.yul\":4274:4292   */\n      add\n        /* \"contracts/KipProtocol.sol\":4604:4646  ServiceProviderChanged(_address, _enabled) */\n    tag_88:\n      mload(0x40)\n      dup1\n      swap2\n      sub\n      swap1\n      log1\n        /* \"contracts/KipProtocol.sol\":4464:4653  function setServiceProvider(address _address, bool _enabled) public onlyOwner {... */\n      pop\n      pop\n      jump\t// out\n        /* \"contracts/KipProtocol.sol\":4164:4314  function setCommissionRate(uint256 _newrate) public onlyOwner {... */\n    tag_30:\n        /* \"@openzeppelin/contracts/access/Ownable.sol\":1531:1544  _checkOwner() */\n      tag_91\n        /* \"@openzeppelin/contracts/access/Ownable.sol\":1531:1542  _checkOwner */\n      tag_86\n        /* \"@openzeppelin/contracts/access/Ownable.sol\":1531:1544  _checkOwner() */\n      jump\t// in\n    tag_91:\n        /* \"contracts/KipProtocol.sol\":4236:4250  commissionRate */\n      0x03\n        /* \"contracts/KipProtocol.sol\":4236:4261  commissionRate = _newrate */\n      dup2\n      swap1\n      sstore\n        /* \"contracts/KipProtocol.sol\":4276:4307  CommissionRateChanged(_newrate) */\n      mload(0x40)\n        /* \"#utility.yul\":1451:1476   */\n      dup2\n      dup2\n      mstore\n        /* \"contracts/KipProtocol.sol\":4276:4307  CommissionRateChanged(_newrate) */\n      0x7944cc49dc8637e3cacb75b6261e778f93a87026e0357ae7c3b0e434324afa35\n      swap1\n        /* \"#utility.yul\":1439:1441   */\n      0x20\n        /* \"#utility.yul\":1424:1442   */\n      add\n        /* \"contracts/KipProtocol.sol\":4276:4307  CommissionRateChanged(_newrate) */\n    tag_93:\n      mload(0x40)\n      dup1\n      swap2\n      sub\n      swap1\n      log1\n        /* \"contracts/KipProtocol.sol\":4164:4314  function setCommissionRate(uint256 _newrate) public onlyOwner {... */\n      pop\n      jump\t// out\n        /* \"contracts/KipProtocol.sol\":4320:4458  function setPriceToken(address newtoken) public onlyOwner {... */\n    tag_38:\n        /* \"@openzeppelin/contracts/access/Ownable.sol\":1531:1544  _checkOwner() */\n      tag_95\n        /* \"@openzeppelin/contracts/access/Ownable.sol\":1531:1542  _checkOwner */\n      tag_86\n        /* \"@openzeppelin/contracts/access/Ownable.sol\":1531:1544  _checkOwner() */\n      jump\t// in\n    tag_95:\n        /* \"contracts/KipProtocol.sol\":4388:4398  priceToken */\n      0x02\n        /* \"contracts/KipProtocol.sol\":4388:4409  priceToken = newtoken */\n      dup1\n      sload\n      not(sub(shl(0xa0, 0x01), 0x01))\n      and\n      sub(shl(0xa0, 0x01), 0x01)\n      dup4\n      and\n      swap1\n      dup2\n      or\n      swap1\n      swap2\n      sstore\n        /* \"contracts/KipProtocol.sol\":4424:4451  PriceTokenChanged(newtoken) */\n      mload(0x40)\n        /* \"#utility.yul\":991:1042   */\n      swap1\n      dup2\n      mstore\n        /* \"contracts/KipProtocol.sol\":4424:4451  PriceTokenChanged(newtoken) */\n      0x9b44827111b30d796166e9f9515e9d6ee25234c008ed7157ec1128263e888728\n      swap1\n        /* \"#utility.yul\":979:981   */\n      0x20\n        /* \"#utility.yul\":964:982   */\n      add\n        /* \"contracts/KipProtocol.sol\":4424:4451  PriceTokenChanged(newtoken) */\n      tag_93\n        /* \"#utility.yul\":845:1048   */\n      jump\n        /* \"@openzeppelin/contracts/access/Ownable.sol\":2293:2394  function renounceOwnership() public virtual onlyOwner {... */\n    tag_47:\n        /* \"@openzeppelin/contracts/access/Ownable.sol\":1531:1544  _checkOwner() */\n      tag_99\n        /* \"@openzeppelin/contracts/access/Ownable.sol\":1531:1542  _checkOwner */\n      tag_86\n        /* \"@openzeppelin/contracts/access/Ownable.sol\":1531:1544  _checkOwner() */\n      jump\t// in\n    tag_99:\n        /* \"@openzeppelin/contracts/access/Ownable.sol\":2357:2387  _transferOwnership(address(0)) */\n      tag_101\n        /* \"@openzeppelin/contracts/access/Ownable.sol\":2384:2385  0 */\n      0x00\n        /* \"@openzeppelin/contracts/access/Ownable.sol\":2357:2375  _transferOwnership */\n      tag_102\n        /* \"@openzeppelin/contracts/access/Ownable.sol\":2357:2387  _transferOwnership(address(0)) */\n      jump\t// in\n    tag_101:\n        /* \"@openzeppelin/contracts/access/Ownable.sol\":2293:2394  function renounceOwnership() public virtual onlyOwner {... */\n      jump\t// out\n        /* \"contracts/KipProtocol.sol\":2375:3783  function consume(address _consumer, uint256 _amount, receipt[] memory _receipt) public {... */\n    tag_62:\n        /* \"@openzeppelin/contracts/utils/Context.sol\":735:745  msg.sender */\n      caller\n        /* \"contracts/KipProtocol.sol\":2480:2510  service_provider[_msgSender()] */\n      0x00\n      swap1\n      dup2\n      mstore\n        /* \"contracts/KipProtocol.sol\":2480:2496  service_provider */\n      0x08\n        /* \"contracts/KipProtocol.sol\":2480:2510  service_provider[_msgSender()] */\n      0x20\n      mstore\n      0x40\n      swap1\n      keccak256\n      sload\n      0xff\n      and\n        /* \"contracts/KipProtocol.sol\":2472:2529  require(service_provider[_msgSender()], \"Not a provider\") */\n      tag_107\n      jumpi\n      mload(0x40)\n      shl(0xe5, 0x461bcd)\n      dup2\n      mstore\n        /* \"#utility.yul\":4624:4626   */\n      0x20\n        /* \"contracts/KipProtocol.sol\":2472:2529  require(service_provider[_msgSender()], \"Not a provider\") */\n      0x04\n      dup3\n      add\n        /* \"#utility.yul\":4606:4627   */\n      mstore\n        /* \"#utility.yul\":4663:4665   */\n      0x0e\n        /* \"#utility.yul\":4643:4661   */\n      0x24\n      dup3\n      add\n        /* \"#utility.yul\":4636:4666   */\n      mstore\n      shl(0x91, 0x2737ba103090383937bb34b232b9)\n        /* \"#utility.yul\":4682:4700   */\n      0x44\n      dup3\n      add\n        /* \"#utility.yul\":4675:4719   */\n      mstore\n        /* \"#utility.yul\":4736:4754   */\n      0x64\n      add\n        /* \"contracts/KipProtocol.sol\":2472:2529  require(service_provider[_msgSender()], \"Not a provider\") */\n    tag_108:\n      mload(0x40)\n      dup1\n      swap2\n      sub\n      swap1\n      revert\n    tag_107:\n      sub(shl(0xa0, 0x01), 0x01)\n        /* \"contracts/KipProtocol.sol\":2556:2583  consumer_balance[_consumer] */\n      dup4\n      and\n      0x00\n      swap1\n      dup2\n      mstore\n        /* \"contracts/KipProtocol.sol\":2556:2572  consumer_balance */\n      0x07\n        /* \"contracts/KipProtocol.sol\":2556:2583  consumer_balance[_consumer] */\n      0x20\n      mstore\n      0x40\n      swap1\n      keccak256\n      sload\n        /* \"contracts/KipProtocol.sol\":2547:2583  _amount<=consumer_balance[_consumer] */\n      dup3\n      gt\n      iszero\n        /* \"contracts/KipProtocol.sol\":2539:2606  require(_amount<=consumer_balance[_consumer], \"Not a enough money\") */\n      tag_110\n      jumpi\n      mload(0x40)\n      shl(0xe5, 0x461bcd)\n      dup2\n      mstore\n        /* \"#utility.yul\":4967:4969   */\n      0x20\n        /* \"contracts/KipProtocol.sol\":2539:2606  require(_amount<=consumer_balance[_consumer], \"Not a enough money\") */\n      0x04\n      dup3\n      add\n        /* \"#utility.yul\":4949:4970   */\n      mstore\n        /* \"#utility.yul\":5006:5008   */\n      0x12\n        /* \"#utility.yul\":4986:5004   */\n      0x24\n      dup3\n      add\n        /* \"#utility.yul\":4979:5009   */\n      mstore\n      shl(0x70, 0x4e6f74206120656e6f756768206d6f6e6579)\n        /* \"#utility.yul\":5025:5043   */\n      0x44\n      dup3\n      add\n        /* \"#utility.yul\":5018:5066   */\n      mstore\n        /* \"#utility.yul\":5083:5101   */\n      0x64\n      add\n        /* \"contracts/KipProtocol.sol\":2539:2606  require(_amount<=consumer_balance[_consumer], \"Not a enough money\") */\n      tag_108\n        /* \"#utility.yul\":4765:5107   */\n      jump\n        /* \"contracts/KipProtocol.sol\":2539:2606  require(_amount<=consumer_balance[_consumer], \"Not a enough money\") */\n    tag_110:\n        /* \"contracts/KipProtocol.sol\":2622:2631  uint256 i */\n      0x00\n        /* \"contracts/KipProtocol.sol\":2617:3690  for (uint256 i = 0; i < _receipt.length; i++) {... */\n    tag_113:\n        /* \"contracts/KipProtocol.sol\":2641:2649  _receipt */\n      dup2\n        /* \"contracts/KipProtocol.sol\":2641:2656  _receipt.length */\n      mload\n        /* \"contracts/KipProtocol.sol\":2637:2638  i */\n      dup2\n        /* \"contracts/KipProtocol.sol\":2637:2656  i < _receipt.length */\n      lt\n        /* \"contracts/KipProtocol.sol\":2617:3690  for (uint256 i = 0; i < _receipt.length; i++) {... */\n      iszero\n      tag_114\n      jumpi\n        /* \"contracts/KipProtocol.sol\":2678:2698  address _sft_address */\n      0x00\n        /* \"contracts/KipProtocol.sol\":2701:2711  sft_assets */\n      0x06\n        /* \"contracts/KipProtocol.sol\":2701:2737  sft_assets[_receipt[i].reference_id] */\n      0x00\n        /* \"contracts/KipProtocol.sol\":2712:2720  _receipt */\n      dup5\n        /* \"contracts/KipProtocol.sol\":2721:2722  i */\n      dup5\n        /* \"contracts/KipProtocol.sol\":2712:2723  _receipt[i] */\n      dup2\n      mload\n      dup2\n      lt\n      tag_117\n      jumpi\n      tag_117\n      tag_118\n      jump\t// in\n    tag_117:\n      0x20\n      mul\n      0x20\n      add\n      add\n      mload\n        /* \"contracts/KipProtocol.sol\":2712:2736  _receipt[i].reference_id */\n      0x00\n      add\n      mload\n        /* \"contracts/KipProtocol.sol\":2701:2737  sft_assets[_receipt[i].reference_id] */\n      dup2\n      mstore\n      0x20\n      add\n      swap1\n      dup2\n      mstore\n      0x20\n      add\n      0x00\n      keccak256\n      0x00\n      swap1\n      sload\n      swap1\n      0x0100\n      exp\n      swap1\n      div\n      sub(shl(0xa0, 0x01), 0x01)\n      and\n        /* \"contracts/KipProtocol.sol\":2678:2737  address _sft_address = sft_assets[_receipt[i].reference_id] */\n      swap1\n      pop\n        /* \"contracts/KipProtocol.sol\":2751:2776  uint256 _profit_per_share */\n      0x00\n        /* \"contracts/KipProtocol.sol\":2779:2787  _receipt */\n      dup4\n        /* \"contracts/KipProtocol.sol\":2788:2789  i */\n      dup4\n        /* \"contracts/KipProtocol.sol\":2779:2790  _receipt[i] */\n      dup2\n      mload\n      dup2\n      lt\n      tag_120\n      jumpi\n      tag_120\n      tag_118\n      jump\t// in\n    tag_120:\n      0x20\n      mul\n      0x20\n      add\n      add\n      mload\n        /* \"contracts/KipProtocol.sol\":2779:2807  _receipt[i].profit_per_share */\n      0x20\n      add\n      mload\n        /* \"contracts/KipProtocol.sol\":2751:2807  uint256 _profit_per_share = _receipt[i].profit_per_share */\n      swap1\n      pop\n        /* \"contracts/KipProtocol.sol\":2854:2855  0 */\n      0x00\n      sub(shl(0xa0, 0x01), 0x01)\n        /* \"contracts/KipProtocol.sol\":2830:2856  _sft_address != address(0) */\n      and\n        /* \"contracts/KipProtocol.sol\":2830:2842  _sft_address */\n      dup3\n      sub(shl(0xa0, 0x01), 0x01)\n        /* \"contracts/KipProtocol.sol\":2830:2856  _sft_address != address(0) */\n      and\n      sub\n        /* \"contracts/KipProtocol.sol\":2822:2887  require(_sft_address != address(0), \"ReferenceID does not exist\") */\n      tag_121\n      jumpi\n      mload(0x40)\n      shl(0xe5, 0x461bcd)\n      dup2\n      mstore\n        /* \"#utility.yul\":5446:5448   */\n      0x20\n        /* \"contracts/KipProtocol.sol\":2822:2887  require(_sft_address != address(0), \"ReferenceID does not exist\") */\n      0x04\n      dup3\n      add\n        /* \"#utility.yul\":5428:5449   */\n      mstore\n        /* \"#utility.yul\":5485:5487   */\n      0x1a\n        /* \"#utility.yul\":5465:5483   */\n      0x24\n      dup3\n      add\n        /* \"#utility.yul\":5458:5488   */\n      mstore\n        /* \"#utility.yul\":5524:5552   */\n      0x5265666572656e6365494420646f6573206e6f74206578697374000000000000\n        /* \"#utility.yul\":5504:5522   */\n      0x44\n      dup3\n      add\n        /* \"#utility.yul\":5497:5553   */\n      mstore\n        /* \"#utility.yul\":5570:5588   */\n      0x64\n      add\n        /* \"contracts/KipProtocol.sol\":2822:2887  require(_sft_address != address(0), \"ReferenceID does not exist\") */\n      tag_108\n        /* \"#utility.yul\":5244:5594   */\n      jump\n        /* \"contracts/KipProtocol.sol\":2822:2887  require(_sft_address != address(0), \"ReferenceID does not exist\") */\n    tag_121:\n      sub(shl(0xa0, 0x01), 0x01)\n        /* \"contracts/KipProtocol.sol\":3003:3033  sft_token_profit[_sft_address] */\n      dup3\n      and\n        /* \"contracts/KipProtocol.sol\":2902:2916  ISFT sft_entry */\n      0x00\n        /* \"contracts/KipProtocol.sol\":3003:3033  sft_token_profit[_sft_address] */\n      swap1\n      dup2\n      mstore\n        /* \"contracts/KipProtocol.sol\":3003:3019  sft_token_profit */\n      0x09\n        /* \"contracts/KipProtocol.sol\":3003:3033  sft_token_profit[_sft_address] */\n      0x20\n      mstore\n      0x40\n      dup2\n      keccak256\n        /* \"contracts/KipProtocol.sol\":2924:2936  _sft_address */\n      dup4\n      swap2\n        /* \"contracts/KipProtocol.sol\":3048:3667  for (uint256 j = 0; j < sft_entry.tokenSupplyInSlot(sftSlot); j++) {... */\n    tag_124:\n        /* \"contracts/KipProtocol.sol\":3100:3107  sftSlot */\n      sload(0x05)\n        /* \"contracts/KipProtocol.sol\":3072:3108  sft_entry.tokenSupplyInSlot(sftSlot) */\n      mload(0x40)\n      shl(0xe0, 0x4f8a0f83)\n      dup2\n      mstore\n      0x04\n      dup2\n      add\n        /* \"#utility.yul\":1451:1476   */\n      swap2\n      swap1\n      swap2\n      mstore\n      sub(shl(0xa0, 0x01), 0x01)\n        /* \"contracts/KipProtocol.sol\":3072:3099  sft_entry.tokenSupplyInSlot */\n      dup5\n      and\n      swap1\n      0x4f8a0f83\n      swap1\n        /* \"#utility.yul\":1424:1442   */\n      0x24\n      add\n        /* \"contracts/KipProtocol.sol\":3072:3108  sft_entry.tokenSupplyInSlot(sftSlot) */\n      0x20\n      mload(0x40)\n      dup1\n      dup4\n      sub\n      dup2\n      dup7\n      gas\n      staticcall\n      iszero\n      dup1\n      iszero\n      tag_129\n      jumpi\n      returndatasize\n      0x00\n      dup1\n      returndatacopy\n      revert(0x00, returndatasize)\n    tag_129:\n      pop\n      pop\n      pop\n      pop\n      mload(0x40)\n      returndatasize\n      not(0x1f)\n      0x1f\n      dup3\n      add\n      and\n      dup3\n      add\n      dup1\n      0x40\n      mstore\n      pop\n      dup2\n      add\n      swap1\n      tag_130\n      swap2\n      swap1\n      tag_131\n      jump\t// in\n    tag_130:\n        /* \"contracts/KipProtocol.sol\":3068:3069  j */\n      dup2\n        /* \"contracts/KipProtocol.sol\":3068:3108  j < sft_entry.tokenSupplyInSlot(sftSlot) */\n      lt\n        /* \"contracts/KipProtocol.sol\":3048:3667  for (uint256 j = 0; j < sft_entry.tokenSupplyInSlot(sftSlot); j++) {... */\n      iszero\n      tag_125\n      jumpi\n        /* \"contracts/KipProtocol.sol\":3186:3193  sftSlot */\n      sload(0x05)\n        /* \"contracts/KipProtocol.sol\":3157:3196  sft_entry.tokenInSlotByIndex(sftSlot,j) */\n      mload(0x40)\n      shl(0xe4, 0x0cd011)\n      dup2\n      mstore\n        /* \"contracts/KipProtocol.sol\":3133:3154  uint256 _sft_token_id */\n      0x00\n      swap2\n      sub(shl(0xa0, 0x01), 0x01)\n        /* \"contracts/KipProtocol.sol\":3157:3185  sft_entry.tokenInSlotByIndex */\n      dup7\n      and\n      swap2\n      0xcd0110\n      swap2\n        /* \"contracts/KipProtocol.sol\":3157:3196  sft_entry.tokenInSlotByIndex(sftSlot,j) */\n      tag_132\n      swap2\n        /* \"contracts/KipProtocol.sol\":3194:3195  j */\n      dup7\n      swap1\n        /* \"contracts/KipProtocol.sol\":3157:3196  sft_entry.tokenInSlotByIndex(sftSlot,j) */\n      0x04\n      add\n        /* \"#utility.yul\":5962:5987   */\n      swap2\n      dup3\n      mstore\n        /* \"#utility.yul\":6018:6020   */\n      0x20\n        /* \"#utility.yul\":6003:6021   */\n      dup3\n      add\n        /* \"#utility.yul\":5996:6030   */\n      mstore\n        /* \"#utility.yul\":5950:5952   */\n      0x40\n        /* \"#utility.yul\":5935:5953   */\n      add\n      swap1\n        /* \"#utility.yul\":5788:6036   */\n      jump\n        /* \"contracts/KipProtocol.sol\":3157:3196  sft_entry.tokenInSlotByIndex(sftSlot,j) */\n    tag_132:\n      0x20\n      mload(0x40)\n      dup1\n      dup4\n      sub\n      dup2\n      dup7\n      gas\n      staticcall\n      iszero\n      dup1\n      iszero\n      tag_135\n      jumpi\n      returndatasize\n      0x00\n      dup1\n      returndatacopy\n      revert(0x00, returndatasize)\n    tag_135:\n      pop\n      pop\n      pop\n      pop\n      mload(0x40)\n      returndatasize\n      not(0x1f)\n      0x1f\n      dup3\n      add\n      and\n      dup3\n      add\n      dup1\n      0x40\n      mstore\n      pop\n      dup2\n      add\n      swap1\n      tag_136\n      swap2\n      swap1\n      tag_131\n      jump\t// in\n    tag_136:\n        /* \"contracts/KipProtocol.sol\":3236:3270  sft_entry.balanceOf(_sft_token_id) */\n      mload(0x40)\n      shl(0xe3, 0x1398fee1)\n      dup2\n      mstore\n      0x04\n      dup2\n      add\n        /* \"#utility.yul\":1451:1476   */\n      dup3\n      swap1\n      mstore\n        /* \"contracts/KipProtocol.sol\":3133:3196  uint256 _sft_token_id = sft_entry.tokenInSlotByIndex(sftSlot,j) */\n      swap1\n      swap2\n      pop\n        /* \"contracts/KipProtocol.sol\":3214:3233  uint256 _slot_value */\n      0x00\n      swap1\n      sub(shl(0xa0, 0x01), 0x01)\n        /* \"contracts/KipProtocol.sol\":3236:3255  sft_entry.balanceOf */\n      dup7\n      and\n      swap1\n      0x9cc7f708\n      swap1\n        /* \"#utility.yul\":1424:1442   */\n      0x24\n      add\n        /* \"contracts/KipProtocol.sol\":3236:3270  sft_entry.balanceOf(_sft_token_id) */\n      0x20\n      mload(0x40)\n      dup1\n      dup4\n      sub\n      dup2\n      dup7\n      gas\n      staticcall\n      iszero\n      dup1\n      iszero\n      tag_139\n      jumpi\n      returndatasize\n      0x00\n      dup1\n      returndatacopy\n      revert(0x00, returndatasize)\n    tag_139:\n      pop\n      pop\n      pop\n      pop\n      mload(0x40)\n      returndatasize\n      not(0x1f)\n      0x1f\n      dup3\n      add\n      and\n      dup3\n      add\n      dup1\n      0x40\n      mstore\n      pop\n      dup2\n      add\n      swap1\n      tag_140\n      swap2\n      swap1\n      tag_131\n      jump\t// in\n    tag_140:\n        /* \"contracts/KipProtocol.sol\":3214:3270  uint256 _slot_value = sft_entry.balanceOf(_sft_token_id) */\n      swap1\n      pop\n        /* \"contracts/KipProtocol.sol\":3289:3306  bool tokenIsExist */\n      0x00\n      dup1\n        /* \"contracts/KipProtocol.sol\":3331:3365  token_profit.tryGet(_sft_token_id) */\n      tag_141\n        /* \"contracts/KipProtocol.sol\":3331:3343  token_profit */\n      dup7\n        /* \"contracts/KipProtocol.sol\":3351:3364  _sft_token_id */\n      dup6\n        /* \"contracts/KipProtocol.sol\":3331:3350  token_profit.tryGet */\n      tag_142\n        /* \"contracts/KipProtocol.sol\":3331:3365  token_profit.tryGet(_sft_token_id) */\n      jump\t// in\n    tag_141:\n        /* \"contracts/KipProtocol.sol\":3288:3365  (bool tokenIsExist, uint256 beforeValue) = token_profit.tryGet(_sft_token_id) */\n      swap1\n      swap3\n      pop\n      swap1\n      pop\n        /* \"contracts/KipProtocol.sol\":3383:3399  uint256 newValue */\n      0x00\n        /* \"contracts/KipProtocol.sol\":3402:3433  _slot_value * _profit_per_share */\n      tag_143\n        /* \"contracts/KipProtocol.sol\":3416:3433  _profit_per_share */\n      dup10\n        /* \"contracts/KipProtocol.sol\":3402:3413  _slot_value */\n      dup6\n        /* \"contracts/KipProtocol.sol\":3402:3433  _slot_value * _profit_per_share */\n      tag_144\n      jump\t// in\n    tag_143:\n        /* \"contracts/KipProtocol.sol\":3383:3433  uint256 newValue = _slot_value * _profit_per_share */\n      swap1\n      pop\n        /* \"contracts/KipProtocol.sol\":3455:3467  tokenIsExist */\n      dup3\n        /* \"contracts/KipProtocol.sol\":3451:3653  if (tokenIsExist) {... */\n      iszero\n      tag_145\n      jumpi\n        /* \"contracts/KipProtocol.sol\":3491:3546  token_profit.set(_sft_token_id, beforeValue + newValue) */\n      tag_146\n        /* \"contracts/KipProtocol.sol\":3508:3521  _sft_token_id */\n      dup6\n        /* \"contracts/KipProtocol.sol\":3523:3545  beforeValue + newValue */\n      tag_147\n        /* \"contracts/KipProtocol.sol\":3537:3545  newValue */\n      dup4\n        /* \"contracts/KipProtocol.sol\":3523:3534  beforeValue */\n      dup6\n        /* \"contracts/KipProtocol.sol\":3523:3545  beforeValue + newValue */\n      tag_148\n      jump\t// in\n    tag_147:\n        /* \"contracts/KipProtocol.sol\":3491:3503  token_profit */\n      dup10\n      swap2\n        /* \"contracts/KipProtocol.sol\":3491:3546  token_profit.set(_sft_token_id, beforeValue + newValue) */\n      swap1\n        /* \"contracts/KipProtocol.sol\":3491:3507  token_profit.set */\n      tag_149\n        /* \"contracts/KipProtocol.sol\":3491:3546  token_profit.set(_sft_token_id, beforeValue + newValue) */\n      jump\t// in\n    tag_146:\n      pop\n        /* \"contracts/KipProtocol.sol\":3451:3653  if (tokenIsExist) {... */\n      jump(tag_150)\n    tag_145:\n        /* \"contracts/KipProtocol.sol\":3593:3634  token_profit.set(_sft_token_id, newValue) */\n      tag_151\n        /* \"contracts/KipProtocol.sol\":3593:3605  token_profit */\n      dup8\n        /* \"contracts/KipProtocol.sol\":3610:3623  _sft_token_id */\n      dup7\n        /* \"contracts/KipProtocol.sol\":3625:3633  newValue */\n      dup4\n        /* \"contracts/KipProtocol.sol\":3593:3609  token_profit.set */\n      tag_149\n        /* \"contracts/KipProtocol.sol\":3593:3634  token_profit.set(_sft_token_id, newValue) */\n      jump\t// in\n    tag_151:\n      pop\n        /* \"contracts/KipProtocol.sol\":3451:3653  if (tokenIsExist) {... */\n    tag_150:\n      pop\n      pop\n        /* \"contracts/KipProtocol.sol\":3110:3113  j++ */\n      0x01\n      swap1\n      swap4\n      add\n      swap3\n      pop\n        /* \"contracts/KipProtocol.sol\":3048:3667  for (uint256 j = 0; j < sft_entry.tokenSupplyInSlot(sftSlot); j++) {... */\n      tag_124\n      swap2\n      pop\n      pop\n      jump\n    tag_125:\n      pop\n      pop\n        /* \"contracts/KipProtocol.sol\":2658:2661  i++ */\n      0x01\n      swap1\n      swap4\n      add\n      swap3\n      pop\n        /* \"contracts/KipProtocol.sol\":2617:3690  for (uint256 i = 0; i < _receipt.length; i++) {... */\n      tag_113\n      swap2\n      pop\n      pop\n      jump\n    tag_114:\n      pop\n        /* \"contracts/KipProtocol.sol\":3705:3750  ConsumeLog(lastConsumeID, _amount,  _receipt) */\n      0x74abd6f2bb39b1eb84983e4e8df1378da42d32f24a5c984b6d1456bfd24f8cb9\n        /* \"contracts/KipProtocol.sol\":3716:3729  lastConsumeID */\n      sload(0x04)\n        /* \"contracts/KipProtocol.sol\":3731:3738  _amount */\n      dup4\n        /* \"contracts/KipProtocol.sol\":3741:3749  _receipt */\n      dup4\n        /* \"contracts/KipProtocol.sol\":3705:3750  ConsumeLog(lastConsumeID, _amount,  _receipt) */\n      mload(0x40)\n      tag_152\n      swap4\n      swap3\n      swap2\n      swap1\n      tag_153\n      jump\t// in\n    tag_152:\n      mload(0x40)\n      dup1\n      swap2\n      sub\n      swap1\n      log1\n        /* \"contracts/KipProtocol.sol\":3761:3774  lastConsumeID */\n      0x04\n        /* \"contracts/KipProtocol.sol\":3761:3776  lastConsumeID++ */\n      dup1\n      sload\n      swap1\n        /* \"contracts/KipProtocol.sol\":3761:3774  lastConsumeID */\n      0x00\n        /* \"contracts/KipProtocol.sol\":3761:3776  lastConsumeID++ */\n      tag_154\n      dup4\n      tag_155\n      jump\t// in\n    tag_154:\n      swap2\n      swap1\n      pop\n      sstore\n      pop\n        /* \"contracts/KipProtocol.sol\":2375:3783  function consume(address _consumer, uint256 _amount, receipt[] memory _receipt) public {... */\n      pop\n      pop\n      pop\n      jump\t// out\n        /* \"contracts/KipProtocol.sol\":1753:2369  function createToken(address sft_address, uint256 slot_value, uint256 token_amount) public {... */\n    tag_71:\n        /* \"contracts/KipProtocol.sol\":1854:1868  ISFT sft_entry */\n      0x00\n        /* \"contracts/KipProtocol.sol\":1876:1887  sft_address */\n      dup4\n        /* \"contracts/KipProtocol.sol\":1854:1888  ISFT sft_entry = ISFT(sft_address) */\n      swap1\n      pop\n        /* \"contracts/KipProtocol.sol\":1935:1939  this */\n      address\n      sub(shl(0xa0, 0x01), 0x01)\n        /* \"contracts/KipProtocol.sol\":1906:1940  sft_entry.owner() == address(this) */\n      and\n        /* \"contracts/KipProtocol.sol\":1906:1915  sft_entry */\n      dup2\n      sub(shl(0xa0, 0x01), 0x01)\n        /* \"contracts/KipProtocol.sol\":1906:1921  sft_entry.owner */\n      and\n      0x8da5cb5b\n        /* \"contracts/KipProtocol.sol\":1906:1923  sft_entry.owner() */\n      mload(0x40)\n      dup2\n      0xffffffff\n      and\n      0xe0\n      shl\n      dup2\n      mstore\n      0x04\n      add\n      0x20\n      mload(0x40)\n      dup1\n      dup4\n      sub\n      dup2\n      dup7\n      gas\n      staticcall\n      iszero\n      dup1\n      iszero\n      tag_158\n      jumpi\n      returndatasize\n      0x00\n      dup1\n      returndatacopy\n      revert(0x00, returndatasize)\n    tag_158:\n      pop\n      pop\n      pop\n      pop\n      mload(0x40)\n      returndatasize\n      not(0x1f)\n      0x1f\n      dup3\n      add\n      and\n      dup3\n      add\n      dup1\n      0x40\n      mstore\n      pop\n      dup2\n      add\n      swap1\n      tag_159\n      swap2\n      swap1\n      tag_160\n      jump\t// in\n    tag_159:\n      sub(shl(0xa0, 0x01), 0x01)\n        /* \"contracts/KipProtocol.sol\":1906:1940  sft_entry.owner() == address(this) */\n      and\n      eq\n        /* \"contracts/KipProtocol.sol\":1898:1956  require(sft_entry.owner() == address(this), \"Not a owner\") */\n      tag_161\n      jumpi\n      mload(0x40)\n      shl(0xe5, 0x461bcd)\n      dup2\n      mstore\n        /* \"#utility.yul\":8010:8012   */\n      0x20\n        /* \"contracts/KipProtocol.sol\":1898:1956  require(sft_entry.owner() == address(this), \"Not a owner\") */\n      0x04\n      dup3\n      add\n        /* \"#utility.yul\":7992:8013   */\n      mstore\n        /* \"#utility.yul\":8049:8051   */\n      0x0b\n        /* \"#utility.yul\":8029:8047   */\n      0x24\n      dup3\n      add\n        /* \"#utility.yul\":8022:8052   */\n      mstore\n      shl(0xa9, 0x2737ba10309037bbb732b9)\n        /* \"#utility.yul\":8068:8086   */\n      0x44\n      dup3\n      add\n        /* \"#utility.yul\":8061:8102   */\n      mstore\n        /* \"#utility.yul\":8119:8137   */\n      0x64\n      add\n        /* \"contracts/KipProtocol.sol\":1898:1956  require(sft_entry.owner() == address(this), \"Not a owner\") */\n      tag_108\n        /* \"#utility.yul\":7808:8143   */\n      jump\n        /* \"contracts/KipProtocol.sol\":1898:1956  require(sft_entry.owner() == address(this), \"Not a owner\") */\n    tag_161:\n        /* \"contracts/KipProtocol.sol\":2030:2031  0 */\n      0x00\n      sub(shl(0xa0, 0x01), 0x01)\n        /* \"contracts/KipProtocol.sol\":1974:2032  sft_assets[sft_entry._offchainReferenceID()] == address(0) */\n      and\n        /* \"contracts/KipProtocol.sol\":1974:1984  sft_assets */\n      0x06\n        /* \"contracts/KipProtocol.sol\":1974:2018  sft_assets[sft_entry._offchainReferenceID()] */\n      0x00\n        /* \"contracts/KipProtocol.sol\":1985:1994  sft_entry */\n      dup4\n      sub(shl(0xa0, 0x01), 0x01)\n        /* \"contracts/KipProtocol.sol\":1985:2015  sft_entry._offchainReferenceID */\n      and\n      0xdd3fc0ab\n        /* \"contracts/KipProtocol.sol\":1985:2017  sft_entry._offchainReferenceID() */\n      mload(0x40)\n      dup2\n      0xffffffff\n      and\n      0xe0\n      shl\n      dup2\n      mstore\n      0x04\n      add\n      0x20\n      mload(0x40)\n      dup1\n      dup4\n      sub\n      dup2\n      dup7\n      gas\n      staticcall\n      iszero\n      dup1\n      iszero\n      tag_165\n      jumpi\n      returndatasize\n      0x00\n      dup1\n      returndatacopy\n      revert(0x00, returndatasize)\n    tag_165:\n      pop\n      pop\n      pop\n      pop\n      mload(0x40)\n      returndatasize\n      not(0x1f)\n      0x1f\n      dup3\n      add\n      and\n      dup3\n      add\n      dup1\n      0x40\n      mstore\n      pop\n      dup2\n      add\n      swap1\n      tag_166\n      swap2\n      swap1\n      tag_131\n      jump\t// in\n    tag_166:\n        /* \"contracts/KipProtocol.sol\":1974:2018  sft_assets[sft_entry._offchainReferenceID()] */\n      dup2\n      mstore\n      0x20\n      dup2\n      add\n      swap2\n      swap1\n      swap2\n      mstore\n      0x40\n      add\n      0x00\n      keccak256\n      sload\n      sub(shl(0xa0, 0x01), 0x01)\n      and\n        /* \"contracts/KipProtocol.sol\":1974:2032  sft_assets[sft_entry._offchainReferenceID()] == address(0) */\n      eq\n        /* \"contracts/KipProtocol.sol\":1966:2052  require(sft_assets[sft_entry._offchainReferenceID()] == address(0), \"Already created\") */\n      tag_167\n      jumpi\n      mload(0x40)\n      shl(0xe5, 0x461bcd)\n      dup2\n      mstore\n        /* \"#utility.yul\":8350:8352   */\n      0x20\n        /* \"contracts/KipProtocol.sol\":1966:2052  require(sft_assets[sft_entry._offchainReferenceID()] == address(0), \"Already created\") */\n      0x04\n      dup3\n      add\n        /* \"#utility.yul\":8332:8353   */\n      mstore\n        /* \"#utility.yul\":8389:8391   */\n      0x0f\n        /* \"#utility.yul\":8369:8387   */\n      0x24\n      dup3\n      add\n        /* \"#utility.yul\":8362:8392   */\n      mstore\n      shl(0x8a, 0x105b1c9958591e4818dc99585d1959)\n        /* \"#utility.yul\":8408:8426   */\n      0x44\n      dup3\n      add\n        /* \"#utility.yul\":8401:8446   */\n      mstore\n        /* \"#utility.yul\":8463:8481   */\n      0x64\n      add\n        /* \"contracts/KipProtocol.sol\":1966:2052  require(sft_assets[sft_entry._offchainReferenceID()] == address(0), \"Already created\") */\n      tag_108\n        /* \"#utility.yul\":8148:8487   */\n      jump\n        /* \"contracts/KipProtocol.sol\":1966:2052  require(sft_assets[sft_entry._offchainReferenceID()] == address(0), \"Already created\") */\n    tag_167:\n        /* \"contracts/KipProtocol.sol\":2080:2081  1 */\n      0x01\n        /* \"contracts/KipProtocol.sol\":2063:2194  for (uint256 i = 1; i <= token_amount; i++) {... */\n    tag_170:\n        /* \"contracts/KipProtocol.sol\":2088:2100  token_amount */\n      dup3\n        /* \"contracts/KipProtocol.sol\":2083:2084  i */\n      dup2\n        /* \"contracts/KipProtocol.sol\":2083:2100  i <= token_amount */\n      gt\n        /* \"contracts/KipProtocol.sol\":2063:2194  for (uint256 i = 1; i <= token_amount; i++) {... */\n      tag_171\n      jumpi\n        /* \"contracts/KipProtocol.sol\":2121:2130  sft_entry */\n      dup2\n      sub(shl(0xa0, 0x01), 0x01)\n        /* \"contracts/KipProtocol.sol\":2121:2135  sft_entry.mint */\n      and\n      0x156e29f6\n        /* \"contracts/KipProtocol.sol\":2136:2145  sft_entry */\n      dup4\n      sub(shl(0xa0, 0x01), 0x01)\n        /* \"contracts/KipProtocol.sol\":2136:2159  sft_entry._ownerAddress */\n      and\n      0xa786c18b\n        /* \"contracts/KipProtocol.sol\":2136:2161  sft_entry._ownerAddress() */\n      mload(0x40)\n      dup2\n      0xffffffff\n      and\n      0xe0\n      shl\n      dup2\n      mstore\n      0x04\n      add\n      0x20\n      mload(0x40)\n      dup1\n      dup4\n      sub\n      dup2\n      dup7\n      gas\n      staticcall\n      iszero\n      dup1\n      iszero\n      tag_174\n      jumpi\n      returndatasize\n      0x00\n      dup1\n      returndatacopy\n      revert(0x00, returndatasize)\n    tag_174:\n      pop\n      pop\n      pop\n      pop\n      mload(0x40)\n      returndatasize\n      not(0x1f)\n      0x1f\n      dup3\n      add\n      and\n      dup3\n      add\n      dup1\n      0x40\n      mstore\n      pop\n      dup2\n      add\n      swap1\n      tag_175\n      swap2\n      swap1\n      tag_160\n      jump\t// in\n    tag_175:\n        /* \"contracts/KipProtocol.sol\":2163:2170  sftSlot */\n      sload(0x05)\n        /* \"contracts/KipProtocol.sol\":2121:2183  sft_entry.mint(sft_entry._ownerAddress(), sftSlot, slot_value) */\n      mload(0x40)\n      not(sub(shl(0xe0, 0x01), 0x01))\n      0xe0\n      dup6\n      swap1\n      shl\n      and\n      dup2\n      mstore\n      sub(shl(0xa0, 0x01), 0x01)\n        /* \"#utility.yul\":8712:8744   */\n      swap1\n      swap3\n      and\n        /* \"contracts/KipProtocol.sol\":2121:2183  sft_entry.mint(sft_entry._ownerAddress(), sftSlot, slot_value) */\n      0x04\n      dup4\n      add\n        /* \"#utility.yul\":8694:8745   */\n      mstore\n        /* \"#utility.yul\":8761:8779   */\n      0x24\n      dup3\n      add\n        /* \"#utility.yul\":8754:8788   */\n      mstore\n        /* \"#utility.yul\":8804:8822   */\n      0x44\n      dup2\n      add\n        /* \"#utility.yul\":8797:8831   */\n      dup8\n      swap1\n      mstore\n        /* \"#utility.yul\":8667:8685   */\n      0x64\n      add\n        /* \"contracts/KipProtocol.sol\":2121:2183  sft_entry.mint(sft_entry._ownerAddress(), sftSlot, slot_value) */\n      0x00\n      mload(0x40)\n      dup1\n      dup4\n      sub\n      dup2\n      0x00\n      dup8\n      dup1\n      extcodesize\n      iszero\n      dup1\n      iszero\n      tag_178\n      jumpi\n      0x00\n      dup1\n      revert\n    tag_178:\n      pop\n      gas\n      call\n      iszero\n      dup1\n      iszero\n      tag_180\n      jumpi\n      returndatasize\n      0x00\n      dup1\n      returndatacopy\n      revert(0x00, returndatasize)\n    tag_180:\n      pop\n      pop\n      pop\n      pop\n        /* \"contracts/KipProtocol.sol\":2102:2105  i++ */\n      dup1\n      dup1\n      tag_181\n      swap1\n      tag_155\n      jump\t// in\n    tag_181:\n      swap2\n      pop\n      pop\n        /* \"contracts/KipProtocol.sol\":2063:2194  for (uint256 i = 1; i <= token_amount; i++) {... */\n      jump(tag_170)\n    tag_171:\n      pop\n        /* \"contracts/KipProtocol.sol\":2250:2261  sft_address */\n      dup4\n        /* \"contracts/KipProtocol.sol\":2203:2213  sft_assets */\n      0x06\n        /* \"contracts/KipProtocol.sol\":2203:2247  sft_assets[sft_entry._offchainReferenceID()] */\n      0x00\n        /* \"contracts/KipProtocol.sol\":2214:2223  sft_entry */\n      dup4\n      sub(shl(0xa0, 0x01), 0x01)\n        /* \"contracts/KipProtocol.sol\":2214:2244  sft_entry._offchainReferenceID */\n      and\n      0xdd3fc0ab\n        /* \"contracts/KipProtocol.sol\":2214:2246  sft_entry._offchainReferenceID() */\n      mload(0x40)\n      dup2\n      0xffffffff\n      and\n      0xe0\n      shl\n      dup2\n      mstore\n      0x04\n      add\n      0x20\n      mload(0x40)\n      dup1\n      dup4\n      sub\n      dup2\n      dup7\n      gas\n      staticcall\n      iszero\n      dup1\n      iszero\n      tag_183\n      jumpi\n      returndatasize\n      0x00\n      dup1\n      returndatacopy\n      revert(0x00, returndatasize)\n    tag_183:\n      pop\n      pop\n      pop\n      pop\n      mload(0x40)\n      returndatasize\n      not(0x1f)\n      0x1f\n      dup3\n      add\n      and\n      dup3\n      add\n      dup1\n      0x40\n      mstore\n      pop\n      dup2\n      add\n      swap1\n      tag_184\n      swap2\n      swap1\n      tag_131\n      jump\t// in\n    tag_184:\n        /* \"contracts/KipProtocol.sol\":2203:2247  sft_assets[sft_entry._offchainReferenceID()] */\n      dup2\n      mstore\n      0x20\n      add\n      swap1\n      dup2\n      mstore\n      0x20\n      add\n      0x00\n      keccak256\n      0x00\n        /* \"contracts/KipProtocol.sol\":2203:2261  sft_assets[sft_entry._offchainReferenceID()] = sft_address */\n      0x0100\n      exp\n      dup2\n      sload\n      dup2\n      sub(shl(0xa0, 0x01), 0x01)\n      mul\n      not\n      and\n      swap1\n      dup4\n      sub(shl(0xa0, 0x01), 0x01)\n      and\n      mul\n      or\n      swap1\n      sstore\n      pop\n        /* \"contracts/KipProtocol.sol\":2277:2362  TokenCreated(sft_address, slot_value, token_amount, sft_entry._offchainReferenceID()) */\n      0x3deeffca3c86a528758b0ff95b46b531e03be332bf88cb7e2c7b0b8daa608c31\n        /* \"contracts/KipProtocol.sol\":2290:2301  sft_address */\n      dup5\n        /* \"contracts/KipProtocol.sol\":2303:2313  slot_value */\n      dup5\n        /* \"contracts/KipProtocol.sol\":2315:2327  token_amount */\n      dup5\n        /* \"contracts/KipProtocol.sol\":2329:2338  sft_entry */\n      dup5\n      sub(shl(0xa0, 0x01), 0x01)\n        /* \"contracts/KipProtocol.sol\":2329:2359  sft_entry._offchainReferenceID */\n      and\n      0xdd3fc0ab\n        /* \"contracts/KipProtocol.sol\":2329:2361  sft_entry._offchainReferenceID() */\n      mload(0x40)\n      dup2\n      0xffffffff\n      and\n      0xe0\n      shl\n      dup2\n      mstore\n      0x04\n      add\n      0x20\n      mload(0x40)\n      dup1\n      dup4\n      sub\n      dup2\n      dup7\n      gas\n      staticcall\n      iszero\n      dup1\n      iszero\n      tag_186\n      jumpi\n      returndatasize\n      0x00\n      dup1\n      returndatacopy\n      revert(0x00, returndatasize)\n    tag_186:\n      pop\n      pop\n      pop\n      pop\n      mload(0x40)\n      returndatasize\n      not(0x1f)\n      0x1f\n      dup3\n      add\n      and\n      dup3\n      add\n      dup1\n      0x40\n      mstore\n      pop\n      dup2\n      add\n      swap1\n      tag_187\n      swap2\n      swap1\n      tag_131\n      jump\t// in\n    tag_187:\n        /* \"contracts/KipProtocol.sol\":2277:2362  TokenCreated(sft_address, slot_value, token_amount, sft_entry._offchainReferenceID()) */\n      0x40\n      dup1\n      mload\n      sub(shl(0xa0, 0x01), 0x01)\n        /* \"#utility.yul\":9091:9123   */\n      swap1\n      swap6\n      and\n        /* \"#utility.yul\":9073:9124   */\n      dup6\n      mstore\n        /* \"#utility.yul\":9155:9157   */\n      0x20\n        /* \"#utility.yul\":9140:9158   */\n      dup6\n      add\n        /* \"#utility.yul\":9133:9167   */\n      swap4\n      swap1\n      swap4\n      mstore\n        /* \"#utility.yul\":9183:9201   */\n      swap2\n      dup4\n      add\n        /* \"#utility.yul\":9176:9210   */\n      mstore\n        /* \"#utility.yul\":9241:9243   */\n      0x60\n        /* \"#utility.yul\":9226:9244   */\n      dup3\n      add\n        /* \"#utility.yul\":9219:9253   */\n      mstore\n        /* \"#utility.yul\":9060:9063   */\n      0x80\n        /* \"#utility.yul\":9045:9064   */\n      add\n        /* \"contracts/KipProtocol.sol\":2277:2362  TokenCreated(sft_address, slot_value, token_amount, sft_entry._offchainReferenceID()) */\n      mload(0x40)\n      dup1\n      swap2\n      sub\n      swap1\n      log1\n        /* \"contracts/KipProtocol.sol\":1844:2369  {... */\n      pop\n        /* \"contracts/KipProtocol.sol\":1753:2369  function createToken(address sft_address, uint256 slot_value, uint256 token_amount) public {... */\n      pop\n      pop\n      pop\n      jump\t// out\n        /* \"contracts/KipProtocol.sol\":3888:4158  function recharge(uint256 amount_) public {... */\n    tag_77:\n        /* \"contracts/KipProtocol.sol\":3962:3972  priceToken */\n      and(sub(shl(0xa0, 0x01), 0x01), sload(0x02))\n      dup1\n        /* \"contracts/KipProtocol.sol\":3983:4001  token.transferFrom */\n      0x23b872dd\n        /* \"@openzeppelin/contracts/utils/Context.sol\":735:745  msg.sender */\n      caller\n        /* \"contracts/KipProtocol.sol\":3983:4039  token.transferFrom(_msgSender(), address(this), amount_) */\n      mload(0x40)\n      not(sub(shl(0xe0, 0x01), 0x01))\n      0xe0\n      dup5\n      swap1\n      shl\n      and\n      dup2\n      mstore\n      sub(shl(0xa0, 0x01), 0x01)\n        /* \"#utility.yul\":9522:9537   */\n      swap1\n      swap2\n      and\n        /* \"contracts/KipProtocol.sol\":3983:4039  token.transferFrom(_msgSender(), address(this), amount_) */\n      0x04\n      dup3\n      add\n        /* \"#utility.yul\":9504:9538   */\n      mstore\n        /* \"contracts/KipProtocol.sol\":4024:4028  this */\n      address\n        /* \"#utility.yul\":9554:9572   */\n      0x24\n      dup3\n      add\n        /* \"#utility.yul\":9547:9590   */\n      mstore\n        /* \"#utility.yul\":9606:9624   */\n      0x44\n      dup2\n      add\n        /* \"#utility.yul\":9599:9633   */\n      dup6\n      swap1\n      mstore\n        /* \"#utility.yul\":9439:9457   */\n      0x64\n      add\n        /* \"contracts/KipProtocol.sol\":3983:4039  token.transferFrom(_msgSender(), address(this), amount_) */\n      0x20\n      mload(0x40)\n      dup1\n      dup4\n      sub\n      dup2\n      0x00\n      dup8\n      gas\n      call\n      iszero\n      dup1\n      iszero\n      tag_196\n      jumpi\n      returndatasize\n      0x00\n      dup1\n      returndatacopy\n      revert(0x00, returndatasize)\n    tag_196:\n      pop\n      pop\n      pop\n      pop\n      mload(0x40)\n      returndatasize\n      not(0x1f)\n      0x1f\n      dup3\n      add\n      and\n      dup3\n      add\n      dup1\n      0x40\n      mstore\n      pop\n      dup2\n      add\n      swap1\n      tag_197\n      swap2\n      swap1\n      tag_198\n      jump\t// in\n    tag_197:\n      pop\n        /* \"@openzeppelin/contracts/utils/Context.sol\":735:745  msg.sender */\n      caller\n        /* \"contracts/KipProtocol.sol\":4049:4079  consumer_balance[_msgSender()] */\n      0x00\n      swap1\n      dup2\n      mstore\n        /* \"contracts/KipProtocol.sol\":4049:4065  consumer_balance */\n      0x07\n        /* \"contracts/KipProtocol.sol\":4049:4079  consumer_balance[_msgSender()] */\n      0x20\n      mstore\n      0x40\n      dup2\n      keccak256\n        /* \"contracts/KipProtocol.sol\":4049:4090  consumer_balance[_msgSender()] += amount_ */\n      dup1\n      sload\n        /* \"contracts/KipProtocol.sol\":4083:4090  amount_ */\n      dup5\n      swap3\n        /* \"contracts/KipProtocol.sol\":4049:4079  consumer_balance[_msgSender()] */\n      swap1\n        /* \"contracts/KipProtocol.sol\":4049:4090  consumer_balance[_msgSender()] += amount_ */\n      tag_200\n      swap1\n        /* \"contracts/KipProtocol.sol\":4083:4090  amount_ */\n      dup5\n      swap1\n        /* \"contracts/KipProtocol.sol\":4049:4090  consumer_balance[_msgSender()] += amount_ */\n      tag_148\n      jump\t// in\n    tag_200:\n      swap1\n      swap2\n      sstore\n      pop\n      pop\n        /* \"contracts/KipProtocol.sol\":4105:4151  ConsumerBalanceRecharged(_msgSender(),amount_) */\n      0x40\n      dup1\n      mload\n        /* \"@openzeppelin/contracts/utils/Context.sol\":735:745  msg.sender */\n      caller\n        /* \"#utility.yul\":10068:10119   */\n      dup2\n      mstore\n        /* \"#utility.yul\":10150:10152   */\n      0x20\n        /* \"#utility.yul\":10135:10153   */\n      dup2\n      add\n        /* \"#utility.yul\":10128:10162   */\n      dup5\n      swap1\n      mstore\n        /* \"contracts/KipProtocol.sol\":4105:4151  ConsumerBalanceRecharged(_msgSender(),amount_) */\n      0xb9a1bffb5ad7fcaeb79fe2262ee61bc2b44689df94bb558f7e70eac20cbd0a05\n      swap2\n        /* \"#utility.yul\":10041:10059   */\n      add\n        /* \"contracts/KipProtocol.sol\":4105:4151  ConsumerBalanceRecharged(_msgSender(),amount_) */\n      tag_88\n        /* \"#utility.yul\":9894:10168   */\n      jump\n        /* \"@openzeppelin/contracts/access/Ownable.sol\":2543:2758  function transferOwnership(address newOwner) public virtual onlyOwner {... */\n    tag_80:\n        /* \"@openzeppelin/contracts/access/Ownable.sol\":1531:1544  _checkOwner() */\n      tag_205\n        /* \"@openzeppelin/contracts/access/Ownable.sol\":1531:1542  _checkOwner */\n      tag_86\n        /* \"@openzeppelin/contracts/access/Ownable.sol\":1531:1544  _checkOwner() */\n      jump\t// in\n    tag_205:\n      sub(shl(0xa0, 0x01), 0x01)\n        /* \"@openzeppelin/contracts/access/Ownable.sol\":2627:2649  newOwner == address(0) */\n      dup2\n      and\n        /* \"@openzeppelin/contracts/access/Ownable.sol\":2623:2714  if (newOwner == address(0)) {... */\n      tag_207\n      jumpi\n        /* \"@openzeppelin/contracts/access/Ownable.sol\":2672:2703  OwnableInvalidOwner(address(0)) */\n      mload(0x40)\n      shl(0xe0, 0x1e4fbdf7)\n      dup2\n      mstore\n        /* \"@openzeppelin/contracts/access/Ownable.sol\":2700:2701  0 */\n      0x00\n        /* \"@openzeppelin/contracts/access/Ownable.sol\":2672:2703  OwnableInvalidOwner(address(0)) */\n      0x04\n      dup3\n      add\n        /* \"#utility.yul\":991:1042   */\n      mstore\n        /* \"#utility.yul\":964:982   */\n      0x24\n      add\n        /* \"@openzeppelin/contracts/access/Ownable.sol\":2672:2703  OwnableInvalidOwner(address(0)) */\n      tag_108\n        /* \"#utility.yul\":845:1048   */\n      jump\n        /* \"@openzeppelin/contracts/access/Ownable.sol\":2623:2714  if (newOwner == address(0)) {... */\n    tag_207:\n        /* \"@openzeppelin/contracts/access/Ownable.sol\":2723:2751  _transferOwnership(newOwner) */\n      tag_209\n        /* \"@openzeppelin/contracts/access/Ownable.sol\":2742:2750  newOwner */\n      dup2\n        /* \"@openzeppelin/contracts/access/Ownable.sol\":2723:2741  _transferOwnership */\n      tag_102\n        /* \"@openzeppelin/contracts/access/Ownable.sol\":2723:2751  _transferOwnership(newOwner) */\n      jump\t// in\n    tag_209:\n        /* \"@openzeppelin/contracts/access/Ownable.sol\":2543:2758  function transferOwnership(address newOwner) public virtual onlyOwner {... */\n      pop\n      jump\t// out\n        /* \"@openzeppelin/contracts/access/Ownable.sol\":1796:1958  function _checkOwner() internal view virtual {... */\n    tag_86:\n        /* \"@openzeppelin/contracts/access/Ownable.sol\":1684:1691  address */\n      0x00\n        /* \"@openzeppelin/contracts/access/Ownable.sol\":1710:1716  _owner */\n      sload\n      sub(shl(0xa0, 0x01), 0x01)\n      and\n        /* \"@openzeppelin/contracts/utils/Context.sol\":735:745  msg.sender */\n      caller\n        /* \"@openzeppelin/contracts/access/Ownable.sol\":1855:1878  owner() != _msgSender() */\n      eq\n        /* \"@openzeppelin/contracts/access/Ownable.sol\":1851:1952  if (owner() != _msgSender()) {... */\n      tag_101\n      jumpi\n        /* \"@openzeppelin/contracts/access/Ownable.sol\":1901:1941  OwnableUnauthorizedAccount(_msgSender()) */\n      mload(0x40)\n      shl(0xe0, 0x118cdaa7)\n      dup2\n      mstore\n        /* \"@openzeppelin/contracts/utils/Context.sol\":735:745  msg.sender */\n      caller\n        /* \"@openzeppelin/contracts/access/Ownable.sol\":1901:1941  OwnableUnauthorizedAccount(_msgSender()) */\n      0x04\n      dup3\n      add\n        /* \"#utility.yul\":991:1042   */\n      mstore\n        /* \"#utility.yul\":964:982   */\n      0x24\n      add\n        /* \"@openzeppelin/contracts/access/Ownable.sol\":1901:1941  OwnableUnauthorizedAccount(_msgSender()) */\n      tag_108\n        /* \"#utility.yul\":845:1048   */\n      jump\n        /* \"@openzeppelin/contracts/access/Ownable.sol\":2912:3099  function _transferOwnership(address newOwner) internal virtual {... */\n    tag_102:\n        /* \"@openzeppelin/contracts/access/Ownable.sol\":2985:3001  address oldOwner */\n      0x00\n        /* \"@openzeppelin/contracts/access/Ownable.sol\":3004:3010  _owner */\n      dup1\n      sload\n      sub(shl(0xa0, 0x01), 0x01)\n        /* \"@openzeppelin/contracts/access/Ownable.sol\":3020:3037  _owner = newOwner */\n      dup4\n      dup2\n      and\n      not(sub(shl(0xa0, 0x01), 0x01))\n      dup4\n      and\n      dup2\n      or\n      dup5\n      sstore\n        /* \"@openzeppelin/contracts/access/Ownable.sol\":3052:3092  OwnershipTransferred(oldOwner, newOwner) */\n      mload(0x40)\n        /* \"@openzeppelin/contracts/access/Ownable.sol\":3004:3010  _owner */\n      swap2\n      swap1\n      swap3\n      and\n      swap3\n      dup4\n      swap2\n        /* \"@openzeppelin/contracts/access/Ownable.sol\":3052:3092  OwnershipTransferred(oldOwner, newOwner) */\n      0x8be0079c531659141344cd1fd0a4f28419497f9722a3daafe3b4186f6b6457e0\n      swap2\n        /* \"@openzeppelin/contracts/access/Ownable.sol\":2985:3001  address oldOwner */\n      swap1\n        /* \"@openzeppelin/contracts/access/Ownable.sol\":3052:3092  OwnershipTransferred(oldOwner, newOwner) */\n      log3\n        /* \"@openzeppelin/contracts/access/Ownable.sol\":2975:3099  {... */\n      pop\n        /* \"@openzeppelin/contracts/access/Ownable.sol\":2912:3099  function _transferOwnership(address newOwner) internal virtual {... */\n      pop\n      jump\t// out\n        /* \"@openzeppelin/contracts/utils/structs/EnumerableMap.sol\":7566:7783  function tryGet(UintToUintMap storage map, uint256 key) internal view returns (bool, uint256) {... */\n    tag_142:\n        /* \"@openzeppelin/contracts/utils/structs/EnumerableMap.sol\":7645:7649  bool */\n      0x00\n      dup1\n      dup1\n      dup1\n        /* \"@openzeppelin/contracts/utils/structs/EnumerableMap.sol\":7702:7734  tryGet(map._inner, bytes32(key)) */\n      tag_219\n        /* \"@openzeppelin/contracts/utils/structs/EnumerableMap.sol\":7709:7712  map */\n      dup7\n        /* \"@openzeppelin/contracts/utils/structs/EnumerableMap.sol\":7729:7732  key */\n      dup7\n        /* \"@openzeppelin/contracts/utils/structs/EnumerableMap.sol\":7702:7708  tryGet */\n      tag_220\n        /* \"@openzeppelin/contracts/utils/structs/EnumerableMap.sol\":7702:7734  tryGet(map._inner, bytes32(key)) */\n      jump\t// in\n    tag_219:\n        /* \"@openzeppelin/contracts/utils/structs/EnumerableMap.sol\":7670:7734  (bool success, bytes32 value) = tryGet(map._inner, bytes32(key)) */\n      swap1\n      swap5\n      pop\n      swap3\n      pop\n      pop\n      pop\n        /* \"@openzeppelin/contracts/utils/structs/EnumerableMap.sol\":7566:7783  function tryGet(UintToUintMap storage map, uint256 key) internal view returns (bool, uint256) {... */\n    tag_218:\n      swap3\n      pop\n      swap3\n      swap1\n      pop\n      jump\t// out\n        /* \"@openzeppelin/contracts/utils/structs/EnumerableMap.sol\":5997:6158  function set(UintToUintMap storage map, uint256 key, uint256 value) internal returns (bool) {... */\n    tag_149:\n        /* \"@openzeppelin/contracts/utils/structs/EnumerableMap.sol\":6083:6087  bool */\n      0x00\n        /* \"@openzeppelin/contracts/utils/structs/EnumerableMap.sol\":6106:6151  set(map._inner, bytes32(key), bytes32(value)) */\n      tag_222\n        /* \"@openzeppelin/contracts/utils/structs/EnumerableMap.sol\":6110:6113  map */\n      dup5\n        /* \"@openzeppelin/contracts/utils/structs/EnumerableMap.sol\":6130:6133  key */\n      dup5\n        /* \"@openzeppelin/contracts/utils/structs/EnumerableMap.sol\":6144:6149  value */\n      dup5\n        /* \"@openzeppelin/contracts/utils/structs/EnumerableMap.sol\":6106:6109  set */\n      tag_223\n        /* \"@openzeppelin/contracts/utils/structs/EnumerableMap.sol\":6106:6151  set(map._inner, bytes32(key), bytes32(value)) */\n      jump\t// in\n    tag_222:\n        /* \"@openzeppelin/contracts/utils/structs/EnumerableMap.sol\":6099:6151  return set(map._inner, bytes32(key), bytes32(value)) */\n      swap5\n        /* \"@openzeppelin/contracts/utils/structs/EnumerableMap.sol\":5997:6158  function set(UintToUintMap storage map, uint256 key, uint256 value) internal returns (bool) {... */\n      swap4\n      pop\n      pop\n      pop\n      pop\n      jump\t// out\n        /* \"@openzeppelin/contracts/utils/structs/EnumerableMap.sol\":4275:4573  function tryGet(Bytes32ToBytes32Map storage map, bytes32 key) internal view returns (bool, bytes32) {... */\n    tag_220:\n        /* \"@openzeppelin/contracts/utils/structs/EnumerableMap.sol\":4360:4364  bool */\n      0x00\n        /* \"@openzeppelin/contracts/utils/structs/EnumerableMap.sol\":4401:4417  map._values[key] */\n      dup2\n      dup2\n      mstore\n        /* \"@openzeppelin/contracts/utils/structs/EnumerableMap.sol\":4401:4412  map._values */\n      0x02\n      dup4\n      add\n        /* \"@openzeppelin/contracts/utils/structs/EnumerableMap.sol\":4401:4417  map._values[key] */\n      0x20\n      mstore\n      0x40\n      dup2\n      keccak256\n      sload\n        /* \"@openzeppelin/contracts/utils/structs/EnumerableMap.sol\":4360:4364  bool */\n      dup2\n      swap1\n        /* \"@openzeppelin/contracts/utils/structs/EnumerableMap.sol\":4401:4417  map._values[key] */\n      dup1\n        /* \"@openzeppelin/contracts/utils/structs/EnumerableMap.sol\":4427:4567  if (value == bytes32(0)) {... */\n      tag_225\n      jumpi\n        /* \"@openzeppelin/contracts/utils/structs/EnumerableMap.sol\":4474:4492  contains(map, key) */\n      tag_226\n        /* \"@openzeppelin/contracts/utils/structs/EnumerableMap.sol\":4483:4486  map */\n      dup6\n        /* \"@openzeppelin/contracts/utils/structs/EnumerableMap.sol\":4488:4491  key */\n      dup6\n        /* \"@openzeppelin/contracts/utils/structs/EnumerableMap.sol\":4474:4482  contains */\n      tag_227\n        /* \"@openzeppelin/contracts/utils/structs/EnumerableMap.sol\":4474:4492  contains(map, key) */\n      jump\t// in\n    tag_226:\n        /* \"@openzeppelin/contracts/utils/structs/EnumerableMap.sol\":4466:4505  return (contains(map, key), bytes32(0)) */\n      swap3\n      pop\n        /* \"@openzeppelin/contracts/utils/structs/EnumerableMap.sol\":4502:4503  0 */\n      0x00\n      swap2\n      pop\n        /* \"@openzeppelin/contracts/utils/structs/EnumerableMap.sol\":4466:4505  return (contains(map, key), bytes32(0)) */\n      tag_218\n      swap1\n      pop\n      jump\n        /* \"@openzeppelin/contracts/utils/structs/EnumerableMap.sol\":4427:4567  if (value == bytes32(0)) {... */\n    tag_225:\n        /* \"@openzeppelin/contracts/utils/structs/EnumerableMap.sol\":4544:4548  true */\n      0x01\n      swap3\n      pop\n        /* \"@openzeppelin/contracts/utils/structs/EnumerableMap.sol\":4550:4555  value */\n      swap1\n      pop\n        /* \"@openzeppelin/contracts/utils/structs/EnumerableMap.sol\":4536:4556  return (true, value) */\n      jump(tag_218)\n        /* \"@openzeppelin/contracts/utils/structs/EnumerableMap.sol\":2652:2826  function set(Bytes32ToBytes32Map storage map, bytes32 key, bytes32 value) internal returns (bool) {... */\n    tag_223:\n        /* \"@openzeppelin/contracts/utils/structs/EnumerableMap.sol\":2744:2748  bool */\n      0x00\n        /* \"@openzeppelin/contracts/utils/structs/EnumerableMap.sol\":2760:2776  map._values[key] */\n      dup3\n      dup2\n      mstore\n        /* \"@openzeppelin/contracts/utils/structs/EnumerableMap.sol\":2760:2771  map._values */\n      0x02\n      dup5\n      add\n        /* \"@openzeppelin/contracts/utils/structs/EnumerableMap.sol\":2760:2776  map._values[key] */\n      0x20\n      mstore\n      0x40\n      dup2\n      keccak256\n        /* \"@openzeppelin/contracts/utils/structs/EnumerableMap.sol\":2760:2784  map._values[key] = value */\n      dup3\n      swap1\n      sstore\n        /* \"@openzeppelin/contracts/utils/structs/EnumerableMap.sol\":2801:2819  map._keys.add(key) */\n      tag_222\n        /* \"@openzeppelin/contracts/utils/structs/EnumerableMap.sol\":2760:2763  map */\n      dup5\n        /* \"@openzeppelin/contracts/utils/structs/EnumerableMap.sol\":2772:2775  key */\n      dup5\n        /* \"@openzeppelin/contracts/utils/structs/EnumerableMap.sol\":2801:2814  map._keys.add */\n      tag_231\n        /* \"@openzeppelin/contracts/utils/structs/EnumerableMap.sol\":2801:2819  map._keys.add(key) */\n      jump\t// in\n        /* \"@openzeppelin/contracts/utils/structs/EnumerableMap.sol\":3237:3377  function contains(Bytes32ToBytes32Map storage map, bytes32 key) internal view returns (bool) {... */\n    tag_227:\n        /* \"@openzeppelin/contracts/utils/structs/EnumerableMap.sol\":3324:3328  bool */\n      0x00\n        /* \"@openzeppelin/contracts/utils/structs/EnumerableMap.sol\":3347:3370  map._keys.contains(key) */\n      tag_233\n        /* \"@openzeppelin/contracts/utils/structs/EnumerableMap.sol\":3347:3350  map */\n      dup4\n        /* \"@openzeppelin/contracts/utils/structs/EnumerableMap.sol\":3366:3369  key */\n      dup4\n        /* \"@openzeppelin/contracts/utils/structs/EnumerableMap.sol\":3347:3365  map._keys.contains */\n      tag_234\n        /* \"@openzeppelin/contracts/utils/structs/EnumerableMap.sol\":3347:3370  map._keys.contains(key) */\n      jump\t// in\n    tag_233:\n        /* \"@openzeppelin/contracts/utils/structs/EnumerableMap.sol\":3340:3370  return map._keys.contains(key) */\n      swap1\n      pop\n        /* \"@openzeppelin/contracts/utils/structs/EnumerableMap.sol\":3237:3377  function contains(Bytes32ToBytes32Map storage map, bytes32 key) internal view returns (bool) {... */\n    tag_232:\n      swap3\n      swap2\n      pop\n      pop\n      jump\t// out\n        /* \"@openzeppelin/contracts/utils/structs/EnumerableSet.sol\":5930:6053  function add(Bytes32Set storage set, bytes32 value) internal returns (bool) {... */\n    tag_231:\n        /* \"@openzeppelin/contracts/utils/structs/EnumerableSet.sol\":6000:6004  bool */\n      0x00\n        /* \"@openzeppelin/contracts/utils/structs/EnumerableSet.sol\":6023:6046  _add(set._inner, value) */\n      tag_233\n        /* \"@openzeppelin/contracts/utils/structs/EnumerableSet.sol\":6028:6031  set */\n      dup4\n        /* \"@openzeppelin/contracts/utils/structs/EnumerableSet.sol\":6040:6045  value */\n      dup4\n        /* \"@openzeppelin/contracts/utils/structs/EnumerableSet.sol\":6023:6027  _add */\n      tag_237\n        /* \"@openzeppelin/contracts/utils/structs/EnumerableSet.sol\":6023:6046  _add(set._inner, value) */\n      jump\t// in\n        /* \"@openzeppelin/contracts/utils/structs/EnumerableSet.sol\":6431:6569  function contains(Bytes32Set storage set, bytes32 value) internal view returns (bool) {... */\n    tag_234:\n        /* \"@openzeppelin/contracts/utils/structs/EnumerableSet.sol\":6511:6515  bool */\n      0x00\n        /* \"@openzeppelin/contracts/utils/structs/EnumerableSet.sol\":4360:4381  set._positions[value] */\n      dup2\n      dup2\n      mstore\n        /* \"@openzeppelin/contracts/utils/structs/EnumerableSet.sol\":4360:4374  set._positions */\n      0x01\n      dup4\n      add\n        /* \"@openzeppelin/contracts/utils/structs/EnumerableSet.sol\":4360:4381  set._positions[value] */\n      0x20\n      mstore\n      0x40\n      dup2\n      keccak256\n      sload\n        /* \"@openzeppelin/contracts/utils/structs/EnumerableSet.sol\":4360:4386  set._positions[value] != 0 */\n      iszero\n      iszero\n        /* \"@openzeppelin/contracts/utils/structs/EnumerableSet.sol\":6534:6562  _contains(set._inner, value) */\n      tag_233\n        /* \"@openzeppelin/contracts/utils/structs/EnumerableSet.sol\":4264:4393  function _contains(Set storage set, bytes32 value) private view returns (bool) {... */\n      jump\n        /* \"@openzeppelin/contracts/utils/structs/EnumerableSet.sol\":2241:2647  function _add(Set storage set, bytes32 value) private returns (bool) {... */\n    tag_237:\n        /* \"@openzeppelin/contracts/utils/structs/EnumerableSet.sol\":2304:2308  bool */\n      0x00\n        /* \"@openzeppelin/contracts/utils/structs/EnumerableSet.sol\":4360:4381  set._positions[value] */\n      dup2\n      dup2\n      mstore\n        /* \"@openzeppelin/contracts/utils/structs/EnumerableSet.sol\":4360:4374  set._positions */\n      0x01\n      dup4\n      add\n        /* \"@openzeppelin/contracts/utils/structs/EnumerableSet.sol\":4360:4381  set._positions[value] */\n      0x20\n      mstore\n      0x40\n      dup2\n      keccak256\n      sload\n        /* \"@openzeppelin/contracts/utils/structs/EnumerableSet.sol\":2320:2641  if (!_contains(set, value)) {... */\n      tag_243\n      jumpi\n      pop\n        /* \"@openzeppelin/contracts/utils/structs/EnumerableSet.sol\":2362:2385  set._values.push(value) */\n      dup2\n      sload\n      0x01\n      dup2\n      dup2\n      add\n      dup5\n      sstore\n        /* \"@openzeppelin/contracts/utils/structs/EnumerableSet.sol\":2362:2373  set._values */\n      0x00\n        /* \"@openzeppelin/contracts/utils/structs/EnumerableSet.sol\":2362:2385  set._values.push(value) */\n      dup5\n      dup2\n      mstore\n      0x20\n      dup1\n      dup3\n      keccak256\n      swap1\n      swap4\n      add\n      dup5\n      swap1\n      sstore\n        /* \"@openzeppelin/contracts/utils/structs/EnumerableSet.sol\":2544:2562  set._values.length */\n      dup5\n      sload\n        /* \"@openzeppelin/contracts/utils/structs/EnumerableSet.sol\":2520:2541  set._positions[value] */\n      dup5\n      dup3\n      mstore\n        /* \"@openzeppelin/contracts/utils/structs/EnumerableSet.sol\":2520:2534  set._positions */\n      dup3\n      dup7\n      add\n        /* \"@openzeppelin/contracts/utils/structs/EnumerableSet.sol\":2520:2541  set._positions[value] */\n      swap1\n      swap4\n      mstore\n      0x40\n      swap1\n      keccak256\n        /* \"@openzeppelin/contracts/utils/structs/EnumerableSet.sol\":2520:2562  set._positions[value] = set._values.length */\n      swap2\n      swap1\n      swap2\n      sstore\n        /* \"@openzeppelin/contracts/utils/structs/EnumerableSet.sol\":2576:2587  return true */\n      jump(tag_232)\n        /* \"@openzeppelin/contracts/utils/structs/EnumerableSet.sol\":2320:2641  if (!_contains(set, value)) {... */\n    tag_243:\n      pop\n        /* \"@openzeppelin/contracts/utils/structs/EnumerableSet.sol\":2625:2630  false */\n      0x00\n        /* \"@openzeppelin/contracts/utils/structs/EnumerableSet.sol\":2618:2630  return false */\n      jump(tag_232)\n        /* \"#utility.yul\":14:145   */\n    tag_247:\n      sub(shl(0xa0, 0x01), 0x01)\n        /* \"#utility.yul\":89:120   */\n      dup2\n      and\n        /* \"#utility.yul\":79:121   */\n      dup2\n      eq\n        /* \"#utility.yul\":69:139   */\n      tag_209\n      jumpi\n        /* \"#utility.yul\":135:136   */\n      0x00\n        /* \"#utility.yul\":132:133   */\n      dup1\n        /* \"#utility.yul\":125:137   */\n      revert\n        /* \"#utility.yul\":150:268   */\n    tag_248:\n        /* \"#utility.yul\":236:241   */\n      dup1\n        /* \"#utility.yul\":229:242   */\n      iszero\n        /* \"#utility.yul\":222:243   */\n      iszero\n        /* \"#utility.yul\":215:220   */\n      dup2\n        /* \"#utility.yul\":212:244   */\n      eq\n        /* \"#utility.yul\":202:262   */\n      tag_209\n      jumpi\n        /* \"#utility.yul\":258:259   */\n      0x00\n        /* \"#utility.yul\":255:256   */\n      dup1\n        /* \"#utility.yul\":248:260   */\n      revert\n        /* \"#utility.yul\":273:655   */\n    tag_25:\n        /* \"#utility.yul\":338:344   */\n      0x00\n        /* \"#utility.yul\":346:352   */\n      dup1\n        /* \"#utility.yul\":399:401   */\n      0x40\n        /* \"#utility.yul\":387:396   */\n      dup4\n        /* \"#utility.yul\":378:385   */\n      dup6\n        /* \"#utility.yul\":374:397   */\n      sub\n        /* \"#utility.yul\":370:402   */\n      slt\n        /* \"#utility.yul\":367:419   */\n      iszero\n      tag_259\n      jumpi\n        /* \"#utility.yul\":415:416   */\n      0x00\n        /* \"#utility.yul\":412:413   */\n      dup1\n        /* \"#utility.yul\":405:417   */\n      revert\n        /* \"#utility.yul\":367:419   */\n    tag_259:\n        /* \"#utility.yul\":454:463   */\n      dup3\n        /* \"#utility.yul\":441:464   */\n      calldataload\n        /* \"#utility.yul\":473:504   */\n      tag_260\n        /* \"#utility.yul\":498:503   */\n      dup2\n        /* \"#utility.yul\":473:504   */\n      tag_247\n      jump\t// in\n    tag_260:\n        /* \"#utility.yul\":523:528   */\n      swap2\n      pop\n        /* \"#utility.yul\":580:582   */\n      0x20\n        /* \"#utility.yul\":565:583   */\n      dup4\n      add\n        /* \"#utility.yul\":552:584   */\n      calldataload\n        /* \"#utility.yul\":593:623   */\n      tag_261\n        /* \"#utility.yul\":552:584   */\n      dup2\n        /* \"#utility.yul\":593:623   */\n      tag_248\n      jump\t// in\n    tag_261:\n        /* \"#utility.yul\":642:649   */\n      dup1\n        /* \"#utility.yul\":632:649   */\n      swap2\n      pop\n      pop\n        /* \"#utility.yul\":273:655   */\n      swap3\n      pop\n      swap3\n      swap1\n      pop\n      jump\t// out\n        /* \"#utility.yul\":660:840   */\n    tag_29:\n        /* \"#utility.yul\":719:725   */\n      0x00\n        /* \"#utility.yul\":772:774   */\n      0x20\n        /* \"#utility.yul\":760:769   */\n      dup3\n        /* \"#utility.yul\":751:758   */\n      dup5\n        /* \"#utility.yul\":747:770   */\n      sub\n        /* \"#utility.yul\":743:775   */\n      slt\n        /* \"#utility.yul\":740:792   */\n      iszero\n      tag_263\n      jumpi\n        /* \"#utility.yul\":788:789   */\n      0x00\n        /* \"#utility.yul\":785:786   */\n      dup1\n        /* \"#utility.yul\":778:790   */\n      revert\n        /* \"#utility.yul\":740:792   */\n    tag_263:\n      pop\n        /* \"#utility.yul\":811:834   */\n      calldataload\n      swap2\n        /* \"#utility.yul\":660:840   */\n      swap1\n      pop\n      jump\t// out\n        /* \"#utility.yul\":1053:1300   */\n    tag_37:\n        /* \"#utility.yul\":1112:1118   */\n      0x00\n        /* \"#utility.yul\":1165:1167   */\n      0x20\n        /* \"#utility.yul\":1153:1162   */\n      dup3\n        /* \"#utility.yul\":1144:1151   */\n      dup5\n        /* \"#utility.yul\":1140:1163   */\n      sub\n        /* \"#utility.yul\":1136:1168   */\n      slt\n        /* \"#utility.yul\":1133:1185   */\n      iszero\n      tag_266\n      jumpi\n        /* \"#utility.yul\":1181:1182   */\n      0x00\n        /* \"#utility.yul\":1178:1179   */\n      dup1\n        /* \"#utility.yul\":1171:1183   */\n      revert\n        /* \"#utility.yul\":1133:1185   */\n    tag_266:\n        /* \"#utility.yul\":1220:1229   */\n      dup2\n        /* \"#utility.yul\":1207:1230   */\n      calldataload\n        /* \"#utility.yul\":1239:1270   */\n      tag_267\n        /* \"#utility.yul\":1264:1269   */\n      dup2\n        /* \"#utility.yul\":1239:1270   */\n      tag_247\n      jump\t// in\n    tag_267:\n        /* \"#utility.yul\":1289:1294   */\n      swap4\n        /* \"#utility.yul\":1053:1300   */\n      swap3\n      pop\n      pop\n      pop\n      jump\t// out\n        /* \"#utility.yul\":1487:1614   */\n    tag_249:\n        /* \"#utility.yul\":1548:1558   */\n      0x4e487b71\n        /* \"#utility.yul\":1543:1546   */\n      0xe0\n        /* \"#utility.yul\":1539:1559   */\n      shl\n        /* \"#utility.yul\":1536:1537   */\n      0x00\n        /* \"#utility.yul\":1529:1560   */\n      mstore\n        /* \"#utility.yul\":1579:1583   */\n      0x41\n        /* \"#utility.yul\":1576:1577   */\n      0x04\n        /* \"#utility.yul\":1569:1584   */\n      mstore\n        /* \"#utility.yul\":1603:1607   */\n      0x24\n        /* \"#utility.yul\":1600:1601   */\n      0x00\n        /* \"#utility.yul\":1593:1608   */\n      revert\n        /* \"#utility.yul\":1619:1870   */\n    tag_250:\n        /* \"#utility.yul\":1691:1693   */\n      0x40\n        /* \"#utility.yul\":1685:1694   */\n      dup1\n      mload\n      swap1\n        /* \"#utility.yul\":1721:1736   */\n      dup2\n      add\n        /* \"#utility.yul\":1766:1784   */\n      0xffffffffffffffff\n        /* \"#utility.yul\":1751:1785   */\n      dup2\n      gt\n        /* \"#utility.yul\":1787:1809   */\n      dup3\n      dup3\n      lt\n        /* \"#utility.yul\":1748:1810   */\n      or\n        /* \"#utility.yul\":1745:1833   */\n      iszero\n      tag_272\n      jumpi\n        /* \"#utility.yul\":1813:1831   */\n      tag_272\n      tag_249\n      jump\t// in\n    tag_272:\n        /* \"#utility.yul\":1849:1851   */\n      0x40\n        /* \"#utility.yul\":1842:1864   */\n      mstore\n        /* \"#utility.yul\":1619:1870   */\n      swap1\n      jump\t// out\n        /* \"#utility.yul\":1875:2150   */\n    tag_251:\n        /* \"#utility.yul\":1946:1948   */\n      0x40\n        /* \"#utility.yul\":1940:1949   */\n      mload\n        /* \"#utility.yul\":2011:2013   */\n      0x1f\n        /* \"#utility.yul\":1992:2005   */\n      dup3\n      add\n      not(0x1f)\n        /* \"#utility.yul\":1988:2015   */\n      and\n        /* \"#utility.yul\":1976:2016   */\n      dup2\n      add\n        /* \"#utility.yul\":2046:2064   */\n      0xffffffffffffffff\n        /* \"#utility.yul\":2031:2065   */\n      dup2\n      gt\n        /* \"#utility.yul\":2067:2089   */\n      dup3\n      dup3\n      lt\n        /* \"#utility.yul\":2028:2090   */\n      or\n        /* \"#utility.yul\":2025:2113   */\n      iszero\n      tag_275\n      jumpi\n        /* \"#utility.yul\":2093:2111   */\n      tag_275\n      tag_249\n      jump\t// in\n    tag_275:\n        /* \"#utility.yul\":2129:2131   */\n      0x40\n        /* \"#utility.yul\":2122:2144   */\n      mstore\n        /* \"#utility.yul\":1875:2150   */\n      swap2\n      swap1\n      pop\n      jump\t// out\n        /* \"#utility.yul\":2155:3548   */\n    tag_61:\n        /* \"#utility.yul\":2282:2288   */\n      0x00\n        /* \"#utility.yul\":2290:2296   */\n      dup1\n        /* \"#utility.yul\":2298:2304   */\n      0x00\n        /* \"#utility.yul\":2351:2353   */\n      0x60\n        /* \"#utility.yul\":2339:2348   */\n      dup5\n        /* \"#utility.yul\":2330:2337   */\n      dup7\n        /* \"#utility.yul\":2326:2349   */\n      sub\n        /* \"#utility.yul\":2322:2354   */\n      slt\n        /* \"#utility.yul\":2319:2371   */\n      iszero\n      tag_277\n      jumpi\n        /* \"#utility.yul\":2367:2368   */\n      0x00\n        /* \"#utility.yul\":2364:2365   */\n      dup1\n        /* \"#utility.yul\":2357:2369   */\n      revert\n        /* \"#utility.yul\":2319:2371   */\n    tag_277:\n        /* \"#utility.yul\":2406:2415   */\n      dup4\n        /* \"#utility.yul\":2393:2416   */\n      calldataload\n        /* \"#utility.yul\":2425:2456   */\n      tag_278\n        /* \"#utility.yul\":2450:2455   */\n      dup2\n        /* \"#utility.yul\":2425:2456   */\n      tag_247\n      jump\t// in\n    tag_278:\n        /* \"#utility.yul\":2475:2480   */\n      swap3\n      pop\n        /* \"#utility.yul\":2499:2501   */\n      0x20\n        /* \"#utility.yul\":2533:2551   */\n      dup5\n      dup2\n      add\n        /* \"#utility.yul\":2520:2552   */\n      calldataload\n      swap3\n      pop\n        /* \"#utility.yul\":2571:2573   */\n      0x40\n        /* \"#utility.yul\":2609:2627   */\n      dup1\n      dup7\n      add\n        /* \"#utility.yul\":2596:2628   */\n      calldataload\n        /* \"#utility.yul\":2647:2665   */\n      0xffffffffffffffff\n        /* \"#utility.yul\":2677:2691   */\n      dup1\n      dup3\n      gt\n        /* \"#utility.yul\":2674:2708   */\n      iszero\n      tag_279\n      jumpi\n        /* \"#utility.yul\":2704:2705   */\n      0x00\n        /* \"#utility.yul\":2701:2702   */\n      dup1\n        /* \"#utility.yul\":2694:2706   */\n      revert\n        /* \"#utility.yul\":2674:2708   */\n    tag_279:\n        /* \"#utility.yul\":2742:2748   */\n      dup2\n        /* \"#utility.yul\":2731:2740   */\n      dup9\n        /* \"#utility.yul\":2727:2749   */\n      add\n        /* \"#utility.yul\":2717:2749   */\n      swap2\n      pop\n        /* \"#utility.yul\":2787:2794   */\n      dup9\n        /* \"#utility.yul\":2780:2784   */\n      0x1f\n        /* \"#utility.yul\":2776:2778   */\n      dup4\n        /* \"#utility.yul\":2772:2785   */\n      add\n        /* \"#utility.yul\":2768:2795   */\n      slt\n        /* \"#utility.yul\":2758:2813   */\n      tag_280\n      jumpi\n        /* \"#utility.yul\":2809:2810   */\n      0x00\n        /* \"#utility.yul\":2806:2807   */\n      dup1\n        /* \"#utility.yul\":2799:2811   */\n      revert\n        /* \"#utility.yul\":2758:2813   */\n    tag_280:\n        /* \"#utility.yul\":2845:2847   */\n      dup2\n        /* \"#utility.yul\":2832:2848   */\n      calldataload\n        /* \"#utility.yul\":2867:2869   */\n      dup2\n        /* \"#utility.yul\":2863:2865   */\n      dup2\n        /* \"#utility.yul\":2860:2870   */\n      gt\n        /* \"#utility.yul\":2857:2893   */\n      iszero\n      tag_282\n      jumpi\n        /* \"#utility.yul\":2873:2891   */\n      tag_282\n      tag_249\n      jump\t// in\n    tag_282:\n        /* \"#utility.yul\":2913:2949   */\n      tag_283\n        /* \"#utility.yul\":2945:2947   */\n      dup6\n        /* \"#utility.yul\":2940:2942   */\n      dup3\n        /* \"#utility.yul\":2937:2938   */\n      0x05\n        /* \"#utility.yul\":2933:2943   */\n      shl\n        /* \"#utility.yul\":2929:2948   */\n      add\n        /* \"#utility.yul\":2913:2949   */\n      tag_251\n      jump\t// in\n    tag_283:\n        /* \"#utility.yul\":2983:2998   */\n      dup2\n      dup2\n      mstore\n        /* \"#utility.yul\":3014:3026   */\n      dup6\n      dup2\n      add\n      swap3\n      pop\n        /* \"#utility.yul\":3065:3066   */\n      0x06\n        /* \"#utility.yul\":3061:3071   */\n      swap2\n      swap1\n      swap2\n      shl\n        /* \"#utility.yul\":3053:3072   */\n      dup4\n      add\n        /* \"#utility.yul\":3049:3077   */\n      dup6\n      add\n      swap1\n        /* \"#utility.yul\":3089:3108   */\n      dup11\n      dup3\n      gt\n        /* \"#utility.yul\":3086:3125   */\n      iszero\n      tag_284\n      jumpi\n        /* \"#utility.yul\":3121:3122   */\n      0x00\n        /* \"#utility.yul\":3118:3119   */\n      dup1\n        /* \"#utility.yul\":3111:3123   */\n      revert\n        /* \"#utility.yul\":3086:3125   */\n    tag_284:\n        /* \"#utility.yul\":3145:3156   */\n      swap3\n      dup6\n      add\n      swap3\n        /* \"#utility.yul\":3165:3518   */\n    tag_285:\n        /* \"#utility.yul\":3181:3187   */\n      dup2\n        /* \"#utility.yul\":3176:3179   */\n      dup5\n        /* \"#utility.yul\":3173:3188   */\n      lt\n        /* \"#utility.yul\":3165:3518   */\n      iszero\n      tag_287\n      jumpi\n        /* \"#utility.yul\":3261:3263   */\n      dup5\n        /* \"#utility.yul\":3255:3258   */\n      dup5\n        /* \"#utility.yul\":3246:3253   */\n      dup13\n        /* \"#utility.yul\":3242:3259   */\n      sub\n        /* \"#utility.yul\":3238:3264   */\n      slt\n        /* \"#utility.yul\":3235:3281   */\n      iszero\n      tag_288\n      jumpi\n        /* \"#utility.yul\":3277:3278   */\n      0x00\n        /* \"#utility.yul\":3274:3275   */\n      dup1\n        /* \"#utility.yul\":3267:3279   */\n      revert\n        /* \"#utility.yul\":3235:3281   */\n    tag_288:\n        /* \"#utility.yul\":3309:3331   */\n      tag_289\n      tag_250\n      jump\t// in\n    tag_289:\n        /* \"#utility.yul\":3360:3377   */\n      dup5\n      calldataload\n        /* \"#utility.yul\":3344:3378   */\n      dup2\n      mstore\n        /* \"#utility.yul\":3429:3441   */\n      dup7\n      dup6\n      add\n        /* \"#utility.yul\":3416:3442   */\n      calldataload\n        /* \"#utility.yul\":3398:3414   */\n      dup8\n      dup3\n      add\n        /* \"#utility.yul\":3391:3443   */\n      mstore\n        /* \"#utility.yul\":3456:3476   */\n      dup4\n      mstore\n        /* \"#utility.yul\":3198:3210   */\n      swap3\n      dup5\n      add\n      swap3\n        /* \"#utility.yul\":3496:3508   */\n      swap2\n      dup6\n      add\n      swap2\n        /* \"#utility.yul\":3165:3518   */\n      jump(tag_285)\n    tag_287:\n        /* \"#utility.yul\":3537:3542   */\n      dup1\n        /* \"#utility.yul\":3527:3542   */\n      swap7\n      pop\n      pop\n      pop\n      pop\n      pop\n      pop\n      pop\n        /* \"#utility.yul\":2155:3548   */\n      swap3\n      pop\n      swap3\n      pop\n      swap3\n      jump\t// out\n        /* \"#utility.yul\":3745:4128   */\n    tag_70:\n        /* \"#utility.yul\":3822:3828   */\n      0x00\n        /* \"#utility.yul\":3830:3836   */\n      dup1\n        /* \"#utility.yul\":3838:3844   */\n      0x00\n        /* \"#utility.yul\":3891:3893   */\n      0x60\n        /* \"#utility.yul\":3879:3888   */\n      dup5\n        /* \"#utility.yul\":3870:3877   */\n      dup7\n        /* \"#utility.yul\":3866:3889   */\n      sub\n        /* \"#utility.yul\":3862:3894   */\n      slt\n        /* \"#utility.yul\":3859:3911   */\n      iszero\n      tag_292\n      jumpi\n        /* \"#utility.yul\":3907:3908   */\n      0x00\n        /* \"#utility.yul\":3904:3905   */\n      dup1\n        /* \"#utility.yul\":3897:3909   */\n      revert\n        /* \"#utility.yul\":3859:3911   */\n    tag_292:\n        /* \"#utility.yul\":3946:3955   */\n      dup4\n        /* \"#utility.yul\":3933:3956   */\n      calldataload\n        /* \"#utility.yul\":3965:3996   */\n      tag_293\n        /* \"#utility.yul\":3990:3995   */\n      dup2\n        /* \"#utility.yul\":3965:3996   */\n      tag_247\n      jump\t// in\n    tag_293:\n        /* \"#utility.yul\":4015:4020   */\n      swap6\n        /* \"#utility.yul\":4067:4069   */\n      0x20\n        /* \"#utility.yul\":4052:4070   */\n      dup6\n      add\n        /* \"#utility.yul\":4039:4071   */\n      calldataload\n      swap6\n      pop\n        /* \"#utility.yul\":4118:4120   */\n      0x40\n        /* \"#utility.yul\":4103:4121   */\n      swap1\n      swap5\n      add\n        /* \"#utility.yul\":4090:4122   */\n      calldataload\n      swap4\n        /* \"#utility.yul\":3745:4128   */\n      swap3\n      pop\n      pop\n      pop\n      jump\t// out\n        /* \"#utility.yul\":5112:5239   */\n    tag_118:\n        /* \"#utility.yul\":5173:5183   */\n      0x4e487b71\n        /* \"#utility.yul\":5168:5171   */\n      0xe0\n        /* \"#utility.yul\":5164:5184   */\n      shl\n        /* \"#utility.yul\":5161:5162   */\n      0x00\n        /* \"#utility.yul\":5154:5185   */\n      mstore\n        /* \"#utility.yul\":5204:5208   */\n      0x32\n        /* \"#utility.yul\":5201:5202   */\n      0x04\n        /* \"#utility.yul\":5194:5209   */\n      mstore\n        /* \"#utility.yul\":5228:5232   */\n      0x24\n        /* \"#utility.yul\":5225:5226   */\n      0x00\n        /* \"#utility.yul\":5218:5233   */\n      revert\n        /* \"#utility.yul\":5599:5783   */\n    tag_131:\n        /* \"#utility.yul\":5669:5675   */\n      0x00\n        /* \"#utility.yul\":5722:5724   */\n      0x20\n        /* \"#utility.yul\":5710:5719   */\n      dup3\n        /* \"#utility.yul\":5701:5708   */\n      dup5\n        /* \"#utility.yul\":5697:5720   */\n      sub\n        /* \"#utility.yul\":5693:5725   */\n      slt\n        /* \"#utility.yul\":5690:5742   */\n      iszero\n      tag_300\n      jumpi\n        /* \"#utility.yul\":5738:5739   */\n      0x00\n        /* \"#utility.yul\":5735:5736   */\n      dup1\n        /* \"#utility.yul\":5728:5740   */\n      revert\n        /* \"#utility.yul\":5690:5742   */\n    tag_300:\n      pop\n        /* \"#utility.yul\":5761:5777   */\n      mload\n      swap2\n        /* \"#utility.yul\":5599:5783   */\n      swap1\n      pop\n      jump\t// out\n        /* \"#utility.yul\":6041:6168   */\n    tag_252:\n        /* \"#utility.yul\":6102:6112   */\n      0x4e487b71\n        /* \"#utility.yul\":6097:6100   */\n      0xe0\n        /* \"#utility.yul\":6093:6113   */\n      shl\n        /* \"#utility.yul\":6090:6091   */\n      0x00\n        /* \"#utility.yul\":6083:6114   */\n      mstore\n        /* \"#utility.yul\":6133:6137   */\n      0x11\n        /* \"#utility.yul\":6130:6131   */\n      0x04\n        /* \"#utility.yul\":6123:6138   */\n      mstore\n        /* \"#utility.yul\":6157:6161   */\n      0x24\n        /* \"#utility.yul\":6154:6155   */\n      0x00\n        /* \"#utility.yul\":6147:6162   */\n      revert\n        /* \"#utility.yul\":6173:6341   */\n    tag_144:\n        /* \"#utility.yul\":6246:6255   */\n      dup1\n      dup3\n      mul\n        /* \"#utility.yul\":6277:6286   */\n      dup2\n      iszero\n        /* \"#utility.yul\":6294:6309   */\n      dup3\n      dup3\n      div\n        /* \"#utility.yul\":6288:6310   */\n      dup5\n      eq\n        /* \"#utility.yul\":6274:6311   */\n      or\n        /* \"#utility.yul\":6264:6335   */\n      tag_232\n      jumpi\n        /* \"#utility.yul\":6315:6333   */\n      tag_232\n      tag_252\n      jump\t// in\n        /* \"#utility.yul\":6346:6471   */\n    tag_148:\n        /* \"#utility.yul\":6411:6420   */\n      dup1\n      dup3\n      add\n        /* \"#utility.yul\":6432:6442   */\n      dup1\n      dup3\n      gt\n        /* \"#utility.yul\":6429:6465   */\n      iszero\n      tag_232\n      jumpi\n        /* \"#utility.yul\":6445:6463   */\n      tag_232\n      tag_252\n      jump\t// in\n        /* \"#utility.yul\":6476:7407   */\n    tag_153:\n        /* \"#utility.yul\":6724:6728   */\n      0x00\n        /* \"#utility.yul\":6772:6774   */\n      0x60\n        /* \"#utility.yul\":6761:6770   */\n      dup3\n        /* \"#utility.yul\":6757:6775   */\n      add\n        /* \"#utility.yul\":6802:6808   */\n      dup6\n        /* \"#utility.yul\":6791:6800   */\n      dup4\n        /* \"#utility.yul\":6784:6809   */\n      mstore\n        /* \"#utility.yul\":6828:6830   */\n      0x20\n        /* \"#utility.yul\":6866:6872   */\n      dup6\n        /* \"#utility.yul\":6861:6863   */\n      0x20\n        /* \"#utility.yul\":6850:6859   */\n      dup6\n        /* \"#utility.yul\":6846:6864   */\n      add\n        /* \"#utility.yul\":6839:6873   */\n      mstore\n        /* \"#utility.yul\":6892:6894   */\n      0x40\n        /* \"#utility.yul\":6930:6932   */\n      0x60\n        /* \"#utility.yul\":6925:6927   */\n      0x40\n        /* \"#utility.yul\":6914:6923   */\n      dup7\n        /* \"#utility.yul\":6910:6928   */\n      add\n        /* \"#utility.yul\":6903:6933   */\n      mstore\n        /* \"#utility.yul\":6953:6959   */\n      dup3\n        /* \"#utility.yul\":6988:6994   */\n      dup7\n        /* \"#utility.yul\":6982:6995   */\n      mload\n        /* \"#utility.yul\":7019:7025   */\n      dup1\n        /* \"#utility.yul\":7011:7017   */\n      dup6\n        /* \"#utility.yul\":7004:7026   */\n      mstore\n        /* \"#utility.yul\":7057:7060   */\n      0x80\n        /* \"#utility.yul\":7046:7055   */\n      dup8\n        /* \"#utility.yul\":7042:7061   */\n      add\n        /* \"#utility.yul\":7035:7061   */\n      swap2\n      pop\n        /* \"#utility.yul\":7096:7098   */\n      0x20\n        /* \"#utility.yul\":7088:7094   */\n      dup9\n        /* \"#utility.yul\":7084:7099   */\n      add\n        /* \"#utility.yul\":7070:7099   */\n      swap5\n      pop\n        /* \"#utility.yul\":7117:7118   */\n      0x00\n        /* \"#utility.yul\":7127:7381   */\n    tag_310:\n        /* \"#utility.yul\":7141:7147   */\n      dup2\n        /* \"#utility.yul\":7138:7139   */\n      dup2\n        /* \"#utility.yul\":7135:7148   */\n      lt\n        /* \"#utility.yul\":7127:7381   */\n      iszero\n      tag_312\n      jumpi\n        /* \"#utility.yul\":7200:7213   */\n      dup6\n      mload\n        /* \"#utility.yul\":7238:7247   */\n      dup1\n      mload\n        /* \"#utility.yul\":7226:7248   */\n      dup5\n      mstore\n        /* \"#utility.yul\":7288:7299   */\n      dup6\n      add\n        /* \"#utility.yul\":7282:7300   */\n      mload\n        /* \"#utility.yul\":7268:7280   */\n      dup6\n      dup5\n      add\n        /* \"#utility.yul\":7261:7301   */\n      mstore\n        /* \"#utility.yul\":7356:7371   */\n      swap5\n      dup5\n      add\n      swap5\n        /* \"#utility.yul\":7321:7333   */\n      swap2\n      dup4\n      add\n      swap2\n        /* \"#utility.yul\":7163:7164   */\n      0x01\n        /* \"#utility.yul\":7156:7165   */\n      add\n        /* \"#utility.yul\":7127:7381   */\n      jump(tag_310)\n    tag_312:\n      pop\n        /* \"#utility.yul\":7398:7401   */\n      swap1\n      swap10\n        /* \"#utility.yul\":6476:7407   */\n      swap9\n      pop\n      pop\n      pop\n      pop\n      pop\n      pop\n      pop\n      pop\n      pop\n      jump\t// out\n        /* \"#utility.yul\":7412:7547   */\n    tag_155:\n        /* \"#utility.yul\":7451:7454   */\n      0x00\n        /* \"#utility.yul\":7472:7489   */\n      0x01\n      dup3\n      add\n        /* \"#utility.yul\":7469:7512   */\n      tag_315\n      jumpi\n        /* \"#utility.yul\":7492:7510   */\n      tag_315\n      tag_252\n      jump\t// in\n    tag_315:\n      pop\n        /* \"#utility.yul\":7539:7540   */\n      0x01\n        /* \"#utility.yul\":7528:7541   */\n      add\n      swap1\n        /* \"#utility.yul\":7412:7547   */\n      jump\t// out\n        /* \"#utility.yul\":7552:7803   */\n    tag_160:\n        /* \"#utility.yul\":7622:7628   */\n      0x00\n        /* \"#utility.yul\":7675:7677   */\n      0x20\n        /* \"#utility.yul\":7663:7672   */\n      dup3\n        /* \"#utility.yul\":7654:7661   */\n      dup5\n        /* \"#utility.yul\":7650:7673   */\n      sub\n        /* \"#utility.yul\":7646:7678   */\n      slt\n        /* \"#utility.yul\":7643:7695   */\n      iszero\n      tag_317\n      jumpi\n        /* \"#utility.yul\":7691:7692   */\n      0x00\n        /* \"#utility.yul\":7688:7689   */\n      dup1\n        /* \"#utility.yul\":7681:7693   */\n      revert\n        /* \"#utility.yul\":7643:7695   */\n    tag_317:\n        /* \"#utility.yul\":7723:7732   */\n      dup2\n        /* \"#utility.yul\":7717:7733   */\n      mload\n        /* \"#utility.yul\":7742:7773   */\n      tag_267\n        /* \"#utility.yul\":7767:7772   */\n      dup2\n        /* \"#utility.yul\":7742:7773   */\n      tag_247\n      jump\t// in\n        /* \"#utility.yul\":9644:9889   */\n    tag_198:\n        /* \"#utility.yul\":9711:9717   */\n      0x00\n        /* \"#utility.yul\":9764:9766   */\n      0x20\n        /* \"#utility.yul\":9752:9761   */\n      dup3\n        /* \"#utility.yul\":9743:9750   */\n      dup5\n        /* \"#utility.yul\":9739:9762   */\n      sub\n        /* \"#utility.yul\":9735:9767   */\n      slt\n        /* \"#utility.yul\":9732:9784   */\n      iszero\n      tag_325\n      jumpi\n        /* \"#utility.yul\":9780:9781   */\n      0x00\n        /* \"#utility.yul\":9777:9778   */\n      dup1\n        /* \"#utility.yul\":9770:9782   */\n      revert\n        /* \"#utility.yul\":9732:9784   */\n    tag_325:\n        /* \"#utility.yul\":9812:9821   */\n      dup2\n        /* \"#utility.yul\":9806:9822   */\n      mload\n        /* \"#utility.yul\":9831:9859   */\n      tag_267\n        /* \"#utility.yul\":9853:9858   */\n      dup2\n        /* \"#utility.yul\":9831:9859   */\n      tag_248\n      jump\t// in\n\n    auxdata: 0xa2646970667358221220d4b0992495cc86711c6530a61f7f02af6eddb0c7769f384efc7fc3c2ba15778e64736f6c63430008160033\n}\n",
				"bytecode": {
					"linkReferences": {},
					"object": "608060405234801561000f575f80fd5b5060405161125238038061125283398101604081905261002e91610107565b826001600160a01b03811661005c57604051631e4fbdf760e01b81525f600482015260240160405180910390fd5b6100658161009d565b506001808055600280546001600160a01b0319166001600160a01b039490941693909317909255600355600481905560055550610140565b5f80546001600160a01b038381166001600160a01b0319831681178455604051919092169283917f8be0079c531659141344cd1fd0a4f28419497f9722a3daafe3b4186f6b6457e09190a35050565b80516001600160a01b0381168114610102575f80fd5b919050565b5f805f60608486031215610119575f80fd5b610122846100ec565b9250610130602085016100ec565b9150604084015190509250925092565b6111058061014d5f395ff3fe608060405234801561000f575f80fd5b5060043610610106575f3560e01c8063a335a0031161009e578063dbdcebde1161006e578063dbdcebde14610239578063ec10342c1461024c578063ef299b0b14610254578063f2fde38b14610267578063fb771cb51461027a575f80fd5b8063a335a003146101ad578063b0e0a569146101cc578063b85f4344146101f4578063cae5ec0414610207575f80fd5b806348818bde116100d957806348818bde146101755780635ea1d6f81461018c578063715018a6146101955780638da5cb5b1461019d575f80fd5b8063017e4d1e1461010a57806319fac8fd1461011f5780632ff6fe7614610132578063411092e314610162575b5f80fd5b61011d610118366004610dc5565b610283565b005b61011d61012d366004610dfc565b6102ee565b600254610145906001600160a01b031681565b6040516001600160a01b0390911681526020015b60405180910390f35b61011d610170366004610e13565b610332565b61017e60045481565b604051908152602001610159565b61017e60035481565b61011d610388565b5f546001600160a01b0316610145565b61017e6101bb366004610e13565b60076020525f908152604090205481565b6101456101da366004610dfc565b60066020525f90815260409020546001600160a01b031681565b61011d610202366004610ea3565b61039b565b610229610215366004610e13565b60086020525f908152604090205460ff1681565b6040519015158152602001610159565b61011d610247366004610f85565b610752565b60045461017e565b61011d610262366004610dfc565b610b04565b61011d610275366004610e13565b610be5565b61017e60055481565b61028b610c22565b6001600160a01b0382165f81815260086020908152604091829020805460ff19168515159081179091558251938452908301527f3178e1e682d183b22b2c0a13af9e136c3e9a37b76bd71d47bf24a80710441e8f91015b60405180910390a15050565b6102f6610c22565b60038190556040518181527f7944cc49dc8637e3cacb75b6261e778f93a87026e0357ae7c3b0e434324afa35906020015b60405180910390a150565b61033a610c22565b600280546001600160a01b0319166001600160a01b0383169081179091556040519081527f9b44827111b30d796166e9f9515e9d6ee25234c008ed7157ec1128263e88872890602001610327565b610390610c22565b6103995f610c4e565b565b335f9081526008602052604090205460ff166103ef5760405162461bcd60e51b815260206004820152600e60248201526d2737ba103090383937bb34b232b960911b60448201526064015b60405180910390fd5b6001600160a01b0383165f9081526007602052604090205482111561044b5760405162461bcd60e51b81526020600482015260126024820152714e6f74206120656e6f756768206d6f6e657960701b60448201526064016103e6565b5f5b81518110156106fb575f60065f84848151811061046c5761046c610fb7565b60200260200101515f015181526020019081526020015f205f9054906101000a90046001600160a01b031690505f8383815181106104ac576104ac610fb7565b60200260200101516020015190505f6001600160a01b0316826001600160a01b03160361051b5760405162461bcd60e51b815260206004820152601a60248201527f5265666572656e6365494420646f6573206e6f7420657869737400000000000060448201526064016103e6565b6001600160a01b0382165f90815260096020526040812083915b600554604051634f8a0f8360e01b815260048101919091526001600160a01b03841690634f8a0f8390602401602060405180830381865afa15801561057c573d5f803e3d5ffd5b505050506040513d601f19601f820116820180604052508101906105a09190610fcb565b8110156106ea57600554604051620cd01160e41b81525f916001600160a01b0386169162cd0110916105df918690600401918252602082015260400190565b602060405180830381865afa1580156105fa573d5f803e3d5ffd5b505050506040513d601f19601f8201168201806040525081019061061e9190610fcb565b604051631398fee160e31b8152600481018290529091505f906001600160a01b03861690639cc7f70890602401602060405180830381865afa158015610666573d5f803e3d5ffd5b505050506040513d601f19601f8201168201806040525081019061068a9190610fcb565b90505f806106988685610c9d565b90925090505f6106a88985610ff6565b905082156106cc576106c6856106be838561100d565b899190610cba565b506106d9565b6106d7878683610cba565b505b505060019093019250610535915050565b50506001909301925061044d915050565b507f74abd6f2bb39b1eb84983e4e8df1378da42d32f24a5c984b6d1456bfd24f8cb9600454838360405161073193929190611020565b60405180910390a160048054905f61074883611081565b9190505550505050565b5f839050306001600160a01b0316816001600160a01b0316638da5cb5b6040518163ffffffff1660e01b8152600401602060405180830381865afa15801561079c573d5f803e3d5ffd5b505050506040513d601f19601f820116820180604052508101906107c09190611099565b6001600160a01b0316146108045760405162461bcd60e51b815260206004820152600b60248201526a2737ba10309037bbb732b960a91b60448201526064016103e6565b5f6001600160a01b031660065f836001600160a01b031663dd3fc0ab6040518163ffffffff1660e01b8152600401602060405180830381865afa15801561084d573d5f803e3d5ffd5b505050506040513d601f19601f820116820180604052508101906108719190610fcb565b815260208101919091526040015f20546001600160a01b0316146108c95760405162461bcd60e51b815260206004820152600f60248201526e105b1c9958591e4818dc99585d1959608a1b60448201526064016103e6565b60015b8281116109b857816001600160a01b031663156e29f6836001600160a01b031663a786c18b6040518163ffffffff1660e01b8152600401602060405180830381865afa15801561091e573d5f803e3d5ffd5b505050506040513d601f19601f820116820180604052508101906109429190611099565b6005546040516001600160e01b031960e085901b1681526001600160a01b0390921660048301526024820152604481018790526064015f604051808303815f87803b15801561098f575f80fd5b505af11580156109a1573d5f803e3d5ffd5b5050505080806109b090611081565b9150506108cc565b508360065f836001600160a01b031663dd3fc0ab6040518163ffffffff1660e01b8152600401602060405180830381865afa1580156109f9573d5f803e3d5ffd5b505050506040513d601f19601f82011682018060405250810190610a1d9190610fcb565b81526020019081526020015f205f6101000a8154816001600160a01b0302191690836001600160a01b031602179055507f3deeffca3c86a528758b0ff95b46b531e03be332bf88cb7e2c7b0b8daa608c31848484846001600160a01b031663dd3fc0ab6040518163ffffffff1660e01b8152600401602060405180830381865afa158015610aad573d5f803e3d5ffd5b505050506040513d601f19601f82011682018060405250810190610ad19190610fcb565b604080516001600160a01b039095168552602085019390935291830152606082015260800160405180910390a150505050565b6002546001600160a01b0316806323b872dd336040516001600160e01b031960e084901b1681526001600160a01b039091166004820152306024820152604481018590526064016020604051808303815f875af1158015610b67573d5f803e3d5ffd5b505050506040513d601f19601f82011682018060405250810190610b8b91906110b4565b50335f9081526007602052604081208054849290610baa90849061100d565b909155505060408051338152602081018490527fb9a1bffb5ad7fcaeb79fe2262ee61bc2b44689df94bb558f7e70eac20cbd0a0591016102e2565b610bed610c22565b6001600160a01b038116610c1657604051631e4fbdf760e01b81525f60048201526024016103e6565b610c1f81610c4e565b50565b5f546001600160a01b031633146103995760405163118cdaa760e01b81523360048201526024016103e6565b5f80546001600160a01b038381166001600160a01b0319831681178455604051919092169283917f8be0079c531659141344cd1fd0a4f28419497f9722a3daafe3b4186f6b6457e09190a35050565b5f808080610cab8686610cce565b909450925050505b9250929050565b5f610cc6848484610d06565b949350505050565b5f818152600283016020526040812054819080610cfb57610cef8585610d22565b92505f9150610cb39050565b600192509050610cb3565b5f8281526002840160205260408120829055610cc68484610d36565b5f610d2d8383610d41565b90505b92915050565b5f610d2d8383610d58565b5f8181526001830160205260408120541515610d2d565b5f818152600183016020526040812054610d9d57508154600181810184555f848152602080822090930184905584548482528286019093526040902091909155610d30565b505f610d30565b6001600160a01b0381168114610c1f575f80fd5b8015158114610c1f575f80fd5b5f8060408385031215610dd6575f80fd5b8235610de181610da4565b91506020830135610df181610db8565b809150509250929050565b5f60208284031215610e0c575f80fd5b5035919050565b5f60208284031215610e23575f80fd5b8135610e2e81610da4565b9392505050565b634e487b7160e01b5f52604160045260245ffd5b6040805190810167ffffffffffffffff81118282101715610e6c57610e6c610e35565b60405290565b604051601f8201601f1916810167ffffffffffffffff81118282101715610e9b57610e9b610e35565b604052919050565b5f805f60608486031215610eb5575f80fd5b8335610ec081610da4565b9250602084810135925060408086013567ffffffffffffffff80821115610ee5575f80fd5b818801915088601f830112610ef8575f80fd5b813581811115610f0a57610f0a610e35565b610f18858260051b01610e72565b818152858101925060069190911b83018501908a821115610f37575f80fd5b928501925b81841015610f755784848c031215610f52575f80fd5b610f5a610e49565b84358152868501358782015283529284019291850191610f3c565b8096505050505050509250925092565b5f805f60608486031215610f97575f80fd5b8335610fa281610da4565b95602085013595506040909401359392505050565b634e487b7160e01b5f52603260045260245ffd5b5f60208284031215610fdb575f80fd5b5051919050565b634e487b7160e01b5f52601160045260245ffd5b8082028115828204841417610d3057610d30610fe2565b80820180821115610d3057610d30610fe2565b5f6060820185835260208560208501526040606060408601528286518085526080870191506020880194505f5b818110156110725785518051845285015185840152948401949183019160010161104d565b50909998505050505050505050565b5f6001820161109257611092610fe2565b5060010190565b5f602082840312156110a9575f80fd5b8151610e2e81610da4565b5f602082840312156110c4575f80fd5b8151610e2e81610db856fea2646970667358221220d4b0992495cc86711c6530a61f7f02af6eddb0c7769f384efc7fc3c2ba15778e64736f6c63430008160033",
					"opcodes": "PUSH1 0x80 PUSH1 0x40 MSTORE CALLVALUE DUP1 ISZERO PUSH2 0xF JUMPI PUSH0 DUP1 REVERT JUMPDEST POP PUSH1 0x40 MLOAD PUSH2 0x1252 CODESIZE SUB DUP1 PUSH2 0x1252 DUP4 CODECOPY DUP2 ADD PUSH1 0x40 DUP2 SWAP1 MSTORE PUSH2 0x2E SWAP2 PUSH2 0x107 JUMP JUMPDEST DUP3 PUSH1 0x1 PUSH1 0x1 PUSH1 0xA0 SHL SUB DUP2 AND PUSH2 0x5C JUMPI PUSH1 0x40 MLOAD PUSH4 0x1E4FBDF7 PUSH1 0xE0 SHL DUP2 MSTORE PUSH0 PUSH1 0x4 DUP3 ADD MSTORE PUSH1 0x24 ADD PUSH1 0x40 MLOAD DUP1 SWAP2 SUB SWAP1 REVERT JUMPDEST PUSH2 0x65 DUP2 PUSH2 0x9D JUMP JUMPDEST POP PUSH1 0x1 DUP1 DUP1 SSTORE PUSH1 0x2 DUP1 SLOAD PUSH1 0x1 PUSH1 0x1 PUSH1 0xA0 SHL SUB NOT AND PUSH1 0x1 PUSH1 0x1 PUSH1 0xA0 SHL SUB SWAP5 SWAP1 SWAP5 AND SWAP4 SWAP1 SWAP4 OR SWAP1 SWAP3 SSTORE PUSH1 0x3 SSTORE PUSH1 0x4 DUP2 SWAP1 SSTORE PUSH1 0x5 SSTORE POP PUSH2 0x140 JUMP JUMPDEST PUSH0 DUP1 SLOAD PUSH1 0x1 PUSH1 0x1 PUSH1 0xA0 SHL SUB DUP4 DUP2 AND PUSH1 0x1 PUSH1 0x1 PUSH1 0xA0 SHL SUB NOT DUP4 AND DUP2 OR DUP5 SSTORE PUSH1 0x40 MLOAD SWAP2 SWAP1 SWAP3 AND SWAP3 DUP4 SWAP2 PUSH32 0x8BE0079C531659141344CD1FD0A4F28419497F9722A3DAAFE3B4186F6B6457E0 SWAP2 SWAP1 LOG3 POP POP JUMP JUMPDEST DUP1 MLOAD PUSH1 0x1 PUSH1 0x1 PUSH1 0xA0 SHL SUB DUP2 AND DUP2 EQ PUSH2 0x102 JUMPI PUSH0 DUP1 REVERT JUMPDEST SWAP2 SWAP1 POP JUMP JUMPDEST PUSH0 DUP1 PUSH0 PUSH1 0x60 DUP5 DUP7 SUB SLT ISZERO PUSH2 0x119 JUMPI PUSH0 DUP1 REVERT JUMPDEST PUSH2 0x122 DUP5 PUSH2 0xEC JUMP JUMPDEST SWAP3 POP PUSH2 0x130 PUSH1 0x20 DUP6 ADD PUSH2 0xEC JUMP JUMPDEST SWAP2 POP PUSH1 0x40 DUP5 ADD MLOAD SWAP1 POP SWAP3 POP SWAP3 POP SWAP3 JUMP JUMPDEST PUSH2 0x1105 DUP1 PUSH2 0x14D PUSH0 CODECOPY PUSH0 RETURN INVALID PUSH1 0x80 PUSH1 0x40 MSTORE CALLVALUE DUP1 ISZERO PUSH2 0xF JUMPI PUSH0 DUP1 REVERT JUMPDEST POP PUSH1 0x4 CALLDATASIZE LT PUSH2 0x106 JUMPI PUSH0 CALLDATALOAD PUSH1 0xE0 SHR DUP1 PUSH4 0xA335A003 GT PUSH2 0x9E JUMPI DUP1 PUSH4 0xDBDCEBDE GT PUSH2 0x6E JUMPI DUP1 PUSH4 0xDBDCEBDE EQ PUSH2 0x239 JUMPI DUP1 PUSH4 0xEC10342C EQ PUSH2 0x24C JUMPI DUP1 PUSH4 0xEF299B0B EQ PUSH2 0x254 JUMPI DUP1 PUSH4 0xF2FDE38B EQ PUSH2 0x267 JUMPI DUP1 PUSH4 0xFB771CB5 EQ PUSH2 0x27A JUMPI PUSH0 DUP1 REVERT JUMPDEST DUP1 PUSH4 0xA335A003 EQ PUSH2 0x1AD JUMPI DUP1 PUSH4 0xB0E0A569 EQ PUSH2 0x1CC JUMPI DUP1 PUSH4 0xB85F4344 EQ PUSH2 0x1F4 JUMPI DUP1 PUSH4 0xCAE5EC04 EQ PUSH2 0x207 JUMPI PUSH0 DUP1 REVERT JUMPDEST DUP1 PUSH4 0x48818BDE GT PUSH2 0xD9 JUMPI DUP1 PUSH4 0x48818BDE EQ PUSH2 0x175 JUMPI DUP1 PUSH4 0x5EA1D6F8 EQ PUSH2 0x18C JUMPI DUP1 PUSH4 0x715018A6 EQ PUSH2 0x195 JUMPI DUP1 PUSH4 0x8DA5CB5B EQ PUSH2 0x19D JUMPI PUSH0 DUP1 REVERT JUMPDEST DUP1 PUSH4 0x17E4D1E EQ PUSH2 0x10A JUMPI DUP1 PUSH4 0x19FAC8FD EQ PUSH2 0x11F JUMPI DUP1 PUSH4 0x2FF6FE76 EQ PUSH2 0x132 JUMPI DUP1 PUSH4 0x411092E3 EQ PUSH2 0x162 JUMPI JUMPDEST PUSH0 DUP1 REVERT JUMPDEST PUSH2 0x11D PUSH2 0x118 CALLDATASIZE PUSH1 0x4 PUSH2 0xDC5 JUMP JUMPDEST PUSH2 0x283 JUMP JUMPDEST STOP JUMPDEST PUSH2 0x11D PUSH2 0x12D CALLDATASIZE PUSH1 0x4 PUSH2 0xDFC JUMP JUMPDEST PUSH2 0x2EE JUMP JUMPDEST PUSH1 0x2 SLOAD PUSH2 0x145 SWAP1 PUSH1 0x1 PUSH1 0x1 PUSH1 0xA0 SHL SUB AND DUP2 JUMP JUMPDEST PUSH1 0x40 MLOAD PUSH1 0x1 PUSH1 0x1 PUSH1 0xA0 SHL SUB SWAP1 SWAP2 AND DUP2 MSTORE PUSH1 0x20 ADD JUMPDEST PUSH1 0x40 MLOAD DUP1 SWAP2 SUB SWAP1 RETURN JUMPDEST PUSH2 0x11D PUSH2 0x170 CALLDATASIZE PUSH1 0x4 PUSH2 0xE13 JUMP JUMPDEST PUSH2 0x332 JUMP JUMPDEST PUSH2 0x17E PUSH1 0x4 SLOAD DUP2 JUMP JUMPDEST PUSH1 0x40 MLOAD SWAP1 DUP2 MSTORE PUSH1 0x20 ADD PUSH2 0x159 JUMP JUMPDEST PUSH2 0x17E PUSH1 0x3 SLOAD DUP2 JUMP JUMPDEST PUSH2 0x11D PUSH2 0x388 JUMP JUMPDEST PUSH0 SLOAD PUSH1 0x1 PUSH1 0x1 PUSH1 0xA0 SHL SUB AND PUSH2 0x145 JUMP JUMPDEST PUSH2 0x17E PUSH2 0x1BB CALLDATASIZE PUSH1 0x4 PUSH2 0xE13 JUMP JUMPDEST PUSH1 0x7 PUSH1 0x20 MSTORE PUSH0 SWAP1 DUP2 MSTORE PUSH1 0x40 SWAP1 KECCAK256 SLOAD DUP2 JUMP JUMPDEST PUSH2 0x145 PUSH2 0x1DA CALLDATASIZE PUSH1 0x4 PUSH2 0xDFC JUMP JUMPDEST PUSH1 0x6 PUSH1 0x20 MSTORE PUSH0 SWAP1 DUP2 MSTORE PUSH1 0x40 SWAP1 KECCAK256 SLOAD PUSH1 0x1 PUSH1 0x1 PUSH1 0xA0 SHL SUB AND DUP2 JUMP JUMPDEST PUSH2 0x11D PUSH2 0x202 CALLDATASIZE PUSH1 0x4 PUSH2 0xEA3 JUMP JUMPDEST PUSH2 0x39B JUMP JUMPDEST PUSH2 0x229 PUSH2 0x215 CALLDATASIZE PUSH1 0x4 PUSH2 0xE13 JUMP JUMPDEST PUSH1 0x8 PUSH1 0x20 MSTORE PUSH0 SWAP1 DUP2 MSTORE PUSH1 0x40 SWAP1 KECCAK256 SLOAD PUSH1 0xFF AND DUP2 JUMP JUMPDEST PUSH1 0x40 MLOAD SWAP1 ISZERO ISZERO DUP2 MSTORE PUSH1 0x20 ADD PUSH2 0x159 JUMP JUMPDEST PUSH2 0x11D PUSH2 0x247 CALLDATASIZE PUSH1 0x4 PUSH2 0xF85 JUMP JUMPDEST PUSH2 0x752 JUMP JUMPDEST PUSH1 0x4 SLOAD PUSH2 0x17E JUMP JUMPDEST PUSH2 0x11D PUSH2 0x262 CALLDATASIZE PUSH1 0x4 PUSH2 0xDFC JUMP JUMPDEST PUSH2 0xB04 JUMP JUMPDEST PUSH2 0x11D PUSH2 0x275 CALLDATASIZE PUSH1 0x4 PUSH2 0xE13 JUMP JUMPDEST PUSH2 0xBE5 JUMP JUMPDEST PUSH2 0x17E PUSH1 0x5 SLOAD DUP2 JUMP JUMPDEST PUSH2 0x28B PUSH2 0xC22 JUMP JUMPDEST PUSH1 0x1 PUSH1 0x1 PUSH1 0xA0 SHL SUB DUP3 AND PUSH0 DUP2 DUP2 MSTORE PUSH1 0x8 PUSH1 0x20 SWAP1 DUP2 MSTORE PUSH1 0x40 SWAP2 DUP3 SWAP1 KECCAK256 DUP1 SLOAD PUSH1 0xFF NOT AND DUP6 ISZERO ISZERO SWAP1 DUP2 OR SWAP1 SWAP2 SSTORE DUP3 MLOAD SWAP4 DUP5 MSTORE SWAP1 DUP4 ADD MSTORE PUSH32 0x3178E1E682D183B22B2C0A13AF9E136C3E9A37B76BD71D47BF24A80710441E8F SWAP2 ADD JUMPDEST PUSH1 0x40 MLOAD DUP1 SWAP2 SUB SWAP1 LOG1 POP POP JUMP JUMPDEST PUSH2 0x2F6 PUSH2 0xC22 JUMP JUMPDEST PUSH1 0x3 DUP2 SWAP1 SSTORE PUSH1 0x40 MLOAD DUP2 DUP2 MSTORE PUSH32 0x7944CC49DC8637E3CACB75B6261E778F93A87026E0357AE7C3B0E434324AFA35 SWAP1 PUSH1 0x20 ADD JUMPDEST PUSH1 0x40 MLOAD DUP1 SWAP2 SUB SWAP1 LOG1 POP JUMP JUMPDEST PUSH2 0x33A PUSH2 0xC22 JUMP JUMPDEST PUSH1 0x2 DUP1 SLOAD PUSH1 0x1 PUSH1 0x1 PUSH1 0xA0 SHL SUB NOT AND PUSH1 0x1 PUSH1 0x1 PUSH1 0xA0 SHL SUB DUP4 AND SWAP1 DUP2 OR SWAP1 SWAP2 SSTORE PUSH1 0x40 MLOAD SWAP1 DUP2 MSTORE PUSH32 0x9B44827111B30D796166E9F9515E9D6EE25234C008ED7157EC1128263E888728 SWAP1 PUSH1 0x20 ADD PUSH2 0x327 JUMP JUMPDEST PUSH2 0x390 PUSH2 0xC22 JUMP JUMPDEST PUSH2 0x399 PUSH0 PUSH2 0xC4E JUMP JUMPDEST JUMP JUMPDEST CALLER PUSH0 SWAP1 DUP2 MSTORE PUSH1 0x8 PUSH1 0x20 MSTORE PUSH1 0x40 SWAP1 KECCAK256 SLOAD PUSH1 0xFF AND PUSH2 0x3EF JUMPI PUSH1 0x40 MLOAD PUSH3 0x461BCD PUSH1 0xE5 SHL DUP2 MSTORE PUSH1 0x20 PUSH1 0x4 DUP3 ADD MSTORE PUSH1 0xE PUSH1 0x24 DUP3 ADD MSTORE PUSH14 0x2737BA103090383937BB34B232B9 PUSH1 0x91 SHL PUSH1 0x44 DUP3 ADD MSTORE PUSH1 0x64 ADD JUMPDEST PUSH1 0x40 MLOAD DUP1 SWAP2 SUB SWAP1 REVERT JUMPDEST PUSH1 0x1 PUSH1 0x1 PUSH1 0xA0 SHL SUB DUP4 AND PUSH0 SWAP1 DUP2 MSTORE PUSH1 0x7 PUSH1 0x20 MSTORE PUSH1 0x40 SWAP1 KECCAK256 SLOAD DUP3 GT ISZERO PUSH2 0x44B JUMPI PUSH1 0x40 MLOAD PUSH3 0x461BCD PUSH1 0xE5 SHL DUP2 MSTORE PUSH1 0x20 PUSH1 0x4 DUP3 ADD MSTORE PUSH1 0x12 PUSH1 0x24 DUP3 ADD MSTORE PUSH18 0x4E6F74206120656E6F756768206D6F6E6579 PUSH1 0x70 SHL PUSH1 0x44 DUP3 ADD MSTORE PUSH1 0x64 ADD PUSH2 0x3E6 JUMP JUMPDEST PUSH0 JUMPDEST DUP2 MLOAD DUP2 LT ISZERO PUSH2 0x6FB JUMPI PUSH0 PUSH1 0x6 PUSH0 DUP5 DUP5 DUP2 MLOAD DUP2 LT PUSH2 0x46C JUMPI PUSH2 0x46C PUSH2 0xFB7 JUMP JUMPDEST PUSH1 0x20 MUL PUSH1 0x20 ADD ADD MLOAD PUSH0 ADD MLOAD DUP2 MSTORE PUSH1 0x20 ADD SWAP1 DUP2 MSTORE PUSH1 0x20 ADD PUSH0 KECCAK256 PUSH0 SWAP1 SLOAD SWAP1 PUSH2 0x100 EXP SWAP1 DIV PUSH1 0x1 PUSH1 0x1 PUSH1 0xA0 SHL SUB AND SWAP1 POP PUSH0 DUP4 DUP4 DUP2 MLOAD DUP2 LT PUSH2 0x4AC JUMPI PUSH2 0x4AC PUSH2 0xFB7 JUMP JUMPDEST PUSH1 0x20 MUL PUSH1 0x20 ADD ADD MLOAD PUSH1 0x20 ADD MLOAD SWAP1 POP PUSH0 PUSH1 0x1 PUSH1 0x1 PUSH1 0xA0 SHL SUB AND DUP3 PUSH1 0x1 PUSH1 0x1 PUSH1 0xA0 SHL SUB AND SUB PUSH2 0x51B JUMPI PUSH1 0x40 MLOAD PUSH3 0x461BCD PUSH1 0xE5 SHL DUP2 MSTORE PUSH1 0x20 PUSH1 0x4 DUP3 ADD MSTORE PUSH1 0x1A PUSH1 0x24 DUP3 ADD MSTORE PUSH32 0x5265666572656E6365494420646F6573206E6F74206578697374000000000000 PUSH1 0x44 DUP3 ADD MSTORE PUSH1 0x64 ADD PUSH2 0x3E6 JUMP JUMPDEST PUSH1 0x1 PUSH1 0x1 PUSH1 0xA0 SHL SUB DUP3 AND PUSH0 SWAP1 DUP2 MSTORE PUSH1 0x9 PUSH1 0x20 MSTORE PUSH1 0x40 DUP2 KECCAK256 DUP4 SWAP2 JUMPDEST PUSH1 0x5 SLOAD PUSH1 0x40 MLOAD PUSH4 0x4F8A0F83 PUSH1 0xE0 SHL DUP2 MSTORE PUSH1 0x4 DUP2 ADD SWAP2 SWAP1 SWAP2 MSTORE PUSH1 0x1 PUSH1 0x1 PUSH1 0xA0 SHL SUB DUP5 AND SWAP1 PUSH4 0x4F8A0F83 SWAP1 PUSH1 0x24 ADD PUSH1 0x20 PUSH1 0x40 MLOAD DUP1 DUP4 SUB DUP2 DUP7 GAS STATICCALL ISZERO DUP1 ISZERO PUSH2 0x57C JUMPI RETURNDATASIZE PUSH0 DUP1 RETURNDATACOPY RETURNDATASIZE PUSH0 REVERT JUMPDEST POP POP POP POP PUSH1 0x40 MLOAD RETURNDATASIZE PUSH1 0x1F NOT PUSH1 0x1F DUP3 ADD AND DUP3 ADD DUP1 PUSH1 0x40 MSTORE POP DUP2 ADD SWAP1 PUSH2 0x5A0 SWAP2 SWAP1 PUSH2 0xFCB JUMP JUMPDEST DUP2 LT ISZERO PUSH2 0x6EA JUMPI PUSH1 0x5 SLOAD PUSH1 0x40 MLOAD PUSH3 0xCD011 PUSH1 0xE4 SHL DUP2 MSTORE PUSH0 SWAP2 PUSH1 0x1 PUSH1 0x1 PUSH1 0xA0 SHL SUB DUP7 AND SWAP2 PUSH3 0xCD0110 SWAP2 PUSH2 0x5DF SWAP2 DUP7 SWAP1 PUSH1 0x4 ADD SWAP2 DUP3 MSTORE PUSH1 0x20 DUP3 ADD MSTORE PUSH1 0x40 ADD SWAP1 JUMP JUMPDEST PUSH1 0x20 PUSH1 0x40 MLOAD DUP1 DUP4 SUB DUP2 DUP7 GAS STATICCALL ISZERO DUP1 ISZERO PUSH2 0x5FA JUMPI RETURNDATASIZE PUSH0 DUP1 RETURNDATACOPY RETURNDATASIZE PUSH0 REVERT JUMPDEST POP POP POP POP PUSH1 0x40 MLOAD RETURNDATASIZE PUSH1 0x1F NOT PUSH1 0x1F DUP3 ADD AND DUP3 ADD DUP1 PUSH1 0x40 MSTORE POP DUP2 ADD SWAP1 PUSH2 0x61E SWAP2 SWAP1 PUSH2 0xFCB JUMP JUMPDEST PUSH1 0x40 MLOAD PUSH4 0x1398FEE1 PUSH1 0xE3 SHL DUP2 MSTORE PUSH1 0x4 DUP2 ADD DUP3 SWAP1 MSTORE SWAP1 SWAP2 POP PUSH0 SWAP1 PUSH1 0x1 PUSH1 0x1 PUSH1 0xA0 SHL SUB DUP7 AND SWAP1 PUSH4 0x9CC7F708 SWAP1 PUSH1 0x24 ADD PUSH1 0x20 PUSH1 0x40 MLOAD DUP1 DUP4 SUB DUP2 DUP7 GAS STATICCALL ISZERO DUP1 ISZERO PUSH2 0x666 JUMPI RETURNDATASIZE PUSH0 DUP1 RETURNDATACOPY RETURNDATASIZE PUSH0 REVERT JUMPDEST POP POP POP POP PUSH1 0x40 MLOAD RETURNDATASIZE PUSH1 0x1F NOT PUSH1 0x1F DUP3 ADD AND DUP3 ADD DUP1 PUSH1 0x40 MSTORE POP DUP2 ADD SWAP1 PUSH2 0x68A SWAP2 SWAP1 PUSH2 0xFCB JUMP JUMPDEST SWAP1 POP PUSH0 DUP1 PUSH2 0x698 DUP7 DUP6 PUSH2 0xC9D JUMP JUMPDEST SWAP1 SWAP3 POP SWAP1 POP PUSH0 PUSH2 0x6A8 DUP10 DUP6 PUSH2 0xFF6 JUMP JUMPDEST SWAP1 POP DUP3 ISZERO PUSH2 0x6CC JUMPI PUSH2 0x6C6 DUP6 PUSH2 0x6BE DUP4 DUP6 PUSH2 0x100D JUMP JUMPDEST DUP10 SWAP2 SWAP1 PUSH2 0xCBA JUMP JUMPDEST POP PUSH2 0x6D9 JUMP JUMPDEST PUSH2 0x6D7 DUP8 DUP7 DUP4 PUSH2 0xCBA JUMP JUMPDEST POP JUMPDEST POP POP PUSH1 0x1 SWAP1 SWAP4 ADD SWAP3 POP PUSH2 0x535 SWAP2 POP POP JUMP JUMPDEST POP POP PUSH1 0x1 SWAP1 SWAP4 ADD SWAP3 POP PUSH2 0x44D SWAP2 POP POP JUMP JUMPDEST POP PUSH32 0x74ABD6F2BB39B1EB84983E4E8DF1378DA42D32F24A5C984B6D1456BFD24F8CB9 PUSH1 0x4 SLOAD DUP4 DUP4 PUSH1 0x40 MLOAD PUSH2 0x731 SWAP4 SWAP3 SWAP2 SWAP1 PUSH2 0x1020 JUMP JUMPDEST PUSH1 0x40 MLOAD DUP1 SWAP2 SUB SWAP1 LOG1 PUSH1 0x4 DUP1 SLOAD SWAP1 PUSH0 PUSH2 0x748 DUP4 PUSH2 0x1081 JUMP JUMPDEST SWAP2 SWAP1 POP SSTORE POP POP POP POP JUMP JUMPDEST PUSH0 DUP4 SWAP1 POP ADDRESS PUSH1 0x1 PUSH1 0x1 PUSH1 0xA0 SHL SUB AND DUP2 PUSH1 0x1 PUSH1 0x1 PUSH1 0xA0 SHL SUB AND PUSH4 0x8DA5CB5B PUSH1 0x40 MLOAD DUP2 PUSH4 0xFFFFFFFF AND PUSH1 0xE0 SHL DUP2 MSTORE PUSH1 0x4 ADD PUSH1 0x20 PUSH1 0x40 MLOAD DUP1 DUP4 SUB DUP2 DUP7 GAS STATICCALL ISZERO DUP1 ISZERO PUSH2 0x79C JUMPI RETURNDATASIZE PUSH0 DUP1 RETURNDATACOPY RETURNDATASIZE PUSH0 REVERT JUMPDEST POP POP POP POP PUSH1 0x40 MLOAD RETURNDATASIZE PUSH1 0x1F NOT PUSH1 0x1F DUP3 ADD AND DUP3 ADD DUP1 PUSH1 0x40 MSTORE POP DUP2 ADD SWAP1 PUSH2 0x7C0 SWAP2 SWAP1 PUSH2 0x1099 JUMP JUMPDEST PUSH1 0x1 PUSH1 0x1 PUSH1 0xA0 SHL SUB AND EQ PUSH2 0x804 JUMPI PUSH1 0x40 MLOAD PUSH3 0x461BCD PUSH1 0xE5 SHL DUP2 MSTORE PUSH1 0x20 PUSH1 0x4 DUP3 ADD MSTORE PUSH1 0xB PUSH1 0x24 DUP3 ADD MSTORE PUSH11 0x2737BA10309037BBB732B9 PUSH1 0xA9 SHL PUSH1 0x44 DUP3 ADD MSTORE PUSH1 0x64 ADD PUSH2 0x3E6 JUMP JUMPDEST PUSH0 PUSH1 0x1 PUSH1 0x1 PUSH1 0xA0 SHL SUB AND PUSH1 0x6 PUSH0 DUP4 PUSH1 0x1 PUSH1 0x1 PUSH1 0xA0 SHL SUB AND PUSH4 0xDD3FC0AB PUSH1 0x40 MLOAD DUP2 PUSH4 0xFFFFFFFF AND PUSH1 0xE0 SHL DUP2 MSTORE PUSH1 0x4 ADD PUSH1 0x20 PUSH1 0x40 MLOAD DUP1 DUP4 SUB DUP2 DUP7 GAS STATICCALL ISZERO DUP1 ISZERO PUSH2 0x84D JUMPI RETURNDATASIZE PUSH0 DUP1 RETURNDATACOPY RETURNDATASIZE PUSH0 REVERT JUMPDEST POP POP POP POP PUSH1 0x40 MLOAD RETURNDATASIZE PUSH1 0x1F NOT PUSH1 0x1F DUP3 ADD AND DUP3 ADD DUP1 PUSH1 0x40 MSTORE POP DUP2 ADD SWAP1 PUSH2 0x871 SWAP2 SWAP1 PUSH2 0xFCB JUMP JUMPDEST DUP2 MSTORE PUSH1 0x20 DUP2 ADD SWAP2 SWAP1 SWAP2 MSTORE PUSH1 0x40 ADD PUSH0 KECCAK256 SLOAD PUSH1 0x1 PUSH1 0x1 PUSH1 0xA0 SHL SUB AND EQ PUSH2 0x8C9 JUMPI PUSH1 0x40 MLOAD PUSH3 0x461BCD PUSH1 0xE5 SHL DUP2 MSTORE PUSH1 0x20 PUSH1 0x4 DUP3 ADD MSTORE PUSH1 0xF PUSH1 0x24 DUP3 ADD MSTORE PUSH15 0x105B1C9958591E4818DC99585D1959 PUSH1 0x8A SHL PUSH1 0x44 DUP3 ADD MSTORE PUSH1 0x64 ADD PUSH2 0x3E6 JUMP JUMPDEST PUSH1 0x1 JUMPDEST DUP3 DUP2 GT PUSH2 0x9B8 JUMPI DUP2 PUSH1 0x1 PUSH1 0x1 PUSH1 0xA0 SHL SUB AND PUSH4 0x156E29F6 DUP4 PUSH1 0x1 PUSH1 0x1 PUSH1 0xA0 SHL SUB AND PUSH4 0xA786C18B PUSH1 0x40 MLOAD DUP2 PUSH4 0xFFFFFFFF AND PUSH1 0xE0 SHL DUP2 MSTORE PUSH1 0x4 ADD PUSH1 0x20 PUSH1 0x40 MLOAD DUP1 DUP4 SUB DUP2 DUP7 GAS STATICCALL ISZERO DUP1 ISZERO PUSH2 0x91E JUMPI RETURNDATASIZE PUSH0 DUP1 RETURNDATACOPY RETURNDATASIZE PUSH0 REVERT JUMPDEST POP POP POP POP PUSH1 0x40 MLOAD RETURNDATASIZE PUSH1 0x1F NOT PUSH1 0x1F DUP3 ADD AND DUP3 ADD DUP1 PUSH1 0x40 MSTORE POP DUP2 ADD SWAP1 PUSH2 0x942 SWAP2 SWAP1 PUSH2 0x1099 JUMP JUMPDEST PUSH1 0x5 SLOAD PUSH1 0x40 MLOAD PUSH1 0x1 PUSH1 0x1 PUSH1 0xE0 SHL SUB NOT PUSH1 0xE0 DUP6 SWAP1 SHL AND DUP2 MSTORE PUSH1 0x1 PUSH1 0x1 PUSH1 0xA0 SHL SUB SWAP1 SWAP3 AND PUSH1 0x4 DUP4 ADD MSTORE PUSH1 0x24 DUP3 ADD MSTORE PUSH1 0x44 DUP2 ADD DUP8 SWAP1 MSTORE PUSH1 0x64 ADD PUSH0 PUSH1 0x40 MLOAD DUP1 DUP4 SUB DUP2 PUSH0 DUP8 DUP1 EXTCODESIZE ISZERO DUP1 ISZERO PUSH2 0x98F JUMPI PUSH0 DUP1 REVERT JUMPDEST POP GAS CALL ISZERO DUP1 ISZERO PUSH2 0x9A1 JUMPI RETURNDATASIZE PUSH0 DUP1 RETURNDATACOPY RETURNDATASIZE PUSH0 REVERT JUMPDEST POP POP POP POP DUP1 DUP1 PUSH2 0x9B0 SWAP1 PUSH2 0x1081 JUMP JUMPDEST SWAP2 POP POP PUSH2 0x8CC JUMP JUMPDEST POP DUP4 PUSH1 0x6 PUSH0 DUP4 PUSH1 0x1 PUSH1 0x1 PUSH1 0xA0 SHL SUB AND PUSH4 0xDD3FC0AB PUSH1 0x40 MLOAD DUP2 PUSH4 0xFFFFFFFF AND PUSH1 0xE0 SHL DUP2 MSTORE PUSH1 0x4 ADD PUSH1 0x20 PUSH1 0x40 MLOAD DUP1 DUP4 SUB DUP2 DUP7 GAS STATICCALL ISZERO DUP1 ISZERO PUSH2 0x9F9 JUMPI RETURNDATASIZE PUSH0 DUP1 RETURNDATACOPY RETURNDATASIZE PUSH0 REVERT JUMPDEST POP POP POP POP PUSH1 0x40 MLOAD RETURNDATASIZE PUSH1 0x1F NOT PUSH1 0x1F DUP3 ADD AND DUP3 ADD DUP1 PUSH1 0x40 MSTORE POP DUP2 ADD SWAP1 PUSH2 0xA1D SWAP2 SWAP1 PUSH2 0xFCB JUMP JUMPDEST DUP2 MSTORE PUSH1 0x20 ADD SWAP1 DUP2 MSTORE PUSH1 0x20 ADD PUSH0 KECCAK256 PUSH0 PUSH2 0x100 EXP DUP2 SLOAD DUP2 PUSH1 0x1 PUSH1 0x1 PUSH1 0xA0 SHL SUB MUL NOT AND SWAP1 DUP4 PUSH1 0x1 PUSH1 0x1 PUSH1 0xA0 SHL SUB AND MUL OR SWAP1 SSTORE POP PUSH32 0x3DEEFFCA3C86A528758B0FF95B46B531E03BE332BF88CB7E2C7B0B8DAA608C31 DUP5 DUP5 DUP5 DUP5 PUSH1 0x1 PUSH1 0x1 PUSH1 0xA0 SHL SUB AND PUSH4 0xDD3FC0AB PUSH1 0x40 MLOAD DUP2 PUSH4 0xFFFFFFFF AND PUSH1 0xE0 SHL DUP2 MSTORE PUSH1 0x4 ADD PUSH1 0x20 PUSH1 0x40 MLOAD DUP1 DUP4 SUB DUP2 DUP7 GAS STATICCALL ISZERO DUP1 ISZERO PUSH2 0xAAD JUMPI RETURNDATASIZE PUSH0 DUP1 RETURNDATACOPY RETURNDATASIZE PUSH0 REVERT JUMPDEST POP POP POP POP PUSH1 0x40 MLOAD RETURNDATASIZE PUSH1 0x1F NOT PUSH1 0x1F DUP3 ADD AND DUP3 ADD DUP1 PUSH1 0x40 MSTORE POP DUP2 ADD SWAP1 PUSH2 0xAD1 SWAP2 SWAP1 PUSH2 0xFCB JUMP JUMPDEST PUSH1 0x40 DUP1 MLOAD PUSH1 0x1 PUSH1 0x1 PUSH1 0xA0 SHL SUB SWAP1 SWAP6 AND DUP6 MSTORE PUSH1 0x20 DUP6 ADD SWAP4 SWAP1 SWAP4 MSTORE SWAP2 DUP4 ADD MSTORE PUSH1 0x60 DUP3 ADD MSTORE PUSH1 0x80 ADD PUSH1 0x40 MLOAD DUP1 SWAP2 SUB SWAP1 LOG1 POP POP POP POP JUMP JUMPDEST PUSH1 0x2 SLOAD PUSH1 0x1 PUSH1 0x1 PUSH1 0xA0 SHL SUB AND DUP1 PUSH4 0x23B872DD CALLER PUSH1 0x40 MLOAD PUSH1 0x1 PUSH1 0x1 PUSH1 0xE0 SHL SUB NOT PUSH1 0xE0 DUP5 SWAP1 SHL AND DUP2 MSTORE PUSH1 0x1 PUSH1 0x1 PUSH1 0xA0 SHL SUB SWAP1 SWAP2 AND PUSH1 0x4 DUP3 ADD MSTORE ADDRESS PUSH1 0x24 DUP3 ADD MSTORE PUSH1 0x44 DUP2 ADD DUP6 SWAP1 MSTORE PUSH1 0x64 ADD PUSH1 0x20 PUSH1 0x40 MLOAD DUP1 DUP4 SUB DUP2 PUSH0 DUP8 GAS CALL ISZERO DUP1 ISZERO PUSH2 0xB67 JUMPI RETURNDATASIZE PUSH0 DUP1 RETURNDATACOPY RETURNDATASIZE PUSH0 REVERT JUMPDEST POP POP POP POP PUSH1 0x40 MLOAD RETURNDATASIZE PUSH1 0x1F NOT PUSH1 0x1F DUP3 ADD AND DUP3 ADD DUP1 PUSH1 0x40 MSTORE POP DUP2 ADD SWAP1 PUSH2 0xB8B SWAP2 SWAP1 PUSH2 0x10B4 JUMP JUMPDEST POP CALLER PUSH0 SWAP1 DUP2 MSTORE PUSH1 0x7 PUSH1 0x20 MSTORE PUSH1 0x40 DUP2 KECCAK256 DUP1 SLOAD DUP5 SWAP3 SWAP1 PUSH2 0xBAA SWAP1 DUP5 SWAP1 PUSH2 0x100D JUMP JUMPDEST SWAP1 SWAP2 SSTORE POP POP PUSH1 0x40 DUP1 MLOAD CALLER DUP2 MSTORE PUSH1 0x20 DUP2 ADD DUP5 SWAP1 MSTORE PUSH32 0xB9A1BFFB5AD7FCAEB79FE2262EE61BC2B44689DF94BB558F7E70EAC20CBD0A05 SWAP2 ADD PUSH2 0x2E2 JUMP JUMPDEST PUSH2 0xBED PUSH2 0xC22 JUMP JUMPDEST PUSH1 0x1 PUSH1 0x1 PUSH1 0xA0 SHL SUB DUP2 AND PUSH2 0xC16 JUMPI PUSH1 0x40 MLOAD PUSH4 0x1E4FBDF7 PUSH1 0xE0 SHL DUP2 MSTORE PUSH0 PUSH1 0x4 DUP3 ADD MSTORE PUSH1 0x24 ADD PUSH2 0x3E6 JUMP JUMPDEST PUSH2 0xC1F DUP2 PUSH2 0xC4E JUMP JUMPDEST POP JUMP JUMPDEST PUSH0 SLOAD PUSH1 0x1 PUSH1 0x1 PUSH1 0xA0 SHL SUB AND CALLER EQ PUSH2 0x399 JUMPI PUSH1 0x40 MLOAD PUSH4 0x118CDAA7 PUSH1 0xE0 SHL DUP2 MSTORE CALLER PUSH1 0x4 DUP3 ADD MSTORE PUSH1 0x24 ADD PUSH2 0x3E6 JUMP JUMPDEST PUSH0 DUP1 SLOAD PUSH1 0x1 PUSH1 0x1 PUSH1 0xA0 SHL SUB DUP4 DUP2 AND PUSH1 0x1 PUSH1 0x1 PUSH1 0xA0 SHL SUB NOT DUP4 AND DUP2 OR DUP5 SSTORE PUSH1 0x40 MLOAD SWAP2 SWAP1 SWAP3 AND SWAP3 DUP4 SWAP2 PUSH32 0x8BE0079C531659141344CD1FD0A4F28419497F9722A3DAAFE3B4186F6B6457E0 SWAP2 SWAP1 LOG3 POP POP JUMP JUMPDEST PUSH0 DUP1 DUP1 DUP1 PUSH2 0xCAB DUP7 DUP7 PUSH2 0xCCE JUMP JUMPDEST SWAP1 SWAP5 POP SWAP3 POP POP POP JUMPDEST SWAP3 POP SWAP3 SWAP1 POP JUMP JUMPDEST PUSH0 PUSH2 0xCC6 DUP5 DUP5 DUP5 PUSH2 0xD06 JUMP JUMPDEST SWAP5 SWAP4 POP POP POP POP JUMP JUMPDEST PUSH0 DUP2 DUP2 MSTORE PUSH1 0x2 DUP4 ADD PUSH1 0x20 MSTORE PUSH1 0x40 DUP2 KECCAK256 SLOAD DUP2 SWAP1 DUP1 PUSH2 0xCFB JUMPI PUSH2 0xCEF DUP6 DUP6 PUSH2 0xD22 JUMP JUMPDEST SWAP3 POP PUSH0 SWAP2 POP PUSH2 0xCB3 SWAP1 POP JUMP JUMPDEST PUSH1 0x1 SWAP3 POP SWAP1 POP PUSH2 0xCB3 JUMP JUMPDEST PUSH0 DUP3 DUP2 MSTORE PUSH1 0x2 DUP5 ADD PUSH1 0x20 MSTORE PUSH1 0x40 DUP2 KECCAK256 DUP3 SWAP1 SSTORE PUSH2 0xCC6 DUP5 DUP5 PUSH2 0xD36 JUMP JUMPDEST PUSH0 PUSH2 0xD2D DUP4 DUP4 PUSH2 0xD41 JUMP JUMPDEST SWAP1 POP JUMPDEST SWAP3 SWAP2 POP POP JUMP JUMPDEST PUSH0 PUSH2 0xD2D DUP4 DUP4 PUSH2 0xD58 JUMP JUMPDEST PUSH0 DUP2 DUP2 MSTORE PUSH1 0x1 DUP4 ADD PUSH1 0x20 MSTORE PUSH1 0x40 DUP2 KECCAK256 SLOAD ISZERO ISZERO PUSH2 0xD2D JUMP JUMPDEST PUSH0 DUP2 DUP2 MSTORE PUSH1 0x1 DUP4 ADD PUSH1 0x20 MSTORE PUSH1 0x40 DUP2 KECCAK256 SLOAD PUSH2 0xD9D JUMPI POP DUP2 SLOAD PUSH1 0x1 DUP2 DUP2 ADD DUP5 SSTORE PUSH0 DUP5 DUP2 MSTORE PUSH1 0x20 DUP1 DUP3 KECCAK256 SWAP1 SWAP4 ADD DUP5 SWAP1 SSTORE DUP5 SLOAD DUP5 DUP3 MSTORE DUP3 DUP7 ADD SWAP1 SWAP4 MSTORE PUSH1 0x40 SWAP1 KECCAK256 SWAP2 SWAP1 SWAP2 SSTORE PUSH2 0xD30 JUMP JUMPDEST POP PUSH0 PUSH2 0xD30 JUMP JUMPDEST PUSH1 0x1 PUSH1 0x1 PUSH1 0xA0 SHL SUB DUP2 AND DUP2 EQ PUSH2 0xC1F JUMPI PUSH0 DUP1 REVERT JUMPDEST DUP1 ISZERO ISZERO DUP2 EQ PUSH2 0xC1F JUMPI PUSH0 DUP1 REVERT JUMPDEST PUSH0 DUP1 PUSH1 0x40 DUP4 DUP6 SUB SLT ISZERO PUSH2 0xDD6 JUMPI PUSH0 DUP1 REVERT JUMPDEST DUP3 CALLDATALOAD PUSH2 0xDE1 DUP2 PUSH2 0xDA4 JUMP JUMPDEST SWAP2 POP PUSH1 0x20 DUP4 ADD CALLDATALOAD PUSH2 0xDF1 DUP2 PUSH2 0xDB8 JUMP JUMPDEST DUP1 SWAP2 POP POP SWAP3 POP SWAP3 SWAP1 POP JUMP JUMPDEST PUSH0 PUSH1 0x20 DUP3 DUP5 SUB SLT ISZERO PUSH2 0xE0C JUMPI PUSH0 DUP1 REVERT JUMPDEST POP CALLDATALOAD SWAP2 SWAP1 POP JUMP JUMPDEST PUSH0 PUSH1 0x20 DUP3 DUP5 SUB SLT ISZERO PUSH2 0xE23 JUMPI PUSH0 DUP1 REVERT JUMPDEST DUP2 CALLDATALOAD PUSH2 0xE2E DUP2 PUSH2 0xDA4 JUMP JUMPDEST SWAP4 SWAP3 POP POP POP JUMP JUMPDEST PUSH4 0x4E487B71 PUSH1 0xE0 SHL PUSH0 MSTORE PUSH1 0x41 PUSH1 0x4 MSTORE PUSH1 0x24 PUSH0 REVERT JUMPDEST PUSH1 0x40 DUP1 MLOAD SWAP1 DUP2 ADD PUSH8 0xFFFFFFFFFFFFFFFF DUP2 GT DUP3 DUP3 LT OR ISZERO PUSH2 0xE6C JUMPI PUSH2 0xE6C PUSH2 0xE35 JUMP JUMPDEST PUSH1 0x40 MSTORE SWAP1 JUMP JUMPDEST PUSH1 0x40 MLOAD PUSH1 0x1F DUP3 ADD PUSH1 0x1F NOT AND DUP2 ADD PUSH8 0xFFFFFFFFFFFFFFFF DUP2 GT DUP3 DUP3 LT OR ISZERO PUSH2 0xE9B JUMPI PUSH2 0xE9B PUSH2 0xE35 JUMP JUMPDEST PUSH1 0x40 MSTORE SWAP2 SWAP1 POP JUMP JUMPDEST PUSH0 DUP1 PUSH0 PUSH1 0x60 DUP5 DUP7 SUB SLT ISZERO PUSH2 0xEB5 JUMPI PUSH0 DUP1 REVERT JUMPDEST DUP4 CALLDATALOAD PUSH2 0xEC0 DUP2 PUSH2 0xDA4 JUMP JUMPDEST SWAP3 POP PUSH1 0x20 DUP5 DUP2 ADD CALLDATALOAD SWAP3 POP PUSH1 0x40 DUP1 DUP7 ADD CALLDATALOAD PUSH8 0xFFFFFFFFFFFFFFFF DUP1 DUP3 GT ISZERO PUSH2 0xEE5 JUMPI PUSH0 DUP1 REVERT JUMPDEST DUP2 DUP9 ADD SWAP2 POP DUP9 PUSH1 0x1F DUP4 ADD SLT PUSH2 0xEF8 JUMPI PUSH0 DUP1 REVERT JUMPDEST DUP2 CALLDATALOAD DUP2 DUP2 GT ISZERO PUSH2 0xF0A JUMPI PUSH2 0xF0A PUSH2 0xE35 JUMP JUMPDEST PUSH2 0xF18 DUP6 DUP3 PUSH1 0x5 SHL ADD PUSH2 0xE72 JUMP JUMPDEST DUP2 DUP2 MSTORE DUP6 DUP2 ADD SWAP3 POP PUSH1 0x6 SWAP2 SWAP1 SWAP2 SHL DUP4 ADD DUP6 ADD SWAP1 DUP11 DUP3 GT ISZERO PUSH2 0xF37 JUMPI PUSH0 DUP1 REVERT JUMPDEST SWAP3 DUP6 ADD SWAP3 JUMPDEST DUP2 DUP5 LT ISZERO PUSH2 0xF75 JUMPI DUP5 DUP5 DUP13 SUB SLT ISZERO PUSH2 0xF52 JUMPI PUSH0 DUP1 REVERT JUMPDEST PUSH2 0xF5A PUSH2 0xE49 JUMP JUMPDEST DUP5 CALLDATALOAD DUP2 MSTORE DUP7 DUP6 ADD CALLDATALOAD DUP8 DUP3 ADD MSTORE DUP4 MSTORE SWAP3 DUP5 ADD SWAP3 SWAP2 DUP6 ADD SWAP2 PUSH2 0xF3C JUMP JUMPDEST DUP1 SWAP7 POP POP POP POP POP POP POP SWAP3 POP SWAP3 POP SWAP3 JUMP JUMPDEST PUSH0 DUP1 PUSH0 PUSH1 0x60 DUP5 DUP7 SUB SLT ISZERO PUSH2 0xF97 JUMPI PUSH0 DUP1 REVERT JUMPDEST DUP4 CALLDATALOAD PUSH2 0xFA2 DUP2 PUSH2 0xDA4 JUMP JUMPDEST SWAP6 PUSH1 0x20 DUP6 ADD CALLDATALOAD SWAP6 POP PUSH1 0x40 SWAP1 SWAP5 ADD CALLDATALOAD SWAP4 SWAP3 POP POP POP JUMP JUMPDEST PUSH4 0x4E487B71 PUSH1 0xE0 SHL PUSH0 MSTORE PUSH1 0x32 PUSH1 0x4 MSTORE PUSH1 0x24 PUSH0 REVERT JUMPDEST PUSH0 PUSH1 0x20 DUP3 DUP5 SUB SLT ISZERO PUSH2 0xFDB JUMPI PUSH0 DUP1 REVERT JUMPDEST POP MLOAD SWAP2 SWAP1 POP JUMP JUMPDEST PUSH4 0x4E487B71 PUSH1 0xE0 SHL PUSH0 MSTORE PUSH1 0x11 PUSH1 0x4 MSTORE PUSH1 0x24 PUSH0 REVERT JUMPDEST DUP1 DUP3 MUL DUP2 ISZERO DUP3 DUP3 DIV DUP5 EQ OR PUSH2 0xD30 JUMPI PUSH2 0xD30 PUSH2 0xFE2 JUMP JUMPDEST DUP1 DUP3 ADD DUP1 DUP3 GT ISZERO PUSH2 0xD30 JUMPI PUSH2 0xD30 PUSH2 0xFE2 JUMP JUMPDEST PUSH0 PUSH1 0x60 DUP3 ADD DUP6 DUP4 MSTORE PUSH1 0x20 DUP6 PUSH1 0x20 DUP6 ADD MSTORE PUSH1 0x40 PUSH1 0x60 PUSH1 0x40 DUP7 ADD MSTORE DUP3 DUP7 MLOAD DUP1 DUP6 MSTORE PUSH1 0x80 DUP8 ADD SWAP2 POP PUSH1 0x20 DUP9 ADD SWAP5 POP PUSH0 JUMPDEST DUP2 DUP2 LT ISZERO PUSH2 0x1072 JUMPI DUP6 MLOAD DUP1 MLOAD DUP5 MSTORE DUP6 ADD MLOAD DUP6 DUP5 ADD MSTORE SWAP5 DUP5 ADD SWAP5 SWAP2 DUP4 ADD SWAP2 PUSH1 0x1 ADD PUSH2 0x104D JUMP JUMPDEST POP SWAP1 SWAP10 SWAP9 POP POP POP POP POP POP POP POP POP JUMP JUMPDEST PUSH0 PUSH1 0x1 DUP3 ADD PUSH2 0x1092 JUMPI PUSH2 0x1092 PUSH2 0xFE2 JUMP JUMPDEST POP PUSH1 0x1 ADD SWAP1 JUMP JUMPDEST PUSH0 PUSH1 0x20 DUP3 DUP5 SUB SLT ISZERO PUSH2 0x10A9 JUMPI PUSH0 DUP1 REVERT JUMPDEST DUP2 MLOAD PUSH2 0xE2E DUP2 PUSH2 0xDA4 JUMP JUMPDEST PUSH0 PUSH1 0x20 DUP3 DUP5 SUB SLT ISZERO PUSH2 0x10C4 JUMPI PUSH0 DUP1 REVERT JUMPDEST DUP2 MLOAD PUSH2 0xE2E DUP2 PUSH2 0xDB8 JUMP INVALID LOG2 PUSH5 0x6970667358 0x22 SLT KECCAK256 0xD4 0xB0 SWAP10 0x24 SWAP6 0xCC DUP7 PUSH18 0x1C6530A61F7F02AF6EDDB0C7769F384EFC7F 0xC3 0xC2 0xBA ISZERO PUSH24 0x8E64736F6C63430008160033000000000000000000000000 "
				},
				"gasEstimates": {
					"creation": {
						"codeDepositCost": "871400",
						"executionCost": "infinite",
						"totalCost": "infinite"
					},
					"external": {
						"_lastConsumeID()": "2335",
						"commissionRate()": "2339",
						"consume(address,uint256,(uint256,uint256)[])": "infinite",
						"consumer_balance(address)": "2533",
						"createToken(address,uint256,uint256)": "infinite",
						"lastConsumeID()": "2317",
						"owner()": "2407",
						"priceToken()": "2393",
						"recharge(uint256)": "infinite",
						"renounceOwnership()": "infinite",
						"service_provider(address)": "2611",
						"setCommissionRate(uint256)": "25597",
						"setPriceToken(address)": "27881",
						"setServiceProvider(address,bool)": "infinite",
						"sftSlot()": "2404",
						"sft_assets(uint256)": "2508",
						"transferOwnership(address)": "infinite"
					}
				},
				"methodIdentifiers": {
					"_lastConsumeID()": "ec10342c",
					"commissionRate()": "5ea1d6f8",
					"consume(address,uint256,(uint256,uint256)[])": "b85f4344",
					"consumer_balance(address)": "a335a003",
					"createToken(address,uint256,uint256)": "dbdcebde",
					"lastConsumeID()": "48818bde",
					"owner()": "8da5cb5b",
					"priceToken()": "2ff6fe76",
					"recharge(uint256)": "ef299b0b",
					"renounceOwnership()": "715018a6",
					"service_provider(address)": "cae5ec04",
					"setCommissionRate(uint256)": "19fac8fd",
					"setPriceToken(address)": "411092e3",
					"setServiceProvider(address,bool)": "017e4d1e",
					"sftSlot()": "fb771cb5",
					"sft_assets(uint256)": "b0e0a569",
					"transferOwnership(address)": "f2fde38b"
				}
			},
			"storageLayout": {
				"storage": [
					{
						"astId": 8,
						"contract": "contracts/KipProtocol.sol:KipProtocol",
						"label": "_owner",
						"offset": 0,
						"slot": "0",
						"type": "t_address"
					},
					{
						"astId": 266,
						"contract": "contracts/KipProtocol.sol:KipProtocol",
						"label": "_status",
						"offset": 0,
						"slot": "1",
						"type": "t_uint256"
					},
					{
						"astId": 3879,
						"contract": "contracts/KipProtocol.sol:KipProtocol",
						"label": "priceToken",
						"offset": 0,
						"slot": "2",
						"type": "t_address"
					},
					{
						"astId": 3881,
						"contract": "contracts/KipProtocol.sol:KipProtocol",
						"label": "commissionRate",
						"offset": 0,
						"slot": "3",
						"type": "t_uint256"
					},
					{
						"astId": 3883,
						"contract": "contracts/KipProtocol.sol:KipProtocol",
						"label": "lastConsumeID",
						"offset": 0,
						"slot": "4",
						"type": "t_uint256"
					},
					{
						"astId": 3885,
						"contract": "contracts/KipProtocol.sol:KipProtocol",
						"label": "sftSlot",
						"offset": 0,
						"slot": "5",
						"type": "t_uint256"
					},
					{
						"astId": 3889,
						"contract": "contracts/KipProtocol.sol:KipProtocol",
						"label": "sft_assets",
						"offset": 0,
						"slot": "6",
						"type": "t_mapping(t_uint256,t_address)"
					},
					{
						"astId": 3893,
						"contract": "contracts/KipProtocol.sol:KipProtocol",
						"label": "consumer_balance",
						"offset": 0,
						"slot": "7",
						"type": "t_mapping(t_address,t_uint256)"
					},
					{
						"astId": 3897,
						"contract": "contracts/KipProtocol.sol:KipProtocol",
						"label": "service_provider",
						"offset": 0,
						"slot": "8",
						"type": "t_mapping(t_address,t_bool)"
					},
					{
						"astId": 3902,
						"contract": "contracts/KipProtocol.sol:KipProtocol",
						"label": "sft_token_profit",
						"offset": 0,
						"slot": "9",
						"type": "t_mapping(t_address,t_struct(UintToUintMap)1986_storage)"
					}
				],
				"types": {
					"t_address": {
						"encoding": "inplace",
						"label": "address",
						"numberOfBytes": "20"
					},
					"t_array(t_bytes32)dyn_storage": {
						"base": "t_bytes32",
						"encoding": "dynamic_array",
						"label": "bytes32[]",
						"numberOfBytes": "32"
					},
					"t_bool": {
						"encoding": "inplace",
						"label": "bool",
						"numberOfBytes": "1"
					},
					"t_bytes32": {
						"encoding": "inplace",
						"label": "bytes32",
						"numberOfBytes": "32"
					},
					"t_mapping(t_address,t_bool)": {
						"encoding": "mapping",
						"key": "t_address",
						"label": "mapping(address => bool)",
						"numberOfBytes": "32",
						"value": "t_bool"
					},
					"t_mapping(t_address,t_struct(UintToUintMap)1986_storage)": {
						"encoding": "mapping",
						"key": "t_address",
						"label": "mapping(address => struct EnumerableMap.UintToUintMap)",
						"numberOfBytes": "32",
						"value": "t_struct(UintToUintMap)1986_storage"
					},
					"t_mapping(t_address,t_uint256)": {
						"encoding": "mapping",
						"key": "t_address",
						"label": "mapping(address => uint256)",
						"numberOfBytes": "32",
						"value": "t_uint256"
					},
					"t_mapping(t_bytes32,t_bytes32)": {
						"encoding": "mapping",
						"key": "t_bytes32",
						"label": "mapping(bytes32 => bytes32)",
						"numberOfBytes": "32",
						"value": "t_bytes32"
					},
					"t_mapping(t_bytes32,t_uint256)": {
						"encoding": "mapping",
						"key": "t_bytes32",
						"label": "mapping(bytes32 => uint256)",
						"numberOfBytes": "32",
						"value": "t_uint256"
					},
					"t_mapping(t_uint256,t_address)": {
						"encoding": "mapping",
						"key": "t_uint256",
						"label": "mapping(uint256 => address)",
						"numberOfBytes": "32",
						"value": "t_address"
					},
					"t_struct(Bytes32Set)3070_storage": {
						"encoding": "inplace",
						"label": "struct EnumerableSet.Bytes32Set",
						"members": [
							{
								"astId": 3069,
								"contract": "contracts/KipProtocol.sol:KipProtocol",
								"label": "_inner",
								"offset": 0,
								"slot": "0",
								"type": "t_struct(Set)2876_storage"
							}
						],
						"numberOfBytes": "64"
					},
					"t_struct(Bytes32ToBytes32Map)1772_storage": {
						"encoding": "inplace",
						"label": "struct EnumerableMap.Bytes32ToBytes32Map",
						"members": [
							{
								"astId": 1767,
								"contract": "contracts/KipProtocol.sol:KipProtocol",
								"label": "_keys",
								"offset": 0,
								"slot": "0",
								"type": "t_struct(Bytes32Set)3070_storage"
							},
							{
								"astId": 1771,
								"contract": "contracts/KipProtocol.sol:KipProtocol",
								"label": "_values",
								"offset": 0,
								"slot": "2",
								"type": "t_mapping(t_bytes32,t_bytes32)"
							}
						],
						"numberOfBytes": "96"
					},
					"t_struct(Set)2876_storage": {
						"encoding": "inplace",
						"label": "struct EnumerableSet.Set",
						"members": [
							{
								"astId": 2871,
								"contract": "contracts/KipProtocol.sol:KipProtocol",
								"label": "_values",
								"offset": 0,
								"slot": "0",
								"type": "t_array(t_bytes32)dyn_storage"
							},
							{
								"astId": 2875,
								"contract": "contracts/KipProtocol.sol:KipProtocol",
								"label": "_positions",
								"offset": 0,
								"slot": "1",
								"type": "t_mapping(t_bytes32,t_uint256)"
							}
						],
						"numberOfBytes": "64"
					},
					"t_struct(UintToUintMap)1986_storage": {
						"encoding": "inplace",
						"label": "struct EnumerableMap.UintToUintMap",
						"members": [
							{
								"astId": 1985,
								"contract": "contracts/KipProtocol.sol:KipProtocol",
								"label": "_inner",
								"offset": 0,
								"slot": "0",
								"type": "t_struct(Bytes32ToBytes32Map)1772_storage"
							}
						],
						"numberOfBytes": "96"
					},
					"t_uint256": {
						"encoding": "inplace",
						"label": "uint256",
						"numberOfBytes": "32"
					}
				}
			},
			"userdoc": {
				"kind": "user",
				"methods": {},
				"version": 1
			}
		}
	}
}