{
	"data": {
		"bytecode": {
			"linkReferences": {},
			"object": "60a060405230608052348015610013575f80fd5b5061001c610021565b6100d3565b7ff0c57e16840df040f15088dc2f81fe391c3923bec73e23a9662efc9c229c6a00805468010000000000000000900460ff16156100715760405163f92ee8a960e01b815260040160405180910390fd5b80546001600160401b03908116146100d05780546001600160401b0319166001600160401b0390811782556040519081527fc7f505b2f371ae2175ee4913f4499e1f2633a7b5936321eed1cdaeb6115181d29060200160405180910390a15b50565b60805161207f620000fa5f395f8181610fd201528181610ffb0152611155015261207f5ff3fe6080604052600436106101ae575f3560e01c806385dc3004116100e7578063c77b514611610087578063e917ccaf11610062578063e917ccaf14610502578063ef299b0b14610521578063f2fde38b14610540578063f8c8765e1461055f575f80fd5b8063c77b514614610487578063cae5ec04146104a5578063e82bef29146104e3575f80fd5b8063a335a003116100c2578063a335a003146103cc578063a3799339146103f7578063ad3cb1cc14610416578063b0e0a56914610453575f80fd5b806385dc3004146103525780638da5cb5b1461037157806392881f08146103ad575f80fd5b80634f1ef28611610152578063631429ce1161012d578063631429ce146102dd5780636efee90b146102f257806370c8628614610329578063715018a61461033e575f80fd5b80634f1ef2861461029757806351d4a4e2146102aa57806352d1902d146102c9575f80fd5b806313d18a241161018d57806313d18a24146102305780632e08e4c614610244578063411092e31461026357806344de240a14610282575f80fd5b8062a41baa146101b2578063017e4d1e146101f0578063018dec7214610211575b5f80fd5b3480156101bd575f80fd5b506101dd6101cc3660046119a2565b60076020525f908152604090205481565b6040519081526020015b60405180910390f35b3480156101fb575f80fd5b5061020f61020a3660046119ca565b61057e565b005b34801561021c575f80fd5b5061020f61022b3660046119a2565b6105e9565b34801561023b575f80fd5b506005546101dd565b34801561024f575f80fd5b506101dd61025e366004611a01565b610646565b34801561026e575f80fd5b5061020f61027d3660046119a2565b61068a565b34801561028d575f80fd5b506101dd60035481565b61020f6102a5366004611aee565b6106df565b3480156102b5575f80fd5b5061020f6102c4366004611b4e565b6106fe565b3480156102d4575f80fd5b506101dd6108da565b3480156102e8575f80fd5b506101dd60055481565b3480156102fd575f80fd5b50600154610311906001600160a01b031681565b6040516001600160a01b0390911681526020016101e7565b348015610334575f80fd5b506101dd60045481565b348015610349575f80fd5b5061020f6108f5565b34801561035d575f80fd5b5061020f61036c3660046119a2565b610908565b34801561037c575f80fd5b507f9016d09d72d40fdae2fd8ceac6b6234c7706214fd39c1cd1e609a0528c199300546001600160a01b0316610311565b3480156103b8575f80fd5b5061020f6103c7366004611b9e565b61095e565b3480156103d7575f80fd5b506101dd6103e63660046119a2565b60086020525f908152604090205481565b348015610402575f80fd5b5061020f610411366004611c46565b610a2b565b348015610421575f80fd5b50610446604051806040016040528060058152602001640352e302e360dc1b81525081565b6040516101e79190611cfb565b34801561045e575f80fd5b5061031161046d366004611d0d565b60066020525f90815260409020546001600160a01b031681565b348015610492575f80fd5b505f54610311906001600160a01b031681565b3480156104b0575f80fd5b506104d36104bf3660046119a2565b60096020525f908152604090205460ff1681565b60405190151581526020016101e7565b3480156104ee575f80fd5b50600254610311906001600160a01b031681565b34801561050d575f80fd5b5061020f61051c366004611d24565b610be9565b34801561052c575f80fd5b5061020f61053b366004611d0d565b610cca565b34801561054b575f80fd5b5061020f61055a3660046119a2565b610daa565b34801561056a575f80fd5b5061020f610579366004611e41565b610de7565b610586610f4f565b6001600160a01b0382165f81815260096020908152604091829020805460ff19168515159081179091558251938452908301527f3178e1e682d183b22b2c0a13af9e136c3e9a37b76bd71d47bf24a80710441e8f91015b60405180910390a15050565b6105f1610f4f565b600180546001600160a01b0319166001600160a01b0383169081179091556040519081527f9f836179b5868d79f50f82367a4aee6d831d9405ae5ffb0b1ca0df93b2dc0373906020015b60405180910390a150565b6001600160a01b0382165f908152600a6020526040812081806106698386610faa565b91509150811561067d579250610684915050565b5f93505050505b92915050565b610692610f4f565b5f80546001600160a01b0319166001600160a01b0383169081179091556040519081527f9baff423eff88f9464905ba56ed5f715a601d993fce3f0dc0cb5689a5b6af9949060200161063b565b6106e7610fc7565b6106f08261106b565b6106fa8282611073565b5050565b6001600160a01b0383165f908152600a6020526040812090806107218386610faa565b9150915081156108d25785336040516331a9108f60e11b8152600481018890526001600160a01b0391821691831690636352211e90602401602060405180830381865afa158015610774573d5f803e3d5ffd5b505050506040513d601f19601f820116820180604052508101906107989190611e9a565b6001600160a01b0316146107e55760405162461bcd60e51b815260206004820152600f60248201526e2737ba103a37b5b2b71037bbb732b960891b60448201526064015b60405180910390fd5b8482106108d0575f546001600160a01b03168063a9059cbb336040516001600160e01b031960e084901b1681526001600160a01b039091166004820152602481018990526044016020604051808303815f875af1158015610848573d5f803e3d5ffd5b505050506040513d601f19601f8201168201806040525081019061086c9190611eb5565b506108838761087b8886611ee4565b879190611134565b50604080516001600160a01b038a168152602081018990529081018790527fa1aa847137eb2a4c69d4a1d1123f2a5b5033dd7f82e023f9c79b62a104f24c849060600160405180910390a1505b505b505050505050565b5f6108e361114a565b505f8051602061202a83398151915290565b6108fd610f4f565b6109065f611193565b565b610910610f4f565b600280546001600160a01b0319166001600160a01b0383169081179091556040519081527fb3e90b24bc843d474d30f08e2fe88fcf9d378c853313e403f9d2dcbd134912049060200161063b565b60038054905f61096d83611ef7565b9091555050600154600554604051635e9c3eef60e01b81526001600160a01b03909216915f918391635e9c3eef916109b3918c918c918c908c908c908c90600401611f0f565b6020604051808303815f875af11580156109cf573d5f803e3d5ffd5b505050506040513d601f19601f820116820180604052508101906109f39190611e9a565b6003545f90815260066020526040902080546001600160a01b0319166001600160a01b03929092169190911790555050505050505050565b335f9081526009602052604090205460ff16610a7a5760405162461bcd60e51b815260206004820152600e60248201526d2737ba103090383937bb34b232b960911b60448201526064016107dc565b6001600160a01b038316610ad05760405162461bcd60e51b815260206004820152601a60248201527f5265666572656e6365494420646f6573206e6f7420657869737400000000000060448201526064016107dc565b6001600160a01b0384165f90815260086020526040902054821115610b2c5760405162461bcd60e51b81526020600482015260126024820152714e6f7420656e6f7567682062616c616e636560701b60448201526064016107dc565b6001600160a01b0384165f9081526008602052604081208054849290610b53908490611ee4565b9091555050610b628383611203565b6001600160a01b0383165f9081526007602052604081208054849290610b89908490611f79565b909155505060048054905f610b9d83611ef7565b91905055507f195d340bd25bc3523c352bd8dc52c6887d0f5a23a8891381d5998c06d07575f660045485858585604051610bdb959493929190611f8c565b60405180910390a150505050565b335f9081526009602052604090205460ff16610c385760405162461bcd60e51b815260206004820152600e60248201526d2737ba103090383937bb34b232b960911b60448201526064016107dc565b5f5b81518110156106fa57610cc2828281518110610c5857610c58611fcf565b60200260200101515f0151838381518110610c7557610c75611fcf565b602002602001015160200151848481518110610c9357610c93611fcf565b602002602001015160400151858581518110610cb157610cb1611fcf565b602002602001015160600151610a2b565b600101610c3a565b5f546001600160a01b0316806323b872dd336040516001600160e01b031960e084901b1681526001600160a01b039091166004820152306024820152604481018590526064016020604051808303815f875af1158015610d2c573d5f803e3d5ffd5b505050506040513d601f19601f82011682018060405250810190610d509190611eb5565b50335f9081526008602052604081208054849290610d6f908490611f79565b909155505060408051338152602081018490527fb9a1bffb5ad7fcaeb79fe2262ee61bc2b44689df94bb558f7e70eac20cbd0a0591016105dd565b610db2610f4f565b6001600160a01b038116610ddb57604051631e4fbdf760e01b81525f60048201526024016107dc565b610de481611193565b50565b7ff0c57e16840df040f15088dc2f81fe391c3923bec73e23a9662efc9c229c6a008054600160401b810460ff16159067ffffffffffffffff165f81158015610e2c5750825b90505f8267ffffffffffffffff166001148015610e485750303b155b905081158015610e56575080155b15610e745760405163f92ee8a960e01b815260040160405180910390fd5b845467ffffffffffffffff191660011785558315610e9e57845460ff60401b1916600160401b1785555b610ea78961155f565b610eaf611570565b610eb7611578565b5f80546001600160a01b03808b166001600160a01b0319928316178355600280548b831690841617905560018054918a1691909216179055620f423f60055560038190556004558315610f4457845460ff60401b19168555604051600181527fc7f505b2f371ae2175ee4913f4499e1f2633a7b5936321eed1cdaeb6115181d29060200160405180910390a15b505050505050505050565b33610f817f9016d09d72d40fdae2fd8ceac6b6234c7706214fd39c1cd1e609a0528c199300546001600160a01b031690565b6001600160a01b0316146109065760405163118cdaa760e01b81523360048201526024016107dc565b5f808080610fb88686611588565b909450925050505b9250929050565b306001600160a01b037f000000000000000000000000000000000000000000000000000000000000000016148061104d57507f00000000000000000000000000000000000000000000000000000000000000006001600160a01b03166110415f8051602061202a833981519152546001600160a01b031690565b6001600160a01b031614155b156109065760405163703e46dd60e11b815260040160405180910390fd5b610de4610f4f565b816001600160a01b03166352d1902d6040518163ffffffff1660e01b8152600401602060405180830381865afa9250505080156110cd575060408051601f3d908101601f191682019092526110ca91810190611fe3565b60015b6110f557604051634c9c8ce360e01b81526001600160a01b03831660048201526024016107dc565b5f8051602061202a833981519152811461112557604051632a87526960e21b8152600481018290526024016107dc565b61112f83836115c0565b505050565b5f611140848484611615565b90505b9392505050565b306001600160a01b037f000000000000000000000000000000000000000000000000000000000000000016146109065760405163703e46dd60e11b815260040160405180910390fd5b7f9016d09d72d40fdae2fd8ceac6b6234c7706214fd39c1cd1e609a0528c19930080546001600160a01b031981166001600160a01b03848116918217845560405192169182907f8be0079c531659141344cd1fd0a4f28419497f9722a3daafe3b4186f6b6457e0905f90a3505050565b815f5b816001600160a01b03166318160ddd6040518163ffffffff1660e01b8152600401602060405180830381865afa158015611242573d5f803e3d5ffd5b505050506040513d601f19601f820116820180604052508101906112669190611fe3565b81101561155957604051634f6ccce760e01b8152600481018290525f906001600160a01b03841690639cc7f708908290634f6ccce790602401602060405180830381865afa1580156112ba573d5f803e3d5ffd5b505050506040513d601f19601f820116820180604052508101906112de9190611fe3565b6040518263ffffffff1660e01b81526004016112fc91815260200190565b602060405180830381865afa158015611317573d5f803e3d5ffd5b505050506040513d601f19601f8201168201806040525081019061133b9190611fe3565b90505f836001600160a01b0316635a3c7da76005546040518263ffffffff1660e01b815260040161136e91815260200190565b602060405180830381865afa158015611389573d5f803e3d5ffd5b505050506040513d601f19601f820116820180604052508101906113ad9190611fe3565b90505f6113bb868484611631565b6001600160a01b038881165f908152600a60205260408082209051634f6ccce760e01b8152600481018990529394509290918291611445918a1690634f6ccce790602401602060405180830381865afa15801561141a573d5f803e3d5ffd5b505050506040513d601f19601f8201168201806040525081019061143e9190611fe3565b8490610faa565b9150915081156114d257604051634f6ccce760e01b8152600481018890526114cc906001600160a01b038a1690634f6ccce790602401602060405180830381865afa158015611496573d5f803e3d5ffd5b505050506040513d601f19601f820116820180604052508101906114ba9190611fe3565b6114c48684611f79565b859190611134565b50611547565b604051634f6ccce760e01b815260048101889052611545906001600160a01b038a1690634f6ccce790602401602060405180830381865afa158015611519573d5f803e3d5ffd5b505050506040513d601f19601f8201168201806040525081019061153d9190611fe3565b849086611134565b505b50506001909401935061120692505050565b50505050565b611567611667565b610de4816116b0565b610906611667565b611580611667565b6109066116b8565b5f8181526002830160205260408120548190806115b5576115a985856116e6565b92505f9150610fc09050565b600192509050610fc0565b6115c9826116f1565b6040516001600160a01b038316907fbc7cd75a20ee27fd9adebab32041f755214dbc6bffa90cc0225b39da2e5c2d3b905f90a280511561160d5761112f8282611754565b6106fa6117bd565b5f828152600284016020526040812082905561114084846117dc565b5f81158061163d575083155b80611646575082155b1561165257505f611143565b5f61165e8585856117e7565b95945050505050565b7ff0c57e16840df040f15088dc2f81fe391c3923bec73e23a9662efc9c229c6a0054600160401b900460ff1661090657604051631afcd79f60e31b815260040160405180910390fd5b610db2611667565b6116c0611667565b60017f9b779b17422d0df92223018b32b4d1fa46e071723d6817e2486d003becc55f0055565b5f61114383836118a6565b806001600160a01b03163b5f0361172657604051634c9c8ce360e01b81526001600160a01b03821660048201526024016107dc565b5f8051602061202a83398151915280546001600160a01b0319166001600160a01b0392909216919091179055565b60605f80846001600160a01b0316846040516117709190611ffa565b5f60405180830381855af49150503d805f81146117a8576040519150601f19603f3d011682016040523d82523d5f602084013e6117ad565b606091505b509150915061165e8583836118bd565b34156109065760405163b398979f60e01b815260040160405180910390fd5b5f6111438383611919565b5f838302815f1985870982811083820303915050805f0361181b5783828161181157611811612015565b0492505050611143565b80841161183b5760405163227bc15360e01b815260040160405180910390fd5b5f848688095f868103871696879004966002600389028118808a02820302808a02820302808a02820302808a02820302808a02820302808a02909103029181900381900460010186841190950394909402919094039290920491909117919091029150509392505050565b5f8181526001830160205260408120541515611143565b6060826118d2576118cd82611965565b611143565b81511580156118e957506001600160a01b0384163b155b1561191257604051639996b31560e01b81526001600160a01b03851660048201526024016107dc565b5080611143565b5f81815260018301602052604081205461195e57508154600181810184555f848152602080822090930184905584548482528286019093526040902091909155610684565b505f610684565b8051156119755780518082602001fd5b604051630a12f52160e11b815260040160405180910390fd5b6001600160a01b0381168114610de4575f80fd5b5f602082840312156119b2575f80fd5b81356111438161198e565b8015158114610de4575f80fd5b5f80604083850312156119db575f80fd5b82356119e68161198e565b915060208301356119f6816119bd565b809150509250929050565b5f8060408385031215611a12575f80fd5b8235611a1d8161198e565b946020939093013593505050565b634e487b7160e01b5f52604160045260245ffd5b6040516080810167ffffffffffffffff81118282101715611a6257611a62611a2b565b60405290565b604051601f8201601f1916810167ffffffffffffffff81118282101715611a9157611a91611a2b565b604052919050565b5f67ffffffffffffffff831115611ab257611ab2611a2b565b611ac5601f8401601f1916602001611a68565b9050828152838383011115611ad8575f80fd5b828260208301375f602084830101529392505050565b5f8060408385031215611aff575f80fd5b8235611b0a8161198e565b9150602083013567ffffffffffffffff811115611b25575f80fd5b8301601f81018513611b35575f80fd5b611b4485823560208401611a99565b9150509250929050565b5f805f60608486031215611b60575f80fd5b8335611b6b8161198e565b95602085013595506040909401359392505050565b5f82601f830112611b8f575f80fd5b61114383833560208501611a99565b5f805f805f8060c08789031215611bb3575f80fd5b863567ffffffffffffffff80821115611bca575f80fd5b611bd68a838b01611b80565b97506020890135915080821115611beb575f80fd5b611bf78a838b01611b80565b9650604089013595506060890135945060808901359150611c178261198e565b90925060a08801359080821115611c2c575f80fd5b50611c3989828a01611b80565b9150509295509295509295565b5f805f8060808587031215611c59575f80fd5b8435611c648161198e565b93506020850135611c748161198e565b925060408501359150606085013567ffffffffffffffff811115611c96575f80fd5b611ca287828801611b80565b91505092959194509250565b5f5b83811015611cc8578181015183820152602001611cb0565b50505f910152565b5f8151808452611ce7816020860160208601611cae565b601f01601f19169290920160200192915050565b602081525f6111436020830184611cd0565b5f60208284031215611d1d575f80fd5b5035919050565b5f6020808385031215611d35575f80fd5b823567ffffffffffffffff80821115611d4c575f80fd5b818501915085601f830112611d5f575f80fd5b813581811115611d7157611d71611a2b565b8060051b611d80858201611a68565b9182528381018501918581019089841115611d99575f80fd5b86860192505b83831015611e3457823585811115611db5575f80fd5b86016080818c03601f1901811315611dcb575f80fd5b611dd3611a3f565b89830135611de08161198e565b8152604083810135611df18161198e565b828c015260608481013582840152928401359289841115611e10575f80fd5b611e1e8f8d86880101611b80565b9083015250845250509186019190860190611d9f565b9998505050505050505050565b5f805f8060808587031215611e54575f80fd5b8435611e5f8161198e565b93506020850135611e6f8161198e565b92506040850135611e7f8161198e565b91506060850135611e8f8161198e565b939692955090935050565b5f60208284031215611eaa575f80fd5b81516111438161198e565b5f60208284031215611ec5575f80fd5b8151611143816119bd565b634e487b7160e01b5f52601160045260245ffd5b8181038181111561068457610684611ed0565b5f60018201611f0857611f08611ed0565b5060010190565b60e081525f611f2160e083018a611cd0565b8281036020840152611f33818a611cd0565b6040840189905260608401889052608084018790526001600160a01b03861660a085015283810360c08501529050611f6b8185611cd0565b9a9950505050505050505050565b8082018082111561068457610684611ed0565b8581526001600160a01b038581166020830152841660408201526060810183905260a0608082018190525f90611fc490830184611cd0565b979650505050505050565b634e487b7160e01b5f52603260045260245ffd5b5f60208284031215611ff3575f80fd5b5051919050565b5f825161200b818460208701611cae565b9190910192915050565b634e487b7160e01b5f52601260045260245ffdfe360894a13ba1a3210667c828492db98dca3e2076cc3735a920a3ca505d382bbca26469706673582212206ddc4c7ff5802bea3b203c4f95c4c8bbffe14cc354b68e6e14737ad6ce3b167964736f6c63430008180033",
			"opcodes": "PUSH1 0xA0 PUSH1 0x40 MSTORE ADDRESS PUSH1 0x80 MSTORE CALLVALUE DUP1 ISZERO PUSH2 0x13 JUMPI PUSH0 DUP1 REVERT JUMPDEST POP PUSH2 0x1C PUSH2 0x21 JUMP JUMPDEST PUSH2 0xD3 JUMP JUMPDEST PUSH32 0xF0C57E16840DF040F15088DC2F81FE391C3923BEC73E23A9662EFC9C229C6A00 DUP1 SLOAD PUSH9 0x10000000000000000 SWAP1 DIV PUSH1 0xFF AND ISZERO PUSH2 0x71 JUMPI PUSH1 0x40 MLOAD PUSH4 0xF92EE8A9 PUSH1 0xE0 SHL DUP2 MSTORE PUSH1 0x4 ADD PUSH1 0x40 MLOAD DUP1 SWAP2 SUB SWAP1 REVERT JUMPDEST DUP1 SLOAD PUSH1 0x1 PUSH1 0x1 PUSH1 0x40 SHL SUB SWAP1 DUP2 AND EQ PUSH2 0xD0 JUMPI DUP1 SLOAD PUSH1 0x1 PUSH1 0x1 PUSH1 0x40 SHL SUB NOT AND PUSH1 0x1 PUSH1 0x1 PUSH1 0x40 SHL SUB SWAP1 DUP2 OR DUP3 SSTORE PUSH1 0x40 MLOAD SWAP1 DUP2 MSTORE PUSH32 0xC7F505B2F371AE2175EE4913F4499E1F2633A7B5936321EED1CDAEB6115181D2 SWAP1 PUSH1 0x20 ADD PUSH1 0x40 MLOAD DUP1 SWAP2 SUB SWAP1 LOG1 JUMPDEST POP JUMP JUMPDEST PUSH1 0x80 MLOAD PUSH2 0x207F PUSH3 0xFA PUSH0 CODECOPY PUSH0 DUP2 DUP2 PUSH2 0xFD2 ADD MSTORE DUP2 DUP2 PUSH2 0xFFB ADD MSTORE PUSH2 0x1155 ADD MSTORE PUSH2 0x207F PUSH0 RETURN INVALID PUSH1 0x80 PUSH1 0x40 MSTORE PUSH1 0x4 CALLDATASIZE LT PUSH2 0x1AE JUMPI PUSH0 CALLDATALOAD PUSH1 0xE0 SHR DUP1 PUSH4 0x85DC3004 GT PUSH2 0xE7 JUMPI DUP1 PUSH4 0xC77B5146 GT PUSH2 0x87 JUMPI DUP1 PUSH4 0xE917CCAF GT PUSH2 0x62 JUMPI DUP1 PUSH4 0xE917CCAF EQ PUSH2 0x502 JUMPI DUP1 PUSH4 0xEF299B0B EQ PUSH2 0x521 JUMPI DUP1 PUSH4 0xF2FDE38B EQ PUSH2 0x540 JUMPI DUP1 PUSH4 0xF8C8765E EQ PUSH2 0x55F JUMPI PUSH0 DUP1 REVERT JUMPDEST DUP1 PUSH4 0xC77B5146 EQ PUSH2 0x487 JUMPI DUP1 PUSH4 0xCAE5EC04 EQ PUSH2 0x4A5 JUMPI DUP1 PUSH4 0xE82BEF29 EQ PUSH2 0x4E3 JUMPI PUSH0 DUP1 REVERT JUMPDEST DUP1 PUSH4 0xA335A003 GT PUSH2 0xC2 JUMPI DUP1 PUSH4 0xA335A003 EQ PUSH2 0x3CC JUMPI DUP1 PUSH4 0xA3799339 EQ PUSH2 0x3F7 JUMPI DUP1 PUSH4 0xAD3CB1CC EQ PUSH2 0x416 JUMPI DUP1 PUSH4 0xB0E0A569 EQ PUSH2 0x453 JUMPI PUSH0 DUP1 REVERT JUMPDEST DUP1 PUSH4 0x85DC3004 EQ PUSH2 0x352 JUMPI DUP1 PUSH4 0x8DA5CB5B EQ PUSH2 0x371 JUMPI DUP1 PUSH4 0x92881F08 EQ PUSH2 0x3AD JUMPI PUSH0 DUP1 REVERT JUMPDEST DUP1 PUSH4 0x4F1EF286 GT PUSH2 0x152 JUMPI DUP1 PUSH4 0x631429CE GT PUSH2 0x12D JUMPI DUP1 PUSH4 0x631429CE EQ PUSH2 0x2DD JUMPI DUP1 PUSH4 0x6EFEE90B EQ PUSH2 0x2F2 JUMPI DUP1 PUSH4 0x70C86286 EQ PUSH2 0x329 JUMPI DUP1 PUSH4 0x715018A6 EQ PUSH2 0x33E JUMPI PUSH0 DUP1 REVERT JUMPDEST DUP1 PUSH4 0x4F1EF286 EQ PUSH2 0x297 JUMPI DUP1 PUSH4 0x51D4A4E2 EQ PUSH2 0x2AA JUMPI DUP1 PUSH4 0x52D1902D EQ PUSH2 0x2C9 JUMPI PUSH0 DUP1 REVERT JUMPDEST DUP1 PUSH4 0x13D18A24 GT PUSH2 0x18D JUMPI DUP1 PUSH4 0x13D18A24 EQ PUSH2 0x230 JUMPI DUP1 PUSH4 0x2E08E4C6 EQ PUSH2 0x244 JUMPI DUP1 PUSH4 0x411092E3 EQ PUSH2 0x263 JUMPI DUP1 PUSH4 0x44DE240A EQ PUSH2 0x282 JUMPI PUSH0 DUP1 REVERT JUMPDEST DUP1 PUSH3 0xA41BAA EQ PUSH2 0x1B2 JUMPI DUP1 PUSH4 0x17E4D1E EQ PUSH2 0x1F0 JUMPI DUP1 PUSH4 0x18DEC72 EQ PUSH2 0x211 JUMPI JUMPDEST PUSH0 DUP1 REVERT JUMPDEST CALLVALUE DUP1 ISZERO PUSH2 0x1BD JUMPI PUSH0 DUP1 REVERT JUMPDEST POP PUSH2 0x1DD PUSH2 0x1CC CALLDATASIZE PUSH1 0x4 PUSH2 0x19A2 JUMP JUMPDEST PUSH1 0x7 PUSH1 0x20 MSTORE PUSH0 SWAP1 DUP2 MSTORE PUSH1 0x40 SWAP1 KECCAK256 SLOAD DUP2 JUMP JUMPDEST PUSH1 0x40 MLOAD SWAP1 DUP2 MSTORE PUSH1 0x20 ADD JUMPDEST PUSH1 0x40 MLOAD DUP1 SWAP2 SUB SWAP1 RETURN JUMPDEST CALLVALUE DUP1 ISZERO PUSH2 0x1FB JUMPI PUSH0 DUP1 REVERT JUMPDEST POP PUSH2 0x20F PUSH2 0x20A CALLDATASIZE PUSH1 0x4 PUSH2 0x19CA JUMP JUMPDEST PUSH2 0x57E JUMP JUMPDEST STOP JUMPDEST CALLVALUE DUP1 ISZERO PUSH2 0x21C JUMPI PUSH0 DUP1 REVERT JUMPDEST POP PUSH2 0x20F PUSH2 0x22B CALLDATASIZE PUSH1 0x4 PUSH2 0x19A2 JUMP JUMPDEST PUSH2 0x5E9 JUMP JUMPDEST CALLVALUE DUP1 ISZERO PUSH2 0x23B JUMPI PUSH0 DUP1 REVERT JUMPDEST POP PUSH1 0x5 SLOAD PUSH2 0x1DD JUMP JUMPDEST CALLVALUE DUP1 ISZERO PUSH2 0x24F JUMPI PUSH0 DUP1 REVERT JUMPDEST POP PUSH2 0x1DD PUSH2 0x25E CALLDATASIZE PUSH1 0x4 PUSH2 0x1A01 JUMP JUMPDEST PUSH2 0x646 JUMP JUMPDEST CALLVALUE DUP1 ISZERO PUSH2 0x26E JUMPI PUSH0 DUP1 REVERT JUMPDEST POP PUSH2 0x20F PUSH2 0x27D CALLDATASIZE PUSH1 0x4 PUSH2 0x19A2 JUMP JUMPDEST PUSH2 0x68A JUMP JUMPDEST CALLVALUE DUP1 ISZERO PUSH2 0x28D JUMPI PUSH0 DUP1 REVERT JUMPDEST POP PUSH2 0x1DD PUSH1 0x3 SLOAD DUP2 JUMP JUMPDEST PUSH2 0x20F PUSH2 0x2A5 CALLDATASIZE PUSH1 0x4 PUSH2 0x1AEE JUMP JUMPDEST PUSH2 0x6DF JUMP JUMPDEST CALLVALUE DUP1 ISZERO PUSH2 0x2B5 JUMPI PUSH0 DUP1 REVERT JUMPDEST POP PUSH2 0x20F PUSH2 0x2C4 CALLDATASIZE PUSH1 0x4 PUSH2 0x1B4E JUMP JUMPDEST PUSH2 0x6FE JUMP JUMPDEST CALLVALUE DUP1 ISZERO PUSH2 0x2D4 JUMPI PUSH0 DUP1 REVERT JUMPDEST POP PUSH2 0x1DD PUSH2 0x8DA JUMP JUMPDEST CALLVALUE DUP1 ISZERO PUSH2 0x2E8 JUMPI PUSH0 DUP1 REVERT JUMPDEST POP PUSH2 0x1DD PUSH1 0x5 SLOAD DUP2 JUMP JUMPDEST CALLVALUE DUP1 ISZERO PUSH2 0x2FD JUMPI PUSH0 DUP1 REVERT JUMPDEST POP PUSH1 0x1 SLOAD PUSH2 0x311 SWAP1 PUSH1 0x1 PUSH1 0x1 PUSH1 0xA0 SHL SUB AND DUP2 JUMP JUMPDEST PUSH1 0x40 MLOAD PUSH1 0x1 PUSH1 0x1 PUSH1 0xA0 SHL SUB SWAP1 SWAP2 AND DUP2 MSTORE PUSH1 0x20 ADD PUSH2 0x1E7 JUMP JUMPDEST CALLVALUE DUP1 ISZERO PUSH2 0x334 JUMPI PUSH0 DUP1 REVERT JUMPDEST POP PUSH2 0x1DD PUSH1 0x4 SLOAD DUP2 JUMP JUMPDEST CALLVALUE DUP1 ISZERO PUSH2 0x349 JUMPI PUSH0 DUP1 REVERT JUMPDEST POP PUSH2 0x20F PUSH2 0x8F5 JUMP JUMPDEST CALLVALUE DUP1 ISZERO PUSH2 0x35D JUMPI PUSH0 DUP1 REVERT JUMPDEST POP PUSH2 0x20F PUSH2 0x36C CALLDATASIZE PUSH1 0x4 PUSH2 0x19A2 JUMP JUMPDEST PUSH2 0x908 JUMP JUMPDEST CALLVALUE DUP1 ISZERO PUSH2 0x37C JUMPI PUSH0 DUP1 REVERT JUMPDEST POP PUSH32 0x9016D09D72D40FDAE2FD8CEAC6B6234C7706214FD39C1CD1E609A0528C199300 SLOAD PUSH1 0x1 PUSH1 0x1 PUSH1 0xA0 SHL SUB AND PUSH2 0x311 JUMP JUMPDEST CALLVALUE DUP1 ISZERO PUSH2 0x3B8 JUMPI PUSH0 DUP1 REVERT JUMPDEST POP PUSH2 0x20F PUSH2 0x3C7 CALLDATASIZE PUSH1 0x4 PUSH2 0x1B9E JUMP JUMPDEST PUSH2 0x95E JUMP JUMPDEST CALLVALUE DUP1 ISZERO PUSH2 0x3D7 JUMPI PUSH0 DUP1 REVERT JUMPDEST POP PUSH2 0x1DD PUSH2 0x3E6 CALLDATASIZE PUSH1 0x4 PUSH2 0x19A2 JUMP JUMPDEST PUSH1 0x8 PUSH1 0x20 MSTORE PUSH0 SWAP1 DUP2 MSTORE PUSH1 0x40 SWAP1 KECCAK256 SLOAD DUP2 JUMP JUMPDEST CALLVALUE DUP1 ISZERO PUSH2 0x402 JUMPI PUSH0 DUP1 REVERT JUMPDEST POP PUSH2 0x20F PUSH2 0x411 CALLDATASIZE PUSH1 0x4 PUSH2 0x1C46 JUMP JUMPDEST PUSH2 0xA2B JUMP JUMPDEST CALLVALUE DUP1 ISZERO PUSH2 0x421 JUMPI PUSH0 DUP1 REVERT JUMPDEST POP PUSH2 0x446 PUSH1 0x40 MLOAD DUP1 PUSH1 0x40 ADD PUSH1 0x40 MSTORE DUP1 PUSH1 0x5 DUP2 MSTORE PUSH1 0x20 ADD PUSH5 0x352E302E3 PUSH1 0xDC SHL DUP2 MSTORE POP DUP2 JUMP JUMPDEST PUSH1 0x40 MLOAD PUSH2 0x1E7 SWAP2 SWAP1 PUSH2 0x1CFB JUMP JUMPDEST CALLVALUE DUP1 ISZERO PUSH2 0x45E JUMPI PUSH0 DUP1 REVERT JUMPDEST POP PUSH2 0x311 PUSH2 0x46D CALLDATASIZE PUSH1 0x4 PUSH2 0x1D0D JUMP JUMPDEST PUSH1 0x6 PUSH1 0x20 MSTORE PUSH0 SWAP1 DUP2 MSTORE PUSH1 0x40 SWAP1 KECCAK256 SLOAD PUSH1 0x1 PUSH1 0x1 PUSH1 0xA0 SHL SUB AND DUP2 JUMP JUMPDEST CALLVALUE DUP1 ISZERO PUSH2 0x492 JUMPI PUSH0 DUP1 REVERT JUMPDEST POP PUSH0 SLOAD PUSH2 0x311 SWAP1 PUSH1 0x1 PUSH1 0x1 PUSH1 0xA0 SHL SUB AND DUP2 JUMP JUMPDEST CALLVALUE DUP1 ISZERO PUSH2 0x4B0 JUMPI PUSH0 DUP1 REVERT JUMPDEST POP PUSH2 0x4D3 PUSH2 0x4BF CALLDATASIZE PUSH1 0x4 PUSH2 0x19A2 JUMP JUMPDEST PUSH1 0x9 PUSH1 0x20 MSTORE PUSH0 SWAP1 DUP2 MSTORE PUSH1 0x40 SWAP1 KECCAK256 SLOAD PUSH1 0xFF AND DUP2 JUMP JUMPDEST PUSH1 0x40 MLOAD SWAP1 ISZERO ISZERO DUP2 MSTORE PUSH1 0x20 ADD PUSH2 0x1E7 JUMP JUMPDEST CALLVALUE DUP1 ISZERO PUSH2 0x4EE JUMPI PUSH0 DUP1 REVERT JUMPDEST POP PUSH1 0x2 SLOAD PUSH2 0x311 SWAP1 PUSH1 0x1 PUSH1 0x1 PUSH1 0xA0 SHL SUB AND DUP2 JUMP JUMPDEST CALLVALUE DUP1 ISZERO PUSH2 0x50D JUMPI PUSH0 DUP1 REVERT JUMPDEST POP PUSH2 0x20F PUSH2 0x51C CALLDATASIZE PUSH1 0x4 PUSH2 0x1D24 JUMP JUMPDEST PUSH2 0xBE9 JUMP JUMPDEST CALLVALUE DUP1 ISZERO PUSH2 0x52C JUMPI PUSH0 DUP1 REVERT JUMPDEST POP PUSH2 0x20F PUSH2 0x53B CALLDATASIZE PUSH1 0x4 PUSH2 0x1D0D JUMP JUMPDEST PUSH2 0xCCA JUMP JUMPDEST CALLVALUE DUP1 ISZERO PUSH2 0x54B JUMPI PUSH0 DUP1 REVERT JUMPDEST POP PUSH2 0x20F PUSH2 0x55A CALLDATASIZE PUSH1 0x4 PUSH2 0x19A2 JUMP JUMPDEST PUSH2 0xDAA JUMP JUMPDEST CALLVALUE DUP1 ISZERO PUSH2 0x56A JUMPI PUSH0 DUP1 REVERT JUMPDEST POP PUSH2 0x20F PUSH2 0x579 CALLDATASIZE PUSH1 0x4 PUSH2 0x1E41 JUMP JUMPDEST PUSH2 0xDE7 JUMP JUMPDEST PUSH2 0x586 PUSH2 0xF4F JUMP JUMPDEST PUSH1 0x1 PUSH1 0x1 PUSH1 0xA0 SHL SUB DUP3 AND PUSH0 DUP2 DUP2 MSTORE PUSH1 0x9 PUSH1 0x20 SWAP1 DUP2 MSTORE PUSH1 0x40 SWAP2 DUP3 SWAP1 KECCAK256 DUP1 SLOAD PUSH1 0xFF NOT AND DUP6 ISZERO ISZERO SWAP1 DUP2 OR SWAP1 SWAP2 SSTORE DUP3 MLOAD SWAP4 DUP5 MSTORE SWAP1 DUP4 ADD MSTORE PUSH32 0x3178E1E682D183B22B2C0A13AF9E136C3E9A37B76BD71D47BF24A80710441E8F SWAP2 ADD JUMPDEST PUSH1 0x40 MLOAD DUP1 SWAP2 SUB SWAP1 LOG1 POP POP JUMP JUMPDEST PUSH2 0x5F1 PUSH2 0xF4F JUMP JUMPDEST PUSH1 0x1 DUP1 SLOAD PUSH1 0x1 PUSH1 0x1 PUSH1 0xA0 SHL SUB NOT AND PUSH1 0x1 PUSH1 0x1 PUSH1 0xA0 SHL SUB DUP4 AND SWAP1 DUP2 OR SWAP1 SWAP2 SSTORE PUSH1 0x40 MLOAD SWAP1 DUP2 MSTORE PUSH32 0x9F836179B5868D79F50F82367A4AEE6D831D9405AE5FFB0B1CA0DF93B2DC0373 SWAP1 PUSH1 0x20 ADD JUMPDEST PUSH1 0x40 MLOAD DUP1 SWAP2 SUB SWAP1 LOG1 POP JUMP JUMPDEST PUSH1 0x1 PUSH1 0x1 PUSH1 0xA0 SHL SUB DUP3 AND PUSH0 SWAP1 DUP2 MSTORE PUSH1 0xA PUSH1 0x20 MSTORE PUSH1 0x40 DUP2 KECCAK256 DUP2 DUP1 PUSH2 0x669 DUP4 DUP7 PUSH2 0xFAA JUMP JUMPDEST SWAP2 POP SWAP2 POP DUP2 ISZERO PUSH2 0x67D JUMPI SWAP3 POP PUSH2 0x684 SWAP2 POP POP JUMP JUMPDEST PUSH0 SWAP4 POP POP POP POP JUMPDEST SWAP3 SWAP2 POP POP JUMP JUMPDEST PUSH2 0x692 PUSH2 0xF4F JUMP JUMPDEST PUSH0 DUP1 SLOAD PUSH1 0x1 PUSH1 0x1 PUSH1 0xA0 SHL SUB NOT AND PUSH1 0x1 PUSH1 0x1 PUSH1 0xA0 SHL SUB DUP4 AND SWAP1 DUP2 OR SWAP1 SWAP2 SSTORE PUSH1 0x40 MLOAD SWAP1 DUP2 MSTORE PUSH32 0x9BAFF423EFF88F9464905BA56ED5F715A601D993FCE3F0DC0CB5689A5B6AF994 SWAP1 PUSH1 0x20 ADD PUSH2 0x63B JUMP JUMPDEST PUSH2 0x6E7 PUSH2 0xFC7 JUMP JUMPDEST PUSH2 0x6F0 DUP3 PUSH2 0x106B JUMP JUMPDEST PUSH2 0x6FA DUP3 DUP3 PUSH2 0x1073 JUMP JUMPDEST POP POP JUMP JUMPDEST PUSH1 0x1 PUSH1 0x1 PUSH1 0xA0 SHL SUB DUP4 AND PUSH0 SWAP1 DUP2 MSTORE PUSH1 0xA PUSH1 0x20 MSTORE PUSH1 0x40 DUP2 KECCAK256 SWAP1 DUP1 PUSH2 0x721 DUP4 DUP7 PUSH2 0xFAA JUMP JUMPDEST SWAP2 POP SWAP2 POP DUP2 ISZERO PUSH2 0x8D2 JUMPI DUP6 CALLER PUSH1 0x40 MLOAD PUSH4 0x31A9108F PUSH1 0xE1 SHL DUP2 MSTORE PUSH1 0x4 DUP2 ADD DUP9 SWAP1 MSTORE PUSH1 0x1 PUSH1 0x1 PUSH1 0xA0 SHL SUB SWAP2 DUP3 AND SWAP2 DUP4 AND SWAP1 PUSH4 0x6352211E SWAP1 PUSH1 0x24 ADD PUSH1 0x20 PUSH1 0x40 MLOAD DUP1 DUP4 SUB DUP2 DUP7 GAS STATICCALL ISZERO DUP1 ISZERO PUSH2 0x774 JUMPI RETURNDATASIZE PUSH0 DUP1 RETURNDATACOPY RETURNDATASIZE PUSH0 REVERT JUMPDEST POP POP POP POP PUSH1 0x40 MLOAD RETURNDATASIZE PUSH1 0x1F NOT PUSH1 0x1F DUP3 ADD AND DUP3 ADD DUP1 PUSH1 0x40 MSTORE POP DUP2 ADD SWAP1 PUSH2 0x798 SWAP2 SWAP1 PUSH2 0x1E9A JUMP JUMPDEST PUSH1 0x1 PUSH1 0x1 PUSH1 0xA0 SHL SUB AND EQ PUSH2 0x7E5 JUMPI PUSH1 0x40 MLOAD PUSH3 0x461BCD PUSH1 0xE5 SHL DUP2 MSTORE PUSH1 0x20 PUSH1 0x4 DUP3 ADD MSTORE PUSH1 0xF PUSH1 0x24 DUP3 ADD MSTORE PUSH15 0x2737BA103A37B5B2B71037BBB732B9 PUSH1 0x89 SHL PUSH1 0x44 DUP3 ADD MSTORE PUSH1 0x64 ADD JUMPDEST PUSH1 0x40 MLOAD DUP1 SWAP2 SUB SWAP1 REVERT JUMPDEST DUP5 DUP3 LT PUSH2 0x8D0 JUMPI PUSH0 SLOAD PUSH1 0x1 PUSH1 0x1 PUSH1 0xA0 SHL SUB AND DUP1 PUSH4 0xA9059CBB CALLER PUSH1 0x40 MLOAD PUSH1 0x1 PUSH1 0x1 PUSH1 0xE0 SHL SUB NOT PUSH1 0xE0 DUP5 SWAP1 SHL AND DUP2 MSTORE PUSH1 0x1 PUSH1 0x1 PUSH1 0xA0 SHL SUB SWAP1 SWAP2 AND PUSH1 0x4 DUP3 ADD MSTORE PUSH1 0x24 DUP2 ADD DUP10 SWAP1 MSTORE PUSH1 0x44 ADD PUSH1 0x20 PUSH1 0x40 MLOAD DUP1 DUP4 SUB DUP2 PUSH0 DUP8 GAS CALL ISZERO DUP1 ISZERO PUSH2 0x848 JUMPI RETURNDATASIZE PUSH0 DUP1 RETURNDATACOPY RETURNDATASIZE PUSH0 REVERT JUMPDEST POP POP POP POP PUSH1 0x40 MLOAD RETURNDATASIZE PUSH1 0x1F NOT PUSH1 0x1F DUP3 ADD AND DUP3 ADD DUP1 PUSH1 0x40 MSTORE POP DUP2 ADD SWAP1 PUSH2 0x86C SWAP2 SWAP1 PUSH2 0x1EB5 JUMP JUMPDEST POP PUSH2 0x883 DUP8 PUSH2 0x87B DUP9 DUP7 PUSH2 0x1EE4 JUMP JUMPDEST DUP8 SWAP2 SWAP1 PUSH2 0x1134 JUMP JUMPDEST POP PUSH1 0x40 DUP1 MLOAD PUSH1 0x1 PUSH1 0x1 PUSH1 0xA0 SHL SUB DUP11 AND DUP2 MSTORE PUSH1 0x20 DUP2 ADD DUP10 SWAP1 MSTORE SWAP1 DUP2 ADD DUP8 SWAP1 MSTORE PUSH32 0xA1AA847137EB2A4C69D4A1D1123F2A5B5033DD7F82E023F9C79B62A104F24C84 SWAP1 PUSH1 0x60 ADD PUSH1 0x40 MLOAD DUP1 SWAP2 SUB SWAP1 LOG1 POP JUMPDEST POP JUMPDEST POP POP POP POP POP POP JUMP JUMPDEST PUSH0 PUSH2 0x8E3 PUSH2 0x114A JUMP JUMPDEST POP PUSH0 DUP1 MLOAD PUSH1 0x20 PUSH2 0x202A DUP4 CODECOPY DUP2 MLOAD SWAP2 MSTORE SWAP1 JUMP JUMPDEST PUSH2 0x8FD PUSH2 0xF4F JUMP JUMPDEST PUSH2 0x906 PUSH0 PUSH2 0x1193 JUMP JUMPDEST JUMP JUMPDEST PUSH2 0x910 PUSH2 0xF4F JUMP JUMPDEST PUSH1 0x2 DUP1 SLOAD PUSH1 0x1 PUSH1 0x1 PUSH1 0xA0 SHL SUB NOT AND PUSH1 0x1 PUSH1 0x1 PUSH1 0xA0 SHL SUB DUP4 AND SWAP1 DUP2 OR SWAP1 SWAP2 SSTORE PUSH1 0x40 MLOAD SWAP1 DUP2 MSTORE PUSH32 0xB3E90B24BC843D474D30F08E2FE88FCF9D378C853313E403F9D2DCBD13491204 SWAP1 PUSH1 0x20 ADD PUSH2 0x63B JUMP JUMPDEST PUSH1 0x3 DUP1 SLOAD SWAP1 PUSH0 PUSH2 0x96D DUP4 PUSH2 0x1EF7 JUMP JUMPDEST SWAP1 SWAP2 SSTORE POP POP PUSH1 0x1 SLOAD PUSH1 0x5 SLOAD PUSH1 0x40 MLOAD PUSH4 0x5E9C3EEF PUSH1 0xE0 SHL DUP2 MSTORE PUSH1 0x1 PUSH1 0x1 PUSH1 0xA0 SHL SUB SWAP1 SWAP3 AND SWAP2 PUSH0 SWAP2 DUP4 SWAP2 PUSH4 0x5E9C3EEF SWAP2 PUSH2 0x9B3 SWAP2 DUP13 SWAP2 DUP13 SWAP2 DUP13 SWAP1 DUP13 SWAP1 DUP13 SWAP1 DUP13 SWAP1 PUSH1 0x4 ADD PUSH2 0x1F0F JUMP JUMPDEST PUSH1 0x20 PUSH1 0x40 MLOAD DUP1 DUP4 SUB DUP2 PUSH0 DUP8 GAS CALL ISZERO DUP1 ISZERO PUSH2 0x9CF JUMPI RETURNDATASIZE PUSH0 DUP1 RETURNDATACOPY RETURNDATASIZE PUSH0 REVERT JUMPDEST POP POP POP POP PUSH1 0x40 MLOAD RETURNDATASIZE PUSH1 0x1F NOT PUSH1 0x1F DUP3 ADD AND DUP3 ADD DUP1 PUSH1 0x40 MSTORE POP DUP2 ADD SWAP1 PUSH2 0x9F3 SWAP2 SWAP1 PUSH2 0x1E9A JUMP JUMPDEST PUSH1 0x3 SLOAD PUSH0 SWAP1 DUP2 MSTORE PUSH1 0x6 PUSH1 0x20 MSTORE PUSH1 0x40 SWAP1 KECCAK256 DUP1 SLOAD PUSH1 0x1 PUSH1 0x1 PUSH1 0xA0 SHL SUB NOT AND PUSH1 0x1 PUSH1 0x1 PUSH1 0xA0 SHL SUB SWAP3 SWAP1 SWAP3 AND SWAP2 SWAP1 SWAP2 OR SWAP1 SSTORE POP POP POP POP POP POP POP POP JUMP JUMPDEST CALLER PUSH0 SWAP1 DUP2 MSTORE PUSH1 0x9 PUSH1 0x20 MSTORE PUSH1 0x40 SWAP1 KECCAK256 SLOAD PUSH1 0xFF AND PUSH2 0xA7A JUMPI PUSH1 0x40 MLOAD PUSH3 0x461BCD PUSH1 0xE5 SHL DUP2 MSTORE PUSH1 0x20 PUSH1 0x4 DUP3 ADD MSTORE PUSH1 0xE PUSH1 0x24 DUP3 ADD MSTORE PUSH14 0x2737BA103090383937BB34B232B9 PUSH1 0x91 SHL PUSH1 0x44 DUP3 ADD MSTORE PUSH1 0x64 ADD PUSH2 0x7DC JUMP JUMPDEST PUSH1 0x1 PUSH1 0x1 PUSH1 0xA0 SHL SUB DUP4 AND PUSH2 0xAD0 JUMPI PUSH1 0x40 MLOAD PUSH3 0x461BCD PUSH1 0xE5 SHL DUP2 MSTORE PUSH1 0x20 PUSH1 0x4 DUP3 ADD MSTORE PUSH1 0x1A PUSH1 0x24 DUP3 ADD MSTORE PUSH32 0x5265666572656E6365494420646F6573206E6F74206578697374000000000000 PUSH1 0x44 DUP3 ADD MSTORE PUSH1 0x64 ADD PUSH2 0x7DC JUMP JUMPDEST PUSH1 0x1 PUSH1 0x1 PUSH1 0xA0 SHL SUB DUP5 AND PUSH0 SWAP1 DUP2 MSTORE PUSH1 0x8 PUSH1 0x20 MSTORE PUSH1 0x40 SWAP1 KECCAK256 SLOAD DUP3 GT ISZERO PUSH2 0xB2C JUMPI PUSH1 0x40 MLOAD PUSH3 0x461BCD PUSH1 0xE5 SHL DUP2 MSTORE PUSH1 0x20 PUSH1 0x4 DUP3 ADD MSTORE PUSH1 0x12 PUSH1 0x24 DUP3 ADD MSTORE PUSH18 0x4E6F7420656E6F7567682062616C616E6365 PUSH1 0x70 SHL PUSH1 0x44 DUP3 ADD MSTORE PUSH1 0x64 ADD PUSH2 0x7DC JUMP JUMPDEST PUSH1 0x1 PUSH1 0x1 PUSH1 0xA0 SHL SUB DUP5 AND PUSH0 SWAP1 DUP2 MSTORE PUSH1 0x8 PUSH1 0x20 MSTORE PUSH1 0x40 DUP2 KECCAK256 DUP1 SLOAD DUP5 SWAP3 SWAP1 PUSH2 0xB53 SWAP1 DUP5 SWAP1 PUSH2 0x1EE4 JUMP JUMPDEST SWAP1 SWAP2 SSTORE POP POP PUSH2 0xB62 DUP4 DUP4 PUSH2 0x1203 JUMP JUMPDEST PUSH1 0x1 PUSH1 0x1 PUSH1 0xA0 SHL SUB DUP4 AND PUSH0 SWAP1 DUP2 MSTORE PUSH1 0x7 PUSH1 0x20 MSTORE PUSH1 0x40 DUP2 KECCAK256 DUP1 SLOAD DUP5 SWAP3 SWAP1 PUSH2 0xB89 SWAP1 DUP5 SWAP1 PUSH2 0x1F79 JUMP JUMPDEST SWAP1 SWAP2 SSTORE POP POP PUSH1 0x4 DUP1 SLOAD SWAP1 PUSH0 PUSH2 0xB9D DUP4 PUSH2 0x1EF7 JUMP JUMPDEST SWAP2 SWAP1 POP SSTORE POP PUSH32 0x195D340BD25BC3523C352BD8DC52C6887D0F5A23A8891381D5998C06D07575F6 PUSH1 0x4 SLOAD DUP6 DUP6 DUP6 DUP6 PUSH1 0x40 MLOAD PUSH2 0xBDB SWAP6 SWAP5 SWAP4 SWAP3 SWAP2 SWAP1 PUSH2 0x1F8C JUMP JUMPDEST PUSH1 0x40 MLOAD DUP1 SWAP2 SUB SWAP1 LOG1 POP POP POP POP JUMP JUMPDEST CALLER PUSH0 SWAP1 DUP2 MSTORE PUSH1 0x9 PUSH1 0x20 MSTORE PUSH1 0x40 SWAP1 KECCAK256 SLOAD PUSH1 0xFF AND PUSH2 0xC38 JUMPI PUSH1 0x40 MLOAD PUSH3 0x461BCD PUSH1 0xE5 SHL DUP2 MSTORE PUSH1 0x20 PUSH1 0x4 DUP3 ADD MSTORE PUSH1 0xE PUSH1 0x24 DUP3 ADD MSTORE PUSH14 0x2737BA103090383937BB34B232B9 PUSH1 0x91 SHL PUSH1 0x44 DUP3 ADD MSTORE PUSH1 0x64 ADD PUSH2 0x7DC JUMP JUMPDEST PUSH0 JUMPDEST DUP2 MLOAD DUP2 LT ISZERO PUSH2 0x6FA JUMPI PUSH2 0xCC2 DUP3 DUP3 DUP2 MLOAD DUP2 LT PUSH2 0xC58 JUMPI PUSH2 0xC58 PUSH2 0x1FCF JUMP JUMPDEST PUSH1 0x20 MUL PUSH1 0x20 ADD ADD MLOAD PUSH0 ADD MLOAD DUP4 DUP4 DUP2 MLOAD DUP2 LT PUSH2 0xC75 JUMPI PUSH2 0xC75 PUSH2 0x1FCF JUMP JUMPDEST PUSH1 0x20 MUL PUSH1 0x20 ADD ADD MLOAD PUSH1 0x20 ADD MLOAD DUP5 DUP5 DUP2 MLOAD DUP2 LT PUSH2 0xC93 JUMPI PUSH2 0xC93 PUSH2 0x1FCF JUMP JUMPDEST PUSH1 0x20 MUL PUSH1 0x20 ADD ADD MLOAD PUSH1 0x40 ADD MLOAD DUP6 DUP6 DUP2 MLOAD DUP2 LT PUSH2 0xCB1 JUMPI PUSH2 0xCB1 PUSH2 0x1FCF JUMP JUMPDEST PUSH1 0x20 MUL PUSH1 0x20 ADD ADD MLOAD PUSH1 0x60 ADD MLOAD PUSH2 0xA2B JUMP JUMPDEST PUSH1 0x1 ADD PUSH2 0xC3A JUMP JUMPDEST PUSH0 SLOAD PUSH1 0x1 PUSH1 0x1 PUSH1 0xA0 SHL SUB AND DUP1 PUSH4 0x23B872DD CALLER PUSH1 0x40 MLOAD PUSH1 0x1 PUSH1 0x1 PUSH1 0xE0 SHL SUB NOT PUSH1 0xE0 DUP5 SWAP1 SHL AND DUP2 MSTORE PUSH1 0x1 PUSH1 0x1 PUSH1 0xA0 SHL SUB SWAP1 SWAP2 AND PUSH1 0x4 DUP3 ADD MSTORE ADDRESS PUSH1 0x24 DUP3 ADD MSTORE PUSH1 0x44 DUP2 ADD DUP6 SWAP1 MSTORE PUSH1 0x64 ADD PUSH1 0x20 PUSH1 0x40 MLOAD DUP1 DUP4 SUB DUP2 PUSH0 DUP8 GAS CALL ISZERO DUP1 ISZERO PUSH2 0xD2C JUMPI RETURNDATASIZE PUSH0 DUP1 RETURNDATACOPY RETURNDATASIZE PUSH0 REVERT JUMPDEST POP POP POP POP PUSH1 0x40 MLOAD RETURNDATASIZE PUSH1 0x1F NOT PUSH1 0x1F DUP3 ADD AND DUP3 ADD DUP1 PUSH1 0x40 MSTORE POP DUP2 ADD SWAP1 PUSH2 0xD50 SWAP2 SWAP1 PUSH2 0x1EB5 JUMP JUMPDEST POP CALLER PUSH0 SWAP1 DUP2 MSTORE PUSH1 0x8 PUSH1 0x20 MSTORE PUSH1 0x40 DUP2 KECCAK256 DUP1 SLOAD DUP5 SWAP3 SWAP1 PUSH2 0xD6F SWAP1 DUP5 SWAP1 PUSH2 0x1F79 JUMP JUMPDEST SWAP1 SWAP2 SSTORE POP POP PUSH1 0x40 DUP1 MLOAD CALLER DUP2 MSTORE PUSH1 0x20 DUP2 ADD DUP5 SWAP1 MSTORE PUSH32 0xB9A1BFFB5AD7FCAEB79FE2262EE61BC2B44689DF94BB558F7E70EAC20CBD0A05 SWAP2 ADD PUSH2 0x5DD JUMP JUMPDEST PUSH2 0xDB2 PUSH2 0xF4F JUMP JUMPDEST PUSH1 0x1 PUSH1 0x1 PUSH1 0xA0 SHL SUB DUP2 AND PUSH2 0xDDB JUMPI PUSH1 0x40 MLOAD PUSH4 0x1E4FBDF7 PUSH1 0xE0 SHL DUP2 MSTORE PUSH0 PUSH1 0x4 DUP3 ADD MSTORE PUSH1 0x24 ADD PUSH2 0x7DC JUMP JUMPDEST PUSH2 0xDE4 DUP2 PUSH2 0x1193 JUMP JUMPDEST POP JUMP JUMPDEST PUSH32 0xF0C57E16840DF040F15088DC2F81FE391C3923BEC73E23A9662EFC9C229C6A00 DUP1 SLOAD PUSH1 0x1 PUSH1 0x40 SHL DUP2 DIV PUSH1 0xFF AND ISZERO SWAP1 PUSH8 0xFFFFFFFFFFFFFFFF AND PUSH0 DUP2 ISZERO DUP1 ISZERO PUSH2 0xE2C JUMPI POP DUP3 JUMPDEST SWAP1 POP PUSH0 DUP3 PUSH8 0xFFFFFFFFFFFFFFFF AND PUSH1 0x1 EQ DUP1 ISZERO PUSH2 0xE48 JUMPI POP ADDRESS EXTCODESIZE ISZERO JUMPDEST SWAP1 POP DUP2 ISZERO DUP1 ISZERO PUSH2 0xE56 JUMPI POP DUP1 ISZERO JUMPDEST ISZERO PUSH2 0xE74 JUMPI PUSH1 0x40 MLOAD PUSH4 0xF92EE8A9 PUSH1 0xE0 SHL DUP2 MSTORE PUSH1 0x4 ADD PUSH1 0x40 MLOAD DUP1 SWAP2 SUB SWAP1 REVERT JUMPDEST DUP5 SLOAD PUSH8 0xFFFFFFFFFFFFFFFF NOT AND PUSH1 0x1 OR DUP6 SSTORE DUP4 ISZERO PUSH2 0xE9E JUMPI DUP5 SLOAD PUSH1 0xFF PUSH1 0x40 SHL NOT AND PUSH1 0x1 PUSH1 0x40 SHL OR DUP6 SSTORE JUMPDEST PUSH2 0xEA7 DUP10 PUSH2 0x155F JUMP JUMPDEST PUSH2 0xEAF PUSH2 0x1570 JUMP JUMPDEST PUSH2 0xEB7 PUSH2 0x1578 JUMP JUMPDEST PUSH0 DUP1 SLOAD PUSH1 0x1 PUSH1 0x1 PUSH1 0xA0 SHL SUB DUP1 DUP12 AND PUSH1 0x1 PUSH1 0x1 PUSH1 0xA0 SHL SUB NOT SWAP3 DUP4 AND OR DUP4 SSTORE PUSH1 0x2 DUP1 SLOAD DUP12 DUP4 AND SWAP1 DUP5 AND OR SWAP1 SSTORE PUSH1 0x1 DUP1 SLOAD SWAP2 DUP11 AND SWAP2 SWAP1 SWAP3 AND OR SWAP1 SSTORE PUSH3 0xF423F PUSH1 0x5 SSTORE PUSH1 0x3 DUP2 SWAP1 SSTORE PUSH1 0x4 SSTORE DUP4 ISZERO PUSH2 0xF44 JUMPI DUP5 SLOAD PUSH1 0xFF PUSH1 0x40 SHL NOT AND DUP6 SSTORE PUSH1 0x40 MLOAD PUSH1 0x1 DUP2 MSTORE PUSH32 0xC7F505B2F371AE2175EE4913F4499E1F2633A7B5936321EED1CDAEB6115181D2 SWAP1 PUSH1 0x20 ADD PUSH1 0x40 MLOAD DUP1 SWAP2 SUB SWAP1 LOG1 JUMPDEST POP POP POP POP POP POP POP POP POP JUMP JUMPDEST CALLER PUSH2 0xF81 PUSH32 0x9016D09D72D40FDAE2FD8CEAC6B6234C7706214FD39C1CD1E609A0528C199300 SLOAD PUSH1 0x1 PUSH1 0x1 PUSH1 0xA0 SHL SUB AND SWAP1 JUMP JUMPDEST PUSH1 0x1 PUSH1 0x1 PUSH1 0xA0 SHL SUB AND EQ PUSH2 0x906 JUMPI PUSH1 0x40 MLOAD PUSH4 0x118CDAA7 PUSH1 0xE0 SHL DUP2 MSTORE CALLER PUSH1 0x4 DUP3 ADD MSTORE PUSH1 0x24 ADD PUSH2 0x7DC JUMP JUMPDEST PUSH0 DUP1 DUP1 DUP1 PUSH2 0xFB8 DUP7 DUP7 PUSH2 0x1588 JUMP JUMPDEST SWAP1 SWAP5 POP SWAP3 POP POP POP JUMPDEST SWAP3 POP SWAP3 SWAP1 POP JUMP JUMPDEST ADDRESS PUSH1 0x1 PUSH1 0x1 PUSH1 0xA0 SHL SUB PUSH32 0x0 AND EQ DUP1 PUSH2 0x104D JUMPI POP PUSH32 0x0 PUSH1 0x1 PUSH1 0x1 PUSH1 0xA0 SHL SUB AND PUSH2 0x1041 PUSH0 DUP1 MLOAD PUSH1 0x20 PUSH2 0x202A DUP4 CODECOPY DUP2 MLOAD SWAP2 MSTORE SLOAD PUSH1 0x1 PUSH1 0x1 PUSH1 0xA0 SHL SUB AND SWAP1 JUMP JUMPDEST PUSH1 0x1 PUSH1 0x1 PUSH1 0xA0 SHL SUB AND EQ ISZERO JUMPDEST ISZERO PUSH2 0x906 JUMPI PUSH1 0x40 MLOAD PUSH4 0x703E46DD PUSH1 0xE1 SHL DUP2 MSTORE PUSH1 0x4 ADD PUSH1 0x40 MLOAD DUP1 SWAP2 SUB SWAP1 REVERT JUMPDEST PUSH2 0xDE4 PUSH2 0xF4F JUMP JUMPDEST DUP2 PUSH1 0x1 PUSH1 0x1 PUSH1 0xA0 SHL SUB AND PUSH4 0x52D1902D PUSH1 0x40 MLOAD DUP2 PUSH4 0xFFFFFFFF AND PUSH1 0xE0 SHL DUP2 MSTORE PUSH1 0x4 ADD PUSH1 0x20 PUSH1 0x40 MLOAD DUP1 DUP4 SUB DUP2 DUP7 GAS STATICCALL SWAP3 POP POP POP DUP1 ISZERO PUSH2 0x10CD JUMPI POP PUSH1 0x40 DUP1 MLOAD PUSH1 0x1F RETURNDATASIZE SWAP1 DUP2 ADD PUSH1 0x1F NOT AND DUP3 ADD SWAP1 SWAP3 MSTORE PUSH2 0x10CA SWAP2 DUP2 ADD SWAP1 PUSH2 0x1FE3 JUMP JUMPDEST PUSH1 0x1 JUMPDEST PUSH2 0x10F5 JUMPI PUSH1 0x40 MLOAD PUSH4 0x4C9C8CE3 PUSH1 0xE0 SHL DUP2 MSTORE PUSH1 0x1 PUSH1 0x1 PUSH1 0xA0 SHL SUB DUP4 AND PUSH1 0x4 DUP3 ADD MSTORE PUSH1 0x24 ADD PUSH2 0x7DC JUMP JUMPDEST PUSH0 DUP1 MLOAD PUSH1 0x20 PUSH2 0x202A DUP4 CODECOPY DUP2 MLOAD SWAP2 MSTORE DUP2 EQ PUSH2 0x1125 JUMPI PUSH1 0x40 MLOAD PUSH4 0x2A875269 PUSH1 0xE2 SHL DUP2 MSTORE PUSH1 0x4 DUP2 ADD DUP3 SWAP1 MSTORE PUSH1 0x24 ADD PUSH2 0x7DC JUMP JUMPDEST PUSH2 0x112F DUP4 DUP4 PUSH2 0x15C0 JUMP JUMPDEST POP POP POP JUMP JUMPDEST PUSH0 PUSH2 0x1140 DUP5 DUP5 DUP5 PUSH2 0x1615 JUMP JUMPDEST SWAP1 POP JUMPDEST SWAP4 SWAP3 POP POP POP JUMP JUMPDEST ADDRESS PUSH1 0x1 PUSH1 0x1 PUSH1 0xA0 SHL SUB PUSH32 0x0 AND EQ PUSH2 0x906 JUMPI PUSH1 0x40 MLOAD PUSH4 0x703E46DD PUSH1 0xE1 SHL DUP2 MSTORE PUSH1 0x4 ADD PUSH1 0x40 MLOAD DUP1 SWAP2 SUB SWAP1 REVERT JUMPDEST PUSH32 0x9016D09D72D40FDAE2FD8CEAC6B6234C7706214FD39C1CD1E609A0528C199300 DUP1 SLOAD PUSH1 0x1 PUSH1 0x1 PUSH1 0xA0 SHL SUB NOT DUP2 AND PUSH1 0x1 PUSH1 0x1 PUSH1 0xA0 SHL SUB DUP5 DUP2 AND SWAP2 DUP3 OR DUP5 SSTORE PUSH1 0x40 MLOAD SWAP3 AND SWAP2 DUP3 SWAP1 PUSH32 0x8BE0079C531659141344CD1FD0A4F28419497F9722A3DAAFE3B4186F6B6457E0 SWAP1 PUSH0 SWAP1 LOG3 POP POP POP JUMP JUMPDEST DUP2 PUSH0 JUMPDEST DUP2 PUSH1 0x1 PUSH1 0x1 PUSH1 0xA0 SHL SUB AND PUSH4 0x18160DDD PUSH1 0x40 MLOAD DUP2 PUSH4 0xFFFFFFFF AND PUSH1 0xE0 SHL DUP2 MSTORE PUSH1 0x4 ADD PUSH1 0x20 PUSH1 0x40 MLOAD DUP1 DUP4 SUB DUP2 DUP7 GAS STATICCALL ISZERO DUP1 ISZERO PUSH2 0x1242 JUMPI RETURNDATASIZE PUSH0 DUP1 RETURNDATACOPY RETURNDATASIZE PUSH0 REVERT JUMPDEST POP POP POP POP PUSH1 0x40 MLOAD RETURNDATASIZE PUSH1 0x1F NOT PUSH1 0x1F DUP3 ADD AND DUP3 ADD DUP1 PUSH1 0x40 MSTORE POP DUP2 ADD SWAP1 PUSH2 0x1266 SWAP2 SWAP1 PUSH2 0x1FE3 JUMP JUMPDEST DUP2 LT ISZERO PUSH2 0x1559 JUMPI PUSH1 0x40 MLOAD PUSH4 0x4F6CCCE7 PUSH1 0xE0 SHL DUP2 MSTORE PUSH1 0x4 DUP2 ADD DUP3 SWAP1 MSTORE PUSH0 SWAP1 PUSH1 0x1 PUSH1 0x1 PUSH1 0xA0 SHL SUB DUP5 AND SWAP1 PUSH4 0x9CC7F708 SWAP1 DUP3 SWAP1 PUSH4 0x4F6CCCE7 SWAP1 PUSH1 0x24 ADD PUSH1 0x20 PUSH1 0x40 MLOAD DUP1 DUP4 SUB DUP2 DUP7 GAS STATICCALL ISZERO DUP1 ISZERO PUSH2 0x12BA JUMPI RETURNDATASIZE PUSH0 DUP1 RETURNDATACOPY RETURNDATASIZE PUSH0 REVERT JUMPDEST POP POP POP POP PUSH1 0x40 MLOAD RETURNDATASIZE PUSH1 0x1F NOT PUSH1 0x1F DUP3 ADD AND DUP3 ADD DUP1 PUSH1 0x40 MSTORE POP DUP2 ADD SWAP1 PUSH2 0x12DE SWAP2 SWAP1 PUSH2 0x1FE3 JUMP JUMPDEST PUSH1 0x40 MLOAD DUP3 PUSH4 0xFFFFFFFF AND PUSH1 0xE0 SHL DUP2 MSTORE PUSH1 0x4 ADD PUSH2 0x12FC SWAP2 DUP2 MSTORE PUSH1 0x20 ADD SWAP1 JUMP JUMPDEST PUSH1 0x20 PUSH1 0x40 MLOAD DUP1 DUP4 SUB DUP2 DUP7 GAS STATICCALL ISZERO DUP1 ISZERO PUSH2 0x1317 JUMPI RETURNDATASIZE PUSH0 DUP1 RETURNDATACOPY RETURNDATASIZE PUSH0 REVERT JUMPDEST POP POP POP POP PUSH1 0x40 MLOAD RETURNDATASIZE PUSH1 0x1F NOT PUSH1 0x1F DUP3 ADD AND DUP3 ADD DUP1 PUSH1 0x40 MSTORE POP DUP2 ADD SWAP1 PUSH2 0x133B SWAP2 SWAP1 PUSH2 0x1FE3 JUMP JUMPDEST SWAP1 POP PUSH0 DUP4 PUSH1 0x1 PUSH1 0x1 PUSH1 0xA0 SHL SUB AND PUSH4 0x5A3C7DA7 PUSH1 0x5 SLOAD PUSH1 0x40 MLOAD DUP3 PUSH4 0xFFFFFFFF AND PUSH1 0xE0 SHL DUP2 MSTORE PUSH1 0x4 ADD PUSH2 0x136E SWAP2 DUP2 MSTORE PUSH1 0x20 ADD SWAP1 JUMP JUMPDEST PUSH1 0x20 PUSH1 0x40 MLOAD DUP1 DUP4 SUB DUP2 DUP7 GAS STATICCALL ISZERO DUP1 ISZERO PUSH2 0x1389 JUMPI RETURNDATASIZE PUSH0 DUP1 RETURNDATACOPY RETURNDATASIZE PUSH0 REVERT JUMPDEST POP POP POP POP PUSH1 0x40 MLOAD RETURNDATASIZE PUSH1 0x1F NOT PUSH1 0x1F DUP3 ADD AND DUP3 ADD DUP1 PUSH1 0x40 MSTORE POP DUP2 ADD SWAP1 PUSH2 0x13AD SWAP2 SWAP1 PUSH2 0x1FE3 JUMP JUMPDEST SWAP1 POP PUSH0 PUSH2 0x13BB DUP7 DUP5 DUP5 PUSH2 0x1631 JUMP JUMPDEST PUSH1 0x1 PUSH1 0x1 PUSH1 0xA0 SHL SUB DUP9 DUP2 AND PUSH0 SWAP1 DUP2 MSTORE PUSH1 0xA PUSH1 0x20 MSTORE PUSH1 0x40 DUP1 DUP3 KECCAK256 SWAP1 MLOAD PUSH4 0x4F6CCCE7 PUSH1 0xE0 SHL DUP2 MSTORE PUSH1 0x4 DUP2 ADD DUP10 SWAP1 MSTORE SWAP4 SWAP5 POP SWAP3 SWAP1 SWAP2 DUP3 SWAP2 PUSH2 0x1445 SWAP2 DUP11 AND SWAP1 PUSH4 0x4F6CCCE7 SWAP1 PUSH1 0x24 ADD PUSH1 0x20 PUSH1 0x40 MLOAD DUP1 DUP4 SUB DUP2 DUP7 GAS STATICCALL ISZERO DUP1 ISZERO PUSH2 0x141A JUMPI RETURNDATASIZE PUSH0 DUP1 RETURNDATACOPY RETURNDATASIZE PUSH0 REVERT JUMPDEST POP POP POP POP PUSH1 0x40 MLOAD RETURNDATASIZE PUSH1 0x1F NOT PUSH1 0x1F DUP3 ADD AND DUP3 ADD DUP1 PUSH1 0x40 MSTORE POP DUP2 ADD SWAP1 PUSH2 0x143E SWAP2 SWAP1 PUSH2 0x1FE3 JUMP JUMPDEST DUP5 SWAP1 PUSH2 0xFAA JUMP JUMPDEST SWAP2 POP SWAP2 POP DUP2 ISZERO PUSH2 0x14D2 JUMPI PUSH1 0x40 MLOAD PUSH4 0x4F6CCCE7 PUSH1 0xE0 SHL DUP2 MSTORE PUSH1 0x4 DUP2 ADD DUP9 SWAP1 MSTORE PUSH2 0x14CC SWAP1 PUSH1 0x1 PUSH1 0x1 PUSH1 0xA0 SHL SUB DUP11 AND SWAP1 PUSH4 0x4F6CCCE7 SWAP1 PUSH1 0x24 ADD PUSH1 0x20 PUSH1 0x40 MLOAD DUP1 DUP4 SUB DUP2 DUP7 GAS STATICCALL ISZERO DUP1 ISZERO PUSH2 0x1496 JUMPI RETURNDATASIZE PUSH0 DUP1 RETURNDATACOPY RETURNDATASIZE PUSH0 REVERT JUMPDEST POP POP POP POP PUSH1 0x40 MLOAD RETURNDATASIZE PUSH1 0x1F NOT PUSH1 0x1F DUP3 ADD AND DUP3 ADD DUP1 PUSH1 0x40 MSTORE POP DUP2 ADD SWAP1 PUSH2 0x14BA SWAP2 SWAP1 PUSH2 0x1FE3 JUMP JUMPDEST PUSH2 0x14C4 DUP7 DUP5 PUSH2 0x1F79 JUMP JUMPDEST DUP6 SWAP2 SWAP1 PUSH2 0x1134 JUMP JUMPDEST POP PUSH2 0x1547 JUMP JUMPDEST PUSH1 0x40 MLOAD PUSH4 0x4F6CCCE7 PUSH1 0xE0 SHL DUP2 MSTORE PUSH1 0x4 DUP2 ADD DUP9 SWAP1 MSTORE PUSH2 0x1545 SWAP1 PUSH1 0x1 PUSH1 0x1 PUSH1 0xA0 SHL SUB DUP11 AND SWAP1 PUSH4 0x4F6CCCE7 SWAP1 PUSH1 0x24 ADD PUSH1 0x20 PUSH1 0x40 MLOAD DUP1 DUP4 SUB DUP2 DUP7 GAS STATICCALL ISZERO DUP1 ISZERO PUSH2 0x1519 JUMPI RETURNDATASIZE PUSH0 DUP1 RETURNDATACOPY RETURNDATASIZE PUSH0 REVERT JUMPDEST POP POP POP POP PUSH1 0x40 MLOAD RETURNDATASIZE PUSH1 0x1F NOT PUSH1 0x1F DUP3 ADD AND DUP3 ADD DUP1 PUSH1 0x40 MSTORE POP DUP2 ADD SWAP1 PUSH2 0x153D SWAP2 SWAP1 PUSH2 0x1FE3 JUMP JUMPDEST DUP5 SWAP1 DUP7 PUSH2 0x1134 JUMP JUMPDEST POP JUMPDEST POP POP PUSH1 0x1 SWAP1 SWAP5 ADD SWAP4 POP PUSH2 0x1206 SWAP3 POP POP POP JUMP JUMPDEST POP POP POP POP JUMP JUMPDEST PUSH2 0x1567 PUSH2 0x1667 JUMP JUMPDEST PUSH2 0xDE4 DUP2 PUSH2 0x16B0 JUMP JUMPDEST PUSH2 0x906 PUSH2 0x1667 JUMP JUMPDEST PUSH2 0x1580 PUSH2 0x1667 JUMP JUMPDEST PUSH2 0x906 PUSH2 0x16B8 JUMP JUMPDEST PUSH0 DUP2 DUP2 MSTORE PUSH1 0x2 DUP4 ADD PUSH1 0x20 MSTORE PUSH1 0x40 DUP2 KECCAK256 SLOAD DUP2 SWAP1 DUP1 PUSH2 0x15B5 JUMPI PUSH2 0x15A9 DUP6 DUP6 PUSH2 0x16E6 JUMP JUMPDEST SWAP3 POP PUSH0 SWAP2 POP PUSH2 0xFC0 SWAP1 POP JUMP JUMPDEST PUSH1 0x1 SWAP3 POP SWAP1 POP PUSH2 0xFC0 JUMP JUMPDEST PUSH2 0x15C9 DUP3 PUSH2 0x16F1 JUMP JUMPDEST PUSH1 0x40 MLOAD PUSH1 0x1 PUSH1 0x1 PUSH1 0xA0 SHL SUB DUP4 AND SWAP1 PUSH32 0xBC7CD75A20EE27FD9ADEBAB32041F755214DBC6BFFA90CC0225B39DA2E5C2D3B SWAP1 PUSH0 SWAP1 LOG2 DUP1 MLOAD ISZERO PUSH2 0x160D JUMPI PUSH2 0x112F DUP3 DUP3 PUSH2 0x1754 JUMP JUMPDEST PUSH2 0x6FA PUSH2 0x17BD JUMP JUMPDEST PUSH0 DUP3 DUP2 MSTORE PUSH1 0x2 DUP5 ADD PUSH1 0x20 MSTORE PUSH1 0x40 DUP2 KECCAK256 DUP3 SWAP1 SSTORE PUSH2 0x1140 DUP5 DUP5 PUSH2 0x17DC JUMP JUMPDEST PUSH0 DUP2 ISZERO DUP1 PUSH2 0x163D JUMPI POP DUP4 ISZERO JUMPDEST DUP1 PUSH2 0x1646 JUMPI POP DUP3 ISZERO JUMPDEST ISZERO PUSH2 0x1652 JUMPI POP PUSH0 PUSH2 0x1143 JUMP JUMPDEST PUSH0 PUSH2 0x165E DUP6 DUP6 DUP6 PUSH2 0x17E7 JUMP JUMPDEST SWAP6 SWAP5 POP POP POP POP POP JUMP JUMPDEST PUSH32 0xF0C57E16840DF040F15088DC2F81FE391C3923BEC73E23A9662EFC9C229C6A00 SLOAD PUSH1 0x1 PUSH1 0x40 SHL SWAP1 DIV PUSH1 0xFF AND PUSH2 0x906 JUMPI PUSH1 0x40 MLOAD PUSH4 0x1AFCD79F PUSH1 0xE3 SHL DUP2 MSTORE PUSH1 0x4 ADD PUSH1 0x40 MLOAD DUP1 SWAP2 SUB SWAP1 REVERT JUMPDEST PUSH2 0xDB2 PUSH2 0x1667 JUMP JUMPDEST PUSH2 0x16C0 PUSH2 0x1667 JUMP JUMPDEST PUSH1 0x1 PUSH32 0x9B779B17422D0DF92223018B32B4D1FA46E071723D6817E2486D003BECC55F00 SSTORE JUMP JUMPDEST PUSH0 PUSH2 0x1143 DUP4 DUP4 PUSH2 0x18A6 JUMP JUMPDEST DUP1 PUSH1 0x1 PUSH1 0x1 PUSH1 0xA0 SHL SUB AND EXTCODESIZE PUSH0 SUB PUSH2 0x1726 JUMPI PUSH1 0x40 MLOAD PUSH4 0x4C9C8CE3 PUSH1 0xE0 SHL DUP2 MSTORE PUSH1 0x1 PUSH1 0x1 PUSH1 0xA0 SHL SUB DUP3 AND PUSH1 0x4 DUP3 ADD MSTORE PUSH1 0x24 ADD PUSH2 0x7DC JUMP JUMPDEST PUSH0 DUP1 MLOAD PUSH1 0x20 PUSH2 0x202A DUP4 CODECOPY DUP2 MLOAD SWAP2 MSTORE DUP1 SLOAD PUSH1 0x1 PUSH1 0x1 PUSH1 0xA0 SHL SUB NOT AND PUSH1 0x1 PUSH1 0x1 PUSH1 0xA0 SHL SUB SWAP3 SWAP1 SWAP3 AND SWAP2 SWAP1 SWAP2 OR SWAP1 SSTORE JUMP JUMPDEST PUSH1 0x60 PUSH0 DUP1 DUP5 PUSH1 0x1 PUSH1 0x1 PUSH1 0xA0 SHL SUB AND DUP5 PUSH1 0x40 MLOAD PUSH2 0x1770 SWAP2 SWAP1 PUSH2 0x1FFA JUMP JUMPDEST PUSH0 PUSH1 0x40 MLOAD DUP1 DUP4 SUB DUP2 DUP6 GAS DELEGATECALL SWAP2 POP POP RETURNDATASIZE DUP1 PUSH0 DUP2 EQ PUSH2 0x17A8 JUMPI PUSH1 0x40 MLOAD SWAP2 POP PUSH1 0x1F NOT PUSH1 0x3F RETURNDATASIZE ADD AND DUP3 ADD PUSH1 0x40 MSTORE RETURNDATASIZE DUP3 MSTORE RETURNDATASIZE PUSH0 PUSH1 0x20 DUP5 ADD RETURNDATACOPY PUSH2 0x17AD JUMP JUMPDEST PUSH1 0x60 SWAP2 POP JUMPDEST POP SWAP2 POP SWAP2 POP PUSH2 0x165E DUP6 DUP4 DUP4 PUSH2 0x18BD JUMP JUMPDEST CALLVALUE ISZERO PUSH2 0x906 JUMPI PUSH1 0x40 MLOAD PUSH4 0xB398979F PUSH1 0xE0 SHL DUP2 MSTORE PUSH1 0x4 ADD PUSH1 0x40 MLOAD DUP1 SWAP2 SUB SWAP1 REVERT JUMPDEST PUSH0 PUSH2 0x1143 DUP4 DUP4 PUSH2 0x1919 JUMP JUMPDEST PUSH0 DUP4 DUP4 MUL DUP2 PUSH0 NOT DUP6 DUP8 MULMOD DUP3 DUP2 LT DUP4 DUP3 SUB SUB SWAP2 POP POP DUP1 PUSH0 SUB PUSH2 0x181B JUMPI DUP4 DUP3 DUP2 PUSH2 0x1811 JUMPI PUSH2 0x1811 PUSH2 0x2015 JUMP JUMPDEST DIV SWAP3 POP POP POP PUSH2 0x1143 JUMP JUMPDEST DUP1 DUP5 GT PUSH2 0x183B JUMPI PUSH1 0x40 MLOAD PUSH4 0x227BC153 PUSH1 0xE0 SHL DUP2 MSTORE PUSH1 0x4 ADD PUSH1 0x40 MLOAD DUP1 SWAP2 SUB SWAP1 REVERT JUMPDEST PUSH0 DUP5 DUP7 DUP9 MULMOD PUSH0 DUP7 DUP2 SUB DUP8 AND SWAP7 DUP8 SWAP1 DIV SWAP7 PUSH1 0x2 PUSH1 0x3 DUP10 MUL DUP2 XOR DUP1 DUP11 MUL DUP3 SUB MUL DUP1 DUP11 MUL DUP3 SUB MUL DUP1 DUP11 MUL DUP3 SUB MUL DUP1 DUP11 MUL DUP3 SUB MUL DUP1 DUP11 MUL DUP3 SUB MUL DUP1 DUP11 MUL SWAP1 SWAP2 SUB MUL SWAP2 DUP2 SWAP1 SUB DUP2 SWAP1 DIV PUSH1 0x1 ADD DUP7 DUP5 GT SWAP1 SWAP6 SUB SWAP5 SWAP1 SWAP5 MUL SWAP2 SWAP1 SWAP5 SUB SWAP3 SWAP1 SWAP3 DIV SWAP2 SWAP1 SWAP2 OR SWAP2 SWAP1 SWAP2 MUL SWAP2 POP POP SWAP4 SWAP3 POP POP POP JUMP JUMPDEST PUSH0 DUP2 DUP2 MSTORE PUSH1 0x1 DUP4 ADD PUSH1 0x20 MSTORE PUSH1 0x40 DUP2 KECCAK256 SLOAD ISZERO ISZERO PUSH2 0x1143 JUMP JUMPDEST PUSH1 0x60 DUP3 PUSH2 0x18D2 JUMPI PUSH2 0x18CD DUP3 PUSH2 0x1965 JUMP JUMPDEST PUSH2 0x1143 JUMP JUMPDEST DUP2 MLOAD ISZERO DUP1 ISZERO PUSH2 0x18E9 JUMPI POP PUSH1 0x1 PUSH1 0x1 PUSH1 0xA0 SHL SUB DUP5 AND EXTCODESIZE ISZERO JUMPDEST ISZERO PUSH2 0x1912 JUMPI PUSH1 0x40 MLOAD PUSH4 0x9996B315 PUSH1 0xE0 SHL DUP2 MSTORE PUSH1 0x1 PUSH1 0x1 PUSH1 0xA0 SHL SUB DUP6 AND PUSH1 0x4 DUP3 ADD MSTORE PUSH1 0x24 ADD PUSH2 0x7DC JUMP JUMPDEST POP DUP1 PUSH2 0x1143 JUMP JUMPDEST PUSH0 DUP2 DUP2 MSTORE PUSH1 0x1 DUP4 ADD PUSH1 0x20 MSTORE PUSH1 0x40 DUP2 KECCAK256 SLOAD PUSH2 0x195E JUMPI POP DUP2 SLOAD PUSH1 0x1 DUP2 DUP2 ADD DUP5 SSTORE PUSH0 DUP5 DUP2 MSTORE PUSH1 0x20 DUP1 DUP3 KECCAK256 SWAP1 SWAP4 ADD DUP5 SWAP1 SSTORE DUP5 SLOAD DUP5 DUP3 MSTORE DUP3 DUP7 ADD SWAP1 SWAP4 MSTORE PUSH1 0x40 SWAP1 KECCAK256 SWAP2 SWAP1 SWAP2 SSTORE PUSH2 0x684 JUMP JUMPDEST POP PUSH0 PUSH2 0x684 JUMP JUMPDEST DUP1 MLOAD ISZERO PUSH2 0x1975 JUMPI DUP1 MLOAD DUP1 DUP3 PUSH1 0x20 ADD REVERT JUMPDEST PUSH1 0x40 MLOAD PUSH4 0xA12F521 PUSH1 0xE1 SHL DUP2 MSTORE PUSH1 0x4 ADD PUSH1 0x40 MLOAD DUP1 SWAP2 SUB SWAP1 REVERT JUMPDEST PUSH1 0x1 PUSH1 0x1 PUSH1 0xA0 SHL SUB DUP2 AND DUP2 EQ PUSH2 0xDE4 JUMPI PUSH0 DUP1 REVERT JUMPDEST PUSH0 PUSH1 0x20 DUP3 DUP5 SUB SLT ISZERO PUSH2 0x19B2 JUMPI PUSH0 DUP1 REVERT JUMPDEST DUP2 CALLDATALOAD PUSH2 0x1143 DUP2 PUSH2 0x198E JUMP JUMPDEST DUP1 ISZERO ISZERO DUP2 EQ PUSH2 0xDE4 JUMPI PUSH0 DUP1 REVERT JUMPDEST PUSH0 DUP1 PUSH1 0x40 DUP4 DUP6 SUB SLT ISZERO PUSH2 0x19DB JUMPI PUSH0 DUP1 REVERT JUMPDEST DUP3 CALLDATALOAD PUSH2 0x19E6 DUP2 PUSH2 0x198E JUMP JUMPDEST SWAP2 POP PUSH1 0x20 DUP4 ADD CALLDATALOAD PUSH2 0x19F6 DUP2 PUSH2 0x19BD JUMP JUMPDEST DUP1 SWAP2 POP POP SWAP3 POP SWAP3 SWAP1 POP JUMP JUMPDEST PUSH0 DUP1 PUSH1 0x40 DUP4 DUP6 SUB SLT ISZERO PUSH2 0x1A12 JUMPI PUSH0 DUP1 REVERT JUMPDEST DUP3 CALLDATALOAD PUSH2 0x1A1D DUP2 PUSH2 0x198E JUMP JUMPDEST SWAP5 PUSH1 0x20 SWAP4 SWAP1 SWAP4 ADD CALLDATALOAD SWAP4 POP POP POP JUMP JUMPDEST PUSH4 0x4E487B71 PUSH1 0xE0 SHL PUSH0 MSTORE PUSH1 0x41 PUSH1 0x4 MSTORE PUSH1 0x24 PUSH0 REVERT JUMPDEST PUSH1 0x40 MLOAD PUSH1 0x80 DUP2 ADD PUSH8 0xFFFFFFFFFFFFFFFF DUP2 GT DUP3 DUP3 LT OR ISZERO PUSH2 0x1A62 JUMPI PUSH2 0x1A62 PUSH2 0x1A2B JUMP JUMPDEST PUSH1 0x40 MSTORE SWAP1 JUMP JUMPDEST PUSH1 0x40 MLOAD PUSH1 0x1F DUP3 ADD PUSH1 0x1F NOT AND DUP2 ADD PUSH8 0xFFFFFFFFFFFFFFFF DUP2 GT DUP3 DUP3 LT OR ISZERO PUSH2 0x1A91 JUMPI PUSH2 0x1A91 PUSH2 0x1A2B JUMP JUMPDEST PUSH1 0x40 MSTORE SWAP2 SWAP1 POP JUMP JUMPDEST PUSH0 PUSH8 0xFFFFFFFFFFFFFFFF DUP4 GT ISZERO PUSH2 0x1AB2 JUMPI PUSH2 0x1AB2 PUSH2 0x1A2B JUMP JUMPDEST PUSH2 0x1AC5 PUSH1 0x1F DUP5 ADD PUSH1 0x1F NOT AND PUSH1 0x20 ADD PUSH2 0x1A68 JUMP JUMPDEST SWAP1 POP DUP3 DUP2 MSTORE DUP4 DUP4 DUP4 ADD GT ISZERO PUSH2 0x1AD8 JUMPI PUSH0 DUP1 REVERT JUMPDEST DUP3 DUP3 PUSH1 0x20 DUP4 ADD CALLDATACOPY PUSH0 PUSH1 0x20 DUP5 DUP4 ADD ADD MSTORE SWAP4 SWAP3 POP POP POP JUMP JUMPDEST PUSH0 DUP1 PUSH1 0x40 DUP4 DUP6 SUB SLT ISZERO PUSH2 0x1AFF JUMPI PUSH0 DUP1 REVERT JUMPDEST DUP3 CALLDATALOAD PUSH2 0x1B0A DUP2 PUSH2 0x198E JUMP JUMPDEST SWAP2 POP PUSH1 0x20 DUP4 ADD CALLDATALOAD PUSH8 0xFFFFFFFFFFFFFFFF DUP2 GT ISZERO PUSH2 0x1B25 JUMPI PUSH0 DUP1 REVERT JUMPDEST DUP4 ADD PUSH1 0x1F DUP2 ADD DUP6 SGT PUSH2 0x1B35 JUMPI PUSH0 DUP1 REVERT JUMPDEST PUSH2 0x1B44 DUP6 DUP3 CALLDATALOAD PUSH1 0x20 DUP5 ADD PUSH2 0x1A99 JUMP JUMPDEST SWAP2 POP POP SWAP3 POP SWAP3 SWAP1 POP JUMP JUMPDEST PUSH0 DUP1 PUSH0 PUSH1 0x60 DUP5 DUP7 SUB SLT ISZERO PUSH2 0x1B60 JUMPI PUSH0 DUP1 REVERT JUMPDEST DUP4 CALLDATALOAD PUSH2 0x1B6B DUP2 PUSH2 0x198E JUMP JUMPDEST SWAP6 PUSH1 0x20 DUP6 ADD CALLDATALOAD SWAP6 POP PUSH1 0x40 SWAP1 SWAP5 ADD CALLDATALOAD SWAP4 SWAP3 POP POP POP JUMP JUMPDEST PUSH0 DUP3 PUSH1 0x1F DUP4 ADD SLT PUSH2 0x1B8F JUMPI PUSH0 DUP1 REVERT JUMPDEST PUSH2 0x1143 DUP4 DUP4 CALLDATALOAD PUSH1 0x20 DUP6 ADD PUSH2 0x1A99 JUMP JUMPDEST PUSH0 DUP1 PUSH0 DUP1 PUSH0 DUP1 PUSH1 0xC0 DUP8 DUP10 SUB SLT ISZERO PUSH2 0x1BB3 JUMPI PUSH0 DUP1 REVERT JUMPDEST DUP7 CALLDATALOAD PUSH8 0xFFFFFFFFFFFFFFFF DUP1 DUP3 GT ISZERO PUSH2 0x1BCA JUMPI PUSH0 DUP1 REVERT JUMPDEST PUSH2 0x1BD6 DUP11 DUP4 DUP12 ADD PUSH2 0x1B80 JUMP JUMPDEST SWAP8 POP PUSH1 0x20 DUP10 ADD CALLDATALOAD SWAP2 POP DUP1 DUP3 GT ISZERO PUSH2 0x1BEB JUMPI PUSH0 DUP1 REVERT JUMPDEST PUSH2 0x1BF7 DUP11 DUP4 DUP12 ADD PUSH2 0x1B80 JUMP JUMPDEST SWAP7 POP PUSH1 0x40 DUP10 ADD CALLDATALOAD SWAP6 POP PUSH1 0x60 DUP10 ADD CALLDATALOAD SWAP5 POP PUSH1 0x80 DUP10 ADD CALLDATALOAD SWAP2 POP PUSH2 0x1C17 DUP3 PUSH2 0x198E JUMP JUMPDEST SWAP1 SWAP3 POP PUSH1 0xA0 DUP9 ADD CALLDATALOAD SWAP1 DUP1 DUP3 GT ISZERO PUSH2 0x1C2C JUMPI PUSH0 DUP1 REVERT JUMPDEST POP PUSH2 0x1C39 DUP10 DUP3 DUP11 ADD PUSH2 0x1B80 JUMP JUMPDEST SWAP2 POP POP SWAP3 SWAP6 POP SWAP3 SWAP6 POP SWAP3 SWAP6 JUMP JUMPDEST PUSH0 DUP1 PUSH0 DUP1 PUSH1 0x80 DUP6 DUP8 SUB SLT ISZERO PUSH2 0x1C59 JUMPI PUSH0 DUP1 REVERT JUMPDEST DUP5 CALLDATALOAD PUSH2 0x1C64 DUP2 PUSH2 0x198E JUMP JUMPDEST SWAP4 POP PUSH1 0x20 DUP6 ADD CALLDATALOAD PUSH2 0x1C74 DUP2 PUSH2 0x198E JUMP JUMPDEST SWAP3 POP PUSH1 0x40 DUP6 ADD CALLDATALOAD SWAP2 POP PUSH1 0x60 DUP6 ADD CALLDATALOAD PUSH8 0xFFFFFFFFFFFFFFFF DUP2 GT ISZERO PUSH2 0x1C96 JUMPI PUSH0 DUP1 REVERT JUMPDEST PUSH2 0x1CA2 DUP8 DUP3 DUP9 ADD PUSH2 0x1B80 JUMP JUMPDEST SWAP2 POP POP SWAP3 SWAP6 SWAP2 SWAP5 POP SWAP3 POP JUMP JUMPDEST PUSH0 JUMPDEST DUP4 DUP2 LT ISZERO PUSH2 0x1CC8 JUMPI DUP2 DUP2 ADD MLOAD DUP4 DUP3 ADD MSTORE PUSH1 0x20 ADD PUSH2 0x1CB0 JUMP JUMPDEST POP POP PUSH0 SWAP2 ADD MSTORE JUMP JUMPDEST PUSH0 DUP2 MLOAD DUP1 DUP5 MSTORE PUSH2 0x1CE7 DUP2 PUSH1 0x20 DUP7 ADD PUSH1 0x20 DUP7 ADD PUSH2 0x1CAE JUMP JUMPDEST PUSH1 0x1F ADD PUSH1 0x1F NOT AND SWAP3 SWAP1 SWAP3 ADD PUSH1 0x20 ADD SWAP3 SWAP2 POP POP JUMP JUMPDEST PUSH1 0x20 DUP2 MSTORE PUSH0 PUSH2 0x1143 PUSH1 0x20 DUP4 ADD DUP5 PUSH2 0x1CD0 JUMP JUMPDEST PUSH0 PUSH1 0x20 DUP3 DUP5 SUB SLT ISZERO PUSH2 0x1D1D JUMPI PUSH0 DUP1 REVERT JUMPDEST POP CALLDATALOAD SWAP2 SWAP1 POP JUMP JUMPDEST PUSH0 PUSH1 0x20 DUP1 DUP4 DUP6 SUB SLT ISZERO PUSH2 0x1D35 JUMPI PUSH0 DUP1 REVERT JUMPDEST DUP3 CALLDATALOAD PUSH8 0xFFFFFFFFFFFFFFFF DUP1 DUP3 GT ISZERO PUSH2 0x1D4C JUMPI PUSH0 DUP1 REVERT JUMPDEST DUP2 DUP6 ADD SWAP2 POP DUP6 PUSH1 0x1F DUP4 ADD SLT PUSH2 0x1D5F JUMPI PUSH0 DUP1 REVERT JUMPDEST DUP2 CALLDATALOAD DUP2 DUP2 GT ISZERO PUSH2 0x1D71 JUMPI PUSH2 0x1D71 PUSH2 0x1A2B JUMP JUMPDEST DUP1 PUSH1 0x5 SHL PUSH2 0x1D80 DUP6 DUP3 ADD PUSH2 0x1A68 JUMP JUMPDEST SWAP2 DUP3 MSTORE DUP4 DUP2 ADD DUP6 ADD SWAP2 DUP6 DUP2 ADD SWAP1 DUP10 DUP5 GT ISZERO PUSH2 0x1D99 JUMPI PUSH0 DUP1 REVERT JUMPDEST DUP7 DUP7 ADD SWAP3 POP JUMPDEST DUP4 DUP4 LT ISZERO PUSH2 0x1E34 JUMPI DUP3 CALLDATALOAD DUP6 DUP2 GT ISZERO PUSH2 0x1DB5 JUMPI PUSH0 DUP1 REVERT JUMPDEST DUP7 ADD PUSH1 0x80 DUP2 DUP13 SUB PUSH1 0x1F NOT ADD DUP2 SGT ISZERO PUSH2 0x1DCB JUMPI PUSH0 DUP1 REVERT JUMPDEST PUSH2 0x1DD3 PUSH2 0x1A3F JUMP JUMPDEST DUP10 DUP4 ADD CALLDATALOAD PUSH2 0x1DE0 DUP2 PUSH2 0x198E JUMP JUMPDEST DUP2 MSTORE PUSH1 0x40 DUP4 DUP2 ADD CALLDATALOAD PUSH2 0x1DF1 DUP2 PUSH2 0x198E JUMP JUMPDEST DUP3 DUP13 ADD MSTORE PUSH1 0x60 DUP5 DUP2 ADD CALLDATALOAD DUP3 DUP5 ADD MSTORE SWAP3 DUP5 ADD CALLDATALOAD SWAP3 DUP10 DUP5 GT ISZERO PUSH2 0x1E10 JUMPI PUSH0 DUP1 REVERT JUMPDEST PUSH2 0x1E1E DUP16 DUP14 DUP7 DUP9 ADD ADD PUSH2 0x1B80 JUMP JUMPDEST SWAP1 DUP4 ADD MSTORE POP DUP5 MSTORE POP POP SWAP2 DUP7 ADD SWAP2 SWAP1 DUP7 ADD SWAP1 PUSH2 0x1D9F JUMP JUMPDEST SWAP10 SWAP9 POP POP POP POP POP POP POP POP POP JUMP JUMPDEST PUSH0 DUP1 PUSH0 DUP1 PUSH1 0x80 DUP6 DUP8 SUB SLT ISZERO PUSH2 0x1E54 JUMPI PUSH0 DUP1 REVERT JUMPDEST DUP5 CALLDATALOAD PUSH2 0x1E5F DUP2 PUSH2 0x198E JUMP JUMPDEST SWAP4 POP PUSH1 0x20 DUP6 ADD CALLDATALOAD PUSH2 0x1E6F DUP2 PUSH2 0x198E JUMP JUMPDEST SWAP3 POP PUSH1 0x40 DUP6 ADD CALLDATALOAD PUSH2 0x1E7F DUP2 PUSH2 0x198E JUMP JUMPDEST SWAP2 POP PUSH1 0x60 DUP6 ADD CALLDATALOAD PUSH2 0x1E8F DUP2 PUSH2 0x198E JUMP JUMPDEST SWAP4 SWAP7 SWAP3 SWAP6 POP SWAP1 SWAP4 POP POP JUMP JUMPDEST PUSH0 PUSH1 0x20 DUP3 DUP5 SUB SLT ISZERO PUSH2 0x1EAA JUMPI PUSH0 DUP1 REVERT JUMPDEST DUP2 MLOAD PUSH2 0x1143 DUP2 PUSH2 0x198E JUMP JUMPDEST PUSH0 PUSH1 0x20 DUP3 DUP5 SUB SLT ISZERO PUSH2 0x1EC5 JUMPI PUSH0 DUP1 REVERT JUMPDEST DUP2 MLOAD PUSH2 0x1143 DUP2 PUSH2 0x19BD JUMP JUMPDEST PUSH4 0x4E487B71 PUSH1 0xE0 SHL PUSH0 MSTORE PUSH1 0x11 PUSH1 0x4 MSTORE PUSH1 0x24 PUSH0 REVERT JUMPDEST DUP2 DUP2 SUB DUP2 DUP2 GT ISZERO PUSH2 0x684 JUMPI PUSH2 0x684 PUSH2 0x1ED0 JUMP JUMPDEST PUSH0 PUSH1 0x1 DUP3 ADD PUSH2 0x1F08 JUMPI PUSH2 0x1F08 PUSH2 0x1ED0 JUMP JUMPDEST POP PUSH1 0x1 ADD SWAP1 JUMP JUMPDEST PUSH1 0xE0 DUP2 MSTORE PUSH0 PUSH2 0x1F21 PUSH1 0xE0 DUP4 ADD DUP11 PUSH2 0x1CD0 JUMP JUMPDEST DUP3 DUP2 SUB PUSH1 0x20 DUP5 ADD MSTORE PUSH2 0x1F33 DUP2 DUP11 PUSH2 0x1CD0 JUMP JUMPDEST PUSH1 0x40 DUP5 ADD DUP10 SWAP1 MSTORE PUSH1 0x60 DUP5 ADD DUP9 SWAP1 MSTORE PUSH1 0x80 DUP5 ADD DUP8 SWAP1 MSTORE PUSH1 0x1 PUSH1 0x1 PUSH1 0xA0 SHL SUB DUP7 AND PUSH1 0xA0 DUP6 ADD MSTORE DUP4 DUP2 SUB PUSH1 0xC0 DUP6 ADD MSTORE SWAP1 POP PUSH2 0x1F6B DUP2 DUP6 PUSH2 0x1CD0 JUMP JUMPDEST SWAP11 SWAP10 POP POP POP POP POP POP POP POP POP POP JUMP JUMPDEST DUP1 DUP3 ADD DUP1 DUP3 GT ISZERO PUSH2 0x684 JUMPI PUSH2 0x684 PUSH2 0x1ED0 JUMP JUMPDEST DUP6 DUP2 MSTORE PUSH1 0x1 PUSH1 0x1 PUSH1 0xA0 SHL SUB DUP6 DUP2 AND PUSH1 0x20 DUP4 ADD MSTORE DUP5 AND PUSH1 0x40 DUP3 ADD MSTORE PUSH1 0x60 DUP2 ADD DUP4 SWAP1 MSTORE PUSH1 0xA0 PUSH1 0x80 DUP3 ADD DUP2 SWAP1 MSTORE PUSH0 SWAP1 PUSH2 0x1FC4 SWAP1 DUP4 ADD DUP5 PUSH2 0x1CD0 JUMP JUMPDEST SWAP8 SWAP7 POP POP POP POP POP POP POP JUMP JUMPDEST PUSH4 0x4E487B71 PUSH1 0xE0 SHL PUSH0 MSTORE PUSH1 0x32 PUSH1 0x4 MSTORE PUSH1 0x24 PUSH0 REVERT JUMPDEST PUSH0 PUSH1 0x20 DUP3 DUP5 SUB SLT ISZERO PUSH2 0x1FF3 JUMPI PUSH0 DUP1 REVERT JUMPDEST POP MLOAD SWAP2 SWAP1 POP JUMP JUMPDEST PUSH0 DUP3 MLOAD PUSH2 0x200B DUP2 DUP5 PUSH1 0x20 DUP8 ADD PUSH2 0x1CAE JUMP JUMPDEST SWAP2 SWAP1 SWAP2 ADD SWAP3 SWAP2 POP POP JUMP JUMPDEST PUSH4 0x4E487B71 PUSH1 0xE0 SHL PUSH0 MSTORE PUSH1 0x12 PUSH1 0x4 MSTORE PUSH1 0x24 PUSH0 REVERT INVALID CALLDATASIZE ADDMOD SWAP5 LOG1 EXTCODESIZE LOG1 LOG3 0x21 MOD PUSH8 0xC828492DB98DCA3E KECCAK256 PUSH23 0xCC3735A920A3CA505D382BBCA26469706673582212206D 0xDC 0x4C PUSH32 0xF5802BEA3B203C4F95C4C8BBFFE14CC354B68E6E14737AD6CE3B167964736F6C PUSH4 0x43000818 STOP CALLER "
		},
		"gasEstimates": {
			"creation": {
				"codeDepositCost": "1663800",
				"executionCost": "infinite",
				"totalCost": "infinite"
			},
			"external": {
				"UPGRADE_INTERFACE_VERSION()": "infinite",
				"_shareSlot()": "2326",
				"assetId()": "2395",
				"claimIncome(address,uint256,uint256)": "infinite",
				"consumer_balance(address)": "2544",
				"createInvoice(address,address,uint256,string)": "infinite",
				"createInvoiceBatch((address,address,uint256,string)[])": "infinite",
				"createSFT(string,string,uint256,uint256,address,string)": "infinite",
				"fundAddress()": "2425",
				"initialize(address,address,address,address)": "infinite",
				"invoiceId()": "2372",
				"owner()": "2398",
				"payTokenAddress()": "2380",
				"proxiableUUID()": "infinite",
				"recharge(uint256)": "infinite",
				"renounceOwnership()": "infinite",
				"service_provider(address)": "2589",
				"setFundAddress(address)": "27871",
				"setPriceToken(address)": "27914",
				"setSFTFactoryAddress(address)": "27905",
				"setServiceProvider(address,bool)": "infinite",
				"sftFactoryAddress()": "2403",
				"sft_assets(uint256)": "2585",
				"sft_total_income(address)": "2546",
				"shareSlot()": "2328",
				"tokenIncome(address,uint256)": "infinite",
				"transferOwnership(address)": "infinite",
				"upgradeToAndCall(address,bytes)": "infinite"
			},
			"internal": {
				"_allocateTokenIncome(address,uint256)": "infinite",
				"_authorizeUpgrade(address)": "infinite",
				"_calculate(uint256,uint256,uint256)": "infinite"
			}
		},
		"methodIdentifiers": {
			"UPGRADE_INTERFACE_VERSION()": "ad3cb1cc",
			"_shareSlot()": "13d18a24",
			"assetId()": "44de240a",
			"claimIncome(address,uint256,uint256)": "51d4a4e2",
			"consumer_balance(address)": "a335a003",
			"createInvoice(address,address,uint256,string)": "a3799339",
			"createInvoiceBatch((address,address,uint256,string)[])": "e917ccaf",
			"createSFT(string,string,uint256,uint256,address,string)": "92881f08",
			"fundAddress()": "e82bef29",
			"initialize(address,address,address,address)": "f8c8765e",
			"invoiceId()": "70c86286",
			"owner()": "8da5cb5b",
			"payTokenAddress()": "c77b5146",
			"proxiableUUID()": "52d1902d",
			"recharge(uint256)": "ef299b0b",
			"renounceOwnership()": "715018a6",
			"service_provider(address)": "cae5ec04",
			"setFundAddress(address)": "85dc3004",
			"setPriceToken(address)": "411092e3",
			"setSFTFactoryAddress(address)": "018dec72",
			"setServiceProvider(address,bool)": "017e4d1e",
			"sftFactoryAddress()": "6efee90b",
			"sft_assets(uint256)": "b0e0a569",
			"sft_total_income(address)": "00a41baa",
			"shareSlot()": "631429ce",
			"tokenIncome(address,uint256)": "2e08e4c6",
			"transferOwnership(address)": "f2fde38b",
			"upgradeToAndCall(address,bytes)": "4f1ef286"
		}
	},
	"abi": [
		{
			"inputs": [],
			"stateMutability": "nonpayable",
			"type": "constructor"
		},
		{
			"inputs": [
				{
					"internalType": "address",
					"name": "target",
					"type": "address"
				}
			],
			"name": "AddressEmptyCode",
			"type": "error"
		},
		{
			"inputs": [
				{
					"internalType": "address",
					"name": "implementation",
					"type": "address"
				}
			],
			"name": "ERC1967InvalidImplementation",
			"type": "error"
		},
		{
			"inputs": [],
			"name": "ERC1967NonPayable",
			"type": "error"
		},
		{
			"inputs": [],
			"name": "FailedInnerCall",
			"type": "error"
		},
		{
			"inputs": [],
			"name": "InvalidInitialization",
			"type": "error"
		},
		{
			"inputs": [],
			"name": "MathOverflowedMulDiv",
			"type": "error"
		},
		{
			"inputs": [],
			"name": "NotInitializing",
			"type": "error"
		},
		{
			"inputs": [
				{
					"internalType": "address",
					"name": "owner",
					"type": "address"
				}
			],
			"name": "OwnableInvalidOwner",
			"type": "error"
		},
		{
			"inputs": [
				{
					"internalType": "address",
					"name": "account",
					"type": "address"
				}
			],
			"name": "OwnableUnauthorizedAccount",
			"type": "error"
		},
		{
			"inputs": [],
			"name": "ReentrancyGuardReentrantCall",
			"type": "error"
		},
		{
			"inputs": [],
			"name": "UUPSUnauthorizedCallContext",
			"type": "error"
		},
		{
			"inputs": [
				{
					"internalType": "bytes32",
					"name": "slot",
					"type": "bytes32"
				}
			],
			"name": "UUPSUnsupportedProxiableUUID",
			"type": "error"
		},
		{
			"anonymous": false,
			"inputs": [
				{
					"indexed": false,
					"internalType": "address",
					"name": "wallet_address",
					"type": "address"
				},
				{
					"indexed": false,
					"internalType": "uint256",
					"name": "amount",
					"type": "uint256"
				}
			],
			"name": "ConsumerBalanceRecharged",
			"type": "event"
		},
		{
			"anonymous": false,
			"inputs": [
				{
					"indexed": false,
					"internalType": "address",
					"name": "_address",
					"type": "address"
				}
			],
			"name": "FundAddressChanged",
			"type": "event"
		},
		{
			"anonymous": false,
			"inputs": [
				{
					"indexed": false,
					"internalType": "address",
					"name": "sft_address",
					"type": "address"
				},
				{
					"indexed": false,
					"internalType": "uint256",
					"name": "token_id",
					"type": "uint256"
				},
				{
					"indexed": false,
					"internalType": "uint256",
					"name": "amount",
					"type": "uint256"
				}
			],
			"name": "IncomeClaimed",
			"type": "event"
		},
		{
			"anonymous": false,
			"inputs": [
				{
					"indexed": false,
					"internalType": "uint64",
					"name": "version",
					"type": "uint64"
				}
			],
			"name": "Initialized",
			"type": "event"
		},
		{
			"anonymous": false,
			"inputs": [
				{
					"indexed": false,
					"internalType": "uint256",
					"name": "invoice_id",
					"type": "uint256"
				},
				{
					"indexed": false,
					"internalType": "address",
					"name": "consumer",
					"type": "address"
				},
				{
					"indexed": false,
					"internalType": "address",
					"name": "sft_address",
					"type": "address"
				},
				{
					"indexed": false,
					"internalType": "uint256",
					"name": "amount",
					"type": "uint256"
				},
				{
					"indexed": false,
					"internalType": "string",
					"name": "reference_id",
					"type": "string"
				}
			],
			"name": "InvoiceCreated",
			"type": "event"
		},
		{
			"anonymous": false,
			"inputs": [
				{
					"indexed": true,
					"internalType": "address",
					"name": "previousOwner",
					"type": "address"
				},
				{
					"indexed": true,
					"internalType": "address",
					"name": "newOwner",
					"type": "address"
				}
			],
			"name": "OwnershipTransferred",
			"type": "event"
		},
		{
			"anonymous": false,
			"inputs": [
				{
					"indexed": false,
					"internalType": "address",
					"name": "token_address",
					"type": "address"
				}
			],
			"name": "PayTokenChanged",
			"type": "event"
		},
		{
			"anonymous": false,
			"inputs": [
				{
					"indexed": false,
					"internalType": "address",
					"name": "token_address",
					"type": "address"
				}
			],
			"name": "SFTFactoryAddressChanged",
			"type": "event"
		},
		{
			"anonymous": false,
			"inputs": [
				{
					"indexed": false,
					"internalType": "address",
					"name": "provider_address",
					"type": "address"
				},
				{
					"indexed": false,
					"internalType": "bool",
					"name": "enabled",
					"type": "bool"
				}
			],
			"name": "ServiceProviderChanged",
			"type": "event"
		},
		{
			"anonymous": false,
			"inputs": [
				{
					"indexed": true,
					"internalType": "address",
					"name": "implementation",
					"type": "address"
				}
			],
			"name": "Upgraded",
			"type": "event"
		},
		{
			"inputs": [],
			"name": "UPGRADE_INTERFACE_VERSION",
			"outputs": [
				{
					"internalType": "string",
					"name": "",
					"type": "string"
				}
			],
			"stateMutability": "view",
			"type": "function"
		},
		{
			"inputs": [],
			"name": "_shareSlot",
			"outputs": [
				{
					"internalType": "uint256",
					"name": "",
					"type": "uint256"
				}
			],
			"stateMutability": "view",
			"type": "function"
		},
		{
			"inputs": [],
			"name": "assetId",
			"outputs": [
				{
					"internalType": "uint256",
					"name": "",
					"type": "uint256"
				}
			],
			"stateMutability": "view",
			"type": "function"
		},
		{
			"inputs": [
				{
					"internalType": "address",
					"name": "sft_address",
					"type": "address"
				},
				{
					"internalType": "uint256",
					"name": "token_id",
					"type": "uint256"
				},
				{
					"internalType": "uint256",
					"name": "amount",
					"type": "uint256"
				}
			],
			"name": "claimIncome",
			"outputs": [],
			"stateMutability": "nonpayable",
			"type": "function"
		},
		{
			"inputs": [
				{
					"internalType": "address",
					"name": "",
					"type": "address"
				}
			],
			"name": "consumer_balance",
			"outputs": [
				{
					"internalType": "uint256",
					"name": "",
					"type": "uint256"
				}
			],
			"stateMutability": "view",
			"type": "function"
		},
		{
			"inputs": [
				{
					"internalType": "address",
					"name": "consumer",
					"type": "address"
				},
				{
					"internalType": "address",
					"name": "sft_address",
					"type": "address"
				},
				{
					"internalType": "uint256",
					"name": "amount",
					"type": "uint256"
				},
				{
					"internalType": "string",
					"name": "reference_id",
					"type": "string"
				}
			],
			"name": "createInvoice",
			"outputs": [],
			"stateMutability": "nonpayable",
			"type": "function"
		},
		{
			"inputs": [
				{
					"components": [
						{
							"internalType": "address",
							"name": "consumer",
							"type": "address"
						},
						{
							"internalType": "address",
							"name": "sft_address",
							"type": "address"
						},
						{
							"internalType": "uint256",
							"name": "amount",
							"type": "uint256"
						},
						{
							"internalType": "string",
							"name": "reference_id",
							"type": "string"
						}
					],
					"internalType": "struct KnowledgeFi.invoice[]",
					"name": "_invoice",
					"type": "tuple[]"
				}
			],
			"name": "createInvoiceBatch",
			"outputs": [],
			"stateMutability": "nonpayable",
			"type": "function"
		},
		{
			"inputs": [
				{
					"internalType": "string",
					"name": "_name",
					"type": "string"
				},
				{
					"internalType": "string",
					"name": "_symbol",
					"type": "string"
				},
				{
					"internalType": "uint256",
					"name": "slot_value",
					"type": "uint256"
				},
				{
					"internalType": "uint256",
					"name": "token_amount",
					"type": "uint256"
				},
				{
					"internalType": "address",
					"name": "token_owner",
					"type": "address"
				},
				{
					"internalType": "string",
					"name": "reference_id",
					"type": "string"
				}
			],
			"name": "createSFT",
			"outputs": [],
			"stateMutability": "nonpayable",
			"type": "function"
		},
		{
			"inputs": [],
			"name": "fundAddress",
			"outputs": [
				{
					"internalType": "address",
					"name": "",
					"type": "address"
				}
			],
			"stateMutability": "view",
			"type": "function"
		},
		{
			"inputs": [
				{
					"internalType": "address",
					"name": "initial_owner",
					"type": "address"
				},
				{
					"internalType": "address",
					"name": "pay_token",
					"type": "address"
				},
				{
					"internalType": "address",
					"name": "fund_address",
					"type": "address"
				},
				{
					"internalType": "address",
					"name": "sft_factory_address",
					"type": "address"
				}
			],
			"name": "initialize",
			"outputs": [],
			"stateMutability": "nonpayable",
			"type": "function"
		},
		{
			"inputs": [],
			"name": "invoiceId",
			"outputs": [
				{
					"internalType": "uint256",
					"name": "",
					"type": "uint256"
				}
			],
			"stateMutability": "view",
			"type": "function"
		},
		{
			"inputs": [],
			"name": "owner",
			"outputs": [
				{
					"internalType": "address",
					"name": "",
					"type": "address"
				}
			],
			"stateMutability": "view",
			"type": "function"
		},
		{
			"inputs": [],
			"name": "payTokenAddress",
			"outputs": [
				{
					"internalType": "address",
					"name": "",
					"type": "address"
				}
			],
			"stateMutability": "view",
			"type": "function"
		},
		{
			"inputs": [],
			"name": "proxiableUUID",
			"outputs": [
				{
					"internalType": "bytes32",
					"name": "",
					"type": "bytes32"
				}
			],
			"stateMutability": "view",
			"type": "function"
		},
		{
			"inputs": [
				{
					"internalType": "uint256",
					"name": "amount",
					"type": "uint256"
				}
			],
			"name": "recharge",
			"outputs": [],
			"stateMutability": "nonpayable",
			"type": "function"
		},
		{
			"inputs": [],
			"name": "renounceOwnership",
			"outputs": [],
			"stateMutability": "nonpayable",
			"type": "function"
		},
		{
			"inputs": [
				{
					"internalType": "address",
					"name": "",
					"type": "address"
				}
			],
			"name": "service_provider",
			"outputs": [
				{
					"internalType": "bool",
					"name": "",
					"type": "bool"
				}
			],
			"stateMutability": "view",
			"type": "function"
		},
		{
			"inputs": [
				{
					"internalType": "address",
					"name": "_address",
					"type": "address"
				}
			],
			"name": "setFundAddress",
			"outputs": [],
			"stateMutability": "nonpayable",
			"type": "function"
		},
		{
			"inputs": [
				{
					"internalType": "address",
					"name": "newtoken",
					"type": "address"
				}
			],
			"name": "setPriceToken",
			"outputs": [],
			"stateMutability": "nonpayable",
			"type": "function"
		},
		{
			"inputs": [
				{
					"internalType": "address",
					"name": "_address",
					"type": "address"
				}
			],
			"name": "setSFTFactoryAddress",
			"outputs": [],
			"stateMutability": "nonpayable",
			"type": "function"
		},
		{
			"inputs": [
				{
					"internalType": "address",
					"name": "_address",
					"type": "address"
				},
				{
					"internalType": "bool",
					"name": "enabled",
					"type": "bool"
				}
			],
			"name": "setServiceProvider",
			"outputs": [],
			"stateMutability": "nonpayable",
			"type": "function"
		},
		{
			"inputs": [],
			"name": "sftFactoryAddress",
			"outputs": [
				{
					"internalType": "address",
					"name": "",
					"type": "address"
				}
			],
			"stateMutability": "view",
			"type": "function"
		},
		{
			"inputs": [
				{
					"internalType": "uint256",
					"name": "",
					"type": "uint256"
				}
			],
			"name": "sft_assets",
			"outputs": [
				{
					"internalType": "address",
					"name": "",
					"type": "address"
				}
			],
			"stateMutability": "view",
			"type": "function"
		},
		{
			"inputs": [
				{
					"internalType": "address",
					"name": "",
					"type": "address"
				}
			],
			"name": "sft_total_income",
			"outputs": [
				{
					"internalType": "uint256",
					"name": "",
					"type": "uint256"
				}
			],
			"stateMutability": "view",
			"type": "function"
		},
		{
			"inputs": [],
			"name": "shareSlot",
			"outputs": [
				{
					"internalType": "uint256",
					"name": "",
					"type": "uint256"
				}
			],
			"stateMutability": "view",
			"type": "function"
		},
		{
			"inputs": [
				{
					"internalType": "address",
					"name": "sft_address",
					"type": "address"
				},
				{
					"internalType": "uint256",
					"name": "token_id",
					"type": "uint256"
				}
			],
			"name": "tokenIncome",
			"outputs": [
				{
					"internalType": "uint256",
					"name": "",
					"type": "uint256"
				}
			],
			"stateMutability": "view",
			"type": "function"
		},
		{
			"inputs": [
				{
					"internalType": "address",
					"name": "newOwner",
					"type": "address"
				}
			],
			"name": "transferOwnership",
			"outputs": [],
			"stateMutability": "nonpayable",
			"type": "function"
		},
		{
			"inputs": [
				{
					"internalType": "address",
					"name": "newImplementation",
					"type": "address"
				},
				{
					"internalType": "bytes",
					"name": "data",
					"type": "bytes"
				}
			],
			"name": "upgradeToAndCall",
			"outputs": [],
			"stateMutability": "payable",
			"type": "function"
		}
	]
}