{
	"data": {
		"bytecode": {
			"linkReferences": {},
			"object": "608060405234801562000010575f80fd5b50604051620060e7380380620060e783398101604081905262000033916200014a565b836001600160a01b0381166200006257604051631e4fbdf760e01b81525f600482015260240160405180910390fd5b6200006d81620000cb565b5060018055600280546001600160a01b038086166001600160a01b0319928316179092556003805492851692909116919091179055620f423f6007555f60058190556006556004620000c08282620002db565b5050505050620003a3565b5f80546001600160a01b038381166001600160a01b0319831681178455604051919092169283917f8be0079c531659141344cd1fd0a4f28419497f9722a3daafe3b4186f6b6457e09190a35050565b80516001600160a01b038116811462000131575f80fd5b919050565b634e487b7160e01b5f52604160045260245ffd5b5f805f80608085870312156200015e575f80fd5b62000169856200011a565b935060206200017a8187016200011a565b93506200018a604087016200011a565b60608701519093506001600160401b0380821115620001a7575f80fd5b818801915088601f830112620001bb575f80fd5b815181811115620001d057620001d062000136565b604051601f8201601f19908116603f01168101908382118183101715620001fb57620001fb62000136565b816040528281528b8684870101111562000213575f80fd5b5f93505b8284101562000236578484018601518185018701529285019262000217565b5f86848301015280965050505050505092959194509250565b600181811c908216806200026457607f821691505b6020821081036200028357634e487b7160e01b5f52602260045260245ffd5b50919050565b601f821115620002d6575f81815260208120601f850160051c81016020861015620002b15750805b601f850160051c820191505b81811015620002d257828155600101620002bd565b5050505b505050565b81516001600160401b03811115620002f757620002f762000136565b6200030f816200030884546200024f565b8462000289565b602080601f83116001811462000345575f84156200032d5750858301515b5f19600386901b1c1916600185901b178555620002d2565b5f85815260208120601f198616915b82811015620003755788860151825594840194600190910190840162000354565b50858210156200039357878501515f19600388901b60f8161c191681555b5050505050600190811b01905550565b615d3680620003b15f395ff3fe608060405234801562000010575f80fd5b50600436106200016f575f3560e01c80638da5cb5b11620000cf578063cae5ec041162000083578063cae5ec041462000311578063e2a084da1462000347578063e82bef29146200035e578063e917ccaf1462000372578063ef299b0b1462000389578063f2fde38b14620003a0575f80fd5b80638da5cb5b146200026757806392881f081462000282578063a335a0031462000299578063a379933914620002bb578063b0e0a56914620002d2578063c77b514614620002fd575f80fd5b806351d4a4e2116200012757806351d4a4e21462000202578063631429ce146200021957806365a1e6c5146200022357806370c86286146200023c578063715018a6146200024657806385dc30041462000250575f80fd5b8062a41baa1462000173578063017e4d1e14620001a857806313d18a2414620001c15780632e08e4c614620001ca578063411092e314620001e157806344de240a14620001f8575b5f80fd5b6200019562000184366004620015bf565b600a6020525f908152604090205481565b6040519081526020015b60405180910390f35b620001bf620001b9366004620015eb565b620003b7565b005b60075462000195565b62000195620001db36600462001627565b62000424565b620001bf620001f2366004620015bf565b6200046c565b6200019560055481565b620001bf6200021336600462001654565b620004ce565b6200019560075481565b6200022d620006a9565b6040516200019f9190620016da565b6200019560065481565b620001bf6200073d565b620001bf62000261366004620015bf565b62000754565b5f546001600160a01b03165b6040516200019f9190620016ee565b620001bf62000293366004620017e6565b620007ab565b62000195620002aa366004620015bf565b600b6020525f908152604090205481565b620001bf620002cc36600462001899565b6200096c565b62000273620002e336600462001908565b60096020525f90815260409020546001600160a01b031681565b60025462000273906001600160a01b031681565b6200033662000322366004620015bf565b600c6020525f908152604090205460ff1681565b60405190151581526020016200019f565b620001bf6200035836600462001920565b62000b1a565b60035462000273906001600160a01b031681565b620001bf6200038336600462001972565b62000b34565b620001bf6200039a36600462001908565b62000c13565b620001bf620003b1366004620015bf565b62000cee565b620003c162000d32565b6001600160a01b0382165f818152600c6020908152604091829020805460ff19168515159081179091558251938452908301527f3178e1e682d183b22b2c0a13af9e136c3e9a37b76bd71d47bf24a80710441e8f91015b60405180910390a15050565b6001600160a01b0382165f908152600d60205260408120818062000449838662000d61565b9150915081156200045f57925062000466915050565b5f93505050505b92915050565b6200047662000d32565b600280546001600160a01b0319166001600160a01b0383161790556040517f9baff423eff88f9464905ba56ed5f715a601d993fce3f0dc0cb5689a5b6af99490620004c3908390620016ee565b60405180910390a150565b6001600160a01b0383165f908152600d602052604081209080620004f3838662000d61565b915091508115620006a15785336040516331a9108f60e11b8152600481018890526001600160a01b0391821691831690636352211e90602401602060405180830381865afa15801562000548573d5f803e3d5ffd5b505050506040513d601f19601f820116820180604052508101906200056e919062001aa9565b6001600160a01b031614620005bc5760405162461bcd60e51b815260206004820152600f60248201526e2737ba103a37b5b2b71037bbb732b960891b60448201526064015b60405180910390fd5b8482106200069f576002546003546040516323b872dd60e01b81526001600160a01b039283169283926323b872dd9262000601929091169033908b9060040162001ac7565b6020604051808303815f875af11580156200061e573d5f803e3d5ffd5b505050506040513d601f19601f8201168201806040525081019062000644919062001aeb565b506200065f8762000656888662001b1d565b87919062000d80565b507fa1aa847137eb2a4c69d4a1d1123f2a5b5033dd7f82e023f9c79b62a104f24c84888888604051620006959392919062001b33565b60405180910390a1505b505b505050505050565b60048054620006b89062001b54565b80601f0160208091040260200160405190810160405280929190818152602001828054620006e69062001b54565b8015620007355780601f106200070b5761010080835404028352916020019162000735565b820191905f5260205f20905b8154815290600101906020018083116200071757829003601f168201915b505050505081565b6200074762000d32565b620007525f62000d98565b565b6200075e62000d32565b600380546001600160a01b0319166001600160a01b0383161790556040517fb3e90b24bc843d474d30f08e2fe88fcf9d378c853313e403f9d2dcbd1349120490620004c3908390620016ee565b60058054905f620007bc8362001b8e565b9190505550308686604051620007d2906200159c565b620007e09392919062001ba9565b604051809103905ff080158015620007fa573d5f803e3d5ffd5b50600880546001600160a01b0319166001600160a01b039290921691909117905560015b838111620008a357600854600754604051630ab714fb60e11b81526001600160a01b039092169163156e29f6916200085e918791908a9060040162001b33565b5f604051808303815f87803b15801562000876575f80fd5b505af115801562000889573d5f803e3d5ffd5b5050505080806200089a9062001b8e565b9150506200081e565b50600854620008ea906001600160a01b03166004620008c28262000de7565b604051602001620008d592919062001c09565b60405160208183030381529060405262000b1a565b60088054600580545f908152600960205260409081902080546001600160a01b0319166001600160a01b039485161790559254905492517fc6ca7bc1aa8c34ca8af58c4b278dff6ac02275e474ff60971f8eb758dc407660936200095c93929092169188918891908890889062001cc1565b60405180910390a1505050505050565b335f908152600c602052604090205460ff166200099d5760405162461bcd60e51b8152600401620005b39062001d0b565b6001600160a01b038316620009f55760405162461bcd60e51b815260206004820152601a60248201527f5265666572656e6365494420646f6573206e6f742065786973740000000000006044820152606401620005b3565b6001600160a01b0384165f908152600b602052604090205482111562000a535760405162461bcd60e51b81526020600482015260126024820152714e6f7420656e6f7567682062616c616e636560701b6044820152606401620005b3565b6001600160a01b0384165f908152600b60205260408120805484929062000a7c90849062001b1d565b909155505062000a8d838362000dff565b6001600160a01b0383165f908152600a60205260408120805484929062000ab690849062001d33565b909155505060068054905f62000acc8362001b8e565b91905055507f195d340bd25bc3523c352bd8dc52c6887d0f5a23a8891381d5998c06d07575f66006548585858560405162000b0c95949392919062001d49565b60405180910390a150505050565b62000b2462000d32565b62000b30828262001189565b5050565b335f908152600c602052604090205460ff1662000b655760405162461bcd60e51b8152600401620005b39062001d0b565b5f5b815181101562000b305762000bfe82828151811062000b8a5762000b8a62001d8e565b60200260200101515f015183838151811062000baa5762000baa62001d8e565b60200260200101516020015184848151811062000bcb5762000bcb62001d8e565b60200260200101516040015185858151811062000bec5762000bec62001d8e565b6020026020010151606001516200096c565b8062000c0a8162001b8e565b91505062000b67565b6002546003546040516323b872dd60e01b81526001600160a01b039283169283926323b872dd9262000c4e9233921690879060040162001ac7565b6020604051808303815f875af115801562000c6b573d5f803e3d5ffd5b505050506040513d601f19601f8201168201806040525081019062000c91919062001aeb565b50335f908152600b60205260408120805484929062000cb290849062001d33565b909155505060408051338152602081018490527fb9a1bffb5ad7fcaeb79fe2262ee61bc2b44689df94bb558f7e70eac20cbd0a05910162000418565b62000cf862000d32565b6001600160a01b03811662000d24575f604051631e4fbdf760e01b8152600401620005b39190620016ee565b62000d2f8162000d98565b50565b5f546001600160a01b0316331462000752573360405163118cdaa760e01b8152600401620005b39190620016ee565b5f80808062000d71868662001228565b909450925050505b9250929050565b5f62000d8e84848462001265565b90505b9392505050565b5f80546001600160a01b038381166001600160a01b0319831681178455604051919092169283917f8be0079c531659141344cd1fd0a4f28419497f9722a3daafe3b4186f6b6457e09190a35050565b6060620004666001600160a01b038316601462001283565b815f5b816001600160a01b03166318160ddd6040518163ffffffff1660e01b8152600401602060405180830381865afa15801562000e3f573d5f803e3d5ffd5b505050506040513d601f19601f8201168201806040525081019062000e65919062001da2565b8110156200118357604051634f6ccce760e01b8152600481018290525f906001600160a01b03841690639cc7f708908290634f6ccce790602401602060405180830381865afa15801562000ebb573d5f803e3d5ffd5b505050506040513d601f19601f8201168201806040525081019062000ee1919062001da2565b6040518263ffffffff1660e01b815260040162000f0091815260200190565b602060405180830381865afa15801562000f1c573d5f803e3d5ffd5b505050506040513d601f19601f8201168201806040525081019062000f42919062001da2565b90505f836001600160a01b0316635a3c7da76007546040518263ffffffff1660e01b815260040162000f7691815260200190565b602060405180830381865afa15801562000f92573d5f803e3d5ffd5b505050506040513d601f19601f8201168201806040525081019062000fb8919062001da2565b90505f62000fc88684846200141a565b6001600160a01b038881165f908152600d60205260408082209051634f6ccce760e01b815260048101899052939450929091829162001057918a1690634f6ccce790602401602060405180830381865afa15801562001029573d5f803e3d5ffd5b505050506040513d601f19601f820116820180604052508101906200104f919062001da2565b849062000d61565b915091508115620010ed57604051634f6ccce760e01b815260048101889052620010e6906001600160a01b038a1690634f6ccce790602401602060405180830381865afa158015620010ab573d5f803e3d5ffd5b505050506040513d601f19601f82011682018060405250810190620010d1919062001da2565b620010dd868462001d33565b85919062000d80565b5062001167565b604051634f6ccce760e01b81526004810188905262001165906001600160a01b038a1690634f6ccce790602401602060405180830381865afa15801562001136573d5f803e3d5ffd5b505050506040513d601f19601f820116820180604052508101906200115c919062001da2565b84908662000d80565b505b50505050505080806200117a9062001b8e565b91505062000e02565b50505050565b6040516355f804b360e01b815282906001600160a01b038216906355f804b390620011b9908590600401620016da565b5f604051808303815f87803b158015620011d1575f80fd5b505af1158015620011e4573d5f803e3d5ffd5b505050507f7eb791e08c7b6c3f7a499bf994de4d69a010ceeeb80498fa066f6e276e5f917083836040516200121b92919062001dba565b60405180910390a1505050565b5f81815260028301602052604081205481908062001259576200124c858562001456565b92505f915062000d799050565b60019250905062000d79565b5f828152600284016020526040812082905562000d8e848462001463565b6060825f6200129484600262001ddf565b620012a190600262001d33565b6001600160401b03811115620012bb57620012bb62001702565b6040519080825280601f01601f191660200182016040528015620012e6576020820181803683370190505b509050600360fc1b815f8151811062001303576200130362001d8e565b60200101906001600160f81b03191690815f1a905350600f60fb1b8160018151811062001334576200133462001d8e565b60200101906001600160f81b03191690815f1a9053505f6200135885600262001ddf565b6200136590600162001d33565b90505b6001811115620013e6576f181899199a1a9b1b9c1cb0b131b232b360811b83600f16601081106200139d576200139d62001d8e565b1a60f81b828281518110620013b657620013b662001d8e565b60200101906001600160f81b03191690815f1a90535060049290921c91620013de8162001df9565b905062001368565b508115620014125760405163e22e27eb60e01b81526004810186905260248101859052604401620005b3565b949350505050565b5f81158062001427575083155b8062001431575082155b156200143f57505f62000d91565b5f6200144d85858562001470565b95945050505050565b5f62000d91838362001535565b5f62000d9183836200154d565b5f838302815f1985870982811083820303915050805f03620014a9578382816200149e576200149e62001e11565b049250505062000d91565b808411620014ca5760405163227bc15360e01b815260040160405180910390fd5b5f848688095f868103871696879004966002600389028118808a02820302808a02820302808a02820302808a02820302808a02820302808a02909103029181900381900460010186841190950394909402919094039290920491909117919091029150509392505050565b5f818152600183016020526040812054151562000d91565b5f8181526001830160205260408120546200159457508154600181810184555f84815260208082209093018490558454848252828601909352604090209190915562000466565b505f62000466565b613edb8062001e2683390190565b6001600160a01b038116811462000d2f575f80fd5b5f60208284031215620015d0575f80fd5b813562000d9181620015aa565b801515811462000d2f575f80fd5b5f8060408385031215620015fd575f80fd5b82356200160a81620015aa565b915060208301356200161c81620015dd565b809150509250929050565b5f806040838503121562001639575f80fd5b82356200164681620015aa565b946020939093013593505050565b5f805f6060848603121562001667575f80fd5b83356200167481620015aa565b95602085013595506040909401359392505050565b5f5b83811015620016a55781810151838201526020016200168b565b50505f910152565b5f8151808452620016c681602086016020860162001689565b601f01601f19169290920160200192915050565b602081525f62000d916020830184620016ad565b6001600160a01b0391909116815260200190565b634e487b7160e01b5f52604160045260245ffd5b604051608081016001600160401b03811182821017156200173b576200173b62001702565b60405290565b604051601f8201601f191681016001600160401b03811182821017156200176c576200176c62001702565b604052919050565b5f82601f83011262001784575f80fd5b81356001600160401b03811115620017a057620017a062001702565b620017b5601f8201601f191660200162001741565b818152846020838601011115620017ca575f80fd5b816020850160208301375f918101602001919091529392505050565b5f805f805f8060c08789031215620017fc575f80fd5b86356001600160401b038082111562001813575f80fd5b620018218a838b0162001774565b9750602089013591508082111562001837575f80fd5b620018458a838b0162001774565b96506040890135955060608901359450608089013591506200186782620015aa565b90925060a088013590808211156200187d575f80fd5b506200188c89828a0162001774565b9150509295509295509295565b5f805f8060808587031215620018ad575f80fd5b8435620018ba81620015aa565b93506020850135620018cc81620015aa565b92506040850135915060608501356001600160401b03811115620018ee575f80fd5b620018fc8782880162001774565b91505092959194509250565b5f6020828403121562001919575f80fd5b5035919050565b5f806040838503121562001932575f80fd5b82356200193f81620015aa565b915060208301356001600160401b038111156200195a575f80fd5b620019688582860162001774565b9150509250929050565b5f602080838503121562001984575f80fd5b82356001600160401b03808211156200199b575f80fd5b818501915085601f830112620019af575f80fd5b813581811115620019c457620019c462001702565b8060051b620019d585820162001741565b9182528381018501918581019089841115620019ef575f80fd5b86860192505b8383101562001a9c5782358581111562001a0e575f8081fd5b86016080818c03601f190181131562001a26575f8081fd5b62001a3062001716565b8983013562001a3f81620015aa565b815260408381013562001a5281620015aa565b828c01526060848101358284015292840135928984111562001a75575f91508182fd5b62001a858f8d8688010162001774565b9083015250845250509186019190860190620019f5565b9998505050505050505050565b5f6020828403121562001aba575f80fd5b815162000d9181620015aa565b6001600160a01b039384168152919092166020820152604081019190915260600190565b5f6020828403121562001afc575f80fd5b815162000d9181620015dd565b634e487b7160e01b5f52601160045260245ffd5b8181038181111562000466576200046662001b09565b6001600160a01b039390931683526020830191909152604082015260600190565b600181811c9082168062001b6957607f821691505b60208210810362001b8857634e487b7160e01b5f52602260045260245ffd5b50919050565b5f6001820162001ba25762001ba262001b09565b5060010190565b6001600160a01b03841681526060602082018190525f9062001bce90830185620016ad565b828103604084015262001be28185620016ad565b9695505050505050565b5f815162001bff81856020860162001689565b9290920192915050565b5f80845481600182811c91508083168062001c2557607f831692505b6020808410820362001c4557634e487b7160e01b86526022600452602486fd5b81801562001c5c576001811462001c725762001c9f565b60ff198616895284151585028901965062001c9f565b5f8b8152602090205f5b8681101562001c975781548b82015290850190830162001c7c565b505084890196505b50505062001cae848862001bec565b602f60f81b815201979650505050505050565b5f60018060a01b03808916835287602084015286604084015285606084015280851660808401525060c060a083015262001cff60c0830184620016ad565b98975050505050505050565b6020808252600e908201526d2737ba103090383937bb34b232b960911b604082015260600190565b8082018082111562000466576200046662001b09565b8581526001600160a01b038581166020830152841660408201526060810183905260a0608082018190525f9062001d8390830184620016ad565b979650505050505050565b634e487b7160e01b5f52603260045260245ffd5b5f6020828403121562001db3575f80fd5b5051919050565b6001600160a01b03831681526040602082018190525f9062000d8e90830184620016ad565b808202811582820484141762000466576200046662001b09565b5f8162001e0a5762001e0a62001b09565b505f190190565b634e487b7160e01b5f52601260045260245ffdfe608060405234801562000010575f80fd5b5060405162003edb38038062003edb8339810160408190526200003391620001d0565b600160035582828260128282828282825f620000508482620002e0565b5060016200005f8382620002e0565b506002805460ff191660ff929092169190911790555050506001600160a01b0386169450620000ac935050505057604051631e4fbdf760e01b81525f600482015260240160405180910390fd5b620000b781620000c1565b50505050620003a8565b600d80546001600160a01b038381166001600160a01b0319831681179093556040519116919082907f8be0079c531659141344cd1fd0a4f28419497f9722a3daafe3b4186f6b6457e0905f90a35050565b634e487b7160e01b5f52604160045260245ffd5b5f82601f83011262000136575f80fd5b81516001600160401b038082111562000153576200015362000112565b604051601f8301601f19908116603f011681019082821181831017156200017e576200017e62000112565b816040528381526020925086838588010111156200019a575f80fd5b5f91505b83821015620001bd57858201830151818301840152908201906200019e565b5f93810190920192909252949350505050565b5f805f60608486031215620001e3575f80fd5b83516001600160a01b0381168114620001fa575f80fd5b60208501519093506001600160401b038082111562000217575f80fd5b620002258783880162000126565b935060408601519150808211156200023b575f80fd5b506200024a8682870162000126565b9150509250925092565b600181811c908216806200026957607f821691505b6020821081036200028857634e487b7160e01b5f52602260045260245ffd5b50919050565b601f821115620002db575f81815260208120601f850160051c81016020861015620002b65750805b601f850160051c820191505b81811015620002d757828155600101620002c2565b5050505b505050565b81516001600160401b03811115620002fc57620002fc62000112565b62000314816200030d845462000254565b846200028e565b602080601f8311600181146200034a575f8415620003325750858301515b5f19600386901b1c1916600185901b178555620002d7565b5f85815260208120601f198616915b828110156200037a5788860151825594840194600190910190840162000359565b50858210156200039857878501515f19600388901b60f8161c191681555b5050505050600190811b01905550565b613b2580620003b65f395ff3fe60806040526004361061023d575f3560e01c80636352211e11610134578063a22cb465116100b3578063e8a3d48511610078578063e8a3d48514610626578063e985e9c51461063a578063ed08fa8014610659578063f0db67531461066d578063f0e88e7f1461068c578063f2fde38b146106ab575f80fd5b8063a22cb46514610597578063b88d4fde146105b6578063c87b56dd146105c9578063e345e0bc146105e8578063e345f05e14610607575f80fd5b80638cb0a511116100f95780638cb0a511146105155780638da5cb5b1461052857806395d89b4114610545578063993bef8d146105595780639cc7f70814610578575f80fd5b80636352211e146104905780636c0360eb146104af57806370a08231146104c3578063715018a6146104e2578063840f7113146104f6575f80fd5b8063263f3e7e116101c05780634f6ccce7116101855780634f6ccce7146104015780634f8a0f831461042057806355cd4e061461043f57806355f804b3146104525780635a3c7da714610471575f80fd5b8063263f3e7e1461037c5780632f745c591461039b578063310ed7f0146103ba5780633e7e8669146103cd57806342842e0e146103ee575f80fd5b806309c3dd871161020657806309c3dd87146103045780630f485c0214610323578063156e29f61461033657806318160ddd1461035557806323b872dd14610369575f80fd5b8062cd01101461024157806301ffc9a71461027357806306fdde03146102a2578063081812fc146102c3578063095ea7b3146102ef575b5f80fd5b34801561024c575f80fd5b5061026061025b36600461320f565b6106ca565b6040519081526020015b60405180910390f35b34801561027e575f80fd5b5061029261028d366004613244565b61079a565b604051901515815260200161026a565b3480156102ad575f80fd5b506102b66107be565b60405161026a91906132ac565b3480156102ce575f80fd5b506102e26102dd3660046132be565b61084d565b60405161026a91906132d5565b6103026102fd3660046132ff565b61089c565b005b34801561030f575f80fd5b506102b661031e3660046132be565b610994565b610260610331366004613327565b610a72565b348015610341575f80fd5b50610302610350366004613359565b610aa8565b348015610360575f80fd5b50600554610260565b610302610377366004613389565b610abb565b348015610387575f80fd5b506102606103963660046132be565b610af1565b3480156103a6575f80fd5b506102606103b53660046132ff565b610b35565b6103026103c83660046133b2565b610bc1565b3480156103d8575f80fd5b5060025460405160ff909116815260200161026a565b6103026103fc366004613389565b610bd7565b34801561040c575f80fd5b5061026061041b3660046132be565b610bf1565b34801561042b575f80fd5b5061026061043a3660046132be565b610c7e565b61030261044d3660046133e8565b610ccf565b34801561045d575f80fd5b5061030261046c3660046134d9565b610d69565b34801561047c575f80fd5b5061026061048b3660046132be565b610d81565b34801561049b575f80fd5b506102e26104aa3660046132be565b610dd6565b3480156104ba575f80fd5b506102b6610e43565b3480156104ce575f80fd5b506102606104dd36600461351d565b610ecf565b3480156104ed575f80fd5b50610302610f55565b348015610501575f80fd5b506008546102e2906001600160a01b031681565b610302610523366004613327565b610f68565b348015610533575f80fd5b50600d546001600160a01b03166102e2565b348015610550575f80fd5b506102b6611020565b348015610564575f80fd5b506102606105733660046132be565b61102f565b348015610583575f80fd5b506102606105923660046132be565b6110c8565b3480156105a2575f80fd5b506103026105b1366004613536565b61110c565b6103026105c436600461356b565b611117565b3480156105d4575f80fd5b506102b66105e33660046132be565b611149565b3480156105f3575f80fd5b506102606106023660046135e1565b6111d8565b348015610612575f80fd5b5061029261062136600461360b565b61120a565b348015610631575f80fd5b506102b661123f565b348015610645575f80fd5b50610292610654366004613644565b611324565b348015610664575f80fd5b50600a54610260565b348015610678575f80fd5b506102606106873660046132be565b611355565b348015610697575f80fd5b506103026106a636600461320f565b611490565b3480156106b6575f80fd5b506103026106c536600461351d565b6114a2565b5f6106d483610c7e565b82106107455760405162461bcd60e51b815260206004820152603560248201527f45524333353235536c6f74456e756d657261626c653a20736c6f7420746f6b656044820152746e20696e646578206f7574206f6620626f756e647360581b60648201526084015b60405180910390fd5b5f838152600b6020526040902054600a805490919081106107685761076861366c565b905f5260205f20906002020160010182815481106107885761078861366c565b905f5260205f20015490505b92915050565b5f6001600160e01b031982166316d117cb60e31b14806107945750610794826114df565b60605f80546107cc90613680565b80601f01602080910402602001604051908101604052809291908181526020018280546107f890613680565b80156108435780601f1061081a57610100808354040283529160200191610843565b820191905f5260205f20905b81548152906001019060200180831161082657829003601f168201915b5050505050905090565b5f61085782611503565b5f8281526006602052604090205460058054909190811061087a5761087a61366c565b5f9182526020909120600460069092020101546001600160a01b031692915050565b5f6108a682610dd6565b90505f6108b283610af1565b9050816001600160a01b0316846001600160a01b0316036108e55760405162461bcd60e51b815260040161073c906136b8565b336001600160a01b038316148061090157506109018233611324565b80610912575061091282823361120a565b6109845760405162461bcd60e51b815260206004820152603e60248201527f455243333532353a20617070726f76652063616c6c6572206973206e6f74206f60448201527f776e6572206e6f7220617070726f76656420666f7220616c6c2f736c6f740000606482015260840161073c565b61098e8484611528565b50505050565b60605f61099f6115bd565b6008549091506001600160a01b03166109fd575f8151116109ce5760405180602001604052805f815250610a6b565b806109d8846115cc565b6040516020016109e99291906136fa565b604051602081830303815290604052610a6b565b600854604051633601bfc560e11b8152600481018590526001600160a01b0390911690636c037f8a906024015b5f60405180830381865afa158015610a44573d5f803e3d5ffd5b505050506040513d5f823e601f3d908101601f19168201604052610a6b9190810190613739565b9392505050565b5f610a7e33858461165b565b610a87846116e9565b9050610a9d8382610a9787610af1565b5f6116f2565b610a6b848284611832565b610ab0611b75565b61098e838383611ba2565b610ac53382611bb9565b610ae15760405162461bcd60e51b815260040161073c906137a1565b610aec838383611c3e565b505050565b5f610afb82611503565b5f82815260066020526040902054600580549091908110610b1e57610b1e61366c565b905f5260205f209060060201600101549050919050565b5f610b3f83610ecf565b8210610b985760405162461bcd60e51b815260206004820152602260248201527f455243333532353a206f776e657220696e646578206f7574206f6620626f756e604482015261647360f01b606482015260840161073c565b6001600160a01b0383165f9081526007602052604090208054839081106107885761078861366c565b610bcc33848361165b565b610aec838383611832565b610aec83838360405180602001604052805f815250611117565b5f610bfb60055490565b8210610c555760405162461bcd60e51b815260206004820152602360248201527f455243333532353a20676c6f62616c20696e646578206f7574206f6620626f756044820152626e647360e81b606482015260840161073c565b60058281548110610c6857610c6861366c565b905f5260205f2090600602015f01549050919050565b5f610c8882611db3565b610c9357505f919050565b5f828152600b6020526040902054600a80549091908110610cb657610cb661366c565b5f91825260209091206001600290920201015492915050565b336001600160a01b0385161480610ceb5750610ceb8433611324565b610d5d5760405162461bcd60e51b815260206004820152603f60248201527f45524333353235536c6f74417070726f7661626c653a2063616c6c657220697360448201527f206e6f74206f776e6572206e6f7220617070726f76656420666f7220616c6c00606482015260840161073c565b61098e84848484611dfa565b610d71611b75565b600e610d7d8282613838565b5050565b5f80805b610d8e84610c7e565b811015610dcf575f610da085836106ca565b90505f610dac826110c8565b9050610db88185613907565b935050508080610dc79061391a565b915050610d85565b5092915050565b5f610de082611503565b5f82815260066020526040902054600580549091908110610e0357610e0361366c565b5f9182526020909120600360069092020101546001600160a01b0316905080610e3e5760405162461bcd60e51b815260040161073c90613932565b919050565b600e8054610e5090613680565b80601f0160208091040260200160405190810160405280929190818152602001828054610e7c90613680565b8015610ec75780601f10610e9e57610100808354040283529160200191610ec7565b820191905f5260205f20905b815481529060010190602001808311610eaa57829003601f168201915b505050505081565b5f6001600160a01b038216610f3a5760405162461bcd60e51b815260206004820152602b60248201527f455243333532353a2062616c616e636520717565727920666f7220746865207a60448201526a65726f206164647265737360a81b606482015260840161073c565b506001600160a01b03165f9081526007602052604090205490565b610f5d611b75565b610f665f611ee3565b565b5f610f7284610dd6565b9050806001600160a01b0316836001600160a01b031603610fa55760405162461bcd60e51b815260040161073c906136b8565b610faf3385611bb9565b6110155760405162461bcd60e51b815260206004820152603160248201527f455243333532353a20617070726f76652063616c6c6572206973206e6f74206f6044820152701ddb995c881b9bdc88185c1c1c9bdd9959607a1b606482015260840161073c565b61098e848484611f34565b6060600180546107cc90613680565b5f611039600a5490565b821061109f5760405162461bcd60e51b815260206004820152602f60248201527f45524333353235536c6f74456e756d657261626c653a20736c6f7420696e646560448201526e78206f7574206f6620626f756e647360881b606482015260840161073c565b600a82815481106110b2576110b261366c565b905f5260205f2090600202015f01549050919050565b5f6110d282611503565b5f828152600660205260409020546005805490919081106110f5576110f561366c565b905f5260205f209060060201600201549050919050565b610d7d338383612069565b6111213383611bb9565b61113d5760405162461bcd60e51b815260040161073c906137a1565b61098e84848484612132565b606061115482611503565b5f61115d6115bd565b6008549091506001600160a01b03166111a7575f81511161118c5760405180602001604052805f815250610a6b565b80611196846115cc565b6040516020016109e9929190613965565b6008546040516344a5a61760e11b8152600481018590526001600160a01b039091169063894b4c2e90602401610a2a565b5f6111e283611503565b505f9182526004602090815260408084206001600160a01b0393909316845291905290205490565b6001600160a01b039283165f908152600c60209081526040808320948352938152838220929094168152925290205460ff1690565b60605f61124a6115bd565b6008549091506001600160a01b03166112a8575f8151116112795760405180602001604052805f81525061131e565b80611283306121a5565b604051602001611294929190613993565b60405160208183030381529060405261131e565b60085f9054906101000a90046001600160a01b03166001600160a01b031663725fa09c6040518163ffffffff1660e01b81526004015f60405180830381865afa1580156112f7573d5f803e3d5ffd5b505050506040513d5f823e601f3d908101601f1916820160405261131e9190810190613739565b91505090565b6001600160a01b039182165f9081526007602090815260408083209390941682526002909201909152205460ff1690565b5f80611369600d546001600160a01b031690565b90505f816001600160a01b03166313d18a246040518163ffffffff1660e01b8152600401602060405180830381865afa1580156113a8573d5f803e3d5ffd5b505050506040513d601f19601f820116820180604052508101906113cc91906139d6565b9050806113d885610af1565b1461141b5760405162461bcd60e51b8152602060048201526013602482015272139bc81b585d18da081cda185c99481cdb1bdd606a1b604482015260640161073c565b604051631704726360e11b8152306004820152602481018590526001600160a01b03831690632e08e4c690604401602060405180830381865afa158015611464573d5f803e3d5ffd5b505050506040513d601f19601f8201168201806040525081019061148891906139d6565b949350505050565b611498611b75565b610d7d82826121bb565b6114aa611b75565b6001600160a01b0381166114d3575f604051631e4fbdf760e01b815260040161073c91906132d5565b6114dc81611ee3565b50565b5f6001600160e01b03198216631dba0dcf60e11b14806107945750610794826121f9565b61150c8161229a565b6114dc5760405162461bcd60e51b815260040161073c90613932565b5f8181526006602052604090205460058054849290811061154b5761154b61366c565b5f918252602090912060069091020160040180546001600160a01b0319166001600160a01b039283161790558190831661158482610dd6565b6001600160a01b03167f8c5be1e5ebec7d5bd14f71427d1e84f3dd0314c0f7b2291e5b200ac8c7c3b92560405160405180910390a45050565b6060600e80546107cc90613680565b60605f6115d8836122e1565b60010190505f816001600160401b038111156115f6576115f6613434565b6040519080825280601f01601f191660200182016040528015611620576020820181803683370190505b5090508181016020015b5f19016f181899199a1a9b1b9c1cb0b131b232b360811b600a86061a8153600a850494508461162a57509392505050565b5f61166683856111d8565b90506116728484611bb9565b15801561168057505f198114155b1561098e57818110156116d55760405162461bcd60e51b815260206004820152601f60248201527f455243333532353a20696e73756666696369656e7420616c6c6f77616e636500604482015260640161073c565b61098e83856116e485856139ed565b611f34565b5f6107946123b8565b6001600160a01b0384166117525760405162461bcd60e51b815260206004820152602160248201527f455243333532353a206d696e7420746f20746865207a65726f206164647265736044820152607360f81b606482015260840161073c565b825f036117ab5760405162461bcd60e51b815260206004820152602160248201527f455243333532353a2063616e6e6f74206d696e74207a65726f20746f6b656e496044820152601960fa1b606482015260840161073c565b6117b48361229a565b156118015760405162461bcd60e51b815260206004820152601d60248201527f455243333532353a20746f6b656e20616c7265616479206d696e746564000000604482015260640161073c565b61180f5f855f8686866123d1565b61181a84848461240e565b61182483826124d1565b61098e5f855f868686612551565b61183b8361229a565b6118975760405162461bcd60e51b815260206004820152602760248201527f455243333532353a207472616e736665722066726f6d20696e76616c696420746044820152661bdad95b88125160ca1b606482015260840161073c565b6118a08261229a565b6118fa5760405162461bcd60e51b815260206004820152602560248201527f455243333532353a207472616e7366657220746f20696e76616c696420746f6b604482015264195b88125160da1b606482015260840161073c565b5f8381526006602052604081205460058054909190811061191d5761191d61366c565b905f5260205f20906006020190505f600560065f8681526020019081526020015f2054815481106119505761195061366c565b905f5260205f209060060201905082826002015410156119c55760405162461bcd60e51b815260206004820152602a60248201527f455243333532353a20696e73756666696369656e742062616c616e636520666f60448201526939103a3930b739b332b960b11b606482015260840161073c565b8060010154826001015414611a335760405162461bcd60e51b815260206004820152602e60248201527f455243333532353a207472616e7366657220746f20746f6b656e20776974682060448201526d191a5999995c995b9d081cdb1bdd60921b606482015260840161073c565b600380830154908201546001840154611a5e926001600160a01b0390811692169088908890886123d1565b82826002015f828254611a7191906139ed565b9250508190555082816002015f828254611a8b9190613907565b9091555050604051838152849086907f0b2aac84f3ec956911fd78eae5311062972ff949f38412e8da39069d9f068cc69060200160405180910390a3600380830154908201546001840154611af2926001600160a01b039081169216908890889088612551565b611b0c85858560405180602001604052805f8152506125c2565b611b6e5760405162461bcd60e51b815260206004820152602d60248201527f455243333532353a207472616e736665722072656a656374656420627920455260448201526c21999a991aa932b1b2b4bb32b960991b606482015260840161073c565b5050505050565b600d546001600160a01b03163314610f66573360405163118cdaa760e01b815260040161073c91906132d5565b5f611bab6123b8565b9050610a6b848285856116f2565b5f611bc382611503565b5f611bcd83610dd6565b90505f611bd984610af1565b9050816001600160a01b0316856001600160a01b03161480611c145750846001600160a01b0316611c098561084d565b6001600160a01b0316145b80611c245750611c248286611324565b80611c355750611c3582828761120a565b95945050505050565b826001600160a01b0316611c5182610dd6565b6001600160a01b031614611cb35760405162461bcd60e51b8152602060048201526024808201527f455243333532353a207472616e736665722066726f6d20696e76616c6964206f6044820152633bb732b960e11b606482015260840161073c565b6001600160a01b038216611d175760405162461bcd60e51b815260206004820152602560248201527f455243333532353a207472616e7366657220746f20746865207a65726f206164604482015264647265737360d81b606482015260840161073c565b5f611d2182610af1565b90505f611d2d836110c8565b9050611d3d8585858686866123d1565b611d475f84611528565b611d508361272c565b611d5a85846127d2565b611d6484846128e5565b82846001600160a01b0316866001600160a01b03167fddf252ad1be2c89b69c2b068fc378daa952ba7f163c4a11628f55a4df523b3ef60405160405180910390a4611b6e858585868686612551565b600a545f901580159061079457505f828152600b6020526040902054600a80548492908110611de457611de461366c565b905f5260205f2090600202015f01541492915050565b816001600160a01b0316846001600160a01b031603611e6b5760405162461bcd60e51b815260206004820152602760248201527f45524333353235536c6f74417070726f7661626c653a20617070726f76652074604482015266379037bbb732b960c91b606482015260840161073c565b6001600160a01b038481165f818152600c60209081526040808320888452825280832094871680845294825291829020805460ff191686151590811790915591519182528692917f7bdf71e6625aa496095bf08b60c677cf81c963f402cf258981e3bd7507d3480c910160405180910390a450505050565b600d80546001600160a01b038381166001600160a01b0319831681179093556040519116919082907f8be0079c531659141344cd1fd0a4f28419497f9722a3daafe3b4186f6b6457e0905f90a35050565b6001600160a01b038216611f9d5760405162461bcd60e51b815260206004820152602a60248201527f455243333532353a20617070726f76652076616c756520746f20746865207a65604482015269726f206164647265737360b01b606482015260840161073c565b611fa7828461296c565b61200b575f83815260066020526040902054600580549091908110611fce57611fce61366c565b5f9182526020808320600692909202909101600501805460018101825590835291200180546001600160a01b0319166001600160a01b0384161790555b5f8381526004602090815260408083206001600160a01b038616808552908352928190208490555183815285917f621b050de0ad08b51d19b48b3e6df75348c4de6bdd93e81b252ca62e28265b1b91015b60405180910390a3505050565b816001600160a01b0316836001600160a01b0316036120ca5760405162461bcd60e51b815260206004820152601a60248201527f455243333532353a20617070726f766520746f2063616c6c6572000000000000604482015260640161073c565b6001600160a01b038381165f8181526007602090815260408083209487168084526002909501825291829020805460ff191686151590811790915591519182527f17307eab39ab6107e8899845ad3d59bd9653f200f220920489ca2b5937696c31910161205c565b61213d848484611c3e565b61214984848484612a38565b61098e5760405162461bcd60e51b815260206004820152602760248201527f455243333532353a207472616e7366657220746f206e6f6e204552433732315260448201526632b1b2b4bb32b960c91b606482015260840161073c565b60606107946001600160a01b0383166014612b7a565b5f6121c583610dd6565b90505f6121d184610af1565b90506121e15f835f8785886123d1565b6121eb84846124d1565b61098e5f835f878588612551565b5f6001600160e01b031982166301ffc9a760e01b148061222957506001600160e01b03198216630354d60560e61b145b8061224457506001600160e01b031982166380ac58cd60e01b145b8061225f57506001600160e01b031982166370b0048160e11b145b8061227a57506001600160e01b0319821663780e9d6360e01b145b8061079457506001600160e01b03198216635b5e139f60e01b1492915050565b6005545f901580159061079457505f828152600660205260409020546005805484929081106122cb576122cb61366c565b905f5260205f2090600602015f01541492915050565b5f8072184f03e93ff9f4daa797ed6e38ed64bf6a1f0160401b831061231f5772184f03e93ff9f4daa797ed6e38ed64bf6a1f0160401b830492506040015b6d04ee2d6d415b85acef8100000000831061234b576d04ee2d6d415b85acef8100000000830492506020015b662386f26fc10000831061236957662386f26fc10000830492506010015b6305f5e1008310612381576305f5e100830492506008015b612710831061239557612710830492506004015b606483106123a7576064830492506002015b600a83106107945760010192915050565b600380545f91826123c88361391a565b91905055905090565b6001600160a01b0386161580156123e6575083155b80156123f857506123f682611db3565b155b156124065761240682612ceb565b505050505050565b6040805160c08101825283815260208082018490525f8284018190526001600160a01b038716606084015260808301819052835181815291820190935260a0820152905061245b81612db0565b61246584846128e5565b60405183906001600160a01b038616905f907fddf252ad1be2c89b69c2b068fc378daa952ba7f163c4a11628f55a4df523b3ef908290a4815f847fe4f48c240d3b994948aa54f3e2f5fca59263dfe1d52b6e4cf39a5d249b5ccb6560405160405180910390a450505050565b5f828152600660205260409020546005805483929081106124f4576124f461366c565b905f5260205f2090600602016002015f8282546125119190613907565b909155505060405181815282905f907f0b2aac84f3ec956911fd78eae5311062972ff949f38412e8da39069d9f068cc69060200160405180910390a35050565b6001600160a01b038616158015612566575083155b801561257957506125778284612efe565b155b1561258d576125888284612f82565b612406565b6001600160a01b0385161580156125a2575082155b80156125b357506125b38285612efe565b15612588576125888285612fe1565b5f806125cd85610dd6565b9050803b63ffffffff1615612722576040516301ffc9a760e01b8152629ce20b60e01b60048201526001600160a01b038216906301ffc9a790602401602060405180830381865afa925050508015612642575060408051601f3d908101601f1916820190925261263f91810190613a00565b60015b612680573d80801561266f576040519150601f19603f3d011682016040523d82523d5f602084013e612674565b606091505b50600192505050611488565b801561271757604051629ce20b60e01b81525f906001600160a01b03841690629ce20b906126ba9033908c908c908c908c90600401613a1b565b6020604051808303815f875af11580156126d6573d5f803e3d5ffd5b505050506040513d601f19601f820116820180604052508101906126fa9190613a58565b6001600160e01b031916629ce20b60e01b14935061148892505050565b600192505050611488565b6001915050611488565b5f8181526006602052604081205460058054909190811061274f5761274f61366c565b5f91825260208220600560069092020190810154909250905b818110156127c4575f8360050182815481106127865761278661366c565b5f9182526020808320909101548783526004825260408084206001600160a01b039092168452915281205550806127bc8161391a565b915050612768565b50610aec600583015f613144565b5f818152600660205260408120546005805490919081106127f5576127f561366c565b5f918252602080832060069290920290910160030180546001600160a01b0319166001600160a01b0394851617905591841681526007909152604081208054909190612843906001906139ed565b90505f825f01828154811061285a5761285a61366c565b905f5260205f20015490505f836001015f8681526020019081526020015f2054905081845f0182815481106128915761289161366c565b5f91825260208083209091019290925583815260018601909152604080822083905586825281205583548490806128ca576128ca613a73565b600190038181905f5260205f20015f90559055505050505050565b5f818152600660205260409020546005805484929081106129085761290861366c565b5f918252602080832060069290920290910160030180546001600160a01b0319166001600160a01b03948516179055939091168152600780845260408083208054858552600182810188529285208190559286529082018155825292902090910155565b5f8181526006602052604081205460058054839290811061298f5761298f61366c565b5f918252602082206005600690920201015491505b81811015612a2e575f84815260066020526040902054600580546001600160a01b038816929081106129d8576129d861366c565b905f5260205f20906006020160050182815481106129f8576129f861366c565b5f918252602090912001546001600160a01b031603612a1c57600192505050610794565b80612a268161391a565b9150506129a4565b505f949350505050565b5f833b63ffffffff1615612b7257604051630a85bd0160e11b81526001600160a01b0385169063150b7a0290612a78903390899088908890600401613a87565b6020604051808303815f875af1925050508015612ab2575060408051601f3d908101601f19168201909252612aaf91810190613a58565b60015b612b58573d808015612adf576040519150601f19603f3d011682016040523d82523d5f602084013e612ae4565b606091505b5080515f03612b505760405162461bcd60e51b815260206004820152603260248201527f4552433732313a207472616e7366657220746f206e6f6e20455243373231526560448201527131b2b4bb32b91034b6b83632b6b2b73a32b960711b606482015260840161073c565b805181602001fd5b6001600160e01b031916630a85bd0160e11b149050611488565b506001611488565b6060825f612b89846002613ac3565b612b94906002613907565b6001600160401b03811115612bab57612bab613434565b6040519080825280601f01601f191660200182016040528015612bd5576020820181803683370190505b509050600360fc1b815f81518110612bef57612bef61366c565b60200101906001600160f81b03191690815f1a905350600f60fb1b81600181518110612c1d57612c1d61366c565b60200101906001600160f81b03191690815f1a9053505f612c3f856002613ac3565b612c4a906001613907565b90505b6001811115612cc1576f181899199a1a9b1b9c1cb0b131b232b360811b83600f1660108110612c7e57612c7e61366c565b1a60f81b828281518110612c9457612c9461366c565b60200101906001600160f81b03191690815f1a90535060049290921c91612cba81613ada565b9050612c4d565b5081156114885760405163e22e27eb60e01b8152600481018690526024810185905260440161073c565b612cf481611db3565b15612d545760405162461bcd60e51b815260206004820152602a60248201527f45524333353235536c6f74456e756d657261626c653a20736c6f7420616c72656044820152696164792065786973747360b01b606482015260840161073c565b60408051808201825282815281515f8082526020828101909452928201529050612d7d816130c0565b815f807fe4f48c240d3b994948aa54f3e2f5fca59263dfe1d52b6e4cf39a5d249b5ccb6560405160405180910390a45050565b6005805482515f90815260066020818152604080842085905560018501865594909252845192027f036b6384b5eca791c62761152d0c79bb0604c104a5fb6f4eb0703f3154bb3db08101928355818501517f036b6384b5eca791c62761152d0c79bb0604c104a5fb6f4eb0703f3154bb3db1820155928401517f036b6384b5eca791c62761152d0c79bb0604c104a5fb6f4eb0703f3154bb3db284015560608401517f036b6384b5eca791c62761152d0c79bb0604c104a5fb6f4eb0703f3154bb3db3840180546001600160a01b039283166001600160a01b03199182161790915560808601517f036b6384b5eca791c62761152d0c79bb0604c104a5fb6f4eb0703f3154bb3db48601805491909316911617905560a08401518051859461098e937f036b6384b5eca791c62761152d0c79bb0604c104a5fb6f4eb0703f3154bb3db590910192019061315f565b5f828152600b6020526040812054600a80548392908110612f2157612f2161366c565b905f5260205f20906002020190505f816001018054905011801561148857505f8481526009602090815260408083208684529091529020546001820180548592908110612f7057612f7061366c565b905f5260205f20015414949350505050565b5f828152600b6020526040812054600a80549091908110612fa557612fa561366c565b5f918252602080832060016002909302018201805496845260098252604080852087865283528420879055918601825590825290209092015550565b5f828152600b6020526040812054600a805490919081106130045761300461366c565b5f9182526020822060016002909202018181015490935061302591906139ed565b90505f82600101828154811061303d5761303d61366c565b5f91825260208083209091015487835260098252604080842088855290925291205460018501805492935090918391908390811061307d5761307d61366c565b5f9182526020808320919091019290925587815260098252604080822085835290925281812083905586815290812055600184018054806128ca576128ca613a73565b600a805482515f908152600b602090815260408220839055600183018455929052825160029091027fc65a7bb8d6351c1cf70c95a316cc6a92839c986682d98bc35f958f4883f9d2a88101918255828401518051859461098e937fc65a7bb8d6351c1cf70c95a316cc6a92839c986682d98bc35f958f4883f9d2a9019201906131c2565b5080545f8255905f5260205f20908101906114dc91906131fb565b828054828255905f5260205f209081019282156131b2579160200282015b828111156131b257825182546001600160a01b0319166001600160a01b0390911617825560209092019160019091019061317d565b506131be9291506131fb565b5090565b828054828255905f5260205f209081019282156131b2579160200282015b828111156131b25782518255916020019190600101906131e0565b5b808211156131be575f81556001016131fc565b5f8060408385031215613220575f80fd5b50508035926020909101359150565b6001600160e01b0319811681146114dc575f80fd5b5f60208284031215613254575f80fd5b8135610a6b8161322f565b5f5b83811015613279578181015183820152602001613261565b50505f910152565b5f815180845261329881602086016020860161325f565b601f01601f19169290920160200192915050565b602081525f610a6b6020830184613281565b5f602082840312156132ce575f80fd5b5035919050565b6001600160a01b0391909116815260200190565b80356001600160a01b0381168114610e3e575f80fd5b5f8060408385031215613310575f80fd5b613319836132e9565b946020939093013593505050565b5f805f60608486031215613339575f80fd5b83359250613349602085016132e9565b9150604084013590509250925092565b5f805f6060848603121561336b575f80fd5b613374846132e9565b95602085013595506040909401359392505050565b5f805f6060848603121561339b575f80fd5b6133a4846132e9565b9250613349602085016132e9565b5f805f606084860312156133c4575f80fd5b505081359360208301359350604090920135919050565b80151581146114dc575f80fd5b5f805f80608085870312156133fb575f80fd5b613404856132e9565b935060208501359250613419604086016132e9565b91506060850135613429816133db565b939692955090935050565b634e487b7160e01b5f52604160045260245ffd5b604051601f8201601f191681016001600160401b038111828210171561347057613470613434565b604052919050565b5f6001600160401b0382111561349057613490613434565b50601f01601f191660200190565b5f6134b06134ab84613478565b613448565b90508281528383830111156134c3575f80fd5b828260208301375f602084830101529392505050565b5f602082840312156134e9575f80fd5b81356001600160401b038111156134fe575f80fd5b8201601f8101841361350e575f80fd5b6114888482356020840161349e565b5f6020828403121561352d575f80fd5b610a6b826132e9565b5f8060408385031215613547575f80fd5b613550836132e9565b91506020830135613560816133db565b809150509250929050565b5f805f806080858703121561357e575f80fd5b613587856132e9565b9350613595602086016132e9565b92506040850135915060608501356001600160401b038111156135b6575f80fd5b8501601f810187136135c6575f80fd5b6135d58782356020840161349e565b91505092959194509250565b5f80604083850312156135f2575f80fd5b82359150613602602084016132e9565b90509250929050565b5f805f6060848603121561361d575f80fd5b613626846132e9565b92506020840135915061363b604085016132e9565b90509250925092565b5f8060408385031215613655575f80fd5b61365e836132e9565b9150613602602084016132e9565b634e487b7160e01b5f52603260045260245ffd5b600181811c9082168061369457607f821691505b6020821081036136b257634e487b7160e01b5f52602260045260245ffd5b50919050565b60208082526022908201527f455243333532353a20617070726f76616c20746f2063757272656e74206f776e60408201526132b960f11b606082015260800190565b5f835161370b81846020880161325f565b64736c6f742f60d81b908301908152835161372d81600584016020880161325f565b01600501949350505050565b5f60208284031215613749575f80fd5b81516001600160401b0381111561375e575f80fd5b8201601f8101841361376e575f80fd5b805161377c6134ab82613478565b818152856020838501011115613790575f80fd5b611c3582602083016020860161325f565b60208082526032908201527f455243333532353a207472616e736665722063616c6c6572206973206e6f74206040820152711bdddb995c881b9bdc88185c1c1c9bdd995960721b606082015260800190565b601f821115610aec575f81815260208120601f850160051c810160208610156138195750805b601f850160051c820191505b8181101561240657828155600101613825565b81516001600160401b0381111561385157613851613434565b6138658161385f8454613680565b846137f3565b602080601f831160018114613898575f84156138815750858301515b5f19600386901b1c1916600185901b178555612406565b5f85815260208120601f198616915b828110156138c6578886015182559484019460019091019084016138a7565b50858210156138e357878501515f19600388901b60f8161c191681555b5050505050600190811b01905550565b634e487b7160e01b5f52601160045260245ffd5b80820180821115610794576107946138f3565b5f6001820161392b5761392b6138f3565b5060010190565b602080825260199082015278115490cccd4c8d4e881a5b9d985b1a59081d1bdad95b881251603a1b604082015260600190565b5f835161397681846020880161325f565b83519083019061398a81836020880161325f565b01949350505050565b5f83516139a481846020880161325f565b68636f6e74726163742f60b81b90830190815283516139ca81600984016020880161325f565b01600901949350505050565b5f602082840312156139e6575f80fd5b5051919050565b81810381811115610794576107946138f3565b5f60208284031215613a10575f80fd5b8151610a6b816133db565b60018060a01b038616815284602082015283604082015282606082015260a060808201525f613a4d60a0830184613281565b979650505050505050565b5f60208284031215613a68575f80fd5b8151610a6b8161322f565b634e487b7160e01b5f52603160045260245ffd5b6001600160a01b03858116825284166020820152604081018390526080606082018190525f90613ab990830184613281565b9695505050505050565b8082028115828204841417610794576107946138f3565b5f81613ae857613ae86138f3565b505f19019056fea264697066735822122002d6212de54883f88141c6f7227532907bb1ff2e5a1b07b49f70b8fb5858e41464736f6c63430008140033a2646970667358221220100042d651be797454f8b1d6046e473a705a8176bd07070b032a8cc3314c632364736f6c63430008140033",
			"opcodes": "PUSH1 0x80 PUSH1 0x40 MSTORE CALLVALUE DUP1 ISZERO PUSH3 0x10 JUMPI PUSH0 DUP1 REVERT JUMPDEST POP PUSH1 0x40 MLOAD PUSH3 0x60E7 CODESIZE SUB DUP1 PUSH3 0x60E7 DUP4 CODECOPY DUP2 ADD PUSH1 0x40 DUP2 SWAP1 MSTORE PUSH3 0x33 SWAP2 PUSH3 0x14A JUMP JUMPDEST DUP4 PUSH1 0x1 PUSH1 0x1 PUSH1 0xA0 SHL SUB DUP2 AND PUSH3 0x62 JUMPI PUSH1 0x40 MLOAD PUSH4 0x1E4FBDF7 PUSH1 0xE0 SHL DUP2 MSTORE PUSH0 PUSH1 0x4 DUP3 ADD MSTORE PUSH1 0x24 ADD PUSH1 0x40 MLOAD DUP1 SWAP2 SUB SWAP1 REVERT JUMPDEST PUSH3 0x6D DUP2 PUSH3 0xCB JUMP JUMPDEST POP PUSH1 0x1 DUP1 SSTORE PUSH1 0x2 DUP1 SLOAD PUSH1 0x1 PUSH1 0x1 PUSH1 0xA0 SHL SUB DUP1 DUP7 AND PUSH1 0x1 PUSH1 0x1 PUSH1 0xA0 SHL SUB NOT SWAP3 DUP4 AND OR SWAP1 SWAP3 SSTORE PUSH1 0x3 DUP1 SLOAD SWAP3 DUP6 AND SWAP3 SWAP1 SWAP2 AND SWAP2 SWAP1 SWAP2 OR SWAP1 SSTORE PUSH3 0xF423F PUSH1 0x7 SSTORE PUSH0 PUSH1 0x5 DUP2 SWAP1 SSTORE PUSH1 0x6 SSTORE PUSH1 0x4 PUSH3 0xC0 DUP3 DUP3 PUSH3 0x2DB JUMP JUMPDEST POP POP POP POP POP PUSH3 0x3A3 JUMP JUMPDEST PUSH0 DUP1 SLOAD PUSH1 0x1 PUSH1 0x1 PUSH1 0xA0 SHL SUB DUP4 DUP2 AND PUSH1 0x1 PUSH1 0x1 PUSH1 0xA0 SHL SUB NOT DUP4 AND DUP2 OR DUP5 SSTORE PUSH1 0x40 MLOAD SWAP2 SWAP1 SWAP3 AND SWAP3 DUP4 SWAP2 PUSH32 0x8BE0079C531659141344CD1FD0A4F28419497F9722A3DAAFE3B4186F6B6457E0 SWAP2 SWAP1 LOG3 POP POP JUMP JUMPDEST DUP1 MLOAD PUSH1 0x1 PUSH1 0x1 PUSH1 0xA0 SHL SUB DUP2 AND DUP2 EQ PUSH3 0x131 JUMPI PUSH0 DUP1 REVERT JUMPDEST SWAP2 SWAP1 POP JUMP JUMPDEST PUSH4 0x4E487B71 PUSH1 0xE0 SHL PUSH0 MSTORE PUSH1 0x41 PUSH1 0x4 MSTORE PUSH1 0x24 PUSH0 REVERT JUMPDEST PUSH0 DUP1 PUSH0 DUP1 PUSH1 0x80 DUP6 DUP8 SUB SLT ISZERO PUSH3 0x15E JUMPI PUSH0 DUP1 REVERT JUMPDEST PUSH3 0x169 DUP6 PUSH3 0x11A JUMP JUMPDEST SWAP4 POP PUSH1 0x20 PUSH3 0x17A DUP2 DUP8 ADD PUSH3 0x11A JUMP JUMPDEST SWAP4 POP PUSH3 0x18A PUSH1 0x40 DUP8 ADD PUSH3 0x11A JUMP JUMPDEST PUSH1 0x60 DUP8 ADD MLOAD SWAP1 SWAP4 POP PUSH1 0x1 PUSH1 0x1 PUSH1 0x40 SHL SUB DUP1 DUP3 GT ISZERO PUSH3 0x1A7 JUMPI PUSH0 DUP1 REVERT JUMPDEST DUP2 DUP9 ADD SWAP2 POP DUP9 PUSH1 0x1F DUP4 ADD SLT PUSH3 0x1BB JUMPI PUSH0 DUP1 REVERT JUMPDEST DUP2 MLOAD DUP2 DUP2 GT ISZERO PUSH3 0x1D0 JUMPI PUSH3 0x1D0 PUSH3 0x136 JUMP JUMPDEST PUSH1 0x40 MLOAD PUSH1 0x1F DUP3 ADD PUSH1 0x1F NOT SWAP1 DUP2 AND PUSH1 0x3F ADD AND DUP2 ADD SWAP1 DUP4 DUP3 GT DUP2 DUP4 LT OR ISZERO PUSH3 0x1FB JUMPI PUSH3 0x1FB PUSH3 0x136 JUMP JUMPDEST DUP2 PUSH1 0x40 MSTORE DUP3 DUP2 MSTORE DUP12 DUP7 DUP5 DUP8 ADD ADD GT ISZERO PUSH3 0x213 JUMPI PUSH0 DUP1 REVERT JUMPDEST PUSH0 SWAP4 POP JUMPDEST DUP3 DUP5 LT ISZERO PUSH3 0x236 JUMPI DUP5 DUP5 ADD DUP7 ADD MLOAD DUP2 DUP6 ADD DUP8 ADD MSTORE SWAP3 DUP6 ADD SWAP3 PUSH3 0x217 JUMP JUMPDEST PUSH0 DUP7 DUP5 DUP4 ADD ADD MSTORE DUP1 SWAP7 POP POP POP POP POP POP POP SWAP3 SWAP6 SWAP2 SWAP5 POP SWAP3 POP JUMP JUMPDEST PUSH1 0x1 DUP2 DUP2 SHR SWAP1 DUP3 AND DUP1 PUSH3 0x264 JUMPI PUSH1 0x7F DUP3 AND SWAP2 POP JUMPDEST PUSH1 0x20 DUP3 LT DUP2 SUB PUSH3 0x283 JUMPI PUSH4 0x4E487B71 PUSH1 0xE0 SHL PUSH0 MSTORE PUSH1 0x22 PUSH1 0x4 MSTORE PUSH1 0x24 PUSH0 REVERT JUMPDEST POP SWAP2 SWAP1 POP JUMP JUMPDEST PUSH1 0x1F DUP3 GT ISZERO PUSH3 0x2D6 JUMPI PUSH0 DUP2 DUP2 MSTORE PUSH1 0x20 DUP2 KECCAK256 PUSH1 0x1F DUP6 ADD PUSH1 0x5 SHR DUP2 ADD PUSH1 0x20 DUP7 LT ISZERO PUSH3 0x2B1 JUMPI POP DUP1 JUMPDEST PUSH1 0x1F DUP6 ADD PUSH1 0x5 SHR DUP3 ADD SWAP2 POP JUMPDEST DUP2 DUP2 LT ISZERO PUSH3 0x2D2 JUMPI DUP3 DUP2 SSTORE PUSH1 0x1 ADD PUSH3 0x2BD JUMP JUMPDEST POP POP POP JUMPDEST POP POP POP JUMP JUMPDEST DUP2 MLOAD PUSH1 0x1 PUSH1 0x1 PUSH1 0x40 SHL SUB DUP2 GT ISZERO PUSH3 0x2F7 JUMPI PUSH3 0x2F7 PUSH3 0x136 JUMP JUMPDEST PUSH3 0x30F DUP2 PUSH3 0x308 DUP5 SLOAD PUSH3 0x24F JUMP JUMPDEST DUP5 PUSH3 0x289 JUMP JUMPDEST PUSH1 0x20 DUP1 PUSH1 0x1F DUP4 GT PUSH1 0x1 DUP2 EQ PUSH3 0x345 JUMPI PUSH0 DUP5 ISZERO PUSH3 0x32D JUMPI POP DUP6 DUP4 ADD MLOAD JUMPDEST PUSH0 NOT PUSH1 0x3 DUP7 SWAP1 SHL SHR NOT AND PUSH1 0x1 DUP6 SWAP1 SHL OR DUP6 SSTORE PUSH3 0x2D2 JUMP JUMPDEST PUSH0 DUP6 DUP2 MSTORE PUSH1 0x20 DUP2 KECCAK256 PUSH1 0x1F NOT DUP7 AND SWAP2 JUMPDEST DUP3 DUP2 LT ISZERO PUSH3 0x375 JUMPI DUP9 DUP7 ADD MLOAD DUP3 SSTORE SWAP5 DUP5 ADD SWAP5 PUSH1 0x1 SWAP1 SWAP2 ADD SWAP1 DUP5 ADD PUSH3 0x354 JUMP JUMPDEST POP DUP6 DUP3 LT ISZERO PUSH3 0x393 JUMPI DUP8 DUP6 ADD MLOAD PUSH0 NOT PUSH1 0x3 DUP9 SWAP1 SHL PUSH1 0xF8 AND SHR NOT AND DUP2 SSTORE JUMPDEST POP POP POP POP POP PUSH1 0x1 SWAP1 DUP2 SHL ADD SWAP1 SSTORE POP JUMP JUMPDEST PUSH2 0x5D36 DUP1 PUSH3 0x3B1 PUSH0 CODECOPY PUSH0 RETURN INVALID PUSH1 0x80 PUSH1 0x40 MSTORE CALLVALUE DUP1 ISZERO PUSH3 0x10 JUMPI PUSH0 DUP1 REVERT JUMPDEST POP PUSH1 0x4 CALLDATASIZE LT PUSH3 0x16F JUMPI PUSH0 CALLDATALOAD PUSH1 0xE0 SHR DUP1 PUSH4 0x8DA5CB5B GT PUSH3 0xCF JUMPI DUP1 PUSH4 0xCAE5EC04 GT PUSH3 0x83 JUMPI DUP1 PUSH4 0xCAE5EC04 EQ PUSH3 0x311 JUMPI DUP1 PUSH4 0xE2A084DA EQ PUSH3 0x347 JUMPI DUP1 PUSH4 0xE82BEF29 EQ PUSH3 0x35E JUMPI DUP1 PUSH4 0xE917CCAF EQ PUSH3 0x372 JUMPI DUP1 PUSH4 0xEF299B0B EQ PUSH3 0x389 JUMPI DUP1 PUSH4 0xF2FDE38B EQ PUSH3 0x3A0 JUMPI PUSH0 DUP1 REVERT JUMPDEST DUP1 PUSH4 0x8DA5CB5B EQ PUSH3 0x267 JUMPI DUP1 PUSH4 0x92881F08 EQ PUSH3 0x282 JUMPI DUP1 PUSH4 0xA335A003 EQ PUSH3 0x299 JUMPI DUP1 PUSH4 0xA3799339 EQ PUSH3 0x2BB JUMPI DUP1 PUSH4 0xB0E0A569 EQ PUSH3 0x2D2 JUMPI DUP1 PUSH4 0xC77B5146 EQ PUSH3 0x2FD JUMPI PUSH0 DUP1 REVERT JUMPDEST DUP1 PUSH4 0x51D4A4E2 GT PUSH3 0x127 JUMPI DUP1 PUSH4 0x51D4A4E2 EQ PUSH3 0x202 JUMPI DUP1 PUSH4 0x631429CE EQ PUSH3 0x219 JUMPI DUP1 PUSH4 0x65A1E6C5 EQ PUSH3 0x223 JUMPI DUP1 PUSH4 0x70C86286 EQ PUSH3 0x23C JUMPI DUP1 PUSH4 0x715018A6 EQ PUSH3 0x246 JUMPI DUP1 PUSH4 0x85DC3004 EQ PUSH3 0x250 JUMPI PUSH0 DUP1 REVERT JUMPDEST DUP1 PUSH3 0xA41BAA EQ PUSH3 0x173 JUMPI DUP1 PUSH4 0x17E4D1E EQ PUSH3 0x1A8 JUMPI DUP1 PUSH4 0x13D18A24 EQ PUSH3 0x1C1 JUMPI DUP1 PUSH4 0x2E08E4C6 EQ PUSH3 0x1CA JUMPI DUP1 PUSH4 0x411092E3 EQ PUSH3 0x1E1 JUMPI DUP1 PUSH4 0x44DE240A EQ PUSH3 0x1F8 JUMPI JUMPDEST PUSH0 DUP1 REVERT JUMPDEST PUSH3 0x195 PUSH3 0x184 CALLDATASIZE PUSH1 0x4 PUSH3 0x15BF JUMP JUMPDEST PUSH1 0xA PUSH1 0x20 MSTORE PUSH0 SWAP1 DUP2 MSTORE PUSH1 0x40 SWAP1 KECCAK256 SLOAD DUP2 JUMP JUMPDEST PUSH1 0x40 MLOAD SWAP1 DUP2 MSTORE PUSH1 0x20 ADD JUMPDEST PUSH1 0x40 MLOAD DUP1 SWAP2 SUB SWAP1 RETURN JUMPDEST PUSH3 0x1BF PUSH3 0x1B9 CALLDATASIZE PUSH1 0x4 PUSH3 0x15EB JUMP JUMPDEST PUSH3 0x3B7 JUMP JUMPDEST STOP JUMPDEST PUSH1 0x7 SLOAD PUSH3 0x195 JUMP JUMPDEST PUSH3 0x195 PUSH3 0x1DB CALLDATASIZE PUSH1 0x4 PUSH3 0x1627 JUMP JUMPDEST PUSH3 0x424 JUMP JUMPDEST PUSH3 0x1BF PUSH3 0x1F2 CALLDATASIZE PUSH1 0x4 PUSH3 0x15BF JUMP JUMPDEST PUSH3 0x46C JUMP JUMPDEST PUSH3 0x195 PUSH1 0x5 SLOAD DUP2 JUMP JUMPDEST PUSH3 0x1BF PUSH3 0x213 CALLDATASIZE PUSH1 0x4 PUSH3 0x1654 JUMP JUMPDEST PUSH3 0x4CE JUMP JUMPDEST PUSH3 0x195 PUSH1 0x7 SLOAD DUP2 JUMP JUMPDEST PUSH3 0x22D PUSH3 0x6A9 JUMP JUMPDEST PUSH1 0x40 MLOAD PUSH3 0x19F SWAP2 SWAP1 PUSH3 0x16DA JUMP JUMPDEST PUSH3 0x195 PUSH1 0x6 SLOAD DUP2 JUMP JUMPDEST PUSH3 0x1BF PUSH3 0x73D JUMP JUMPDEST PUSH3 0x1BF PUSH3 0x261 CALLDATASIZE PUSH1 0x4 PUSH3 0x15BF JUMP JUMPDEST PUSH3 0x754 JUMP JUMPDEST PUSH0 SLOAD PUSH1 0x1 PUSH1 0x1 PUSH1 0xA0 SHL SUB AND JUMPDEST PUSH1 0x40 MLOAD PUSH3 0x19F SWAP2 SWAP1 PUSH3 0x16EE JUMP JUMPDEST PUSH3 0x1BF PUSH3 0x293 CALLDATASIZE PUSH1 0x4 PUSH3 0x17E6 JUMP JUMPDEST PUSH3 0x7AB JUMP JUMPDEST PUSH3 0x195 PUSH3 0x2AA CALLDATASIZE PUSH1 0x4 PUSH3 0x15BF JUMP JUMPDEST PUSH1 0xB PUSH1 0x20 MSTORE PUSH0 SWAP1 DUP2 MSTORE PUSH1 0x40 SWAP1 KECCAK256 SLOAD DUP2 JUMP JUMPDEST PUSH3 0x1BF PUSH3 0x2CC CALLDATASIZE PUSH1 0x4 PUSH3 0x1899 JUMP JUMPDEST PUSH3 0x96C JUMP JUMPDEST PUSH3 0x273 PUSH3 0x2E3 CALLDATASIZE PUSH1 0x4 PUSH3 0x1908 JUMP JUMPDEST PUSH1 0x9 PUSH1 0x20 MSTORE PUSH0 SWAP1 DUP2 MSTORE PUSH1 0x40 SWAP1 KECCAK256 SLOAD PUSH1 0x1 PUSH1 0x1 PUSH1 0xA0 SHL SUB AND DUP2 JUMP JUMPDEST PUSH1 0x2 SLOAD PUSH3 0x273 SWAP1 PUSH1 0x1 PUSH1 0x1 PUSH1 0xA0 SHL SUB AND DUP2 JUMP JUMPDEST PUSH3 0x336 PUSH3 0x322 CALLDATASIZE PUSH1 0x4 PUSH3 0x15BF JUMP JUMPDEST PUSH1 0xC PUSH1 0x20 MSTORE PUSH0 SWAP1 DUP2 MSTORE PUSH1 0x40 SWAP1 KECCAK256 SLOAD PUSH1 0xFF AND DUP2 JUMP JUMPDEST PUSH1 0x40 MLOAD SWAP1 ISZERO ISZERO DUP2 MSTORE PUSH1 0x20 ADD PUSH3 0x19F JUMP JUMPDEST PUSH3 0x1BF PUSH3 0x358 CALLDATASIZE PUSH1 0x4 PUSH3 0x1920 JUMP JUMPDEST PUSH3 0xB1A JUMP JUMPDEST PUSH1 0x3 SLOAD PUSH3 0x273 SWAP1 PUSH1 0x1 PUSH1 0x1 PUSH1 0xA0 SHL SUB AND DUP2 JUMP JUMPDEST PUSH3 0x1BF PUSH3 0x383 CALLDATASIZE PUSH1 0x4 PUSH3 0x1972 JUMP JUMPDEST PUSH3 0xB34 JUMP JUMPDEST PUSH3 0x1BF PUSH3 0x39A CALLDATASIZE PUSH1 0x4 PUSH3 0x1908 JUMP JUMPDEST PUSH3 0xC13 JUMP JUMPDEST PUSH3 0x1BF PUSH3 0x3B1 CALLDATASIZE PUSH1 0x4 PUSH3 0x15BF JUMP JUMPDEST PUSH3 0xCEE JUMP JUMPDEST PUSH3 0x3C1 PUSH3 0xD32 JUMP JUMPDEST PUSH1 0x1 PUSH1 0x1 PUSH1 0xA0 SHL SUB DUP3 AND PUSH0 DUP2 DUP2 MSTORE PUSH1 0xC PUSH1 0x20 SWAP1 DUP2 MSTORE PUSH1 0x40 SWAP2 DUP3 SWAP1 KECCAK256 DUP1 SLOAD PUSH1 0xFF NOT AND DUP6 ISZERO ISZERO SWAP1 DUP2 OR SWAP1 SWAP2 SSTORE DUP3 MLOAD SWAP4 DUP5 MSTORE SWAP1 DUP4 ADD MSTORE PUSH32 0x3178E1E682D183B22B2C0A13AF9E136C3E9A37B76BD71D47BF24A80710441E8F SWAP2 ADD JUMPDEST PUSH1 0x40 MLOAD DUP1 SWAP2 SUB SWAP1 LOG1 POP POP JUMP JUMPDEST PUSH1 0x1 PUSH1 0x1 PUSH1 0xA0 SHL SUB DUP3 AND PUSH0 SWAP1 DUP2 MSTORE PUSH1 0xD PUSH1 0x20 MSTORE PUSH1 0x40 DUP2 KECCAK256 DUP2 DUP1 PUSH3 0x449 DUP4 DUP7 PUSH3 0xD61 JUMP JUMPDEST SWAP2 POP SWAP2 POP DUP2 ISZERO PUSH3 0x45F JUMPI SWAP3 POP PUSH3 0x466 SWAP2 POP POP JUMP JUMPDEST PUSH0 SWAP4 POP POP POP POP JUMPDEST SWAP3 SWAP2 POP POP JUMP JUMPDEST PUSH3 0x476 PUSH3 0xD32 JUMP JUMPDEST PUSH1 0x2 DUP1 SLOAD PUSH1 0x1 PUSH1 0x1 PUSH1 0xA0 SHL SUB NOT AND PUSH1 0x1 PUSH1 0x1 PUSH1 0xA0 SHL SUB DUP4 AND OR SWAP1 SSTORE PUSH1 0x40 MLOAD PUSH32 0x9BAFF423EFF88F9464905BA56ED5F715A601D993FCE3F0DC0CB5689A5B6AF994 SWAP1 PUSH3 0x4C3 SWAP1 DUP4 SWAP1 PUSH3 0x16EE JUMP JUMPDEST PUSH1 0x40 MLOAD DUP1 SWAP2 SUB SWAP1 LOG1 POP JUMP JUMPDEST PUSH1 0x1 PUSH1 0x1 PUSH1 0xA0 SHL SUB DUP4 AND PUSH0 SWAP1 DUP2 MSTORE PUSH1 0xD PUSH1 0x20 MSTORE PUSH1 0x40 DUP2 KECCAK256 SWAP1 DUP1 PUSH3 0x4F3 DUP4 DUP7 PUSH3 0xD61 JUMP JUMPDEST SWAP2 POP SWAP2 POP DUP2 ISZERO PUSH3 0x6A1 JUMPI DUP6 CALLER PUSH1 0x40 MLOAD PUSH4 0x31A9108F PUSH1 0xE1 SHL DUP2 MSTORE PUSH1 0x4 DUP2 ADD DUP9 SWAP1 MSTORE PUSH1 0x1 PUSH1 0x1 PUSH1 0xA0 SHL SUB SWAP2 DUP3 AND SWAP2 DUP4 AND SWAP1 PUSH4 0x6352211E SWAP1 PUSH1 0x24 ADD PUSH1 0x20 PUSH1 0x40 MLOAD DUP1 DUP4 SUB DUP2 DUP7 GAS STATICCALL ISZERO DUP1 ISZERO PUSH3 0x548 JUMPI RETURNDATASIZE PUSH0 DUP1 RETURNDATACOPY RETURNDATASIZE PUSH0 REVERT JUMPDEST POP POP POP POP PUSH1 0x40 MLOAD RETURNDATASIZE PUSH1 0x1F NOT PUSH1 0x1F DUP3 ADD AND DUP3 ADD DUP1 PUSH1 0x40 MSTORE POP DUP2 ADD SWAP1 PUSH3 0x56E SWAP2 SWAP1 PUSH3 0x1AA9 JUMP JUMPDEST PUSH1 0x1 PUSH1 0x1 PUSH1 0xA0 SHL SUB AND EQ PUSH3 0x5BC JUMPI PUSH1 0x40 MLOAD PUSH3 0x461BCD PUSH1 0xE5 SHL DUP2 MSTORE PUSH1 0x20 PUSH1 0x4 DUP3 ADD MSTORE PUSH1 0xF PUSH1 0x24 DUP3 ADD MSTORE PUSH15 0x2737BA103A37B5B2B71037BBB732B9 PUSH1 0x89 SHL PUSH1 0x44 DUP3 ADD MSTORE PUSH1 0x64 ADD JUMPDEST PUSH1 0x40 MLOAD DUP1 SWAP2 SUB SWAP1 REVERT JUMPDEST DUP5 DUP3 LT PUSH3 0x69F JUMPI PUSH1 0x2 SLOAD PUSH1 0x3 SLOAD PUSH1 0x40 MLOAD PUSH4 0x23B872DD PUSH1 0xE0 SHL DUP2 MSTORE PUSH1 0x1 PUSH1 0x1 PUSH1 0xA0 SHL SUB SWAP3 DUP4 AND SWAP3 DUP4 SWAP3 PUSH4 0x23B872DD SWAP3 PUSH3 0x601 SWAP3 SWAP1 SWAP2 AND SWAP1 CALLER SWAP1 DUP12 SWAP1 PUSH1 0x4 ADD PUSH3 0x1AC7 JUMP JUMPDEST PUSH1 0x20 PUSH1 0x40 MLOAD DUP1 DUP4 SUB DUP2 PUSH0 DUP8 GAS CALL ISZERO DUP1 ISZERO PUSH3 0x61E JUMPI RETURNDATASIZE PUSH0 DUP1 RETURNDATACOPY RETURNDATASIZE PUSH0 REVERT JUMPDEST POP POP POP POP PUSH1 0x40 MLOAD RETURNDATASIZE PUSH1 0x1F NOT PUSH1 0x1F DUP3 ADD AND DUP3 ADD DUP1 PUSH1 0x40 MSTORE POP DUP2 ADD SWAP1 PUSH3 0x644 SWAP2 SWAP1 PUSH3 0x1AEB JUMP JUMPDEST POP PUSH3 0x65F DUP8 PUSH3 0x656 DUP9 DUP7 PUSH3 0x1B1D JUMP JUMPDEST DUP8 SWAP2 SWAP1 PUSH3 0xD80 JUMP JUMPDEST POP PUSH32 0xA1AA847137EB2A4C69D4A1D1123F2A5B5033DD7F82E023F9C79B62A104F24C84 DUP9 DUP9 DUP9 PUSH1 0x40 MLOAD PUSH3 0x695 SWAP4 SWAP3 SWAP2 SWAP1 PUSH3 0x1B33 JUMP JUMPDEST PUSH1 0x40 MLOAD DUP1 SWAP2 SUB SWAP1 LOG1 POP JUMPDEST POP JUMPDEST POP POP POP POP POP POP JUMP JUMPDEST PUSH1 0x4 DUP1 SLOAD PUSH3 0x6B8 SWAP1 PUSH3 0x1B54 JUMP JUMPDEST DUP1 PUSH1 0x1F ADD PUSH1 0x20 DUP1 SWAP2 DIV MUL PUSH1 0x20 ADD PUSH1 0x40 MLOAD SWAP1 DUP2 ADD PUSH1 0x40 MSTORE DUP1 SWAP3 SWAP2 SWAP1 DUP2 DUP2 MSTORE PUSH1 0x20 ADD DUP3 DUP1 SLOAD PUSH3 0x6E6 SWAP1 PUSH3 0x1B54 JUMP JUMPDEST DUP1 ISZERO PUSH3 0x735 JUMPI DUP1 PUSH1 0x1F LT PUSH3 0x70B JUMPI PUSH2 0x100 DUP1 DUP4 SLOAD DIV MUL DUP4 MSTORE SWAP2 PUSH1 0x20 ADD SWAP2 PUSH3 0x735 JUMP JUMPDEST DUP3 ADD SWAP2 SWAP1 PUSH0 MSTORE PUSH1 0x20 PUSH0 KECCAK256 SWAP1 JUMPDEST DUP2 SLOAD DUP2 MSTORE SWAP1 PUSH1 0x1 ADD SWAP1 PUSH1 0x20 ADD DUP1 DUP4 GT PUSH3 0x717 JUMPI DUP3 SWAP1 SUB PUSH1 0x1F AND DUP3 ADD SWAP2 JUMPDEST POP POP POP POP POP DUP2 JUMP JUMPDEST PUSH3 0x747 PUSH3 0xD32 JUMP JUMPDEST PUSH3 0x752 PUSH0 PUSH3 0xD98 JUMP JUMPDEST JUMP JUMPDEST PUSH3 0x75E PUSH3 0xD32 JUMP JUMPDEST PUSH1 0x3 DUP1 SLOAD PUSH1 0x1 PUSH1 0x1 PUSH1 0xA0 SHL SUB NOT AND PUSH1 0x1 PUSH1 0x1 PUSH1 0xA0 SHL SUB DUP4 AND OR SWAP1 SSTORE PUSH1 0x40 MLOAD PUSH32 0xB3E90B24BC843D474D30F08E2FE88FCF9D378C853313E403F9D2DCBD13491204 SWAP1 PUSH3 0x4C3 SWAP1 DUP4 SWAP1 PUSH3 0x16EE JUMP JUMPDEST PUSH1 0x5 DUP1 SLOAD SWAP1 PUSH0 PUSH3 0x7BC DUP4 PUSH3 0x1B8E JUMP JUMPDEST SWAP2 SWAP1 POP SSTORE POP ADDRESS DUP7 DUP7 PUSH1 0x40 MLOAD PUSH3 0x7D2 SWAP1 PUSH3 0x159C JUMP JUMPDEST PUSH3 0x7E0 SWAP4 SWAP3 SWAP2 SWAP1 PUSH3 0x1BA9 JUMP JUMPDEST PUSH1 0x40 MLOAD DUP1 SWAP2 SUB SWAP1 PUSH0 CREATE DUP1 ISZERO DUP1 ISZERO PUSH3 0x7FA JUMPI RETURNDATASIZE PUSH0 DUP1 RETURNDATACOPY RETURNDATASIZE PUSH0 REVERT JUMPDEST POP PUSH1 0x8 DUP1 SLOAD PUSH1 0x1 PUSH1 0x1 PUSH1 0xA0 SHL SUB NOT AND PUSH1 0x1 PUSH1 0x1 PUSH1 0xA0 SHL SUB SWAP3 SWAP1 SWAP3 AND SWAP2 SWAP1 SWAP2 OR SWAP1 SSTORE PUSH1 0x1 JUMPDEST DUP4 DUP2 GT PUSH3 0x8A3 JUMPI PUSH1 0x8 SLOAD PUSH1 0x7 SLOAD PUSH1 0x40 MLOAD PUSH4 0xAB714FB PUSH1 0xE1 SHL DUP2 MSTORE PUSH1 0x1 PUSH1 0x1 PUSH1 0xA0 SHL SUB SWAP1 SWAP3 AND SWAP2 PUSH4 0x156E29F6 SWAP2 PUSH3 0x85E SWAP2 DUP8 SWAP2 SWAP1 DUP11 SWAP1 PUSH1 0x4 ADD PUSH3 0x1B33 JUMP JUMPDEST PUSH0 PUSH1 0x40 MLOAD DUP1 DUP4 SUB DUP2 PUSH0 DUP8 DUP1 EXTCODESIZE ISZERO DUP1 ISZERO PUSH3 0x876 JUMPI PUSH0 DUP1 REVERT JUMPDEST POP GAS CALL ISZERO DUP1 ISZERO PUSH3 0x889 JUMPI RETURNDATASIZE PUSH0 DUP1 RETURNDATACOPY RETURNDATASIZE PUSH0 REVERT JUMPDEST POP POP POP POP DUP1 DUP1 PUSH3 0x89A SWAP1 PUSH3 0x1B8E JUMP JUMPDEST SWAP2 POP POP PUSH3 0x81E JUMP JUMPDEST POP PUSH1 0x8 SLOAD PUSH3 0x8EA SWAP1 PUSH1 0x1 PUSH1 0x1 PUSH1 0xA0 SHL SUB AND PUSH1 0x4 PUSH3 0x8C2 DUP3 PUSH3 0xDE7 JUMP JUMPDEST PUSH1 0x40 MLOAD PUSH1 0x20 ADD PUSH3 0x8D5 SWAP3 SWAP2 SWAP1 PUSH3 0x1C09 JUMP JUMPDEST PUSH1 0x40 MLOAD PUSH1 0x20 DUP2 DUP4 SUB SUB DUP2 MSTORE SWAP1 PUSH1 0x40 MSTORE PUSH3 0xB1A JUMP JUMPDEST PUSH1 0x8 DUP1 SLOAD PUSH1 0x5 DUP1 SLOAD PUSH0 SWAP1 DUP2 MSTORE PUSH1 0x9 PUSH1 0x20 MSTORE PUSH1 0x40 SWAP1 DUP2 SWAP1 KECCAK256 DUP1 SLOAD PUSH1 0x1 PUSH1 0x1 PUSH1 0xA0 SHL SUB NOT AND PUSH1 0x1 PUSH1 0x1 PUSH1 0xA0 SHL SUB SWAP5 DUP6 AND OR SWAP1 SSTORE SWAP3 SLOAD SWAP1 SLOAD SWAP3 MLOAD PUSH32 0xC6CA7BC1AA8C34CA8AF58C4B278DFF6AC02275E474FF60971F8EB758DC407660 SWAP4 PUSH3 0x95C SWAP4 SWAP3 SWAP1 SWAP3 AND SWAP2 DUP9 SWAP2 DUP9 SWAP2 SWAP1 DUP9 SWAP1 DUP9 SWAP1 PUSH3 0x1CC1 JUMP JUMPDEST PUSH1 0x40 MLOAD DUP1 SWAP2 SUB SWAP1 LOG1 POP POP POP POP POP POP JUMP JUMPDEST CALLER PUSH0 SWAP1 DUP2 MSTORE PUSH1 0xC PUSH1 0x20 MSTORE PUSH1 0x40 SWAP1 KECCAK256 SLOAD PUSH1 0xFF AND PUSH3 0x99D JUMPI PUSH1 0x40 MLOAD PUSH3 0x461BCD PUSH1 0xE5 SHL DUP2 MSTORE PUSH1 0x4 ADD PUSH3 0x5B3 SWAP1 PUSH3 0x1D0B JUMP JUMPDEST PUSH1 0x1 PUSH1 0x1 PUSH1 0xA0 SHL SUB DUP4 AND PUSH3 0x9F5 JUMPI PUSH1 0x40 MLOAD PUSH3 0x461BCD PUSH1 0xE5 SHL DUP2 MSTORE PUSH1 0x20 PUSH1 0x4 DUP3 ADD MSTORE PUSH1 0x1A PUSH1 0x24 DUP3 ADD MSTORE PUSH32 0x5265666572656E6365494420646F6573206E6F74206578697374000000000000 PUSH1 0x44 DUP3 ADD MSTORE PUSH1 0x64 ADD PUSH3 0x5B3 JUMP JUMPDEST PUSH1 0x1 PUSH1 0x1 PUSH1 0xA0 SHL SUB DUP5 AND PUSH0 SWAP1 DUP2 MSTORE PUSH1 0xB PUSH1 0x20 MSTORE PUSH1 0x40 SWAP1 KECCAK256 SLOAD DUP3 GT ISZERO PUSH3 0xA53 JUMPI PUSH1 0x40 MLOAD PUSH3 0x461BCD PUSH1 0xE5 SHL DUP2 MSTORE PUSH1 0x20 PUSH1 0x4 DUP3 ADD MSTORE PUSH1 0x12 PUSH1 0x24 DUP3 ADD MSTORE PUSH18 0x4E6F7420656E6F7567682062616C616E6365 PUSH1 0x70 SHL PUSH1 0x44 DUP3 ADD MSTORE PUSH1 0x64 ADD PUSH3 0x5B3 JUMP JUMPDEST PUSH1 0x1 PUSH1 0x1 PUSH1 0xA0 SHL SUB DUP5 AND PUSH0 SWAP1 DUP2 MSTORE PUSH1 0xB PUSH1 0x20 MSTORE PUSH1 0x40 DUP2 KECCAK256 DUP1 SLOAD DUP5 SWAP3 SWAP1 PUSH3 0xA7C SWAP1 DUP5 SWAP1 PUSH3 0x1B1D JUMP JUMPDEST SWAP1 SWAP2 SSTORE POP POP PUSH3 0xA8D DUP4 DUP4 PUSH3 0xDFF JUMP JUMPDEST PUSH1 0x1 PUSH1 0x1 PUSH1 0xA0 SHL SUB DUP4 AND PUSH0 SWAP1 DUP2 MSTORE PUSH1 0xA PUSH1 0x20 MSTORE PUSH1 0x40 DUP2 KECCAK256 DUP1 SLOAD DUP5 SWAP3 SWAP1 PUSH3 0xAB6 SWAP1 DUP5 SWAP1 PUSH3 0x1D33 JUMP JUMPDEST SWAP1 SWAP2 SSTORE POP POP PUSH1 0x6 DUP1 SLOAD SWAP1 PUSH0 PUSH3 0xACC DUP4 PUSH3 0x1B8E JUMP JUMPDEST SWAP2 SWAP1 POP SSTORE POP PUSH32 0x195D340BD25BC3523C352BD8DC52C6887D0F5A23A8891381D5998C06D07575F6 PUSH1 0x6 SLOAD DUP6 DUP6 DUP6 DUP6 PUSH1 0x40 MLOAD PUSH3 0xB0C SWAP6 SWAP5 SWAP4 SWAP3 SWAP2 SWAP1 PUSH3 0x1D49 JUMP JUMPDEST PUSH1 0x40 MLOAD DUP1 SWAP2 SUB SWAP1 LOG1 POP POP POP POP JUMP JUMPDEST PUSH3 0xB24 PUSH3 0xD32 JUMP JUMPDEST PUSH3 0xB30 DUP3 DUP3 PUSH3 0x1189 JUMP JUMPDEST POP POP JUMP JUMPDEST CALLER PUSH0 SWAP1 DUP2 MSTORE PUSH1 0xC PUSH1 0x20 MSTORE PUSH1 0x40 SWAP1 KECCAK256 SLOAD PUSH1 0xFF AND PUSH3 0xB65 JUMPI PUSH1 0x40 MLOAD PUSH3 0x461BCD PUSH1 0xE5 SHL DUP2 MSTORE PUSH1 0x4 ADD PUSH3 0x5B3 SWAP1 PUSH3 0x1D0B JUMP JUMPDEST PUSH0 JUMPDEST DUP2 MLOAD DUP2 LT ISZERO PUSH3 0xB30 JUMPI PUSH3 0xBFE DUP3 DUP3 DUP2 MLOAD DUP2 LT PUSH3 0xB8A JUMPI PUSH3 0xB8A PUSH3 0x1D8E JUMP JUMPDEST PUSH1 0x20 MUL PUSH1 0x20 ADD ADD MLOAD PUSH0 ADD MLOAD DUP4 DUP4 DUP2 MLOAD DUP2 LT PUSH3 0xBAA JUMPI PUSH3 0xBAA PUSH3 0x1D8E JUMP JUMPDEST PUSH1 0x20 MUL PUSH1 0x20 ADD ADD MLOAD PUSH1 0x20 ADD MLOAD DUP5 DUP5 DUP2 MLOAD DUP2 LT PUSH3 0xBCB JUMPI PUSH3 0xBCB PUSH3 0x1D8E JUMP JUMPDEST PUSH1 0x20 MUL PUSH1 0x20 ADD ADD MLOAD PUSH1 0x40 ADD MLOAD DUP6 DUP6 DUP2 MLOAD DUP2 LT PUSH3 0xBEC JUMPI PUSH3 0xBEC PUSH3 0x1D8E JUMP JUMPDEST PUSH1 0x20 MUL PUSH1 0x20 ADD ADD MLOAD PUSH1 0x60 ADD MLOAD PUSH3 0x96C JUMP JUMPDEST DUP1 PUSH3 0xC0A DUP2 PUSH3 0x1B8E JUMP JUMPDEST SWAP2 POP POP PUSH3 0xB67 JUMP JUMPDEST PUSH1 0x2 SLOAD PUSH1 0x3 SLOAD PUSH1 0x40 MLOAD PUSH4 0x23B872DD PUSH1 0xE0 SHL DUP2 MSTORE PUSH1 0x1 PUSH1 0x1 PUSH1 0xA0 SHL SUB SWAP3 DUP4 AND SWAP3 DUP4 SWAP3 PUSH4 0x23B872DD SWAP3 PUSH3 0xC4E SWAP3 CALLER SWAP3 AND SWAP1 DUP8 SWAP1 PUSH1 0x4 ADD PUSH3 0x1AC7 JUMP JUMPDEST PUSH1 0x20 PUSH1 0x40 MLOAD DUP1 DUP4 SUB DUP2 PUSH0 DUP8 GAS CALL ISZERO DUP1 ISZERO PUSH3 0xC6B JUMPI RETURNDATASIZE PUSH0 DUP1 RETURNDATACOPY RETURNDATASIZE PUSH0 REVERT JUMPDEST POP POP POP POP PUSH1 0x40 MLOAD RETURNDATASIZE PUSH1 0x1F NOT PUSH1 0x1F DUP3 ADD AND DUP3 ADD DUP1 PUSH1 0x40 MSTORE POP DUP2 ADD SWAP1 PUSH3 0xC91 SWAP2 SWAP1 PUSH3 0x1AEB JUMP JUMPDEST POP CALLER PUSH0 SWAP1 DUP2 MSTORE PUSH1 0xB PUSH1 0x20 MSTORE PUSH1 0x40 DUP2 KECCAK256 DUP1 SLOAD DUP5 SWAP3 SWAP1 PUSH3 0xCB2 SWAP1 DUP5 SWAP1 PUSH3 0x1D33 JUMP JUMPDEST SWAP1 SWAP2 SSTORE POP POP PUSH1 0x40 DUP1 MLOAD CALLER DUP2 MSTORE PUSH1 0x20 DUP2 ADD DUP5 SWAP1 MSTORE PUSH32 0xB9A1BFFB5AD7FCAEB79FE2262EE61BC2B44689DF94BB558F7E70EAC20CBD0A05 SWAP2 ADD PUSH3 0x418 JUMP JUMPDEST PUSH3 0xCF8 PUSH3 0xD32 JUMP JUMPDEST PUSH1 0x1 PUSH1 0x1 PUSH1 0xA0 SHL SUB DUP2 AND PUSH3 0xD24 JUMPI PUSH0 PUSH1 0x40 MLOAD PUSH4 0x1E4FBDF7 PUSH1 0xE0 SHL DUP2 MSTORE PUSH1 0x4 ADD PUSH3 0x5B3 SWAP2 SWAP1 PUSH3 0x16EE JUMP JUMPDEST PUSH3 0xD2F DUP2 PUSH3 0xD98 JUMP JUMPDEST POP JUMP JUMPDEST PUSH0 SLOAD PUSH1 0x1 PUSH1 0x1 PUSH1 0xA0 SHL SUB AND CALLER EQ PUSH3 0x752 JUMPI CALLER PUSH1 0x40 MLOAD PUSH4 0x118CDAA7 PUSH1 0xE0 SHL DUP2 MSTORE PUSH1 0x4 ADD PUSH3 0x5B3 SWAP2 SWAP1 PUSH3 0x16EE JUMP JUMPDEST PUSH0 DUP1 DUP1 DUP1 PUSH3 0xD71 DUP7 DUP7 PUSH3 0x1228 JUMP JUMPDEST SWAP1 SWAP5 POP SWAP3 POP POP POP JUMPDEST SWAP3 POP SWAP3 SWAP1 POP JUMP JUMPDEST PUSH0 PUSH3 0xD8E DUP5 DUP5 DUP5 PUSH3 0x1265 JUMP JUMPDEST SWAP1 POP JUMPDEST SWAP4 SWAP3 POP POP POP JUMP JUMPDEST PUSH0 DUP1 SLOAD PUSH1 0x1 PUSH1 0x1 PUSH1 0xA0 SHL SUB DUP4 DUP2 AND PUSH1 0x1 PUSH1 0x1 PUSH1 0xA0 SHL SUB NOT DUP4 AND DUP2 OR DUP5 SSTORE PUSH1 0x40 MLOAD SWAP2 SWAP1 SWAP3 AND SWAP3 DUP4 SWAP2 PUSH32 0x8BE0079C531659141344CD1FD0A4F28419497F9722A3DAAFE3B4186F6B6457E0 SWAP2 SWAP1 LOG3 POP POP JUMP JUMPDEST PUSH1 0x60 PUSH3 0x466 PUSH1 0x1 PUSH1 0x1 PUSH1 0xA0 SHL SUB DUP4 AND PUSH1 0x14 PUSH3 0x1283 JUMP JUMPDEST DUP2 PUSH0 JUMPDEST DUP2 PUSH1 0x1 PUSH1 0x1 PUSH1 0xA0 SHL SUB AND PUSH4 0x18160DDD PUSH1 0x40 MLOAD DUP2 PUSH4 0xFFFFFFFF AND PUSH1 0xE0 SHL DUP2 MSTORE PUSH1 0x4 ADD PUSH1 0x20 PUSH1 0x40 MLOAD DUP1 DUP4 SUB DUP2 DUP7 GAS STATICCALL ISZERO DUP1 ISZERO PUSH3 0xE3F JUMPI RETURNDATASIZE PUSH0 DUP1 RETURNDATACOPY RETURNDATASIZE PUSH0 REVERT JUMPDEST POP POP POP POP PUSH1 0x40 MLOAD RETURNDATASIZE PUSH1 0x1F NOT PUSH1 0x1F DUP3 ADD AND DUP3 ADD DUP1 PUSH1 0x40 MSTORE POP DUP2 ADD SWAP1 PUSH3 0xE65 SWAP2 SWAP1 PUSH3 0x1DA2 JUMP JUMPDEST DUP2 LT ISZERO PUSH3 0x1183 JUMPI PUSH1 0x40 MLOAD PUSH4 0x4F6CCCE7 PUSH1 0xE0 SHL DUP2 MSTORE PUSH1 0x4 DUP2 ADD DUP3 SWAP1 MSTORE PUSH0 SWAP1 PUSH1 0x1 PUSH1 0x1 PUSH1 0xA0 SHL SUB DUP5 AND SWAP1 PUSH4 0x9CC7F708 SWAP1 DUP3 SWAP1 PUSH4 0x4F6CCCE7 SWAP1 PUSH1 0x24 ADD PUSH1 0x20 PUSH1 0x40 MLOAD DUP1 DUP4 SUB DUP2 DUP7 GAS STATICCALL ISZERO DUP1 ISZERO PUSH3 0xEBB JUMPI RETURNDATASIZE PUSH0 DUP1 RETURNDATACOPY RETURNDATASIZE PUSH0 REVERT JUMPDEST POP POP POP POP PUSH1 0x40 MLOAD RETURNDATASIZE PUSH1 0x1F NOT PUSH1 0x1F DUP3 ADD AND DUP3 ADD DUP1 PUSH1 0x40 MSTORE POP DUP2 ADD SWAP1 PUSH3 0xEE1 SWAP2 SWAP1 PUSH3 0x1DA2 JUMP JUMPDEST PUSH1 0x40 MLOAD DUP3 PUSH4 0xFFFFFFFF AND PUSH1 0xE0 SHL DUP2 MSTORE PUSH1 0x4 ADD PUSH3 0xF00 SWAP2 DUP2 MSTORE PUSH1 0x20 ADD SWAP1 JUMP JUMPDEST PUSH1 0x20 PUSH1 0x40 MLOAD DUP1 DUP4 SUB DUP2 DUP7 GAS STATICCALL ISZERO DUP1 ISZERO PUSH3 0xF1C JUMPI RETURNDATASIZE PUSH0 DUP1 RETURNDATACOPY RETURNDATASIZE PUSH0 REVERT JUMPDEST POP POP POP POP PUSH1 0x40 MLOAD RETURNDATASIZE PUSH1 0x1F NOT PUSH1 0x1F DUP3 ADD AND DUP3 ADD DUP1 PUSH1 0x40 MSTORE POP DUP2 ADD SWAP1 PUSH3 0xF42 SWAP2 SWAP1 PUSH3 0x1DA2 JUMP JUMPDEST SWAP1 POP PUSH0 DUP4 PUSH1 0x1 PUSH1 0x1 PUSH1 0xA0 SHL SUB AND PUSH4 0x5A3C7DA7 PUSH1 0x7 SLOAD PUSH1 0x40 MLOAD DUP3 PUSH4 0xFFFFFFFF AND PUSH1 0xE0 SHL DUP2 MSTORE PUSH1 0x4 ADD PUSH3 0xF76 SWAP2 DUP2 MSTORE PUSH1 0x20 ADD SWAP1 JUMP JUMPDEST PUSH1 0x20 PUSH1 0x40 MLOAD DUP1 DUP4 SUB DUP2 DUP7 GAS STATICCALL ISZERO DUP1 ISZERO PUSH3 0xF92 JUMPI RETURNDATASIZE PUSH0 DUP1 RETURNDATACOPY RETURNDATASIZE PUSH0 REVERT JUMPDEST POP POP POP POP PUSH1 0x40 MLOAD RETURNDATASIZE PUSH1 0x1F NOT PUSH1 0x1F DUP3 ADD AND DUP3 ADD DUP1 PUSH1 0x40 MSTORE POP DUP2 ADD SWAP1 PUSH3 0xFB8 SWAP2 SWAP1 PUSH3 0x1DA2 JUMP JUMPDEST SWAP1 POP PUSH0 PUSH3 0xFC8 DUP7 DUP5 DUP5 PUSH3 0x141A JUMP JUMPDEST PUSH1 0x1 PUSH1 0x1 PUSH1 0xA0 SHL SUB DUP9 DUP2 AND PUSH0 SWAP1 DUP2 MSTORE PUSH1 0xD PUSH1 0x20 MSTORE PUSH1 0x40 DUP1 DUP3 KECCAK256 SWAP1 MLOAD PUSH4 0x4F6CCCE7 PUSH1 0xE0 SHL DUP2 MSTORE PUSH1 0x4 DUP2 ADD DUP10 SWAP1 MSTORE SWAP4 SWAP5 POP SWAP3 SWAP1 SWAP2 DUP3 SWAP2 PUSH3 0x1057 SWAP2 DUP11 AND SWAP1 PUSH4 0x4F6CCCE7 SWAP1 PUSH1 0x24 ADD PUSH1 0x20 PUSH1 0x40 MLOAD DUP1 DUP4 SUB DUP2 DUP7 GAS STATICCALL ISZERO DUP1 ISZERO PUSH3 0x1029 JUMPI RETURNDATASIZE PUSH0 DUP1 RETURNDATACOPY RETURNDATASIZE PUSH0 REVERT JUMPDEST POP POP POP POP PUSH1 0x40 MLOAD RETURNDATASIZE PUSH1 0x1F NOT PUSH1 0x1F DUP3 ADD AND DUP3 ADD DUP1 PUSH1 0x40 MSTORE POP DUP2 ADD SWAP1 PUSH3 0x104F SWAP2 SWAP1 PUSH3 0x1DA2 JUMP JUMPDEST DUP5 SWAP1 PUSH3 0xD61 JUMP JUMPDEST SWAP2 POP SWAP2 POP DUP2 ISZERO PUSH3 0x10ED JUMPI PUSH1 0x40 MLOAD PUSH4 0x4F6CCCE7 PUSH1 0xE0 SHL DUP2 MSTORE PUSH1 0x4 DUP2 ADD DUP9 SWAP1 MSTORE PUSH3 0x10E6 SWAP1 PUSH1 0x1 PUSH1 0x1 PUSH1 0xA0 SHL SUB DUP11 AND SWAP1 PUSH4 0x4F6CCCE7 SWAP1 PUSH1 0x24 ADD PUSH1 0x20 PUSH1 0x40 MLOAD DUP1 DUP4 SUB DUP2 DUP7 GAS STATICCALL ISZERO DUP1 ISZERO PUSH3 0x10AB JUMPI RETURNDATASIZE PUSH0 DUP1 RETURNDATACOPY RETURNDATASIZE PUSH0 REVERT JUMPDEST POP POP POP POP PUSH1 0x40 MLOAD RETURNDATASIZE PUSH1 0x1F NOT PUSH1 0x1F DUP3 ADD AND DUP3 ADD DUP1 PUSH1 0x40 MSTORE POP DUP2 ADD SWAP1 PUSH3 0x10D1 SWAP2 SWAP1 PUSH3 0x1DA2 JUMP JUMPDEST PUSH3 0x10DD DUP7 DUP5 PUSH3 0x1D33 JUMP JUMPDEST DUP6 SWAP2 SWAP1 PUSH3 0xD80 JUMP JUMPDEST POP PUSH3 0x1167 JUMP JUMPDEST PUSH1 0x40 MLOAD PUSH4 0x4F6CCCE7 PUSH1 0xE0 SHL DUP2 MSTORE PUSH1 0x4 DUP2 ADD DUP9 SWAP1 MSTORE PUSH3 0x1165 SWAP1 PUSH1 0x1 PUSH1 0x1 PUSH1 0xA0 SHL SUB DUP11 AND SWAP1 PUSH4 0x4F6CCCE7 SWAP1 PUSH1 0x24 ADD PUSH1 0x20 PUSH1 0x40 MLOAD DUP1 DUP4 SUB DUP2 DUP7 GAS STATICCALL ISZERO DUP1 ISZERO PUSH3 0x1136 JUMPI RETURNDATASIZE PUSH0 DUP1 RETURNDATACOPY RETURNDATASIZE PUSH0 REVERT JUMPDEST POP POP POP POP PUSH1 0x40 MLOAD RETURNDATASIZE PUSH1 0x1F NOT PUSH1 0x1F DUP3 ADD AND DUP3 ADD DUP1 PUSH1 0x40 MSTORE POP DUP2 ADD SWAP1 PUSH3 0x115C SWAP2 SWAP1 PUSH3 0x1DA2 JUMP JUMPDEST DUP5 SWAP1 DUP7 PUSH3 0xD80 JUMP JUMPDEST POP JUMPDEST POP POP POP POP POP POP DUP1 DUP1 PUSH3 0x117A SWAP1 PUSH3 0x1B8E JUMP JUMPDEST SWAP2 POP POP PUSH3 0xE02 JUMP JUMPDEST POP POP POP POP JUMP JUMPDEST PUSH1 0x40 MLOAD PUSH4 0x55F804B3 PUSH1 0xE0 SHL DUP2 MSTORE DUP3 SWAP1 PUSH1 0x1 PUSH1 0x1 PUSH1 0xA0 SHL SUB DUP3 AND SWAP1 PUSH4 0x55F804B3 SWAP1 PUSH3 0x11B9 SWAP1 DUP6 SWAP1 PUSH1 0x4 ADD PUSH3 0x16DA JUMP JUMPDEST PUSH0 PUSH1 0x40 MLOAD DUP1 DUP4 SUB DUP2 PUSH0 DUP8 DUP1 EXTCODESIZE ISZERO DUP1 ISZERO PUSH3 0x11D1 JUMPI PUSH0 DUP1 REVERT JUMPDEST POP GAS CALL ISZERO DUP1 ISZERO PUSH3 0x11E4 JUMPI RETURNDATASIZE PUSH0 DUP1 RETURNDATACOPY RETURNDATASIZE PUSH0 REVERT JUMPDEST POP POP POP POP PUSH32 0x7EB791E08C7B6C3F7A499BF994DE4D69A010CEEEB80498FA066F6E276E5F9170 DUP4 DUP4 PUSH1 0x40 MLOAD PUSH3 0x121B SWAP3 SWAP2 SWAP1 PUSH3 0x1DBA JUMP JUMPDEST PUSH1 0x40 MLOAD DUP1 SWAP2 SUB SWAP1 LOG1 POP POP POP JUMP JUMPDEST PUSH0 DUP2 DUP2 MSTORE PUSH1 0x2 DUP4 ADD PUSH1 0x20 MSTORE PUSH1 0x40 DUP2 KECCAK256 SLOAD DUP2 SWAP1 DUP1 PUSH3 0x1259 JUMPI PUSH3 0x124C DUP6 DUP6 PUSH3 0x1456 JUMP JUMPDEST SWAP3 POP PUSH0 SWAP2 POP PUSH3 0xD79 SWAP1 POP JUMP JUMPDEST PUSH1 0x1 SWAP3 POP SWAP1 POP PUSH3 0xD79 JUMP JUMPDEST PUSH0 DUP3 DUP2 MSTORE PUSH1 0x2 DUP5 ADD PUSH1 0x20 MSTORE PUSH1 0x40 DUP2 KECCAK256 DUP3 SWAP1 SSTORE PUSH3 0xD8E DUP5 DUP5 PUSH3 0x1463 JUMP JUMPDEST PUSH1 0x60 DUP3 PUSH0 PUSH3 0x1294 DUP5 PUSH1 0x2 PUSH3 0x1DDF JUMP JUMPDEST PUSH3 0x12A1 SWAP1 PUSH1 0x2 PUSH3 0x1D33 JUMP JUMPDEST PUSH1 0x1 PUSH1 0x1 PUSH1 0x40 SHL SUB DUP2 GT ISZERO PUSH3 0x12BB JUMPI PUSH3 0x12BB PUSH3 0x1702 JUMP JUMPDEST PUSH1 0x40 MLOAD SWAP1 DUP1 DUP3 MSTORE DUP1 PUSH1 0x1F ADD PUSH1 0x1F NOT AND PUSH1 0x20 ADD DUP3 ADD PUSH1 0x40 MSTORE DUP1 ISZERO PUSH3 0x12E6 JUMPI PUSH1 0x20 DUP3 ADD DUP2 DUP1 CALLDATASIZE DUP4 CALLDATACOPY ADD SWAP1 POP JUMPDEST POP SWAP1 POP PUSH1 0x3 PUSH1 0xFC SHL DUP2 PUSH0 DUP2 MLOAD DUP2 LT PUSH3 0x1303 JUMPI PUSH3 0x1303 PUSH3 0x1D8E JUMP JUMPDEST PUSH1 0x20 ADD ADD SWAP1 PUSH1 0x1 PUSH1 0x1 PUSH1 0xF8 SHL SUB NOT AND SWAP1 DUP2 PUSH0 BYTE SWAP1 MSTORE8 POP PUSH1 0xF PUSH1 0xFB SHL DUP2 PUSH1 0x1 DUP2 MLOAD DUP2 LT PUSH3 0x1334 JUMPI PUSH3 0x1334 PUSH3 0x1D8E JUMP JUMPDEST PUSH1 0x20 ADD ADD SWAP1 PUSH1 0x1 PUSH1 0x1 PUSH1 0xF8 SHL SUB NOT AND SWAP1 DUP2 PUSH0 BYTE SWAP1 MSTORE8 POP PUSH0 PUSH3 0x1358 DUP6 PUSH1 0x2 PUSH3 0x1DDF JUMP JUMPDEST PUSH3 0x1365 SWAP1 PUSH1 0x1 PUSH3 0x1D33 JUMP JUMPDEST SWAP1 POP JUMPDEST PUSH1 0x1 DUP2 GT ISZERO PUSH3 0x13E6 JUMPI PUSH16 0x181899199A1A9B1B9C1CB0B131B232B3 PUSH1 0x81 SHL DUP4 PUSH1 0xF AND PUSH1 0x10 DUP2 LT PUSH3 0x139D JUMPI PUSH3 0x139D PUSH3 0x1D8E JUMP JUMPDEST BYTE PUSH1 0xF8 SHL DUP3 DUP3 DUP2 MLOAD DUP2 LT PUSH3 0x13B6 JUMPI PUSH3 0x13B6 PUSH3 0x1D8E JUMP JUMPDEST PUSH1 0x20 ADD ADD SWAP1 PUSH1 0x1 PUSH1 0x1 PUSH1 0xF8 SHL SUB NOT AND SWAP1 DUP2 PUSH0 BYTE SWAP1 MSTORE8 POP PUSH1 0x4 SWAP3 SWAP1 SWAP3 SHR SWAP2 PUSH3 0x13DE DUP2 PUSH3 0x1DF9 JUMP JUMPDEST SWAP1 POP PUSH3 0x1368 JUMP JUMPDEST POP DUP2 ISZERO PUSH3 0x1412 JUMPI PUSH1 0x40 MLOAD PUSH4 0xE22E27EB PUSH1 0xE0 SHL DUP2 MSTORE PUSH1 0x4 DUP2 ADD DUP7 SWAP1 MSTORE PUSH1 0x24 DUP2 ADD DUP6 SWAP1 MSTORE PUSH1 0x44 ADD PUSH3 0x5B3 JUMP JUMPDEST SWAP5 SWAP4 POP POP POP POP JUMP JUMPDEST PUSH0 DUP2 ISZERO DUP1 PUSH3 0x1427 JUMPI POP DUP4 ISZERO JUMPDEST DUP1 PUSH3 0x1431 JUMPI POP DUP3 ISZERO JUMPDEST ISZERO PUSH3 0x143F JUMPI POP PUSH0 PUSH3 0xD91 JUMP JUMPDEST PUSH0 PUSH3 0x144D DUP6 DUP6 DUP6 PUSH3 0x1470 JUMP JUMPDEST SWAP6 SWAP5 POP POP POP POP POP JUMP JUMPDEST PUSH0 PUSH3 0xD91 DUP4 DUP4 PUSH3 0x1535 JUMP JUMPDEST PUSH0 PUSH3 0xD91 DUP4 DUP4 PUSH3 0x154D JUMP JUMPDEST PUSH0 DUP4 DUP4 MUL DUP2 PUSH0 NOT DUP6 DUP8 MULMOD DUP3 DUP2 LT DUP4 DUP3 SUB SUB SWAP2 POP POP DUP1 PUSH0 SUB PUSH3 0x14A9 JUMPI DUP4 DUP3 DUP2 PUSH3 0x149E JUMPI PUSH3 0x149E PUSH3 0x1E11 JUMP JUMPDEST DIV SWAP3 POP POP POP PUSH3 0xD91 JUMP JUMPDEST DUP1 DUP5 GT PUSH3 0x14CA JUMPI PUSH1 0x40 MLOAD PUSH4 0x227BC153 PUSH1 0xE0 SHL DUP2 MSTORE PUSH1 0x4 ADD PUSH1 0x40 MLOAD DUP1 SWAP2 SUB SWAP1 REVERT JUMPDEST PUSH0 DUP5 DUP7 DUP9 MULMOD PUSH0 DUP7 DUP2 SUB DUP8 AND SWAP7 DUP8 SWAP1 DIV SWAP7 PUSH1 0x2 PUSH1 0x3 DUP10 MUL DUP2 XOR DUP1 DUP11 MUL DUP3 SUB MUL DUP1 DUP11 MUL DUP3 SUB MUL DUP1 DUP11 MUL DUP3 SUB MUL DUP1 DUP11 MUL DUP3 SUB MUL DUP1 DUP11 MUL DUP3 SUB MUL DUP1 DUP11 MUL SWAP1 SWAP2 SUB MUL SWAP2 DUP2 SWAP1 SUB DUP2 SWAP1 DIV PUSH1 0x1 ADD DUP7 DUP5 GT SWAP1 SWAP6 SUB SWAP5 SWAP1 SWAP5 MUL SWAP2 SWAP1 SWAP5 SUB SWAP3 SWAP1 SWAP3 DIV SWAP2 SWAP1 SWAP2 OR SWAP2 SWAP1 SWAP2 MUL SWAP2 POP POP SWAP4 SWAP3 POP POP POP JUMP JUMPDEST PUSH0 DUP2 DUP2 MSTORE PUSH1 0x1 DUP4 ADD PUSH1 0x20 MSTORE PUSH1 0x40 DUP2 KECCAK256 SLOAD ISZERO ISZERO PUSH3 0xD91 JUMP JUMPDEST PUSH0 DUP2 DUP2 MSTORE PUSH1 0x1 DUP4 ADD PUSH1 0x20 MSTORE PUSH1 0x40 DUP2 KECCAK256 SLOAD PUSH3 0x1594 JUMPI POP DUP2 SLOAD PUSH1 0x1 DUP2 DUP2 ADD DUP5 SSTORE PUSH0 DUP5 DUP2 MSTORE PUSH1 0x20 DUP1 DUP3 KECCAK256 SWAP1 SWAP4 ADD DUP5 SWAP1 SSTORE DUP5 SLOAD DUP5 DUP3 MSTORE DUP3 DUP7 ADD SWAP1 SWAP4 MSTORE PUSH1 0x40 SWAP1 KECCAK256 SWAP2 SWAP1 SWAP2 SSTORE PUSH3 0x466 JUMP JUMPDEST POP PUSH0 PUSH3 0x466 JUMP JUMPDEST PUSH2 0x3EDB DUP1 PUSH3 0x1E26 DUP4 CODECOPY ADD SWAP1 JUMP JUMPDEST PUSH1 0x1 PUSH1 0x1 PUSH1 0xA0 SHL SUB DUP2 AND DUP2 EQ PUSH3 0xD2F JUMPI PUSH0 DUP1 REVERT JUMPDEST PUSH0 PUSH1 0x20 DUP3 DUP5 SUB SLT ISZERO PUSH3 0x15D0 JUMPI PUSH0 DUP1 REVERT JUMPDEST DUP2 CALLDATALOAD PUSH3 0xD91 DUP2 PUSH3 0x15AA JUMP JUMPDEST DUP1 ISZERO ISZERO DUP2 EQ PUSH3 0xD2F JUMPI PUSH0 DUP1 REVERT JUMPDEST PUSH0 DUP1 PUSH1 0x40 DUP4 DUP6 SUB SLT ISZERO PUSH3 0x15FD JUMPI PUSH0 DUP1 REVERT JUMPDEST DUP3 CALLDATALOAD PUSH3 0x160A DUP2 PUSH3 0x15AA JUMP JUMPDEST SWAP2 POP PUSH1 0x20 DUP4 ADD CALLDATALOAD PUSH3 0x161C DUP2 PUSH3 0x15DD JUMP JUMPDEST DUP1 SWAP2 POP POP SWAP3 POP SWAP3 SWAP1 POP JUMP JUMPDEST PUSH0 DUP1 PUSH1 0x40 DUP4 DUP6 SUB SLT ISZERO PUSH3 0x1639 JUMPI PUSH0 DUP1 REVERT JUMPDEST DUP3 CALLDATALOAD PUSH3 0x1646 DUP2 PUSH3 0x15AA JUMP JUMPDEST SWAP5 PUSH1 0x20 SWAP4 SWAP1 SWAP4 ADD CALLDATALOAD SWAP4 POP POP POP JUMP JUMPDEST PUSH0 DUP1 PUSH0 PUSH1 0x60 DUP5 DUP7 SUB SLT ISZERO PUSH3 0x1667 JUMPI PUSH0 DUP1 REVERT JUMPDEST DUP4 CALLDATALOAD PUSH3 0x1674 DUP2 PUSH3 0x15AA JUMP JUMPDEST SWAP6 PUSH1 0x20 DUP6 ADD CALLDATALOAD SWAP6 POP PUSH1 0x40 SWAP1 SWAP5 ADD CALLDATALOAD SWAP4 SWAP3 POP POP POP JUMP JUMPDEST PUSH0 JUMPDEST DUP4 DUP2 LT ISZERO PUSH3 0x16A5 JUMPI DUP2 DUP2 ADD MLOAD DUP4 DUP3 ADD MSTORE PUSH1 0x20 ADD PUSH3 0x168B JUMP JUMPDEST POP POP PUSH0 SWAP2 ADD MSTORE JUMP JUMPDEST PUSH0 DUP2 MLOAD DUP1 DUP5 MSTORE PUSH3 0x16C6 DUP2 PUSH1 0x20 DUP7 ADD PUSH1 0x20 DUP7 ADD PUSH3 0x1689 JUMP JUMPDEST PUSH1 0x1F ADD PUSH1 0x1F NOT AND SWAP3 SWAP1 SWAP3 ADD PUSH1 0x20 ADD SWAP3 SWAP2 POP POP JUMP JUMPDEST PUSH1 0x20 DUP2 MSTORE PUSH0 PUSH3 0xD91 PUSH1 0x20 DUP4 ADD DUP5 PUSH3 0x16AD JUMP JUMPDEST PUSH1 0x1 PUSH1 0x1 PUSH1 0xA0 SHL SUB SWAP2 SWAP1 SWAP2 AND DUP2 MSTORE PUSH1 0x20 ADD SWAP1 JUMP JUMPDEST PUSH4 0x4E487B71 PUSH1 0xE0 SHL PUSH0 MSTORE PUSH1 0x41 PUSH1 0x4 MSTORE PUSH1 0x24 PUSH0 REVERT JUMPDEST PUSH1 0x40 MLOAD PUSH1 0x80 DUP2 ADD PUSH1 0x1 PUSH1 0x1 PUSH1 0x40 SHL SUB DUP2 GT DUP3 DUP3 LT OR ISZERO PUSH3 0x173B JUMPI PUSH3 0x173B PUSH3 0x1702 JUMP JUMPDEST PUSH1 0x40 MSTORE SWAP1 JUMP JUMPDEST PUSH1 0x40 MLOAD PUSH1 0x1F DUP3 ADD PUSH1 0x1F NOT AND DUP2 ADD PUSH1 0x1 PUSH1 0x1 PUSH1 0x40 SHL SUB DUP2 GT DUP3 DUP3 LT OR ISZERO PUSH3 0x176C JUMPI PUSH3 0x176C PUSH3 0x1702 JUMP JUMPDEST PUSH1 0x40 MSTORE SWAP2 SWAP1 POP JUMP JUMPDEST PUSH0 DUP3 PUSH1 0x1F DUP4 ADD SLT PUSH3 0x1784 JUMPI PUSH0 DUP1 REVERT JUMPDEST DUP2 CALLDATALOAD PUSH1 0x1 PUSH1 0x1 PUSH1 0x40 SHL SUB DUP2 GT ISZERO PUSH3 0x17A0 JUMPI PUSH3 0x17A0 PUSH3 0x1702 JUMP JUMPDEST PUSH3 0x17B5 PUSH1 0x1F DUP3 ADD PUSH1 0x1F NOT AND PUSH1 0x20 ADD PUSH3 0x1741 JUMP JUMPDEST DUP2 DUP2 MSTORE DUP5 PUSH1 0x20 DUP4 DUP7 ADD ADD GT ISZERO PUSH3 0x17CA JUMPI PUSH0 DUP1 REVERT JUMPDEST DUP2 PUSH1 0x20 DUP6 ADD PUSH1 0x20 DUP4 ADD CALLDATACOPY PUSH0 SWAP2 DUP2 ADD PUSH1 0x20 ADD SWAP2 SWAP1 SWAP2 MSTORE SWAP4 SWAP3 POP POP POP JUMP JUMPDEST PUSH0 DUP1 PUSH0 DUP1 PUSH0 DUP1 PUSH1 0xC0 DUP8 DUP10 SUB SLT ISZERO PUSH3 0x17FC JUMPI PUSH0 DUP1 REVERT JUMPDEST DUP7 CALLDATALOAD PUSH1 0x1 PUSH1 0x1 PUSH1 0x40 SHL SUB DUP1 DUP3 GT ISZERO PUSH3 0x1813 JUMPI PUSH0 DUP1 REVERT JUMPDEST PUSH3 0x1821 DUP11 DUP4 DUP12 ADD PUSH3 0x1774 JUMP JUMPDEST SWAP8 POP PUSH1 0x20 DUP10 ADD CALLDATALOAD SWAP2 POP DUP1 DUP3 GT ISZERO PUSH3 0x1837 JUMPI PUSH0 DUP1 REVERT JUMPDEST PUSH3 0x1845 DUP11 DUP4 DUP12 ADD PUSH3 0x1774 JUMP JUMPDEST SWAP7 POP PUSH1 0x40 DUP10 ADD CALLDATALOAD SWAP6 POP PUSH1 0x60 DUP10 ADD CALLDATALOAD SWAP5 POP PUSH1 0x80 DUP10 ADD CALLDATALOAD SWAP2 POP PUSH3 0x1867 DUP3 PUSH3 0x15AA JUMP JUMPDEST SWAP1 SWAP3 POP PUSH1 0xA0 DUP9 ADD CALLDATALOAD SWAP1 DUP1 DUP3 GT ISZERO PUSH3 0x187D JUMPI PUSH0 DUP1 REVERT JUMPDEST POP PUSH3 0x188C DUP10 DUP3 DUP11 ADD PUSH3 0x1774 JUMP JUMPDEST SWAP2 POP POP SWAP3 SWAP6 POP SWAP3 SWAP6 POP SWAP3 SWAP6 JUMP JUMPDEST PUSH0 DUP1 PUSH0 DUP1 PUSH1 0x80 DUP6 DUP8 SUB SLT ISZERO PUSH3 0x18AD JUMPI PUSH0 DUP1 REVERT JUMPDEST DUP5 CALLDATALOAD PUSH3 0x18BA DUP2 PUSH3 0x15AA JUMP JUMPDEST SWAP4 POP PUSH1 0x20 DUP6 ADD CALLDATALOAD PUSH3 0x18CC DUP2 PUSH3 0x15AA JUMP JUMPDEST SWAP3 POP PUSH1 0x40 DUP6 ADD CALLDATALOAD SWAP2 POP PUSH1 0x60 DUP6 ADD CALLDATALOAD PUSH1 0x1 PUSH1 0x1 PUSH1 0x40 SHL SUB DUP2 GT ISZERO PUSH3 0x18EE JUMPI PUSH0 DUP1 REVERT JUMPDEST PUSH3 0x18FC DUP8 DUP3 DUP9 ADD PUSH3 0x1774 JUMP JUMPDEST SWAP2 POP POP SWAP3 SWAP6 SWAP2 SWAP5 POP SWAP3 POP JUMP JUMPDEST PUSH0 PUSH1 0x20 DUP3 DUP5 SUB SLT ISZERO PUSH3 0x1919 JUMPI PUSH0 DUP1 REVERT JUMPDEST POP CALLDATALOAD SWAP2 SWAP1 POP JUMP JUMPDEST PUSH0 DUP1 PUSH1 0x40 DUP4 DUP6 SUB SLT ISZERO PUSH3 0x1932 JUMPI PUSH0 DUP1 REVERT JUMPDEST DUP3 CALLDATALOAD PUSH3 0x193F DUP2 PUSH3 0x15AA JUMP JUMPDEST SWAP2 POP PUSH1 0x20 DUP4 ADD CALLDATALOAD PUSH1 0x1 PUSH1 0x1 PUSH1 0x40 SHL SUB DUP2 GT ISZERO PUSH3 0x195A JUMPI PUSH0 DUP1 REVERT JUMPDEST PUSH3 0x1968 DUP6 DUP3 DUP7 ADD PUSH3 0x1774 JUMP JUMPDEST SWAP2 POP POP SWAP3 POP SWAP3 SWAP1 POP JUMP JUMPDEST PUSH0 PUSH1 0x20 DUP1 DUP4 DUP6 SUB SLT ISZERO PUSH3 0x1984 JUMPI PUSH0 DUP1 REVERT JUMPDEST DUP3 CALLDATALOAD PUSH1 0x1 PUSH1 0x1 PUSH1 0x40 SHL SUB DUP1 DUP3 GT ISZERO PUSH3 0x199B JUMPI PUSH0 DUP1 REVERT JUMPDEST DUP2 DUP6 ADD SWAP2 POP DUP6 PUSH1 0x1F DUP4 ADD SLT PUSH3 0x19AF JUMPI PUSH0 DUP1 REVERT JUMPDEST DUP2 CALLDATALOAD DUP2 DUP2 GT ISZERO PUSH3 0x19C4 JUMPI PUSH3 0x19C4 PUSH3 0x1702 JUMP JUMPDEST DUP1 PUSH1 0x5 SHL PUSH3 0x19D5 DUP6 DUP3 ADD PUSH3 0x1741 JUMP JUMPDEST SWAP2 DUP3 MSTORE DUP4 DUP2 ADD DUP6 ADD SWAP2 DUP6 DUP2 ADD SWAP1 DUP10 DUP5 GT ISZERO PUSH3 0x19EF JUMPI PUSH0 DUP1 REVERT JUMPDEST DUP7 DUP7 ADD SWAP3 POP JUMPDEST DUP4 DUP4 LT ISZERO PUSH3 0x1A9C JUMPI DUP3 CALLDATALOAD DUP6 DUP2 GT ISZERO PUSH3 0x1A0E JUMPI PUSH0 DUP1 DUP2 REVERT JUMPDEST DUP7 ADD PUSH1 0x80 DUP2 DUP13 SUB PUSH1 0x1F NOT ADD DUP2 SGT ISZERO PUSH3 0x1A26 JUMPI PUSH0 DUP1 DUP2 REVERT JUMPDEST PUSH3 0x1A30 PUSH3 0x1716 JUMP JUMPDEST DUP10 DUP4 ADD CALLDATALOAD PUSH3 0x1A3F DUP2 PUSH3 0x15AA JUMP JUMPDEST DUP2 MSTORE PUSH1 0x40 DUP4 DUP2 ADD CALLDATALOAD PUSH3 0x1A52 DUP2 PUSH3 0x15AA JUMP JUMPDEST DUP3 DUP13 ADD MSTORE PUSH1 0x60 DUP5 DUP2 ADD CALLDATALOAD DUP3 DUP5 ADD MSTORE SWAP3 DUP5 ADD CALLDATALOAD SWAP3 DUP10 DUP5 GT ISZERO PUSH3 0x1A75 JUMPI PUSH0 SWAP2 POP DUP2 DUP3 REVERT JUMPDEST PUSH3 0x1A85 DUP16 DUP14 DUP7 DUP9 ADD ADD PUSH3 0x1774 JUMP JUMPDEST SWAP1 DUP4 ADD MSTORE POP DUP5 MSTORE POP POP SWAP2 DUP7 ADD SWAP2 SWAP1 DUP7 ADD SWAP1 PUSH3 0x19F5 JUMP JUMPDEST SWAP10 SWAP9 POP POP POP POP POP POP POP POP POP JUMP JUMPDEST PUSH0 PUSH1 0x20 DUP3 DUP5 SUB SLT ISZERO PUSH3 0x1ABA JUMPI PUSH0 DUP1 REVERT JUMPDEST DUP2 MLOAD PUSH3 0xD91 DUP2 PUSH3 0x15AA JUMP JUMPDEST PUSH1 0x1 PUSH1 0x1 PUSH1 0xA0 SHL SUB SWAP4 DUP5 AND DUP2 MSTORE SWAP2 SWAP1 SWAP3 AND PUSH1 0x20 DUP3 ADD MSTORE PUSH1 0x40 DUP2 ADD SWAP2 SWAP1 SWAP2 MSTORE PUSH1 0x60 ADD SWAP1 JUMP JUMPDEST PUSH0 PUSH1 0x20 DUP3 DUP5 SUB SLT ISZERO PUSH3 0x1AFC JUMPI PUSH0 DUP1 REVERT JUMPDEST DUP2 MLOAD PUSH3 0xD91 DUP2 PUSH3 0x15DD JUMP JUMPDEST PUSH4 0x4E487B71 PUSH1 0xE0 SHL PUSH0 MSTORE PUSH1 0x11 PUSH1 0x4 MSTORE PUSH1 0x24 PUSH0 REVERT JUMPDEST DUP2 DUP2 SUB DUP2 DUP2 GT ISZERO PUSH3 0x466 JUMPI PUSH3 0x466 PUSH3 0x1B09 JUMP JUMPDEST PUSH1 0x1 PUSH1 0x1 PUSH1 0xA0 SHL SUB SWAP4 SWAP1 SWAP4 AND DUP4 MSTORE PUSH1 0x20 DUP4 ADD SWAP2 SWAP1 SWAP2 MSTORE PUSH1 0x40 DUP3 ADD MSTORE PUSH1 0x60 ADD SWAP1 JUMP JUMPDEST PUSH1 0x1 DUP2 DUP2 SHR SWAP1 DUP3 AND DUP1 PUSH3 0x1B69 JUMPI PUSH1 0x7F DUP3 AND SWAP2 POP JUMPDEST PUSH1 0x20 DUP3 LT DUP2 SUB PUSH3 0x1B88 JUMPI PUSH4 0x4E487B71 PUSH1 0xE0 SHL PUSH0 MSTORE PUSH1 0x22 PUSH1 0x4 MSTORE PUSH1 0x24 PUSH0 REVERT JUMPDEST POP SWAP2 SWAP1 POP JUMP JUMPDEST PUSH0 PUSH1 0x1 DUP3 ADD PUSH3 0x1BA2 JUMPI PUSH3 0x1BA2 PUSH3 0x1B09 JUMP JUMPDEST POP PUSH1 0x1 ADD SWAP1 JUMP JUMPDEST PUSH1 0x1 PUSH1 0x1 PUSH1 0xA0 SHL SUB DUP5 AND DUP2 MSTORE PUSH1 0x60 PUSH1 0x20 DUP3 ADD DUP2 SWAP1 MSTORE PUSH0 SWAP1 PUSH3 0x1BCE SWAP1 DUP4 ADD DUP6 PUSH3 0x16AD JUMP JUMPDEST DUP3 DUP2 SUB PUSH1 0x40 DUP5 ADD MSTORE PUSH3 0x1BE2 DUP2 DUP6 PUSH3 0x16AD JUMP JUMPDEST SWAP7 SWAP6 POP POP POP POP POP POP JUMP JUMPDEST PUSH0 DUP2 MLOAD PUSH3 0x1BFF DUP2 DUP6 PUSH1 0x20 DUP7 ADD PUSH3 0x1689 JUMP JUMPDEST SWAP3 SWAP1 SWAP3 ADD SWAP3 SWAP2 POP POP JUMP JUMPDEST PUSH0 DUP1 DUP5 SLOAD DUP2 PUSH1 0x1 DUP3 DUP2 SHR SWAP2 POP DUP1 DUP4 AND DUP1 PUSH3 0x1C25 JUMPI PUSH1 0x7F DUP4 AND SWAP3 POP JUMPDEST PUSH1 0x20 DUP1 DUP5 LT DUP3 SUB PUSH3 0x1C45 JUMPI PUSH4 0x4E487B71 PUSH1 0xE0 SHL DUP7 MSTORE PUSH1 0x22 PUSH1 0x4 MSTORE PUSH1 0x24 DUP7 REVERT JUMPDEST DUP2 DUP1 ISZERO PUSH3 0x1C5C JUMPI PUSH1 0x1 DUP2 EQ PUSH3 0x1C72 JUMPI PUSH3 0x1C9F JUMP JUMPDEST PUSH1 0xFF NOT DUP7 AND DUP10 MSTORE DUP5 ISZERO ISZERO DUP6 MUL DUP10 ADD SWAP7 POP PUSH3 0x1C9F JUMP JUMPDEST PUSH0 DUP12 DUP2 MSTORE PUSH1 0x20 SWAP1 KECCAK256 PUSH0 JUMPDEST DUP7 DUP2 LT ISZERO PUSH3 0x1C97 JUMPI DUP2 SLOAD DUP12 DUP3 ADD MSTORE SWAP1 DUP6 ADD SWAP1 DUP4 ADD PUSH3 0x1C7C JUMP JUMPDEST POP POP DUP5 DUP10 ADD SWAP7 POP JUMPDEST POP POP POP PUSH3 0x1CAE DUP5 DUP9 PUSH3 0x1BEC JUMP JUMPDEST PUSH1 0x2F PUSH1 0xF8 SHL DUP2 MSTORE ADD SWAP8 SWAP7 POP POP POP POP POP POP POP JUMP JUMPDEST PUSH0 PUSH1 0x1 DUP1 PUSH1 0xA0 SHL SUB DUP1 DUP10 AND DUP4 MSTORE DUP8 PUSH1 0x20 DUP5 ADD MSTORE DUP7 PUSH1 0x40 DUP5 ADD MSTORE DUP6 PUSH1 0x60 DUP5 ADD MSTORE DUP1 DUP6 AND PUSH1 0x80 DUP5 ADD MSTORE POP PUSH1 0xC0 PUSH1 0xA0 DUP4 ADD MSTORE PUSH3 0x1CFF PUSH1 0xC0 DUP4 ADD DUP5 PUSH3 0x16AD JUMP JUMPDEST SWAP9 SWAP8 POP POP POP POP POP POP POP POP JUMP JUMPDEST PUSH1 0x20 DUP1 DUP3 MSTORE PUSH1 0xE SWAP1 DUP3 ADD MSTORE PUSH14 0x2737BA103090383937BB34B232B9 PUSH1 0x91 SHL PUSH1 0x40 DUP3 ADD MSTORE PUSH1 0x60 ADD SWAP1 JUMP JUMPDEST DUP1 DUP3 ADD DUP1 DUP3 GT ISZERO PUSH3 0x466 JUMPI PUSH3 0x466 PUSH3 0x1B09 JUMP JUMPDEST DUP6 DUP2 MSTORE PUSH1 0x1 PUSH1 0x1 PUSH1 0xA0 SHL SUB DUP6 DUP2 AND PUSH1 0x20 DUP4 ADD MSTORE DUP5 AND PUSH1 0x40 DUP3 ADD MSTORE PUSH1 0x60 DUP2 ADD DUP4 SWAP1 MSTORE PUSH1 0xA0 PUSH1 0x80 DUP3 ADD DUP2 SWAP1 MSTORE PUSH0 SWAP1 PUSH3 0x1D83 SWAP1 DUP4 ADD DUP5 PUSH3 0x16AD JUMP JUMPDEST SWAP8 SWAP7 POP POP POP POP POP POP POP JUMP JUMPDEST PUSH4 0x4E487B71 PUSH1 0xE0 SHL PUSH0 MSTORE PUSH1 0x32 PUSH1 0x4 MSTORE PUSH1 0x24 PUSH0 REVERT JUMPDEST PUSH0 PUSH1 0x20 DUP3 DUP5 SUB SLT ISZERO PUSH3 0x1DB3 JUMPI PUSH0 DUP1 REVERT JUMPDEST POP MLOAD SWAP2 SWAP1 POP JUMP JUMPDEST PUSH1 0x1 PUSH1 0x1 PUSH1 0xA0 SHL SUB DUP4 AND DUP2 MSTORE PUSH1 0x40 PUSH1 0x20 DUP3 ADD DUP2 SWAP1 MSTORE PUSH0 SWAP1 PUSH3 0xD8E SWAP1 DUP4 ADD DUP5 PUSH3 0x16AD JUMP JUMPDEST DUP1 DUP3 MUL DUP2 ISZERO DUP3 DUP3 DIV DUP5 EQ OR PUSH3 0x466 JUMPI PUSH3 0x466 PUSH3 0x1B09 JUMP JUMPDEST PUSH0 DUP2 PUSH3 0x1E0A JUMPI PUSH3 0x1E0A PUSH3 0x1B09 JUMP JUMPDEST POP PUSH0 NOT ADD SWAP1 JUMP JUMPDEST PUSH4 0x4E487B71 PUSH1 0xE0 SHL PUSH0 MSTORE PUSH1 0x12 PUSH1 0x4 MSTORE PUSH1 0x24 PUSH0 REVERT INVALID PUSH1 0x80 PUSH1 0x40 MSTORE CALLVALUE DUP1 ISZERO PUSH3 0x10 JUMPI PUSH0 DUP1 REVERT JUMPDEST POP PUSH1 0x40 MLOAD PUSH3 0x3EDB CODESIZE SUB DUP1 PUSH3 0x3EDB DUP4 CODECOPY DUP2 ADD PUSH1 0x40 DUP2 SWAP1 MSTORE PUSH3 0x33 SWAP2 PUSH3 0x1D0 JUMP JUMPDEST PUSH1 0x1 PUSH1 0x3 SSTORE DUP3 DUP3 DUP3 PUSH1 0x12 DUP3 DUP3 DUP3 DUP3 DUP3 DUP3 PUSH0 PUSH3 0x50 DUP5 DUP3 PUSH3 0x2E0 JUMP JUMPDEST POP PUSH1 0x1 PUSH3 0x5F DUP4 DUP3 PUSH3 0x2E0 JUMP JUMPDEST POP PUSH1 0x2 DUP1 SLOAD PUSH1 0xFF NOT AND PUSH1 0xFF SWAP3 SWAP1 SWAP3 AND SWAP2 SWAP1 SWAP2 OR SWAP1 SSTORE POP POP POP PUSH1 0x1 PUSH1 0x1 PUSH1 0xA0 SHL SUB DUP7 AND SWAP5 POP PUSH3 0xAC SWAP4 POP POP POP POP JUMPI PUSH1 0x40 MLOAD PUSH4 0x1E4FBDF7 PUSH1 0xE0 SHL DUP2 MSTORE PUSH0 PUSH1 0x4 DUP3 ADD MSTORE PUSH1 0x24 ADD PUSH1 0x40 MLOAD DUP1 SWAP2 SUB SWAP1 REVERT JUMPDEST PUSH3 0xB7 DUP2 PUSH3 0xC1 JUMP JUMPDEST POP POP POP POP PUSH3 0x3A8 JUMP JUMPDEST PUSH1 0xD DUP1 SLOAD PUSH1 0x1 PUSH1 0x1 PUSH1 0xA0 SHL SUB DUP4 DUP2 AND PUSH1 0x1 PUSH1 0x1 PUSH1 0xA0 SHL SUB NOT DUP4 AND DUP2 OR SWAP1 SWAP4 SSTORE PUSH1 0x40 MLOAD SWAP2 AND SWAP2 SWAP1 DUP3 SWAP1 PUSH32 0x8BE0079C531659141344CD1FD0A4F28419497F9722A3DAAFE3B4186F6B6457E0 SWAP1 PUSH0 SWAP1 LOG3 POP POP JUMP JUMPDEST PUSH4 0x4E487B71 PUSH1 0xE0 SHL PUSH0 MSTORE PUSH1 0x41 PUSH1 0x4 MSTORE PUSH1 0x24 PUSH0 REVERT JUMPDEST PUSH0 DUP3 PUSH1 0x1F DUP4 ADD SLT PUSH3 0x136 JUMPI PUSH0 DUP1 REVERT JUMPDEST DUP2 MLOAD PUSH1 0x1 PUSH1 0x1 PUSH1 0x40 SHL SUB DUP1 DUP3 GT ISZERO PUSH3 0x153 JUMPI PUSH3 0x153 PUSH3 0x112 JUMP JUMPDEST PUSH1 0x40 MLOAD PUSH1 0x1F DUP4 ADD PUSH1 0x1F NOT SWAP1 DUP2 AND PUSH1 0x3F ADD AND DUP2 ADD SWAP1 DUP3 DUP3 GT DUP2 DUP4 LT OR ISZERO PUSH3 0x17E JUMPI PUSH3 0x17E PUSH3 0x112 JUMP JUMPDEST DUP2 PUSH1 0x40 MSTORE DUP4 DUP2 MSTORE PUSH1 0x20 SWAP3 POP DUP7 DUP4 DUP6 DUP9 ADD ADD GT ISZERO PUSH3 0x19A JUMPI PUSH0 DUP1 REVERT JUMPDEST PUSH0 SWAP2 POP JUMPDEST DUP4 DUP3 LT ISZERO PUSH3 0x1BD JUMPI DUP6 DUP3 ADD DUP4 ADD MLOAD DUP2 DUP4 ADD DUP5 ADD MSTORE SWAP1 DUP3 ADD SWAP1 PUSH3 0x19E JUMP JUMPDEST PUSH0 SWAP4 DUP2 ADD SWAP1 SWAP3 ADD SWAP3 SWAP1 SWAP3 MSTORE SWAP5 SWAP4 POP POP POP POP JUMP JUMPDEST PUSH0 DUP1 PUSH0 PUSH1 0x60 DUP5 DUP7 SUB SLT ISZERO PUSH3 0x1E3 JUMPI PUSH0 DUP1 REVERT JUMPDEST DUP4 MLOAD PUSH1 0x1 PUSH1 0x1 PUSH1 0xA0 SHL SUB DUP2 AND DUP2 EQ PUSH3 0x1FA JUMPI PUSH0 DUP1 REVERT JUMPDEST PUSH1 0x20 DUP6 ADD MLOAD SWAP1 SWAP4 POP PUSH1 0x1 PUSH1 0x1 PUSH1 0x40 SHL SUB DUP1 DUP3 GT ISZERO PUSH3 0x217 JUMPI PUSH0 DUP1 REVERT JUMPDEST PUSH3 0x225 DUP8 DUP4 DUP9 ADD PUSH3 0x126 JUMP JUMPDEST SWAP4 POP PUSH1 0x40 DUP7 ADD MLOAD SWAP2 POP DUP1 DUP3 GT ISZERO PUSH3 0x23B JUMPI PUSH0 DUP1 REVERT JUMPDEST POP PUSH3 0x24A DUP7 DUP3 DUP8 ADD PUSH3 0x126 JUMP JUMPDEST SWAP2 POP POP SWAP3 POP SWAP3 POP SWAP3 JUMP JUMPDEST PUSH1 0x1 DUP2 DUP2 SHR SWAP1 DUP3 AND DUP1 PUSH3 0x269 JUMPI PUSH1 0x7F DUP3 AND SWAP2 POP JUMPDEST PUSH1 0x20 DUP3 LT DUP2 SUB PUSH3 0x288 JUMPI PUSH4 0x4E487B71 PUSH1 0xE0 SHL PUSH0 MSTORE PUSH1 0x22 PUSH1 0x4 MSTORE PUSH1 0x24 PUSH0 REVERT JUMPDEST POP SWAP2 SWAP1 POP JUMP JUMPDEST PUSH1 0x1F DUP3 GT ISZERO PUSH3 0x2DB JUMPI PUSH0 DUP2 DUP2 MSTORE PUSH1 0x20 DUP2 KECCAK256 PUSH1 0x1F DUP6 ADD PUSH1 0x5 SHR DUP2 ADD PUSH1 0x20 DUP7 LT ISZERO PUSH3 0x2B6 JUMPI POP DUP1 JUMPDEST PUSH1 0x1F DUP6 ADD PUSH1 0x5 SHR DUP3 ADD SWAP2 POP JUMPDEST DUP2 DUP2 LT ISZERO PUSH3 0x2D7 JUMPI DUP3 DUP2 SSTORE PUSH1 0x1 ADD PUSH3 0x2C2 JUMP JUMPDEST POP POP POP JUMPDEST POP POP POP JUMP JUMPDEST DUP2 MLOAD PUSH1 0x1 PUSH1 0x1 PUSH1 0x40 SHL SUB DUP2 GT ISZERO PUSH3 0x2FC JUMPI PUSH3 0x2FC PUSH3 0x112 JUMP JUMPDEST PUSH3 0x314 DUP2 PUSH3 0x30D DUP5 SLOAD PUSH3 0x254 JUMP JUMPDEST DUP5 PUSH3 0x28E JUMP JUMPDEST PUSH1 0x20 DUP1 PUSH1 0x1F DUP4 GT PUSH1 0x1 DUP2 EQ PUSH3 0x34A JUMPI PUSH0 DUP5 ISZERO PUSH3 0x332 JUMPI POP DUP6 DUP4 ADD MLOAD JUMPDEST PUSH0 NOT PUSH1 0x3 DUP7 SWAP1 SHL SHR NOT AND PUSH1 0x1 DUP6 SWAP1 SHL OR DUP6 SSTORE PUSH3 0x2D7 JUMP JUMPDEST PUSH0 DUP6 DUP2 MSTORE PUSH1 0x20 DUP2 KECCAK256 PUSH1 0x1F NOT DUP7 AND SWAP2 JUMPDEST DUP3 DUP2 LT ISZERO PUSH3 0x37A JUMPI DUP9 DUP7 ADD MLOAD DUP3 SSTORE SWAP5 DUP5 ADD SWAP5 PUSH1 0x1 SWAP1 SWAP2 ADD SWAP1 DUP5 ADD PUSH3 0x359 JUMP JUMPDEST POP DUP6 DUP3 LT ISZERO PUSH3 0x398 JUMPI DUP8 DUP6 ADD MLOAD PUSH0 NOT PUSH1 0x3 DUP9 SWAP1 SHL PUSH1 0xF8 AND SHR NOT AND DUP2 SSTORE JUMPDEST POP POP POP POP POP PUSH1 0x1 SWAP1 DUP2 SHL ADD SWAP1 SSTORE POP JUMP JUMPDEST PUSH2 0x3B25 DUP1 PUSH3 0x3B6 PUSH0 CODECOPY PUSH0 RETURN INVALID PUSH1 0x80 PUSH1 0x40 MSTORE PUSH1 0x4 CALLDATASIZE LT PUSH2 0x23D JUMPI PUSH0 CALLDATALOAD PUSH1 0xE0 SHR DUP1 PUSH4 0x6352211E GT PUSH2 0x134 JUMPI DUP1 PUSH4 0xA22CB465 GT PUSH2 0xB3 JUMPI DUP1 PUSH4 0xE8A3D485 GT PUSH2 0x78 JUMPI DUP1 PUSH4 0xE8A3D485 EQ PUSH2 0x626 JUMPI DUP1 PUSH4 0xE985E9C5 EQ PUSH2 0x63A JUMPI DUP1 PUSH4 0xED08FA80 EQ PUSH2 0x659 JUMPI DUP1 PUSH4 0xF0DB6753 EQ PUSH2 0x66D JUMPI DUP1 PUSH4 0xF0E88E7F EQ PUSH2 0x68C JUMPI DUP1 PUSH4 0xF2FDE38B EQ PUSH2 0x6AB JUMPI PUSH0 DUP1 REVERT JUMPDEST DUP1 PUSH4 0xA22CB465 EQ PUSH2 0x597 JUMPI DUP1 PUSH4 0xB88D4FDE EQ PUSH2 0x5B6 JUMPI DUP1 PUSH4 0xC87B56DD EQ PUSH2 0x5C9 JUMPI DUP1 PUSH4 0xE345E0BC EQ PUSH2 0x5E8 JUMPI DUP1 PUSH4 0xE345F05E EQ PUSH2 0x607 JUMPI PUSH0 DUP1 REVERT JUMPDEST DUP1 PUSH4 0x8CB0A511 GT PUSH2 0xF9 JUMPI DUP1 PUSH4 0x8CB0A511 EQ PUSH2 0x515 JUMPI DUP1 PUSH4 0x8DA5CB5B EQ PUSH2 0x528 JUMPI DUP1 PUSH4 0x95D89B41 EQ PUSH2 0x545 JUMPI DUP1 PUSH4 0x993BEF8D EQ PUSH2 0x559 JUMPI DUP1 PUSH4 0x9CC7F708 EQ PUSH2 0x578 JUMPI PUSH0 DUP1 REVERT JUMPDEST DUP1 PUSH4 0x6352211E EQ PUSH2 0x490 JUMPI DUP1 PUSH4 0x6C0360EB EQ PUSH2 0x4AF JUMPI DUP1 PUSH4 0x70A08231 EQ PUSH2 0x4C3 JUMPI DUP1 PUSH4 0x715018A6 EQ PUSH2 0x4E2 JUMPI DUP1 PUSH4 0x840F7113 EQ PUSH2 0x4F6 JUMPI PUSH0 DUP1 REVERT JUMPDEST DUP1 PUSH4 0x263F3E7E GT PUSH2 0x1C0 JUMPI DUP1 PUSH4 0x4F6CCCE7 GT PUSH2 0x185 JUMPI DUP1 PUSH4 0x4F6CCCE7 EQ PUSH2 0x401 JUMPI DUP1 PUSH4 0x4F8A0F83 EQ PUSH2 0x420 JUMPI DUP1 PUSH4 0x55CD4E06 EQ PUSH2 0x43F JUMPI DUP1 PUSH4 0x55F804B3 EQ PUSH2 0x452 JUMPI DUP1 PUSH4 0x5A3C7DA7 EQ PUSH2 0x471 JUMPI PUSH0 DUP1 REVERT JUMPDEST DUP1 PUSH4 0x263F3E7E EQ PUSH2 0x37C JUMPI DUP1 PUSH4 0x2F745C59 EQ PUSH2 0x39B JUMPI DUP1 PUSH4 0x310ED7F0 EQ PUSH2 0x3BA JUMPI DUP1 PUSH4 0x3E7E8669 EQ PUSH2 0x3CD JUMPI DUP1 PUSH4 0x42842E0E EQ PUSH2 0x3EE JUMPI PUSH0 DUP1 REVERT JUMPDEST DUP1 PUSH4 0x9C3DD87 GT PUSH2 0x206 JUMPI DUP1 PUSH4 0x9C3DD87 EQ PUSH2 0x304 JUMPI DUP1 PUSH4 0xF485C02 EQ PUSH2 0x323 JUMPI DUP1 PUSH4 0x156E29F6 EQ PUSH2 0x336 JUMPI DUP1 PUSH4 0x18160DDD EQ PUSH2 0x355 JUMPI DUP1 PUSH4 0x23B872DD EQ PUSH2 0x369 JUMPI PUSH0 DUP1 REVERT JUMPDEST DUP1 PUSH3 0xCD0110 EQ PUSH2 0x241 JUMPI DUP1 PUSH4 0x1FFC9A7 EQ PUSH2 0x273 JUMPI DUP1 PUSH4 0x6FDDE03 EQ PUSH2 0x2A2 JUMPI DUP1 PUSH4 0x81812FC EQ PUSH2 0x2C3 JUMPI DUP1 PUSH4 0x95EA7B3 EQ PUSH2 0x2EF JUMPI JUMPDEST PUSH0 DUP1 REVERT JUMPDEST CALLVALUE DUP1 ISZERO PUSH2 0x24C JUMPI PUSH0 DUP1 REVERT JUMPDEST POP PUSH2 0x260 PUSH2 0x25B CALLDATASIZE PUSH1 0x4 PUSH2 0x320F JUMP JUMPDEST PUSH2 0x6CA JUMP JUMPDEST PUSH1 0x40 MLOAD SWAP1 DUP2 MSTORE PUSH1 0x20 ADD JUMPDEST PUSH1 0x40 MLOAD DUP1 SWAP2 SUB SWAP1 RETURN JUMPDEST CALLVALUE DUP1 ISZERO PUSH2 0x27E JUMPI PUSH0 DUP1 REVERT JUMPDEST POP PUSH2 0x292 PUSH2 0x28D CALLDATASIZE PUSH1 0x4 PUSH2 0x3244 JUMP JUMPDEST PUSH2 0x79A JUMP JUMPDEST PUSH1 0x40 MLOAD SWAP1 ISZERO ISZERO DUP2 MSTORE PUSH1 0x20 ADD PUSH2 0x26A JUMP JUMPDEST CALLVALUE DUP1 ISZERO PUSH2 0x2AD JUMPI PUSH0 DUP1 REVERT JUMPDEST POP PUSH2 0x2B6 PUSH2 0x7BE JUMP JUMPDEST PUSH1 0x40 MLOAD PUSH2 0x26A SWAP2 SWAP1 PUSH2 0x32AC JUMP JUMPDEST CALLVALUE DUP1 ISZERO PUSH2 0x2CE JUMPI PUSH0 DUP1 REVERT JUMPDEST POP PUSH2 0x2E2 PUSH2 0x2DD CALLDATASIZE PUSH1 0x4 PUSH2 0x32BE JUMP JUMPDEST PUSH2 0x84D JUMP JUMPDEST PUSH1 0x40 MLOAD PUSH2 0x26A SWAP2 SWAP1 PUSH2 0x32D5 JUMP JUMPDEST PUSH2 0x302 PUSH2 0x2FD CALLDATASIZE PUSH1 0x4 PUSH2 0x32FF JUMP JUMPDEST PUSH2 0x89C JUMP JUMPDEST STOP JUMPDEST CALLVALUE DUP1 ISZERO PUSH2 0x30F JUMPI PUSH0 DUP1 REVERT JUMPDEST POP PUSH2 0x2B6 PUSH2 0x31E CALLDATASIZE PUSH1 0x4 PUSH2 0x32BE JUMP JUMPDEST PUSH2 0x994 JUMP JUMPDEST PUSH2 0x260 PUSH2 0x331 CALLDATASIZE PUSH1 0x4 PUSH2 0x3327 JUMP JUMPDEST PUSH2 0xA72 JUMP JUMPDEST CALLVALUE DUP1 ISZERO PUSH2 0x341 JUMPI PUSH0 DUP1 REVERT JUMPDEST POP PUSH2 0x302 PUSH2 0x350 CALLDATASIZE PUSH1 0x4 PUSH2 0x3359 JUMP JUMPDEST PUSH2 0xAA8 JUMP JUMPDEST CALLVALUE DUP1 ISZERO PUSH2 0x360 JUMPI PUSH0 DUP1 REVERT JUMPDEST POP PUSH1 0x5 SLOAD PUSH2 0x260 JUMP JUMPDEST PUSH2 0x302 PUSH2 0x377 CALLDATASIZE PUSH1 0x4 PUSH2 0x3389 JUMP JUMPDEST PUSH2 0xABB JUMP JUMPDEST CALLVALUE DUP1 ISZERO PUSH2 0x387 JUMPI PUSH0 DUP1 REVERT JUMPDEST POP PUSH2 0x260 PUSH2 0x396 CALLDATASIZE PUSH1 0x4 PUSH2 0x32BE JUMP JUMPDEST PUSH2 0xAF1 JUMP JUMPDEST CALLVALUE DUP1 ISZERO PUSH2 0x3A6 JUMPI PUSH0 DUP1 REVERT JUMPDEST POP PUSH2 0x260 PUSH2 0x3B5 CALLDATASIZE PUSH1 0x4 PUSH2 0x32FF JUMP JUMPDEST PUSH2 0xB35 JUMP JUMPDEST PUSH2 0x302 PUSH2 0x3C8 CALLDATASIZE PUSH1 0x4 PUSH2 0x33B2 JUMP JUMPDEST PUSH2 0xBC1 JUMP JUMPDEST CALLVALUE DUP1 ISZERO PUSH2 0x3D8 JUMPI PUSH0 DUP1 REVERT JUMPDEST POP PUSH1 0x2 SLOAD PUSH1 0x40 MLOAD PUSH1 0xFF SWAP1 SWAP2 AND DUP2 MSTORE PUSH1 0x20 ADD PUSH2 0x26A JUMP JUMPDEST PUSH2 0x302 PUSH2 0x3FC CALLDATASIZE PUSH1 0x4 PUSH2 0x3389 JUMP JUMPDEST PUSH2 0xBD7 JUMP JUMPDEST CALLVALUE DUP1 ISZERO PUSH2 0x40C JUMPI PUSH0 DUP1 REVERT JUMPDEST POP PUSH2 0x260 PUSH2 0x41B CALLDATASIZE PUSH1 0x4 PUSH2 0x32BE JUMP JUMPDEST PUSH2 0xBF1 JUMP JUMPDEST CALLVALUE DUP1 ISZERO PUSH2 0x42B JUMPI PUSH0 DUP1 REVERT JUMPDEST POP PUSH2 0x260 PUSH2 0x43A CALLDATASIZE PUSH1 0x4 PUSH2 0x32BE JUMP JUMPDEST PUSH2 0xC7E JUMP JUMPDEST PUSH2 0x302 PUSH2 0x44D CALLDATASIZE PUSH1 0x4 PUSH2 0x33E8 JUMP JUMPDEST PUSH2 0xCCF JUMP JUMPDEST CALLVALUE DUP1 ISZERO PUSH2 0x45D JUMPI PUSH0 DUP1 REVERT JUMPDEST POP PUSH2 0x302 PUSH2 0x46C CALLDATASIZE PUSH1 0x4 PUSH2 0x34D9 JUMP JUMPDEST PUSH2 0xD69 JUMP JUMPDEST CALLVALUE DUP1 ISZERO PUSH2 0x47C JUMPI PUSH0 DUP1 REVERT JUMPDEST POP PUSH2 0x260 PUSH2 0x48B CALLDATASIZE PUSH1 0x4 PUSH2 0x32BE JUMP JUMPDEST PUSH2 0xD81 JUMP JUMPDEST CALLVALUE DUP1 ISZERO PUSH2 0x49B JUMPI PUSH0 DUP1 REVERT JUMPDEST POP PUSH2 0x2E2 PUSH2 0x4AA CALLDATASIZE PUSH1 0x4 PUSH2 0x32BE JUMP JUMPDEST PUSH2 0xDD6 JUMP JUMPDEST CALLVALUE DUP1 ISZERO PUSH2 0x4BA JUMPI PUSH0 DUP1 REVERT JUMPDEST POP PUSH2 0x2B6 PUSH2 0xE43 JUMP JUMPDEST CALLVALUE DUP1 ISZERO PUSH2 0x4CE JUMPI PUSH0 DUP1 REVERT JUMPDEST POP PUSH2 0x260 PUSH2 0x4DD CALLDATASIZE PUSH1 0x4 PUSH2 0x351D JUMP JUMPDEST PUSH2 0xECF JUMP JUMPDEST CALLVALUE DUP1 ISZERO PUSH2 0x4ED JUMPI PUSH0 DUP1 REVERT JUMPDEST POP PUSH2 0x302 PUSH2 0xF55 JUMP JUMPDEST CALLVALUE DUP1 ISZERO PUSH2 0x501 JUMPI PUSH0 DUP1 REVERT JUMPDEST POP PUSH1 0x8 SLOAD PUSH2 0x2E2 SWAP1 PUSH1 0x1 PUSH1 0x1 PUSH1 0xA0 SHL SUB AND DUP2 JUMP JUMPDEST PUSH2 0x302 PUSH2 0x523 CALLDATASIZE PUSH1 0x4 PUSH2 0x3327 JUMP JUMPDEST PUSH2 0xF68 JUMP JUMPDEST CALLVALUE DUP1 ISZERO PUSH2 0x533 JUMPI PUSH0 DUP1 REVERT JUMPDEST POP PUSH1 0xD SLOAD PUSH1 0x1 PUSH1 0x1 PUSH1 0xA0 SHL SUB AND PUSH2 0x2E2 JUMP JUMPDEST CALLVALUE DUP1 ISZERO PUSH2 0x550 JUMPI PUSH0 DUP1 REVERT JUMPDEST POP PUSH2 0x2B6 PUSH2 0x1020 JUMP JUMPDEST CALLVALUE DUP1 ISZERO PUSH2 0x564 JUMPI PUSH0 DUP1 REVERT JUMPDEST POP PUSH2 0x260 PUSH2 0x573 CALLDATASIZE PUSH1 0x4 PUSH2 0x32BE JUMP JUMPDEST PUSH2 0x102F JUMP JUMPDEST CALLVALUE DUP1 ISZERO PUSH2 0x583 JUMPI PUSH0 DUP1 REVERT JUMPDEST POP PUSH2 0x260 PUSH2 0x592 CALLDATASIZE PUSH1 0x4 PUSH2 0x32BE JUMP JUMPDEST PUSH2 0x10C8 JUMP JUMPDEST CALLVALUE DUP1 ISZERO PUSH2 0x5A2 JUMPI PUSH0 DUP1 REVERT JUMPDEST POP PUSH2 0x302 PUSH2 0x5B1 CALLDATASIZE PUSH1 0x4 PUSH2 0x3536 JUMP JUMPDEST PUSH2 0x110C JUMP JUMPDEST PUSH2 0x302 PUSH2 0x5C4 CALLDATASIZE PUSH1 0x4 PUSH2 0x356B JUMP JUMPDEST PUSH2 0x1117 JUMP JUMPDEST CALLVALUE DUP1 ISZERO PUSH2 0x5D4 JUMPI PUSH0 DUP1 REVERT JUMPDEST POP PUSH2 0x2B6 PUSH2 0x5E3 CALLDATASIZE PUSH1 0x4 PUSH2 0x32BE JUMP JUMPDEST PUSH2 0x1149 JUMP JUMPDEST CALLVALUE DUP1 ISZERO PUSH2 0x5F3 JUMPI PUSH0 DUP1 REVERT JUMPDEST POP PUSH2 0x260 PUSH2 0x602 CALLDATASIZE PUSH1 0x4 PUSH2 0x35E1 JUMP JUMPDEST PUSH2 0x11D8 JUMP JUMPDEST CALLVALUE DUP1 ISZERO PUSH2 0x612 JUMPI PUSH0 DUP1 REVERT JUMPDEST POP PUSH2 0x292 PUSH2 0x621 CALLDATASIZE PUSH1 0x4 PUSH2 0x360B JUMP JUMPDEST PUSH2 0x120A JUMP JUMPDEST CALLVALUE DUP1 ISZERO PUSH2 0x631 JUMPI PUSH0 DUP1 REVERT JUMPDEST POP PUSH2 0x2B6 PUSH2 0x123F JUMP JUMPDEST CALLVALUE DUP1 ISZERO PUSH2 0x645 JUMPI PUSH0 DUP1 REVERT JUMPDEST POP PUSH2 0x292 PUSH2 0x654 CALLDATASIZE PUSH1 0x4 PUSH2 0x3644 JUMP JUMPDEST PUSH2 0x1324 JUMP JUMPDEST CALLVALUE DUP1 ISZERO PUSH2 0x664 JUMPI PUSH0 DUP1 REVERT JUMPDEST POP PUSH1 0xA SLOAD PUSH2 0x260 JUMP JUMPDEST CALLVALUE DUP1 ISZERO PUSH2 0x678 JUMPI PUSH0 DUP1 REVERT JUMPDEST POP PUSH2 0x260 PUSH2 0x687 CALLDATASIZE PUSH1 0x4 PUSH2 0x32BE JUMP JUMPDEST PUSH2 0x1355 JUMP JUMPDEST CALLVALUE DUP1 ISZERO PUSH2 0x697 JUMPI PUSH0 DUP1 REVERT JUMPDEST POP PUSH2 0x302 PUSH2 0x6A6 CALLDATASIZE PUSH1 0x4 PUSH2 0x320F JUMP JUMPDEST PUSH2 0x1490 JUMP JUMPDEST CALLVALUE DUP1 ISZERO PUSH2 0x6B6 JUMPI PUSH0 DUP1 REVERT JUMPDEST POP PUSH2 0x302 PUSH2 0x6C5 CALLDATASIZE PUSH1 0x4 PUSH2 0x351D JUMP JUMPDEST PUSH2 0x14A2 JUMP JUMPDEST PUSH0 PUSH2 0x6D4 DUP4 PUSH2 0xC7E JUMP JUMPDEST DUP3 LT PUSH2 0x745 JUMPI PUSH1 0x40 MLOAD PUSH3 0x461BCD PUSH1 0xE5 SHL DUP2 MSTORE PUSH1 0x20 PUSH1 0x4 DUP3 ADD MSTORE PUSH1 0x35 PUSH1 0x24 DUP3 ADD MSTORE PUSH32 0x45524333353235536C6F74456E756D657261626C653A20736C6F7420746F6B65 PUSH1 0x44 DUP3 ADD MSTORE PUSH21 0x6E20696E646578206F7574206F6620626F756E6473 PUSH1 0x58 SHL PUSH1 0x64 DUP3 ADD MSTORE PUSH1 0x84 ADD JUMPDEST PUSH1 0x40 MLOAD DUP1 SWAP2 SUB SWAP1 REVERT JUMPDEST PUSH0 DUP4 DUP2 MSTORE PUSH1 0xB PUSH1 0x20 MSTORE PUSH1 0x40 SWAP1 KECCAK256 SLOAD PUSH1 0xA DUP1 SLOAD SWAP1 SWAP2 SWAP1 DUP2 LT PUSH2 0x768 JUMPI PUSH2 0x768 PUSH2 0x366C JUMP JUMPDEST SWAP1 PUSH0 MSTORE PUSH1 0x20 PUSH0 KECCAK256 SWAP1 PUSH1 0x2 MUL ADD PUSH1 0x1 ADD DUP3 DUP2 SLOAD DUP2 LT PUSH2 0x788 JUMPI PUSH2 0x788 PUSH2 0x366C JUMP JUMPDEST SWAP1 PUSH0 MSTORE PUSH1 0x20 PUSH0 KECCAK256 ADD SLOAD SWAP1 POP JUMPDEST SWAP3 SWAP2 POP POP JUMP JUMPDEST PUSH0 PUSH1 0x1 PUSH1 0x1 PUSH1 0xE0 SHL SUB NOT DUP3 AND PUSH4 0x16D117CB PUSH1 0xE3 SHL EQ DUP1 PUSH2 0x794 JUMPI POP PUSH2 0x794 DUP3 PUSH2 0x14DF JUMP JUMPDEST PUSH1 0x60 PUSH0 DUP1 SLOAD PUSH2 0x7CC SWAP1 PUSH2 0x3680 JUMP JUMPDEST DUP1 PUSH1 0x1F ADD PUSH1 0x20 DUP1 SWAP2 DIV MUL PUSH1 0x20 ADD PUSH1 0x40 MLOAD SWAP1 DUP2 ADD PUSH1 0x40 MSTORE DUP1 SWAP3 SWAP2 SWAP1 DUP2 DUP2 MSTORE PUSH1 0x20 ADD DUP3 DUP1 SLOAD PUSH2 0x7F8 SWAP1 PUSH2 0x3680 JUMP JUMPDEST DUP1 ISZERO PUSH2 0x843 JUMPI DUP1 PUSH1 0x1F LT PUSH2 0x81A JUMPI PUSH2 0x100 DUP1 DUP4 SLOAD DIV MUL DUP4 MSTORE SWAP2 PUSH1 0x20 ADD SWAP2 PUSH2 0x843 JUMP JUMPDEST DUP3 ADD SWAP2 SWAP1 PUSH0 MSTORE PUSH1 0x20 PUSH0 KECCAK256 SWAP1 JUMPDEST DUP2 SLOAD DUP2 MSTORE SWAP1 PUSH1 0x1 ADD SWAP1 PUSH1 0x20 ADD DUP1 DUP4 GT PUSH2 0x826 JUMPI DUP3 SWAP1 SUB PUSH1 0x1F AND DUP3 ADD SWAP2 JUMPDEST POP POP POP POP POP SWAP1 POP SWAP1 JUMP JUMPDEST PUSH0 PUSH2 0x857 DUP3 PUSH2 0x1503 JUMP JUMPDEST PUSH0 DUP3 DUP2 MSTORE PUSH1 0x6 PUSH1 0x20 MSTORE PUSH1 0x40 SWAP1 KECCAK256 SLOAD PUSH1 0x5 DUP1 SLOAD SWAP1 SWAP2 SWAP1 DUP2 LT PUSH2 0x87A JUMPI PUSH2 0x87A PUSH2 0x366C JUMP JUMPDEST PUSH0 SWAP2 DUP3 MSTORE PUSH1 0x20 SWAP1 SWAP2 KECCAK256 PUSH1 0x4 PUSH1 0x6 SWAP1 SWAP3 MUL ADD ADD SLOAD PUSH1 0x1 PUSH1 0x1 PUSH1 0xA0 SHL SUB AND SWAP3 SWAP2 POP POP JUMP JUMPDEST PUSH0 PUSH2 0x8A6 DUP3 PUSH2 0xDD6 JUMP JUMPDEST SWAP1 POP PUSH0 PUSH2 0x8B2 DUP4 PUSH2 0xAF1 JUMP JUMPDEST SWAP1 POP DUP2 PUSH1 0x1 PUSH1 0x1 PUSH1 0xA0 SHL SUB AND DUP5 PUSH1 0x1 PUSH1 0x1 PUSH1 0xA0 SHL SUB AND SUB PUSH2 0x8E5 JUMPI PUSH1 0x40 MLOAD PUSH3 0x461BCD PUSH1 0xE5 SHL DUP2 MSTORE PUSH1 0x4 ADD PUSH2 0x73C SWAP1 PUSH2 0x36B8 JUMP JUMPDEST CALLER PUSH1 0x1 PUSH1 0x1 PUSH1 0xA0 SHL SUB DUP4 AND EQ DUP1 PUSH2 0x901 JUMPI POP PUSH2 0x901 DUP3 CALLER PUSH2 0x1324 JUMP JUMPDEST DUP1 PUSH2 0x912 JUMPI POP PUSH2 0x912 DUP3 DUP3 CALLER PUSH2 0x120A JUMP JUMPDEST PUSH2 0x984 JUMPI PUSH1 0x40 MLOAD PUSH3 0x461BCD PUSH1 0xE5 SHL DUP2 MSTORE PUSH1 0x20 PUSH1 0x4 DUP3 ADD MSTORE PUSH1 0x3E PUSH1 0x24 DUP3 ADD MSTORE PUSH32 0x455243333532353A20617070726F76652063616C6C6572206973206E6F74206F PUSH1 0x44 DUP3 ADD MSTORE PUSH32 0x776E6572206E6F7220617070726F76656420666F7220616C6C2F736C6F740000 PUSH1 0x64 DUP3 ADD MSTORE PUSH1 0x84 ADD PUSH2 0x73C JUMP JUMPDEST PUSH2 0x98E DUP5 DUP5 PUSH2 0x1528 JUMP JUMPDEST POP POP POP POP JUMP JUMPDEST PUSH1 0x60 PUSH0 PUSH2 0x99F PUSH2 0x15BD JUMP JUMPDEST PUSH1 0x8 SLOAD SWAP1 SWAP2 POP PUSH1 0x1 PUSH1 0x1 PUSH1 0xA0 SHL SUB AND PUSH2 0x9FD JUMPI PUSH0 DUP2 MLOAD GT PUSH2 0x9CE JUMPI PUSH1 0x40 MLOAD DUP1 PUSH1 0x20 ADD PUSH1 0x40 MSTORE DUP1 PUSH0 DUP2 MSTORE POP PUSH2 0xA6B JUMP JUMPDEST DUP1 PUSH2 0x9D8 DUP5 PUSH2 0x15CC JUMP JUMPDEST PUSH1 0x40 MLOAD PUSH1 0x20 ADD PUSH2 0x9E9 SWAP3 SWAP2 SWAP1 PUSH2 0x36FA JUMP JUMPDEST PUSH1 0x40 MLOAD PUSH1 0x20 DUP2 DUP4 SUB SUB DUP2 MSTORE SWAP1 PUSH1 0x40 MSTORE PUSH2 0xA6B JUMP JUMPDEST PUSH1 0x8 SLOAD PUSH1 0x40 MLOAD PUSH4 0x3601BFC5 PUSH1 0xE1 SHL DUP2 MSTORE PUSH1 0x4 DUP2 ADD DUP6 SWAP1 MSTORE PUSH1 0x1 PUSH1 0x1 PUSH1 0xA0 SHL SUB SWAP1 SWAP2 AND SWAP1 PUSH4 0x6C037F8A SWAP1 PUSH1 0x24 ADD JUMPDEST PUSH0 PUSH1 0x40 MLOAD DUP1 DUP4 SUB DUP2 DUP7 GAS STATICCALL ISZERO DUP1 ISZERO PUSH2 0xA44 JUMPI RETURNDATASIZE PUSH0 DUP1 RETURNDATACOPY RETURNDATASIZE PUSH0 REVERT JUMPDEST POP POP POP POP PUSH1 0x40 MLOAD RETURNDATASIZE PUSH0 DUP3 RETURNDATACOPY PUSH1 0x1F RETURNDATASIZE SWAP1 DUP2 ADD PUSH1 0x1F NOT AND DUP3 ADD PUSH1 0x40 MSTORE PUSH2 0xA6B SWAP2 SWAP1 DUP2 ADD SWAP1 PUSH2 0x3739 JUMP JUMPDEST SWAP4 SWAP3 POP POP POP JUMP JUMPDEST PUSH0 PUSH2 0xA7E CALLER DUP6 DUP5 PUSH2 0x165B JUMP JUMPDEST PUSH2 0xA87 DUP5 PUSH2 0x16E9 JUMP JUMPDEST SWAP1 POP PUSH2 0xA9D DUP4 DUP3 PUSH2 0xA97 DUP8 PUSH2 0xAF1 JUMP JUMPDEST PUSH0 PUSH2 0x16F2 JUMP JUMPDEST PUSH2 0xA6B DUP5 DUP3 DUP5 PUSH2 0x1832 JUMP JUMPDEST PUSH2 0xAB0 PUSH2 0x1B75 JUMP JUMPDEST PUSH2 0x98E DUP4 DUP4 DUP4 PUSH2 0x1BA2 JUMP JUMPDEST PUSH2 0xAC5 CALLER DUP3 PUSH2 0x1BB9 JUMP JUMPDEST PUSH2 0xAE1 JUMPI PUSH1 0x40 MLOAD PUSH3 0x461BCD PUSH1 0xE5 SHL DUP2 MSTORE PUSH1 0x4 ADD PUSH2 0x73C SWAP1 PUSH2 0x37A1 JUMP JUMPDEST PUSH2 0xAEC DUP4 DUP4 DUP4 PUSH2 0x1C3E JUMP JUMPDEST POP POP POP JUMP JUMPDEST PUSH0 PUSH2 0xAFB DUP3 PUSH2 0x1503 JUMP JUMPDEST PUSH0 DUP3 DUP2 MSTORE PUSH1 0x6 PUSH1 0x20 MSTORE PUSH1 0x40 SWAP1 KECCAK256 SLOAD PUSH1 0x5 DUP1 SLOAD SWAP1 SWAP2 SWAP1 DUP2 LT PUSH2 0xB1E JUMPI PUSH2 0xB1E PUSH2 0x366C JUMP JUMPDEST SWAP1 PUSH0 MSTORE PUSH1 0x20 PUSH0 KECCAK256 SWAP1 PUSH1 0x6 MUL ADD PUSH1 0x1 ADD SLOAD SWAP1 POP SWAP2 SWAP1 POP JUMP JUMPDEST PUSH0 PUSH2 0xB3F DUP4 PUSH2 0xECF JUMP JUMPDEST DUP3 LT PUSH2 0xB98 JUMPI PUSH1 0x40 MLOAD PUSH3 0x461BCD PUSH1 0xE5 SHL DUP2 MSTORE PUSH1 0x20 PUSH1 0x4 DUP3 ADD MSTORE PUSH1 0x22 PUSH1 0x24 DUP3 ADD MSTORE PUSH32 0x455243333532353A206F776E657220696E646578206F7574206F6620626F756E PUSH1 0x44 DUP3 ADD MSTORE PUSH2 0x6473 PUSH1 0xF0 SHL PUSH1 0x64 DUP3 ADD MSTORE PUSH1 0x84 ADD PUSH2 0x73C JUMP JUMPDEST PUSH1 0x1 PUSH1 0x1 PUSH1 0xA0 SHL SUB DUP4 AND PUSH0 SWAP1 DUP2 MSTORE PUSH1 0x7 PUSH1 0x20 MSTORE PUSH1 0x40 SWAP1 KECCAK256 DUP1 SLOAD DUP4 SWAP1 DUP2 LT PUSH2 0x788 JUMPI PUSH2 0x788 PUSH2 0x366C JUMP JUMPDEST PUSH2 0xBCC CALLER DUP5 DUP4 PUSH2 0x165B JUMP JUMPDEST PUSH2 0xAEC DUP4 DUP4 DUP4 PUSH2 0x1832 JUMP JUMPDEST PUSH2 0xAEC DUP4 DUP4 DUP4 PUSH1 0x40 MLOAD DUP1 PUSH1 0x20 ADD PUSH1 0x40 MSTORE DUP1 PUSH0 DUP2 MSTORE POP PUSH2 0x1117 JUMP JUMPDEST PUSH0 PUSH2 0xBFB PUSH1 0x5 SLOAD SWAP1 JUMP JUMPDEST DUP3 LT PUSH2 0xC55 JUMPI PUSH1 0x40 MLOAD PUSH3 0x461BCD PUSH1 0xE5 SHL DUP2 MSTORE PUSH1 0x20 PUSH1 0x4 DUP3 ADD MSTORE PUSH1 0x23 PUSH1 0x24 DUP3 ADD MSTORE PUSH32 0x455243333532353A20676C6F62616C20696E646578206F7574206F6620626F75 PUSH1 0x44 DUP3 ADD MSTORE PUSH3 0x6E6473 PUSH1 0xE8 SHL PUSH1 0x64 DUP3 ADD MSTORE PUSH1 0x84 ADD PUSH2 0x73C JUMP JUMPDEST PUSH1 0x5 DUP3 DUP2 SLOAD DUP2 LT PUSH2 0xC68 JUMPI PUSH2 0xC68 PUSH2 0x366C JUMP JUMPDEST SWAP1 PUSH0 MSTORE PUSH1 0x20 PUSH0 KECCAK256 SWAP1 PUSH1 0x6 MUL ADD PUSH0 ADD SLOAD SWAP1 POP SWAP2 SWAP1 POP JUMP JUMPDEST PUSH0 PUSH2 0xC88 DUP3 PUSH2 0x1DB3 JUMP JUMPDEST PUSH2 0xC93 JUMPI POP PUSH0 SWAP2 SWAP1 POP JUMP JUMPDEST PUSH0 DUP3 DUP2 MSTORE PUSH1 0xB PUSH1 0x20 MSTORE PUSH1 0x40 SWAP1 KECCAK256 SLOAD PUSH1 0xA DUP1 SLOAD SWAP1 SWAP2 SWAP1 DUP2 LT PUSH2 0xCB6 JUMPI PUSH2 0xCB6 PUSH2 0x366C JUMP JUMPDEST PUSH0 SWAP2 DUP3 MSTORE PUSH1 0x20 SWAP1 SWAP2 KECCAK256 PUSH1 0x1 PUSH1 0x2 SWAP1 SWAP3 MUL ADD ADD SLOAD SWAP3 SWAP2 POP POP JUMP JUMPDEST CALLER PUSH1 0x1 PUSH1 0x1 PUSH1 0xA0 SHL SUB DUP6 AND EQ DUP1 PUSH2 0xCEB JUMPI POP PUSH2 0xCEB DUP5 CALLER PUSH2 0x1324 JUMP JUMPDEST PUSH2 0xD5D JUMPI PUSH1 0x40 MLOAD PUSH3 0x461BCD PUSH1 0xE5 SHL DUP2 MSTORE PUSH1 0x20 PUSH1 0x4 DUP3 ADD MSTORE PUSH1 0x3F PUSH1 0x24 DUP3 ADD MSTORE PUSH32 0x45524333353235536C6F74417070726F7661626C653A2063616C6C6572206973 PUSH1 0x44 DUP3 ADD MSTORE PUSH32 0x206E6F74206F776E6572206E6F7220617070726F76656420666F7220616C6C00 PUSH1 0x64 DUP3 ADD MSTORE PUSH1 0x84 ADD PUSH2 0x73C JUMP JUMPDEST PUSH2 0x98E DUP5 DUP5 DUP5 DUP5 PUSH2 0x1DFA JUMP JUMPDEST PUSH2 0xD71 PUSH2 0x1B75 JUMP JUMPDEST PUSH1 0xE PUSH2 0xD7D DUP3 DUP3 PUSH2 0x3838 JUMP JUMPDEST POP POP JUMP JUMPDEST PUSH0 DUP1 DUP1 JUMPDEST PUSH2 0xD8E DUP5 PUSH2 0xC7E JUMP JUMPDEST DUP2 LT ISZERO PUSH2 0xDCF JUMPI PUSH0 PUSH2 0xDA0 DUP6 DUP4 PUSH2 0x6CA JUMP JUMPDEST SWAP1 POP PUSH0 PUSH2 0xDAC DUP3 PUSH2 0x10C8 JUMP JUMPDEST SWAP1 POP PUSH2 0xDB8 DUP2 DUP6 PUSH2 0x3907 JUMP JUMPDEST SWAP4 POP POP POP DUP1 DUP1 PUSH2 0xDC7 SWAP1 PUSH2 0x391A JUMP JUMPDEST SWAP2 POP POP PUSH2 0xD85 JUMP JUMPDEST POP SWAP3 SWAP2 POP POP JUMP JUMPDEST PUSH0 PUSH2 0xDE0 DUP3 PUSH2 0x1503 JUMP JUMPDEST PUSH0 DUP3 DUP2 MSTORE PUSH1 0x6 PUSH1 0x20 MSTORE PUSH1 0x40 SWAP1 KECCAK256 SLOAD PUSH1 0x5 DUP1 SLOAD SWAP1 SWAP2 SWAP1 DUP2 LT PUSH2 0xE03 JUMPI PUSH2 0xE03 PUSH2 0x366C JUMP JUMPDEST PUSH0 SWAP2 DUP3 MSTORE PUSH1 0x20 SWAP1 SWAP2 KECCAK256 PUSH1 0x3 PUSH1 0x6 SWAP1 SWAP3 MUL ADD ADD SLOAD PUSH1 0x1 PUSH1 0x1 PUSH1 0xA0 SHL SUB AND SWAP1 POP DUP1 PUSH2 0xE3E JUMPI PUSH1 0x40 MLOAD PUSH3 0x461BCD PUSH1 0xE5 SHL DUP2 MSTORE PUSH1 0x4 ADD PUSH2 0x73C SWAP1 PUSH2 0x3932 JUMP JUMPDEST SWAP2 SWAP1 POP JUMP JUMPDEST PUSH1 0xE DUP1 SLOAD PUSH2 0xE50 SWAP1 PUSH2 0x3680 JUMP JUMPDEST DUP1 PUSH1 0x1F ADD PUSH1 0x20 DUP1 SWAP2 DIV MUL PUSH1 0x20 ADD PUSH1 0x40 MLOAD SWAP1 DUP2 ADD PUSH1 0x40 MSTORE DUP1 SWAP3 SWAP2 SWAP1 DUP2 DUP2 MSTORE PUSH1 0x20 ADD DUP3 DUP1 SLOAD PUSH2 0xE7C SWAP1 PUSH2 0x3680 JUMP JUMPDEST DUP1 ISZERO PUSH2 0xEC7 JUMPI DUP1 PUSH1 0x1F LT PUSH2 0xE9E JUMPI PUSH2 0x100 DUP1 DUP4 SLOAD DIV MUL DUP4 MSTORE SWAP2 PUSH1 0x20 ADD SWAP2 PUSH2 0xEC7 JUMP JUMPDEST DUP3 ADD SWAP2 SWAP1 PUSH0 MSTORE PUSH1 0x20 PUSH0 KECCAK256 SWAP1 JUMPDEST DUP2 SLOAD DUP2 MSTORE SWAP1 PUSH1 0x1 ADD SWAP1 PUSH1 0x20 ADD DUP1 DUP4 GT PUSH2 0xEAA JUMPI DUP3 SWAP1 SUB PUSH1 0x1F AND DUP3 ADD SWAP2 JUMPDEST POP POP POP POP POP DUP2 JUMP JUMPDEST PUSH0 PUSH1 0x1 PUSH1 0x1 PUSH1 0xA0 SHL SUB DUP3 AND PUSH2 0xF3A JUMPI PUSH1 0x40 MLOAD PUSH3 0x461BCD PUSH1 0xE5 SHL DUP2 MSTORE PUSH1 0x20 PUSH1 0x4 DUP3 ADD MSTORE PUSH1 0x2B PUSH1 0x24 DUP3 ADD MSTORE PUSH32 0x455243333532353A2062616C616E636520717565727920666F7220746865207A PUSH1 0x44 DUP3 ADD MSTORE PUSH11 0x65726F2061646472657373 PUSH1 0xA8 SHL PUSH1 0x64 DUP3 ADD MSTORE PUSH1 0x84 ADD PUSH2 0x73C JUMP JUMPDEST POP PUSH1 0x1 PUSH1 0x1 PUSH1 0xA0 SHL SUB AND PUSH0 SWAP1 DUP2 MSTORE PUSH1 0x7 PUSH1 0x20 MSTORE PUSH1 0x40 SWAP1 KECCAK256 SLOAD SWAP1 JUMP JUMPDEST PUSH2 0xF5D PUSH2 0x1B75 JUMP JUMPDEST PUSH2 0xF66 PUSH0 PUSH2 0x1EE3 JUMP JUMPDEST JUMP JUMPDEST PUSH0 PUSH2 0xF72 DUP5 PUSH2 0xDD6 JUMP JUMPDEST SWAP1 POP DUP1 PUSH1 0x1 PUSH1 0x1 PUSH1 0xA0 SHL SUB AND DUP4 PUSH1 0x1 PUSH1 0x1 PUSH1 0xA0 SHL SUB AND SUB PUSH2 0xFA5 JUMPI PUSH1 0x40 MLOAD PUSH3 0x461BCD PUSH1 0xE5 SHL DUP2 MSTORE PUSH1 0x4 ADD PUSH2 0x73C SWAP1 PUSH2 0x36B8 JUMP JUMPDEST PUSH2 0xFAF CALLER DUP6 PUSH2 0x1BB9 JUMP JUMPDEST PUSH2 0x1015 JUMPI PUSH1 0x40 MLOAD PUSH3 0x461BCD PUSH1 0xE5 SHL DUP2 MSTORE PUSH1 0x20 PUSH1 0x4 DUP3 ADD MSTORE PUSH1 0x31 PUSH1 0x24 DUP3 ADD MSTORE PUSH32 0x455243333532353A20617070726F76652063616C6C6572206973206E6F74206F PUSH1 0x44 DUP3 ADD MSTORE PUSH17 0x1DDB995C881B9BDC88185C1C1C9BDD9959 PUSH1 0x7A SHL PUSH1 0x64 DUP3 ADD MSTORE PUSH1 0x84 ADD PUSH2 0x73C JUMP JUMPDEST PUSH2 0x98E DUP5 DUP5 DUP5 PUSH2 0x1F34 JUMP JUMPDEST PUSH1 0x60 PUSH1 0x1 DUP1 SLOAD PUSH2 0x7CC SWAP1 PUSH2 0x3680 JUMP JUMPDEST PUSH0 PUSH2 0x1039 PUSH1 0xA SLOAD SWAP1 JUMP JUMPDEST DUP3 LT PUSH2 0x109F JUMPI PUSH1 0x40 MLOAD PUSH3 0x461BCD PUSH1 0xE5 SHL DUP2 MSTORE PUSH1 0x20 PUSH1 0x4 DUP3 ADD MSTORE PUSH1 0x2F PUSH1 0x24 DUP3 ADD MSTORE PUSH32 0x45524333353235536C6F74456E756D657261626C653A20736C6F7420696E6465 PUSH1 0x44 DUP3 ADD MSTORE PUSH15 0x78206F7574206F6620626F756E6473 PUSH1 0x88 SHL PUSH1 0x64 DUP3 ADD MSTORE PUSH1 0x84 ADD PUSH2 0x73C JUMP JUMPDEST PUSH1 0xA DUP3 DUP2 SLOAD DUP2 LT PUSH2 0x10B2 JUMPI PUSH2 0x10B2 PUSH2 0x366C JUMP JUMPDEST SWAP1 PUSH0 MSTORE PUSH1 0x20 PUSH0 KECCAK256 SWAP1 PUSH1 0x2 MUL ADD PUSH0 ADD SLOAD SWAP1 POP SWAP2 SWAP1 POP JUMP JUMPDEST PUSH0 PUSH2 0x10D2 DUP3 PUSH2 0x1503 JUMP JUMPDEST PUSH0 DUP3 DUP2 MSTORE PUSH1 0x6 PUSH1 0x20 MSTORE PUSH1 0x40 SWAP1 KECCAK256 SLOAD PUSH1 0x5 DUP1 SLOAD SWAP1 SWAP2 SWAP1 DUP2 LT PUSH2 0x10F5 JUMPI PUSH2 0x10F5 PUSH2 0x366C JUMP JUMPDEST SWAP1 PUSH0 MSTORE PUSH1 0x20 PUSH0 KECCAK256 SWAP1 PUSH1 0x6 MUL ADD PUSH1 0x2 ADD SLOAD SWAP1 POP SWAP2 SWAP1 POP JUMP JUMPDEST PUSH2 0xD7D CALLER DUP4 DUP4 PUSH2 0x2069 JUMP JUMPDEST PUSH2 0x1121 CALLER DUP4 PUSH2 0x1BB9 JUMP JUMPDEST PUSH2 0x113D JUMPI PUSH1 0x40 MLOAD PUSH3 0x461BCD PUSH1 0xE5 SHL DUP2 MSTORE PUSH1 0x4 ADD PUSH2 0x73C SWAP1 PUSH2 0x37A1 JUMP JUMPDEST PUSH2 0x98E DUP5 DUP5 DUP5 DUP5 PUSH2 0x2132 JUMP JUMPDEST PUSH1 0x60 PUSH2 0x1154 DUP3 PUSH2 0x1503 JUMP JUMPDEST PUSH0 PUSH2 0x115D PUSH2 0x15BD JUMP JUMPDEST PUSH1 0x8 SLOAD SWAP1 SWAP2 POP PUSH1 0x1 PUSH1 0x1 PUSH1 0xA0 SHL SUB AND PUSH2 0x11A7 JUMPI PUSH0 DUP2 MLOAD GT PUSH2 0x118C JUMPI PUSH1 0x40 MLOAD DUP1 PUSH1 0x20 ADD PUSH1 0x40 MSTORE DUP1 PUSH0 DUP2 MSTORE POP PUSH2 0xA6B JUMP JUMPDEST DUP1 PUSH2 0x1196 DUP5 PUSH2 0x15CC JUMP JUMPDEST PUSH1 0x40 MLOAD PUSH1 0x20 ADD PUSH2 0x9E9 SWAP3 SWAP2 SWAP1 PUSH2 0x3965 JUMP JUMPDEST PUSH1 0x8 SLOAD PUSH1 0x40 MLOAD PUSH4 0x44A5A617 PUSH1 0xE1 SHL DUP2 MSTORE PUSH1 0x4 DUP2 ADD DUP6 SWAP1 MSTORE PUSH1 0x1 PUSH1 0x1 PUSH1 0xA0 SHL SUB SWAP1 SWAP2 AND SWAP1 PUSH4 0x894B4C2E SWAP1 PUSH1 0x24 ADD PUSH2 0xA2A JUMP JUMPDEST PUSH0 PUSH2 0x11E2 DUP4 PUSH2 0x1503 JUMP JUMPDEST POP PUSH0 SWAP2 DUP3 MSTORE PUSH1 0x4 PUSH1 0x20 SWAP1 DUP2 MSTORE PUSH1 0x40 DUP1 DUP5 KECCAK256 PUSH1 0x1 PUSH1 0x1 PUSH1 0xA0 SHL SUB SWAP4 SWAP1 SWAP4 AND DUP5 MSTORE SWAP2 SWAP1 MSTORE SWAP1 KECCAK256 SLOAD SWAP1 JUMP JUMPDEST PUSH1 0x1 PUSH1 0x1 PUSH1 0xA0 SHL SUB SWAP3 DUP4 AND PUSH0 SWAP1 DUP2 MSTORE PUSH1 0xC PUSH1 0x20 SWAP1 DUP2 MSTORE PUSH1 0x40 DUP1 DUP4 KECCAK256 SWAP5 DUP4 MSTORE SWAP4 DUP2 MSTORE DUP4 DUP3 KECCAK256 SWAP3 SWAP1 SWAP5 AND DUP2 MSTORE SWAP3 MSTORE SWAP1 KECCAK256 SLOAD PUSH1 0xFF AND SWAP1 JUMP JUMPDEST PUSH1 0x60 PUSH0 PUSH2 0x124A PUSH2 0x15BD JUMP JUMPDEST PUSH1 0x8 SLOAD SWAP1 SWAP2 POP PUSH1 0x1 PUSH1 0x1 PUSH1 0xA0 SHL SUB AND PUSH2 0x12A8 JUMPI PUSH0 DUP2 MLOAD GT PUSH2 0x1279 JUMPI PUSH1 0x40 MLOAD DUP1 PUSH1 0x20 ADD PUSH1 0x40 MSTORE DUP1 PUSH0 DUP2 MSTORE POP PUSH2 0x131E JUMP JUMPDEST DUP1 PUSH2 0x1283 ADDRESS PUSH2 0x21A5 JUMP JUMPDEST PUSH1 0x40 MLOAD PUSH1 0x20 ADD PUSH2 0x1294 SWAP3 SWAP2 SWAP1 PUSH2 0x3993 JUMP JUMPDEST PUSH1 0x40 MLOAD PUSH1 0x20 DUP2 DUP4 SUB SUB DUP2 MSTORE SWAP1 PUSH1 0x40 MSTORE PUSH2 0x131E JUMP JUMPDEST PUSH1 0x8 PUSH0 SWAP1 SLOAD SWAP1 PUSH2 0x100 EXP SWAP1 DIV PUSH1 0x1 PUSH1 0x1 PUSH1 0xA0 SHL SUB AND PUSH1 0x1 PUSH1 0x1 PUSH1 0xA0 SHL SUB AND PUSH4 0x725FA09C PUSH1 0x40 MLOAD DUP2 PUSH4 0xFFFFFFFF AND PUSH1 0xE0 SHL DUP2 MSTORE PUSH1 0x4 ADD PUSH0 PUSH1 0x40 MLOAD DUP1 DUP4 SUB DUP2 DUP7 GAS STATICCALL ISZERO DUP1 ISZERO PUSH2 0x12F7 JUMPI RETURNDATASIZE PUSH0 DUP1 RETURNDATACOPY RETURNDATASIZE PUSH0 REVERT JUMPDEST POP POP POP POP PUSH1 0x40 MLOAD RETURNDATASIZE PUSH0 DUP3 RETURNDATACOPY PUSH1 0x1F RETURNDATASIZE SWAP1 DUP2 ADD PUSH1 0x1F NOT AND DUP3 ADD PUSH1 0x40 MSTORE PUSH2 0x131E SWAP2 SWAP1 DUP2 ADD SWAP1 PUSH2 0x3739 JUMP JUMPDEST SWAP2 POP POP SWAP1 JUMP JUMPDEST PUSH1 0x1 PUSH1 0x1 PUSH1 0xA0 SHL SUB SWAP2 DUP3 AND PUSH0 SWAP1 DUP2 MSTORE PUSH1 0x7 PUSH1 0x20 SWAP1 DUP2 MSTORE PUSH1 0x40 DUP1 DUP4 KECCAK256 SWAP4 SWAP1 SWAP5 AND DUP3 MSTORE PUSH1 0x2 SWAP1 SWAP3 ADD SWAP1 SWAP2 MSTORE KECCAK256 SLOAD PUSH1 0xFF AND SWAP1 JUMP JUMPDEST PUSH0 DUP1 PUSH2 0x1369 PUSH1 0xD SLOAD PUSH1 0x1 PUSH1 0x1 PUSH1 0xA0 SHL SUB AND SWAP1 JUMP JUMPDEST SWAP1 POP PUSH0 DUP2 PUSH1 0x1 PUSH1 0x1 PUSH1 0xA0 SHL SUB AND PUSH4 0x13D18A24 PUSH1 0x40 MLOAD DUP2 PUSH4 0xFFFFFFFF AND PUSH1 0xE0 SHL DUP2 MSTORE PUSH1 0x4 ADD PUSH1 0x20 PUSH1 0x40 MLOAD DUP1 DUP4 SUB DUP2 DUP7 GAS STATICCALL ISZERO DUP1 ISZERO PUSH2 0x13A8 JUMPI RETURNDATASIZE PUSH0 DUP1 RETURNDATACOPY RETURNDATASIZE PUSH0 REVERT JUMPDEST POP POP POP POP PUSH1 0x40 MLOAD RETURNDATASIZE PUSH1 0x1F NOT PUSH1 0x1F DUP3 ADD AND DUP3 ADD DUP1 PUSH1 0x40 MSTORE POP DUP2 ADD SWAP1 PUSH2 0x13CC SWAP2 SWAP1 PUSH2 0x39D6 JUMP JUMPDEST SWAP1 POP DUP1 PUSH2 0x13D8 DUP6 PUSH2 0xAF1 JUMP JUMPDEST EQ PUSH2 0x141B JUMPI PUSH1 0x40 MLOAD PUSH3 0x461BCD PUSH1 0xE5 SHL DUP2 MSTORE PUSH1 0x20 PUSH1 0x4 DUP3 ADD MSTORE PUSH1 0x13 PUSH1 0x24 DUP3 ADD MSTORE PUSH19 0x139BC81B585D18DA081CDA185C99481CDB1BDD PUSH1 0x6A SHL PUSH1 0x44 DUP3 ADD MSTORE PUSH1 0x64 ADD PUSH2 0x73C JUMP JUMPDEST PUSH1 0x40 MLOAD PUSH4 0x17047263 PUSH1 0xE1 SHL DUP2 MSTORE ADDRESS PUSH1 0x4 DUP3 ADD MSTORE PUSH1 0x24 DUP2 ADD DUP6 SWAP1 MSTORE PUSH1 0x1 PUSH1 0x1 PUSH1 0xA0 SHL SUB DUP4 AND SWAP1 PUSH4 0x2E08E4C6 SWAP1 PUSH1 0x44 ADD PUSH1 0x20 PUSH1 0x40 MLOAD DUP1 DUP4 SUB DUP2 DUP7 GAS STATICCALL ISZERO DUP1 ISZERO PUSH2 0x1464 JUMPI RETURNDATASIZE PUSH0 DUP1 RETURNDATACOPY RETURNDATASIZE PUSH0 REVERT JUMPDEST POP POP POP POP PUSH1 0x40 MLOAD RETURNDATASIZE PUSH1 0x1F NOT PUSH1 0x1F DUP3 ADD AND DUP3 ADD DUP1 PUSH1 0x40 MSTORE POP DUP2 ADD SWAP1 PUSH2 0x1488 SWAP2 SWAP1 PUSH2 0x39D6 JUMP JUMPDEST SWAP5 SWAP4 POP POP POP POP JUMP JUMPDEST PUSH2 0x1498 PUSH2 0x1B75 JUMP JUMPDEST PUSH2 0xD7D DUP3 DUP3 PUSH2 0x21BB JUMP JUMPDEST PUSH2 0x14AA PUSH2 0x1B75 JUMP JUMPDEST PUSH1 0x1 PUSH1 0x1 PUSH1 0xA0 SHL SUB DUP2 AND PUSH2 0x14D3 JUMPI PUSH0 PUSH1 0x40 MLOAD PUSH4 0x1E4FBDF7 PUSH1 0xE0 SHL DUP2 MSTORE PUSH1 0x4 ADD PUSH2 0x73C SWAP2 SWAP1 PUSH2 0x32D5 JUMP JUMPDEST PUSH2 0x14DC DUP2 PUSH2 0x1EE3 JUMP JUMPDEST POP JUMP JUMPDEST PUSH0 PUSH1 0x1 PUSH1 0x1 PUSH1 0xE0 SHL SUB NOT DUP3 AND PUSH4 0x1DBA0DCF PUSH1 0xE1 SHL EQ DUP1 PUSH2 0x794 JUMPI POP PUSH2 0x794 DUP3 PUSH2 0x21F9 JUMP JUMPDEST PUSH2 0x150C DUP2 PUSH2 0x229A JUMP JUMPDEST PUSH2 0x14DC JUMPI PUSH1 0x40 MLOAD PUSH3 0x461BCD PUSH1 0xE5 SHL DUP2 MSTORE PUSH1 0x4 ADD PUSH2 0x73C SWAP1 PUSH2 0x3932 JUMP JUMPDEST PUSH0 DUP2 DUP2 MSTORE PUSH1 0x6 PUSH1 0x20 MSTORE PUSH1 0x40 SWAP1 KECCAK256 SLOAD PUSH1 0x5 DUP1 SLOAD DUP5 SWAP3 SWAP1 DUP2 LT PUSH2 0x154B JUMPI PUSH2 0x154B PUSH2 0x366C JUMP JUMPDEST PUSH0 SWAP2 DUP3 MSTORE PUSH1 0x20 SWAP1 SWAP2 KECCAK256 PUSH1 0x6 SWAP1 SWAP2 MUL ADD PUSH1 0x4 ADD DUP1 SLOAD PUSH1 0x1 PUSH1 0x1 PUSH1 0xA0 SHL SUB NOT AND PUSH1 0x1 PUSH1 0x1 PUSH1 0xA0 SHL SUB SWAP3 DUP4 AND OR SWAP1 SSTORE DUP2 SWAP1 DUP4 AND PUSH2 0x1584 DUP3 PUSH2 0xDD6 JUMP JUMPDEST PUSH1 0x1 PUSH1 0x1 PUSH1 0xA0 SHL SUB AND PUSH32 0x8C5BE1E5EBEC7D5BD14F71427D1E84F3DD0314C0F7B2291E5B200AC8C7C3B925 PUSH1 0x40 MLOAD PUSH1 0x40 MLOAD DUP1 SWAP2 SUB SWAP1 LOG4 POP POP JUMP JUMPDEST PUSH1 0x60 PUSH1 0xE DUP1 SLOAD PUSH2 0x7CC SWAP1 PUSH2 0x3680 JUMP JUMPDEST PUSH1 0x60 PUSH0 PUSH2 0x15D8 DUP4 PUSH2 0x22E1 JUMP JUMPDEST PUSH1 0x1 ADD SWAP1 POP PUSH0 DUP2 PUSH1 0x1 PUSH1 0x1 PUSH1 0x40 SHL SUB DUP2 GT ISZERO PUSH2 0x15F6 JUMPI PUSH2 0x15F6 PUSH2 0x3434 JUMP JUMPDEST PUSH1 0x40 MLOAD SWAP1 DUP1 DUP3 MSTORE DUP1 PUSH1 0x1F ADD PUSH1 0x1F NOT AND PUSH1 0x20 ADD DUP3 ADD PUSH1 0x40 MSTORE DUP1 ISZERO PUSH2 0x1620 JUMPI PUSH1 0x20 DUP3 ADD DUP2 DUP1 CALLDATASIZE DUP4 CALLDATACOPY ADD SWAP1 POP JUMPDEST POP SWAP1 POP DUP2 DUP2 ADD PUSH1 0x20 ADD JUMPDEST PUSH0 NOT ADD PUSH16 0x181899199A1A9B1B9C1CB0B131B232B3 PUSH1 0x81 SHL PUSH1 0xA DUP7 MOD BYTE DUP2 MSTORE8 PUSH1 0xA DUP6 DIV SWAP5 POP DUP5 PUSH2 0x162A JUMPI POP SWAP4 SWAP3 POP POP POP JUMP JUMPDEST PUSH0 PUSH2 0x1666 DUP4 DUP6 PUSH2 0x11D8 JUMP JUMPDEST SWAP1 POP PUSH2 0x1672 DUP5 DUP5 PUSH2 0x1BB9 JUMP JUMPDEST ISZERO DUP1 ISZERO PUSH2 0x1680 JUMPI POP PUSH0 NOT DUP2 EQ ISZERO JUMPDEST ISZERO PUSH2 0x98E JUMPI DUP2 DUP2 LT ISZERO PUSH2 0x16D5 JUMPI PUSH1 0x40 MLOAD PUSH3 0x461BCD PUSH1 0xE5 SHL DUP2 MSTORE PUSH1 0x20 PUSH1 0x4 DUP3 ADD MSTORE PUSH1 0x1F PUSH1 0x24 DUP3 ADD MSTORE PUSH32 0x455243333532353A20696E73756666696369656E7420616C6C6F77616E636500 PUSH1 0x44 DUP3 ADD MSTORE PUSH1 0x64 ADD PUSH2 0x73C JUMP JUMPDEST PUSH2 0x98E DUP4 DUP6 PUSH2 0x16E4 DUP6 DUP6 PUSH2 0x39ED JUMP JUMPDEST PUSH2 0x1F34 JUMP JUMPDEST PUSH0 PUSH2 0x794 PUSH2 0x23B8 JUMP JUMPDEST PUSH1 0x1 PUSH1 0x1 PUSH1 0xA0 SHL SUB DUP5 AND PUSH2 0x1752 JUMPI PUSH1 0x40 MLOAD PUSH3 0x461BCD PUSH1 0xE5 SHL DUP2 MSTORE PUSH1 0x20 PUSH1 0x4 DUP3 ADD MSTORE PUSH1 0x21 PUSH1 0x24 DUP3 ADD MSTORE PUSH32 0x455243333532353A206D696E7420746F20746865207A65726F20616464726573 PUSH1 0x44 DUP3 ADD MSTORE PUSH1 0x73 PUSH1 0xF8 SHL PUSH1 0x64 DUP3 ADD MSTORE PUSH1 0x84 ADD PUSH2 0x73C JUMP JUMPDEST DUP3 PUSH0 SUB PUSH2 0x17AB JUMPI PUSH1 0x40 MLOAD PUSH3 0x461BCD PUSH1 0xE5 SHL DUP2 MSTORE PUSH1 0x20 PUSH1 0x4 DUP3 ADD MSTORE PUSH1 0x21 PUSH1 0x24 DUP3 ADD MSTORE PUSH32 0x455243333532353A2063616E6E6F74206D696E74207A65726F20746F6B656E49 PUSH1 0x44 DUP3 ADD MSTORE PUSH1 0x19 PUSH1 0xFA SHL PUSH1 0x64 DUP3 ADD MSTORE PUSH1 0x84 ADD PUSH2 0x73C JUMP JUMPDEST PUSH2 0x17B4 DUP4 PUSH2 0x229A JUMP JUMPDEST ISZERO PUSH2 0x1801 JUMPI PUSH1 0x40 MLOAD PUSH3 0x461BCD PUSH1 0xE5 SHL DUP2 MSTORE PUSH1 0x20 PUSH1 0x4 DUP3 ADD MSTORE PUSH1 0x1D PUSH1 0x24 DUP3 ADD MSTORE PUSH32 0x455243333532353A20746F6B656E20616C7265616479206D696E746564000000 PUSH1 0x44 DUP3 ADD MSTORE PUSH1 0x64 ADD PUSH2 0x73C JUMP JUMPDEST PUSH2 0x180F PUSH0 DUP6 PUSH0 DUP7 DUP7 DUP7 PUSH2 0x23D1 JUMP JUMPDEST PUSH2 0x181A DUP5 DUP5 DUP5 PUSH2 0x240E JUMP JUMPDEST PUSH2 0x1824 DUP4 DUP3 PUSH2 0x24D1 JUMP JUMPDEST PUSH2 0x98E PUSH0 DUP6 PUSH0 DUP7 DUP7 DUP7 PUSH2 0x2551 JUMP JUMPDEST PUSH2 0x183B DUP4 PUSH2 0x229A JUMP JUMPDEST PUSH2 0x1897 JUMPI PUSH1 0x40 MLOAD PUSH3 0x461BCD PUSH1 0xE5 SHL DUP2 MSTORE PUSH1 0x20 PUSH1 0x4 DUP3 ADD MSTORE PUSH1 0x27 PUSH1 0x24 DUP3 ADD MSTORE PUSH32 0x455243333532353A207472616E736665722066726F6D20696E76616C69642074 PUSH1 0x44 DUP3 ADD MSTORE PUSH7 0x1BDAD95B881251 PUSH1 0xCA SHL PUSH1 0x64 DUP3 ADD MSTORE PUSH1 0x84 ADD PUSH2 0x73C JUMP JUMPDEST PUSH2 0x18A0 DUP3 PUSH2 0x229A JUMP JUMPDEST PUSH2 0x18FA JUMPI PUSH1 0x40 MLOAD PUSH3 0x461BCD PUSH1 0xE5 SHL DUP2 MSTORE PUSH1 0x20 PUSH1 0x4 DUP3 ADD MSTORE PUSH1 0x25 PUSH1 0x24 DUP3 ADD MSTORE PUSH32 0x455243333532353A207472616E7366657220746F20696E76616C696420746F6B PUSH1 0x44 DUP3 ADD MSTORE PUSH5 0x195B881251 PUSH1 0xDA SHL PUSH1 0x64 DUP3 ADD MSTORE PUSH1 0x84 ADD PUSH2 0x73C JUMP JUMPDEST PUSH0 DUP4 DUP2 MSTORE PUSH1 0x6 PUSH1 0x20 MSTORE PUSH1 0x40 DUP2 KECCAK256 SLOAD PUSH1 0x5 DUP1 SLOAD SWAP1 SWAP2 SWAP1 DUP2 LT PUSH2 0x191D JUMPI PUSH2 0x191D PUSH2 0x366C JUMP JUMPDEST SWAP1 PUSH0 MSTORE PUSH1 0x20 PUSH0 KECCAK256 SWAP1 PUSH1 0x6 MUL ADD SWAP1 POP PUSH0 PUSH1 0x5 PUSH1 0x6 PUSH0 DUP7 DUP2 MSTORE PUSH1 0x20 ADD SWAP1 DUP2 MSTORE PUSH1 0x20 ADD PUSH0 KECCAK256 SLOAD DUP2 SLOAD DUP2 LT PUSH2 0x1950 JUMPI PUSH2 0x1950 PUSH2 0x366C JUMP JUMPDEST SWAP1 PUSH0 MSTORE PUSH1 0x20 PUSH0 KECCAK256 SWAP1 PUSH1 0x6 MUL ADD SWAP1 POP DUP3 DUP3 PUSH1 0x2 ADD SLOAD LT ISZERO PUSH2 0x19C5 JUMPI PUSH1 0x40 MLOAD PUSH3 0x461BCD PUSH1 0xE5 SHL DUP2 MSTORE PUSH1 0x20 PUSH1 0x4 DUP3 ADD MSTORE PUSH1 0x2A PUSH1 0x24 DUP3 ADD MSTORE PUSH32 0x455243333532353A20696E73756666696369656E742062616C616E636520666F PUSH1 0x44 DUP3 ADD MSTORE PUSH10 0x39103A3930B739B332B9 PUSH1 0xB1 SHL PUSH1 0x64 DUP3 ADD MSTORE PUSH1 0x84 ADD PUSH2 0x73C JUMP JUMPDEST DUP1 PUSH1 0x1 ADD SLOAD DUP3 PUSH1 0x1 ADD SLOAD EQ PUSH2 0x1A33 JUMPI PUSH1 0x40 MLOAD PUSH3 0x461BCD PUSH1 0xE5 SHL DUP2 MSTORE PUSH1 0x20 PUSH1 0x4 DUP3 ADD MSTORE PUSH1 0x2E PUSH1 0x24 DUP3 ADD MSTORE PUSH32 0x455243333532353A207472616E7366657220746F20746F6B656E207769746820 PUSH1 0x44 DUP3 ADD MSTORE PUSH14 0x191A5999995C995B9D081CDB1BDD PUSH1 0x92 SHL PUSH1 0x64 DUP3 ADD MSTORE PUSH1 0x84 ADD PUSH2 0x73C JUMP JUMPDEST PUSH1 0x3 DUP1 DUP4 ADD SLOAD SWAP1 DUP3 ADD SLOAD PUSH1 0x1 DUP5 ADD SLOAD PUSH2 0x1A5E SWAP3 PUSH1 0x1 PUSH1 0x1 PUSH1 0xA0 SHL SUB SWAP1 DUP2 AND SWAP3 AND SWAP1 DUP9 SWAP1 DUP9 SWAP1 DUP9 PUSH2 0x23D1 JUMP JUMPDEST DUP3 DUP3 PUSH1 0x2 ADD PUSH0 DUP3 DUP3 SLOAD PUSH2 0x1A71 SWAP2 SWAP1 PUSH2 0x39ED JUMP JUMPDEST SWAP3 POP POP DUP2 SWAP1 SSTORE POP DUP3 DUP2 PUSH1 0x2 ADD PUSH0 DUP3 DUP3 SLOAD PUSH2 0x1A8B SWAP2 SWAP1 PUSH2 0x3907 JUMP JUMPDEST SWAP1 SWAP2 SSTORE POP POP PUSH1 0x40 MLOAD DUP4 DUP2 MSTORE DUP5 SWAP1 DUP7 SWAP1 PUSH32 0xB2AAC84F3EC956911FD78EAE5311062972FF949F38412E8DA39069D9F068CC6 SWAP1 PUSH1 0x20 ADD PUSH1 0x40 MLOAD DUP1 SWAP2 SUB SWAP1 LOG3 PUSH1 0x3 DUP1 DUP4 ADD SLOAD SWAP1 DUP3 ADD SLOAD PUSH1 0x1 DUP5 ADD SLOAD PUSH2 0x1AF2 SWAP3 PUSH1 0x1 PUSH1 0x1 PUSH1 0xA0 SHL SUB SWAP1 DUP2 AND SWAP3 AND SWAP1 DUP9 SWAP1 DUP9 SWAP1 DUP9 PUSH2 0x2551 JUMP JUMPDEST PUSH2 0x1B0C DUP6 DUP6 DUP6 PUSH1 0x40 MLOAD DUP1 PUSH1 0x20 ADD PUSH1 0x40 MSTORE DUP1 PUSH0 DUP2 MSTORE POP PUSH2 0x25C2 JUMP JUMPDEST PUSH2 0x1B6E JUMPI PUSH1 0x40 MLOAD PUSH3 0x461BCD PUSH1 0xE5 SHL DUP2 MSTORE PUSH1 0x20 PUSH1 0x4 DUP3 ADD MSTORE PUSH1 0x2D PUSH1 0x24 DUP3 ADD MSTORE PUSH32 0x455243333532353A207472616E736665722072656A6563746564206279204552 PUSH1 0x44 DUP3 ADD MSTORE PUSH13 0x21999A991AA932B1B2B4BB32B9 PUSH1 0x99 SHL PUSH1 0x64 DUP3 ADD MSTORE PUSH1 0x84 ADD PUSH2 0x73C JUMP JUMPDEST POP POP POP POP POP JUMP JUMPDEST PUSH1 0xD SLOAD PUSH1 0x1 PUSH1 0x1 PUSH1 0xA0 SHL SUB AND CALLER EQ PUSH2 0xF66 JUMPI CALLER PUSH1 0x40 MLOAD PUSH4 0x118CDAA7 PUSH1 0xE0 SHL DUP2 MSTORE PUSH1 0x4 ADD PUSH2 0x73C SWAP2 SWAP1 PUSH2 0x32D5 JUMP JUMPDEST PUSH0 PUSH2 0x1BAB PUSH2 0x23B8 JUMP JUMPDEST SWAP1 POP PUSH2 0xA6B DUP5 DUP3 DUP6 DUP6 PUSH2 0x16F2 JUMP JUMPDEST PUSH0 PUSH2 0x1BC3 DUP3 PUSH2 0x1503 JUMP JUMPDEST PUSH0 PUSH2 0x1BCD DUP4 PUSH2 0xDD6 JUMP JUMPDEST SWAP1 POP PUSH0 PUSH2 0x1BD9 DUP5 PUSH2 0xAF1 JUMP JUMPDEST SWAP1 POP DUP2 PUSH1 0x1 PUSH1 0x1 PUSH1 0xA0 SHL SUB AND DUP6 PUSH1 0x1 PUSH1 0x1 PUSH1 0xA0 SHL SUB AND EQ DUP1 PUSH2 0x1C14 JUMPI POP DUP5 PUSH1 0x1 PUSH1 0x1 PUSH1 0xA0 SHL SUB AND PUSH2 0x1C09 DUP6 PUSH2 0x84D JUMP JUMPDEST PUSH1 0x1 PUSH1 0x1 PUSH1 0xA0 SHL SUB AND EQ JUMPDEST DUP1 PUSH2 0x1C24 JUMPI POP PUSH2 0x1C24 DUP3 DUP7 PUSH2 0x1324 JUMP JUMPDEST DUP1 PUSH2 0x1C35 JUMPI POP PUSH2 0x1C35 DUP3 DUP3 DUP8 PUSH2 0x120A JUMP JUMPDEST SWAP6 SWAP5 POP POP POP POP POP JUMP JUMPDEST DUP3 PUSH1 0x1 PUSH1 0x1 PUSH1 0xA0 SHL SUB AND PUSH2 0x1C51 DUP3 PUSH2 0xDD6 JUMP JUMPDEST PUSH1 0x1 PUSH1 0x1 PUSH1 0xA0 SHL SUB AND EQ PUSH2 0x1CB3 JUMPI PUSH1 0x40 MLOAD PUSH3 0x461BCD PUSH1 0xE5 SHL DUP2 MSTORE PUSH1 0x20 PUSH1 0x4 DUP3 ADD MSTORE PUSH1 0x24 DUP1 DUP3 ADD MSTORE PUSH32 0x455243333532353A207472616E736665722066726F6D20696E76616C6964206F PUSH1 0x44 DUP3 ADD MSTORE PUSH4 0x3BB732B9 PUSH1 0xE1 SHL PUSH1 0x64 DUP3 ADD MSTORE PUSH1 0x84 ADD PUSH2 0x73C JUMP JUMPDEST PUSH1 0x1 PUSH1 0x1 PUSH1 0xA0 SHL SUB DUP3 AND PUSH2 0x1D17 JUMPI PUSH1 0x40 MLOAD PUSH3 0x461BCD PUSH1 0xE5 SHL DUP2 MSTORE PUSH1 0x20 PUSH1 0x4 DUP3 ADD MSTORE PUSH1 0x25 PUSH1 0x24 DUP3 ADD MSTORE PUSH32 0x455243333532353A207472616E7366657220746F20746865207A65726F206164 PUSH1 0x44 DUP3 ADD MSTORE PUSH5 0x6472657373 PUSH1 0xD8 SHL PUSH1 0x64 DUP3 ADD MSTORE PUSH1 0x84 ADD PUSH2 0x73C JUMP JUMPDEST PUSH0 PUSH2 0x1D21 DUP3 PUSH2 0xAF1 JUMP JUMPDEST SWAP1 POP PUSH0 PUSH2 0x1D2D DUP4 PUSH2 0x10C8 JUMP JUMPDEST SWAP1 POP PUSH2 0x1D3D DUP6 DUP6 DUP6 DUP7 DUP7 DUP7 PUSH2 0x23D1 JUMP JUMPDEST PUSH2 0x1D47 PUSH0 DUP5 PUSH2 0x1528 JUMP JUMPDEST PUSH2 0x1D50 DUP4 PUSH2 0x272C JUMP JUMPDEST PUSH2 0x1D5A DUP6 DUP5 PUSH2 0x27D2 JUMP JUMPDEST PUSH2 0x1D64 DUP5 DUP5 PUSH2 0x28E5 JUMP JUMPDEST DUP3 DUP5 PUSH1 0x1 PUSH1 0x1 PUSH1 0xA0 SHL SUB AND DUP7 PUSH1 0x1 PUSH1 0x1 PUSH1 0xA0 SHL SUB AND PUSH32 0xDDF252AD1BE2C89B69C2B068FC378DAA952BA7F163C4A11628F55A4DF523B3EF PUSH1 0x40 MLOAD PUSH1 0x40 MLOAD DUP1 SWAP2 SUB SWAP1 LOG4 PUSH2 0x1B6E DUP6 DUP6 DUP6 DUP7 DUP7 DUP7 PUSH2 0x2551 JUMP JUMPDEST PUSH1 0xA SLOAD PUSH0 SWAP1 ISZERO DUP1 ISZERO SWAP1 PUSH2 0x794 JUMPI POP PUSH0 DUP3 DUP2 MSTORE PUSH1 0xB PUSH1 0x20 MSTORE PUSH1 0x40 SWAP1 KECCAK256 SLOAD PUSH1 0xA DUP1 SLOAD DUP5 SWAP3 SWAP1 DUP2 LT PUSH2 0x1DE4 JUMPI PUSH2 0x1DE4 PUSH2 0x366C JUMP JUMPDEST SWAP1 PUSH0 MSTORE PUSH1 0x20 PUSH0 KECCAK256 SWAP1 PUSH1 0x2 MUL ADD PUSH0 ADD SLOAD EQ SWAP3 SWAP2 POP POP JUMP JUMPDEST DUP2 PUSH1 0x1 PUSH1 0x1 PUSH1 0xA0 SHL SUB AND DUP5 PUSH1 0x1 PUSH1 0x1 PUSH1 0xA0 SHL SUB AND SUB PUSH2 0x1E6B JUMPI PUSH1 0x40 MLOAD PUSH3 0x461BCD PUSH1 0xE5 SHL DUP2 MSTORE PUSH1 0x20 PUSH1 0x4 DUP3 ADD MSTORE PUSH1 0x27 PUSH1 0x24 DUP3 ADD MSTORE PUSH32 0x45524333353235536C6F74417070726F7661626C653A20617070726F76652074 PUSH1 0x44 DUP3 ADD MSTORE PUSH7 0x379037BBB732B9 PUSH1 0xC9 SHL PUSH1 0x64 DUP3 ADD MSTORE PUSH1 0x84 ADD PUSH2 0x73C JUMP JUMPDEST PUSH1 0x1 PUSH1 0x1 PUSH1 0xA0 SHL SUB DUP5 DUP2 AND PUSH0 DUP2 DUP2 MSTORE PUSH1 0xC PUSH1 0x20 SWAP1 DUP2 MSTORE PUSH1 0x40 DUP1 DUP4 KECCAK256 DUP9 DUP5 MSTORE DUP3 MSTORE DUP1 DUP4 KECCAK256 SWAP5 DUP8 AND DUP1 DUP5 MSTORE SWAP5 DUP3 MSTORE SWAP2 DUP3 SWAP1 KECCAK256 DUP1 SLOAD PUSH1 0xFF NOT AND DUP7 ISZERO ISZERO SWAP1 DUP2 OR SWAP1 SWAP2 SSTORE SWAP2 MLOAD SWAP2 DUP3 MSTORE DUP7 SWAP3 SWAP2 PUSH32 0x7BDF71E6625AA496095BF08B60C677CF81C963F402CF258981E3BD7507D3480C SWAP2 ADD PUSH1 0x40 MLOAD DUP1 SWAP2 SUB SWAP1 LOG4 POP POP POP POP JUMP JUMPDEST PUSH1 0xD DUP1 SLOAD PUSH1 0x1 PUSH1 0x1 PUSH1 0xA0 SHL SUB DUP4 DUP2 AND PUSH1 0x1 PUSH1 0x1 PUSH1 0xA0 SHL SUB NOT DUP4 AND DUP2 OR SWAP1 SWAP4 SSTORE PUSH1 0x40 MLOAD SWAP2 AND SWAP2 SWAP1 DUP3 SWAP1 PUSH32 0x8BE0079C531659141344CD1FD0A4F28419497F9722A3DAAFE3B4186F6B6457E0 SWAP1 PUSH0 SWAP1 LOG3 POP POP JUMP JUMPDEST PUSH1 0x1 PUSH1 0x1 PUSH1 0xA0 SHL SUB DUP3 AND PUSH2 0x1F9D JUMPI PUSH1 0x40 MLOAD PUSH3 0x461BCD PUSH1 0xE5 SHL DUP2 MSTORE PUSH1 0x20 PUSH1 0x4 DUP3 ADD MSTORE PUSH1 0x2A PUSH1 0x24 DUP3 ADD MSTORE PUSH32 0x455243333532353A20617070726F76652076616C756520746F20746865207A65 PUSH1 0x44 DUP3 ADD MSTORE PUSH10 0x726F2061646472657373 PUSH1 0xB0 SHL PUSH1 0x64 DUP3 ADD MSTORE PUSH1 0x84 ADD PUSH2 0x73C JUMP JUMPDEST PUSH2 0x1FA7 DUP3 DUP5 PUSH2 0x296C JUMP JUMPDEST PUSH2 0x200B JUMPI PUSH0 DUP4 DUP2 MSTORE PUSH1 0x6 PUSH1 0x20 MSTORE PUSH1 0x40 SWAP1 KECCAK256 SLOAD PUSH1 0x5 DUP1 SLOAD SWAP1 SWAP2 SWAP1 DUP2 LT PUSH2 0x1FCE JUMPI PUSH2 0x1FCE PUSH2 0x366C JUMP JUMPDEST PUSH0 SWAP2 DUP3 MSTORE PUSH1 0x20 DUP1 DUP4 KECCAK256 PUSH1 0x6 SWAP3 SWAP1 SWAP3 MUL SWAP1 SWAP2 ADD PUSH1 0x5 ADD DUP1 SLOAD PUSH1 0x1 DUP2 ADD DUP3 SSTORE SWAP1 DUP4 MSTORE SWAP2 KECCAK256 ADD DUP1 SLOAD PUSH1 0x1 PUSH1 0x1 PUSH1 0xA0 SHL SUB NOT AND PUSH1 0x1 PUSH1 0x1 PUSH1 0xA0 SHL SUB DUP5 AND OR SWAP1 SSTORE JUMPDEST PUSH0 DUP4 DUP2 MSTORE PUSH1 0x4 PUSH1 0x20 SWAP1 DUP2 MSTORE PUSH1 0x40 DUP1 DUP4 KECCAK256 PUSH1 0x1 PUSH1 0x1 PUSH1 0xA0 SHL SUB DUP7 AND DUP1 DUP6 MSTORE SWAP1 DUP4 MSTORE SWAP3 DUP2 SWAP1 KECCAK256 DUP5 SWAP1 SSTORE MLOAD DUP4 DUP2 MSTORE DUP6 SWAP2 PUSH32 0x621B050DE0AD08B51D19B48B3E6DF75348C4DE6BDD93E81B252CA62E28265B1B SWAP2 ADD JUMPDEST PUSH1 0x40 MLOAD DUP1 SWAP2 SUB SWAP1 LOG3 POP POP POP JUMP JUMPDEST DUP2 PUSH1 0x1 PUSH1 0x1 PUSH1 0xA0 SHL SUB AND DUP4 PUSH1 0x1 PUSH1 0x1 PUSH1 0xA0 SHL SUB AND SUB PUSH2 0x20CA JUMPI PUSH1 0x40 MLOAD PUSH3 0x461BCD PUSH1 0xE5 SHL DUP2 MSTORE PUSH1 0x20 PUSH1 0x4 DUP3 ADD MSTORE PUSH1 0x1A PUSH1 0x24 DUP3 ADD MSTORE PUSH32 0x455243333532353A20617070726F766520746F2063616C6C6572000000000000 PUSH1 0x44 DUP3 ADD MSTORE PUSH1 0x64 ADD PUSH2 0x73C JUMP JUMPDEST PUSH1 0x1 PUSH1 0x1 PUSH1 0xA0 SHL SUB DUP4 DUP2 AND PUSH0 DUP2 DUP2 MSTORE PUSH1 0x7 PUSH1 0x20 SWAP1 DUP2 MSTORE PUSH1 0x40 DUP1 DUP4 KECCAK256 SWAP5 DUP8 AND DUP1 DUP5 MSTORE PUSH1 0x2 SWAP1 SWAP6 ADD DUP3 MSTORE SWAP2 DUP3 SWAP1 KECCAK256 DUP1 SLOAD PUSH1 0xFF NOT AND DUP7 ISZERO ISZERO SWAP1 DUP2 OR SWAP1 SWAP2 SSTORE SWAP2 MLOAD SWAP2 DUP3 MSTORE PUSH32 0x17307EAB39AB6107E8899845AD3D59BD9653F200F220920489CA2B5937696C31 SWAP2 ADD PUSH2 0x205C JUMP JUMPDEST PUSH2 0x213D DUP5 DUP5 DUP5 PUSH2 0x1C3E JUMP JUMPDEST PUSH2 0x2149 DUP5 DUP5 DUP5 DUP5 PUSH2 0x2A38 JUMP JUMPDEST PUSH2 0x98E JUMPI PUSH1 0x40 MLOAD PUSH3 0x461BCD PUSH1 0xE5 SHL DUP2 MSTORE PUSH1 0x20 PUSH1 0x4 DUP3 ADD MSTORE PUSH1 0x27 PUSH1 0x24 DUP3 ADD MSTORE PUSH32 0x455243333532353A207472616E7366657220746F206E6F6E2045524337323152 PUSH1 0x44 DUP3 ADD MSTORE PUSH7 0x32B1B2B4BB32B9 PUSH1 0xC9 SHL PUSH1 0x64 DUP3 ADD MSTORE PUSH1 0x84 ADD PUSH2 0x73C JUMP JUMPDEST PUSH1 0x60 PUSH2 0x794 PUSH1 0x1 PUSH1 0x1 PUSH1 0xA0 SHL SUB DUP4 AND PUSH1 0x14 PUSH2 0x2B7A JUMP JUMPDEST PUSH0 PUSH2 0x21C5 DUP4 PUSH2 0xDD6 JUMP JUMPDEST SWAP1 POP PUSH0 PUSH2 0x21D1 DUP5 PUSH2 0xAF1 JUMP JUMPDEST SWAP1 POP PUSH2 0x21E1 PUSH0 DUP4 PUSH0 DUP8 DUP6 DUP9 PUSH2 0x23D1 JUMP JUMPDEST PUSH2 0x21EB DUP5 DUP5 PUSH2 0x24D1 JUMP JUMPDEST PUSH2 0x98E PUSH0 DUP4 PUSH0 DUP8 DUP6 DUP9 PUSH2 0x2551 JUMP JUMPDEST PUSH0 PUSH1 0x1 PUSH1 0x1 PUSH1 0xE0 SHL SUB NOT DUP3 AND PUSH4 0x1FFC9A7 PUSH1 0xE0 SHL EQ DUP1 PUSH2 0x2229 JUMPI POP PUSH1 0x1 PUSH1 0x1 PUSH1 0xE0 SHL SUB NOT DUP3 AND PUSH4 0x354D605 PUSH1 0xE6 SHL EQ JUMPDEST DUP1 PUSH2 0x2244 JUMPI POP PUSH1 0x1 PUSH1 0x1 PUSH1 0xE0 SHL SUB NOT DUP3 AND PUSH4 0x80AC58CD PUSH1 0xE0 SHL EQ JUMPDEST DUP1 PUSH2 0x225F JUMPI POP PUSH1 0x1 PUSH1 0x1 PUSH1 0xE0 SHL SUB NOT DUP3 AND PUSH4 0x70B00481 PUSH1 0xE1 SHL EQ JUMPDEST DUP1 PUSH2 0x227A JUMPI POP PUSH1 0x1 PUSH1 0x1 PUSH1 0xE0 SHL SUB NOT DUP3 AND PUSH4 0x780E9D63 PUSH1 0xE0 SHL EQ JUMPDEST DUP1 PUSH2 0x794 JUMPI POP PUSH1 0x1 PUSH1 0x1 PUSH1 0xE0 SHL SUB NOT DUP3 AND PUSH4 0x5B5E139F PUSH1 0xE0 SHL EQ SWAP3 SWAP2 POP POP JUMP JUMPDEST PUSH1 0x5 SLOAD PUSH0 SWAP1 ISZERO DUP1 ISZERO SWAP1 PUSH2 0x794 JUMPI POP PUSH0 DUP3 DUP2 MSTORE PUSH1 0x6 PUSH1 0x20 MSTORE PUSH1 0x40 SWAP1 KECCAK256 SLOAD PUSH1 0x5 DUP1 SLOAD DUP5 SWAP3 SWAP1 DUP2 LT PUSH2 0x22CB JUMPI PUSH2 0x22CB PUSH2 0x366C JUMP JUMPDEST SWAP1 PUSH0 MSTORE PUSH1 0x20 PUSH0 KECCAK256 SWAP1 PUSH1 0x6 MUL ADD PUSH0 ADD SLOAD EQ SWAP3 SWAP2 POP POP JUMP JUMPDEST PUSH0 DUP1 PUSH19 0x184F03E93FF9F4DAA797ED6E38ED64BF6A1F01 PUSH1 0x40 SHL DUP4 LT PUSH2 0x231F JUMPI PUSH19 0x184F03E93FF9F4DAA797ED6E38ED64BF6A1F01 PUSH1 0x40 SHL DUP4 DIV SWAP3 POP PUSH1 0x40 ADD JUMPDEST PUSH14 0x4EE2D6D415B85ACEF8100000000 DUP4 LT PUSH2 0x234B JUMPI PUSH14 0x4EE2D6D415B85ACEF8100000000 DUP4 DIV SWAP3 POP PUSH1 0x20 ADD JUMPDEST PUSH7 0x2386F26FC10000 DUP4 LT PUSH2 0x2369 JUMPI PUSH7 0x2386F26FC10000 DUP4 DIV SWAP3 POP PUSH1 0x10 ADD JUMPDEST PUSH4 0x5F5E100 DUP4 LT PUSH2 0x2381 JUMPI PUSH4 0x5F5E100 DUP4 DIV SWAP3 POP PUSH1 0x8 ADD JUMPDEST PUSH2 0x2710 DUP4 LT PUSH2 0x2395 JUMPI PUSH2 0x2710 DUP4 DIV SWAP3 POP PUSH1 0x4 ADD JUMPDEST PUSH1 0x64 DUP4 LT PUSH2 0x23A7 JUMPI PUSH1 0x64 DUP4 DIV SWAP3 POP PUSH1 0x2 ADD JUMPDEST PUSH1 0xA DUP4 LT PUSH2 0x794 JUMPI PUSH1 0x1 ADD SWAP3 SWAP2 POP POP JUMP JUMPDEST PUSH1 0x3 DUP1 SLOAD PUSH0 SWAP2 DUP3 PUSH2 0x23C8 DUP4 PUSH2 0x391A JUMP JUMPDEST SWAP2 SWAP1 POP SSTORE SWAP1 POP SWAP1 JUMP JUMPDEST PUSH1 0x1 PUSH1 0x1 PUSH1 0xA0 SHL SUB DUP7 AND ISZERO DUP1 ISZERO PUSH2 0x23E6 JUMPI POP DUP4 ISZERO JUMPDEST DUP1 ISZERO PUSH2 0x23F8 JUMPI POP PUSH2 0x23F6 DUP3 PUSH2 0x1DB3 JUMP JUMPDEST ISZERO JUMPDEST ISZERO PUSH2 0x2406 JUMPI PUSH2 0x2406 DUP3 PUSH2 0x2CEB JUMP JUMPDEST POP POP POP POP POP POP JUMP JUMPDEST PUSH1 0x40 DUP1 MLOAD PUSH1 0xC0 DUP2 ADD DUP3 MSTORE DUP4 DUP2 MSTORE PUSH1 0x20 DUP1 DUP3 ADD DUP5 SWAP1 MSTORE PUSH0 DUP3 DUP5 ADD DUP2 SWAP1 MSTORE PUSH1 0x1 PUSH1 0x1 PUSH1 0xA0 SHL SUB DUP8 AND PUSH1 0x60 DUP5 ADD MSTORE PUSH1 0x80 DUP4 ADD DUP2 SWAP1 MSTORE DUP4 MLOAD DUP2 DUP2 MSTORE SWAP2 DUP3 ADD SWAP1 SWAP4 MSTORE PUSH1 0xA0 DUP3 ADD MSTORE SWAP1 POP PUSH2 0x245B DUP2 PUSH2 0x2DB0 JUMP JUMPDEST PUSH2 0x2465 DUP5 DUP5 PUSH2 0x28E5 JUMP JUMPDEST PUSH1 0x40 MLOAD DUP4 SWAP1 PUSH1 0x1 PUSH1 0x1 PUSH1 0xA0 SHL SUB DUP7 AND SWAP1 PUSH0 SWAP1 PUSH32 0xDDF252AD1BE2C89B69C2B068FC378DAA952BA7F163C4A11628F55A4DF523B3EF SWAP1 DUP3 SWAP1 LOG4 DUP2 PUSH0 DUP5 PUSH32 0xE4F48C240D3B994948AA54F3E2F5FCA59263DFE1D52B6E4CF39A5D249B5CCB65 PUSH1 0x40 MLOAD PUSH1 0x40 MLOAD DUP1 SWAP2 SUB SWAP1 LOG4 POP POP POP POP JUMP JUMPDEST PUSH0 DUP3 DUP2 MSTORE PUSH1 0x6 PUSH1 0x20 MSTORE PUSH1 0x40 SWAP1 KECCAK256 SLOAD PUSH1 0x5 DUP1 SLOAD DUP4 SWAP3 SWAP1 DUP2 LT PUSH2 0x24F4 JUMPI PUSH2 0x24F4 PUSH2 0x366C JUMP JUMPDEST SWAP1 PUSH0 MSTORE PUSH1 0x20 PUSH0 KECCAK256 SWAP1 PUSH1 0x6 MUL ADD PUSH1 0x2 ADD PUSH0 DUP3 DUP3 SLOAD PUSH2 0x2511 SWAP2 SWAP1 PUSH2 0x3907 JUMP JUMPDEST SWAP1 SWAP2 SSTORE POP POP PUSH1 0x40 MLOAD DUP2 DUP2 MSTORE DUP3 SWAP1 PUSH0 SWAP1 PUSH32 0xB2AAC84F3EC956911FD78EAE5311062972FF949F38412E8DA39069D9F068CC6 SWAP1 PUSH1 0x20 ADD PUSH1 0x40 MLOAD DUP1 SWAP2 SUB SWAP1 LOG3 POP POP JUMP JUMPDEST PUSH1 0x1 PUSH1 0x1 PUSH1 0xA0 SHL SUB DUP7 AND ISZERO DUP1 ISZERO PUSH2 0x2566 JUMPI POP DUP4 ISZERO JUMPDEST DUP1 ISZERO PUSH2 0x2579 JUMPI POP PUSH2 0x2577 DUP3 DUP5 PUSH2 0x2EFE JUMP JUMPDEST ISZERO JUMPDEST ISZERO PUSH2 0x258D JUMPI PUSH2 0x2588 DUP3 DUP5 PUSH2 0x2F82 JUMP JUMPDEST PUSH2 0x2406 JUMP JUMPDEST PUSH1 0x1 PUSH1 0x1 PUSH1 0xA0 SHL SUB DUP6 AND ISZERO DUP1 ISZERO PUSH2 0x25A2 JUMPI POP DUP3 ISZERO JUMPDEST DUP1 ISZERO PUSH2 0x25B3 JUMPI POP PUSH2 0x25B3 DUP3 DUP6 PUSH2 0x2EFE JUMP JUMPDEST ISZERO PUSH2 0x2588 JUMPI PUSH2 0x2588 DUP3 DUP6 PUSH2 0x2FE1 JUMP JUMPDEST PUSH0 DUP1 PUSH2 0x25CD DUP6 PUSH2 0xDD6 JUMP JUMPDEST SWAP1 POP DUP1 EXTCODESIZE PUSH4 0xFFFFFFFF AND ISZERO PUSH2 0x2722 JUMPI PUSH1 0x40 MLOAD PUSH4 0x1FFC9A7 PUSH1 0xE0 SHL DUP2 MSTORE PUSH3 0x9CE20B PUSH1 0xE0 SHL PUSH1 0x4 DUP3 ADD MSTORE PUSH1 0x1 PUSH1 0x1 PUSH1 0xA0 SHL SUB DUP3 AND SWAP1 PUSH4 0x1FFC9A7 SWAP1 PUSH1 0x24 ADD PUSH1 0x20 PUSH1 0x40 MLOAD DUP1 DUP4 SUB DUP2 DUP7 GAS STATICCALL SWAP3 POP POP POP DUP1 ISZERO PUSH2 0x2642 JUMPI POP PUSH1 0x40 DUP1 MLOAD PUSH1 0x1F RETURNDATASIZE SWAP1 DUP2 ADD PUSH1 0x1F NOT AND DUP3 ADD SWAP1 SWAP3 MSTORE PUSH2 0x263F SWAP2 DUP2 ADD SWAP1 PUSH2 0x3A00 JUMP JUMPDEST PUSH1 0x1 JUMPDEST PUSH2 0x2680 JUMPI RETURNDATASIZE DUP1 DUP1 ISZERO PUSH2 0x266F JUMPI PUSH1 0x40 MLOAD SWAP2 POP PUSH1 0x1F NOT PUSH1 0x3F RETURNDATASIZE ADD AND DUP3 ADD PUSH1 0x40 MSTORE RETURNDATASIZE DUP3 MSTORE RETURNDATASIZE PUSH0 PUSH1 0x20 DUP5 ADD RETURNDATACOPY PUSH2 0x2674 JUMP JUMPDEST PUSH1 0x60 SWAP2 POP JUMPDEST POP PUSH1 0x1 SWAP3 POP POP POP PUSH2 0x1488 JUMP JUMPDEST DUP1 ISZERO PUSH2 0x2717 JUMPI PUSH1 0x40 MLOAD PUSH3 0x9CE20B PUSH1 0xE0 SHL DUP2 MSTORE PUSH0 SWAP1 PUSH1 0x1 PUSH1 0x1 PUSH1 0xA0 SHL SUB DUP5 AND SWAP1 PUSH3 0x9CE20B SWAP1 PUSH2 0x26BA SWAP1 CALLER SWAP1 DUP13 SWAP1 DUP13 SWAP1 DUP13 SWAP1 DUP13 SWAP1 PUSH1 0x4 ADD PUSH2 0x3A1B JUMP JUMPDEST PUSH1 0x20 PUSH1 0x40 MLOAD DUP1 DUP4 SUB DUP2 PUSH0 DUP8 GAS CALL ISZERO DUP1 ISZERO PUSH2 0x26D6 JUMPI RETURNDATASIZE PUSH0 DUP1 RETURNDATACOPY RETURNDATASIZE PUSH0 REVERT JUMPDEST POP POP POP POP PUSH1 0x40 MLOAD RETURNDATASIZE PUSH1 0x1F NOT PUSH1 0x1F DUP3 ADD AND DUP3 ADD DUP1 PUSH1 0x40 MSTORE POP DUP2 ADD SWAP1 PUSH2 0x26FA SWAP2 SWAP1 PUSH2 0x3A58 JUMP JUMPDEST PUSH1 0x1 PUSH1 0x1 PUSH1 0xE0 SHL SUB NOT AND PUSH3 0x9CE20B PUSH1 0xE0 SHL EQ SWAP4 POP PUSH2 0x1488 SWAP3 POP POP POP JUMP JUMPDEST PUSH1 0x1 SWAP3 POP POP POP PUSH2 0x1488 JUMP JUMPDEST PUSH1 0x1 SWAP2 POP POP PUSH2 0x1488 JUMP JUMPDEST PUSH0 DUP2 DUP2 MSTORE PUSH1 0x6 PUSH1 0x20 MSTORE PUSH1 0x40 DUP2 KECCAK256 SLOAD PUSH1 0x5 DUP1 SLOAD SWAP1 SWAP2 SWAP1 DUP2 LT PUSH2 0x274F JUMPI PUSH2 0x274F PUSH2 0x366C JUMP JUMPDEST PUSH0 SWAP2 DUP3 MSTORE PUSH1 0x20 DUP3 KECCAK256 PUSH1 0x5 PUSH1 0x6 SWAP1 SWAP3 MUL ADD SWAP1 DUP2 ADD SLOAD SWAP1 SWAP3 POP SWAP1 JUMPDEST DUP2 DUP2 LT ISZERO PUSH2 0x27C4 JUMPI PUSH0 DUP4 PUSH1 0x5 ADD DUP3 DUP2 SLOAD DUP2 LT PUSH2 0x2786 JUMPI PUSH2 0x2786 PUSH2 0x366C JUMP JUMPDEST PUSH0 SWAP2 DUP3 MSTORE PUSH1 0x20 DUP1 DUP4 KECCAK256 SWAP1 SWAP2 ADD SLOAD DUP8 DUP4 MSTORE PUSH1 0x4 DUP3 MSTORE PUSH1 0x40 DUP1 DUP5 KECCAK256 PUSH1 0x1 PUSH1 0x1 PUSH1 0xA0 SHL SUB SWAP1 SWAP3 AND DUP5 MSTORE SWAP2 MSTORE DUP2 KECCAK256 SSTORE POP DUP1 PUSH2 0x27BC DUP2 PUSH2 0x391A JUMP JUMPDEST SWAP2 POP POP PUSH2 0x2768 JUMP JUMPDEST POP PUSH2 0xAEC PUSH1 0x5 DUP4 ADD PUSH0 PUSH2 0x3144 JUMP JUMPDEST PUSH0 DUP2 DUP2 MSTORE PUSH1 0x6 PUSH1 0x20 MSTORE PUSH1 0x40 DUP2 KECCAK256 SLOAD PUSH1 0x5 DUP1 SLOAD SWAP1 SWAP2 SWAP1 DUP2 LT PUSH2 0x27F5 JUMPI PUSH2 0x27F5 PUSH2 0x366C JUMP JUMPDEST PUSH0 SWAP2 DUP3 MSTORE PUSH1 0x20 DUP1 DUP4 KECCAK256 PUSH1 0x6 SWAP3 SWAP1 SWAP3 MUL SWAP1 SWAP2 ADD PUSH1 0x3 ADD DUP1 SLOAD PUSH1 0x1 PUSH1 0x1 PUSH1 0xA0 SHL SUB NOT AND PUSH1 0x1 PUSH1 0x1 PUSH1 0xA0 SHL SUB SWAP5 DUP6 AND OR SWAP1 SSTORE SWAP2 DUP5 AND DUP2 MSTORE PUSH1 0x7 SWAP1 SWAP2 MSTORE PUSH1 0x40 DUP2 KECCAK256 DUP1 SLOAD SWAP1 SWAP2 SWAP1 PUSH2 0x2843 SWAP1 PUSH1 0x1 SWAP1 PUSH2 0x39ED JUMP JUMPDEST SWAP1 POP PUSH0 DUP3 PUSH0 ADD DUP3 DUP2 SLOAD DUP2 LT PUSH2 0x285A JUMPI PUSH2 0x285A PUSH2 0x366C JUMP JUMPDEST SWAP1 PUSH0 MSTORE PUSH1 0x20 PUSH0 KECCAK256 ADD SLOAD SWAP1 POP PUSH0 DUP4 PUSH1 0x1 ADD PUSH0 DUP7 DUP2 MSTORE PUSH1 0x20 ADD SWAP1 DUP2 MSTORE PUSH1 0x20 ADD PUSH0 KECCAK256 SLOAD SWAP1 POP DUP2 DUP5 PUSH0 ADD DUP3 DUP2 SLOAD DUP2 LT PUSH2 0x2891 JUMPI PUSH2 0x2891 PUSH2 0x366C JUMP JUMPDEST PUSH0 SWAP2 DUP3 MSTORE PUSH1 0x20 DUP1 DUP4 KECCAK256 SWAP1 SWAP2 ADD SWAP3 SWAP1 SWAP3 SSTORE DUP4 DUP2 MSTORE PUSH1 0x1 DUP7 ADD SWAP1 SWAP2 MSTORE PUSH1 0x40 DUP1 DUP3 KECCAK256 DUP4 SWAP1 SSTORE DUP7 DUP3 MSTORE DUP2 KECCAK256 SSTORE DUP4 SLOAD DUP5 SWAP1 DUP1 PUSH2 0x28CA JUMPI PUSH2 0x28CA PUSH2 0x3A73 JUMP JUMPDEST PUSH1 0x1 SWAP1 SUB DUP2 DUP2 SWAP1 PUSH0 MSTORE PUSH1 0x20 PUSH0 KECCAK256 ADD PUSH0 SWAP1 SSTORE SWAP1 SSTORE POP POP POP POP POP POP JUMP JUMPDEST PUSH0 DUP2 DUP2 MSTORE PUSH1 0x6 PUSH1 0x20 MSTORE PUSH1 0x40 SWAP1 KECCAK256 SLOAD PUSH1 0x5 DUP1 SLOAD DUP5 SWAP3 SWAP1 DUP2 LT PUSH2 0x2908 JUMPI PUSH2 0x2908 PUSH2 0x366C JUMP JUMPDEST PUSH0 SWAP2 DUP3 MSTORE PUSH1 0x20 DUP1 DUP4 KECCAK256 PUSH1 0x6 SWAP3 SWAP1 SWAP3 MUL SWAP1 SWAP2 ADD PUSH1 0x3 ADD DUP1 SLOAD PUSH1 0x1 PUSH1 0x1 PUSH1 0xA0 SHL SUB NOT AND PUSH1 0x1 PUSH1 0x1 PUSH1 0xA0 SHL SUB SWAP5 DUP6 AND OR SWAP1 SSTORE SWAP4 SWAP1 SWAP2 AND DUP2 MSTORE PUSH1 0x7 DUP1 DUP5 MSTORE PUSH1 0x40 DUP1 DUP4 KECCAK256 DUP1 SLOAD DUP6 DUP6 MSTORE PUSH1 0x1 DUP3 DUP2 ADD DUP9 MSTORE SWAP3 DUP6 KECCAK256 DUP2 SWAP1 SSTORE SWAP3 DUP7 MSTORE SWAP1 DUP3 ADD DUP2 SSTORE DUP3 MSTORE SWAP3 SWAP1 KECCAK256 SWAP1 SWAP2 ADD SSTORE JUMP JUMPDEST PUSH0 DUP2 DUP2 MSTORE PUSH1 0x6 PUSH1 0x20 MSTORE PUSH1 0x40 DUP2 KECCAK256 SLOAD PUSH1 0x5 DUP1 SLOAD DUP4 SWAP3 SWAP1 DUP2 LT PUSH2 0x298F JUMPI PUSH2 0x298F PUSH2 0x366C JUMP JUMPDEST PUSH0 SWAP2 DUP3 MSTORE PUSH1 0x20 DUP3 KECCAK256 PUSH1 0x5 PUSH1 0x6 SWAP1 SWAP3 MUL ADD ADD SLOAD SWAP2 POP JUMPDEST DUP2 DUP2 LT ISZERO PUSH2 0x2A2E JUMPI PUSH0 DUP5 DUP2 MSTORE PUSH1 0x6 PUSH1 0x20 MSTORE PUSH1 0x40 SWAP1 KECCAK256 SLOAD PUSH1 0x5 DUP1 SLOAD PUSH1 0x1 PUSH1 0x1 PUSH1 0xA0 SHL SUB DUP9 AND SWAP3 SWAP1 DUP2 LT PUSH2 0x29D8 JUMPI PUSH2 0x29D8 PUSH2 0x366C JUMP JUMPDEST SWAP1 PUSH0 MSTORE PUSH1 0x20 PUSH0 KECCAK256 SWAP1 PUSH1 0x6 MUL ADD PUSH1 0x5 ADD DUP3 DUP2 SLOAD DUP2 LT PUSH2 0x29F8 JUMPI PUSH2 0x29F8 PUSH2 0x366C JUMP JUMPDEST PUSH0 SWAP2 DUP3 MSTORE PUSH1 0x20 SWAP1 SWAP2 KECCAK256 ADD SLOAD PUSH1 0x1 PUSH1 0x1 PUSH1 0xA0 SHL SUB AND SUB PUSH2 0x2A1C JUMPI PUSH1 0x1 SWAP3 POP POP POP PUSH2 0x794 JUMP JUMPDEST DUP1 PUSH2 0x2A26 DUP2 PUSH2 0x391A JUMP JUMPDEST SWAP2 POP POP PUSH2 0x29A4 JUMP JUMPDEST POP PUSH0 SWAP5 SWAP4 POP POP POP POP JUMP JUMPDEST PUSH0 DUP4 EXTCODESIZE PUSH4 0xFFFFFFFF AND ISZERO PUSH2 0x2B72 JUMPI PUSH1 0x40 MLOAD PUSH4 0xA85BD01 PUSH1 0xE1 SHL DUP2 MSTORE PUSH1 0x1 PUSH1 0x1 PUSH1 0xA0 SHL SUB DUP6 AND SWAP1 PUSH4 0x150B7A02 SWAP1 PUSH2 0x2A78 SWAP1 CALLER SWAP1 DUP10 SWAP1 DUP9 SWAP1 DUP9 SWAP1 PUSH1 0x4 ADD PUSH2 0x3A87 JUMP JUMPDEST PUSH1 0x20 PUSH1 0x40 MLOAD DUP1 DUP4 SUB DUP2 PUSH0 DUP8 GAS CALL SWAP3 POP POP POP DUP1 ISZERO PUSH2 0x2AB2 JUMPI POP PUSH1 0x40 DUP1 MLOAD PUSH1 0x1F RETURNDATASIZE SWAP1 DUP2 ADD PUSH1 0x1F NOT AND DUP3 ADD SWAP1 SWAP3 MSTORE PUSH2 0x2AAF SWAP2 DUP2 ADD SWAP1 PUSH2 0x3A58 JUMP JUMPDEST PUSH1 0x1 JUMPDEST PUSH2 0x2B58 JUMPI RETURNDATASIZE DUP1 DUP1 ISZERO PUSH2 0x2ADF JUMPI PUSH1 0x40 MLOAD SWAP2 POP PUSH1 0x1F NOT PUSH1 0x3F RETURNDATASIZE ADD AND DUP3 ADD PUSH1 0x40 MSTORE RETURNDATASIZE DUP3 MSTORE RETURNDATASIZE PUSH0 PUSH1 0x20 DUP5 ADD RETURNDATACOPY PUSH2 0x2AE4 JUMP JUMPDEST PUSH1 0x60 SWAP2 POP JUMPDEST POP DUP1 MLOAD PUSH0 SUB PUSH2 0x2B50 JUMPI PUSH1 0x40 MLOAD PUSH3 0x461BCD PUSH1 0xE5 SHL DUP2 MSTORE PUSH1 0x20 PUSH1 0x4 DUP3 ADD MSTORE PUSH1 0x32 PUSH1 0x24 DUP3 ADD MSTORE PUSH32 0x4552433732313A207472616E7366657220746F206E6F6E204552433732315265 PUSH1 0x44 DUP3 ADD MSTORE PUSH18 0x31B2B4BB32B91034B6B83632B6B2B73A32B9 PUSH1 0x71 SHL PUSH1 0x64 DUP3 ADD MSTORE PUSH1 0x84 ADD PUSH2 0x73C JUMP JUMPDEST DUP1 MLOAD DUP2 PUSH1 0x20 ADD REVERT JUMPDEST PUSH1 0x1 PUSH1 0x1 PUSH1 0xE0 SHL SUB NOT AND PUSH4 0xA85BD01 PUSH1 0xE1 SHL EQ SWAP1 POP PUSH2 0x1488 JUMP JUMPDEST POP PUSH1 0x1 PUSH2 0x1488 JUMP JUMPDEST PUSH1 0x60 DUP3 PUSH0 PUSH2 0x2B89 DUP5 PUSH1 0x2 PUSH2 0x3AC3 JUMP JUMPDEST PUSH2 0x2B94 SWAP1 PUSH1 0x2 PUSH2 0x3907 JUMP JUMPDEST PUSH1 0x1 PUSH1 0x1 PUSH1 0x40 SHL SUB DUP2 GT ISZERO PUSH2 0x2BAB JUMPI PUSH2 0x2BAB PUSH2 0x3434 JUMP JUMPDEST PUSH1 0x40 MLOAD SWAP1 DUP1 DUP3 MSTORE DUP1 PUSH1 0x1F ADD PUSH1 0x1F NOT AND PUSH1 0x20 ADD DUP3 ADD PUSH1 0x40 MSTORE DUP1 ISZERO PUSH2 0x2BD5 JUMPI PUSH1 0x20 DUP3 ADD DUP2 DUP1 CALLDATASIZE DUP4 CALLDATACOPY ADD SWAP1 POP JUMPDEST POP SWAP1 POP PUSH1 0x3 PUSH1 0xFC SHL DUP2 PUSH0 DUP2 MLOAD DUP2 LT PUSH2 0x2BEF JUMPI PUSH2 0x2BEF PUSH2 0x366C JUMP JUMPDEST PUSH1 0x20 ADD ADD SWAP1 PUSH1 0x1 PUSH1 0x1 PUSH1 0xF8 SHL SUB NOT AND SWAP1 DUP2 PUSH0 BYTE SWAP1 MSTORE8 POP PUSH1 0xF PUSH1 0xFB SHL DUP2 PUSH1 0x1 DUP2 MLOAD DUP2 LT PUSH2 0x2C1D JUMPI PUSH2 0x2C1D PUSH2 0x366C JUMP JUMPDEST PUSH1 0x20 ADD ADD SWAP1 PUSH1 0x1 PUSH1 0x1 PUSH1 0xF8 SHL SUB NOT AND SWAP1 DUP2 PUSH0 BYTE SWAP1 MSTORE8 POP PUSH0 PUSH2 0x2C3F DUP6 PUSH1 0x2 PUSH2 0x3AC3 JUMP JUMPDEST PUSH2 0x2C4A SWAP1 PUSH1 0x1 PUSH2 0x3907 JUMP JUMPDEST SWAP1 POP JUMPDEST PUSH1 0x1 DUP2 GT ISZERO PUSH2 0x2CC1 JUMPI PUSH16 0x181899199A1A9B1B9C1CB0B131B232B3 PUSH1 0x81 SHL DUP4 PUSH1 0xF AND PUSH1 0x10 DUP2 LT PUSH2 0x2C7E JUMPI PUSH2 0x2C7E PUSH2 0x366C JUMP JUMPDEST BYTE PUSH1 0xF8 SHL DUP3 DUP3 DUP2 MLOAD DUP2 LT PUSH2 0x2C94 JUMPI PUSH2 0x2C94 PUSH2 0x366C JUMP JUMPDEST PUSH1 0x20 ADD ADD SWAP1 PUSH1 0x1 PUSH1 0x1 PUSH1 0xF8 SHL SUB NOT AND SWAP1 DUP2 PUSH0 BYTE SWAP1 MSTORE8 POP PUSH1 0x4 SWAP3 SWAP1 SWAP3 SHR SWAP2 PUSH2 0x2CBA DUP2 PUSH2 0x3ADA JUMP JUMPDEST SWAP1 POP PUSH2 0x2C4D JUMP JUMPDEST POP DUP2 ISZERO PUSH2 0x1488 JUMPI PUSH1 0x40 MLOAD PUSH4 0xE22E27EB PUSH1 0xE0 SHL DUP2 MSTORE PUSH1 0x4 DUP2 ADD DUP7 SWAP1 MSTORE PUSH1 0x24 DUP2 ADD DUP6 SWAP1 MSTORE PUSH1 0x44 ADD PUSH2 0x73C JUMP JUMPDEST PUSH2 0x2CF4 DUP2 PUSH2 0x1DB3 JUMP JUMPDEST ISZERO PUSH2 0x2D54 JUMPI PUSH1 0x40 MLOAD PUSH3 0x461BCD PUSH1 0xE5 SHL DUP2 MSTORE PUSH1 0x20 PUSH1 0x4 DUP3 ADD MSTORE PUSH1 0x2A PUSH1 0x24 DUP3 ADD MSTORE PUSH32 0x45524333353235536C6F74456E756D657261626C653A20736C6F7420616C7265 PUSH1 0x44 DUP3 ADD MSTORE PUSH10 0x61647920657869737473 PUSH1 0xB0 SHL PUSH1 0x64 DUP3 ADD MSTORE PUSH1 0x84 ADD PUSH2 0x73C JUMP JUMPDEST PUSH1 0x40 DUP1 MLOAD DUP1 DUP3 ADD DUP3 MSTORE DUP3 DUP2 MSTORE DUP2 MLOAD PUSH0 DUP1 DUP3 MSTORE PUSH1 0x20 DUP3 DUP2 ADD SWAP1 SWAP5 MSTORE SWAP3 DUP3 ADD MSTORE SWAP1 POP PUSH2 0x2D7D DUP2 PUSH2 0x30C0 JUMP JUMPDEST DUP2 PUSH0 DUP1 PUSH32 0xE4F48C240D3B994948AA54F3E2F5FCA59263DFE1D52B6E4CF39A5D249B5CCB65 PUSH1 0x40 MLOAD PUSH1 0x40 MLOAD DUP1 SWAP2 SUB SWAP1 LOG4 POP POP JUMP JUMPDEST PUSH1 0x5 DUP1 SLOAD DUP3 MLOAD PUSH0 SWAP1 DUP2 MSTORE PUSH1 0x6 PUSH1 0x20 DUP2 DUP2 MSTORE PUSH1 0x40 DUP1 DUP5 KECCAK256 DUP6 SWAP1 SSTORE PUSH1 0x1 DUP6 ADD DUP7 SSTORE SWAP5 SWAP1 SWAP3 MSTORE DUP5 MLOAD SWAP3 MUL PUSH32 0x36B6384B5ECA791C62761152D0C79BB0604C104A5FB6F4EB0703F3154BB3DB0 DUP2 ADD SWAP3 DUP4 SSTORE DUP2 DUP6 ADD MLOAD PUSH32 0x36B6384B5ECA791C62761152D0C79BB0604C104A5FB6F4EB0703F3154BB3DB1 DUP3 ADD SSTORE SWAP3 DUP5 ADD MLOAD PUSH32 0x36B6384B5ECA791C62761152D0C79BB0604C104A5FB6F4EB0703F3154BB3DB2 DUP5 ADD SSTORE PUSH1 0x60 DUP5 ADD MLOAD PUSH32 0x36B6384B5ECA791C62761152D0C79BB0604C104A5FB6F4EB0703F3154BB3DB3 DUP5 ADD DUP1 SLOAD PUSH1 0x1 PUSH1 0x1 PUSH1 0xA0 SHL SUB SWAP3 DUP4 AND PUSH1 0x1 PUSH1 0x1 PUSH1 0xA0 SHL SUB NOT SWAP2 DUP3 AND OR SWAP1 SWAP2 SSTORE PUSH1 0x80 DUP7 ADD MLOAD PUSH32 0x36B6384B5ECA791C62761152D0C79BB0604C104A5FB6F4EB0703F3154BB3DB4 DUP7 ADD DUP1 SLOAD SWAP2 SWAP1 SWAP4 AND SWAP2 AND OR SWAP1 SSTORE PUSH1 0xA0 DUP5 ADD MLOAD DUP1 MLOAD DUP6 SWAP5 PUSH2 0x98E SWAP4 PUSH32 0x36B6384B5ECA791C62761152D0C79BB0604C104A5FB6F4EB0703F3154BB3DB5 SWAP1 SWAP2 ADD SWAP3 ADD SWAP1 PUSH2 0x315F JUMP JUMPDEST PUSH0 DUP3 DUP2 MSTORE PUSH1 0xB PUSH1 0x20 MSTORE PUSH1 0x40 DUP2 KECCAK256 SLOAD PUSH1 0xA DUP1 SLOAD DUP4 SWAP3 SWAP1 DUP2 LT PUSH2 0x2F21 JUMPI PUSH2 0x2F21 PUSH2 0x366C JUMP JUMPDEST SWAP1 PUSH0 MSTORE PUSH1 0x20 PUSH0 KECCAK256 SWAP1 PUSH1 0x2 MUL ADD SWAP1 POP PUSH0 DUP2 PUSH1 0x1 ADD DUP1 SLOAD SWAP1 POP GT DUP1 ISZERO PUSH2 0x1488 JUMPI POP PUSH0 DUP5 DUP2 MSTORE PUSH1 0x9 PUSH1 0x20 SWAP1 DUP2 MSTORE PUSH1 0x40 DUP1 DUP4 KECCAK256 DUP7 DUP5 MSTORE SWAP1 SWAP2 MSTORE SWAP1 KECCAK256 SLOAD PUSH1 0x1 DUP3 ADD DUP1 SLOAD DUP6 SWAP3 SWAP1 DUP2 LT PUSH2 0x2F70 JUMPI PUSH2 0x2F70 PUSH2 0x366C JUMP JUMPDEST SWAP1 PUSH0 MSTORE PUSH1 0x20 PUSH0 KECCAK256 ADD SLOAD EQ SWAP5 SWAP4 POP POP POP POP JUMP JUMPDEST PUSH0 DUP3 DUP2 MSTORE PUSH1 0xB PUSH1 0x20 MSTORE PUSH1 0x40 DUP2 KECCAK256 SLOAD PUSH1 0xA DUP1 SLOAD SWAP1 SWAP2 SWAP1 DUP2 LT PUSH2 0x2FA5 JUMPI PUSH2 0x2FA5 PUSH2 0x366C JUMP JUMPDEST PUSH0 SWAP2 DUP3 MSTORE PUSH1 0x20 DUP1 DUP4 KECCAK256 PUSH1 0x1 PUSH1 0x2 SWAP1 SWAP4 MUL ADD DUP3 ADD DUP1 SLOAD SWAP7 DUP5 MSTORE PUSH1 0x9 DUP3 MSTORE PUSH1 0x40 DUP1 DUP6 KECCAK256 DUP8 DUP7 MSTORE DUP4 MSTORE DUP5 KECCAK256 DUP8 SWAP1 SSTORE SWAP2 DUP7 ADD DUP3 SSTORE SWAP1 DUP3 MSTORE SWAP1 KECCAK256 SWAP1 SWAP3 ADD SSTORE POP JUMP JUMPDEST PUSH0 DUP3 DUP2 MSTORE PUSH1 0xB PUSH1 0x20 MSTORE PUSH1 0x40 DUP2 KECCAK256 SLOAD PUSH1 0xA DUP1 SLOAD SWAP1 SWAP2 SWAP1 DUP2 LT PUSH2 0x3004 JUMPI PUSH2 0x3004 PUSH2 0x366C JUMP JUMPDEST PUSH0 SWAP2 DUP3 MSTORE PUSH1 0x20 DUP3 KECCAK256 PUSH1 0x1 PUSH1 0x2 SWAP1 SWAP3 MUL ADD DUP2 DUP2 ADD SLOAD SWAP1 SWAP4 POP PUSH2 0x3025 SWAP2 SWAP1 PUSH2 0x39ED JUMP JUMPDEST SWAP1 POP PUSH0 DUP3 PUSH1 0x1 ADD DUP3 DUP2 SLOAD DUP2 LT PUSH2 0x303D JUMPI PUSH2 0x303D PUSH2 0x366C JUMP JUMPDEST PUSH0 SWAP2 DUP3 MSTORE PUSH1 0x20 DUP1 DUP4 KECCAK256 SWAP1 SWAP2 ADD SLOAD DUP8 DUP4 MSTORE PUSH1 0x9 DUP3 MSTORE PUSH1 0x40 DUP1 DUP5 KECCAK256 DUP9 DUP6 MSTORE SWAP1 SWAP3 MSTORE SWAP2 KECCAK256 SLOAD PUSH1 0x1 DUP6 ADD DUP1 SLOAD SWAP3 SWAP4 POP SWAP1 SWAP2 DUP4 SWAP2 SWAP1 DUP4 SWAP1 DUP2 LT PUSH2 0x307D JUMPI PUSH2 0x307D PUSH2 0x366C JUMP JUMPDEST PUSH0 SWAP2 DUP3 MSTORE PUSH1 0x20 DUP1 DUP4 KECCAK256 SWAP2 SWAP1 SWAP2 ADD SWAP3 SWAP1 SWAP3 SSTORE DUP8 DUP2 MSTORE PUSH1 0x9 DUP3 MSTORE PUSH1 0x40 DUP1 DUP3 KECCAK256 DUP6 DUP4 MSTORE SWAP1 SWAP3 MSTORE DUP2 DUP2 KECCAK256 DUP4 SWAP1 SSTORE DUP7 DUP2 MSTORE SWAP1 DUP2 KECCAK256 SSTORE PUSH1 0x1 DUP5 ADD DUP1 SLOAD DUP1 PUSH2 0x28CA JUMPI PUSH2 0x28CA PUSH2 0x3A73 JUMP JUMPDEST PUSH1 0xA DUP1 SLOAD DUP3 MLOAD PUSH0 SWAP1 DUP2 MSTORE PUSH1 0xB PUSH1 0x20 SWAP1 DUP2 MSTORE PUSH1 0x40 DUP3 KECCAK256 DUP4 SWAP1 SSTORE PUSH1 0x1 DUP4 ADD DUP5 SSTORE SWAP3 SWAP1 MSTORE DUP3 MLOAD PUSH1 0x2 SWAP1 SWAP2 MUL PUSH32 0xC65A7BB8D6351C1CF70C95A316CC6A92839C986682D98BC35F958F4883F9D2A8 DUP2 ADD SWAP2 DUP3 SSTORE DUP3 DUP5 ADD MLOAD DUP1 MLOAD DUP6 SWAP5 PUSH2 0x98E SWAP4 PUSH32 0xC65A7BB8D6351C1CF70C95A316CC6A92839C986682D98BC35F958F4883F9D2A9 ADD SWAP3 ADD SWAP1 PUSH2 0x31C2 JUMP JUMPDEST POP DUP1 SLOAD PUSH0 DUP3 SSTORE SWAP1 PUSH0 MSTORE PUSH1 0x20 PUSH0 KECCAK256 SWAP1 DUP2 ADD SWAP1 PUSH2 0x14DC SWAP2 SWAP1 PUSH2 0x31FB JUMP JUMPDEST DUP3 DUP1 SLOAD DUP3 DUP3 SSTORE SWAP1 PUSH0 MSTORE PUSH1 0x20 PUSH0 KECCAK256 SWAP1 DUP2 ADD SWAP3 DUP3 ISZERO PUSH2 0x31B2 JUMPI SWAP2 PUSH1 0x20 MUL DUP3 ADD JUMPDEST DUP3 DUP2 GT ISZERO PUSH2 0x31B2 JUMPI DUP3 MLOAD DUP3 SLOAD PUSH1 0x1 PUSH1 0x1 PUSH1 0xA0 SHL SUB NOT AND PUSH1 0x1 PUSH1 0x1 PUSH1 0xA0 SHL SUB SWAP1 SWAP2 AND OR DUP3 SSTORE PUSH1 0x20 SWAP1 SWAP3 ADD SWAP2 PUSH1 0x1 SWAP1 SWAP2 ADD SWAP1 PUSH2 0x317D JUMP JUMPDEST POP PUSH2 0x31BE SWAP3 SWAP2 POP PUSH2 0x31FB JUMP JUMPDEST POP SWAP1 JUMP JUMPDEST DUP3 DUP1 SLOAD DUP3 DUP3 SSTORE SWAP1 PUSH0 MSTORE PUSH1 0x20 PUSH0 KECCAK256 SWAP1 DUP2 ADD SWAP3 DUP3 ISZERO PUSH2 0x31B2 JUMPI SWAP2 PUSH1 0x20 MUL DUP3 ADD JUMPDEST DUP3 DUP2 GT ISZERO PUSH2 0x31B2 JUMPI DUP3 MLOAD DUP3 SSTORE SWAP2 PUSH1 0x20 ADD SWAP2 SWAP1 PUSH1 0x1 ADD SWAP1 PUSH2 0x31E0 JUMP JUMPDEST JUMPDEST DUP1 DUP3 GT ISZERO PUSH2 0x31BE JUMPI PUSH0 DUP2 SSTORE PUSH1 0x1 ADD PUSH2 0x31FC JUMP JUMPDEST PUSH0 DUP1 PUSH1 0x40 DUP4 DUP6 SUB SLT ISZERO PUSH2 0x3220 JUMPI PUSH0 DUP1 REVERT JUMPDEST POP POP DUP1 CALLDATALOAD SWAP3 PUSH1 0x20 SWAP1 SWAP2 ADD CALLDATALOAD SWAP2 POP JUMP JUMPDEST PUSH1 0x1 PUSH1 0x1 PUSH1 0xE0 SHL SUB NOT DUP2 AND DUP2 EQ PUSH2 0x14DC JUMPI PUSH0 DUP1 REVERT JUMPDEST PUSH0 PUSH1 0x20 DUP3 DUP5 SUB SLT ISZERO PUSH2 0x3254 JUMPI PUSH0 DUP1 REVERT JUMPDEST DUP2 CALLDATALOAD PUSH2 0xA6B DUP2 PUSH2 0x322F JUMP JUMPDEST PUSH0 JUMPDEST DUP4 DUP2 LT ISZERO PUSH2 0x3279 JUMPI DUP2 DUP2 ADD MLOAD DUP4 DUP3 ADD MSTORE PUSH1 0x20 ADD PUSH2 0x3261 JUMP JUMPDEST POP POP PUSH0 SWAP2 ADD MSTORE JUMP JUMPDEST PUSH0 DUP2 MLOAD DUP1 DUP5 MSTORE PUSH2 0x3298 DUP2 PUSH1 0x20 DUP7 ADD PUSH1 0x20 DUP7 ADD PUSH2 0x325F JUMP JUMPDEST PUSH1 0x1F ADD PUSH1 0x1F NOT AND SWAP3 SWAP1 SWAP3 ADD PUSH1 0x20 ADD SWAP3 SWAP2 POP POP JUMP JUMPDEST PUSH1 0x20 DUP2 MSTORE PUSH0 PUSH2 0xA6B PUSH1 0x20 DUP4 ADD DUP5 PUSH2 0x3281 JUMP JUMPDEST PUSH0 PUSH1 0x20 DUP3 DUP5 SUB SLT ISZERO PUSH2 0x32CE JUMPI PUSH0 DUP1 REVERT JUMPDEST POP CALLDATALOAD SWAP2 SWAP1 POP JUMP JUMPDEST PUSH1 0x1 PUSH1 0x1 PUSH1 0xA0 SHL SUB SWAP2 SWAP1 SWAP2 AND DUP2 MSTORE PUSH1 0x20 ADD SWAP1 JUMP JUMPDEST DUP1 CALLDATALOAD PUSH1 0x1 PUSH1 0x1 PUSH1 0xA0 SHL SUB DUP2 AND DUP2 EQ PUSH2 0xE3E JUMPI PUSH0 DUP1 REVERT JUMPDEST PUSH0 DUP1 PUSH1 0x40 DUP4 DUP6 SUB SLT ISZERO PUSH2 0x3310 JUMPI PUSH0 DUP1 REVERT JUMPDEST PUSH2 0x3319 DUP4 PUSH2 0x32E9 JUMP JUMPDEST SWAP5 PUSH1 0x20 SWAP4 SWAP1 SWAP4 ADD CALLDATALOAD SWAP4 POP POP POP JUMP JUMPDEST PUSH0 DUP1 PUSH0 PUSH1 0x60 DUP5 DUP7 SUB SLT ISZERO PUSH2 0x3339 JUMPI PUSH0 DUP1 REVERT JUMPDEST DUP4 CALLDATALOAD SWAP3 POP PUSH2 0x3349 PUSH1 0x20 DUP6 ADD PUSH2 0x32E9 JUMP JUMPDEST SWAP2 POP PUSH1 0x40 DUP5 ADD CALLDATALOAD SWAP1 POP SWAP3 POP SWAP3 POP SWAP3 JUMP JUMPDEST PUSH0 DUP1 PUSH0 PUSH1 0x60 DUP5 DUP7 SUB SLT ISZERO PUSH2 0x336B JUMPI PUSH0 DUP1 REVERT JUMPDEST PUSH2 0x3374 DUP5 PUSH2 0x32E9 JUMP JUMPDEST SWAP6 PUSH1 0x20 DUP6 ADD CALLDATALOAD SWAP6 POP PUSH1 0x40 SWAP1 SWAP5 ADD CALLDATALOAD SWAP4 SWAP3 POP POP POP JUMP JUMPDEST PUSH0 DUP1 PUSH0 PUSH1 0x60 DUP5 DUP7 SUB SLT ISZERO PUSH2 0x339B JUMPI PUSH0 DUP1 REVERT JUMPDEST PUSH2 0x33A4 DUP5 PUSH2 0x32E9 JUMP JUMPDEST SWAP3 POP PUSH2 0x3349 PUSH1 0x20 DUP6 ADD PUSH2 0x32E9 JUMP JUMPDEST PUSH0 DUP1 PUSH0 PUSH1 0x60 DUP5 DUP7 SUB SLT ISZERO PUSH2 0x33C4 JUMPI PUSH0 DUP1 REVERT JUMPDEST POP POP DUP2 CALLDATALOAD SWAP4 PUSH1 0x20 DUP4 ADD CALLDATALOAD SWAP4 POP PUSH1 0x40 SWAP1 SWAP3 ADD CALLDATALOAD SWAP2 SWAP1 POP JUMP JUMPDEST DUP1 ISZERO ISZERO DUP2 EQ PUSH2 0x14DC JUMPI PUSH0 DUP1 REVERT JUMPDEST PUSH0 DUP1 PUSH0 DUP1 PUSH1 0x80 DUP6 DUP8 SUB SLT ISZERO PUSH2 0x33FB JUMPI PUSH0 DUP1 REVERT JUMPDEST PUSH2 0x3404 DUP6 PUSH2 0x32E9 JUMP JUMPDEST SWAP4 POP PUSH1 0x20 DUP6 ADD CALLDATALOAD SWAP3 POP PUSH2 0x3419 PUSH1 0x40 DUP7 ADD PUSH2 0x32E9 JUMP JUMPDEST SWAP2 POP PUSH1 0x60 DUP6 ADD CALLDATALOAD PUSH2 0x3429 DUP2 PUSH2 0x33DB JUMP JUMPDEST SWAP4 SWAP7 SWAP3 SWAP6 POP SWAP1 SWAP4 POP POP JUMP JUMPDEST PUSH4 0x4E487B71 PUSH1 0xE0 SHL PUSH0 MSTORE PUSH1 0x41 PUSH1 0x4 MSTORE PUSH1 0x24 PUSH0 REVERT JUMPDEST PUSH1 0x40 MLOAD PUSH1 0x1F DUP3 ADD PUSH1 0x1F NOT AND DUP2 ADD PUSH1 0x1 PUSH1 0x1 PUSH1 0x40 SHL SUB DUP2 GT DUP3 DUP3 LT OR ISZERO PUSH2 0x3470 JUMPI PUSH2 0x3470 PUSH2 0x3434 JUMP JUMPDEST PUSH1 0x40 MSTORE SWAP2 SWAP1 POP JUMP JUMPDEST PUSH0 PUSH1 0x1 PUSH1 0x1 PUSH1 0x40 SHL SUB DUP3 GT ISZERO PUSH2 0x3490 JUMPI PUSH2 0x3490 PUSH2 0x3434 JUMP JUMPDEST POP PUSH1 0x1F ADD PUSH1 0x1F NOT AND PUSH1 0x20 ADD SWAP1 JUMP JUMPDEST PUSH0 PUSH2 0x34B0 PUSH2 0x34AB DUP5 PUSH2 0x3478 JUMP JUMPDEST PUSH2 0x3448 JUMP JUMPDEST SWAP1 POP DUP3 DUP2 MSTORE DUP4 DUP4 DUP4 ADD GT ISZERO PUSH2 0x34C3 JUMPI PUSH0 DUP1 REVERT JUMPDEST DUP3 DUP3 PUSH1 0x20 DUP4 ADD CALLDATACOPY PUSH0 PUSH1 0x20 DUP5 DUP4 ADD ADD MSTORE SWAP4 SWAP3 POP POP POP JUMP JUMPDEST PUSH0 PUSH1 0x20 DUP3 DUP5 SUB SLT ISZERO PUSH2 0x34E9 JUMPI PUSH0 DUP1 REVERT JUMPDEST DUP2 CALLDATALOAD PUSH1 0x1 PUSH1 0x1 PUSH1 0x40 SHL SUB DUP2 GT ISZERO PUSH2 0x34FE JUMPI PUSH0 DUP1 REVERT JUMPDEST DUP3 ADD PUSH1 0x1F DUP2 ADD DUP5 SGT PUSH2 0x350E JUMPI PUSH0 DUP1 REVERT JUMPDEST PUSH2 0x1488 DUP5 DUP3 CALLDATALOAD PUSH1 0x20 DUP5 ADD PUSH2 0x349E JUMP JUMPDEST PUSH0 PUSH1 0x20 DUP3 DUP5 SUB SLT ISZERO PUSH2 0x352D JUMPI PUSH0 DUP1 REVERT JUMPDEST PUSH2 0xA6B DUP3 PUSH2 0x32E9 JUMP JUMPDEST PUSH0 DUP1 PUSH1 0x40 DUP4 DUP6 SUB SLT ISZERO PUSH2 0x3547 JUMPI PUSH0 DUP1 REVERT JUMPDEST PUSH2 0x3550 DUP4 PUSH2 0x32E9 JUMP JUMPDEST SWAP2 POP PUSH1 0x20 DUP4 ADD CALLDATALOAD PUSH2 0x3560 DUP2 PUSH2 0x33DB JUMP JUMPDEST DUP1 SWAP2 POP POP SWAP3 POP SWAP3 SWAP1 POP JUMP JUMPDEST PUSH0 DUP1 PUSH0 DUP1 PUSH1 0x80 DUP6 DUP8 SUB SLT ISZERO PUSH2 0x357E JUMPI PUSH0 DUP1 REVERT JUMPDEST PUSH2 0x3587 DUP6 PUSH2 0x32E9 JUMP JUMPDEST SWAP4 POP PUSH2 0x3595 PUSH1 0x20 DUP7 ADD PUSH2 0x32E9 JUMP JUMPDEST SWAP3 POP PUSH1 0x40 DUP6 ADD CALLDATALOAD SWAP2 POP PUSH1 0x60 DUP6 ADD CALLDATALOAD PUSH1 0x1 PUSH1 0x1 PUSH1 0x40 SHL SUB DUP2 GT ISZERO PUSH2 0x35B6 JUMPI PUSH0 DUP1 REVERT JUMPDEST DUP6 ADD PUSH1 0x1F DUP2 ADD DUP8 SGT PUSH2 0x35C6 JUMPI PUSH0 DUP1 REVERT JUMPDEST PUSH2 0x35D5 DUP8 DUP3 CALLDATALOAD PUSH1 0x20 DUP5 ADD PUSH2 0x349E JUMP JUMPDEST SWAP2 POP POP SWAP3 SWAP6 SWAP2 SWAP5 POP SWAP3 POP JUMP JUMPDEST PUSH0 DUP1 PUSH1 0x40 DUP4 DUP6 SUB SLT ISZERO PUSH2 0x35F2 JUMPI PUSH0 DUP1 REVERT JUMPDEST DUP3 CALLDATALOAD SWAP2 POP PUSH2 0x3602 PUSH1 0x20 DUP5 ADD PUSH2 0x32E9 JUMP JUMPDEST SWAP1 POP SWAP3 POP SWAP3 SWAP1 POP JUMP JUMPDEST PUSH0 DUP1 PUSH0 PUSH1 0x60 DUP5 DUP7 SUB SLT ISZERO PUSH2 0x361D JUMPI PUSH0 DUP1 REVERT JUMPDEST PUSH2 0x3626 DUP5 PUSH2 0x32E9 JUMP JUMPDEST SWAP3 POP PUSH1 0x20 DUP5 ADD CALLDATALOAD SWAP2 POP PUSH2 0x363B PUSH1 0x40 DUP6 ADD PUSH2 0x32E9 JUMP JUMPDEST SWAP1 POP SWAP3 POP SWAP3 POP SWAP3 JUMP JUMPDEST PUSH0 DUP1 PUSH1 0x40 DUP4 DUP6 SUB SLT ISZERO PUSH2 0x3655 JUMPI PUSH0 DUP1 REVERT JUMPDEST PUSH2 0x365E DUP4 PUSH2 0x32E9 JUMP JUMPDEST SWAP2 POP PUSH2 0x3602 PUSH1 0x20 DUP5 ADD PUSH2 0x32E9 JUMP JUMPDEST PUSH4 0x4E487B71 PUSH1 0xE0 SHL PUSH0 MSTORE PUSH1 0x32 PUSH1 0x4 MSTORE PUSH1 0x24 PUSH0 REVERT JUMPDEST PUSH1 0x1 DUP2 DUP2 SHR SWAP1 DUP3 AND DUP1 PUSH2 0x3694 JUMPI PUSH1 0x7F DUP3 AND SWAP2 POP JUMPDEST PUSH1 0x20 DUP3 LT DUP2 SUB PUSH2 0x36B2 JUMPI PUSH4 0x4E487B71 PUSH1 0xE0 SHL PUSH0 MSTORE PUSH1 0x22 PUSH1 0x4 MSTORE PUSH1 0x24 PUSH0 REVERT JUMPDEST POP SWAP2 SWAP1 POP JUMP JUMPDEST PUSH1 0x20 DUP1 DUP3 MSTORE PUSH1 0x22 SWAP1 DUP3 ADD MSTORE PUSH32 0x455243333532353A20617070726F76616C20746F2063757272656E74206F776E PUSH1 0x40 DUP3 ADD MSTORE PUSH2 0x32B9 PUSH1 0xF1 SHL PUSH1 0x60 DUP3 ADD MSTORE PUSH1 0x80 ADD SWAP1 JUMP JUMPDEST PUSH0 DUP4 MLOAD PUSH2 0x370B DUP2 DUP5 PUSH1 0x20 DUP9 ADD PUSH2 0x325F JUMP JUMPDEST PUSH5 0x736C6F742F PUSH1 0xD8 SHL SWAP1 DUP4 ADD SWAP1 DUP2 MSTORE DUP4 MLOAD PUSH2 0x372D DUP2 PUSH1 0x5 DUP5 ADD PUSH1 0x20 DUP9 ADD PUSH2 0x325F JUMP JUMPDEST ADD PUSH1 0x5 ADD SWAP5 SWAP4 POP POP POP POP JUMP JUMPDEST PUSH0 PUSH1 0x20 DUP3 DUP5 SUB SLT ISZERO PUSH2 0x3749 JUMPI PUSH0 DUP1 REVERT JUMPDEST DUP2 MLOAD PUSH1 0x1 PUSH1 0x1 PUSH1 0x40 SHL SUB DUP2 GT ISZERO PUSH2 0x375E JUMPI PUSH0 DUP1 REVERT JUMPDEST DUP3 ADD PUSH1 0x1F DUP2 ADD DUP5 SGT PUSH2 0x376E JUMPI PUSH0 DUP1 REVERT JUMPDEST DUP1 MLOAD PUSH2 0x377C PUSH2 0x34AB DUP3 PUSH2 0x3478 JUMP JUMPDEST DUP2 DUP2 MSTORE DUP6 PUSH1 0x20 DUP4 DUP6 ADD ADD GT ISZERO PUSH2 0x3790 JUMPI PUSH0 DUP1 REVERT JUMPDEST PUSH2 0x1C35 DUP3 PUSH1 0x20 DUP4 ADD PUSH1 0x20 DUP7 ADD PUSH2 0x325F JUMP JUMPDEST PUSH1 0x20 DUP1 DUP3 MSTORE PUSH1 0x32 SWAP1 DUP3 ADD MSTORE PUSH32 0x455243333532353A207472616E736665722063616C6C6572206973206E6F7420 PUSH1 0x40 DUP3 ADD MSTORE PUSH18 0x1BDDDB995C881B9BDC88185C1C1C9BDD9959 PUSH1 0x72 SHL PUSH1 0x60 DUP3 ADD MSTORE PUSH1 0x80 ADD SWAP1 JUMP JUMPDEST PUSH1 0x1F DUP3 GT ISZERO PUSH2 0xAEC JUMPI PUSH0 DUP2 DUP2 MSTORE PUSH1 0x20 DUP2 KECCAK256 PUSH1 0x1F DUP6 ADD PUSH1 0x5 SHR DUP2 ADD PUSH1 0x20 DUP7 LT ISZERO PUSH2 0x3819 JUMPI POP DUP1 JUMPDEST PUSH1 0x1F DUP6 ADD PUSH1 0x5 SHR DUP3 ADD SWAP2 POP JUMPDEST DUP2 DUP2 LT ISZERO PUSH2 0x2406 JUMPI DUP3 DUP2 SSTORE PUSH1 0x1 ADD PUSH2 0x3825 JUMP JUMPDEST DUP2 MLOAD PUSH1 0x1 PUSH1 0x1 PUSH1 0x40 SHL SUB DUP2 GT ISZERO PUSH2 0x3851 JUMPI PUSH2 0x3851 PUSH2 0x3434 JUMP JUMPDEST PUSH2 0x3865 DUP2 PUSH2 0x385F DUP5 SLOAD PUSH2 0x3680 JUMP JUMPDEST DUP5 PUSH2 0x37F3 JUMP JUMPDEST PUSH1 0x20 DUP1 PUSH1 0x1F DUP4 GT PUSH1 0x1 DUP2 EQ PUSH2 0x3898 JUMPI PUSH0 DUP5 ISZERO PUSH2 0x3881 JUMPI POP DUP6 DUP4 ADD MLOAD JUMPDEST PUSH0 NOT PUSH1 0x3 DUP7 SWAP1 SHL SHR NOT AND PUSH1 0x1 DUP6 SWAP1 SHL OR DUP6 SSTORE PUSH2 0x2406 JUMP JUMPDEST PUSH0 DUP6 DUP2 MSTORE PUSH1 0x20 DUP2 KECCAK256 PUSH1 0x1F NOT DUP7 AND SWAP2 JUMPDEST DUP3 DUP2 LT ISZERO PUSH2 0x38C6 JUMPI DUP9 DUP7 ADD MLOAD DUP3 SSTORE SWAP5 DUP5 ADD SWAP5 PUSH1 0x1 SWAP1 SWAP2 ADD SWAP1 DUP5 ADD PUSH2 0x38A7 JUMP JUMPDEST POP DUP6 DUP3 LT ISZERO PUSH2 0x38E3 JUMPI DUP8 DUP6 ADD MLOAD PUSH0 NOT PUSH1 0x3 DUP9 SWAP1 SHL PUSH1 0xF8 AND SHR NOT AND DUP2 SSTORE JUMPDEST POP POP POP POP POP PUSH1 0x1 SWAP1 DUP2 SHL ADD SWAP1 SSTORE POP JUMP JUMPDEST PUSH4 0x4E487B71 PUSH1 0xE0 SHL PUSH0 MSTORE PUSH1 0x11 PUSH1 0x4 MSTORE PUSH1 0x24 PUSH0 REVERT JUMPDEST DUP1 DUP3 ADD DUP1 DUP3 GT ISZERO PUSH2 0x794 JUMPI PUSH2 0x794 PUSH2 0x38F3 JUMP JUMPDEST PUSH0 PUSH1 0x1 DUP3 ADD PUSH2 0x392B JUMPI PUSH2 0x392B PUSH2 0x38F3 JUMP JUMPDEST POP PUSH1 0x1 ADD SWAP1 JUMP JUMPDEST PUSH1 0x20 DUP1 DUP3 MSTORE PUSH1 0x19 SWAP1 DUP3 ADD MSTORE PUSH25 0x115490CCCD4C8D4E881A5B9D985B1A59081D1BDAD95B881251 PUSH1 0x3A SHL PUSH1 0x40 DUP3 ADD MSTORE PUSH1 0x60 ADD SWAP1 JUMP JUMPDEST PUSH0 DUP4 MLOAD PUSH2 0x3976 DUP2 DUP5 PUSH1 0x20 DUP9 ADD PUSH2 0x325F JUMP JUMPDEST DUP4 MLOAD SWAP1 DUP4 ADD SWAP1 PUSH2 0x398A DUP2 DUP4 PUSH1 0x20 DUP9 ADD PUSH2 0x325F JUMP JUMPDEST ADD SWAP5 SWAP4 POP POP POP POP JUMP JUMPDEST PUSH0 DUP4 MLOAD PUSH2 0x39A4 DUP2 DUP5 PUSH1 0x20 DUP9 ADD PUSH2 0x325F JUMP JUMPDEST PUSH9 0x636F6E74726163742F PUSH1 0xB8 SHL SWAP1 DUP4 ADD SWAP1 DUP2 MSTORE DUP4 MLOAD PUSH2 0x39CA DUP2 PUSH1 0x9 DUP5 ADD PUSH1 0x20 DUP9 ADD PUSH2 0x325F JUMP JUMPDEST ADD PUSH1 0x9 ADD SWAP5 SWAP4 POP POP POP POP JUMP JUMPDEST PUSH0 PUSH1 0x20 DUP3 DUP5 SUB SLT ISZERO PUSH2 0x39E6 JUMPI PUSH0 DUP1 REVERT JUMPDEST POP MLOAD SWAP2 SWAP1 POP JUMP JUMPDEST DUP2 DUP2 SUB DUP2 DUP2 GT ISZERO PUSH2 0x794 JUMPI PUSH2 0x794 PUSH2 0x38F3 JUMP JUMPDEST PUSH0 PUSH1 0x20 DUP3 DUP5 SUB SLT ISZERO PUSH2 0x3A10 JUMPI PUSH0 DUP1 REVERT JUMPDEST DUP2 MLOAD PUSH2 0xA6B DUP2 PUSH2 0x33DB JUMP JUMPDEST PUSH1 0x1 DUP1 PUSH1 0xA0 SHL SUB DUP7 AND DUP2 MSTORE DUP5 PUSH1 0x20 DUP3 ADD MSTORE DUP4 PUSH1 0x40 DUP3 ADD MSTORE DUP3 PUSH1 0x60 DUP3 ADD MSTORE PUSH1 0xA0 PUSH1 0x80 DUP3 ADD MSTORE PUSH0 PUSH2 0x3A4D PUSH1 0xA0 DUP4 ADD DUP5 PUSH2 0x3281 JUMP JUMPDEST SWAP8 SWAP7 POP POP POP POP POP POP POP JUMP JUMPDEST PUSH0 PUSH1 0x20 DUP3 DUP5 SUB SLT ISZERO PUSH2 0x3A68 JUMPI PUSH0 DUP1 REVERT JUMPDEST DUP2 MLOAD PUSH2 0xA6B DUP2 PUSH2 0x322F JUMP JUMPDEST PUSH4 0x4E487B71 PUSH1 0xE0 SHL PUSH0 MSTORE PUSH1 0x31 PUSH1 0x4 MSTORE PUSH1 0x24 PUSH0 REVERT JUMPDEST PUSH1 0x1 PUSH1 0x1 PUSH1 0xA0 SHL SUB DUP6 DUP2 AND DUP3 MSTORE DUP5 AND PUSH1 0x20 DUP3 ADD MSTORE PUSH1 0x40 DUP2 ADD DUP4 SWAP1 MSTORE PUSH1 0x80 PUSH1 0x60 DUP3 ADD DUP2 SWAP1 MSTORE PUSH0 SWAP1 PUSH2 0x3AB9 SWAP1 DUP4 ADD DUP5 PUSH2 0x3281 JUMP JUMPDEST SWAP7 SWAP6 POP POP POP POP POP POP JUMP JUMPDEST DUP1 DUP3 MUL DUP2 ISZERO DUP3 DUP3 DIV DUP5 EQ OR PUSH2 0x794 JUMPI PUSH2 0x794 PUSH2 0x38F3 JUMP JUMPDEST PUSH0 DUP2 PUSH2 0x3AE8 JUMPI PUSH2 0x3AE8 PUSH2 0x38F3 JUMP JUMPDEST POP PUSH0 NOT ADD SWAP1 JUMP INVALID LOG2 PUSH5 0x6970667358 0x22 SLT KECCAK256 MUL 0xD6 0x21 0x2D 0xE5 BASEFEE DUP4 0xF8 DUP2 COINBASE 0xC6 0xF7 0x22 PUSH22 0x32907BB1FF2E5A1B07B49F70B8FB5858E41464736F6C PUSH4 0x43000814 STOP CALLER LOG2 PUSH5 0x6970667358 0x22 SLT KECCAK256 LT STOP TIMESTAMP 0xD6 MLOAD 0xBE PUSH26 0x7454F8B1D6046E473A705A8176BD07070B032A8CC3314C632364 PUSH20 0x6F6C634300081400330000000000000000000000 "
		},
		"gasEstimates": {
			"creation": {
				"codeDepositCost": "4772400",
				"executionCost": "infinite",
				"totalCost": "infinite"
			},
			"external": {
				"SFTBaseURI()": "infinite",
				"_shareSlot()": "2348",
				"assetId()": "2417",
				"claimIncome(address,uint256,uint256)": "infinite",
				"consumer_balance(address)": "2566",
				"createInvoice(address,address,uint256,string)": "infinite",
				"createInvoiceBatch((address,address,uint256,string)[])": "infinite",
				"createSFT(string,string,uint256,uint256,address,string)": "infinite",
				"fundAddress()": "2426",
				"invoiceId()": "2372",
				"owner()": "2365",
				"payTokenAddress()": "2493",
				"recharge(uint256)": "infinite",
				"renounceOwnership()": "infinite",
				"service_provider(address)": "2544",
				"setFundAddress(address)": "27963",
				"setPriceToken(address)": "27942",
				"setSFTBaseURI(address,string)": "infinite",
				"setServiceProvider(address,bool)": "infinite",
				"sft_assets(uint256)": "2609",
				"sft_total_income(address)": "2523",
				"shareSlot()": "2328",
				"tokenIncome(address,uint256)": "infinite",
				"transferOwnership(address)": "infinite"
			},
			"internal": {
				"_allocateTokenIncome(address,uint256)": "infinite",
				"_calculate(uint256,uint256,uint256)": "infinite",
				"_setSFTBaseURI(address,string memory)": "infinite"
			}
		},
		"methodIdentifiers": {
			"SFTBaseURI()": "65a1e6c5",
			"_shareSlot()": "13d18a24",
			"assetId()": "44de240a",
			"claimIncome(address,uint256,uint256)": "51d4a4e2",
			"consumer_balance(address)": "a335a003",
			"createInvoice(address,address,uint256,string)": "a3799339",
			"createInvoiceBatch((address,address,uint256,string)[])": "e917ccaf",
			"createSFT(string,string,uint256,uint256,address,string)": "92881f08",
			"fundAddress()": "e82bef29",
			"invoiceId()": "70c86286",
			"owner()": "8da5cb5b",
			"payTokenAddress()": "c77b5146",
			"recharge(uint256)": "ef299b0b",
			"renounceOwnership()": "715018a6",
			"service_provider(address)": "cae5ec04",
			"setFundAddress(address)": "85dc3004",
			"setPriceToken(address)": "411092e3",
			"setSFTBaseURI(address,string)": "e2a084da",
			"setServiceProvider(address,bool)": "017e4d1e",
			"sft_assets(uint256)": "b0e0a569",
			"sft_total_income(address)": "00a41baa",
			"shareSlot()": "631429ce",
			"tokenIncome(address,uint256)": "2e08e4c6",
			"transferOwnership(address)": "f2fde38b"
		}
	},
	"abi": [
		{
			"inputs": [
				{
					"internalType": "address",
					"name": "initialOwner",
					"type": "address"
				},
				{
					"internalType": "address",
					"name": "pay_token",
					"type": "address"
				},
				{
					"internalType": "address",
					"name": "fund_address",
					"type": "address"
				},
				{
					"internalType": "string",
					"name": "sft_base_uri",
					"type": "string"
				}
			],
			"stateMutability": "nonpayable",
			"type": "constructor"
		},
		{
			"inputs": [],
			"name": "MathOverflowedMulDiv",
			"type": "error"
		},
		{
			"inputs": [
				{
					"internalType": "address",
					"name": "owner",
					"type": "address"
				}
			],
			"name": "OwnableInvalidOwner",
			"type": "error"
		},
		{
			"inputs": [
				{
					"internalType": "address",
					"name": "account",
					"type": "address"
				}
			],
			"name": "OwnableUnauthorizedAccount",
			"type": "error"
		},
		{
			"inputs": [],
			"name": "ReentrancyGuardReentrantCall",
			"type": "error"
		},
		{
			"inputs": [
				{
					"internalType": "uint256",
					"name": "value",
					"type": "uint256"
				},
				{
					"internalType": "uint256",
					"name": "length",
					"type": "uint256"
				}
			],
			"name": "StringsInsufficientHexLength",
			"type": "error"
		},
		{
			"anonymous": false,
			"inputs": [
				{
					"indexed": false,
					"internalType": "address",
					"name": "wallet_address",
					"type": "address"
				},
				{
					"indexed": false,
					"internalType": "uint256",
					"name": "amount",
					"type": "uint256"
				}
			],
			"name": "ConsumerBalanceRecharged",
			"type": "event"
		},
		{
			"anonymous": false,
			"inputs": [
				{
					"indexed": false,
					"internalType": "address",
					"name": "_address",
					"type": "address"
				}
			],
			"name": "FundAddressChanged",
			"type": "event"
		},
		{
			"anonymous": false,
			"inputs": [
				{
					"indexed": false,
					"internalType": "address",
					"name": "sft_address",
					"type": "address"
				},
				{
					"indexed": false,
					"internalType": "uint256",
					"name": "token_id",
					"type": "uint256"
				},
				{
					"indexed": false,
					"internalType": "uint256",
					"name": "amount",
					"type": "uint256"
				}
			],
			"name": "IncomeClaimed",
			"type": "event"
		},
		{
			"anonymous": false,
			"inputs": [
				{
					"indexed": false,
					"internalType": "uint256",
					"name": "invoice_id",
					"type": "uint256"
				},
				{
					"indexed": false,
					"internalType": "address",
					"name": "consumer",
					"type": "address"
				},
				{
					"indexed": false,
					"internalType": "address",
					"name": "sft_address",
					"type": "address"
				},
				{
					"indexed": false,
					"internalType": "uint256",
					"name": "amount",
					"type": "uint256"
				},
				{
					"indexed": false,
					"internalType": "string",
					"name": "reference_id",
					"type": "string"
				}
			],
			"name": "InvoiceCreated",
			"type": "event"
		},
		{
			"anonymous": false,
			"inputs": [
				{
					"indexed": true,
					"internalType": "address",
					"name": "previousOwner",
					"type": "address"
				},
				{
					"indexed": true,
					"internalType": "address",
					"name": "newOwner",
					"type": "address"
				}
			],
			"name": "OwnershipTransferred",
			"type": "event"
		},
		{
			"anonymous": false,
			"inputs": [
				{
					"indexed": false,
					"internalType": "address",
					"name": "token_address",
					"type": "address"
				}
			],
			"name": "PayTokenChanged",
			"type": "event"
		},
		{
			"anonymous": false,
			"inputs": [
				{
					"indexed": false,
					"internalType": "address",
					"name": "sft_address",
					"type": "address"
				},
				{
					"indexed": false,
					"internalType": "string",
					"name": "new_uri",
					"type": "string"
				}
			],
			"name": "SFTBaseURIChanged",
			"type": "event"
		},
		{
			"anonymous": false,
			"inputs": [
				{
					"indexed": false,
					"internalType": "address",
					"name": "provider_address",
					"type": "address"
				},
				{
					"indexed": false,
					"internalType": "bool",
					"name": "enabled",
					"type": "bool"
				}
			],
			"name": "ServiceProviderChanged",
			"type": "event"
		},
		{
			"anonymous": false,
			"inputs": [
				{
					"indexed": false,
					"internalType": "address",
					"name": "sft_address",
					"type": "address"
				},
				{
					"indexed": false,
					"internalType": "uint256",
					"name": "slot_value",
					"type": "uint256"
				},
				{
					"indexed": false,
					"internalType": "uint256",
					"name": "token_amount",
					"type": "uint256"
				},
				{
					"indexed": false,
					"internalType": "uint256",
					"name": "asset_id",
					"type": "uint256"
				},
				{
					"indexed": false,
					"internalType": "address",
					"name": "owner_address",
					"type": "address"
				},
				{
					"indexed": false,
					"internalType": "string",
					"name": "reference_id",
					"type": "string"
				}
			],
			"name": "TokenCreated",
			"type": "event"
		},
		{
			"inputs": [],
			"name": "SFTBaseURI",
			"outputs": [
				{
					"internalType": "string",
					"name": "",
					"type": "string"
				}
			],
			"stateMutability": "view",
			"type": "function"
		},
		{
			"inputs": [],
			"name": "_shareSlot",
			"outputs": [
				{
					"internalType": "uint256",
					"name": "",
					"type": "uint256"
				}
			],
			"stateMutability": "view",
			"type": "function"
		},
		{
			"inputs": [],
			"name": "assetId",
			"outputs": [
				{
					"internalType": "uint256",
					"name": "",
					"type": "uint256"
				}
			],
			"stateMutability": "view",
			"type": "function"
		},
		{
			"inputs": [
				{
					"internalType": "address",
					"name": "sft_address",
					"type": "address"
				},
				{
					"internalType": "uint256",
					"name": "token_id",
					"type": "uint256"
				},
				{
					"internalType": "uint256",
					"name": "amount",
					"type": "uint256"
				}
			],
			"name": "claimIncome",
			"outputs": [],
			"stateMutability": "nonpayable",
			"type": "function"
		},
		{
			"inputs": [
				{
					"internalType": "address",
					"name": "",
					"type": "address"
				}
			],
			"name": "consumer_balance",
			"outputs": [
				{
					"internalType": "uint256",
					"name": "",
					"type": "uint256"
				}
			],
			"stateMutability": "view",
			"type": "function"
		},
		{
			"inputs": [
				{
					"internalType": "address",
					"name": "consumer",
					"type": "address"
				},
				{
					"internalType": "address",
					"name": "sft_address",
					"type": "address"
				},
				{
					"internalType": "uint256",
					"name": "amount",
					"type": "uint256"
				},
				{
					"internalType": "string",
					"name": "reference_id",
					"type": "string"
				}
			],
			"name": "createInvoice",
			"outputs": [],
			"stateMutability": "nonpayable",
			"type": "function"
		},
		{
			"inputs": [
				{
					"components": [
						{
							"internalType": "address",
							"name": "consumer",
							"type": "address"
						},
						{
							"internalType": "address",
							"name": "sft_address",
							"type": "address"
						},
						{
							"internalType": "uint256",
							"name": "amount",
							"type": "uint256"
						},
						{
							"internalType": "string",
							"name": "reference_id",
							"type": "string"
						}
					],
					"internalType": "struct KnowledgeFi.invoice[]",
					"name": "_invoice",
					"type": "tuple[]"
				}
			],
			"name": "createInvoiceBatch",
			"outputs": [],
			"stateMutability": "nonpayable",
			"type": "function"
		},
		{
			"inputs": [
				{
					"internalType": "string",
					"name": "_name",
					"type": "string"
				},
				{
					"internalType": "string",
					"name": "_symbol",
					"type": "string"
				},
				{
					"internalType": "uint256",
					"name": "slot_value",
					"type": "uint256"
				},
				{
					"internalType": "uint256",
					"name": "token_amount",
					"type": "uint256"
				},
				{
					"internalType": "address",
					"name": "token_owner",
					"type": "address"
				},
				{
					"internalType": "string",
					"name": "reference_id",
					"type": "string"
				}
			],
			"name": "createSFT",
			"outputs": [],
			"stateMutability": "nonpayable",
			"type": "function"
		},
		{
			"inputs": [],
			"name": "fundAddress",
			"outputs": [
				{
					"internalType": "address",
					"name": "",
					"type": "address"
				}
			],
			"stateMutability": "view",
			"type": "function"
		},
		{
			"inputs": [],
			"name": "invoiceId",
			"outputs": [
				{
					"internalType": "uint256",
					"name": "",
					"type": "uint256"
				}
			],
			"stateMutability": "view",
			"type": "function"
		},
		{
			"inputs": [],
			"name": "owner",
			"outputs": [
				{
					"internalType": "address",
					"name": "",
					"type": "address"
				}
			],
			"stateMutability": "view",
			"type": "function"
		},
		{
			"inputs": [],
			"name": "payTokenAddress",
			"outputs": [
				{
					"internalType": "address",
					"name": "",
					"type": "address"
				}
			],
			"stateMutability": "view",
			"type": "function"
		},
		{
			"inputs": [
				{
					"internalType": "uint256",
					"name": "amount",
					"type": "uint256"
				}
			],
			"name": "recharge",
			"outputs": [],
			"stateMutability": "nonpayable",
			"type": "function"
		},
		{
			"inputs": [],
			"name": "renounceOwnership",
			"outputs": [],
			"stateMutability": "nonpayable",
			"type": "function"
		},
		{
			"inputs": [
				{
					"internalType": "address",
					"name": "",
					"type": "address"
				}
			],
			"name": "service_provider",
			"outputs": [
				{
					"internalType": "bool",
					"name": "",
					"type": "bool"
				}
			],
			"stateMutability": "view",
			"type": "function"
		},
		{
			"inputs": [
				{
					"internalType": "address",
					"name": "_address",
					"type": "address"
				}
			],
			"name": "setFundAddress",
			"outputs": [],
			"stateMutability": "nonpayable",
			"type": "function"
		},
		{
			"inputs": [
				{
					"internalType": "address",
					"name": "newtoken",
					"type": "address"
				}
			],
			"name": "setPriceToken",
			"outputs": [],
			"stateMutability": "nonpayable",
			"type": "function"
		},
		{
			"inputs": [
				{
					"internalType": "address",
					"name": "sft_address",
					"type": "address"
				},
				{
					"internalType": "string",
					"name": "new_uri",
					"type": "string"
				}
			],
			"name": "setSFTBaseURI",
			"outputs": [],
			"stateMutability": "nonpayable",
			"type": "function"
		},
		{
			"inputs": [
				{
					"internalType": "address",
					"name": "_address",
					"type": "address"
				},
				{
					"internalType": "bool",
					"name": "enabled",
					"type": "bool"
				}
			],
			"name": "setServiceProvider",
			"outputs": [],
			"stateMutability": "nonpayable",
			"type": "function"
		},
		{
			"inputs": [
				{
					"internalType": "uint256",
					"name": "",
					"type": "uint256"
				}
			],
			"name": "sft_assets",
			"outputs": [
				{
					"internalType": "address",
					"name": "",
					"type": "address"
				}
			],
			"stateMutability": "view",
			"type": "function"
		},
		{
			"inputs": [
				{
					"internalType": "address",
					"name": "",
					"type": "address"
				}
			],
			"name": "sft_total_income",
			"outputs": [
				{
					"internalType": "uint256",
					"name": "",
					"type": "uint256"
				}
			],
			"stateMutability": "view",
			"type": "function"
		},
		{
			"inputs": [],
			"name": "shareSlot",
			"outputs": [
				{
					"internalType": "uint256",
					"name": "",
					"type": "uint256"
				}
			],
			"stateMutability": "view",
			"type": "function"
		},
		{
			"inputs": [
				{
					"internalType": "address",
					"name": "sft_address",
					"type": "address"
				},
				{
					"internalType": "uint256",
					"name": "token_id",
					"type": "uint256"
				}
			],
			"name": "tokenIncome",
			"outputs": [
				{
					"internalType": "uint256",
					"name": "",
					"type": "uint256"
				}
			],
			"stateMutability": "view",
			"type": "function"
		},
		{
			"inputs": [
				{
					"internalType": "address",
					"name": "newOwner",
					"type": "address"
				}
			],
			"name": "transferOwnership",
			"outputs": [],
			"stateMutability": "nonpayable",
			"type": "function"
		}
	]
}