{
	"data": {
		"bytecode": {
			"linkReferences": {},
			"object": "608060405234801562000010575f80fd5b5060405162003f1b38038062003f1b8339810160408190526200003391620001d0565b600160035582828260128282828282825f620000508482620002e0565b5060016200005f8382620002e0565b506002805460ff191660ff929092169190911790555050506001600160a01b0386169450620000ac935050505057604051631e4fbdf760e01b81525f600482015260240160405180910390fd5b620000b781620000c1565b50505050620003a8565b600d80546001600160a01b038381166001600160a01b0319831681179093556040519116919082907f8be0079c531659141344cd1fd0a4f28419497f9722a3daafe3b4186f6b6457e0905f90a35050565b634e487b7160e01b5f52604160045260245ffd5b5f82601f83011262000136575f80fd5b81516001600160401b038082111562000153576200015362000112565b604051601f8301601f19908116603f011681019082821181831017156200017e576200017e62000112565b816040528381526020925086838588010111156200019a575f80fd5b5f91505b83821015620001bd57858201830151818301840152908201906200019e565b5f93810190920192909252949350505050565b5f805f60608486031215620001e3575f80fd5b83516001600160a01b0381168114620001fa575f80fd5b60208501519093506001600160401b038082111562000217575f80fd5b620002258783880162000126565b935060408601519150808211156200023b575f80fd5b506200024a8682870162000126565b9150509250925092565b600181811c908216806200026957607f821691505b6020821081036200028857634e487b7160e01b5f52602260045260245ffd5b50919050565b601f821115620002db575f81815260208120601f850160051c81016020861015620002b65750805b601f850160051c820191505b81811015620002d757828155600101620002c2565b5050505b505050565b81516001600160401b03811115620002fc57620002fc62000112565b62000314816200030d845462000254565b846200028e565b602080601f8311600181146200034a575f8415620003325750858301515b5f19600386901b1c1916600185901b178555620002d7565b5f85815260208120601f198616915b828110156200037a5788860151825594840194600190910190840162000359565b50858210156200039857878501515f19600388901b60f8161c191681555b5050505050600190811b01905550565b613b6580620003b65f395ff3fe60806040526004361061023d575f3560e01c80636352211e11610134578063a22cb465116100b3578063e8a3d48511610078578063e8a3d48514610661578063e985e9c514610675578063ed08fa80146106c0578063f0db6753146106d4578063f0e88e7f146106f3578063f2fde38b14610712575f80fd5b8063a22cb465146105a2578063b88d4fde146105c1578063c87b56dd146105d4578063e345e0bc146105f3578063e345f05e14610612575f80fd5b80638cb0a511116100f95780638cb0a511146105205780638da5cb5b1461053357806395d89b4114610550578063993bef8d146105645780639cc7f70814610583575f80fd5b80636352211e1461049b5780636c0360eb146104ba57806370a08231146104ce578063715018a6146104ed578063840f711314610501575f80fd5b8063263f3e7e116101c05780634f6ccce7116101855780634f6ccce71461040c5780634f8a0f831461042b57806355cd4e061461044a57806355f804b31461045d5780635a3c7da71461047c575f80fd5b8063263f3e7e146103875780632f745c59146103a6578063310ed7f0146103c55780633e7e8669146103d857806342842e0e146103f9575f80fd5b806309c3dd871161020657806309c3dd871461030f5780630f485c021461032e578063156e29f61461034157806318160ddd1461036057806323b872dd14610374575f80fd5b8062cd01101461024157806301ffc9a71461027357806306fdde03146102a2578063081812fc146102c3578063095ea7b3146102fa575b5f80fd5b34801561024c575f80fd5b5061026061025b366004613290565b610731565b6040519081526020015b60405180910390f35b34801561027e575f80fd5b5061029261028d3660046132c5565b610801565b604051901515815260200161026a565b3480156102ad575f80fd5b506102b6610825565b60405161026a919061332d565b3480156102ce575f80fd5b506102e26102dd36600461333f565b6108b4565b6040516001600160a01b03909116815260200161026a565b61030d61030836600461336c565b610903565b005b34801561031a575f80fd5b506102b661032936600461333f565b6109fb565b61026061033c366004613394565b610ad9565b34801561034c575f80fd5b5061030d61035b3660046133c6565b610b0f565b34801561036b575f80fd5b50600554610260565b61030d6103823660046133f6565b610b22565b348015610392575f80fd5b506102606103a136600461333f565b610b58565b3480156103b1575f80fd5b506102606103c036600461336c565b610b9c565b61030d6103d336600461341f565b610c28565b3480156103e3575f80fd5b5060025460405160ff909116815260200161026a565b61030d6104073660046133f6565b610c3e565b348015610417575f80fd5b5061026061042636600461333f565b610c58565b348015610436575f80fd5b5061026061044536600461333f565b610ce5565b61030d610458366004613455565b610d36565b348015610468575f80fd5b5061030d610477366004613548565b610dd0565b348015610487575f80fd5b5061026061049636600461333f565b610de8565b3480156104a6575f80fd5b506102e26104b536600461333f565b610e3d565b3480156104c5575f80fd5b506102b6610ed6565b3480156104d9575f80fd5b506102606104e836600461358d565b610f62565b3480156104f8575f80fd5b5061030d610fe8565b34801561050c575f80fd5b506008546102e2906001600160a01b031681565b61030d61052e366004613394565b610ffb565b34801561053e575f80fd5b50600d546001600160a01b03166102e2565b34801561055b575f80fd5b506102b66110b3565b34801561056f575f80fd5b5061026061057e36600461333f565b6110c2565b34801561058e575f80fd5b5061026061059d36600461333f565b61115b565b3480156105ad575f80fd5b5061030d6105bc3660046135a6565b61119f565b61030d6105cf3660046135db565b6111aa565b3480156105df575f80fd5b506102b66105ee36600461333f565b6111dc565b3480156105fe575f80fd5b5061026061060d366004613652565b61126b565b34801561061d575f80fd5b5061029261062c36600461367c565b6001600160a01b039283165f908152600c60209081526040808320948352938152838220929094168152925290205460ff1690565b34801561066c575f80fd5b506102b661129d565b348015610680575f80fd5b5061029261068f3660046136b5565b6001600160a01b039182165f9081526007602090815260408083209390941682526002909201909152205460ff1690565b3480156106cb575f80fd5b50600a54610260565b3480156106df575f80fd5b506102606106ee36600461333f565b611382565b3480156106fe575f80fd5b5061030d61070d366004613290565b6114bd565b34801561071d575f80fd5b5061030d61072c36600461358d565b6114cf565b5f61073b83610ce5565b82106107ac5760405162461bcd60e51b815260206004820152603560248201527f45524333353235536c6f74456e756d657261626c653a20736c6f7420746f6b656044820152746e20696e646578206f7574206f6620626f756e647360581b60648201526084015b60405180910390fd5b5f838152600b6020526040902054600a805490919081106107cf576107cf6136dd565b905f5260205f20906002020160010182815481106107ef576107ef6136dd565b905f5260205f20015490505b92915050565b5f6001600160e01b031982166316d117cb60e31b14806107fb57506107fb8261150c565b60605f8054610833906136f1565b80601f016020809104026020016040519081016040528092919081815260200182805461085f906136f1565b80156108aa5780601f10610881576101008083540402835291602001916108aa565b820191905f5260205f20905b81548152906001019060200180831161088d57829003601f168201915b5050505050905090565b5f6108be82611530565b5f828152600660205260409020546005805490919081106108e1576108e16136dd565b5f9182526020909120600460069092020101546001600160a01b031692915050565b5f61090d82610e3d565b90505f61091983610b58565b9050816001600160a01b0316846001600160a01b03160361094c5760405162461bcd60e51b81526004016107a390613729565b336001600160a01b03831614806109685750610968823361068f565b80610979575061097982823361062c565b6109eb5760405162461bcd60e51b815260206004820152603e60248201527f455243333532353a20617070726f76652063616c6c6572206973206e6f74206f60448201527f776e6572206e6f7220617070726f76656420666f7220616c6c2f736c6f74000060648201526084016107a3565b6109f58484611581565b50505050565b60605f610a06611616565b6008549091506001600160a01b0316610a64575f815111610a355760405180602001604052805f815250610ad2565b80610a3f84611625565b604051602001610a5092919061376b565b604051602081830303815290604052610ad2565b600854604051633601bfc560e11b8152600481018590526001600160a01b0390911690636c037f8a906024015b5f60405180830381865afa158015610aab573d5f803e3d5ffd5b505050506040513d5f823e601f3d908101601f19168201604052610ad291908101906137aa565b9392505050565b5f610ae53385846116b5565b610aee84611743565b9050610b048382610afe87610b58565b5f61174c565b610ad284828461188c565b610b17611bcf565b6109f5838383611bfc565b610b2c3382611c13565b610b485760405162461bcd60e51b81526004016107a390613813565b610b53838383611cbe565b505050565b5f610b6282611530565b5f82815260066020526040902054600580549091908110610b8557610b856136dd565b905f5260205f209060060201600101549050919050565b5f610ba683610f62565b8210610bff5760405162461bcd60e51b815260206004820152602260248201527f455243333532353a206f776e657220696e646578206f7574206f6620626f756e604482015261647360f01b60648201526084016107a3565b6001600160a01b0383165f9081526007602052604090208054839081106107ef576107ef6136dd565b610c333384836116b5565b610b5383838361188c565b610b5383838360405180602001604052805f8152506111aa565b5f610c6260055490565b8210610cbc5760405162461bcd60e51b815260206004820152602360248201527f455243333532353a20676c6f62616c20696e646578206f7574206f6620626f756044820152626e647360e81b60648201526084016107a3565b60058281548110610ccf57610ccf6136dd565b905f5260205f2090600602015f01549050919050565b5f610cef82611e33565b610cfa57505f919050565b5f828152600b6020526040902054600a80549091908110610d1d57610d1d6136dd565b5f91825260209091206001600290920201015492915050565b336001600160a01b0385161480610d525750610d52843361068f565b610dc45760405162461bcd60e51b815260206004820152603f60248201527f45524333353235536c6f74417070726f7661626c653a2063616c6c657220697360448201527f206e6f74206f776e6572206e6f7220617070726f76656420666f7220616c6c0060648201526084016107a3565b6109f584848484611e7a565b610dd8611bcf565b600e610de482826138aa565b5050565b5f80805b610df584610ce5565b811015610e36575f610e078583610731565b90505f610e138261115b565b9050610e1f818561397a565b935050508080610e2e9061398d565b915050610dec565b5092915050565b5f610e4782611530565b5f82815260066020526040902054600580549091908110610e6a57610e6a6136dd565b5f9182526020909120600360069092020101546001600160a01b0316905080610ed15760405162461bcd60e51b8152602060048201526019602482015278115490cccd4c8d4e881a5b9d985b1a59081d1bdad95b881251603a1b60448201526064016107a3565b919050565b600e8054610ee3906136f1565b80601f0160208091040260200160405190810160405280929190818152602001828054610f0f906136f1565b8015610f5a5780601f10610f3157610100808354040283529160200191610f5a565b820191905f5260205f20905b815481529060010190602001808311610f3d57829003601f168201915b505050505081565b5f6001600160a01b038216610fcd5760405162461bcd60e51b815260206004820152602b60248201527f455243333532353a2062616c616e636520717565727920666f7220746865207a60448201526a65726f206164647265737360a81b60648201526084016107a3565b506001600160a01b03165f9081526007602052604090205490565b610ff0611bcf565b610ff95f611f63565b565b5f61100584610e3d565b9050806001600160a01b0316836001600160a01b0316036110385760405162461bcd60e51b81526004016107a390613729565b6110423385611c13565b6110a85760405162461bcd60e51b815260206004820152603160248201527f455243333532353a20617070726f76652063616c6c6572206973206e6f74206f6044820152701ddb995c881b9bdc88185c1c1c9bdd9959607a1b60648201526084016107a3565b6109f5848484611fb4565b606060018054610833906136f1565b5f6110cc600a5490565b82106111325760405162461bcd60e51b815260206004820152602f60248201527f45524333353235536c6f74456e756d657261626c653a20736c6f7420696e646560448201526e78206f7574206f6620626f756e647360881b60648201526084016107a3565b600a8281548110611145576111456136dd565b905f5260205f2090600202015f01549050919050565b5f61116582611530565b5f82815260066020526040902054600580549091908110611188576111886136dd565b905f5260205f209060060201600201549050919050565b610de43383836120e9565b6111b43383611c13565b6111d05760405162461bcd60e51b81526004016107a390613813565b6109f5848484846121b2565b60606111e782611530565b5f6111f0611616565b6008549091506001600160a01b031661123a575f81511161121f5760405180602001604052805f815250610ad2565b8061122984611625565b604051602001610a509291906139a5565b6008546040516344a5a61760e11b8152600481018590526001600160a01b039091169063894b4c2e90602401610a91565b5f61127583611530565b505f9182526004602090815260408084206001600160a01b0393909316845291905290205490565b60605f6112a8611616565b6008549091506001600160a01b0316611306575f8151116112d75760405180602001604052805f81525061137c565b806112e130612225565b6040516020016112f29291906139d3565b60405160208183030381529060405261137c565b60085f9054906101000a90046001600160a01b03166001600160a01b031663725fa09c6040518163ffffffff1660e01b81526004015f60405180830381865afa158015611355573d5f803e3d5ffd5b505050506040513d5f823e601f3d908101601f1916820160405261137c91908101906137aa565b91505090565b5f80611396600d546001600160a01b031690565b90505f816001600160a01b03166313d18a246040518163ffffffff1660e01b8152600401602060405180830381865afa1580156113d5573d5f803e3d5ffd5b505050506040513d601f19601f820116820180604052508101906113f99190613a16565b90508061140585610b58565b146114485760405162461bcd60e51b8152602060048201526013602482015272139bc81b585d18da081cda185c99481cdb1bdd606a1b60448201526064016107a3565b604051631704726360e11b8152306004820152602481018590526001600160a01b03831690632e08e4c690604401602060405180830381865afa158015611491573d5f803e3d5ffd5b505050506040513d601f19601f820116820180604052508101906114b59190613a16565b949350505050565b6114c5611bcf565b610de4828261223b565b6114d7611bcf565b6001600160a01b03811661150057604051631e4fbdf760e01b81525f60048201526024016107a3565b61150981611f63565b50565b5f6001600160e01b03198216631dba0dcf60e11b14806107fb57506107fb82612279565b6115398161231a565b6115095760405162461bcd60e51b8152602060048201526019602482015278115490cccd4c8d4e881a5b9d985b1a59081d1bdad95b881251603a1b60448201526064016107a3565b5f818152600660205260409020546005805484929081106115a4576115a46136dd565b5f918252602090912060069091020160040180546001600160a01b0319166001600160a01b03928316179055819083166115dd82610e3d565b6001600160a01b03167f8c5be1e5ebec7d5bd14f71427d1e84f3dd0314c0f7b2291e5b200ac8c7c3b92560405160405180910390a45050565b6060600e8054610833906136f1565b60605f61163183612361565b60010190505f8167ffffffffffffffff811115611650576116506134a1565b6040519080825280601f01601f19166020018201604052801561167a576020820181803683370190505b5090508181016020015b5f19016f181899199a1a9b1b9c1cb0b131b232b360811b600a86061a8153600a850494508461168457509392505050565b5f6116c0838561126b565b90506116cc8484611c13565b1580156116da57505f198114155b156109f5578181101561172f5760405162461bcd60e51b815260206004820152601f60248201527f455243333532353a20696e73756666696369656e7420616c6c6f77616e63650060448201526064016107a3565b6109f5838561173e8585613a2d565b611fb4565b5f6107fb612438565b6001600160a01b0384166117ac5760405162461bcd60e51b815260206004820152602160248201527f455243333532353a206d696e7420746f20746865207a65726f206164647265736044820152607360f81b60648201526084016107a3565b825f036118055760405162461bcd60e51b815260206004820152602160248201527f455243333532353a2063616e6e6f74206d696e74207a65726f20746f6b656e496044820152601960fa1b60648201526084016107a3565b61180e8361231a565b1561185b5760405162461bcd60e51b815260206004820152601d60248201527f455243333532353a20746f6b656e20616c7265616479206d696e74656400000060448201526064016107a3565b6118695f855f868686612451565b61187484848461248e565b61187e8382612551565b6109f55f855f8686866125d1565b6118958361231a565b6118f15760405162461bcd60e51b815260206004820152602760248201527f455243333532353a207472616e736665722066726f6d20696e76616c696420746044820152661bdad95b88125160ca1b60648201526084016107a3565b6118fa8261231a565b6119545760405162461bcd60e51b815260206004820152602560248201527f455243333532353a207472616e7366657220746f20696e76616c696420746f6b604482015264195b88125160da1b60648201526084016107a3565b5f83815260066020526040812054600580549091908110611977576119776136dd565b905f5260205f20906006020190505f600560065f8681526020019081526020015f2054815481106119aa576119aa6136dd565b905f5260205f20906006020190508282600201541015611a1f5760405162461bcd60e51b815260206004820152602a60248201527f455243333532353a20696e73756666696369656e742062616c616e636520666f60448201526939103a3930b739b332b960b11b60648201526084016107a3565b8060010154826001015414611a8d5760405162461bcd60e51b815260206004820152602e60248201527f455243333532353a207472616e7366657220746f20746f6b656e20776974682060448201526d191a5999995c995b9d081cdb1bdd60921b60648201526084016107a3565b600380830154908201546001840154611ab8926001600160a01b039081169216908890889088612451565b82826002015f828254611acb9190613a2d565b9250508190555082816002015f828254611ae5919061397a565b9091555050604051838152849086907f0b2aac84f3ec956911fd78eae5311062972ff949f38412e8da39069d9f068cc69060200160405180910390a3600380830154908201546001840154611b4c926001600160a01b0390811692169088908890886125d1565b611b6685858560405180602001604052805f815250612642565b611bc85760405162461bcd60e51b815260206004820152602d60248201527f455243333532353a207472616e736665722072656a656374656420627920455260448201526c21999a991aa932b1b2b4bb32b960991b60648201526084016107a3565b5050505050565b600d546001600160a01b03163314610ff95760405163118cdaa760e01b81523360048201526024016107a3565b5f611c05612438565b9050610ad28482858561174c565b5f611c1d82611530565b5f611c2783610e3d565b90505f611c3384610b58565b9050816001600160a01b0316856001600160a01b03161480611c6e5750846001600160a01b0316611c63856108b4565b6001600160a01b0316145b80611c7e5750611c7e828661068f565b80611cb557506001600160a01b038083165f908152600c6020908152604080832085845282528083209389168352929052205460ff165b95945050505050565b826001600160a01b0316611cd182610e3d565b6001600160a01b031614611d335760405162461bcd60e51b8152602060048201526024808201527f455243333532353a207472616e736665722066726f6d20696e76616c6964206f6044820152633bb732b960e11b60648201526084016107a3565b6001600160a01b038216611d975760405162461bcd60e51b815260206004820152602560248201527f455243333532353a207472616e7366657220746f20746865207a65726f206164604482015264647265737360d81b60648201526084016107a3565b5f611da182610b58565b90505f611dad8361115b565b9050611dbd858585868686612451565b611dc75f84611581565b611dd0836127ac565b611dda8584612852565b611de48484612965565b82846001600160a01b0316866001600160a01b03167fddf252ad1be2c89b69c2b068fc378daa952ba7f163c4a11628f55a4df523b3ef60405160405180910390a4611bc88585858686866125d1565b600a545f90158015906107fb57505f828152600b6020526040902054600a80548492908110611e6457611e646136dd565b905f5260205f2090600202015f01541492915050565b816001600160a01b0316846001600160a01b031603611eeb5760405162461bcd60e51b815260206004820152602760248201527f45524333353235536c6f74417070726f7661626c653a20617070726f76652074604482015266379037bbb732b960c91b60648201526084016107a3565b6001600160a01b038481165f818152600c60209081526040808320888452825280832094871680845294825291829020805460ff191686151590811790915591519182528692917f7bdf71e6625aa496095bf08b60c677cf81c963f402cf258981e3bd7507d3480c910160405180910390a450505050565b600d80546001600160a01b038381166001600160a01b0319831681179093556040519116919082907f8be0079c531659141344cd1fd0a4f28419497f9722a3daafe3b4186f6b6457e0905f90a35050565b6001600160a01b03821661201d5760405162461bcd60e51b815260206004820152602a60248201527f455243333532353a20617070726f76652076616c756520746f20746865207a65604482015269726f206164647265737360b01b60648201526084016107a3565b61202782846129ec565b61208b575f8381526006602052604090205460058054909190811061204e5761204e6136dd565b5f9182526020808320600692909202909101600501805460018101825590835291200180546001600160a01b0319166001600160a01b0384161790555b5f8381526004602090815260408083206001600160a01b038616808552908352928190208490555183815285917f621b050de0ad08b51d19b48b3e6df75348c4de6bdd93e81b252ca62e28265b1b91015b60405180910390a3505050565b816001600160a01b0316836001600160a01b03160361214a5760405162461bcd60e51b815260206004820152601a60248201527f455243333532353a20617070726f766520746f2063616c6c657200000000000060448201526064016107a3565b6001600160a01b038381165f8181526007602090815260408083209487168084526002909501825291829020805460ff191686151590811790915591519182527f17307eab39ab6107e8899845ad3d59bd9653f200f220920489ca2b5937696c3191016120dc565b6121bd848484611cbe565b6121c984848484612ab8565b6109f55760405162461bcd60e51b815260206004820152602760248201527f455243333532353a207472616e7366657220746f206e6f6e204552433732315260448201526632b1b2b4bb32b960c91b60648201526084016107a3565b60606107fb6001600160a01b0383166014612bfa565b5f61224583610e3d565b90505f61225184610b58565b90506122615f835f878588612451565b61226b8484612551565b6109f55f835f8785886125d1565b5f6001600160e01b031982166301ffc9a760e01b14806122a957506001600160e01b03198216630354d60560e61b145b806122c457506001600160e01b031982166380ac58cd60e01b145b806122df57506001600160e01b031982166370b0048160e11b145b806122fa57506001600160e01b0319821663780e9d6360e01b145b806107fb57506001600160e01b03198216635b5e139f60e01b1492915050565b6005545f90158015906107fb57505f8281526006602052604090205460058054849290811061234b5761234b6136dd565b905f5260205f2090600602015f01541492915050565b5f8072184f03e93ff9f4daa797ed6e38ed64bf6a1f0160401b831061239f5772184f03e93ff9f4daa797ed6e38ed64bf6a1f0160401b830492506040015b6d04ee2d6d415b85acef810000000083106123cb576d04ee2d6d415b85acef8100000000830492506020015b662386f26fc1000083106123e957662386f26fc10000830492506010015b6305f5e1008310612401576305f5e100830492506008015b612710831061241557612710830492506004015b60648310612427576064830492506002015b600a83106107fb5760010192915050565b600380545f91826124488361398d565b91905055905090565b6001600160a01b038616158015612466575083155b8015612478575061247682611e33565b155b156124865761248682612d6c565b505050505050565b6040805160c08101825283815260208082018490525f8284018190526001600160a01b038716606084015260808301819052835181815291820190935260a082015290506124db81612e31565b6124e58484612965565b60405183906001600160a01b038616905f907fddf252ad1be2c89b69c2b068fc378daa952ba7f163c4a11628f55a4df523b3ef908290a4815f847fe4f48c240d3b994948aa54f3e2f5fca59263dfe1d52b6e4cf39a5d249b5ccb6560405160405180910390a450505050565b5f82815260066020526040902054600580548392908110612574576125746136dd565b905f5260205f2090600602016002015f828254612591919061397a565b909155505060405181815282905f907f0b2aac84f3ec956911fd78eae5311062972ff949f38412e8da39069d9f068cc69060200160405180910390a35050565b6001600160a01b0386161580156125e6575083155b80156125f957506125f78284612f7f565b155b1561260d576126088284613003565b612486565b6001600160a01b038516158015612622575082155b801561263357506126338285612f7f565b15612608576126088285613062565b5f8061264d85610e3d565b9050803b63ffffffff16156127a2576040516301ffc9a760e01b8152629ce20b60e01b60048201526001600160a01b038216906301ffc9a790602401602060405180830381865afa9250505080156126c2575060408051601f3d908101601f191682019092526126bf91810190613a40565b60015b612700573d8080156126ef576040519150601f19603f3d011682016040523d82523d5f602084013e6126f4565b606091505b506001925050506114b5565b801561279757604051629ce20b60e01b81525f906001600160a01b03841690629ce20b9061273a9033908c908c908c908c90600401613a5b565b6020604051808303815f875af1158015612756573d5f803e3d5ffd5b505050506040513d601f19601f8201168201806040525081019061277a9190613a98565b6001600160e01b031916629ce20b60e01b1493506114b592505050565b6001925050506114b5565b60019150506114b5565b5f818152600660205260408120546005805490919081106127cf576127cf6136dd565b5f91825260208220600560069092020190810154909250905b81811015612844575f836005018281548110612806576128066136dd565b5f9182526020808320909101548783526004825260408084206001600160a01b0390921684529152812055508061283c8161398d565b9150506127e8565b50610b53600583015f6131c5565b5f81815260066020526040812054600580549091908110612875576128756136dd565b5f918252602080832060069290920290910160030180546001600160a01b0319166001600160a01b03948516179055918416815260079091526040812080549091906128c390600190613a2d565b90505f825f0182815481106128da576128da6136dd565b905f5260205f20015490505f836001015f8681526020019081526020015f2054905081845f018281548110612911576129116136dd565b5f918252602080832090910192909255838152600186019091526040808220839055868252812055835484908061294a5761294a613ab3565b600190038181905f5260205f20015f90559055505050505050565b5f81815260066020526040902054600580548492908110612988576129886136dd565b5f918252602080832060069290920290910160030180546001600160a01b0319166001600160a01b03948516179055939091168152600780845260408083208054858552600182810188529285208190559286529082018155825292902090910155565b5f81815260066020526040812054600580548392908110612a0f57612a0f6136dd565b5f918252602082206005600690920201015491505b81811015612aae575f84815260066020526040902054600580546001600160a01b03881692908110612a5857612a586136dd565b905f5260205f2090600602016005018281548110612a7857612a786136dd565b5f918252602090912001546001600160a01b031603612a9c576001925050506107fb565b80612aa68161398d565b915050612a24565b505f949350505050565b5f833b63ffffffff1615612bf257604051630a85bd0160e11b81526001600160a01b0385169063150b7a0290612af8903390899088908890600401613ac7565b6020604051808303815f875af1925050508015612b32575060408051601f3d908101601f19168201909252612b2f91810190613a98565b60015b612bd8573d808015612b5f576040519150601f19603f3d011682016040523d82523d5f602084013e612b64565b606091505b5080515f03612bd05760405162461bcd60e51b815260206004820152603260248201527f4552433732313a207472616e7366657220746f206e6f6e20455243373231526560448201527131b2b4bb32b91034b6b83632b6b2b73a32b960711b60648201526084016107a3565b805181602001fd5b6001600160e01b031916630a85bd0160e11b1490506114b5565b5060016114b5565b6060825f612c09846002613b03565b612c1490600261397a565b67ffffffffffffffff811115612c2c57612c2c6134a1565b6040519080825280601f01601f191660200182016040528015612c56576020820181803683370190505b509050600360fc1b815f81518110612c7057612c706136dd565b60200101906001600160f81b03191690815f1a905350600f60fb1b81600181518110612c9e57612c9e6136dd565b60200101906001600160f81b03191690815f1a9053505f612cc0856002613b03565b612ccb90600161397a565b90505b6001811115612d42576f181899199a1a9b1b9c1cb0b131b232b360811b83600f1660108110612cff57612cff6136dd565b1a60f81b828281518110612d1557612d156136dd565b60200101906001600160f81b03191690815f1a90535060049290921c91612d3b81613b1a565b9050612cce565b5081156114b55760405163e22e27eb60e01b815260048101869052602481018590526044016107a3565b612d7581611e33565b15612dd55760405162461bcd60e51b815260206004820152602a60248201527f45524333353235536c6f74456e756d657261626c653a20736c6f7420616c72656044820152696164792065786973747360b01b60648201526084016107a3565b60408051808201825282815281515f8082526020828101909452928201529050612dfe81613141565b815f807fe4f48c240d3b994948aa54f3e2f5fca59263dfe1d52b6e4cf39a5d249b5ccb6560405160405180910390a45050565b6005805482515f90815260066020818152604080842085905560018501865594909252845192027f036b6384b5eca791c62761152d0c79bb0604c104a5fb6f4eb0703f3154bb3db08101928355818501517f036b6384b5eca791c62761152d0c79bb0604c104a5fb6f4eb0703f3154bb3db1820155928401517f036b6384b5eca791c62761152d0c79bb0604c104a5fb6f4eb0703f3154bb3db284015560608401517f036b6384b5eca791c62761152d0c79bb0604c104a5fb6f4eb0703f3154bb3db3840180546001600160a01b039283166001600160a01b03199182161790915560808601517f036b6384b5eca791c62761152d0c79bb0604c104a5fb6f4eb0703f3154bb3db48601805491909316911617905560a0840151805185946109f5937f036b6384b5eca791c62761152d0c79bb0604c104a5fb6f4eb0703f3154bb3db59091019201906131e0565b5f828152600b6020526040812054600a80548392908110612fa257612fa26136dd565b905f5260205f20906002020190505f81600101805490501180156114b557505f8481526009602090815260408083208684529091529020546001820180548592908110612ff157612ff16136dd565b905f5260205f20015414949350505050565b5f828152600b6020526040812054600a80549091908110613026576130266136dd565b5f918252602080832060016002909302018201805496845260098252604080852087865283528420879055918601825590825290209092015550565b5f828152600b6020526040812054600a80549091908110613085576130856136dd565b5f918252602082206001600290920201818101549093506130a69190613a2d565b90505f8260010182815481106130be576130be6136dd565b5f9182526020808320909101548783526009825260408084208885529092529120546001850180549293509091839190839081106130fe576130fe6136dd565b5f91825260208083209190910192909255878152600982526040808220858352909252818120839055868152908120556001840180548061294a5761294a613ab3565b600a805482515f908152600b602090815260408220839055600183018455929052825160029091027fc65a7bb8d6351c1cf70c95a316cc6a92839c986682d98bc35f958f4883f9d2a8810191825582840151805185946109f5937fc65a7bb8d6351c1cf70c95a316cc6a92839c986682d98bc35f958f4883f9d2a901920190613243565b5080545f8255905f5260205f2090810190611509919061327c565b828054828255905f5260205f20908101928215613233579160200282015b8281111561323357825182546001600160a01b0319166001600160a01b039091161782556020909201916001909101906131fe565b5061323f92915061327c565b5090565b828054828255905f5260205f20908101928215613233579160200282015b82811115613233578251825591602001919060010190613261565b5b8082111561323f575f815560010161327d565b5f80604083850312156132a1575f80fd5b50508035926020909101359150565b6001600160e01b031981168114611509575f80fd5b5f602082840312156132d5575f80fd5b8135610ad2816132b0565b5f5b838110156132fa5781810151838201526020016132e2565b50505f910152565b5f81518084526133198160208601602086016132e0565b601f01601f19169290920160200192915050565b602081525f610ad26020830184613302565b5f6020828403121561334f575f80fd5b5035919050565b80356001600160a01b0381168114610ed1575f80fd5b5f806040838503121561337d575f80fd5b61338683613356565b946020939093013593505050565b5f805f606084860312156133a6575f80fd5b833592506133b660208501613356565b9150604084013590509250925092565b5f805f606084860312156133d8575f80fd5b6133e184613356565b95602085013595506040909401359392505050565b5f805f60608486031215613408575f80fd5b61341184613356565b92506133b660208501613356565b5f805f60608486031215613431575f80fd5b505081359360208301359350604090920135919050565b8015158114611509575f80fd5b5f805f8060808587031215613468575f80fd5b61347185613356565b93506020850135925061348660408601613356565b9150606085013561349681613448565b939692955090935050565b634e487b7160e01b5f52604160045260245ffd5b604051601f8201601f1916810167ffffffffffffffff811182821017156134de576134de6134a1565b604052919050565b5f67ffffffffffffffff8211156134ff576134ff6134a1565b50601f01601f191660200190565b5f61351f61351a846134e6565b6134b5565b9050828152838383011115613532575f80fd5b828260208301375f602084830101529392505050565b5f60208284031215613558575f80fd5b813567ffffffffffffffff81111561356e575f80fd5b8201601f8101841361357e575f80fd5b6114b58482356020840161350d565b5f6020828403121561359d575f80fd5b610ad282613356565b5f80604083850312156135b7575f80fd5b6135c083613356565b915060208301356135d081613448565b809150509250929050565b5f805f80608085870312156135ee575f80fd5b6135f785613356565b935061360560208601613356565b925060408501359150606085013567ffffffffffffffff811115613627575f80fd5b8501601f81018713613637575f80fd5b6136468782356020840161350d565b91505092959194509250565b5f8060408385031215613663575f80fd5b8235915061367360208401613356565b90509250929050565b5f805f6060848603121561368e575f80fd5b61369784613356565b9250602084013591506136ac60408501613356565b90509250925092565b5f80604083850312156136c6575f80fd5b6136cf83613356565b915061367360208401613356565b634e487b7160e01b5f52603260045260245ffd5b600181811c9082168061370557607f821691505b60208210810361372357634e487b7160e01b5f52602260045260245ffd5b50919050565b60208082526022908201527f455243333532353a20617070726f76616c20746f2063757272656e74206f776e60408201526132b960f11b606082015260800190565b5f835161377c8184602088016132e0565b64736c6f742f60d81b908301908152835161379e8160058401602088016132e0565b01600501949350505050565b5f602082840312156137ba575f80fd5b815167ffffffffffffffff8111156137d0575f80fd5b8201601f810184136137e0575f80fd5b80516137ee61351a826134e6565b818152856020838501011115613802575f80fd5b611cb58260208301602086016132e0565b60208082526032908201527f455243333532353a207472616e736665722063616c6c6572206973206e6f74206040820152711bdddb995c881b9bdc88185c1c1c9bdd995960721b606082015260800190565b601f821115610b53575f81815260208120601f850160051c8101602086101561388b5750805b601f850160051c820191505b8181101561248657828155600101613897565b815167ffffffffffffffff8111156138c4576138c46134a1565b6138d8816138d284546136f1565b84613865565b602080601f83116001811461390b575f84156138f45750858301515b5f19600386901b1c1916600185901b178555612486565b5f85815260208120601f198616915b828110156139395788860151825594840194600190910190840161391a565b508582101561395657878501515f19600388901b60f8161c191681555b5050505050600190811b01905550565b634e487b7160e01b5f52601160045260245ffd5b808201808211156107fb576107fb613966565b5f6001820161399e5761399e613966565b5060010190565b5f83516139b68184602088016132e0565b8351908301906139ca8183602088016132e0565b01949350505050565b5f83516139e48184602088016132e0565b68636f6e74726163742f60b81b9083019081528351613a0a8160098401602088016132e0565b01600901949350505050565b5f60208284031215613a26575f80fd5b5051919050565b818103818111156107fb576107fb613966565b5f60208284031215613a50575f80fd5b8151610ad281613448565b60018060a01b038616815284602082015283604082015282606082015260a060808201525f613a8d60a0830184613302565b979650505050505050565b5f60208284031215613aa8575f80fd5b8151610ad2816132b0565b634e487b7160e01b5f52603160045260245ffd5b6001600160a01b03858116825284166020820152604081018390526080606082018190525f90613af990830184613302565b9695505050505050565b80820281158282048414176107fb576107fb613966565b5f81613b2857613b28613966565b505f19019056fea26469706673582212208b7a2551bf5241b64867f62cca2b1a516ef636538b6398a94a253a1fa16c7b7a64736f6c63430008140033",
			"opcodes": "PUSH1 0x80 PUSH1 0x40 MSTORE CALLVALUE DUP1 ISZERO PUSH3 0x10 JUMPI PUSH0 DUP1 REVERT JUMPDEST POP PUSH1 0x40 MLOAD PUSH3 0x3F1B CODESIZE SUB DUP1 PUSH3 0x3F1B DUP4 CODECOPY DUP2 ADD PUSH1 0x40 DUP2 SWAP1 MSTORE PUSH3 0x33 SWAP2 PUSH3 0x1D0 JUMP JUMPDEST PUSH1 0x1 PUSH1 0x3 SSTORE DUP3 DUP3 DUP3 PUSH1 0x12 DUP3 DUP3 DUP3 DUP3 DUP3 DUP3 PUSH0 PUSH3 0x50 DUP5 DUP3 PUSH3 0x2E0 JUMP JUMPDEST POP PUSH1 0x1 PUSH3 0x5F DUP4 DUP3 PUSH3 0x2E0 JUMP JUMPDEST POP PUSH1 0x2 DUP1 SLOAD PUSH1 0xFF NOT AND PUSH1 0xFF SWAP3 SWAP1 SWAP3 AND SWAP2 SWAP1 SWAP2 OR SWAP1 SSTORE POP POP POP PUSH1 0x1 PUSH1 0x1 PUSH1 0xA0 SHL SUB DUP7 AND SWAP5 POP PUSH3 0xAC SWAP4 POP POP POP POP JUMPI PUSH1 0x40 MLOAD PUSH4 0x1E4FBDF7 PUSH1 0xE0 SHL DUP2 MSTORE PUSH0 PUSH1 0x4 DUP3 ADD MSTORE PUSH1 0x24 ADD PUSH1 0x40 MLOAD DUP1 SWAP2 SUB SWAP1 REVERT JUMPDEST PUSH3 0xB7 DUP2 PUSH3 0xC1 JUMP JUMPDEST POP POP POP POP PUSH3 0x3A8 JUMP JUMPDEST PUSH1 0xD DUP1 SLOAD PUSH1 0x1 PUSH1 0x1 PUSH1 0xA0 SHL SUB DUP4 DUP2 AND PUSH1 0x1 PUSH1 0x1 PUSH1 0xA0 SHL SUB NOT DUP4 AND DUP2 OR SWAP1 SWAP4 SSTORE PUSH1 0x40 MLOAD SWAP2 AND SWAP2 SWAP1 DUP3 SWAP1 PUSH32 0x8BE0079C531659141344CD1FD0A4F28419497F9722A3DAAFE3B4186F6B6457E0 SWAP1 PUSH0 SWAP1 LOG3 POP POP JUMP JUMPDEST PUSH4 0x4E487B71 PUSH1 0xE0 SHL PUSH0 MSTORE PUSH1 0x41 PUSH1 0x4 MSTORE PUSH1 0x24 PUSH0 REVERT JUMPDEST PUSH0 DUP3 PUSH1 0x1F DUP4 ADD SLT PUSH3 0x136 JUMPI PUSH0 DUP1 REVERT JUMPDEST DUP2 MLOAD PUSH1 0x1 PUSH1 0x1 PUSH1 0x40 SHL SUB DUP1 DUP3 GT ISZERO PUSH3 0x153 JUMPI PUSH3 0x153 PUSH3 0x112 JUMP JUMPDEST PUSH1 0x40 MLOAD PUSH1 0x1F DUP4 ADD PUSH1 0x1F NOT SWAP1 DUP2 AND PUSH1 0x3F ADD AND DUP2 ADD SWAP1 DUP3 DUP3 GT DUP2 DUP4 LT OR ISZERO PUSH3 0x17E JUMPI PUSH3 0x17E PUSH3 0x112 JUMP JUMPDEST DUP2 PUSH1 0x40 MSTORE DUP4 DUP2 MSTORE PUSH1 0x20 SWAP3 POP DUP7 DUP4 DUP6 DUP9 ADD ADD GT ISZERO PUSH3 0x19A JUMPI PUSH0 DUP1 REVERT JUMPDEST PUSH0 SWAP2 POP JUMPDEST DUP4 DUP3 LT ISZERO PUSH3 0x1BD JUMPI DUP6 DUP3 ADD DUP4 ADD MLOAD DUP2 DUP4 ADD DUP5 ADD MSTORE SWAP1 DUP3 ADD SWAP1 PUSH3 0x19E JUMP JUMPDEST PUSH0 SWAP4 DUP2 ADD SWAP1 SWAP3 ADD SWAP3 SWAP1 SWAP3 MSTORE SWAP5 SWAP4 POP POP POP POP JUMP JUMPDEST PUSH0 DUP1 PUSH0 PUSH1 0x60 DUP5 DUP7 SUB SLT ISZERO PUSH3 0x1E3 JUMPI PUSH0 DUP1 REVERT JUMPDEST DUP4 MLOAD PUSH1 0x1 PUSH1 0x1 PUSH1 0xA0 SHL SUB DUP2 AND DUP2 EQ PUSH3 0x1FA JUMPI PUSH0 DUP1 REVERT JUMPDEST PUSH1 0x20 DUP6 ADD MLOAD SWAP1 SWAP4 POP PUSH1 0x1 PUSH1 0x1 PUSH1 0x40 SHL SUB DUP1 DUP3 GT ISZERO PUSH3 0x217 JUMPI PUSH0 DUP1 REVERT JUMPDEST PUSH3 0x225 DUP8 DUP4 DUP9 ADD PUSH3 0x126 JUMP JUMPDEST SWAP4 POP PUSH1 0x40 DUP7 ADD MLOAD SWAP2 POP DUP1 DUP3 GT ISZERO PUSH3 0x23B JUMPI PUSH0 DUP1 REVERT JUMPDEST POP PUSH3 0x24A DUP7 DUP3 DUP8 ADD PUSH3 0x126 JUMP JUMPDEST SWAP2 POP POP SWAP3 POP SWAP3 POP SWAP3 JUMP JUMPDEST PUSH1 0x1 DUP2 DUP2 SHR SWAP1 DUP3 AND DUP1 PUSH3 0x269 JUMPI PUSH1 0x7F DUP3 AND SWAP2 POP JUMPDEST PUSH1 0x20 DUP3 LT DUP2 SUB PUSH3 0x288 JUMPI PUSH4 0x4E487B71 PUSH1 0xE0 SHL PUSH0 MSTORE PUSH1 0x22 PUSH1 0x4 MSTORE PUSH1 0x24 PUSH0 REVERT JUMPDEST POP SWAP2 SWAP1 POP JUMP JUMPDEST PUSH1 0x1F DUP3 GT ISZERO PUSH3 0x2DB JUMPI PUSH0 DUP2 DUP2 MSTORE PUSH1 0x20 DUP2 KECCAK256 PUSH1 0x1F DUP6 ADD PUSH1 0x5 SHR DUP2 ADD PUSH1 0x20 DUP7 LT ISZERO PUSH3 0x2B6 JUMPI POP DUP1 JUMPDEST PUSH1 0x1F DUP6 ADD PUSH1 0x5 SHR DUP3 ADD SWAP2 POP JUMPDEST DUP2 DUP2 LT ISZERO PUSH3 0x2D7 JUMPI DUP3 DUP2 SSTORE PUSH1 0x1 ADD PUSH3 0x2C2 JUMP JUMPDEST POP POP POP JUMPDEST POP POP POP JUMP JUMPDEST DUP2 MLOAD PUSH1 0x1 PUSH1 0x1 PUSH1 0x40 SHL SUB DUP2 GT ISZERO PUSH3 0x2FC JUMPI PUSH3 0x2FC PUSH3 0x112 JUMP JUMPDEST PUSH3 0x314 DUP2 PUSH3 0x30D DUP5 SLOAD PUSH3 0x254 JUMP JUMPDEST DUP5 PUSH3 0x28E JUMP JUMPDEST PUSH1 0x20 DUP1 PUSH1 0x1F DUP4 GT PUSH1 0x1 DUP2 EQ PUSH3 0x34A JUMPI PUSH0 DUP5 ISZERO PUSH3 0x332 JUMPI POP DUP6 DUP4 ADD MLOAD JUMPDEST PUSH0 NOT PUSH1 0x3 DUP7 SWAP1 SHL SHR NOT AND PUSH1 0x1 DUP6 SWAP1 SHL OR DUP6 SSTORE PUSH3 0x2D7 JUMP JUMPDEST PUSH0 DUP6 DUP2 MSTORE PUSH1 0x20 DUP2 KECCAK256 PUSH1 0x1F NOT DUP7 AND SWAP2 JUMPDEST DUP3 DUP2 LT ISZERO PUSH3 0x37A JUMPI DUP9 DUP7 ADD MLOAD DUP3 SSTORE SWAP5 DUP5 ADD SWAP5 PUSH1 0x1 SWAP1 SWAP2 ADD SWAP1 DUP5 ADD PUSH3 0x359 JUMP JUMPDEST POP DUP6 DUP3 LT ISZERO PUSH3 0x398 JUMPI DUP8 DUP6 ADD MLOAD PUSH0 NOT PUSH1 0x3 DUP9 SWAP1 SHL PUSH1 0xF8 AND SHR NOT AND DUP2 SSTORE JUMPDEST POP POP POP POP POP PUSH1 0x1 SWAP1 DUP2 SHL ADD SWAP1 SSTORE POP JUMP JUMPDEST PUSH2 0x3B65 DUP1 PUSH3 0x3B6 PUSH0 CODECOPY PUSH0 RETURN INVALID PUSH1 0x80 PUSH1 0x40 MSTORE PUSH1 0x4 CALLDATASIZE LT PUSH2 0x23D JUMPI PUSH0 CALLDATALOAD PUSH1 0xE0 SHR DUP1 PUSH4 0x6352211E GT PUSH2 0x134 JUMPI DUP1 PUSH4 0xA22CB465 GT PUSH2 0xB3 JUMPI DUP1 PUSH4 0xE8A3D485 GT PUSH2 0x78 JUMPI DUP1 PUSH4 0xE8A3D485 EQ PUSH2 0x661 JUMPI DUP1 PUSH4 0xE985E9C5 EQ PUSH2 0x675 JUMPI DUP1 PUSH4 0xED08FA80 EQ PUSH2 0x6C0 JUMPI DUP1 PUSH4 0xF0DB6753 EQ PUSH2 0x6D4 JUMPI DUP1 PUSH4 0xF0E88E7F EQ PUSH2 0x6F3 JUMPI DUP1 PUSH4 0xF2FDE38B EQ PUSH2 0x712 JUMPI PUSH0 DUP1 REVERT JUMPDEST DUP1 PUSH4 0xA22CB465 EQ PUSH2 0x5A2 JUMPI DUP1 PUSH4 0xB88D4FDE EQ PUSH2 0x5C1 JUMPI DUP1 PUSH4 0xC87B56DD EQ PUSH2 0x5D4 JUMPI DUP1 PUSH4 0xE345E0BC EQ PUSH2 0x5F3 JUMPI DUP1 PUSH4 0xE345F05E EQ PUSH2 0x612 JUMPI PUSH0 DUP1 REVERT JUMPDEST DUP1 PUSH4 0x8CB0A511 GT PUSH2 0xF9 JUMPI DUP1 PUSH4 0x8CB0A511 EQ PUSH2 0x520 JUMPI DUP1 PUSH4 0x8DA5CB5B EQ PUSH2 0x533 JUMPI DUP1 PUSH4 0x95D89B41 EQ PUSH2 0x550 JUMPI DUP1 PUSH4 0x993BEF8D EQ PUSH2 0x564 JUMPI DUP1 PUSH4 0x9CC7F708 EQ PUSH2 0x583 JUMPI PUSH0 DUP1 REVERT JUMPDEST DUP1 PUSH4 0x6352211E EQ PUSH2 0x49B JUMPI DUP1 PUSH4 0x6C0360EB EQ PUSH2 0x4BA JUMPI DUP1 PUSH4 0x70A08231 EQ PUSH2 0x4CE JUMPI DUP1 PUSH4 0x715018A6 EQ PUSH2 0x4ED JUMPI DUP1 PUSH4 0x840F7113 EQ PUSH2 0x501 JUMPI PUSH0 DUP1 REVERT JUMPDEST DUP1 PUSH4 0x263F3E7E GT PUSH2 0x1C0 JUMPI DUP1 PUSH4 0x4F6CCCE7 GT PUSH2 0x185 JUMPI DUP1 PUSH4 0x4F6CCCE7 EQ PUSH2 0x40C JUMPI DUP1 PUSH4 0x4F8A0F83 EQ PUSH2 0x42B JUMPI DUP1 PUSH4 0x55CD4E06 EQ PUSH2 0x44A JUMPI DUP1 PUSH4 0x55F804B3 EQ PUSH2 0x45D JUMPI DUP1 PUSH4 0x5A3C7DA7 EQ PUSH2 0x47C JUMPI PUSH0 DUP1 REVERT JUMPDEST DUP1 PUSH4 0x263F3E7E EQ PUSH2 0x387 JUMPI DUP1 PUSH4 0x2F745C59 EQ PUSH2 0x3A6 JUMPI DUP1 PUSH4 0x310ED7F0 EQ PUSH2 0x3C5 JUMPI DUP1 PUSH4 0x3E7E8669 EQ PUSH2 0x3D8 JUMPI DUP1 PUSH4 0x42842E0E EQ PUSH2 0x3F9 JUMPI PUSH0 DUP1 REVERT JUMPDEST DUP1 PUSH4 0x9C3DD87 GT PUSH2 0x206 JUMPI DUP1 PUSH4 0x9C3DD87 EQ PUSH2 0x30F JUMPI DUP1 PUSH4 0xF485C02 EQ PUSH2 0x32E JUMPI DUP1 PUSH4 0x156E29F6 EQ PUSH2 0x341 JUMPI DUP1 PUSH4 0x18160DDD EQ PUSH2 0x360 JUMPI DUP1 PUSH4 0x23B872DD EQ PUSH2 0x374 JUMPI PUSH0 DUP1 REVERT JUMPDEST DUP1 PUSH3 0xCD0110 EQ PUSH2 0x241 JUMPI DUP1 PUSH4 0x1FFC9A7 EQ PUSH2 0x273 JUMPI DUP1 PUSH4 0x6FDDE03 EQ PUSH2 0x2A2 JUMPI DUP1 PUSH4 0x81812FC EQ PUSH2 0x2C3 JUMPI DUP1 PUSH4 0x95EA7B3 EQ PUSH2 0x2FA JUMPI JUMPDEST PUSH0 DUP1 REVERT JUMPDEST CALLVALUE DUP1 ISZERO PUSH2 0x24C JUMPI PUSH0 DUP1 REVERT JUMPDEST POP PUSH2 0x260 PUSH2 0x25B CALLDATASIZE PUSH1 0x4 PUSH2 0x3290 JUMP JUMPDEST PUSH2 0x731 JUMP JUMPDEST PUSH1 0x40 MLOAD SWAP1 DUP2 MSTORE PUSH1 0x20 ADD JUMPDEST PUSH1 0x40 MLOAD DUP1 SWAP2 SUB SWAP1 RETURN JUMPDEST CALLVALUE DUP1 ISZERO PUSH2 0x27E JUMPI PUSH0 DUP1 REVERT JUMPDEST POP PUSH2 0x292 PUSH2 0x28D CALLDATASIZE PUSH1 0x4 PUSH2 0x32C5 JUMP JUMPDEST PUSH2 0x801 JUMP JUMPDEST PUSH1 0x40 MLOAD SWAP1 ISZERO ISZERO DUP2 MSTORE PUSH1 0x20 ADD PUSH2 0x26A JUMP JUMPDEST CALLVALUE DUP1 ISZERO PUSH2 0x2AD JUMPI PUSH0 DUP1 REVERT JUMPDEST POP PUSH2 0x2B6 PUSH2 0x825 JUMP JUMPDEST PUSH1 0x40 MLOAD PUSH2 0x26A SWAP2 SWAP1 PUSH2 0x332D JUMP JUMPDEST CALLVALUE DUP1 ISZERO PUSH2 0x2CE JUMPI PUSH0 DUP1 REVERT JUMPDEST POP PUSH2 0x2E2 PUSH2 0x2DD CALLDATASIZE PUSH1 0x4 PUSH2 0x333F JUMP JUMPDEST PUSH2 0x8B4 JUMP JUMPDEST PUSH1 0x40 MLOAD PUSH1 0x1 PUSH1 0x1 PUSH1 0xA0 SHL SUB SWAP1 SWAP2 AND DUP2 MSTORE PUSH1 0x20 ADD PUSH2 0x26A JUMP JUMPDEST PUSH2 0x30D PUSH2 0x308 CALLDATASIZE PUSH1 0x4 PUSH2 0x336C JUMP JUMPDEST PUSH2 0x903 JUMP JUMPDEST STOP JUMPDEST CALLVALUE DUP1 ISZERO PUSH2 0x31A JUMPI PUSH0 DUP1 REVERT JUMPDEST POP PUSH2 0x2B6 PUSH2 0x329 CALLDATASIZE PUSH1 0x4 PUSH2 0x333F JUMP JUMPDEST PUSH2 0x9FB JUMP JUMPDEST PUSH2 0x260 PUSH2 0x33C CALLDATASIZE PUSH1 0x4 PUSH2 0x3394 JUMP JUMPDEST PUSH2 0xAD9 JUMP JUMPDEST CALLVALUE DUP1 ISZERO PUSH2 0x34C JUMPI PUSH0 DUP1 REVERT JUMPDEST POP PUSH2 0x30D PUSH2 0x35B CALLDATASIZE PUSH1 0x4 PUSH2 0x33C6 JUMP JUMPDEST PUSH2 0xB0F JUMP JUMPDEST CALLVALUE DUP1 ISZERO PUSH2 0x36B JUMPI PUSH0 DUP1 REVERT JUMPDEST POP PUSH1 0x5 SLOAD PUSH2 0x260 JUMP JUMPDEST PUSH2 0x30D PUSH2 0x382 CALLDATASIZE PUSH1 0x4 PUSH2 0x33F6 JUMP JUMPDEST PUSH2 0xB22 JUMP JUMPDEST CALLVALUE DUP1 ISZERO PUSH2 0x392 JUMPI PUSH0 DUP1 REVERT JUMPDEST POP PUSH2 0x260 PUSH2 0x3A1 CALLDATASIZE PUSH1 0x4 PUSH2 0x333F JUMP JUMPDEST PUSH2 0xB58 JUMP JUMPDEST CALLVALUE DUP1 ISZERO PUSH2 0x3B1 JUMPI PUSH0 DUP1 REVERT JUMPDEST POP PUSH2 0x260 PUSH2 0x3C0 CALLDATASIZE PUSH1 0x4 PUSH2 0x336C JUMP JUMPDEST PUSH2 0xB9C JUMP JUMPDEST PUSH2 0x30D PUSH2 0x3D3 CALLDATASIZE PUSH1 0x4 PUSH2 0x341F JUMP JUMPDEST PUSH2 0xC28 JUMP JUMPDEST CALLVALUE DUP1 ISZERO PUSH2 0x3E3 JUMPI PUSH0 DUP1 REVERT JUMPDEST POP PUSH1 0x2 SLOAD PUSH1 0x40 MLOAD PUSH1 0xFF SWAP1 SWAP2 AND DUP2 MSTORE PUSH1 0x20 ADD PUSH2 0x26A JUMP JUMPDEST PUSH2 0x30D PUSH2 0x407 CALLDATASIZE PUSH1 0x4 PUSH2 0x33F6 JUMP JUMPDEST PUSH2 0xC3E JUMP JUMPDEST CALLVALUE DUP1 ISZERO PUSH2 0x417 JUMPI PUSH0 DUP1 REVERT JUMPDEST POP PUSH2 0x260 PUSH2 0x426 CALLDATASIZE PUSH1 0x4 PUSH2 0x333F JUMP JUMPDEST PUSH2 0xC58 JUMP JUMPDEST CALLVALUE DUP1 ISZERO PUSH2 0x436 JUMPI PUSH0 DUP1 REVERT JUMPDEST POP PUSH2 0x260 PUSH2 0x445 CALLDATASIZE PUSH1 0x4 PUSH2 0x333F JUMP JUMPDEST PUSH2 0xCE5 JUMP JUMPDEST PUSH2 0x30D PUSH2 0x458 CALLDATASIZE PUSH1 0x4 PUSH2 0x3455 JUMP JUMPDEST PUSH2 0xD36 JUMP JUMPDEST CALLVALUE DUP1 ISZERO PUSH2 0x468 JUMPI PUSH0 DUP1 REVERT JUMPDEST POP PUSH2 0x30D PUSH2 0x477 CALLDATASIZE PUSH1 0x4 PUSH2 0x3548 JUMP JUMPDEST PUSH2 0xDD0 JUMP JUMPDEST CALLVALUE DUP1 ISZERO PUSH2 0x487 JUMPI PUSH0 DUP1 REVERT JUMPDEST POP PUSH2 0x260 PUSH2 0x496 CALLDATASIZE PUSH1 0x4 PUSH2 0x333F JUMP JUMPDEST PUSH2 0xDE8 JUMP JUMPDEST CALLVALUE DUP1 ISZERO PUSH2 0x4A6 JUMPI PUSH0 DUP1 REVERT JUMPDEST POP PUSH2 0x2E2 PUSH2 0x4B5 CALLDATASIZE PUSH1 0x4 PUSH2 0x333F JUMP JUMPDEST PUSH2 0xE3D JUMP JUMPDEST CALLVALUE DUP1 ISZERO PUSH2 0x4C5 JUMPI PUSH0 DUP1 REVERT JUMPDEST POP PUSH2 0x2B6 PUSH2 0xED6 JUMP JUMPDEST CALLVALUE DUP1 ISZERO PUSH2 0x4D9 JUMPI PUSH0 DUP1 REVERT JUMPDEST POP PUSH2 0x260 PUSH2 0x4E8 CALLDATASIZE PUSH1 0x4 PUSH2 0x358D JUMP JUMPDEST PUSH2 0xF62 JUMP JUMPDEST CALLVALUE DUP1 ISZERO PUSH2 0x4F8 JUMPI PUSH0 DUP1 REVERT JUMPDEST POP PUSH2 0x30D PUSH2 0xFE8 JUMP JUMPDEST CALLVALUE DUP1 ISZERO PUSH2 0x50C JUMPI PUSH0 DUP1 REVERT JUMPDEST POP PUSH1 0x8 SLOAD PUSH2 0x2E2 SWAP1 PUSH1 0x1 PUSH1 0x1 PUSH1 0xA0 SHL SUB AND DUP2 JUMP JUMPDEST PUSH2 0x30D PUSH2 0x52E CALLDATASIZE PUSH1 0x4 PUSH2 0x3394 JUMP JUMPDEST PUSH2 0xFFB JUMP JUMPDEST CALLVALUE DUP1 ISZERO PUSH2 0x53E JUMPI PUSH0 DUP1 REVERT JUMPDEST POP PUSH1 0xD SLOAD PUSH1 0x1 PUSH1 0x1 PUSH1 0xA0 SHL SUB AND PUSH2 0x2E2 JUMP JUMPDEST CALLVALUE DUP1 ISZERO PUSH2 0x55B JUMPI PUSH0 DUP1 REVERT JUMPDEST POP PUSH2 0x2B6 PUSH2 0x10B3 JUMP JUMPDEST CALLVALUE DUP1 ISZERO PUSH2 0x56F JUMPI PUSH0 DUP1 REVERT JUMPDEST POP PUSH2 0x260 PUSH2 0x57E CALLDATASIZE PUSH1 0x4 PUSH2 0x333F JUMP JUMPDEST PUSH2 0x10C2 JUMP JUMPDEST CALLVALUE DUP1 ISZERO PUSH2 0x58E JUMPI PUSH0 DUP1 REVERT JUMPDEST POP PUSH2 0x260 PUSH2 0x59D CALLDATASIZE PUSH1 0x4 PUSH2 0x333F JUMP JUMPDEST PUSH2 0x115B JUMP JUMPDEST CALLVALUE DUP1 ISZERO PUSH2 0x5AD JUMPI PUSH0 DUP1 REVERT JUMPDEST POP PUSH2 0x30D PUSH2 0x5BC CALLDATASIZE PUSH1 0x4 PUSH2 0x35A6 JUMP JUMPDEST PUSH2 0x119F JUMP JUMPDEST PUSH2 0x30D PUSH2 0x5CF CALLDATASIZE PUSH1 0x4 PUSH2 0x35DB JUMP JUMPDEST PUSH2 0x11AA JUMP JUMPDEST CALLVALUE DUP1 ISZERO PUSH2 0x5DF JUMPI PUSH0 DUP1 REVERT JUMPDEST POP PUSH2 0x2B6 PUSH2 0x5EE CALLDATASIZE PUSH1 0x4 PUSH2 0x333F JUMP JUMPDEST PUSH2 0x11DC JUMP JUMPDEST CALLVALUE DUP1 ISZERO PUSH2 0x5FE JUMPI PUSH0 DUP1 REVERT JUMPDEST POP PUSH2 0x260 PUSH2 0x60D CALLDATASIZE PUSH1 0x4 PUSH2 0x3652 JUMP JUMPDEST PUSH2 0x126B JUMP JUMPDEST CALLVALUE DUP1 ISZERO PUSH2 0x61D JUMPI PUSH0 DUP1 REVERT JUMPDEST POP PUSH2 0x292 PUSH2 0x62C CALLDATASIZE PUSH1 0x4 PUSH2 0x367C JUMP JUMPDEST PUSH1 0x1 PUSH1 0x1 PUSH1 0xA0 SHL SUB SWAP3 DUP4 AND PUSH0 SWAP1 DUP2 MSTORE PUSH1 0xC PUSH1 0x20 SWAP1 DUP2 MSTORE PUSH1 0x40 DUP1 DUP4 KECCAK256 SWAP5 DUP4 MSTORE SWAP4 DUP2 MSTORE DUP4 DUP3 KECCAK256 SWAP3 SWAP1 SWAP5 AND DUP2 MSTORE SWAP3 MSTORE SWAP1 KECCAK256 SLOAD PUSH1 0xFF AND SWAP1 JUMP JUMPDEST CALLVALUE DUP1 ISZERO PUSH2 0x66C JUMPI PUSH0 DUP1 REVERT JUMPDEST POP PUSH2 0x2B6 PUSH2 0x129D JUMP JUMPDEST CALLVALUE DUP1 ISZERO PUSH2 0x680 JUMPI PUSH0 DUP1 REVERT JUMPDEST POP PUSH2 0x292 PUSH2 0x68F CALLDATASIZE PUSH1 0x4 PUSH2 0x36B5 JUMP JUMPDEST PUSH1 0x1 PUSH1 0x1 PUSH1 0xA0 SHL SUB SWAP2 DUP3 AND PUSH0 SWAP1 DUP2 MSTORE PUSH1 0x7 PUSH1 0x20 SWAP1 DUP2 MSTORE PUSH1 0x40 DUP1 DUP4 KECCAK256 SWAP4 SWAP1 SWAP5 AND DUP3 MSTORE PUSH1 0x2 SWAP1 SWAP3 ADD SWAP1 SWAP2 MSTORE KECCAK256 SLOAD PUSH1 0xFF AND SWAP1 JUMP JUMPDEST CALLVALUE DUP1 ISZERO PUSH2 0x6CB JUMPI PUSH0 DUP1 REVERT JUMPDEST POP PUSH1 0xA SLOAD PUSH2 0x260 JUMP JUMPDEST CALLVALUE DUP1 ISZERO PUSH2 0x6DF JUMPI PUSH0 DUP1 REVERT JUMPDEST POP PUSH2 0x260 PUSH2 0x6EE CALLDATASIZE PUSH1 0x4 PUSH2 0x333F JUMP JUMPDEST PUSH2 0x1382 JUMP JUMPDEST CALLVALUE DUP1 ISZERO PUSH2 0x6FE JUMPI PUSH0 DUP1 REVERT JUMPDEST POP PUSH2 0x30D PUSH2 0x70D CALLDATASIZE PUSH1 0x4 PUSH2 0x3290 JUMP JUMPDEST PUSH2 0x14BD JUMP JUMPDEST CALLVALUE DUP1 ISZERO PUSH2 0x71D JUMPI PUSH0 DUP1 REVERT JUMPDEST POP PUSH2 0x30D PUSH2 0x72C CALLDATASIZE PUSH1 0x4 PUSH2 0x358D JUMP JUMPDEST PUSH2 0x14CF JUMP JUMPDEST PUSH0 PUSH2 0x73B DUP4 PUSH2 0xCE5 JUMP JUMPDEST DUP3 LT PUSH2 0x7AC JUMPI PUSH1 0x40 MLOAD PUSH3 0x461BCD PUSH1 0xE5 SHL DUP2 MSTORE PUSH1 0x20 PUSH1 0x4 DUP3 ADD MSTORE PUSH1 0x35 PUSH1 0x24 DUP3 ADD MSTORE PUSH32 0x45524333353235536C6F74456E756D657261626C653A20736C6F7420746F6B65 PUSH1 0x44 DUP3 ADD MSTORE PUSH21 0x6E20696E646578206F7574206F6620626F756E6473 PUSH1 0x58 SHL PUSH1 0x64 DUP3 ADD MSTORE PUSH1 0x84 ADD JUMPDEST PUSH1 0x40 MLOAD DUP1 SWAP2 SUB SWAP1 REVERT JUMPDEST PUSH0 DUP4 DUP2 MSTORE PUSH1 0xB PUSH1 0x20 MSTORE PUSH1 0x40 SWAP1 KECCAK256 SLOAD PUSH1 0xA DUP1 SLOAD SWAP1 SWAP2 SWAP1 DUP2 LT PUSH2 0x7CF JUMPI PUSH2 0x7CF PUSH2 0x36DD JUMP JUMPDEST SWAP1 PUSH0 MSTORE PUSH1 0x20 PUSH0 KECCAK256 SWAP1 PUSH1 0x2 MUL ADD PUSH1 0x1 ADD DUP3 DUP2 SLOAD DUP2 LT PUSH2 0x7EF JUMPI PUSH2 0x7EF PUSH2 0x36DD JUMP JUMPDEST SWAP1 PUSH0 MSTORE PUSH1 0x20 PUSH0 KECCAK256 ADD SLOAD SWAP1 POP JUMPDEST SWAP3 SWAP2 POP POP JUMP JUMPDEST PUSH0 PUSH1 0x1 PUSH1 0x1 PUSH1 0xE0 SHL SUB NOT DUP3 AND PUSH4 0x16D117CB PUSH1 0xE3 SHL EQ DUP1 PUSH2 0x7FB JUMPI POP PUSH2 0x7FB DUP3 PUSH2 0x150C JUMP JUMPDEST PUSH1 0x60 PUSH0 DUP1 SLOAD PUSH2 0x833 SWAP1 PUSH2 0x36F1 JUMP JUMPDEST DUP1 PUSH1 0x1F ADD PUSH1 0x20 DUP1 SWAP2 DIV MUL PUSH1 0x20 ADD PUSH1 0x40 MLOAD SWAP1 DUP2 ADD PUSH1 0x40 MSTORE DUP1 SWAP3 SWAP2 SWAP1 DUP2 DUP2 MSTORE PUSH1 0x20 ADD DUP3 DUP1 SLOAD PUSH2 0x85F SWAP1 PUSH2 0x36F1 JUMP JUMPDEST DUP1 ISZERO PUSH2 0x8AA JUMPI DUP1 PUSH1 0x1F LT PUSH2 0x881 JUMPI PUSH2 0x100 DUP1 DUP4 SLOAD DIV MUL DUP4 MSTORE SWAP2 PUSH1 0x20 ADD SWAP2 PUSH2 0x8AA JUMP JUMPDEST DUP3 ADD SWAP2 SWAP1 PUSH0 MSTORE PUSH1 0x20 PUSH0 KECCAK256 SWAP1 JUMPDEST DUP2 SLOAD DUP2 MSTORE SWAP1 PUSH1 0x1 ADD SWAP1 PUSH1 0x20 ADD DUP1 DUP4 GT PUSH2 0x88D JUMPI DUP3 SWAP1 SUB PUSH1 0x1F AND DUP3 ADD SWAP2 JUMPDEST POP POP POP POP POP SWAP1 POP SWAP1 JUMP JUMPDEST PUSH0 PUSH2 0x8BE DUP3 PUSH2 0x1530 JUMP JUMPDEST PUSH0 DUP3 DUP2 MSTORE PUSH1 0x6 PUSH1 0x20 MSTORE PUSH1 0x40 SWAP1 KECCAK256 SLOAD PUSH1 0x5 DUP1 SLOAD SWAP1 SWAP2 SWAP1 DUP2 LT PUSH2 0x8E1 JUMPI PUSH2 0x8E1 PUSH2 0x36DD JUMP JUMPDEST PUSH0 SWAP2 DUP3 MSTORE PUSH1 0x20 SWAP1 SWAP2 KECCAK256 PUSH1 0x4 PUSH1 0x6 SWAP1 SWAP3 MUL ADD ADD SLOAD PUSH1 0x1 PUSH1 0x1 PUSH1 0xA0 SHL SUB AND SWAP3 SWAP2 POP POP JUMP JUMPDEST PUSH0 PUSH2 0x90D DUP3 PUSH2 0xE3D JUMP JUMPDEST SWAP1 POP PUSH0 PUSH2 0x919 DUP4 PUSH2 0xB58 JUMP JUMPDEST SWAP1 POP DUP2 PUSH1 0x1 PUSH1 0x1 PUSH1 0xA0 SHL SUB AND DUP5 PUSH1 0x1 PUSH1 0x1 PUSH1 0xA0 SHL SUB AND SUB PUSH2 0x94C JUMPI PUSH1 0x40 MLOAD PUSH3 0x461BCD PUSH1 0xE5 SHL DUP2 MSTORE PUSH1 0x4 ADD PUSH2 0x7A3 SWAP1 PUSH2 0x3729 JUMP JUMPDEST CALLER PUSH1 0x1 PUSH1 0x1 PUSH1 0xA0 SHL SUB DUP4 AND EQ DUP1 PUSH2 0x968 JUMPI POP PUSH2 0x968 DUP3 CALLER PUSH2 0x68F JUMP JUMPDEST DUP1 PUSH2 0x979 JUMPI POP PUSH2 0x979 DUP3 DUP3 CALLER PUSH2 0x62C JUMP JUMPDEST PUSH2 0x9EB JUMPI PUSH1 0x40 MLOAD PUSH3 0x461BCD PUSH1 0xE5 SHL DUP2 MSTORE PUSH1 0x20 PUSH1 0x4 DUP3 ADD MSTORE PUSH1 0x3E PUSH1 0x24 DUP3 ADD MSTORE PUSH32 0x455243333532353A20617070726F76652063616C6C6572206973206E6F74206F PUSH1 0x44 DUP3 ADD MSTORE PUSH32 0x776E6572206E6F7220617070726F76656420666F7220616C6C2F736C6F740000 PUSH1 0x64 DUP3 ADD MSTORE PUSH1 0x84 ADD PUSH2 0x7A3 JUMP JUMPDEST PUSH2 0x9F5 DUP5 DUP5 PUSH2 0x1581 JUMP JUMPDEST POP POP POP POP JUMP JUMPDEST PUSH1 0x60 PUSH0 PUSH2 0xA06 PUSH2 0x1616 JUMP JUMPDEST PUSH1 0x8 SLOAD SWAP1 SWAP2 POP PUSH1 0x1 PUSH1 0x1 PUSH1 0xA0 SHL SUB AND PUSH2 0xA64 JUMPI PUSH0 DUP2 MLOAD GT PUSH2 0xA35 JUMPI PUSH1 0x40 MLOAD DUP1 PUSH1 0x20 ADD PUSH1 0x40 MSTORE DUP1 PUSH0 DUP2 MSTORE POP PUSH2 0xAD2 JUMP JUMPDEST DUP1 PUSH2 0xA3F DUP5 PUSH2 0x1625 JUMP JUMPDEST PUSH1 0x40 MLOAD PUSH1 0x20 ADD PUSH2 0xA50 SWAP3 SWAP2 SWAP1 PUSH2 0x376B JUMP JUMPDEST PUSH1 0x40 MLOAD PUSH1 0x20 DUP2 DUP4 SUB SUB DUP2 MSTORE SWAP1 PUSH1 0x40 MSTORE PUSH2 0xAD2 JUMP JUMPDEST PUSH1 0x8 SLOAD PUSH1 0x40 MLOAD PUSH4 0x3601BFC5 PUSH1 0xE1 SHL DUP2 MSTORE PUSH1 0x4 DUP2 ADD DUP6 SWAP1 MSTORE PUSH1 0x1 PUSH1 0x1 PUSH1 0xA0 SHL SUB SWAP1 SWAP2 AND SWAP1 PUSH4 0x6C037F8A SWAP1 PUSH1 0x24 ADD JUMPDEST PUSH0 PUSH1 0x40 MLOAD DUP1 DUP4 SUB DUP2 DUP7 GAS STATICCALL ISZERO DUP1 ISZERO PUSH2 0xAAB JUMPI RETURNDATASIZE PUSH0 DUP1 RETURNDATACOPY RETURNDATASIZE PUSH0 REVERT JUMPDEST POP POP POP POP PUSH1 0x40 MLOAD RETURNDATASIZE PUSH0 DUP3 RETURNDATACOPY PUSH1 0x1F RETURNDATASIZE SWAP1 DUP2 ADD PUSH1 0x1F NOT AND DUP3 ADD PUSH1 0x40 MSTORE PUSH2 0xAD2 SWAP2 SWAP1 DUP2 ADD SWAP1 PUSH2 0x37AA JUMP JUMPDEST SWAP4 SWAP3 POP POP POP JUMP JUMPDEST PUSH0 PUSH2 0xAE5 CALLER DUP6 DUP5 PUSH2 0x16B5 JUMP JUMPDEST PUSH2 0xAEE DUP5 PUSH2 0x1743 JUMP JUMPDEST SWAP1 POP PUSH2 0xB04 DUP4 DUP3 PUSH2 0xAFE DUP8 PUSH2 0xB58 JUMP JUMPDEST PUSH0 PUSH2 0x174C JUMP JUMPDEST PUSH2 0xAD2 DUP5 DUP3 DUP5 PUSH2 0x188C JUMP JUMPDEST PUSH2 0xB17 PUSH2 0x1BCF JUMP JUMPDEST PUSH2 0x9F5 DUP4 DUP4 DUP4 PUSH2 0x1BFC JUMP JUMPDEST PUSH2 0xB2C CALLER DUP3 PUSH2 0x1C13 JUMP JUMPDEST PUSH2 0xB48 JUMPI PUSH1 0x40 MLOAD PUSH3 0x461BCD PUSH1 0xE5 SHL DUP2 MSTORE PUSH1 0x4 ADD PUSH2 0x7A3 SWAP1 PUSH2 0x3813 JUMP JUMPDEST PUSH2 0xB53 DUP4 DUP4 DUP4 PUSH2 0x1CBE JUMP JUMPDEST POP POP POP JUMP JUMPDEST PUSH0 PUSH2 0xB62 DUP3 PUSH2 0x1530 JUMP JUMPDEST PUSH0 DUP3 DUP2 MSTORE PUSH1 0x6 PUSH1 0x20 MSTORE PUSH1 0x40 SWAP1 KECCAK256 SLOAD PUSH1 0x5 DUP1 SLOAD SWAP1 SWAP2 SWAP1 DUP2 LT PUSH2 0xB85 JUMPI PUSH2 0xB85 PUSH2 0x36DD JUMP JUMPDEST SWAP1 PUSH0 MSTORE PUSH1 0x20 PUSH0 KECCAK256 SWAP1 PUSH1 0x6 MUL ADD PUSH1 0x1 ADD SLOAD SWAP1 POP SWAP2 SWAP1 POP JUMP JUMPDEST PUSH0 PUSH2 0xBA6 DUP4 PUSH2 0xF62 JUMP JUMPDEST DUP3 LT PUSH2 0xBFF JUMPI PUSH1 0x40 MLOAD PUSH3 0x461BCD PUSH1 0xE5 SHL DUP2 MSTORE PUSH1 0x20 PUSH1 0x4 DUP3 ADD MSTORE PUSH1 0x22 PUSH1 0x24 DUP3 ADD MSTORE PUSH32 0x455243333532353A206F776E657220696E646578206F7574206F6620626F756E PUSH1 0x44 DUP3 ADD MSTORE PUSH2 0x6473 PUSH1 0xF0 SHL PUSH1 0x64 DUP3 ADD MSTORE PUSH1 0x84 ADD PUSH2 0x7A3 JUMP JUMPDEST PUSH1 0x1 PUSH1 0x1 PUSH1 0xA0 SHL SUB DUP4 AND PUSH0 SWAP1 DUP2 MSTORE PUSH1 0x7 PUSH1 0x20 MSTORE PUSH1 0x40 SWAP1 KECCAK256 DUP1 SLOAD DUP4 SWAP1 DUP2 LT PUSH2 0x7EF JUMPI PUSH2 0x7EF PUSH2 0x36DD JUMP JUMPDEST PUSH2 0xC33 CALLER DUP5 DUP4 PUSH2 0x16B5 JUMP JUMPDEST PUSH2 0xB53 DUP4 DUP4 DUP4 PUSH2 0x188C JUMP JUMPDEST PUSH2 0xB53 DUP4 DUP4 DUP4 PUSH1 0x40 MLOAD DUP1 PUSH1 0x20 ADD PUSH1 0x40 MSTORE DUP1 PUSH0 DUP2 MSTORE POP PUSH2 0x11AA JUMP JUMPDEST PUSH0 PUSH2 0xC62 PUSH1 0x5 SLOAD SWAP1 JUMP JUMPDEST DUP3 LT PUSH2 0xCBC JUMPI PUSH1 0x40 MLOAD PUSH3 0x461BCD PUSH1 0xE5 SHL DUP2 MSTORE PUSH1 0x20 PUSH1 0x4 DUP3 ADD MSTORE PUSH1 0x23 PUSH1 0x24 DUP3 ADD MSTORE PUSH32 0x455243333532353A20676C6F62616C20696E646578206F7574206F6620626F75 PUSH1 0x44 DUP3 ADD MSTORE PUSH3 0x6E6473 PUSH1 0xE8 SHL PUSH1 0x64 DUP3 ADD MSTORE PUSH1 0x84 ADD PUSH2 0x7A3 JUMP JUMPDEST PUSH1 0x5 DUP3 DUP2 SLOAD DUP2 LT PUSH2 0xCCF JUMPI PUSH2 0xCCF PUSH2 0x36DD JUMP JUMPDEST SWAP1 PUSH0 MSTORE PUSH1 0x20 PUSH0 KECCAK256 SWAP1 PUSH1 0x6 MUL ADD PUSH0 ADD SLOAD SWAP1 POP SWAP2 SWAP1 POP JUMP JUMPDEST PUSH0 PUSH2 0xCEF DUP3 PUSH2 0x1E33 JUMP JUMPDEST PUSH2 0xCFA JUMPI POP PUSH0 SWAP2 SWAP1 POP JUMP JUMPDEST PUSH0 DUP3 DUP2 MSTORE PUSH1 0xB PUSH1 0x20 MSTORE PUSH1 0x40 SWAP1 KECCAK256 SLOAD PUSH1 0xA DUP1 SLOAD SWAP1 SWAP2 SWAP1 DUP2 LT PUSH2 0xD1D JUMPI PUSH2 0xD1D PUSH2 0x36DD JUMP JUMPDEST PUSH0 SWAP2 DUP3 MSTORE PUSH1 0x20 SWAP1 SWAP2 KECCAK256 PUSH1 0x1 PUSH1 0x2 SWAP1 SWAP3 MUL ADD ADD SLOAD SWAP3 SWAP2 POP POP JUMP JUMPDEST CALLER PUSH1 0x1 PUSH1 0x1 PUSH1 0xA0 SHL SUB DUP6 AND EQ DUP1 PUSH2 0xD52 JUMPI POP PUSH2 0xD52 DUP5 CALLER PUSH2 0x68F JUMP JUMPDEST PUSH2 0xDC4 JUMPI PUSH1 0x40 MLOAD PUSH3 0x461BCD PUSH1 0xE5 SHL DUP2 MSTORE PUSH1 0x20 PUSH1 0x4 DUP3 ADD MSTORE PUSH1 0x3F PUSH1 0x24 DUP3 ADD MSTORE PUSH32 0x45524333353235536C6F74417070726F7661626C653A2063616C6C6572206973 PUSH1 0x44 DUP3 ADD MSTORE PUSH32 0x206E6F74206F776E6572206E6F7220617070726F76656420666F7220616C6C00 PUSH1 0x64 DUP3 ADD MSTORE PUSH1 0x84 ADD PUSH2 0x7A3 JUMP JUMPDEST PUSH2 0x9F5 DUP5 DUP5 DUP5 DUP5 PUSH2 0x1E7A JUMP JUMPDEST PUSH2 0xDD8 PUSH2 0x1BCF JUMP JUMPDEST PUSH1 0xE PUSH2 0xDE4 DUP3 DUP3 PUSH2 0x38AA JUMP JUMPDEST POP POP JUMP JUMPDEST PUSH0 DUP1 DUP1 JUMPDEST PUSH2 0xDF5 DUP5 PUSH2 0xCE5 JUMP JUMPDEST DUP2 LT ISZERO PUSH2 0xE36 JUMPI PUSH0 PUSH2 0xE07 DUP6 DUP4 PUSH2 0x731 JUMP JUMPDEST SWAP1 POP PUSH0 PUSH2 0xE13 DUP3 PUSH2 0x115B JUMP JUMPDEST SWAP1 POP PUSH2 0xE1F DUP2 DUP6 PUSH2 0x397A JUMP JUMPDEST SWAP4 POP POP POP DUP1 DUP1 PUSH2 0xE2E SWAP1 PUSH2 0x398D JUMP JUMPDEST SWAP2 POP POP PUSH2 0xDEC JUMP JUMPDEST POP SWAP3 SWAP2 POP POP JUMP JUMPDEST PUSH0 PUSH2 0xE47 DUP3 PUSH2 0x1530 JUMP JUMPDEST PUSH0 DUP3 DUP2 MSTORE PUSH1 0x6 PUSH1 0x20 MSTORE PUSH1 0x40 SWAP1 KECCAK256 SLOAD PUSH1 0x5 DUP1 SLOAD SWAP1 SWAP2 SWAP1 DUP2 LT PUSH2 0xE6A JUMPI PUSH2 0xE6A PUSH2 0x36DD JUMP JUMPDEST PUSH0 SWAP2 DUP3 MSTORE PUSH1 0x20 SWAP1 SWAP2 KECCAK256 PUSH1 0x3 PUSH1 0x6 SWAP1 SWAP3 MUL ADD ADD SLOAD PUSH1 0x1 PUSH1 0x1 PUSH1 0xA0 SHL SUB AND SWAP1 POP DUP1 PUSH2 0xED1 JUMPI PUSH1 0x40 MLOAD PUSH3 0x461BCD PUSH1 0xE5 SHL DUP2 MSTORE PUSH1 0x20 PUSH1 0x4 DUP3 ADD MSTORE PUSH1 0x19 PUSH1 0x24 DUP3 ADD MSTORE PUSH25 0x115490CCCD4C8D4E881A5B9D985B1A59081D1BDAD95B881251 PUSH1 0x3A SHL PUSH1 0x44 DUP3 ADD MSTORE PUSH1 0x64 ADD PUSH2 0x7A3 JUMP JUMPDEST SWAP2 SWAP1 POP JUMP JUMPDEST PUSH1 0xE DUP1 SLOAD PUSH2 0xEE3 SWAP1 PUSH2 0x36F1 JUMP JUMPDEST DUP1 PUSH1 0x1F ADD PUSH1 0x20 DUP1 SWAP2 DIV MUL PUSH1 0x20 ADD PUSH1 0x40 MLOAD SWAP1 DUP2 ADD PUSH1 0x40 MSTORE DUP1 SWAP3 SWAP2 SWAP1 DUP2 DUP2 MSTORE PUSH1 0x20 ADD DUP3 DUP1 SLOAD PUSH2 0xF0F SWAP1 PUSH2 0x36F1 JUMP JUMPDEST DUP1 ISZERO PUSH2 0xF5A JUMPI DUP1 PUSH1 0x1F LT PUSH2 0xF31 JUMPI PUSH2 0x100 DUP1 DUP4 SLOAD DIV MUL DUP4 MSTORE SWAP2 PUSH1 0x20 ADD SWAP2 PUSH2 0xF5A JUMP JUMPDEST DUP3 ADD SWAP2 SWAP1 PUSH0 MSTORE PUSH1 0x20 PUSH0 KECCAK256 SWAP1 JUMPDEST DUP2 SLOAD DUP2 MSTORE SWAP1 PUSH1 0x1 ADD SWAP1 PUSH1 0x20 ADD DUP1 DUP4 GT PUSH2 0xF3D JUMPI DUP3 SWAP1 SUB PUSH1 0x1F AND DUP3 ADD SWAP2 JUMPDEST POP POP POP POP POP DUP2 JUMP JUMPDEST PUSH0 PUSH1 0x1 PUSH1 0x1 PUSH1 0xA0 SHL SUB DUP3 AND PUSH2 0xFCD JUMPI PUSH1 0x40 MLOAD PUSH3 0x461BCD PUSH1 0xE5 SHL DUP2 MSTORE PUSH1 0x20 PUSH1 0x4 DUP3 ADD MSTORE PUSH1 0x2B PUSH1 0x24 DUP3 ADD MSTORE PUSH32 0x455243333532353A2062616C616E636520717565727920666F7220746865207A PUSH1 0x44 DUP3 ADD MSTORE PUSH11 0x65726F2061646472657373 PUSH1 0xA8 SHL PUSH1 0x64 DUP3 ADD MSTORE PUSH1 0x84 ADD PUSH2 0x7A3 JUMP JUMPDEST POP PUSH1 0x1 PUSH1 0x1 PUSH1 0xA0 SHL SUB AND PUSH0 SWAP1 DUP2 MSTORE PUSH1 0x7 PUSH1 0x20 MSTORE PUSH1 0x40 SWAP1 KECCAK256 SLOAD SWAP1 JUMP JUMPDEST PUSH2 0xFF0 PUSH2 0x1BCF JUMP JUMPDEST PUSH2 0xFF9 PUSH0 PUSH2 0x1F63 JUMP JUMPDEST JUMP JUMPDEST PUSH0 PUSH2 0x1005 DUP5 PUSH2 0xE3D JUMP JUMPDEST SWAP1 POP DUP1 PUSH1 0x1 PUSH1 0x1 PUSH1 0xA0 SHL SUB AND DUP4 PUSH1 0x1 PUSH1 0x1 PUSH1 0xA0 SHL SUB AND SUB PUSH2 0x1038 JUMPI PUSH1 0x40 MLOAD PUSH3 0x461BCD PUSH1 0xE5 SHL DUP2 MSTORE PUSH1 0x4 ADD PUSH2 0x7A3 SWAP1 PUSH2 0x3729 JUMP JUMPDEST PUSH2 0x1042 CALLER DUP6 PUSH2 0x1C13 JUMP JUMPDEST PUSH2 0x10A8 JUMPI PUSH1 0x40 MLOAD PUSH3 0x461BCD PUSH1 0xE5 SHL DUP2 MSTORE PUSH1 0x20 PUSH1 0x4 DUP3 ADD MSTORE PUSH1 0x31 PUSH1 0x24 DUP3 ADD MSTORE PUSH32 0x455243333532353A20617070726F76652063616C6C6572206973206E6F74206F PUSH1 0x44 DUP3 ADD MSTORE PUSH17 0x1DDB995C881B9BDC88185C1C1C9BDD9959 PUSH1 0x7A SHL PUSH1 0x64 DUP3 ADD MSTORE PUSH1 0x84 ADD PUSH2 0x7A3 JUMP JUMPDEST PUSH2 0x9F5 DUP5 DUP5 DUP5 PUSH2 0x1FB4 JUMP JUMPDEST PUSH1 0x60 PUSH1 0x1 DUP1 SLOAD PUSH2 0x833 SWAP1 PUSH2 0x36F1 JUMP JUMPDEST PUSH0 PUSH2 0x10CC PUSH1 0xA SLOAD SWAP1 JUMP JUMPDEST DUP3 LT PUSH2 0x1132 JUMPI PUSH1 0x40 MLOAD PUSH3 0x461BCD PUSH1 0xE5 SHL DUP2 MSTORE PUSH1 0x20 PUSH1 0x4 DUP3 ADD MSTORE PUSH1 0x2F PUSH1 0x24 DUP3 ADD MSTORE PUSH32 0x45524333353235536C6F74456E756D657261626C653A20736C6F7420696E6465 PUSH1 0x44 DUP3 ADD MSTORE PUSH15 0x78206F7574206F6620626F756E6473 PUSH1 0x88 SHL PUSH1 0x64 DUP3 ADD MSTORE PUSH1 0x84 ADD PUSH2 0x7A3 JUMP JUMPDEST PUSH1 0xA DUP3 DUP2 SLOAD DUP2 LT PUSH2 0x1145 JUMPI PUSH2 0x1145 PUSH2 0x36DD JUMP JUMPDEST SWAP1 PUSH0 MSTORE PUSH1 0x20 PUSH0 KECCAK256 SWAP1 PUSH1 0x2 MUL ADD PUSH0 ADD SLOAD SWAP1 POP SWAP2 SWAP1 POP JUMP JUMPDEST PUSH0 PUSH2 0x1165 DUP3 PUSH2 0x1530 JUMP JUMPDEST PUSH0 DUP3 DUP2 MSTORE PUSH1 0x6 PUSH1 0x20 MSTORE PUSH1 0x40 SWAP1 KECCAK256 SLOAD PUSH1 0x5 DUP1 SLOAD SWAP1 SWAP2 SWAP1 DUP2 LT PUSH2 0x1188 JUMPI PUSH2 0x1188 PUSH2 0x36DD JUMP JUMPDEST SWAP1 PUSH0 MSTORE PUSH1 0x20 PUSH0 KECCAK256 SWAP1 PUSH1 0x6 MUL ADD PUSH1 0x2 ADD SLOAD SWAP1 POP SWAP2 SWAP1 POP JUMP JUMPDEST PUSH2 0xDE4 CALLER DUP4 DUP4 PUSH2 0x20E9 JUMP JUMPDEST PUSH2 0x11B4 CALLER DUP4 PUSH2 0x1C13 JUMP JUMPDEST PUSH2 0x11D0 JUMPI PUSH1 0x40 MLOAD PUSH3 0x461BCD PUSH1 0xE5 SHL DUP2 MSTORE PUSH1 0x4 ADD PUSH2 0x7A3 SWAP1 PUSH2 0x3813 JUMP JUMPDEST PUSH2 0x9F5 DUP5 DUP5 DUP5 DUP5 PUSH2 0x21B2 JUMP JUMPDEST PUSH1 0x60 PUSH2 0x11E7 DUP3 PUSH2 0x1530 JUMP JUMPDEST PUSH0 PUSH2 0x11F0 PUSH2 0x1616 JUMP JUMPDEST PUSH1 0x8 SLOAD SWAP1 SWAP2 POP PUSH1 0x1 PUSH1 0x1 PUSH1 0xA0 SHL SUB AND PUSH2 0x123A JUMPI PUSH0 DUP2 MLOAD GT PUSH2 0x121F JUMPI PUSH1 0x40 MLOAD DUP1 PUSH1 0x20 ADD PUSH1 0x40 MSTORE DUP1 PUSH0 DUP2 MSTORE POP PUSH2 0xAD2 JUMP JUMPDEST DUP1 PUSH2 0x1229 DUP5 PUSH2 0x1625 JUMP JUMPDEST PUSH1 0x40 MLOAD PUSH1 0x20 ADD PUSH2 0xA50 SWAP3 SWAP2 SWAP1 PUSH2 0x39A5 JUMP JUMPDEST PUSH1 0x8 SLOAD PUSH1 0x40 MLOAD PUSH4 0x44A5A617 PUSH1 0xE1 SHL DUP2 MSTORE PUSH1 0x4 DUP2 ADD DUP6 SWAP1 MSTORE PUSH1 0x1 PUSH1 0x1 PUSH1 0xA0 SHL SUB SWAP1 SWAP2 AND SWAP1 PUSH4 0x894B4C2E SWAP1 PUSH1 0x24 ADD PUSH2 0xA91 JUMP JUMPDEST PUSH0 PUSH2 0x1275 DUP4 PUSH2 0x1530 JUMP JUMPDEST POP PUSH0 SWAP2 DUP3 MSTORE PUSH1 0x4 PUSH1 0x20 SWAP1 DUP2 MSTORE PUSH1 0x40 DUP1 DUP5 KECCAK256 PUSH1 0x1 PUSH1 0x1 PUSH1 0xA0 SHL SUB SWAP4 SWAP1 SWAP4 AND DUP5 MSTORE SWAP2 SWAP1 MSTORE SWAP1 KECCAK256 SLOAD SWAP1 JUMP JUMPDEST PUSH1 0x60 PUSH0 PUSH2 0x12A8 PUSH2 0x1616 JUMP JUMPDEST PUSH1 0x8 SLOAD SWAP1 SWAP2 POP PUSH1 0x1 PUSH1 0x1 PUSH1 0xA0 SHL SUB AND PUSH2 0x1306 JUMPI PUSH0 DUP2 MLOAD GT PUSH2 0x12D7 JUMPI PUSH1 0x40 MLOAD DUP1 PUSH1 0x20 ADD PUSH1 0x40 MSTORE DUP1 PUSH0 DUP2 MSTORE POP PUSH2 0x137C JUMP JUMPDEST DUP1 PUSH2 0x12E1 ADDRESS PUSH2 0x2225 JUMP JUMPDEST PUSH1 0x40 MLOAD PUSH1 0x20 ADD PUSH2 0x12F2 SWAP3 SWAP2 SWAP1 PUSH2 0x39D3 JUMP JUMPDEST PUSH1 0x40 MLOAD PUSH1 0x20 DUP2 DUP4 SUB SUB DUP2 MSTORE SWAP1 PUSH1 0x40 MSTORE PUSH2 0x137C JUMP JUMPDEST PUSH1 0x8 PUSH0 SWAP1 SLOAD SWAP1 PUSH2 0x100 EXP SWAP1 DIV PUSH1 0x1 PUSH1 0x1 PUSH1 0xA0 SHL SUB AND PUSH1 0x1 PUSH1 0x1 PUSH1 0xA0 SHL SUB AND PUSH4 0x725FA09C PUSH1 0x40 MLOAD DUP2 PUSH4 0xFFFFFFFF AND PUSH1 0xE0 SHL DUP2 MSTORE PUSH1 0x4 ADD PUSH0 PUSH1 0x40 MLOAD DUP1 DUP4 SUB DUP2 DUP7 GAS STATICCALL ISZERO DUP1 ISZERO PUSH2 0x1355 JUMPI RETURNDATASIZE PUSH0 DUP1 RETURNDATACOPY RETURNDATASIZE PUSH0 REVERT JUMPDEST POP POP POP POP PUSH1 0x40 MLOAD RETURNDATASIZE PUSH0 DUP3 RETURNDATACOPY PUSH1 0x1F RETURNDATASIZE SWAP1 DUP2 ADD PUSH1 0x1F NOT AND DUP3 ADD PUSH1 0x40 MSTORE PUSH2 0x137C SWAP2 SWAP1 DUP2 ADD SWAP1 PUSH2 0x37AA JUMP JUMPDEST SWAP2 POP POP SWAP1 JUMP JUMPDEST PUSH0 DUP1 PUSH2 0x1396 PUSH1 0xD SLOAD PUSH1 0x1 PUSH1 0x1 PUSH1 0xA0 SHL SUB AND SWAP1 JUMP JUMPDEST SWAP1 POP PUSH0 DUP2 PUSH1 0x1 PUSH1 0x1 PUSH1 0xA0 SHL SUB AND PUSH4 0x13D18A24 PUSH1 0x40 MLOAD DUP2 PUSH4 0xFFFFFFFF AND PUSH1 0xE0 SHL DUP2 MSTORE PUSH1 0x4 ADD PUSH1 0x20 PUSH1 0x40 MLOAD DUP1 DUP4 SUB DUP2 DUP7 GAS STATICCALL ISZERO DUP1 ISZERO PUSH2 0x13D5 JUMPI RETURNDATASIZE PUSH0 DUP1 RETURNDATACOPY RETURNDATASIZE PUSH0 REVERT JUMPDEST POP POP POP POP PUSH1 0x40 MLOAD RETURNDATASIZE PUSH1 0x1F NOT PUSH1 0x1F DUP3 ADD AND DUP3 ADD DUP1 PUSH1 0x40 MSTORE POP DUP2 ADD SWAP1 PUSH2 0x13F9 SWAP2 SWAP1 PUSH2 0x3A16 JUMP JUMPDEST SWAP1 POP DUP1 PUSH2 0x1405 DUP6 PUSH2 0xB58 JUMP JUMPDEST EQ PUSH2 0x1448 JUMPI PUSH1 0x40 MLOAD PUSH3 0x461BCD PUSH1 0xE5 SHL DUP2 MSTORE PUSH1 0x20 PUSH1 0x4 DUP3 ADD MSTORE PUSH1 0x13 PUSH1 0x24 DUP3 ADD MSTORE PUSH19 0x139BC81B585D18DA081CDA185C99481CDB1BDD PUSH1 0x6A SHL PUSH1 0x44 DUP3 ADD MSTORE PUSH1 0x64 ADD PUSH2 0x7A3 JUMP JUMPDEST PUSH1 0x40 MLOAD PUSH4 0x17047263 PUSH1 0xE1 SHL DUP2 MSTORE ADDRESS PUSH1 0x4 DUP3 ADD MSTORE PUSH1 0x24 DUP2 ADD DUP6 SWAP1 MSTORE PUSH1 0x1 PUSH1 0x1 PUSH1 0xA0 SHL SUB DUP4 AND SWAP1 PUSH4 0x2E08E4C6 SWAP1 PUSH1 0x44 ADD PUSH1 0x20 PUSH1 0x40 MLOAD DUP1 DUP4 SUB DUP2 DUP7 GAS STATICCALL ISZERO DUP1 ISZERO PUSH2 0x1491 JUMPI RETURNDATASIZE PUSH0 DUP1 RETURNDATACOPY RETURNDATASIZE PUSH0 REVERT JUMPDEST POP POP POP POP PUSH1 0x40 MLOAD RETURNDATASIZE PUSH1 0x1F NOT PUSH1 0x1F DUP3 ADD AND DUP3 ADD DUP1 PUSH1 0x40 MSTORE POP DUP2 ADD SWAP1 PUSH2 0x14B5 SWAP2 SWAP1 PUSH2 0x3A16 JUMP JUMPDEST SWAP5 SWAP4 POP POP POP POP JUMP JUMPDEST PUSH2 0x14C5 PUSH2 0x1BCF JUMP JUMPDEST PUSH2 0xDE4 DUP3 DUP3 PUSH2 0x223B JUMP JUMPDEST PUSH2 0x14D7 PUSH2 0x1BCF JUMP JUMPDEST PUSH1 0x1 PUSH1 0x1 PUSH1 0xA0 SHL SUB DUP2 AND PUSH2 0x1500 JUMPI PUSH1 0x40 MLOAD PUSH4 0x1E4FBDF7 PUSH1 0xE0 SHL DUP2 MSTORE PUSH0 PUSH1 0x4 DUP3 ADD MSTORE PUSH1 0x24 ADD PUSH2 0x7A3 JUMP JUMPDEST PUSH2 0x1509 DUP2 PUSH2 0x1F63 JUMP JUMPDEST POP JUMP JUMPDEST PUSH0 PUSH1 0x1 PUSH1 0x1 PUSH1 0xE0 SHL SUB NOT DUP3 AND PUSH4 0x1DBA0DCF PUSH1 0xE1 SHL EQ DUP1 PUSH2 0x7FB JUMPI POP PUSH2 0x7FB DUP3 PUSH2 0x2279 JUMP JUMPDEST PUSH2 0x1539 DUP2 PUSH2 0x231A JUMP JUMPDEST PUSH2 0x1509 JUMPI PUSH1 0x40 MLOAD PUSH3 0x461BCD PUSH1 0xE5 SHL DUP2 MSTORE PUSH1 0x20 PUSH1 0x4 DUP3 ADD MSTORE PUSH1 0x19 PUSH1 0x24 DUP3 ADD MSTORE PUSH25 0x115490CCCD4C8D4E881A5B9D985B1A59081D1BDAD95B881251 PUSH1 0x3A SHL PUSH1 0x44 DUP3 ADD MSTORE PUSH1 0x64 ADD PUSH2 0x7A3 JUMP JUMPDEST PUSH0 DUP2 DUP2 MSTORE PUSH1 0x6 PUSH1 0x20 MSTORE PUSH1 0x40 SWAP1 KECCAK256 SLOAD PUSH1 0x5 DUP1 SLOAD DUP5 SWAP3 SWAP1 DUP2 LT PUSH2 0x15A4 JUMPI PUSH2 0x15A4 PUSH2 0x36DD JUMP JUMPDEST PUSH0 SWAP2 DUP3 MSTORE PUSH1 0x20 SWAP1 SWAP2 KECCAK256 PUSH1 0x6 SWAP1 SWAP2 MUL ADD PUSH1 0x4 ADD DUP1 SLOAD PUSH1 0x1 PUSH1 0x1 PUSH1 0xA0 SHL SUB NOT AND PUSH1 0x1 PUSH1 0x1 PUSH1 0xA0 SHL SUB SWAP3 DUP4 AND OR SWAP1 SSTORE DUP2 SWAP1 DUP4 AND PUSH2 0x15DD DUP3 PUSH2 0xE3D JUMP JUMPDEST PUSH1 0x1 PUSH1 0x1 PUSH1 0xA0 SHL SUB AND PUSH32 0x8C5BE1E5EBEC7D5BD14F71427D1E84F3DD0314C0F7B2291E5B200AC8C7C3B925 PUSH1 0x40 MLOAD PUSH1 0x40 MLOAD DUP1 SWAP2 SUB SWAP1 LOG4 POP POP JUMP JUMPDEST PUSH1 0x60 PUSH1 0xE DUP1 SLOAD PUSH2 0x833 SWAP1 PUSH2 0x36F1 JUMP JUMPDEST PUSH1 0x60 PUSH0 PUSH2 0x1631 DUP4 PUSH2 0x2361 JUMP JUMPDEST PUSH1 0x1 ADD SWAP1 POP PUSH0 DUP2 PUSH8 0xFFFFFFFFFFFFFFFF DUP2 GT ISZERO PUSH2 0x1650 JUMPI PUSH2 0x1650 PUSH2 0x34A1 JUMP JUMPDEST PUSH1 0x40 MLOAD SWAP1 DUP1 DUP3 MSTORE DUP1 PUSH1 0x1F ADD PUSH1 0x1F NOT AND PUSH1 0x20 ADD DUP3 ADD PUSH1 0x40 MSTORE DUP1 ISZERO PUSH2 0x167A JUMPI PUSH1 0x20 DUP3 ADD DUP2 DUP1 CALLDATASIZE DUP4 CALLDATACOPY ADD SWAP1 POP JUMPDEST POP SWAP1 POP DUP2 DUP2 ADD PUSH1 0x20 ADD JUMPDEST PUSH0 NOT ADD PUSH16 0x181899199A1A9B1B9C1CB0B131B232B3 PUSH1 0x81 SHL PUSH1 0xA DUP7 MOD BYTE DUP2 MSTORE8 PUSH1 0xA DUP6 DIV SWAP5 POP DUP5 PUSH2 0x1684 JUMPI POP SWAP4 SWAP3 POP POP POP JUMP JUMPDEST PUSH0 PUSH2 0x16C0 DUP4 DUP6 PUSH2 0x126B JUMP JUMPDEST SWAP1 POP PUSH2 0x16CC DUP5 DUP5 PUSH2 0x1C13 JUMP JUMPDEST ISZERO DUP1 ISZERO PUSH2 0x16DA JUMPI POP PUSH0 NOT DUP2 EQ ISZERO JUMPDEST ISZERO PUSH2 0x9F5 JUMPI DUP2 DUP2 LT ISZERO PUSH2 0x172F JUMPI PUSH1 0x40 MLOAD PUSH3 0x461BCD PUSH1 0xE5 SHL DUP2 MSTORE PUSH1 0x20 PUSH1 0x4 DUP3 ADD MSTORE PUSH1 0x1F PUSH1 0x24 DUP3 ADD MSTORE PUSH32 0x455243333532353A20696E73756666696369656E7420616C6C6F77616E636500 PUSH1 0x44 DUP3 ADD MSTORE PUSH1 0x64 ADD PUSH2 0x7A3 JUMP JUMPDEST PUSH2 0x9F5 DUP4 DUP6 PUSH2 0x173E DUP6 DUP6 PUSH2 0x3A2D JUMP JUMPDEST PUSH2 0x1FB4 JUMP JUMPDEST PUSH0 PUSH2 0x7FB PUSH2 0x2438 JUMP JUMPDEST PUSH1 0x1 PUSH1 0x1 PUSH1 0xA0 SHL SUB DUP5 AND PUSH2 0x17AC JUMPI PUSH1 0x40 MLOAD PUSH3 0x461BCD PUSH1 0xE5 SHL DUP2 MSTORE PUSH1 0x20 PUSH1 0x4 DUP3 ADD MSTORE PUSH1 0x21 PUSH1 0x24 DUP3 ADD MSTORE PUSH32 0x455243333532353A206D696E7420746F20746865207A65726F20616464726573 PUSH1 0x44 DUP3 ADD MSTORE PUSH1 0x73 PUSH1 0xF8 SHL PUSH1 0x64 DUP3 ADD MSTORE PUSH1 0x84 ADD PUSH2 0x7A3 JUMP JUMPDEST DUP3 PUSH0 SUB PUSH2 0x1805 JUMPI PUSH1 0x40 MLOAD PUSH3 0x461BCD PUSH1 0xE5 SHL DUP2 MSTORE PUSH1 0x20 PUSH1 0x4 DUP3 ADD MSTORE PUSH1 0x21 PUSH1 0x24 DUP3 ADD MSTORE PUSH32 0x455243333532353A2063616E6E6F74206D696E74207A65726F20746F6B656E49 PUSH1 0x44 DUP3 ADD MSTORE PUSH1 0x19 PUSH1 0xFA SHL PUSH1 0x64 DUP3 ADD MSTORE PUSH1 0x84 ADD PUSH2 0x7A3 JUMP JUMPDEST PUSH2 0x180E DUP4 PUSH2 0x231A JUMP JUMPDEST ISZERO PUSH2 0x185B JUMPI PUSH1 0x40 MLOAD PUSH3 0x461BCD PUSH1 0xE5 SHL DUP2 MSTORE PUSH1 0x20 PUSH1 0x4 DUP3 ADD MSTORE PUSH1 0x1D PUSH1 0x24 DUP3 ADD MSTORE PUSH32 0x455243333532353A20746F6B656E20616C7265616479206D696E746564000000 PUSH1 0x44 DUP3 ADD MSTORE PUSH1 0x64 ADD PUSH2 0x7A3 JUMP JUMPDEST PUSH2 0x1869 PUSH0 DUP6 PUSH0 DUP7 DUP7 DUP7 PUSH2 0x2451 JUMP JUMPDEST PUSH2 0x1874 DUP5 DUP5 DUP5 PUSH2 0x248E JUMP JUMPDEST PUSH2 0x187E DUP4 DUP3 PUSH2 0x2551 JUMP JUMPDEST PUSH2 0x9F5 PUSH0 DUP6 PUSH0 DUP7 DUP7 DUP7 PUSH2 0x25D1 JUMP JUMPDEST PUSH2 0x1895 DUP4 PUSH2 0x231A JUMP JUMPDEST PUSH2 0x18F1 JUMPI PUSH1 0x40 MLOAD PUSH3 0x461BCD PUSH1 0xE5 SHL DUP2 MSTORE PUSH1 0x20 PUSH1 0x4 DUP3 ADD MSTORE PUSH1 0x27 PUSH1 0x24 DUP3 ADD MSTORE PUSH32 0x455243333532353A207472616E736665722066726F6D20696E76616C69642074 PUSH1 0x44 DUP3 ADD MSTORE PUSH7 0x1BDAD95B881251 PUSH1 0xCA SHL PUSH1 0x64 DUP3 ADD MSTORE PUSH1 0x84 ADD PUSH2 0x7A3 JUMP JUMPDEST PUSH2 0x18FA DUP3 PUSH2 0x231A JUMP JUMPDEST PUSH2 0x1954 JUMPI PUSH1 0x40 MLOAD PUSH3 0x461BCD PUSH1 0xE5 SHL DUP2 MSTORE PUSH1 0x20 PUSH1 0x4 DUP3 ADD MSTORE PUSH1 0x25 PUSH1 0x24 DUP3 ADD MSTORE PUSH32 0x455243333532353A207472616E7366657220746F20696E76616C696420746F6B PUSH1 0x44 DUP3 ADD MSTORE PUSH5 0x195B881251 PUSH1 0xDA SHL PUSH1 0x64 DUP3 ADD MSTORE PUSH1 0x84 ADD PUSH2 0x7A3 JUMP JUMPDEST PUSH0 DUP4 DUP2 MSTORE PUSH1 0x6 PUSH1 0x20 MSTORE PUSH1 0x40 DUP2 KECCAK256 SLOAD PUSH1 0x5 DUP1 SLOAD SWAP1 SWAP2 SWAP1 DUP2 LT PUSH2 0x1977 JUMPI PUSH2 0x1977 PUSH2 0x36DD JUMP JUMPDEST SWAP1 PUSH0 MSTORE PUSH1 0x20 PUSH0 KECCAK256 SWAP1 PUSH1 0x6 MUL ADD SWAP1 POP PUSH0 PUSH1 0x5 PUSH1 0x6 PUSH0 DUP7 DUP2 MSTORE PUSH1 0x20 ADD SWAP1 DUP2 MSTORE PUSH1 0x20 ADD PUSH0 KECCAK256 SLOAD DUP2 SLOAD DUP2 LT PUSH2 0x19AA JUMPI PUSH2 0x19AA PUSH2 0x36DD JUMP JUMPDEST SWAP1 PUSH0 MSTORE PUSH1 0x20 PUSH0 KECCAK256 SWAP1 PUSH1 0x6 MUL ADD SWAP1 POP DUP3 DUP3 PUSH1 0x2 ADD SLOAD LT ISZERO PUSH2 0x1A1F JUMPI PUSH1 0x40 MLOAD PUSH3 0x461BCD PUSH1 0xE5 SHL DUP2 MSTORE PUSH1 0x20 PUSH1 0x4 DUP3 ADD MSTORE PUSH1 0x2A PUSH1 0x24 DUP3 ADD MSTORE PUSH32 0x455243333532353A20696E73756666696369656E742062616C616E636520666F PUSH1 0x44 DUP3 ADD MSTORE PUSH10 0x39103A3930B739B332B9 PUSH1 0xB1 SHL PUSH1 0x64 DUP3 ADD MSTORE PUSH1 0x84 ADD PUSH2 0x7A3 JUMP JUMPDEST DUP1 PUSH1 0x1 ADD SLOAD DUP3 PUSH1 0x1 ADD SLOAD EQ PUSH2 0x1A8D JUMPI PUSH1 0x40 MLOAD PUSH3 0x461BCD PUSH1 0xE5 SHL DUP2 MSTORE PUSH1 0x20 PUSH1 0x4 DUP3 ADD MSTORE PUSH1 0x2E PUSH1 0x24 DUP3 ADD MSTORE PUSH32 0x455243333532353A207472616E7366657220746F20746F6B656E207769746820 PUSH1 0x44 DUP3 ADD MSTORE PUSH14 0x191A5999995C995B9D081CDB1BDD PUSH1 0x92 SHL PUSH1 0x64 DUP3 ADD MSTORE PUSH1 0x84 ADD PUSH2 0x7A3 JUMP JUMPDEST PUSH1 0x3 DUP1 DUP4 ADD SLOAD SWAP1 DUP3 ADD SLOAD PUSH1 0x1 DUP5 ADD SLOAD PUSH2 0x1AB8 SWAP3 PUSH1 0x1 PUSH1 0x1 PUSH1 0xA0 SHL SUB SWAP1 DUP2 AND SWAP3 AND SWAP1 DUP9 SWAP1 DUP9 SWAP1 DUP9 PUSH2 0x2451 JUMP JUMPDEST DUP3 DUP3 PUSH1 0x2 ADD PUSH0 DUP3 DUP3 SLOAD PUSH2 0x1ACB SWAP2 SWAP1 PUSH2 0x3A2D JUMP JUMPDEST SWAP3 POP POP DUP2 SWAP1 SSTORE POP DUP3 DUP2 PUSH1 0x2 ADD PUSH0 DUP3 DUP3 SLOAD PUSH2 0x1AE5 SWAP2 SWAP1 PUSH2 0x397A JUMP JUMPDEST SWAP1 SWAP2 SSTORE POP POP PUSH1 0x40 MLOAD DUP4 DUP2 MSTORE DUP5 SWAP1 DUP7 SWAP1 PUSH32 0xB2AAC84F3EC956911FD78EAE5311062972FF949F38412E8DA39069D9F068CC6 SWAP1 PUSH1 0x20 ADD PUSH1 0x40 MLOAD DUP1 SWAP2 SUB SWAP1 LOG3 PUSH1 0x3 DUP1 DUP4 ADD SLOAD SWAP1 DUP3 ADD SLOAD PUSH1 0x1 DUP5 ADD SLOAD PUSH2 0x1B4C SWAP3 PUSH1 0x1 PUSH1 0x1 PUSH1 0xA0 SHL SUB SWAP1 DUP2 AND SWAP3 AND SWAP1 DUP9 SWAP1 DUP9 SWAP1 DUP9 PUSH2 0x25D1 JUMP JUMPDEST PUSH2 0x1B66 DUP6 DUP6 DUP6 PUSH1 0x40 MLOAD DUP1 PUSH1 0x20 ADD PUSH1 0x40 MSTORE DUP1 PUSH0 DUP2 MSTORE POP PUSH2 0x2642 JUMP JUMPDEST PUSH2 0x1BC8 JUMPI PUSH1 0x40 MLOAD PUSH3 0x461BCD PUSH1 0xE5 SHL DUP2 MSTORE PUSH1 0x20 PUSH1 0x4 DUP3 ADD MSTORE PUSH1 0x2D PUSH1 0x24 DUP3 ADD MSTORE PUSH32 0x455243333532353A207472616E736665722072656A6563746564206279204552 PUSH1 0x44 DUP3 ADD MSTORE PUSH13 0x21999A991AA932B1B2B4BB32B9 PUSH1 0x99 SHL PUSH1 0x64 DUP3 ADD MSTORE PUSH1 0x84 ADD PUSH2 0x7A3 JUMP JUMPDEST POP POP POP POP POP JUMP JUMPDEST PUSH1 0xD SLOAD PUSH1 0x1 PUSH1 0x1 PUSH1 0xA0 SHL SUB AND CALLER EQ PUSH2 0xFF9 JUMPI PUSH1 0x40 MLOAD PUSH4 0x118CDAA7 PUSH1 0xE0 SHL DUP2 MSTORE CALLER PUSH1 0x4 DUP3 ADD MSTORE PUSH1 0x24 ADD PUSH2 0x7A3 JUMP JUMPDEST PUSH0 PUSH2 0x1C05 PUSH2 0x2438 JUMP JUMPDEST SWAP1 POP PUSH2 0xAD2 DUP5 DUP3 DUP6 DUP6 PUSH2 0x174C JUMP JUMPDEST PUSH0 PUSH2 0x1C1D DUP3 PUSH2 0x1530 JUMP JUMPDEST PUSH0 PUSH2 0x1C27 DUP4 PUSH2 0xE3D JUMP JUMPDEST SWAP1 POP PUSH0 PUSH2 0x1C33 DUP5 PUSH2 0xB58 JUMP JUMPDEST SWAP1 POP DUP2 PUSH1 0x1 PUSH1 0x1 PUSH1 0xA0 SHL SUB AND DUP6 PUSH1 0x1 PUSH1 0x1 PUSH1 0xA0 SHL SUB AND EQ DUP1 PUSH2 0x1C6E JUMPI POP DUP5 PUSH1 0x1 PUSH1 0x1 PUSH1 0xA0 SHL SUB AND PUSH2 0x1C63 DUP6 PUSH2 0x8B4 JUMP JUMPDEST PUSH1 0x1 PUSH1 0x1 PUSH1 0xA0 SHL SUB AND EQ JUMPDEST DUP1 PUSH2 0x1C7E JUMPI POP PUSH2 0x1C7E DUP3 DUP7 PUSH2 0x68F JUMP JUMPDEST DUP1 PUSH2 0x1CB5 JUMPI POP PUSH1 0x1 PUSH1 0x1 PUSH1 0xA0 SHL SUB DUP1 DUP4 AND PUSH0 SWAP1 DUP2 MSTORE PUSH1 0xC PUSH1 0x20 SWAP1 DUP2 MSTORE PUSH1 0x40 DUP1 DUP4 KECCAK256 DUP6 DUP5 MSTORE DUP3 MSTORE DUP1 DUP4 KECCAK256 SWAP4 DUP10 AND DUP4 MSTORE SWAP3 SWAP1 MSTORE KECCAK256 SLOAD PUSH1 0xFF AND JUMPDEST SWAP6 SWAP5 POP POP POP POP POP JUMP JUMPDEST DUP3 PUSH1 0x1 PUSH1 0x1 PUSH1 0xA0 SHL SUB AND PUSH2 0x1CD1 DUP3 PUSH2 0xE3D JUMP JUMPDEST PUSH1 0x1 PUSH1 0x1 PUSH1 0xA0 SHL SUB AND EQ PUSH2 0x1D33 JUMPI PUSH1 0x40 MLOAD PUSH3 0x461BCD PUSH1 0xE5 SHL DUP2 MSTORE PUSH1 0x20 PUSH1 0x4 DUP3 ADD MSTORE PUSH1 0x24 DUP1 DUP3 ADD MSTORE PUSH32 0x455243333532353A207472616E736665722066726F6D20696E76616C6964206F PUSH1 0x44 DUP3 ADD MSTORE PUSH4 0x3BB732B9 PUSH1 0xE1 SHL PUSH1 0x64 DUP3 ADD MSTORE PUSH1 0x84 ADD PUSH2 0x7A3 JUMP JUMPDEST PUSH1 0x1 PUSH1 0x1 PUSH1 0xA0 SHL SUB DUP3 AND PUSH2 0x1D97 JUMPI PUSH1 0x40 MLOAD PUSH3 0x461BCD PUSH1 0xE5 SHL DUP2 MSTORE PUSH1 0x20 PUSH1 0x4 DUP3 ADD MSTORE PUSH1 0x25 PUSH1 0x24 DUP3 ADD MSTORE PUSH32 0x455243333532353A207472616E7366657220746F20746865207A65726F206164 PUSH1 0x44 DUP3 ADD MSTORE PUSH5 0x6472657373 PUSH1 0xD8 SHL PUSH1 0x64 DUP3 ADD MSTORE PUSH1 0x84 ADD PUSH2 0x7A3 JUMP JUMPDEST PUSH0 PUSH2 0x1DA1 DUP3 PUSH2 0xB58 JUMP JUMPDEST SWAP1 POP PUSH0 PUSH2 0x1DAD DUP4 PUSH2 0x115B JUMP JUMPDEST SWAP1 POP PUSH2 0x1DBD DUP6 DUP6 DUP6 DUP7 DUP7 DUP7 PUSH2 0x2451 JUMP JUMPDEST PUSH2 0x1DC7 PUSH0 DUP5 PUSH2 0x1581 JUMP JUMPDEST PUSH2 0x1DD0 DUP4 PUSH2 0x27AC JUMP JUMPDEST PUSH2 0x1DDA DUP6 DUP5 PUSH2 0x2852 JUMP JUMPDEST PUSH2 0x1DE4 DUP5 DUP5 PUSH2 0x2965 JUMP JUMPDEST DUP3 DUP5 PUSH1 0x1 PUSH1 0x1 PUSH1 0xA0 SHL SUB AND DUP7 PUSH1 0x1 PUSH1 0x1 PUSH1 0xA0 SHL SUB AND PUSH32 0xDDF252AD1BE2C89B69C2B068FC378DAA952BA7F163C4A11628F55A4DF523B3EF PUSH1 0x40 MLOAD PUSH1 0x40 MLOAD DUP1 SWAP2 SUB SWAP1 LOG4 PUSH2 0x1BC8 DUP6 DUP6 DUP6 DUP7 DUP7 DUP7 PUSH2 0x25D1 JUMP JUMPDEST PUSH1 0xA SLOAD PUSH0 SWAP1 ISZERO DUP1 ISZERO SWAP1 PUSH2 0x7FB JUMPI POP PUSH0 DUP3 DUP2 MSTORE PUSH1 0xB PUSH1 0x20 MSTORE PUSH1 0x40 SWAP1 KECCAK256 SLOAD PUSH1 0xA DUP1 SLOAD DUP5 SWAP3 SWAP1 DUP2 LT PUSH2 0x1E64 JUMPI PUSH2 0x1E64 PUSH2 0x36DD JUMP JUMPDEST SWAP1 PUSH0 MSTORE PUSH1 0x20 PUSH0 KECCAK256 SWAP1 PUSH1 0x2 MUL ADD PUSH0 ADD SLOAD EQ SWAP3 SWAP2 POP POP JUMP JUMPDEST DUP2 PUSH1 0x1 PUSH1 0x1 PUSH1 0xA0 SHL SUB AND DUP5 PUSH1 0x1 PUSH1 0x1 PUSH1 0xA0 SHL SUB AND SUB PUSH2 0x1EEB JUMPI PUSH1 0x40 MLOAD PUSH3 0x461BCD PUSH1 0xE5 SHL DUP2 MSTORE PUSH1 0x20 PUSH1 0x4 DUP3 ADD MSTORE PUSH1 0x27 PUSH1 0x24 DUP3 ADD MSTORE PUSH32 0x45524333353235536C6F74417070726F7661626C653A20617070726F76652074 PUSH1 0x44 DUP3 ADD MSTORE PUSH7 0x379037BBB732B9 PUSH1 0xC9 SHL PUSH1 0x64 DUP3 ADD MSTORE PUSH1 0x84 ADD PUSH2 0x7A3 JUMP JUMPDEST PUSH1 0x1 PUSH1 0x1 PUSH1 0xA0 SHL SUB DUP5 DUP2 AND PUSH0 DUP2 DUP2 MSTORE PUSH1 0xC PUSH1 0x20 SWAP1 DUP2 MSTORE PUSH1 0x40 DUP1 DUP4 KECCAK256 DUP9 DUP5 MSTORE DUP3 MSTORE DUP1 DUP4 KECCAK256 SWAP5 DUP8 AND DUP1 DUP5 MSTORE SWAP5 DUP3 MSTORE SWAP2 DUP3 SWAP1 KECCAK256 DUP1 SLOAD PUSH1 0xFF NOT AND DUP7 ISZERO ISZERO SWAP1 DUP2 OR SWAP1 SWAP2 SSTORE SWAP2 MLOAD SWAP2 DUP3 MSTORE DUP7 SWAP3 SWAP2 PUSH32 0x7BDF71E6625AA496095BF08B60C677CF81C963F402CF258981E3BD7507D3480C SWAP2 ADD PUSH1 0x40 MLOAD DUP1 SWAP2 SUB SWAP1 LOG4 POP POP POP POP JUMP JUMPDEST PUSH1 0xD DUP1 SLOAD PUSH1 0x1 PUSH1 0x1 PUSH1 0xA0 SHL SUB DUP4 DUP2 AND PUSH1 0x1 PUSH1 0x1 PUSH1 0xA0 SHL SUB NOT DUP4 AND DUP2 OR SWAP1 SWAP4 SSTORE PUSH1 0x40 MLOAD SWAP2 AND SWAP2 SWAP1 DUP3 SWAP1 PUSH32 0x8BE0079C531659141344CD1FD0A4F28419497F9722A3DAAFE3B4186F6B6457E0 SWAP1 PUSH0 SWAP1 LOG3 POP POP JUMP JUMPDEST PUSH1 0x1 PUSH1 0x1 PUSH1 0xA0 SHL SUB DUP3 AND PUSH2 0x201D JUMPI PUSH1 0x40 MLOAD PUSH3 0x461BCD PUSH1 0xE5 SHL DUP2 MSTORE PUSH1 0x20 PUSH1 0x4 DUP3 ADD MSTORE PUSH1 0x2A PUSH1 0x24 DUP3 ADD MSTORE PUSH32 0x455243333532353A20617070726F76652076616C756520746F20746865207A65 PUSH1 0x44 DUP3 ADD MSTORE PUSH10 0x726F2061646472657373 PUSH1 0xB0 SHL PUSH1 0x64 DUP3 ADD MSTORE PUSH1 0x84 ADD PUSH2 0x7A3 JUMP JUMPDEST PUSH2 0x2027 DUP3 DUP5 PUSH2 0x29EC JUMP JUMPDEST PUSH2 0x208B JUMPI PUSH0 DUP4 DUP2 MSTORE PUSH1 0x6 PUSH1 0x20 MSTORE PUSH1 0x40 SWAP1 KECCAK256 SLOAD PUSH1 0x5 DUP1 SLOAD SWAP1 SWAP2 SWAP1 DUP2 LT PUSH2 0x204E JUMPI PUSH2 0x204E PUSH2 0x36DD JUMP JUMPDEST PUSH0 SWAP2 DUP3 MSTORE PUSH1 0x20 DUP1 DUP4 KECCAK256 PUSH1 0x6 SWAP3 SWAP1 SWAP3 MUL SWAP1 SWAP2 ADD PUSH1 0x5 ADD DUP1 SLOAD PUSH1 0x1 DUP2 ADD DUP3 SSTORE SWAP1 DUP4 MSTORE SWAP2 KECCAK256 ADD DUP1 SLOAD PUSH1 0x1 PUSH1 0x1 PUSH1 0xA0 SHL SUB NOT AND PUSH1 0x1 PUSH1 0x1 PUSH1 0xA0 SHL SUB DUP5 AND OR SWAP1 SSTORE JUMPDEST PUSH0 DUP4 DUP2 MSTORE PUSH1 0x4 PUSH1 0x20 SWAP1 DUP2 MSTORE PUSH1 0x40 DUP1 DUP4 KECCAK256 PUSH1 0x1 PUSH1 0x1 PUSH1 0xA0 SHL SUB DUP7 AND DUP1 DUP6 MSTORE SWAP1 DUP4 MSTORE SWAP3 DUP2 SWAP1 KECCAK256 DUP5 SWAP1 SSTORE MLOAD DUP4 DUP2 MSTORE DUP6 SWAP2 PUSH32 0x621B050DE0AD08B51D19B48B3E6DF75348C4DE6BDD93E81B252CA62E28265B1B SWAP2 ADD JUMPDEST PUSH1 0x40 MLOAD DUP1 SWAP2 SUB SWAP1 LOG3 POP POP POP JUMP JUMPDEST DUP2 PUSH1 0x1 PUSH1 0x1 PUSH1 0xA0 SHL SUB AND DUP4 PUSH1 0x1 PUSH1 0x1 PUSH1 0xA0 SHL SUB AND SUB PUSH2 0x214A JUMPI PUSH1 0x40 MLOAD PUSH3 0x461BCD PUSH1 0xE5 SHL DUP2 MSTORE PUSH1 0x20 PUSH1 0x4 DUP3 ADD MSTORE PUSH1 0x1A PUSH1 0x24 DUP3 ADD MSTORE PUSH32 0x455243333532353A20617070726F766520746F2063616C6C6572000000000000 PUSH1 0x44 DUP3 ADD MSTORE PUSH1 0x64 ADD PUSH2 0x7A3 JUMP JUMPDEST PUSH1 0x1 PUSH1 0x1 PUSH1 0xA0 SHL SUB DUP4 DUP2 AND PUSH0 DUP2 DUP2 MSTORE PUSH1 0x7 PUSH1 0x20 SWAP1 DUP2 MSTORE PUSH1 0x40 DUP1 DUP4 KECCAK256 SWAP5 DUP8 AND DUP1 DUP5 MSTORE PUSH1 0x2 SWAP1 SWAP6 ADD DUP3 MSTORE SWAP2 DUP3 SWAP1 KECCAK256 DUP1 SLOAD PUSH1 0xFF NOT AND DUP7 ISZERO ISZERO SWAP1 DUP2 OR SWAP1 SWAP2 SSTORE SWAP2 MLOAD SWAP2 DUP3 MSTORE PUSH32 0x17307EAB39AB6107E8899845AD3D59BD9653F200F220920489CA2B5937696C31 SWAP2 ADD PUSH2 0x20DC JUMP JUMPDEST PUSH2 0x21BD DUP5 DUP5 DUP5 PUSH2 0x1CBE JUMP JUMPDEST PUSH2 0x21C9 DUP5 DUP5 DUP5 DUP5 PUSH2 0x2AB8 JUMP JUMPDEST PUSH2 0x9F5 JUMPI PUSH1 0x40 MLOAD PUSH3 0x461BCD PUSH1 0xE5 SHL DUP2 MSTORE PUSH1 0x20 PUSH1 0x4 DUP3 ADD MSTORE PUSH1 0x27 PUSH1 0x24 DUP3 ADD MSTORE PUSH32 0x455243333532353A207472616E7366657220746F206E6F6E2045524337323152 PUSH1 0x44 DUP3 ADD MSTORE PUSH7 0x32B1B2B4BB32B9 PUSH1 0xC9 SHL PUSH1 0x64 DUP3 ADD MSTORE PUSH1 0x84 ADD PUSH2 0x7A3 JUMP JUMPDEST PUSH1 0x60 PUSH2 0x7FB PUSH1 0x1 PUSH1 0x1 PUSH1 0xA0 SHL SUB DUP4 AND PUSH1 0x14 PUSH2 0x2BFA JUMP JUMPDEST PUSH0 PUSH2 0x2245 DUP4 PUSH2 0xE3D JUMP JUMPDEST SWAP1 POP PUSH0 PUSH2 0x2251 DUP5 PUSH2 0xB58 JUMP JUMPDEST SWAP1 POP PUSH2 0x2261 PUSH0 DUP4 PUSH0 DUP8 DUP6 DUP9 PUSH2 0x2451 JUMP JUMPDEST PUSH2 0x226B DUP5 DUP5 PUSH2 0x2551 JUMP JUMPDEST PUSH2 0x9F5 PUSH0 DUP4 PUSH0 DUP8 DUP6 DUP9 PUSH2 0x25D1 JUMP JUMPDEST PUSH0 PUSH1 0x1 PUSH1 0x1 PUSH1 0xE0 SHL SUB NOT DUP3 AND PUSH4 0x1FFC9A7 PUSH1 0xE0 SHL EQ DUP1 PUSH2 0x22A9 JUMPI POP PUSH1 0x1 PUSH1 0x1 PUSH1 0xE0 SHL SUB NOT DUP3 AND PUSH4 0x354D605 PUSH1 0xE6 SHL EQ JUMPDEST DUP1 PUSH2 0x22C4 JUMPI POP PUSH1 0x1 PUSH1 0x1 PUSH1 0xE0 SHL SUB NOT DUP3 AND PUSH4 0x80AC58CD PUSH1 0xE0 SHL EQ JUMPDEST DUP1 PUSH2 0x22DF JUMPI POP PUSH1 0x1 PUSH1 0x1 PUSH1 0xE0 SHL SUB NOT DUP3 AND PUSH4 0x70B00481 PUSH1 0xE1 SHL EQ JUMPDEST DUP1 PUSH2 0x22FA JUMPI POP PUSH1 0x1 PUSH1 0x1 PUSH1 0xE0 SHL SUB NOT DUP3 AND PUSH4 0x780E9D63 PUSH1 0xE0 SHL EQ JUMPDEST DUP1 PUSH2 0x7FB JUMPI POP PUSH1 0x1 PUSH1 0x1 PUSH1 0xE0 SHL SUB NOT DUP3 AND PUSH4 0x5B5E139F PUSH1 0xE0 SHL EQ SWAP3 SWAP2 POP POP JUMP JUMPDEST PUSH1 0x5 SLOAD PUSH0 SWAP1 ISZERO DUP1 ISZERO SWAP1 PUSH2 0x7FB JUMPI POP PUSH0 DUP3 DUP2 MSTORE PUSH1 0x6 PUSH1 0x20 MSTORE PUSH1 0x40 SWAP1 KECCAK256 SLOAD PUSH1 0x5 DUP1 SLOAD DUP5 SWAP3 SWAP1 DUP2 LT PUSH2 0x234B JUMPI PUSH2 0x234B PUSH2 0x36DD JUMP JUMPDEST SWAP1 PUSH0 MSTORE PUSH1 0x20 PUSH0 KECCAK256 SWAP1 PUSH1 0x6 MUL ADD PUSH0 ADD SLOAD EQ SWAP3 SWAP2 POP POP JUMP JUMPDEST PUSH0 DUP1 PUSH19 0x184F03E93FF9F4DAA797ED6E38ED64BF6A1F01 PUSH1 0x40 SHL DUP4 LT PUSH2 0x239F JUMPI PUSH19 0x184F03E93FF9F4DAA797ED6E38ED64BF6A1F01 PUSH1 0x40 SHL DUP4 DIV SWAP3 POP PUSH1 0x40 ADD JUMPDEST PUSH14 0x4EE2D6D415B85ACEF8100000000 DUP4 LT PUSH2 0x23CB JUMPI PUSH14 0x4EE2D6D415B85ACEF8100000000 DUP4 DIV SWAP3 POP PUSH1 0x20 ADD JUMPDEST PUSH7 0x2386F26FC10000 DUP4 LT PUSH2 0x23E9 JUMPI PUSH7 0x2386F26FC10000 DUP4 DIV SWAP3 POP PUSH1 0x10 ADD JUMPDEST PUSH4 0x5F5E100 DUP4 LT PUSH2 0x2401 JUMPI PUSH4 0x5F5E100 DUP4 DIV SWAP3 POP PUSH1 0x8 ADD JUMPDEST PUSH2 0x2710 DUP4 LT PUSH2 0x2415 JUMPI PUSH2 0x2710 DUP4 DIV SWAP3 POP PUSH1 0x4 ADD JUMPDEST PUSH1 0x64 DUP4 LT PUSH2 0x2427 JUMPI PUSH1 0x64 DUP4 DIV SWAP3 POP PUSH1 0x2 ADD JUMPDEST PUSH1 0xA DUP4 LT PUSH2 0x7FB JUMPI PUSH1 0x1 ADD SWAP3 SWAP2 POP POP JUMP JUMPDEST PUSH1 0x3 DUP1 SLOAD PUSH0 SWAP2 DUP3 PUSH2 0x2448 DUP4 PUSH2 0x398D JUMP JUMPDEST SWAP2 SWAP1 POP SSTORE SWAP1 POP SWAP1 JUMP JUMPDEST PUSH1 0x1 PUSH1 0x1 PUSH1 0xA0 SHL SUB DUP7 AND ISZERO DUP1 ISZERO PUSH2 0x2466 JUMPI POP DUP4 ISZERO JUMPDEST DUP1 ISZERO PUSH2 0x2478 JUMPI POP PUSH2 0x2476 DUP3 PUSH2 0x1E33 JUMP JUMPDEST ISZERO JUMPDEST ISZERO PUSH2 0x2486 JUMPI PUSH2 0x2486 DUP3 PUSH2 0x2D6C JUMP JUMPDEST POP POP POP POP POP POP JUMP JUMPDEST PUSH1 0x40 DUP1 MLOAD PUSH1 0xC0 DUP2 ADD DUP3 MSTORE DUP4 DUP2 MSTORE PUSH1 0x20 DUP1 DUP3 ADD DUP5 SWAP1 MSTORE PUSH0 DUP3 DUP5 ADD DUP2 SWAP1 MSTORE PUSH1 0x1 PUSH1 0x1 PUSH1 0xA0 SHL SUB DUP8 AND PUSH1 0x60 DUP5 ADD MSTORE PUSH1 0x80 DUP4 ADD DUP2 SWAP1 MSTORE DUP4 MLOAD DUP2 DUP2 MSTORE SWAP2 DUP3 ADD SWAP1 SWAP4 MSTORE PUSH1 0xA0 DUP3 ADD MSTORE SWAP1 POP PUSH2 0x24DB DUP2 PUSH2 0x2E31 JUMP JUMPDEST PUSH2 0x24E5 DUP5 DUP5 PUSH2 0x2965 JUMP JUMPDEST PUSH1 0x40 MLOAD DUP4 SWAP1 PUSH1 0x1 PUSH1 0x1 PUSH1 0xA0 SHL SUB DUP7 AND SWAP1 PUSH0 SWAP1 PUSH32 0xDDF252AD1BE2C89B69C2B068FC378DAA952BA7F163C4A11628F55A4DF523B3EF SWAP1 DUP3 SWAP1 LOG4 DUP2 PUSH0 DUP5 PUSH32 0xE4F48C240D3B994948AA54F3E2F5FCA59263DFE1D52B6E4CF39A5D249B5CCB65 PUSH1 0x40 MLOAD PUSH1 0x40 MLOAD DUP1 SWAP2 SUB SWAP1 LOG4 POP POP POP POP JUMP JUMPDEST PUSH0 DUP3 DUP2 MSTORE PUSH1 0x6 PUSH1 0x20 MSTORE PUSH1 0x40 SWAP1 KECCAK256 SLOAD PUSH1 0x5 DUP1 SLOAD DUP4 SWAP3 SWAP1 DUP2 LT PUSH2 0x2574 JUMPI PUSH2 0x2574 PUSH2 0x36DD JUMP JUMPDEST SWAP1 PUSH0 MSTORE PUSH1 0x20 PUSH0 KECCAK256 SWAP1 PUSH1 0x6 MUL ADD PUSH1 0x2 ADD PUSH0 DUP3 DUP3 SLOAD PUSH2 0x2591 SWAP2 SWAP1 PUSH2 0x397A JUMP JUMPDEST SWAP1 SWAP2 SSTORE POP POP PUSH1 0x40 MLOAD DUP2 DUP2 MSTORE DUP3 SWAP1 PUSH0 SWAP1 PUSH32 0xB2AAC84F3EC956911FD78EAE5311062972FF949F38412E8DA39069D9F068CC6 SWAP1 PUSH1 0x20 ADD PUSH1 0x40 MLOAD DUP1 SWAP2 SUB SWAP1 LOG3 POP POP JUMP JUMPDEST PUSH1 0x1 PUSH1 0x1 PUSH1 0xA0 SHL SUB DUP7 AND ISZERO DUP1 ISZERO PUSH2 0x25E6 JUMPI POP DUP4 ISZERO JUMPDEST DUP1 ISZERO PUSH2 0x25F9 JUMPI POP PUSH2 0x25F7 DUP3 DUP5 PUSH2 0x2F7F JUMP JUMPDEST ISZERO JUMPDEST ISZERO PUSH2 0x260D JUMPI PUSH2 0x2608 DUP3 DUP5 PUSH2 0x3003 JUMP JUMPDEST PUSH2 0x2486 JUMP JUMPDEST PUSH1 0x1 PUSH1 0x1 PUSH1 0xA0 SHL SUB DUP6 AND ISZERO DUP1 ISZERO PUSH2 0x2622 JUMPI POP DUP3 ISZERO JUMPDEST DUP1 ISZERO PUSH2 0x2633 JUMPI POP PUSH2 0x2633 DUP3 DUP6 PUSH2 0x2F7F JUMP JUMPDEST ISZERO PUSH2 0x2608 JUMPI PUSH2 0x2608 DUP3 DUP6 PUSH2 0x3062 JUMP JUMPDEST PUSH0 DUP1 PUSH2 0x264D DUP6 PUSH2 0xE3D JUMP JUMPDEST SWAP1 POP DUP1 EXTCODESIZE PUSH4 0xFFFFFFFF AND ISZERO PUSH2 0x27A2 JUMPI PUSH1 0x40 MLOAD PUSH4 0x1FFC9A7 PUSH1 0xE0 SHL DUP2 MSTORE PUSH3 0x9CE20B PUSH1 0xE0 SHL PUSH1 0x4 DUP3 ADD MSTORE PUSH1 0x1 PUSH1 0x1 PUSH1 0xA0 SHL SUB DUP3 AND SWAP1 PUSH4 0x1FFC9A7 SWAP1 PUSH1 0x24 ADD PUSH1 0x20 PUSH1 0x40 MLOAD DUP1 DUP4 SUB DUP2 DUP7 GAS STATICCALL SWAP3 POP POP POP DUP1 ISZERO PUSH2 0x26C2 JUMPI POP PUSH1 0x40 DUP1 MLOAD PUSH1 0x1F RETURNDATASIZE SWAP1 DUP2 ADD PUSH1 0x1F NOT AND DUP3 ADD SWAP1 SWAP3 MSTORE PUSH2 0x26BF SWAP2 DUP2 ADD SWAP1 PUSH2 0x3A40 JUMP JUMPDEST PUSH1 0x1 JUMPDEST PUSH2 0x2700 JUMPI RETURNDATASIZE DUP1 DUP1 ISZERO PUSH2 0x26EF JUMPI PUSH1 0x40 MLOAD SWAP2 POP PUSH1 0x1F NOT PUSH1 0x3F RETURNDATASIZE ADD AND DUP3 ADD PUSH1 0x40 MSTORE RETURNDATASIZE DUP3 MSTORE RETURNDATASIZE PUSH0 PUSH1 0x20 DUP5 ADD RETURNDATACOPY PUSH2 0x26F4 JUMP JUMPDEST PUSH1 0x60 SWAP2 POP JUMPDEST POP PUSH1 0x1 SWAP3 POP POP POP PUSH2 0x14B5 JUMP JUMPDEST DUP1 ISZERO PUSH2 0x2797 JUMPI PUSH1 0x40 MLOAD PUSH3 0x9CE20B PUSH1 0xE0 SHL DUP2 MSTORE PUSH0 SWAP1 PUSH1 0x1 PUSH1 0x1 PUSH1 0xA0 SHL SUB DUP5 AND SWAP1 PUSH3 0x9CE20B SWAP1 PUSH2 0x273A SWAP1 CALLER SWAP1 DUP13 SWAP1 DUP13 SWAP1 DUP13 SWAP1 DUP13 SWAP1 PUSH1 0x4 ADD PUSH2 0x3A5B JUMP JUMPDEST PUSH1 0x20 PUSH1 0x40 MLOAD DUP1 DUP4 SUB DUP2 PUSH0 DUP8 GAS CALL ISZERO DUP1 ISZERO PUSH2 0x2756 JUMPI RETURNDATASIZE PUSH0 DUP1 RETURNDATACOPY RETURNDATASIZE PUSH0 REVERT JUMPDEST POP POP POP POP PUSH1 0x40 MLOAD RETURNDATASIZE PUSH1 0x1F NOT PUSH1 0x1F DUP3 ADD AND DUP3 ADD DUP1 PUSH1 0x40 MSTORE POP DUP2 ADD SWAP1 PUSH2 0x277A SWAP2 SWAP1 PUSH2 0x3A98 JUMP JUMPDEST PUSH1 0x1 PUSH1 0x1 PUSH1 0xE0 SHL SUB NOT AND PUSH3 0x9CE20B PUSH1 0xE0 SHL EQ SWAP4 POP PUSH2 0x14B5 SWAP3 POP POP POP JUMP JUMPDEST PUSH1 0x1 SWAP3 POP POP POP PUSH2 0x14B5 JUMP JUMPDEST PUSH1 0x1 SWAP2 POP POP PUSH2 0x14B5 JUMP JUMPDEST PUSH0 DUP2 DUP2 MSTORE PUSH1 0x6 PUSH1 0x20 MSTORE PUSH1 0x40 DUP2 KECCAK256 SLOAD PUSH1 0x5 DUP1 SLOAD SWAP1 SWAP2 SWAP1 DUP2 LT PUSH2 0x27CF JUMPI PUSH2 0x27CF PUSH2 0x36DD JUMP JUMPDEST PUSH0 SWAP2 DUP3 MSTORE PUSH1 0x20 DUP3 KECCAK256 PUSH1 0x5 PUSH1 0x6 SWAP1 SWAP3 MUL ADD SWAP1 DUP2 ADD SLOAD SWAP1 SWAP3 POP SWAP1 JUMPDEST DUP2 DUP2 LT ISZERO PUSH2 0x2844 JUMPI PUSH0 DUP4 PUSH1 0x5 ADD DUP3 DUP2 SLOAD DUP2 LT PUSH2 0x2806 JUMPI PUSH2 0x2806 PUSH2 0x36DD JUMP JUMPDEST PUSH0 SWAP2 DUP3 MSTORE PUSH1 0x20 DUP1 DUP4 KECCAK256 SWAP1 SWAP2 ADD SLOAD DUP8 DUP4 MSTORE PUSH1 0x4 DUP3 MSTORE PUSH1 0x40 DUP1 DUP5 KECCAK256 PUSH1 0x1 PUSH1 0x1 PUSH1 0xA0 SHL SUB SWAP1 SWAP3 AND DUP5 MSTORE SWAP2 MSTORE DUP2 KECCAK256 SSTORE POP DUP1 PUSH2 0x283C DUP2 PUSH2 0x398D JUMP JUMPDEST SWAP2 POP POP PUSH2 0x27E8 JUMP JUMPDEST POP PUSH2 0xB53 PUSH1 0x5 DUP4 ADD PUSH0 PUSH2 0x31C5 JUMP JUMPDEST PUSH0 DUP2 DUP2 MSTORE PUSH1 0x6 PUSH1 0x20 MSTORE PUSH1 0x40 DUP2 KECCAK256 SLOAD PUSH1 0x5 DUP1 SLOAD SWAP1 SWAP2 SWAP1 DUP2 LT PUSH2 0x2875 JUMPI PUSH2 0x2875 PUSH2 0x36DD JUMP JUMPDEST PUSH0 SWAP2 DUP3 MSTORE PUSH1 0x20 DUP1 DUP4 KECCAK256 PUSH1 0x6 SWAP3 SWAP1 SWAP3 MUL SWAP1 SWAP2 ADD PUSH1 0x3 ADD DUP1 SLOAD PUSH1 0x1 PUSH1 0x1 PUSH1 0xA0 SHL SUB NOT AND PUSH1 0x1 PUSH1 0x1 PUSH1 0xA0 SHL SUB SWAP5 DUP6 AND OR SWAP1 SSTORE SWAP2 DUP5 AND DUP2 MSTORE PUSH1 0x7 SWAP1 SWAP2 MSTORE PUSH1 0x40 DUP2 KECCAK256 DUP1 SLOAD SWAP1 SWAP2 SWAP1 PUSH2 0x28C3 SWAP1 PUSH1 0x1 SWAP1 PUSH2 0x3A2D JUMP JUMPDEST SWAP1 POP PUSH0 DUP3 PUSH0 ADD DUP3 DUP2 SLOAD DUP2 LT PUSH2 0x28DA JUMPI PUSH2 0x28DA PUSH2 0x36DD JUMP JUMPDEST SWAP1 PUSH0 MSTORE PUSH1 0x20 PUSH0 KECCAK256 ADD SLOAD SWAP1 POP PUSH0 DUP4 PUSH1 0x1 ADD PUSH0 DUP7 DUP2 MSTORE PUSH1 0x20 ADD SWAP1 DUP2 MSTORE PUSH1 0x20 ADD PUSH0 KECCAK256 SLOAD SWAP1 POP DUP2 DUP5 PUSH0 ADD DUP3 DUP2 SLOAD DUP2 LT PUSH2 0x2911 JUMPI PUSH2 0x2911 PUSH2 0x36DD JUMP JUMPDEST PUSH0 SWAP2 DUP3 MSTORE PUSH1 0x20 DUP1 DUP4 KECCAK256 SWAP1 SWAP2 ADD SWAP3 SWAP1 SWAP3 SSTORE DUP4 DUP2 MSTORE PUSH1 0x1 DUP7 ADD SWAP1 SWAP2 MSTORE PUSH1 0x40 DUP1 DUP3 KECCAK256 DUP4 SWAP1 SSTORE DUP7 DUP3 MSTORE DUP2 KECCAK256 SSTORE DUP4 SLOAD DUP5 SWAP1 DUP1 PUSH2 0x294A JUMPI PUSH2 0x294A PUSH2 0x3AB3 JUMP JUMPDEST PUSH1 0x1 SWAP1 SUB DUP2 DUP2 SWAP1 PUSH0 MSTORE PUSH1 0x20 PUSH0 KECCAK256 ADD PUSH0 SWAP1 SSTORE SWAP1 SSTORE POP POP POP POP POP POP JUMP JUMPDEST PUSH0 DUP2 DUP2 MSTORE PUSH1 0x6 PUSH1 0x20 MSTORE PUSH1 0x40 SWAP1 KECCAK256 SLOAD PUSH1 0x5 DUP1 SLOAD DUP5 SWAP3 SWAP1 DUP2 LT PUSH2 0x2988 JUMPI PUSH2 0x2988 PUSH2 0x36DD JUMP JUMPDEST PUSH0 SWAP2 DUP3 MSTORE PUSH1 0x20 DUP1 DUP4 KECCAK256 PUSH1 0x6 SWAP3 SWAP1 SWAP3 MUL SWAP1 SWAP2 ADD PUSH1 0x3 ADD DUP1 SLOAD PUSH1 0x1 PUSH1 0x1 PUSH1 0xA0 SHL SUB NOT AND PUSH1 0x1 PUSH1 0x1 PUSH1 0xA0 SHL SUB SWAP5 DUP6 AND OR SWAP1 SSTORE SWAP4 SWAP1 SWAP2 AND DUP2 MSTORE PUSH1 0x7 DUP1 DUP5 MSTORE PUSH1 0x40 DUP1 DUP4 KECCAK256 DUP1 SLOAD DUP6 DUP6 MSTORE PUSH1 0x1 DUP3 DUP2 ADD DUP9 MSTORE SWAP3 DUP6 KECCAK256 DUP2 SWAP1 SSTORE SWAP3 DUP7 MSTORE SWAP1 DUP3 ADD DUP2 SSTORE DUP3 MSTORE SWAP3 SWAP1 KECCAK256 SWAP1 SWAP2 ADD SSTORE JUMP JUMPDEST PUSH0 DUP2 DUP2 MSTORE PUSH1 0x6 PUSH1 0x20 MSTORE PUSH1 0x40 DUP2 KECCAK256 SLOAD PUSH1 0x5 DUP1 SLOAD DUP4 SWAP3 SWAP1 DUP2 LT PUSH2 0x2A0F JUMPI PUSH2 0x2A0F PUSH2 0x36DD JUMP JUMPDEST PUSH0 SWAP2 DUP3 MSTORE PUSH1 0x20 DUP3 KECCAK256 PUSH1 0x5 PUSH1 0x6 SWAP1 SWAP3 MUL ADD ADD SLOAD SWAP2 POP JUMPDEST DUP2 DUP2 LT ISZERO PUSH2 0x2AAE JUMPI PUSH0 DUP5 DUP2 MSTORE PUSH1 0x6 PUSH1 0x20 MSTORE PUSH1 0x40 SWAP1 KECCAK256 SLOAD PUSH1 0x5 DUP1 SLOAD PUSH1 0x1 PUSH1 0x1 PUSH1 0xA0 SHL SUB DUP9 AND SWAP3 SWAP1 DUP2 LT PUSH2 0x2A58 JUMPI PUSH2 0x2A58 PUSH2 0x36DD JUMP JUMPDEST SWAP1 PUSH0 MSTORE PUSH1 0x20 PUSH0 KECCAK256 SWAP1 PUSH1 0x6 MUL ADD PUSH1 0x5 ADD DUP3 DUP2 SLOAD DUP2 LT PUSH2 0x2A78 JUMPI PUSH2 0x2A78 PUSH2 0x36DD JUMP JUMPDEST PUSH0 SWAP2 DUP3 MSTORE PUSH1 0x20 SWAP1 SWAP2 KECCAK256 ADD SLOAD PUSH1 0x1 PUSH1 0x1 PUSH1 0xA0 SHL SUB AND SUB PUSH2 0x2A9C JUMPI PUSH1 0x1 SWAP3 POP POP POP PUSH2 0x7FB JUMP JUMPDEST DUP1 PUSH2 0x2AA6 DUP2 PUSH2 0x398D JUMP JUMPDEST SWAP2 POP POP PUSH2 0x2A24 JUMP JUMPDEST POP PUSH0 SWAP5 SWAP4 POP POP POP POP JUMP JUMPDEST PUSH0 DUP4 EXTCODESIZE PUSH4 0xFFFFFFFF AND ISZERO PUSH2 0x2BF2 JUMPI PUSH1 0x40 MLOAD PUSH4 0xA85BD01 PUSH1 0xE1 SHL DUP2 MSTORE PUSH1 0x1 PUSH1 0x1 PUSH1 0xA0 SHL SUB DUP6 AND SWAP1 PUSH4 0x150B7A02 SWAP1 PUSH2 0x2AF8 SWAP1 CALLER SWAP1 DUP10 SWAP1 DUP9 SWAP1 DUP9 SWAP1 PUSH1 0x4 ADD PUSH2 0x3AC7 JUMP JUMPDEST PUSH1 0x20 PUSH1 0x40 MLOAD DUP1 DUP4 SUB DUP2 PUSH0 DUP8 GAS CALL SWAP3 POP POP POP DUP1 ISZERO PUSH2 0x2B32 JUMPI POP PUSH1 0x40 DUP1 MLOAD PUSH1 0x1F RETURNDATASIZE SWAP1 DUP2 ADD PUSH1 0x1F NOT AND DUP3 ADD SWAP1 SWAP3 MSTORE PUSH2 0x2B2F SWAP2 DUP2 ADD SWAP1 PUSH2 0x3A98 JUMP JUMPDEST PUSH1 0x1 JUMPDEST PUSH2 0x2BD8 JUMPI RETURNDATASIZE DUP1 DUP1 ISZERO PUSH2 0x2B5F JUMPI PUSH1 0x40 MLOAD SWAP2 POP PUSH1 0x1F NOT PUSH1 0x3F RETURNDATASIZE ADD AND DUP3 ADD PUSH1 0x40 MSTORE RETURNDATASIZE DUP3 MSTORE RETURNDATASIZE PUSH0 PUSH1 0x20 DUP5 ADD RETURNDATACOPY PUSH2 0x2B64 JUMP JUMPDEST PUSH1 0x60 SWAP2 POP JUMPDEST POP DUP1 MLOAD PUSH0 SUB PUSH2 0x2BD0 JUMPI PUSH1 0x40 MLOAD PUSH3 0x461BCD PUSH1 0xE5 SHL DUP2 MSTORE PUSH1 0x20 PUSH1 0x4 DUP3 ADD MSTORE PUSH1 0x32 PUSH1 0x24 DUP3 ADD MSTORE PUSH32 0x4552433732313A207472616E7366657220746F206E6F6E204552433732315265 PUSH1 0x44 DUP3 ADD MSTORE PUSH18 0x31B2B4BB32B91034B6B83632B6B2B73A32B9 PUSH1 0x71 SHL PUSH1 0x64 DUP3 ADD MSTORE PUSH1 0x84 ADD PUSH2 0x7A3 JUMP JUMPDEST DUP1 MLOAD DUP2 PUSH1 0x20 ADD REVERT JUMPDEST PUSH1 0x1 PUSH1 0x1 PUSH1 0xE0 SHL SUB NOT AND PUSH4 0xA85BD01 PUSH1 0xE1 SHL EQ SWAP1 POP PUSH2 0x14B5 JUMP JUMPDEST POP PUSH1 0x1 PUSH2 0x14B5 JUMP JUMPDEST PUSH1 0x60 DUP3 PUSH0 PUSH2 0x2C09 DUP5 PUSH1 0x2 PUSH2 0x3B03 JUMP JUMPDEST PUSH2 0x2C14 SWAP1 PUSH1 0x2 PUSH2 0x397A JUMP JUMPDEST PUSH8 0xFFFFFFFFFFFFFFFF DUP2 GT ISZERO PUSH2 0x2C2C JUMPI PUSH2 0x2C2C PUSH2 0x34A1 JUMP JUMPDEST PUSH1 0x40 MLOAD SWAP1 DUP1 DUP3 MSTORE DUP1 PUSH1 0x1F ADD PUSH1 0x1F NOT AND PUSH1 0x20 ADD DUP3 ADD PUSH1 0x40 MSTORE DUP1 ISZERO PUSH2 0x2C56 JUMPI PUSH1 0x20 DUP3 ADD DUP2 DUP1 CALLDATASIZE DUP4 CALLDATACOPY ADD SWAP1 POP JUMPDEST POP SWAP1 POP PUSH1 0x3 PUSH1 0xFC SHL DUP2 PUSH0 DUP2 MLOAD DUP2 LT PUSH2 0x2C70 JUMPI PUSH2 0x2C70 PUSH2 0x36DD JUMP JUMPDEST PUSH1 0x20 ADD ADD SWAP1 PUSH1 0x1 PUSH1 0x1 PUSH1 0xF8 SHL SUB NOT AND SWAP1 DUP2 PUSH0 BYTE SWAP1 MSTORE8 POP PUSH1 0xF PUSH1 0xFB SHL DUP2 PUSH1 0x1 DUP2 MLOAD DUP2 LT PUSH2 0x2C9E JUMPI PUSH2 0x2C9E PUSH2 0x36DD JUMP JUMPDEST PUSH1 0x20 ADD ADD SWAP1 PUSH1 0x1 PUSH1 0x1 PUSH1 0xF8 SHL SUB NOT AND SWAP1 DUP2 PUSH0 BYTE SWAP1 MSTORE8 POP PUSH0 PUSH2 0x2CC0 DUP6 PUSH1 0x2 PUSH2 0x3B03 JUMP JUMPDEST PUSH2 0x2CCB SWAP1 PUSH1 0x1 PUSH2 0x397A JUMP JUMPDEST SWAP1 POP JUMPDEST PUSH1 0x1 DUP2 GT ISZERO PUSH2 0x2D42 JUMPI PUSH16 0x181899199A1A9B1B9C1CB0B131B232B3 PUSH1 0x81 SHL DUP4 PUSH1 0xF AND PUSH1 0x10 DUP2 LT PUSH2 0x2CFF JUMPI PUSH2 0x2CFF PUSH2 0x36DD JUMP JUMPDEST BYTE PUSH1 0xF8 SHL DUP3 DUP3 DUP2 MLOAD DUP2 LT PUSH2 0x2D15 JUMPI PUSH2 0x2D15 PUSH2 0x36DD JUMP JUMPDEST PUSH1 0x20 ADD ADD SWAP1 PUSH1 0x1 PUSH1 0x1 PUSH1 0xF8 SHL SUB NOT AND SWAP1 DUP2 PUSH0 BYTE SWAP1 MSTORE8 POP PUSH1 0x4 SWAP3 SWAP1 SWAP3 SHR SWAP2 PUSH2 0x2D3B DUP2 PUSH2 0x3B1A JUMP JUMPDEST SWAP1 POP PUSH2 0x2CCE JUMP JUMPDEST POP DUP2 ISZERO PUSH2 0x14B5 JUMPI PUSH1 0x40 MLOAD PUSH4 0xE22E27EB PUSH1 0xE0 SHL DUP2 MSTORE PUSH1 0x4 DUP2 ADD DUP7 SWAP1 MSTORE PUSH1 0x24 DUP2 ADD DUP6 SWAP1 MSTORE PUSH1 0x44 ADD PUSH2 0x7A3 JUMP JUMPDEST PUSH2 0x2D75 DUP2 PUSH2 0x1E33 JUMP JUMPDEST ISZERO PUSH2 0x2DD5 JUMPI PUSH1 0x40 MLOAD PUSH3 0x461BCD PUSH1 0xE5 SHL DUP2 MSTORE PUSH1 0x20 PUSH1 0x4 DUP3 ADD MSTORE PUSH1 0x2A PUSH1 0x24 DUP3 ADD MSTORE PUSH32 0x45524333353235536C6F74456E756D657261626C653A20736C6F7420616C7265 PUSH1 0x44 DUP3 ADD MSTORE PUSH10 0x61647920657869737473 PUSH1 0xB0 SHL PUSH1 0x64 DUP3 ADD MSTORE PUSH1 0x84 ADD PUSH2 0x7A3 JUMP JUMPDEST PUSH1 0x40 DUP1 MLOAD DUP1 DUP3 ADD DUP3 MSTORE DUP3 DUP2 MSTORE DUP2 MLOAD PUSH0 DUP1 DUP3 MSTORE PUSH1 0x20 DUP3 DUP2 ADD SWAP1 SWAP5 MSTORE SWAP3 DUP3 ADD MSTORE SWAP1 POP PUSH2 0x2DFE DUP2 PUSH2 0x3141 JUMP JUMPDEST DUP2 PUSH0 DUP1 PUSH32 0xE4F48C240D3B994948AA54F3E2F5FCA59263DFE1D52B6E4CF39A5D249B5CCB65 PUSH1 0x40 MLOAD PUSH1 0x40 MLOAD DUP1 SWAP2 SUB SWAP1 LOG4 POP POP JUMP JUMPDEST PUSH1 0x5 DUP1 SLOAD DUP3 MLOAD PUSH0 SWAP1 DUP2 MSTORE PUSH1 0x6 PUSH1 0x20 DUP2 DUP2 MSTORE PUSH1 0x40 DUP1 DUP5 KECCAK256 DUP6 SWAP1 SSTORE PUSH1 0x1 DUP6 ADD DUP7 SSTORE SWAP5 SWAP1 SWAP3 MSTORE DUP5 MLOAD SWAP3 MUL PUSH32 0x36B6384B5ECA791C62761152D0C79BB0604C104A5FB6F4EB0703F3154BB3DB0 DUP2 ADD SWAP3 DUP4 SSTORE DUP2 DUP6 ADD MLOAD PUSH32 0x36B6384B5ECA791C62761152D0C79BB0604C104A5FB6F4EB0703F3154BB3DB1 DUP3 ADD SSTORE SWAP3 DUP5 ADD MLOAD PUSH32 0x36B6384B5ECA791C62761152D0C79BB0604C104A5FB6F4EB0703F3154BB3DB2 DUP5 ADD SSTORE PUSH1 0x60 DUP5 ADD MLOAD PUSH32 0x36B6384B5ECA791C62761152D0C79BB0604C104A5FB6F4EB0703F3154BB3DB3 DUP5 ADD DUP1 SLOAD PUSH1 0x1 PUSH1 0x1 PUSH1 0xA0 SHL SUB SWAP3 DUP4 AND PUSH1 0x1 PUSH1 0x1 PUSH1 0xA0 SHL SUB NOT SWAP2 DUP3 AND OR SWAP1 SWAP2 SSTORE PUSH1 0x80 DUP7 ADD MLOAD PUSH32 0x36B6384B5ECA791C62761152D0C79BB0604C104A5FB6F4EB0703F3154BB3DB4 DUP7 ADD DUP1 SLOAD SWAP2 SWAP1 SWAP4 AND SWAP2 AND OR SWAP1 SSTORE PUSH1 0xA0 DUP5 ADD MLOAD DUP1 MLOAD DUP6 SWAP5 PUSH2 0x9F5 SWAP4 PUSH32 0x36B6384B5ECA791C62761152D0C79BB0604C104A5FB6F4EB0703F3154BB3DB5 SWAP1 SWAP2 ADD SWAP3 ADD SWAP1 PUSH2 0x31E0 JUMP JUMPDEST PUSH0 DUP3 DUP2 MSTORE PUSH1 0xB PUSH1 0x20 MSTORE PUSH1 0x40 DUP2 KECCAK256 SLOAD PUSH1 0xA DUP1 SLOAD DUP4 SWAP3 SWAP1 DUP2 LT PUSH2 0x2FA2 JUMPI PUSH2 0x2FA2 PUSH2 0x36DD JUMP JUMPDEST SWAP1 PUSH0 MSTORE PUSH1 0x20 PUSH0 KECCAK256 SWAP1 PUSH1 0x2 MUL ADD SWAP1 POP PUSH0 DUP2 PUSH1 0x1 ADD DUP1 SLOAD SWAP1 POP GT DUP1 ISZERO PUSH2 0x14B5 JUMPI POP PUSH0 DUP5 DUP2 MSTORE PUSH1 0x9 PUSH1 0x20 SWAP1 DUP2 MSTORE PUSH1 0x40 DUP1 DUP4 KECCAK256 DUP7 DUP5 MSTORE SWAP1 SWAP2 MSTORE SWAP1 KECCAK256 SLOAD PUSH1 0x1 DUP3 ADD DUP1 SLOAD DUP6 SWAP3 SWAP1 DUP2 LT PUSH2 0x2FF1 JUMPI PUSH2 0x2FF1 PUSH2 0x36DD JUMP JUMPDEST SWAP1 PUSH0 MSTORE PUSH1 0x20 PUSH0 KECCAK256 ADD SLOAD EQ SWAP5 SWAP4 POP POP POP POP JUMP JUMPDEST PUSH0 DUP3 DUP2 MSTORE PUSH1 0xB PUSH1 0x20 MSTORE PUSH1 0x40 DUP2 KECCAK256 SLOAD PUSH1 0xA DUP1 SLOAD SWAP1 SWAP2 SWAP1 DUP2 LT PUSH2 0x3026 JUMPI PUSH2 0x3026 PUSH2 0x36DD JUMP JUMPDEST PUSH0 SWAP2 DUP3 MSTORE PUSH1 0x20 DUP1 DUP4 KECCAK256 PUSH1 0x1 PUSH1 0x2 SWAP1 SWAP4 MUL ADD DUP3 ADD DUP1 SLOAD SWAP7 DUP5 MSTORE PUSH1 0x9 DUP3 MSTORE PUSH1 0x40 DUP1 DUP6 KECCAK256 DUP8 DUP7 MSTORE DUP4 MSTORE DUP5 KECCAK256 DUP8 SWAP1 SSTORE SWAP2 DUP7 ADD DUP3 SSTORE SWAP1 DUP3 MSTORE SWAP1 KECCAK256 SWAP1 SWAP3 ADD SSTORE POP JUMP JUMPDEST PUSH0 DUP3 DUP2 MSTORE PUSH1 0xB PUSH1 0x20 MSTORE PUSH1 0x40 DUP2 KECCAK256 SLOAD PUSH1 0xA DUP1 SLOAD SWAP1 SWAP2 SWAP1 DUP2 LT PUSH2 0x3085 JUMPI PUSH2 0x3085 PUSH2 0x36DD JUMP JUMPDEST PUSH0 SWAP2 DUP3 MSTORE PUSH1 0x20 DUP3 KECCAK256 PUSH1 0x1 PUSH1 0x2 SWAP1 SWAP3 MUL ADD DUP2 DUP2 ADD SLOAD SWAP1 SWAP4 POP PUSH2 0x30A6 SWAP2 SWAP1 PUSH2 0x3A2D JUMP JUMPDEST SWAP1 POP PUSH0 DUP3 PUSH1 0x1 ADD DUP3 DUP2 SLOAD DUP2 LT PUSH2 0x30BE JUMPI PUSH2 0x30BE PUSH2 0x36DD JUMP JUMPDEST PUSH0 SWAP2 DUP3 MSTORE PUSH1 0x20 DUP1 DUP4 KECCAK256 SWAP1 SWAP2 ADD SLOAD DUP8 DUP4 MSTORE PUSH1 0x9 DUP3 MSTORE PUSH1 0x40 DUP1 DUP5 KECCAK256 DUP9 DUP6 MSTORE SWAP1 SWAP3 MSTORE SWAP2 KECCAK256 SLOAD PUSH1 0x1 DUP6 ADD DUP1 SLOAD SWAP3 SWAP4 POP SWAP1 SWAP2 DUP4 SWAP2 SWAP1 DUP4 SWAP1 DUP2 LT PUSH2 0x30FE JUMPI PUSH2 0x30FE PUSH2 0x36DD JUMP JUMPDEST PUSH0 SWAP2 DUP3 MSTORE PUSH1 0x20 DUP1 DUP4 KECCAK256 SWAP2 SWAP1 SWAP2 ADD SWAP3 SWAP1 SWAP3 SSTORE DUP8 DUP2 MSTORE PUSH1 0x9 DUP3 MSTORE PUSH1 0x40 DUP1 DUP3 KECCAK256 DUP6 DUP4 MSTORE SWAP1 SWAP3 MSTORE DUP2 DUP2 KECCAK256 DUP4 SWAP1 SSTORE DUP7 DUP2 MSTORE SWAP1 DUP2 KECCAK256 SSTORE PUSH1 0x1 DUP5 ADD DUP1 SLOAD DUP1 PUSH2 0x294A JUMPI PUSH2 0x294A PUSH2 0x3AB3 JUMP JUMPDEST PUSH1 0xA DUP1 SLOAD DUP3 MLOAD PUSH0 SWAP1 DUP2 MSTORE PUSH1 0xB PUSH1 0x20 SWAP1 DUP2 MSTORE PUSH1 0x40 DUP3 KECCAK256 DUP4 SWAP1 SSTORE PUSH1 0x1 DUP4 ADD DUP5 SSTORE SWAP3 SWAP1 MSTORE DUP3 MLOAD PUSH1 0x2 SWAP1 SWAP2 MUL PUSH32 0xC65A7BB8D6351C1CF70C95A316CC6A92839C986682D98BC35F958F4883F9D2A8 DUP2 ADD SWAP2 DUP3 SSTORE DUP3 DUP5 ADD MLOAD DUP1 MLOAD DUP6 SWAP5 PUSH2 0x9F5 SWAP4 PUSH32 0xC65A7BB8D6351C1CF70C95A316CC6A92839C986682D98BC35F958F4883F9D2A9 ADD SWAP3 ADD SWAP1 PUSH2 0x3243 JUMP JUMPDEST POP DUP1 SLOAD PUSH0 DUP3 SSTORE SWAP1 PUSH0 MSTORE PUSH1 0x20 PUSH0 KECCAK256 SWAP1 DUP2 ADD SWAP1 PUSH2 0x1509 SWAP2 SWAP1 PUSH2 0x327C JUMP JUMPDEST DUP3 DUP1 SLOAD DUP3 DUP3 SSTORE SWAP1 PUSH0 MSTORE PUSH1 0x20 PUSH0 KECCAK256 SWAP1 DUP2 ADD SWAP3 DUP3 ISZERO PUSH2 0x3233 JUMPI SWAP2 PUSH1 0x20 MUL DUP3 ADD JUMPDEST DUP3 DUP2 GT ISZERO PUSH2 0x3233 JUMPI DUP3 MLOAD DUP3 SLOAD PUSH1 0x1 PUSH1 0x1 PUSH1 0xA0 SHL SUB NOT AND PUSH1 0x1 PUSH1 0x1 PUSH1 0xA0 SHL SUB SWAP1 SWAP2 AND OR DUP3 SSTORE PUSH1 0x20 SWAP1 SWAP3 ADD SWAP2 PUSH1 0x1 SWAP1 SWAP2 ADD SWAP1 PUSH2 0x31FE JUMP JUMPDEST POP PUSH2 0x323F SWAP3 SWAP2 POP PUSH2 0x327C JUMP JUMPDEST POP SWAP1 JUMP JUMPDEST DUP3 DUP1 SLOAD DUP3 DUP3 SSTORE SWAP1 PUSH0 MSTORE PUSH1 0x20 PUSH0 KECCAK256 SWAP1 DUP2 ADD SWAP3 DUP3 ISZERO PUSH2 0x3233 JUMPI SWAP2 PUSH1 0x20 MUL DUP3 ADD JUMPDEST DUP3 DUP2 GT ISZERO PUSH2 0x3233 JUMPI DUP3 MLOAD DUP3 SSTORE SWAP2 PUSH1 0x20 ADD SWAP2 SWAP1 PUSH1 0x1 ADD SWAP1 PUSH2 0x3261 JUMP JUMPDEST JUMPDEST DUP1 DUP3 GT ISZERO PUSH2 0x323F JUMPI PUSH0 DUP2 SSTORE PUSH1 0x1 ADD PUSH2 0x327D JUMP JUMPDEST PUSH0 DUP1 PUSH1 0x40 DUP4 DUP6 SUB SLT ISZERO PUSH2 0x32A1 JUMPI PUSH0 DUP1 REVERT JUMPDEST POP POP DUP1 CALLDATALOAD SWAP3 PUSH1 0x20 SWAP1 SWAP2 ADD CALLDATALOAD SWAP2 POP JUMP JUMPDEST PUSH1 0x1 PUSH1 0x1 PUSH1 0xE0 SHL SUB NOT DUP2 AND DUP2 EQ PUSH2 0x1509 JUMPI PUSH0 DUP1 REVERT JUMPDEST PUSH0 PUSH1 0x20 DUP3 DUP5 SUB SLT ISZERO PUSH2 0x32D5 JUMPI PUSH0 DUP1 REVERT JUMPDEST DUP2 CALLDATALOAD PUSH2 0xAD2 DUP2 PUSH2 0x32B0 JUMP JUMPDEST PUSH0 JUMPDEST DUP4 DUP2 LT ISZERO PUSH2 0x32FA JUMPI DUP2 DUP2 ADD MLOAD DUP4 DUP3 ADD MSTORE PUSH1 0x20 ADD PUSH2 0x32E2 JUMP JUMPDEST POP POP PUSH0 SWAP2 ADD MSTORE JUMP JUMPDEST PUSH0 DUP2 MLOAD DUP1 DUP5 MSTORE PUSH2 0x3319 DUP2 PUSH1 0x20 DUP7 ADD PUSH1 0x20 DUP7 ADD PUSH2 0x32E0 JUMP JUMPDEST PUSH1 0x1F ADD PUSH1 0x1F NOT AND SWAP3 SWAP1 SWAP3 ADD PUSH1 0x20 ADD SWAP3 SWAP2 POP POP JUMP JUMPDEST PUSH1 0x20 DUP2 MSTORE PUSH0 PUSH2 0xAD2 PUSH1 0x20 DUP4 ADD DUP5 PUSH2 0x3302 JUMP JUMPDEST PUSH0 PUSH1 0x20 DUP3 DUP5 SUB SLT ISZERO PUSH2 0x334F JUMPI PUSH0 DUP1 REVERT JUMPDEST POP CALLDATALOAD SWAP2 SWAP1 POP JUMP JUMPDEST DUP1 CALLDATALOAD PUSH1 0x1 PUSH1 0x1 PUSH1 0xA0 SHL SUB DUP2 AND DUP2 EQ PUSH2 0xED1 JUMPI PUSH0 DUP1 REVERT JUMPDEST PUSH0 DUP1 PUSH1 0x40 DUP4 DUP6 SUB SLT ISZERO PUSH2 0x337D JUMPI PUSH0 DUP1 REVERT JUMPDEST PUSH2 0x3386 DUP4 PUSH2 0x3356 JUMP JUMPDEST SWAP5 PUSH1 0x20 SWAP4 SWAP1 SWAP4 ADD CALLDATALOAD SWAP4 POP POP POP JUMP JUMPDEST PUSH0 DUP1 PUSH0 PUSH1 0x60 DUP5 DUP7 SUB SLT ISZERO PUSH2 0x33A6 JUMPI PUSH0 DUP1 REVERT JUMPDEST DUP4 CALLDATALOAD SWAP3 POP PUSH2 0x33B6 PUSH1 0x20 DUP6 ADD PUSH2 0x3356 JUMP JUMPDEST SWAP2 POP PUSH1 0x40 DUP5 ADD CALLDATALOAD SWAP1 POP SWAP3 POP SWAP3 POP SWAP3 JUMP JUMPDEST PUSH0 DUP1 PUSH0 PUSH1 0x60 DUP5 DUP7 SUB SLT ISZERO PUSH2 0x33D8 JUMPI PUSH0 DUP1 REVERT JUMPDEST PUSH2 0x33E1 DUP5 PUSH2 0x3356 JUMP JUMPDEST SWAP6 PUSH1 0x20 DUP6 ADD CALLDATALOAD SWAP6 POP PUSH1 0x40 SWAP1 SWAP5 ADD CALLDATALOAD SWAP4 SWAP3 POP POP POP JUMP JUMPDEST PUSH0 DUP1 PUSH0 PUSH1 0x60 DUP5 DUP7 SUB SLT ISZERO PUSH2 0x3408 JUMPI PUSH0 DUP1 REVERT JUMPDEST PUSH2 0x3411 DUP5 PUSH2 0x3356 JUMP JUMPDEST SWAP3 POP PUSH2 0x33B6 PUSH1 0x20 DUP6 ADD PUSH2 0x3356 JUMP JUMPDEST PUSH0 DUP1 PUSH0 PUSH1 0x60 DUP5 DUP7 SUB SLT ISZERO PUSH2 0x3431 JUMPI PUSH0 DUP1 REVERT JUMPDEST POP POP DUP2 CALLDATALOAD SWAP4 PUSH1 0x20 DUP4 ADD CALLDATALOAD SWAP4 POP PUSH1 0x40 SWAP1 SWAP3 ADD CALLDATALOAD SWAP2 SWAP1 POP JUMP JUMPDEST DUP1 ISZERO ISZERO DUP2 EQ PUSH2 0x1509 JUMPI PUSH0 DUP1 REVERT JUMPDEST PUSH0 DUP1 PUSH0 DUP1 PUSH1 0x80 DUP6 DUP8 SUB SLT ISZERO PUSH2 0x3468 JUMPI PUSH0 DUP1 REVERT JUMPDEST PUSH2 0x3471 DUP6 PUSH2 0x3356 JUMP JUMPDEST SWAP4 POP PUSH1 0x20 DUP6 ADD CALLDATALOAD SWAP3 POP PUSH2 0x3486 PUSH1 0x40 DUP7 ADD PUSH2 0x3356 JUMP JUMPDEST SWAP2 POP PUSH1 0x60 DUP6 ADD CALLDATALOAD PUSH2 0x3496 DUP2 PUSH2 0x3448 JUMP JUMPDEST SWAP4 SWAP7 SWAP3 SWAP6 POP SWAP1 SWAP4 POP POP JUMP JUMPDEST PUSH4 0x4E487B71 PUSH1 0xE0 SHL PUSH0 MSTORE PUSH1 0x41 PUSH1 0x4 MSTORE PUSH1 0x24 PUSH0 REVERT JUMPDEST PUSH1 0x40 MLOAD PUSH1 0x1F DUP3 ADD PUSH1 0x1F NOT AND DUP2 ADD PUSH8 0xFFFFFFFFFFFFFFFF DUP2 GT DUP3 DUP3 LT OR ISZERO PUSH2 0x34DE JUMPI PUSH2 0x34DE PUSH2 0x34A1 JUMP JUMPDEST PUSH1 0x40 MSTORE SWAP2 SWAP1 POP JUMP JUMPDEST PUSH0 PUSH8 0xFFFFFFFFFFFFFFFF DUP3 GT ISZERO PUSH2 0x34FF JUMPI PUSH2 0x34FF PUSH2 0x34A1 JUMP JUMPDEST POP PUSH1 0x1F ADD PUSH1 0x1F NOT AND PUSH1 0x20 ADD SWAP1 JUMP JUMPDEST PUSH0 PUSH2 0x351F PUSH2 0x351A DUP5 PUSH2 0x34E6 JUMP JUMPDEST PUSH2 0x34B5 JUMP JUMPDEST SWAP1 POP DUP3 DUP2 MSTORE DUP4 DUP4 DUP4 ADD GT ISZERO PUSH2 0x3532 JUMPI PUSH0 DUP1 REVERT JUMPDEST DUP3 DUP3 PUSH1 0x20 DUP4 ADD CALLDATACOPY PUSH0 PUSH1 0x20 DUP5 DUP4 ADD ADD MSTORE SWAP4 SWAP3 POP POP POP JUMP JUMPDEST PUSH0 PUSH1 0x20 DUP3 DUP5 SUB SLT ISZERO PUSH2 0x3558 JUMPI PUSH0 DUP1 REVERT JUMPDEST DUP2 CALLDATALOAD PUSH8 0xFFFFFFFFFFFFFFFF DUP2 GT ISZERO PUSH2 0x356E JUMPI PUSH0 DUP1 REVERT JUMPDEST DUP3 ADD PUSH1 0x1F DUP2 ADD DUP5 SGT PUSH2 0x357E JUMPI PUSH0 DUP1 REVERT JUMPDEST PUSH2 0x14B5 DUP5 DUP3 CALLDATALOAD PUSH1 0x20 DUP5 ADD PUSH2 0x350D JUMP JUMPDEST PUSH0 PUSH1 0x20 DUP3 DUP5 SUB SLT ISZERO PUSH2 0x359D JUMPI PUSH0 DUP1 REVERT JUMPDEST PUSH2 0xAD2 DUP3 PUSH2 0x3356 JUMP JUMPDEST PUSH0 DUP1 PUSH1 0x40 DUP4 DUP6 SUB SLT ISZERO PUSH2 0x35B7 JUMPI PUSH0 DUP1 REVERT JUMPDEST PUSH2 0x35C0 DUP4 PUSH2 0x3356 JUMP JUMPDEST SWAP2 POP PUSH1 0x20 DUP4 ADD CALLDATALOAD PUSH2 0x35D0 DUP2 PUSH2 0x3448 JUMP JUMPDEST DUP1 SWAP2 POP POP SWAP3 POP SWAP3 SWAP1 POP JUMP JUMPDEST PUSH0 DUP1 PUSH0 DUP1 PUSH1 0x80 DUP6 DUP8 SUB SLT ISZERO PUSH2 0x35EE JUMPI PUSH0 DUP1 REVERT JUMPDEST PUSH2 0x35F7 DUP6 PUSH2 0x3356 JUMP JUMPDEST SWAP4 POP PUSH2 0x3605 PUSH1 0x20 DUP7 ADD PUSH2 0x3356 JUMP JUMPDEST SWAP3 POP PUSH1 0x40 DUP6 ADD CALLDATALOAD SWAP2 POP PUSH1 0x60 DUP6 ADD CALLDATALOAD PUSH8 0xFFFFFFFFFFFFFFFF DUP2 GT ISZERO PUSH2 0x3627 JUMPI PUSH0 DUP1 REVERT JUMPDEST DUP6 ADD PUSH1 0x1F DUP2 ADD DUP8 SGT PUSH2 0x3637 JUMPI PUSH0 DUP1 REVERT JUMPDEST PUSH2 0x3646 DUP8 DUP3 CALLDATALOAD PUSH1 0x20 DUP5 ADD PUSH2 0x350D JUMP JUMPDEST SWAP2 POP POP SWAP3 SWAP6 SWAP2 SWAP5 POP SWAP3 POP JUMP JUMPDEST PUSH0 DUP1 PUSH1 0x40 DUP4 DUP6 SUB SLT ISZERO PUSH2 0x3663 JUMPI PUSH0 DUP1 REVERT JUMPDEST DUP3 CALLDATALOAD SWAP2 POP PUSH2 0x3673 PUSH1 0x20 DUP5 ADD PUSH2 0x3356 JUMP JUMPDEST SWAP1 POP SWAP3 POP SWAP3 SWAP1 POP JUMP JUMPDEST PUSH0 DUP1 PUSH0 PUSH1 0x60 DUP5 DUP7 SUB SLT ISZERO PUSH2 0x368E JUMPI PUSH0 DUP1 REVERT JUMPDEST PUSH2 0x3697 DUP5 PUSH2 0x3356 JUMP JUMPDEST SWAP3 POP PUSH1 0x20 DUP5 ADD CALLDATALOAD SWAP2 POP PUSH2 0x36AC PUSH1 0x40 DUP6 ADD PUSH2 0x3356 JUMP JUMPDEST SWAP1 POP SWAP3 POP SWAP3 POP SWAP3 JUMP JUMPDEST PUSH0 DUP1 PUSH1 0x40 DUP4 DUP6 SUB SLT ISZERO PUSH2 0x36C6 JUMPI PUSH0 DUP1 REVERT JUMPDEST PUSH2 0x36CF DUP4 PUSH2 0x3356 JUMP JUMPDEST SWAP2 POP PUSH2 0x3673 PUSH1 0x20 DUP5 ADD PUSH2 0x3356 JUMP JUMPDEST PUSH4 0x4E487B71 PUSH1 0xE0 SHL PUSH0 MSTORE PUSH1 0x32 PUSH1 0x4 MSTORE PUSH1 0x24 PUSH0 REVERT JUMPDEST PUSH1 0x1 DUP2 DUP2 SHR SWAP1 DUP3 AND DUP1 PUSH2 0x3705 JUMPI PUSH1 0x7F DUP3 AND SWAP2 POP JUMPDEST PUSH1 0x20 DUP3 LT DUP2 SUB PUSH2 0x3723 JUMPI PUSH4 0x4E487B71 PUSH1 0xE0 SHL PUSH0 MSTORE PUSH1 0x22 PUSH1 0x4 MSTORE PUSH1 0x24 PUSH0 REVERT JUMPDEST POP SWAP2 SWAP1 POP JUMP JUMPDEST PUSH1 0x20 DUP1 DUP3 MSTORE PUSH1 0x22 SWAP1 DUP3 ADD MSTORE PUSH32 0x455243333532353A20617070726F76616C20746F2063757272656E74206F776E PUSH1 0x40 DUP3 ADD MSTORE PUSH2 0x32B9 PUSH1 0xF1 SHL PUSH1 0x60 DUP3 ADD MSTORE PUSH1 0x80 ADD SWAP1 JUMP JUMPDEST PUSH0 DUP4 MLOAD PUSH2 0x377C DUP2 DUP5 PUSH1 0x20 DUP9 ADD PUSH2 0x32E0 JUMP JUMPDEST PUSH5 0x736C6F742F PUSH1 0xD8 SHL SWAP1 DUP4 ADD SWAP1 DUP2 MSTORE DUP4 MLOAD PUSH2 0x379E DUP2 PUSH1 0x5 DUP5 ADD PUSH1 0x20 DUP9 ADD PUSH2 0x32E0 JUMP JUMPDEST ADD PUSH1 0x5 ADD SWAP5 SWAP4 POP POP POP POP JUMP JUMPDEST PUSH0 PUSH1 0x20 DUP3 DUP5 SUB SLT ISZERO PUSH2 0x37BA JUMPI PUSH0 DUP1 REVERT JUMPDEST DUP2 MLOAD PUSH8 0xFFFFFFFFFFFFFFFF DUP2 GT ISZERO PUSH2 0x37D0 JUMPI PUSH0 DUP1 REVERT JUMPDEST DUP3 ADD PUSH1 0x1F DUP2 ADD DUP5 SGT PUSH2 0x37E0 JUMPI PUSH0 DUP1 REVERT JUMPDEST DUP1 MLOAD PUSH2 0x37EE PUSH2 0x351A DUP3 PUSH2 0x34E6 JUMP JUMPDEST DUP2 DUP2 MSTORE DUP6 PUSH1 0x20 DUP4 DUP6 ADD ADD GT ISZERO PUSH2 0x3802 JUMPI PUSH0 DUP1 REVERT JUMPDEST PUSH2 0x1CB5 DUP3 PUSH1 0x20 DUP4 ADD PUSH1 0x20 DUP7 ADD PUSH2 0x32E0 JUMP JUMPDEST PUSH1 0x20 DUP1 DUP3 MSTORE PUSH1 0x32 SWAP1 DUP3 ADD MSTORE PUSH32 0x455243333532353A207472616E736665722063616C6C6572206973206E6F7420 PUSH1 0x40 DUP3 ADD MSTORE PUSH18 0x1BDDDB995C881B9BDC88185C1C1C9BDD9959 PUSH1 0x72 SHL PUSH1 0x60 DUP3 ADD MSTORE PUSH1 0x80 ADD SWAP1 JUMP JUMPDEST PUSH1 0x1F DUP3 GT ISZERO PUSH2 0xB53 JUMPI PUSH0 DUP2 DUP2 MSTORE PUSH1 0x20 DUP2 KECCAK256 PUSH1 0x1F DUP6 ADD PUSH1 0x5 SHR DUP2 ADD PUSH1 0x20 DUP7 LT ISZERO PUSH2 0x388B JUMPI POP DUP1 JUMPDEST PUSH1 0x1F DUP6 ADD PUSH1 0x5 SHR DUP3 ADD SWAP2 POP JUMPDEST DUP2 DUP2 LT ISZERO PUSH2 0x2486 JUMPI DUP3 DUP2 SSTORE PUSH1 0x1 ADD PUSH2 0x3897 JUMP JUMPDEST DUP2 MLOAD PUSH8 0xFFFFFFFFFFFFFFFF DUP2 GT ISZERO PUSH2 0x38C4 JUMPI PUSH2 0x38C4 PUSH2 0x34A1 JUMP JUMPDEST PUSH2 0x38D8 DUP2 PUSH2 0x38D2 DUP5 SLOAD PUSH2 0x36F1 JUMP JUMPDEST DUP5 PUSH2 0x3865 JUMP JUMPDEST PUSH1 0x20 DUP1 PUSH1 0x1F DUP4 GT PUSH1 0x1 DUP2 EQ PUSH2 0x390B JUMPI PUSH0 DUP5 ISZERO PUSH2 0x38F4 JUMPI POP DUP6 DUP4 ADD MLOAD JUMPDEST PUSH0 NOT PUSH1 0x3 DUP7 SWAP1 SHL SHR NOT AND PUSH1 0x1 DUP6 SWAP1 SHL OR DUP6 SSTORE PUSH2 0x2486 JUMP JUMPDEST PUSH0 DUP6 DUP2 MSTORE PUSH1 0x20 DUP2 KECCAK256 PUSH1 0x1F NOT DUP7 AND SWAP2 JUMPDEST DUP3 DUP2 LT ISZERO PUSH2 0x3939 JUMPI DUP9 DUP7 ADD MLOAD DUP3 SSTORE SWAP5 DUP5 ADD SWAP5 PUSH1 0x1 SWAP1 SWAP2 ADD SWAP1 DUP5 ADD PUSH2 0x391A JUMP JUMPDEST POP DUP6 DUP3 LT ISZERO PUSH2 0x3956 JUMPI DUP8 DUP6 ADD MLOAD PUSH0 NOT PUSH1 0x3 DUP9 SWAP1 SHL PUSH1 0xF8 AND SHR NOT AND DUP2 SSTORE JUMPDEST POP POP POP POP POP PUSH1 0x1 SWAP1 DUP2 SHL ADD SWAP1 SSTORE POP JUMP JUMPDEST PUSH4 0x4E487B71 PUSH1 0xE0 SHL PUSH0 MSTORE PUSH1 0x11 PUSH1 0x4 MSTORE PUSH1 0x24 PUSH0 REVERT JUMPDEST DUP1 DUP3 ADD DUP1 DUP3 GT ISZERO PUSH2 0x7FB JUMPI PUSH2 0x7FB PUSH2 0x3966 JUMP JUMPDEST PUSH0 PUSH1 0x1 DUP3 ADD PUSH2 0x399E JUMPI PUSH2 0x399E PUSH2 0x3966 JUMP JUMPDEST POP PUSH1 0x1 ADD SWAP1 JUMP JUMPDEST PUSH0 DUP4 MLOAD PUSH2 0x39B6 DUP2 DUP5 PUSH1 0x20 DUP9 ADD PUSH2 0x32E0 JUMP JUMPDEST DUP4 MLOAD SWAP1 DUP4 ADD SWAP1 PUSH2 0x39CA DUP2 DUP4 PUSH1 0x20 DUP9 ADD PUSH2 0x32E0 JUMP JUMPDEST ADD SWAP5 SWAP4 POP POP POP POP JUMP JUMPDEST PUSH0 DUP4 MLOAD PUSH2 0x39E4 DUP2 DUP5 PUSH1 0x20 DUP9 ADD PUSH2 0x32E0 JUMP JUMPDEST PUSH9 0x636F6E74726163742F PUSH1 0xB8 SHL SWAP1 DUP4 ADD SWAP1 DUP2 MSTORE DUP4 MLOAD PUSH2 0x3A0A DUP2 PUSH1 0x9 DUP5 ADD PUSH1 0x20 DUP9 ADD PUSH2 0x32E0 JUMP JUMPDEST ADD PUSH1 0x9 ADD SWAP5 SWAP4 POP POP POP POP JUMP JUMPDEST PUSH0 PUSH1 0x20 DUP3 DUP5 SUB SLT ISZERO PUSH2 0x3A26 JUMPI PUSH0 DUP1 REVERT JUMPDEST POP MLOAD SWAP2 SWAP1 POP JUMP JUMPDEST DUP2 DUP2 SUB DUP2 DUP2 GT ISZERO PUSH2 0x7FB JUMPI PUSH2 0x7FB PUSH2 0x3966 JUMP JUMPDEST PUSH0 PUSH1 0x20 DUP3 DUP5 SUB SLT ISZERO PUSH2 0x3A50 JUMPI PUSH0 DUP1 REVERT JUMPDEST DUP2 MLOAD PUSH2 0xAD2 DUP2 PUSH2 0x3448 JUMP JUMPDEST PUSH1 0x1 DUP1 PUSH1 0xA0 SHL SUB DUP7 AND DUP2 MSTORE DUP5 PUSH1 0x20 DUP3 ADD MSTORE DUP4 PUSH1 0x40 DUP3 ADD MSTORE DUP3 PUSH1 0x60 DUP3 ADD MSTORE PUSH1 0xA0 PUSH1 0x80 DUP3 ADD MSTORE PUSH0 PUSH2 0x3A8D PUSH1 0xA0 DUP4 ADD DUP5 PUSH2 0x3302 JUMP JUMPDEST SWAP8 SWAP7 POP POP POP POP POP POP POP JUMP JUMPDEST PUSH0 PUSH1 0x20 DUP3 DUP5 SUB SLT ISZERO PUSH2 0x3AA8 JUMPI PUSH0 DUP1 REVERT JUMPDEST DUP2 MLOAD PUSH2 0xAD2 DUP2 PUSH2 0x32B0 JUMP JUMPDEST PUSH4 0x4E487B71 PUSH1 0xE0 SHL PUSH0 MSTORE PUSH1 0x31 PUSH1 0x4 MSTORE PUSH1 0x24 PUSH0 REVERT JUMPDEST PUSH1 0x1 PUSH1 0x1 PUSH1 0xA0 SHL SUB DUP6 DUP2 AND DUP3 MSTORE DUP5 AND PUSH1 0x20 DUP3 ADD MSTORE PUSH1 0x40 DUP2 ADD DUP4 SWAP1 MSTORE PUSH1 0x80 PUSH1 0x60 DUP3 ADD DUP2 SWAP1 MSTORE PUSH0 SWAP1 PUSH2 0x3AF9 SWAP1 DUP4 ADD DUP5 PUSH2 0x3302 JUMP JUMPDEST SWAP7 SWAP6 POP POP POP POP POP POP JUMP JUMPDEST DUP1 DUP3 MUL DUP2 ISZERO DUP3 DUP3 DIV DUP5 EQ OR PUSH2 0x7FB JUMPI PUSH2 0x7FB PUSH2 0x3966 JUMP JUMPDEST PUSH0 DUP2 PUSH2 0x3B28 JUMPI PUSH2 0x3B28 PUSH2 0x3966 JUMP JUMPDEST POP PUSH0 NOT ADD SWAP1 JUMP INVALID LOG2 PUSH5 0x6970667358 0x22 SLT KECCAK256 DUP12 PUSH27 0x2551BF5241B64867F62CCA2B1A516EF636538B6398A94A253A1FA1 PUSH13 0x7B7A64736F6C63430008140033 "
		},
		"gasEstimates": {
			"creation": {
				"codeDepositCost": "3041000",
				"executionCost": "infinite",
				"totalCost": "infinite"
			},
			"external": {
				"allowance(uint256,address)": "11443",
				"approve(address,uint256)": "infinite",
				"approve(uint256,address,uint256)": "infinite",
				"balanceOf(address)": "2664",
				"balanceOf(uint256)": "15574",
				"baseURI()": "infinite",
				"contractURI()": "infinite",
				"getApproved(uint256)": "15611",
				"isApprovedForAll(address,address)": "infinite",
				"isApprovedForSlot(address,uint256,address)": "infinite",
				"metadataDescriptor()": "2470",
				"mint(address,uint256,uint256)": "infinite",
				"mintValue(uint256,uint256)": "infinite",
				"name()": "infinite",
				"owner()": "2397",
				"ownerOf(uint256)": "15591",
				"renounceOwnership()": "infinite",
				"safeTransferFrom(address,address,uint256)": "infinite",
				"safeTransferFrom(address,address,uint256,bytes)": "infinite",
				"setApprovalForAll(address,bool)": "26775",
				"setApprovalForSlot(address,uint256,address,bool)": "infinite",
				"setBaseURI(string)": "infinite",
				"slotAmount(uint256)": "infinite",
				"slotByIndex(uint256)": "6826",
				"slotCount()": "2368",
				"slotOf(uint256)": "15487",
				"slotURI(uint256)": "infinite",
				"supportsInterface(bytes4)": "infinite",
				"symbol()": "infinite",
				"tokenByIndex(uint256)": "6760",
				"tokenInSlotByIndex(uint256,uint256)": "24204",
				"tokenIncome(uint256)": "infinite",
				"tokenOfOwnerByIndex(address,uint256)": "7098",
				"tokenSupplyInSlot(uint256)": "15486",
				"tokenURI(uint256)": "infinite",
				"totalSupply()": "2392",
				"transferFrom(address,address,uint256)": "infinite",
				"transferFrom(uint256,address,uint256)": "infinite",
				"transferFrom(uint256,uint256,uint256)": "infinite",
				"transferOwnership(address)": "28487",
				"valueDecimals()": "2400"
			},
			"internal": {
				"_baseURI()": "infinite"
			}
		},
		"methodIdentifiers": {
			"allowance(uint256,address)": "e345e0bc",
			"approve(address,uint256)": "095ea7b3",
			"approve(uint256,address,uint256)": "8cb0a511",
			"balanceOf(address)": "70a08231",
			"balanceOf(uint256)": "9cc7f708",
			"baseURI()": "6c0360eb",
			"contractURI()": "e8a3d485",
			"getApproved(uint256)": "081812fc",
			"isApprovedForAll(address,address)": "e985e9c5",
			"isApprovedForSlot(address,uint256,address)": "e345f05e",
			"metadataDescriptor()": "840f7113",
			"mint(address,uint256,uint256)": "156e29f6",
			"mintValue(uint256,uint256)": "f0e88e7f",
			"name()": "06fdde03",
			"owner()": "8da5cb5b",
			"ownerOf(uint256)": "6352211e",
			"renounceOwnership()": "715018a6",
			"safeTransferFrom(address,address,uint256)": "42842e0e",
			"safeTransferFrom(address,address,uint256,bytes)": "b88d4fde",
			"setApprovalForAll(address,bool)": "a22cb465",
			"setApprovalForSlot(address,uint256,address,bool)": "55cd4e06",
			"setBaseURI(string)": "55f804b3",
			"slotAmount(uint256)": "5a3c7da7",
			"slotByIndex(uint256)": "993bef8d",
			"slotCount()": "ed08fa80",
			"slotOf(uint256)": "263f3e7e",
			"slotURI(uint256)": "09c3dd87",
			"supportsInterface(bytes4)": "01ffc9a7",
			"symbol()": "95d89b41",
			"tokenByIndex(uint256)": "4f6ccce7",
			"tokenInSlotByIndex(uint256,uint256)": "00cd0110",
			"tokenIncome(uint256)": "f0db6753",
			"tokenOfOwnerByIndex(address,uint256)": "2f745c59",
			"tokenSupplyInSlot(uint256)": "4f8a0f83",
			"tokenURI(uint256)": "c87b56dd",
			"totalSupply()": "18160ddd",
			"transferFrom(address,address,uint256)": "23b872dd",
			"transferFrom(uint256,address,uint256)": "0f485c02",
			"transferFrom(uint256,uint256,uint256)": "310ed7f0",
			"transferOwnership(address)": "f2fde38b",
			"valueDecimals()": "3e7e8669"
		}
	},
	"abi": [
		{
			"inputs": [
				{
					"internalType": "address",
					"name": "owner_",
					"type": "address"
				},
				{
					"internalType": "string",
					"name": "name_",
					"type": "string"
				},
				{
					"internalType": "string",
					"name": "symbol_",
					"type": "string"
				}
			],
			"stateMutability": "nonpayable",
			"type": "constructor"
		},
		{
			"inputs": [
				{
					"internalType": "address",
					"name": "owner",
					"type": "address"
				}
			],
			"name": "OwnableInvalidOwner",
			"type": "error"
		},
		{
			"inputs": [
				{
					"internalType": "address",
					"name": "account",
					"type": "address"
				}
			],
			"name": "OwnableUnauthorizedAccount",
			"type": "error"
		},
		{
			"inputs": [
				{
					"internalType": "uint256",
					"name": "value",
					"type": "uint256"
				},
				{
					"internalType": "uint256",
					"name": "length",
					"type": "uint256"
				}
			],
			"name": "StringsInsufficientHexLength",
			"type": "error"
		},
		{
			"anonymous": false,
			"inputs": [
				{
					"indexed": true,
					"internalType": "address",
					"name": "_owner",
					"type": "address"
				},
				{
					"indexed": true,
					"internalType": "address",
					"name": "_approved",
					"type": "address"
				},
				{
					"indexed": true,
					"internalType": "uint256",
					"name": "_tokenId",
					"type": "uint256"
				}
			],
			"name": "Approval",
			"type": "event"
		},
		{
			"anonymous": false,
			"inputs": [
				{
					"indexed": true,
					"internalType": "address",
					"name": "_owner",
					"type": "address"
				},
				{
					"indexed": true,
					"internalType": "address",
					"name": "_operator",
					"type": "address"
				},
				{
					"indexed": false,
					"internalType": "bool",
					"name": "_approved",
					"type": "bool"
				}
			],
			"name": "ApprovalForAll",
			"type": "event"
		},
		{
			"anonymous": false,
			"inputs": [
				{
					"indexed": true,
					"internalType": "address",
					"name": "_owner",
					"type": "address"
				},
				{
					"indexed": true,
					"internalType": "uint256",
					"name": "_slot",
					"type": "uint256"
				},
				{
					"indexed": true,
					"internalType": "address",
					"name": "_operator",
					"type": "address"
				},
				{
					"indexed": false,
					"internalType": "bool",
					"name": "_approved",
					"type": "bool"
				}
			],
			"name": "ApprovalForSlot",
			"type": "event"
		},
		{
			"anonymous": false,
			"inputs": [
				{
					"indexed": true,
					"internalType": "uint256",
					"name": "_tokenId",
					"type": "uint256"
				},
				{
					"indexed": true,
					"internalType": "address",
					"name": "_operator",
					"type": "address"
				},
				{
					"indexed": false,
					"internalType": "uint256",
					"name": "_value",
					"type": "uint256"
				}
			],
			"name": "ApprovalValue",
			"type": "event"
		},
		{
			"anonymous": false,
			"inputs": [
				{
					"indexed": true,
					"internalType": "address",
					"name": "previousOwner",
					"type": "address"
				},
				{
					"indexed": true,
					"internalType": "address",
					"name": "newOwner",
					"type": "address"
				}
			],
			"name": "OwnershipTransferred",
			"type": "event"
		},
		{
			"anonymous": false,
			"inputs": [
				{
					"indexed": true,
					"internalType": "address",
					"name": "metadataDescriptor",
					"type": "address"
				}
			],
			"name": "SetMetadataDescriptor",
			"type": "event"
		},
		{
			"anonymous": false,
			"inputs": [
				{
					"indexed": true,
					"internalType": "uint256",
					"name": "_tokenId",
					"type": "uint256"
				},
				{
					"indexed": true,
					"internalType": "uint256",
					"name": "_oldSlot",
					"type": "uint256"
				},
				{
					"indexed": true,
					"internalType": "uint256",
					"name": "_newSlot",
					"type": "uint256"
				}
			],
			"name": "SlotChanged",
			"type": "event"
		},
		{
			"anonymous": false,
			"inputs": [
				{
					"indexed": true,
					"internalType": "address",
					"name": "_from",
					"type": "address"
				},
				{
					"indexed": true,
					"internalType": "address",
					"name": "_to",
					"type": "address"
				},
				{
					"indexed": true,
					"internalType": "uint256",
					"name": "_tokenId",
					"type": "uint256"
				}
			],
			"name": "Transfer",
			"type": "event"
		},
		{
			"anonymous": false,
			"inputs": [
				{
					"indexed": true,
					"internalType": "uint256",
					"name": "_fromTokenId",
					"type": "uint256"
				},
				{
					"indexed": true,
					"internalType": "uint256",
					"name": "_toTokenId",
					"type": "uint256"
				},
				{
					"indexed": false,
					"internalType": "uint256",
					"name": "_value",
					"type": "uint256"
				}
			],
			"name": "TransferValue",
			"type": "event"
		},
		{
			"inputs": [
				{
					"internalType": "uint256",
					"name": "tokenId_",
					"type": "uint256"
				},
				{
					"internalType": "address",
					"name": "operator_",
					"type": "address"
				}
			],
			"name": "allowance",
			"outputs": [
				{
					"internalType": "uint256",
					"name": "",
					"type": "uint256"
				}
			],
			"stateMutability": "view",
			"type": "function"
		},
		{
			"inputs": [
				{
					"internalType": "address",
					"name": "to_",
					"type": "address"
				},
				{
					"internalType": "uint256",
					"name": "tokenId_",
					"type": "uint256"
				}
			],
			"name": "approve",
			"outputs": [],
			"stateMutability": "payable",
			"type": "function"
		},
		{
			"inputs": [
				{
					"internalType": "uint256",
					"name": "tokenId_",
					"type": "uint256"
				},
				{
					"internalType": "address",
					"name": "to_",
					"type": "address"
				},
				{
					"internalType": "uint256",
					"name": "value_",
					"type": "uint256"
				}
			],
			"name": "approve",
			"outputs": [],
			"stateMutability": "payable",
			"type": "function"
		},
		{
			"inputs": [
				{
					"internalType": "address",
					"name": "owner_",
					"type": "address"
				}
			],
			"name": "balanceOf",
			"outputs": [
				{
					"internalType": "uint256",
					"name": "balance",
					"type": "uint256"
				}
			],
			"stateMutability": "view",
			"type": "function"
		},
		{
			"inputs": [
				{
					"internalType": "uint256",
					"name": "tokenId_",
					"type": "uint256"
				}
			],
			"name": "balanceOf",
			"outputs": [
				{
					"internalType": "uint256",
					"name": "",
					"type": "uint256"
				}
			],
			"stateMutability": "view",
			"type": "function"
		},
		{
			"inputs": [],
			"name": "baseURI",
			"outputs": [
				{
					"internalType": "string",
					"name": "",
					"type": "string"
				}
			],
			"stateMutability": "view",
			"type": "function"
		},
		{
			"inputs": [],
			"name": "contractURI",
			"outputs": [
				{
					"internalType": "string",
					"name": "",
					"type": "string"
				}
			],
			"stateMutability": "view",
			"type": "function"
		},
		{
			"inputs": [
				{
					"internalType": "uint256",
					"name": "tokenId_",
					"type": "uint256"
				}
			],
			"name": "getApproved",
			"outputs": [
				{
					"internalType": "address",
					"name": "",
					"type": "address"
				}
			],
			"stateMutability": "view",
			"type": "function"
		},
		{
			"inputs": [
				{
					"internalType": "address",
					"name": "owner_",
					"type": "address"
				},
				{
					"internalType": "address",
					"name": "operator_",
					"type": "address"
				}
			],
			"name": "isApprovedForAll",
			"outputs": [
				{
					"internalType": "bool",
					"name": "",
					"type": "bool"
				}
			],
			"stateMutability": "view",
			"type": "function"
		},
		{
			"inputs": [
				{
					"internalType": "address",
					"name": "owner_",
					"type": "address"
				},
				{
					"internalType": "uint256",
					"name": "slot_",
					"type": "uint256"
				},
				{
					"internalType": "address",
					"name": "operator_",
					"type": "address"
				}
			],
			"name": "isApprovedForSlot",
			"outputs": [
				{
					"internalType": "bool",
					"name": "",
					"type": "bool"
				}
			],
			"stateMutability": "view",
			"type": "function"
		},
		{
			"inputs": [],
			"name": "metadataDescriptor",
			"outputs": [
				{
					"internalType": "contract IERC3525MetadataDescriptor",
					"name": "",
					"type": "address"
				}
			],
			"stateMutability": "view",
			"type": "function"
		},
		{
			"inputs": [
				{
					"internalType": "address",
					"name": "mintTo_",
					"type": "address"
				},
				{
					"internalType": "uint256",
					"name": "slot_",
					"type": "uint256"
				},
				{
					"internalType": "uint256",
					"name": "value_",
					"type": "uint256"
				}
			],
			"name": "mint",
			"outputs": [],
			"stateMutability": "nonpayable",
			"type": "function"
		},
		{
			"inputs": [
				{
					"internalType": "uint256",
					"name": "tokenId_",
					"type": "uint256"
				},
				{
					"internalType": "uint256",
					"name": "value_",
					"type": "uint256"
				}
			],
			"name": "mintValue",
			"outputs": [],
			"stateMutability": "nonpayable",
			"type": "function"
		},
		{
			"inputs": [],
			"name": "name",
			"outputs": [
				{
					"internalType": "string",
					"name": "",
					"type": "string"
				}
			],
			"stateMutability": "view",
			"type": "function"
		},
		{
			"inputs": [],
			"name": "owner",
			"outputs": [
				{
					"internalType": "address",
					"name": "",
					"type": "address"
				}
			],
			"stateMutability": "view",
			"type": "function"
		},
		{
			"inputs": [
				{
					"internalType": "uint256",
					"name": "tokenId_",
					"type": "uint256"
				}
			],
			"name": "ownerOf",
			"outputs": [
				{
					"internalType": "address",
					"name": "owner_",
					"type": "address"
				}
			],
			"stateMutability": "view",
			"type": "function"
		},
		{
			"inputs": [],
			"name": "renounceOwnership",
			"outputs": [],
			"stateMutability": "nonpayable",
			"type": "function"
		},
		{
			"inputs": [
				{
					"internalType": "address",
					"name": "from_",
					"type": "address"
				},
				{
					"internalType": "address",
					"name": "to_",
					"type": "address"
				},
				{
					"internalType": "uint256",
					"name": "tokenId_",
					"type": "uint256"
				}
			],
			"name": "safeTransferFrom",
			"outputs": [],
			"stateMutability": "payable",
			"type": "function"
		},
		{
			"inputs": [
				{
					"internalType": "address",
					"name": "from_",
					"type": "address"
				},
				{
					"internalType": "address",
					"name": "to_",
					"type": "address"
				},
				{
					"internalType": "uint256",
					"name": "tokenId_",
					"type": "uint256"
				},
				{
					"internalType": "bytes",
					"name": "data_",
					"type": "bytes"
				}
			],
			"name": "safeTransferFrom",
			"outputs": [],
			"stateMutability": "payable",
			"type": "function"
		},
		{
			"inputs": [
				{
					"internalType": "address",
					"name": "operator_",
					"type": "address"
				},
				{
					"internalType": "bool",
					"name": "approved_",
					"type": "bool"
				}
			],
			"name": "setApprovalForAll",
			"outputs": [],
			"stateMutability": "nonpayable",
			"type": "function"
		},
		{
			"inputs": [
				{
					"internalType": "address",
					"name": "owner_",
					"type": "address"
				},
				{
					"internalType": "uint256",
					"name": "slot_",
					"type": "uint256"
				},
				{
					"internalType": "address",
					"name": "operator_",
					"type": "address"
				},
				{
					"internalType": "bool",
					"name": "approved_",
					"type": "bool"
				}
			],
			"name": "setApprovalForSlot",
			"outputs": [],
			"stateMutability": "payable",
			"type": "function"
		},
		{
			"inputs": [
				{
					"internalType": "string",
					"name": "newuri",
					"type": "string"
				}
			],
			"name": "setBaseURI",
			"outputs": [],
			"stateMutability": "nonpayable",
			"type": "function"
		},
		{
			"inputs": [
				{
					"internalType": "uint256",
					"name": "sft_slot",
					"type": "uint256"
				}
			],
			"name": "slotAmount",
			"outputs": [
				{
					"internalType": "uint256",
					"name": "",
					"type": "uint256"
				}
			],
			"stateMutability": "view",
			"type": "function"
		},
		{
			"inputs": [
				{
					"internalType": "uint256",
					"name": "index_",
					"type": "uint256"
				}
			],
			"name": "slotByIndex",
			"outputs": [
				{
					"internalType": "uint256",
					"name": "",
					"type": "uint256"
				}
			],
			"stateMutability": "view",
			"type": "function"
		},
		{
			"inputs": [],
			"name": "slotCount",
			"outputs": [
				{
					"internalType": "uint256",
					"name": "",
					"type": "uint256"
				}
			],
			"stateMutability": "view",
			"type": "function"
		},
		{
			"inputs": [
				{
					"internalType": "uint256",
					"name": "tokenId_",
					"type": "uint256"
				}
			],
			"name": "slotOf",
			"outputs": [
				{
					"internalType": "uint256",
					"name": "",
					"type": "uint256"
				}
			],
			"stateMutability": "view",
			"type": "function"
		},
		{
			"inputs": [
				{
					"internalType": "uint256",
					"name": "slot_",
					"type": "uint256"
				}
			],
			"name": "slotURI",
			"outputs": [
				{
					"internalType": "string",
					"name": "",
					"type": "string"
				}
			],
			"stateMutability": "view",
			"type": "function"
		},
		{
			"inputs": [
				{
					"internalType": "bytes4",
					"name": "interfaceId",
					"type": "bytes4"
				}
			],
			"name": "supportsInterface",
			"outputs": [
				{
					"internalType": "bool",
					"name": "",
					"type": "bool"
				}
			],
			"stateMutability": "view",
			"type": "function"
		},
		{
			"inputs": [],
			"name": "symbol",
			"outputs": [
				{
					"internalType": "string",
					"name": "",
					"type": "string"
				}
			],
			"stateMutability": "view",
			"type": "function"
		},
		{
			"inputs": [
				{
					"internalType": "uint256",
					"name": "index_",
					"type": "uint256"
				}
			],
			"name": "tokenByIndex",
			"outputs": [
				{
					"internalType": "uint256",
					"name": "",
					"type": "uint256"
				}
			],
			"stateMutability": "view",
			"type": "function"
		},
		{
			"inputs": [
				{
					"internalType": "uint256",
					"name": "slot_",
					"type": "uint256"
				},
				{
					"internalType": "uint256",
					"name": "index_",
					"type": "uint256"
				}
			],
			"name": "tokenInSlotByIndex",
			"outputs": [
				{
					"internalType": "uint256",
					"name": "",
					"type": "uint256"
				}
			],
			"stateMutability": "view",
			"type": "function"
		},
		{
			"inputs": [
				{
					"internalType": "uint256",
					"name": "token_id",
					"type": "uint256"
				}
			],
			"name": "tokenIncome",
			"outputs": [
				{
					"internalType": "uint256",
					"name": "",
					"type": "uint256"
				}
			],
			"stateMutability": "view",
			"type": "function"
		},
		{
			"inputs": [
				{
					"internalType": "address",
					"name": "owner_",
					"type": "address"
				},
				{
					"internalType": "uint256",
					"name": "index_",
					"type": "uint256"
				}
			],
			"name": "tokenOfOwnerByIndex",
			"outputs": [
				{
					"internalType": "uint256",
					"name": "",
					"type": "uint256"
				}
			],
			"stateMutability": "view",
			"type": "function"
		},
		{
			"inputs": [
				{
					"internalType": "uint256",
					"name": "slot_",
					"type": "uint256"
				}
			],
			"name": "tokenSupplyInSlot",
			"outputs": [
				{
					"internalType": "uint256",
					"name": "",
					"type": "uint256"
				}
			],
			"stateMutability": "view",
			"type": "function"
		},
		{
			"inputs": [
				{
					"internalType": "uint256",
					"name": "tokenId_",
					"type": "uint256"
				}
			],
			"name": "tokenURI",
			"outputs": [
				{
					"internalType": "string",
					"name": "",
					"type": "string"
				}
			],
			"stateMutability": "view",
			"type": "function"
		},
		{
			"inputs": [],
			"name": "totalSupply",
			"outputs": [
				{
					"internalType": "uint256",
					"name": "",
					"type": "uint256"
				}
			],
			"stateMutability": "view",
			"type": "function"
		},
		{
			"inputs": [
				{
					"internalType": "uint256",
					"name": "fromTokenId_",
					"type": "uint256"
				},
				{
					"internalType": "address",
					"name": "to_",
					"type": "address"
				},
				{
					"internalType": "uint256",
					"name": "value_",
					"type": "uint256"
				}
			],
			"name": "transferFrom",
			"outputs": [
				{
					"internalType": "uint256",
					"name": "newTokenId",
					"type": "uint256"
				}
			],
			"stateMutability": "payable",
			"type": "function"
		},
		{
			"inputs": [
				{
					"internalType": "address",
					"name": "from_",
					"type": "address"
				},
				{
					"internalType": "address",
					"name": "to_",
					"type": "address"
				},
				{
					"internalType": "uint256",
					"name": "tokenId_",
					"type": "uint256"
				}
			],
			"name": "transferFrom",
			"outputs": [],
			"stateMutability": "payable",
			"type": "function"
		},
		{
			"inputs": [
				{
					"internalType": "uint256",
					"name": "fromTokenId_",
					"type": "uint256"
				},
				{
					"internalType": "uint256",
					"name": "toTokenId_",
					"type": "uint256"
				},
				{
					"internalType": "uint256",
					"name": "value_",
					"type": "uint256"
				}
			],
			"name": "transferFrom",
			"outputs": [],
			"stateMutability": "payable",
			"type": "function"
		},
		{
			"inputs": [
				{
					"internalType": "address",
					"name": "newOwner",
					"type": "address"
				}
			],
			"name": "transferOwnership",
			"outputs": [],
			"stateMutability": "nonpayable",
			"type": "function"
		},
		{
			"inputs": [],
			"name": "valueDecimals",
			"outputs": [
				{
					"internalType": "uint8",
					"name": "",
					"type": "uint8"
				}
			],
			"stateMutability": "view",
			"type": "function"
		}
	]
}