{
	"data": {
		"bytecode": {
			"linkReferences": {},
			"object": "608060405234801562000010575f80fd5b5060405162003d6338038062003d638339810160408190526200003391620001d0565b600160035582828260128282828282825f620000508482620002e0565b5060016200005f8382620002e0565b506002805460ff191660ff929092169190911790555050506001600160a01b0386169450620000ac935050505057604051631e4fbdf760e01b81525f600482015260240160405180910390fd5b620000b781620000c1565b50505050620003a8565b600d80546001600160a01b038381166001600160a01b0319831681179093556040519116919082907f8be0079c531659141344cd1fd0a4f28419497f9722a3daafe3b4186f6b6457e0905f90a35050565b634e487b7160e01b5f52604160045260245ffd5b5f82601f83011262000136575f80fd5b81516001600160401b038082111562000153576200015362000112565b604051601f8301601f19908116603f011681019082821181831017156200017e576200017e62000112565b816040528381526020925086838588010111156200019a575f80fd5b5f91505b83821015620001bd57858201830151818301840152908201906200019e565b5f93810190920192909252949350505050565b5f805f60608486031215620001e3575f80fd5b83516001600160a01b0381168114620001fa575f80fd5b60208501519093506001600160401b038082111562000217575f80fd5b620002258783880162000126565b935060408601519150808211156200023b575f80fd5b506200024a8682870162000126565b9150509250925092565b600181811c908216806200026957607f821691505b6020821081036200028857634e487b7160e01b5f52602260045260245ffd5b50919050565b601f821115620002db575f81815260208120601f850160051c81016020861015620002b65750805b601f850160051c820191505b81811015620002d757828155600101620002c2565b5050505b505050565b81516001600160401b03811115620002fc57620002fc62000112565b62000314816200030d845462000254565b846200028e565b602080601f8311600181146200034a575f8415620003325750858301515b5f19600386901b1c1916600185901b178555620002d7565b5f85815260208120601f198616915b828110156200037a5788860151825594840194600190910190840162000359565b50858210156200039857878501515f19600388901b60f8161c191681555b5050505050600190811b01905550565b6139ad80620003b65f395ff3fe608060405260043610610232575f3560e01c80636352211e11610129578063a22cb465116100a8578063e8a3d4851161006d578063e8a3d4851461061b578063e985e9c51461062f578063ed08fa801461064e578063f0e88e7f14610662578063f2fde38b14610681575f80fd5b8063a22cb4651461058c578063b88d4fde146105ab578063c87b56dd146105be578063e345e0bc146105dd578063e345f05e146105fc575f80fd5b80638cb0a511116100ee5780638cb0a5111461050a5780638da5cb5b1461051d57806395d89b411461053a578063993bef8d1461054e5780639cc7f7081461056d575f80fd5b80636352211e146104855780636c0360eb146104a457806370a08231146104b8578063715018a6146104d7578063840f7113146104eb575f80fd5b8063263f3e7e116101b55780634f6ccce71161017a5780634f6ccce7146103f65780634f8a0f831461041557806355cd4e061461043457806355f804b3146104475780635a3c7da714610466575f80fd5b8063263f3e7e146103715780632f745c5914610390578063310ed7f0146103af5780633e7e8669146103c257806342842e0e146103e3575f80fd5b806309c3dd87116101fb57806309c3dd87146102f95780630f485c0214610318578063156e29f61461032b57806318160ddd1461034a57806323b872dd1461035e575f80fd5b8062cd01101461023657806301ffc9a71461026857806306fdde0314610297578063081812fc146102b8578063095ea7b3146102e4575b5f80fd5b348015610241575f80fd5b506102556102503660046130ae565b6106a0565b6040519081526020015b60405180910390f35b348015610273575f80fd5b506102876102823660046130e3565b610770565b604051901515815260200161025f565b3480156102a2575f80fd5b506102ab610794565b60405161025f919061314b565b3480156102c3575f80fd5b506102d76102d236600461315d565b610823565b60405161025f9190613174565b6102f76102f236600461319e565b610872565b005b348015610304575f80fd5b506102ab61031336600461315d565b61096a565b6102556103263660046131c6565b610a48565b348015610336575f80fd5b506102f76103453660046131f8565b610a7e565b348015610355575f80fd5b50600554610255565b6102f761036c366004613228565b610a91565b34801561037c575f80fd5b5061025561038b36600461315d565b610ac7565b34801561039b575f80fd5b506102556103aa36600461319e565b610b0b565b6102f76103bd366004613251565b610b97565b3480156103cd575f80fd5b5060025460405160ff909116815260200161025f565b6102f76103f1366004613228565b610bad565b348015610401575f80fd5b5061025561041036600461315d565b610bc7565b348015610420575f80fd5b5061025561042f36600461315d565b610c54565b6102f7610442366004613287565b610ca5565b348015610452575f80fd5b506102f7610461366004613378565b610d3f565b348015610471575f80fd5b5061025561048036600461315d565b610d57565b348015610490575f80fd5b506102d761049f36600461315d565b610dac565b3480156104af575f80fd5b506102ab610e19565b3480156104c3575f80fd5b506102556104d23660046133bc565b610ea5565b3480156104e2575f80fd5b506102f7610f2b565b3480156104f6575f80fd5b506008546102d7906001600160a01b031681565b6102f76105183660046131c6565b610f3e565b348015610528575f80fd5b50600d546001600160a01b03166102d7565b348015610545575f80fd5b506102ab610ff6565b348015610559575f80fd5b5061025561056836600461315d565b611005565b348015610578575f80fd5b5061025561058736600461315d565b61109e565b348015610597575f80fd5b506102f76105a63660046133d5565b6110e2565b6102f76105b936600461340a565b6110ed565b3480156105c9575f80fd5b506102ab6105d836600461315d565b61111f565b3480156105e8575f80fd5b506102556105f7366004613480565b6111ae565b348015610607575f80fd5b506102876106163660046134aa565b6111e0565b348015610626575f80fd5b506102ab611215565b34801561063a575f80fd5b506102876106493660046134e3565b6112fa565b348015610659575f80fd5b50600a54610255565b34801561066d575f80fd5b506102f761067c3660046130ae565b61132b565b34801561068c575f80fd5b506102f761069b3660046133bc565b61133d565b5f6106aa83610c54565b821061071b5760405162461bcd60e51b815260206004820152603560248201527f45524333353235536c6f74456e756d657261626c653a20736c6f7420746f6b656044820152746e20696e646578206f7574206f6620626f756e647360581b60648201526084015b60405180910390fd5b5f838152600b6020526040902054600a8054909190811061073e5761073e61350b565b905f5260205f209060020201600101828154811061075e5761075e61350b565b905f5260205f20015490505b92915050565b5f6001600160e01b031982166316d117cb60e31b148061076a575061076a8261137a565b60605f80546107a29061351f565b80601f01602080910402602001604051908101604052809291908181526020018280546107ce9061351f565b80156108195780601f106107f057610100808354040283529160200191610819565b820191905f5260205f20905b8154815290600101906020018083116107fc57829003601f168201915b5050505050905090565b5f61082d8261139e565b5f828152600660205260409020546005805490919081106108505761085061350b565b5f9182526020909120600460069092020101546001600160a01b031692915050565b5f61087c82610dac565b90505f61088883610ac7565b9050816001600160a01b0316846001600160a01b0316036108bb5760405162461bcd60e51b815260040161071290613557565b336001600160a01b03831614806108d757506108d782336112fa565b806108e857506108e88282336111e0565b61095a5760405162461bcd60e51b815260206004820152603e60248201527f455243333532353a20617070726f76652063616c6c6572206973206e6f74206f60448201527f776e6572206e6f7220617070726f76656420666f7220616c6c2f736c6f7400006064820152608401610712565b61096484846113c3565b50505050565b60605f610975611458565b6008549091506001600160a01b03166109d3575f8151116109a45760405180602001604052805f815250610a41565b806109ae84611467565b6040516020016109bf929190613599565b604051602081830303815290604052610a41565b600854604051633601bfc560e11b8152600481018590526001600160a01b0390911690636c037f8a906024015b5f60405180830381865afa158015610a1a573d5f803e3d5ffd5b505050506040513d5f823e601f3d908101601f19168201604052610a4191908101906135d8565b9392505050565b5f610a543385846114f6565b610a5d84611584565b9050610a738382610a6d87610ac7565b5f61158d565b610a418482846116cd565b610a86611a10565b610964838383611a3d565b610a9b3382611a54565b610ab75760405162461bcd60e51b815260040161071290613640565b610ac2838383611ad9565b505050565b5f610ad18261139e565b5f82815260066020526040902054600580549091908110610af457610af461350b565b905f5260205f209060060201600101549050919050565b5f610b1583610ea5565b8210610b6e5760405162461bcd60e51b815260206004820152602260248201527f455243333532353a206f776e657220696e646578206f7574206f6620626f756e604482015261647360f01b6064820152608401610712565b6001600160a01b0383165f90815260076020526040902080548390811061075e5761075e61350b565b610ba23384836114f6565b610ac28383836116cd565b610ac283838360405180602001604052805f8152506110ed565b5f610bd160055490565b8210610c2b5760405162461bcd60e51b815260206004820152602360248201527f455243333532353a20676c6f62616c20696e646578206f7574206f6620626f756044820152626e647360e81b6064820152608401610712565b60058281548110610c3e57610c3e61350b565b905f5260205f2090600602015f01549050919050565b5f610c5e82611c4e565b610c6957505f919050565b5f828152600b6020526040902054600a80549091908110610c8c57610c8c61350b565b5f91825260209091206001600290920201015492915050565b336001600160a01b0385161480610cc15750610cc184336112fa565b610d335760405162461bcd60e51b815260206004820152603f60248201527f45524333353235536c6f74417070726f7661626c653a2063616c6c657220697360448201527f206e6f74206f776e6572206e6f7220617070726f76656420666f7220616c6c006064820152608401610712565b61096484848484611c95565b610d47611a10565b600e610d5382826136d7565b5050565b5f80805b610d6484610c54565b811015610da5575f610d7685836106a0565b90505f610d828261109e565b9050610d8e81856137a6565b935050508080610d9d906137b9565b915050610d5b565b5092915050565b5f610db68261139e565b5f82815260066020526040902054600580549091908110610dd957610dd961350b565b5f9182526020909120600360069092020101546001600160a01b0316905080610e145760405162461bcd60e51b8152600401610712906137d1565b919050565b600e8054610e269061351f565b80601f0160208091040260200160405190810160405280929190818152602001828054610e529061351f565b8015610e9d5780601f10610e7457610100808354040283529160200191610e9d565b820191905f5260205f20905b815481529060010190602001808311610e8057829003601f168201915b505050505081565b5f6001600160a01b038216610f105760405162461bcd60e51b815260206004820152602b60248201527f455243333532353a2062616c616e636520717565727920666f7220746865207a60448201526a65726f206164647265737360a81b6064820152608401610712565b506001600160a01b03165f9081526007602052604090205490565b610f33611a10565b610f3c5f611d7e565b565b5f610f4884610dac565b9050806001600160a01b0316836001600160a01b031603610f7b5760405162461bcd60e51b815260040161071290613557565b610f853385611a54565b610feb5760405162461bcd60e51b815260206004820152603160248201527f455243333532353a20617070726f76652063616c6c6572206973206e6f74206f6044820152701ddb995c881b9bdc88185c1c1c9bdd9959607a1b6064820152608401610712565b610964848484611dcf565b6060600180546107a29061351f565b5f61100f600a5490565b82106110755760405162461bcd60e51b815260206004820152602f60248201527f45524333353235536c6f74456e756d657261626c653a20736c6f7420696e646560448201526e78206f7574206f6620626f756e647360881b6064820152608401610712565b600a82815481106110885761108861350b565b905f5260205f2090600202015f01549050919050565b5f6110a88261139e565b5f828152600660205260409020546005805490919081106110cb576110cb61350b565b905f5260205f209060060201600201549050919050565b610d53338383611f04565b6110f73383611a54565b6111135760405162461bcd60e51b815260040161071290613640565b61096484848484611fcd565b606061112a8261139e565b5f611133611458565b6008549091506001600160a01b031661117d575f8151116111625760405180602001604052805f815250610a41565b8061116c84611467565b6040516020016109bf929190613804565b6008546040516344a5a61760e11b8152600481018590526001600160a01b039091169063894b4c2e90602401610a00565b5f6111b88361139e565b505f9182526004602090815260408084206001600160a01b0393909316845291905290205490565b6001600160a01b039283165f908152600c60209081526040808320948352938152838220929094168152925290205460ff1690565b60605f611220611458565b6008549091506001600160a01b031661127e575f81511161124f5760405180602001604052805f8152506112f4565b8061125930612040565b60405160200161126a929190613832565b6040516020818303038152906040526112f4565b60085f9054906101000a90046001600160a01b03166001600160a01b031663725fa09c6040518163ffffffff1660e01b81526004015f60405180830381865afa1580156112cd573d5f803e3d5ffd5b505050506040513d5f823e601f3d908101601f191682016040526112f491908101906135d8565b91505090565b6001600160a01b039182165f9081526007602090815260408083209390941682526002909201909152205460ff1690565b611333611a10565b610d538282612056565b611345611a10565b6001600160a01b03811661136e575f604051631e4fbdf760e01b81526004016107129190613174565b61137781611d7e565b50565b5f6001600160e01b03198216631dba0dcf60e11b148061076a575061076a82612094565b6113a781612135565b6113775760405162461bcd60e51b8152600401610712906137d1565b5f818152600660205260409020546005805484929081106113e6576113e661350b565b5f918252602090912060069091020160040180546001600160a01b0319166001600160a01b039283161790558190831661141f82610dac565b6001600160a01b03167f8c5be1e5ebec7d5bd14f71427d1e84f3dd0314c0f7b2291e5b200ac8c7c3b92560405160405180910390a45050565b6060600e80546107a29061351f565b60605f6114738361217c565b60010190505f816001600160401b03811115611491576114916132d3565b6040519080825280601f01601f1916602001820160405280156114bb576020820181803683370190505b5090508181016020015b5f19016f181899199a1a9b1b9c1cb0b131b232b360811b600a86061a8153600a85049450846114c557509392505050565b5f61150183856111ae565b905061150d8484611a54565b15801561151b57505f198114155b1561096457818110156115705760405162461bcd60e51b815260206004820152601f60248201527f455243333532353a20696e73756666696369656e7420616c6c6f77616e6365006044820152606401610712565b610964838561157f8585613875565b611dcf565b5f61076a612253565b6001600160a01b0384166115ed5760405162461bcd60e51b815260206004820152602160248201527f455243333532353a206d696e7420746f20746865207a65726f206164647265736044820152607360f81b6064820152608401610712565b825f036116465760405162461bcd60e51b815260206004820152602160248201527f455243333532353a2063616e6e6f74206d696e74207a65726f20746f6b656e496044820152601960fa1b6064820152608401610712565b61164f83612135565b1561169c5760405162461bcd60e51b815260206004820152601d60248201527f455243333532353a20746f6b656e20616c7265616479206d696e7465640000006044820152606401610712565b6116aa5f855f86868661226c565b6116b58484846122a9565b6116bf838261236c565b6109645f855f8686866123ec565b6116d683612135565b6117325760405162461bcd60e51b815260206004820152602760248201527f455243333532353a207472616e736665722066726f6d20696e76616c696420746044820152661bdad95b88125160ca1b6064820152608401610712565b61173b82612135565b6117955760405162461bcd60e51b815260206004820152602560248201527f455243333532353a207472616e7366657220746f20696e76616c696420746f6b604482015264195b88125160da1b6064820152608401610712565b5f838152600660205260408120546005805490919081106117b8576117b861350b565b905f5260205f20906006020190505f600560065f8681526020019081526020015f2054815481106117eb576117eb61350b565b905f5260205f209060060201905082826002015410156118605760405162461bcd60e51b815260206004820152602a60248201527f455243333532353a20696e73756666696369656e742062616c616e636520666f60448201526939103a3930b739b332b960b11b6064820152608401610712565b80600101548260010154146118ce5760405162461bcd60e51b815260206004820152602e60248201527f455243333532353a207472616e7366657220746f20746f6b656e20776974682060448201526d191a5999995c995b9d081cdb1bdd60921b6064820152608401610712565b6003808301549082015460018401546118f9926001600160a01b03908116921690889088908861226c565b82826002015f82825461190c9190613875565b9250508190555082816002015f82825461192691906137a6565b9091555050604051838152849086907f0b2aac84f3ec956911fd78eae5311062972ff949f38412e8da39069d9f068cc69060200160405180910390a360038083015490820154600184015461198d926001600160a01b0390811692169088908890886123ec565b6119a785858560405180602001604052805f81525061245d565b611a095760405162461bcd60e51b815260206004820152602d60248201527f455243333532353a207472616e736665722072656a656374656420627920455260448201526c21999a991aa932b1b2b4bb32b960991b6064820152608401610712565b5050505050565b600d546001600160a01b03163314610f3c573360405163118cdaa760e01b81526004016107129190613174565b5f611a46612253565b9050610a418482858561158d565b5f611a5e8261139e565b5f611a6883610dac565b90505f611a7484610ac7565b9050816001600160a01b0316856001600160a01b03161480611aaf5750846001600160a01b0316611aa485610823565b6001600160a01b0316145b80611abf5750611abf82866112fa565b80611ad05750611ad08282876111e0565b95945050505050565b826001600160a01b0316611aec82610dac565b6001600160a01b031614611b4e5760405162461bcd60e51b8152602060048201526024808201527f455243333532353a207472616e736665722066726f6d20696e76616c6964206f6044820152633bb732b960e11b6064820152608401610712565b6001600160a01b038216611bb25760405162461bcd60e51b815260206004820152602560248201527f455243333532353a207472616e7366657220746f20746865207a65726f206164604482015264647265737360d81b6064820152608401610712565b5f611bbc82610ac7565b90505f611bc88361109e565b9050611bd885858586868661226c565b611be25f846113c3565b611beb836125cb565b611bf58584612671565b611bff8484612784565b82846001600160a01b0316866001600160a01b03167fddf252ad1be2c89b69c2b068fc378daa952ba7f163c4a11628f55a4df523b3ef60405160405180910390a4611a098585858686866123ec565b600a545f901580159061076a57505f828152600b6020526040902054600a80548492908110611c7f57611c7f61350b565b905f5260205f2090600202015f01541492915050565b816001600160a01b0316846001600160a01b031603611d065760405162461bcd60e51b815260206004820152602760248201527f45524333353235536c6f74417070726f7661626c653a20617070726f76652074604482015266379037bbb732b960c91b6064820152608401610712565b6001600160a01b038481165f818152600c60209081526040808320888452825280832094871680845294825291829020805460ff191686151590811790915591519182528692917f7bdf71e6625aa496095bf08b60c677cf81c963f402cf258981e3bd7507d3480c910160405180910390a450505050565b600d80546001600160a01b038381166001600160a01b0319831681179093556040519116919082907f8be0079c531659141344cd1fd0a4f28419497f9722a3daafe3b4186f6b6457e0905f90a35050565b6001600160a01b038216611e385760405162461bcd60e51b815260206004820152602a60248201527f455243333532353a20617070726f76652076616c756520746f20746865207a65604482015269726f206164647265737360b01b6064820152608401610712565b611e42828461280b565b611ea6575f83815260066020526040902054600580549091908110611e6957611e6961350b565b5f9182526020808320600692909202909101600501805460018101825590835291200180546001600160a01b0319166001600160a01b0384161790555b5f8381526004602090815260408083206001600160a01b038616808552908352928190208490555183815285917f621b050de0ad08b51d19b48b3e6df75348c4de6bdd93e81b252ca62e28265b1b91015b60405180910390a3505050565b816001600160a01b0316836001600160a01b031603611f655760405162461bcd60e51b815260206004820152601a60248201527f455243333532353a20617070726f766520746f2063616c6c65720000000000006044820152606401610712565b6001600160a01b038381165f8181526007602090815260408083209487168084526002909501825291829020805460ff191686151590811790915591519182527f17307eab39ab6107e8899845ad3d59bd9653f200f220920489ca2b5937696c319101611ef7565b611fd8848484611ad9565b611fe4848484846128d7565b6109645760405162461bcd60e51b815260206004820152602760248201527f455243333532353a207472616e7366657220746f206e6f6e204552433732315260448201526632b1b2b4bb32b960c91b6064820152608401610712565b606061076a6001600160a01b0383166014612a19565b5f61206083610dac565b90505f61206c84610ac7565b905061207c5f835f87858861226c565b612086848461236c565b6109645f835f8785886123ec565b5f6001600160e01b031982166301ffc9a760e01b14806120c457506001600160e01b03198216630354d60560e61b145b806120df57506001600160e01b031982166380ac58cd60e01b145b806120fa57506001600160e01b031982166370b0048160e11b145b8061211557506001600160e01b0319821663780e9d6360e01b145b8061076a57506001600160e01b03198216635b5e139f60e01b1492915050565b6005545f901580159061076a57505f828152600660205260409020546005805484929081106121665761216661350b565b905f5260205f2090600602015f01541492915050565b5f8072184f03e93ff9f4daa797ed6e38ed64bf6a1f0160401b83106121ba5772184f03e93ff9f4daa797ed6e38ed64bf6a1f0160401b830492506040015b6d04ee2d6d415b85acef810000000083106121e6576d04ee2d6d415b85acef8100000000830492506020015b662386f26fc10000831061220457662386f26fc10000830492506010015b6305f5e100831061221c576305f5e100830492506008015b612710831061223057612710830492506004015b60648310612242576064830492506002015b600a831061076a5760010192915050565b600380545f9182612263836137b9565b91905055905090565b6001600160a01b038616158015612281575083155b8015612293575061229182611c4e565b155b156122a1576122a182612b8a565b505050505050565b6040805160c08101825283815260208082018490525f8284018190526001600160a01b038716606084015260808301819052835181815291820190935260a082015290506122f681612c4f565b6123008484612784565b60405183906001600160a01b038616905f907fddf252ad1be2c89b69c2b068fc378daa952ba7f163c4a11628f55a4df523b3ef908290a4815f847fe4f48c240d3b994948aa54f3e2f5fca59263dfe1d52b6e4cf39a5d249b5ccb6560405160405180910390a450505050565b5f8281526006602052604090205460058054839290811061238f5761238f61350b565b905f5260205f2090600602016002015f8282546123ac91906137a6565b909155505060405181815282905f907f0b2aac84f3ec956911fd78eae5311062972ff949f38412e8da39069d9f068cc69060200160405180910390a35050565b6001600160a01b038616158015612401575083155b801561241457506124128284612d9d565b155b15612428576124238284612e21565b6122a1565b6001600160a01b03851615801561243d575082155b801561244e575061244e8285612d9d565b15612423576124238285612e80565b5f8061246885610dac565b9050803b63ffffffff16156125bd576040516301ffc9a760e01b8152629ce20b60e01b60048201526001600160a01b038216906301ffc9a790602401602060405180830381865afa9250505080156124dd575060408051601f3d908101601f191682019092526124da91810190613888565b60015b61251b573d80801561250a576040519150601f19603f3d011682016040523d82523d5f602084013e61250f565b606091505b506001925050506125c3565b80156125b257604051629ce20b60e01b81525f906001600160a01b03841690629ce20b906125559033908c908c908c908c906004016138a3565b6020604051808303815f875af1158015612571573d5f803e3d5ffd5b505050506040513d601f19601f8201168201806040525081019061259591906138e0565b6001600160e01b031916629ce20b60e01b1493506125c392505050565b6001925050506125c3565b60019150505b949350505050565b5f818152600660205260408120546005805490919081106125ee576125ee61350b565b5f91825260208220600560069092020190810154909250905b81811015612663575f8360050182815481106126255761262561350b565b5f9182526020808320909101548783526004825260408084206001600160a01b0390921684529152812055508061265b816137b9565b915050612607565b50610ac2600583015f612fe3565b5f818152600660205260408120546005805490919081106126945761269461350b565b5f918252602080832060069290920290910160030180546001600160a01b0319166001600160a01b03948516179055918416815260079091526040812080549091906126e290600190613875565b90505f825f0182815481106126f9576126f961350b565b905f5260205f20015490505f836001015f8681526020019081526020015f2054905081845f0182815481106127305761273061350b565b5f9182526020808320909101929092558381526001860190915260408082208390558682528120558354849080612769576127696138fb565b600190038181905f5260205f20015f90559055505050505050565b5f818152600660205260409020546005805484929081106127a7576127a761350b565b5f918252602080832060069290920290910160030180546001600160a01b0319166001600160a01b03948516179055939091168152600780845260408083208054858552600182810188529285208190559286529082018155825292902090910155565b5f8181526006602052604081205460058054839290811061282e5761282e61350b565b5f918252602082206005600690920201015491505b818110156128cd575f84815260066020526040902054600580546001600160a01b038816929081106128775761287761350b565b905f5260205f20906006020160050182815481106128975761289761350b565b5f918252602090912001546001600160a01b0316036128bb5760019250505061076a565b806128c5816137b9565b915050612843565b505f949350505050565b5f833b63ffffffff1615612a1157604051630a85bd0160e11b81526001600160a01b0385169063150b7a029061291790339089908890889060040161390f565b6020604051808303815f875af1925050508015612951575060408051601f3d908101601f1916820190925261294e918101906138e0565b60015b6129f7573d80801561297e576040519150601f19603f3d011682016040523d82523d5f602084013e612983565b606091505b5080515f036129ef5760405162461bcd60e51b815260206004820152603260248201527f4552433732313a207472616e7366657220746f206e6f6e20455243373231526560448201527131b2b4bb32b91034b6b83632b6b2b73a32b960711b6064820152608401610712565b805181602001fd5b6001600160e01b031916630a85bd0160e11b1490506125c3565b5060016125c3565b6060825f612a2884600261394b565b612a339060026137a6565b6001600160401b03811115612a4a57612a4a6132d3565b6040519080825280601f01601f191660200182016040528015612a74576020820181803683370190505b509050600360fc1b815f81518110612a8e57612a8e61350b565b60200101906001600160f81b03191690815f1a905350600f60fb1b81600181518110612abc57612abc61350b565b60200101906001600160f81b03191690815f1a9053505f612ade85600261394b565b612ae99060016137a6565b90505b6001811115612b60576f181899199a1a9b1b9c1cb0b131b232b360811b83600f1660108110612b1d57612b1d61350b565b1a60f81b828281518110612b3357612b3361350b565b60200101906001600160f81b03191690815f1a90535060049290921c91612b5981613962565b9050612aec565b5081156125c35760405163e22e27eb60e01b81526004810186905260248101859052604401610712565b612b9381611c4e565b15612bf35760405162461bcd60e51b815260206004820152602a60248201527f45524333353235536c6f74456e756d657261626c653a20736c6f7420616c72656044820152696164792065786973747360b01b6064820152608401610712565b60408051808201825282815281515f8082526020828101909452928201529050612c1c81612f5f565b815f807fe4f48c240d3b994948aa54f3e2f5fca59263dfe1d52b6e4cf39a5d249b5ccb6560405160405180910390a45050565b6005805482515f90815260066020818152604080842085905560018501865594909252845192027f036b6384b5eca791c62761152d0c79bb0604c104a5fb6f4eb0703f3154bb3db08101928355818501517f036b6384b5eca791c62761152d0c79bb0604c104a5fb6f4eb0703f3154bb3db1820155928401517f036b6384b5eca791c62761152d0c79bb0604c104a5fb6f4eb0703f3154bb3db284015560608401517f036b6384b5eca791c62761152d0c79bb0604c104a5fb6f4eb0703f3154bb3db3840180546001600160a01b039283166001600160a01b03199182161790915560808601517f036b6384b5eca791c62761152d0c79bb0604c104a5fb6f4eb0703f3154bb3db48601805491909316911617905560a084015180518594610964937f036b6384b5eca791c62761152d0c79bb0604c104a5fb6f4eb0703f3154bb3db5909101920190612ffe565b5f828152600b6020526040812054600a80548392908110612dc057612dc061350b565b905f5260205f20906002020190505f81600101805490501180156125c357505f8481526009602090815260408083208684529091529020546001820180548592908110612e0f57612e0f61350b565b905f5260205f20015414949350505050565b5f828152600b6020526040812054600a80549091908110612e4457612e4461350b565b5f918252602080832060016002909302018201805496845260098252604080852087865283528420879055918601825590825290209092015550565b5f828152600b6020526040812054600a80549091908110612ea357612ea361350b565b5f91825260208220600160029092020181810154909350612ec49190613875565b90505f826001018281548110612edc57612edc61350b565b5f918252602080832090910154878352600982526040808420888552909252912054600185018054929350909183919083908110612f1c57612f1c61350b565b5f918252602080832091909101929092558781526009825260408082208583529092528181208390558681529081205560018401805480612769576127696138fb565b600a805482515f908152600b602090815260408220839055600183018455929052825160029091027fc65a7bb8d6351c1cf70c95a316cc6a92839c986682d98bc35f958f4883f9d2a881019182558284015180518594610964937fc65a7bb8d6351c1cf70c95a316cc6a92839c986682d98bc35f958f4883f9d2a901920190613061565b5080545f8255905f5260205f2090810190611377919061309a565b828054828255905f5260205f20908101928215613051579160200282015b8281111561305157825182546001600160a01b0319166001600160a01b0390911617825560209092019160019091019061301c565b5061305d92915061309a565b5090565b828054828255905f5260205f20908101928215613051579160200282015b8281111561305157825182559160200191906001019061307f565b5b8082111561305d575f815560010161309b565b5f80604083850312156130bf575f80fd5b50508035926020909101359150565b6001600160e01b031981168114611377575f80fd5b5f602082840312156130f3575f80fd5b8135610a41816130ce565b5f5b83811015613118578181015183820152602001613100565b50505f910152565b5f81518084526131378160208601602086016130fe565b601f01601f19169290920160200192915050565b602081525f610a416020830184613120565b5f6020828403121561316d575f80fd5b5035919050565b6001600160a01b0391909116815260200190565b80356001600160a01b0381168114610e14575f80fd5b5f80604083850312156131af575f80fd5b6131b883613188565b946020939093013593505050565b5f805f606084860312156131d8575f80fd5b833592506131e860208501613188565b9150604084013590509250925092565b5f805f6060848603121561320a575f80fd5b61321384613188565b95602085013595506040909401359392505050565b5f805f6060848603121561323a575f80fd5b61324384613188565b92506131e860208501613188565b5f805f60608486031215613263575f80fd5b505081359360208301359350604090920135919050565b8015158114611377575f80fd5b5f805f806080858703121561329a575f80fd5b6132a385613188565b9350602085013592506132b860408601613188565b915060608501356132c88161327a565b939692955090935050565b634e487b7160e01b5f52604160045260245ffd5b604051601f8201601f191681016001600160401b038111828210171561330f5761330f6132d3565b604052919050565b5f6001600160401b0382111561332f5761332f6132d3565b50601f01601f191660200190565b5f61334f61334a84613317565b6132e7565b9050828152838383011115613362575f80fd5b828260208301375f602084830101529392505050565b5f60208284031215613388575f80fd5b81356001600160401b0381111561339d575f80fd5b8201601f810184136133ad575f80fd5b6125c38482356020840161333d565b5f602082840312156133cc575f80fd5b610a4182613188565b5f80604083850312156133e6575f80fd5b6133ef83613188565b915060208301356133ff8161327a565b809150509250929050565b5f805f806080858703121561341d575f80fd5b61342685613188565b935061343460208601613188565b92506040850135915060608501356001600160401b03811115613455575f80fd5b8501601f81018713613465575f80fd5b6134748782356020840161333d565b91505092959194509250565b5f8060408385031215613491575f80fd5b823591506134a160208401613188565b90509250929050565b5f805f606084860312156134bc575f80fd5b6134c584613188565b9250602084013591506134da60408501613188565b90509250925092565b5f80604083850312156134f4575f80fd5b6134fd83613188565b91506134a160208401613188565b634e487b7160e01b5f52603260045260245ffd5b600181811c9082168061353357607f821691505b60208210810361355157634e487b7160e01b5f52602260045260245ffd5b50919050565b60208082526022908201527f455243333532353a20617070726f76616c20746f2063757272656e74206f776e60408201526132b960f11b606082015260800190565b5f83516135aa8184602088016130fe565b64736c6f742f60d81b90830190815283516135cc8160058401602088016130fe565b01600501949350505050565b5f602082840312156135e8575f80fd5b81516001600160401b038111156135fd575f80fd5b8201601f8101841361360d575f80fd5b805161361b61334a82613317565b81815285602083850101111561362f575f80fd5b611ad08260208301602086016130fe565b60208082526032908201527f455243333532353a207472616e736665722063616c6c6572206973206e6f74206040820152711bdddb995c881b9bdc88185c1c1c9bdd995960721b606082015260800190565b601f821115610ac2575f81815260208120601f850160051c810160208610156136b85750805b601f850160051c820191505b818110156122a1578281556001016136c4565b81516001600160401b038111156136f0576136f06132d3565b613704816136fe845461351f565b84613692565b602080601f831160018114613737575f84156137205750858301515b5f19600386901b1c1916600185901b1785556122a1565b5f85815260208120601f198616915b8281101561376557888601518255948401946001909101908401613746565b508582101561378257878501515f19600388901b60f8161c191681555b5050505050600190811b01905550565b634e487b7160e01b5f52601160045260245ffd5b8082018082111561076a5761076a613792565b5f600182016137ca576137ca613792565b5060010190565b602080825260199082015278115490cccd4c8d4e881a5b9d985b1a59081d1bdad95b881251603a1b604082015260600190565b5f83516138158184602088016130fe565b8351908301906138298183602088016130fe565b01949350505050565b5f83516138438184602088016130fe565b68636f6e74726163742f60b81b90830190815283516138698160098401602088016130fe565b01600901949350505050565b8181038181111561076a5761076a613792565b5f60208284031215613898575f80fd5b8151610a418161327a565b60018060a01b038616815284602082015283604082015282606082015260a060808201525f6138d560a0830184613120565b979650505050505050565b5f602082840312156138f0575f80fd5b8151610a41816130ce565b634e487b7160e01b5f52603160045260245ffd5b6001600160a01b03858116825284166020820152604081018390526080606082018190525f9061394190830184613120565b9695505050505050565b808202811582820484141761076a5761076a613792565b5f8161397057613970613792565b505f19019056fea26469706673582212207eb35b643e1cdcab7da6c02c212d3f4762ac392b0b323d67b41adaa87e0dd68664736f6c63430008140033",
			"opcodes": "PUSH1 0x80 PUSH1 0x40 MSTORE CALLVALUE DUP1 ISZERO PUSH3 0x10 JUMPI PUSH0 DUP1 REVERT JUMPDEST POP PUSH1 0x40 MLOAD PUSH3 0x3D63 CODESIZE SUB DUP1 PUSH3 0x3D63 DUP4 CODECOPY DUP2 ADD PUSH1 0x40 DUP2 SWAP1 MSTORE PUSH3 0x33 SWAP2 PUSH3 0x1D0 JUMP JUMPDEST PUSH1 0x1 PUSH1 0x3 SSTORE DUP3 DUP3 DUP3 PUSH1 0x12 DUP3 DUP3 DUP3 DUP3 DUP3 DUP3 PUSH0 PUSH3 0x50 DUP5 DUP3 PUSH3 0x2E0 JUMP JUMPDEST POP PUSH1 0x1 PUSH3 0x5F DUP4 DUP3 PUSH3 0x2E0 JUMP JUMPDEST POP PUSH1 0x2 DUP1 SLOAD PUSH1 0xFF NOT AND PUSH1 0xFF SWAP3 SWAP1 SWAP3 AND SWAP2 SWAP1 SWAP2 OR SWAP1 SSTORE POP POP POP PUSH1 0x1 PUSH1 0x1 PUSH1 0xA0 SHL SUB DUP7 AND SWAP5 POP PUSH3 0xAC SWAP4 POP POP POP POP JUMPI PUSH1 0x40 MLOAD PUSH4 0x1E4FBDF7 PUSH1 0xE0 SHL DUP2 MSTORE PUSH0 PUSH1 0x4 DUP3 ADD MSTORE PUSH1 0x24 ADD PUSH1 0x40 MLOAD DUP1 SWAP2 SUB SWAP1 REVERT JUMPDEST PUSH3 0xB7 DUP2 PUSH3 0xC1 JUMP JUMPDEST POP POP POP POP PUSH3 0x3A8 JUMP JUMPDEST PUSH1 0xD DUP1 SLOAD PUSH1 0x1 PUSH1 0x1 PUSH1 0xA0 SHL SUB DUP4 DUP2 AND PUSH1 0x1 PUSH1 0x1 PUSH1 0xA0 SHL SUB NOT DUP4 AND DUP2 OR SWAP1 SWAP4 SSTORE PUSH1 0x40 MLOAD SWAP2 AND SWAP2 SWAP1 DUP3 SWAP1 PUSH32 0x8BE0079C531659141344CD1FD0A4F28419497F9722A3DAAFE3B4186F6B6457E0 SWAP1 PUSH0 SWAP1 LOG3 POP POP JUMP JUMPDEST PUSH4 0x4E487B71 PUSH1 0xE0 SHL PUSH0 MSTORE PUSH1 0x41 PUSH1 0x4 MSTORE PUSH1 0x24 PUSH0 REVERT JUMPDEST PUSH0 DUP3 PUSH1 0x1F DUP4 ADD SLT PUSH3 0x136 JUMPI PUSH0 DUP1 REVERT JUMPDEST DUP2 MLOAD PUSH1 0x1 PUSH1 0x1 PUSH1 0x40 SHL SUB DUP1 DUP3 GT ISZERO PUSH3 0x153 JUMPI PUSH3 0x153 PUSH3 0x112 JUMP JUMPDEST PUSH1 0x40 MLOAD PUSH1 0x1F DUP4 ADD PUSH1 0x1F NOT SWAP1 DUP2 AND PUSH1 0x3F ADD AND DUP2 ADD SWAP1 DUP3 DUP3 GT DUP2 DUP4 LT OR ISZERO PUSH3 0x17E JUMPI PUSH3 0x17E PUSH3 0x112 JUMP JUMPDEST DUP2 PUSH1 0x40 MSTORE DUP4 DUP2 MSTORE PUSH1 0x20 SWAP3 POP DUP7 DUP4 DUP6 DUP9 ADD ADD GT ISZERO PUSH3 0x19A JUMPI PUSH0 DUP1 REVERT JUMPDEST PUSH0 SWAP2 POP JUMPDEST DUP4 DUP3 LT ISZERO PUSH3 0x1BD JUMPI DUP6 DUP3 ADD DUP4 ADD MLOAD DUP2 DUP4 ADD DUP5 ADD MSTORE SWAP1 DUP3 ADD SWAP1 PUSH3 0x19E JUMP JUMPDEST PUSH0 SWAP4 DUP2 ADD SWAP1 SWAP3 ADD SWAP3 SWAP1 SWAP3 MSTORE SWAP5 SWAP4 POP POP POP POP JUMP JUMPDEST PUSH0 DUP1 PUSH0 PUSH1 0x60 DUP5 DUP7 SUB SLT ISZERO PUSH3 0x1E3 JUMPI PUSH0 DUP1 REVERT JUMPDEST DUP4 MLOAD PUSH1 0x1 PUSH1 0x1 PUSH1 0xA0 SHL SUB DUP2 AND DUP2 EQ PUSH3 0x1FA JUMPI PUSH0 DUP1 REVERT JUMPDEST PUSH1 0x20 DUP6 ADD MLOAD SWAP1 SWAP4 POP PUSH1 0x1 PUSH1 0x1 PUSH1 0x40 SHL SUB DUP1 DUP3 GT ISZERO PUSH3 0x217 JUMPI PUSH0 DUP1 REVERT JUMPDEST PUSH3 0x225 DUP8 DUP4 DUP9 ADD PUSH3 0x126 JUMP JUMPDEST SWAP4 POP PUSH1 0x40 DUP7 ADD MLOAD SWAP2 POP DUP1 DUP3 GT ISZERO PUSH3 0x23B JUMPI PUSH0 DUP1 REVERT JUMPDEST POP PUSH3 0x24A DUP7 DUP3 DUP8 ADD PUSH3 0x126 JUMP JUMPDEST SWAP2 POP POP SWAP3 POP SWAP3 POP SWAP3 JUMP JUMPDEST PUSH1 0x1 DUP2 DUP2 SHR SWAP1 DUP3 AND DUP1 PUSH3 0x269 JUMPI PUSH1 0x7F DUP3 AND SWAP2 POP JUMPDEST PUSH1 0x20 DUP3 LT DUP2 SUB PUSH3 0x288 JUMPI PUSH4 0x4E487B71 PUSH1 0xE0 SHL PUSH0 MSTORE PUSH1 0x22 PUSH1 0x4 MSTORE PUSH1 0x24 PUSH0 REVERT JUMPDEST POP SWAP2 SWAP1 POP JUMP JUMPDEST PUSH1 0x1F DUP3 GT ISZERO PUSH3 0x2DB JUMPI PUSH0 DUP2 DUP2 MSTORE PUSH1 0x20 DUP2 KECCAK256 PUSH1 0x1F DUP6 ADD PUSH1 0x5 SHR DUP2 ADD PUSH1 0x20 DUP7 LT ISZERO PUSH3 0x2B6 JUMPI POP DUP1 JUMPDEST PUSH1 0x1F DUP6 ADD PUSH1 0x5 SHR DUP3 ADD SWAP2 POP JUMPDEST DUP2 DUP2 LT ISZERO PUSH3 0x2D7 JUMPI DUP3 DUP2 SSTORE PUSH1 0x1 ADD PUSH3 0x2C2 JUMP JUMPDEST POP POP POP JUMPDEST POP POP POP JUMP JUMPDEST DUP2 MLOAD PUSH1 0x1 PUSH1 0x1 PUSH1 0x40 SHL SUB DUP2 GT ISZERO PUSH3 0x2FC JUMPI PUSH3 0x2FC PUSH3 0x112 JUMP JUMPDEST PUSH3 0x314 DUP2 PUSH3 0x30D DUP5 SLOAD PUSH3 0x254 JUMP JUMPDEST DUP5 PUSH3 0x28E JUMP JUMPDEST PUSH1 0x20 DUP1 PUSH1 0x1F DUP4 GT PUSH1 0x1 DUP2 EQ PUSH3 0x34A JUMPI PUSH0 DUP5 ISZERO PUSH3 0x332 JUMPI POP DUP6 DUP4 ADD MLOAD JUMPDEST PUSH0 NOT PUSH1 0x3 DUP7 SWAP1 SHL SHR NOT AND PUSH1 0x1 DUP6 SWAP1 SHL OR DUP6 SSTORE PUSH3 0x2D7 JUMP JUMPDEST PUSH0 DUP6 DUP2 MSTORE PUSH1 0x20 DUP2 KECCAK256 PUSH1 0x1F NOT DUP7 AND SWAP2 JUMPDEST DUP3 DUP2 LT ISZERO PUSH3 0x37A JUMPI DUP9 DUP7 ADD MLOAD DUP3 SSTORE SWAP5 DUP5 ADD SWAP5 PUSH1 0x1 SWAP1 SWAP2 ADD SWAP1 DUP5 ADD PUSH3 0x359 JUMP JUMPDEST POP DUP6 DUP3 LT ISZERO PUSH3 0x398 JUMPI DUP8 DUP6 ADD MLOAD PUSH0 NOT PUSH1 0x3 DUP9 SWAP1 SHL PUSH1 0xF8 AND SHR NOT AND DUP2 SSTORE JUMPDEST POP POP POP POP POP PUSH1 0x1 SWAP1 DUP2 SHL ADD SWAP1 SSTORE POP JUMP JUMPDEST PUSH2 0x39AD DUP1 PUSH3 0x3B6 PUSH0 CODECOPY PUSH0 RETURN INVALID PUSH1 0x80 PUSH1 0x40 MSTORE PUSH1 0x4 CALLDATASIZE LT PUSH2 0x232 JUMPI PUSH0 CALLDATALOAD PUSH1 0xE0 SHR DUP1 PUSH4 0x6352211E GT PUSH2 0x129 JUMPI DUP1 PUSH4 0xA22CB465 GT PUSH2 0xA8 JUMPI DUP1 PUSH4 0xE8A3D485 GT PUSH2 0x6D JUMPI DUP1 PUSH4 0xE8A3D485 EQ PUSH2 0x61B JUMPI DUP1 PUSH4 0xE985E9C5 EQ PUSH2 0x62F JUMPI DUP1 PUSH4 0xED08FA80 EQ PUSH2 0x64E JUMPI DUP1 PUSH4 0xF0E88E7F EQ PUSH2 0x662 JUMPI DUP1 PUSH4 0xF2FDE38B EQ PUSH2 0x681 JUMPI PUSH0 DUP1 REVERT JUMPDEST DUP1 PUSH4 0xA22CB465 EQ PUSH2 0x58C JUMPI DUP1 PUSH4 0xB88D4FDE EQ PUSH2 0x5AB JUMPI DUP1 PUSH4 0xC87B56DD EQ PUSH2 0x5BE JUMPI DUP1 PUSH4 0xE345E0BC EQ PUSH2 0x5DD JUMPI DUP1 PUSH4 0xE345F05E EQ PUSH2 0x5FC JUMPI PUSH0 DUP1 REVERT JUMPDEST DUP1 PUSH4 0x8CB0A511 GT PUSH2 0xEE JUMPI DUP1 PUSH4 0x8CB0A511 EQ PUSH2 0x50A JUMPI DUP1 PUSH4 0x8DA5CB5B EQ PUSH2 0x51D JUMPI DUP1 PUSH4 0x95D89B41 EQ PUSH2 0x53A JUMPI DUP1 PUSH4 0x993BEF8D EQ PUSH2 0x54E JUMPI DUP1 PUSH4 0x9CC7F708 EQ PUSH2 0x56D JUMPI PUSH0 DUP1 REVERT JUMPDEST DUP1 PUSH4 0x6352211E EQ PUSH2 0x485 JUMPI DUP1 PUSH4 0x6C0360EB EQ PUSH2 0x4A4 JUMPI DUP1 PUSH4 0x70A08231 EQ PUSH2 0x4B8 JUMPI DUP1 PUSH4 0x715018A6 EQ PUSH2 0x4D7 JUMPI DUP1 PUSH4 0x840F7113 EQ PUSH2 0x4EB JUMPI PUSH0 DUP1 REVERT JUMPDEST DUP1 PUSH4 0x263F3E7E GT PUSH2 0x1B5 JUMPI DUP1 PUSH4 0x4F6CCCE7 GT PUSH2 0x17A JUMPI DUP1 PUSH4 0x4F6CCCE7 EQ PUSH2 0x3F6 JUMPI DUP1 PUSH4 0x4F8A0F83 EQ PUSH2 0x415 JUMPI DUP1 PUSH4 0x55CD4E06 EQ PUSH2 0x434 JUMPI DUP1 PUSH4 0x55F804B3 EQ PUSH2 0x447 JUMPI DUP1 PUSH4 0x5A3C7DA7 EQ PUSH2 0x466 JUMPI PUSH0 DUP1 REVERT JUMPDEST DUP1 PUSH4 0x263F3E7E EQ PUSH2 0x371 JUMPI DUP1 PUSH4 0x2F745C59 EQ PUSH2 0x390 JUMPI DUP1 PUSH4 0x310ED7F0 EQ PUSH2 0x3AF JUMPI DUP1 PUSH4 0x3E7E8669 EQ PUSH2 0x3C2 JUMPI DUP1 PUSH4 0x42842E0E EQ PUSH2 0x3E3 JUMPI PUSH0 DUP1 REVERT JUMPDEST DUP1 PUSH4 0x9C3DD87 GT PUSH2 0x1FB JUMPI DUP1 PUSH4 0x9C3DD87 EQ PUSH2 0x2F9 JUMPI DUP1 PUSH4 0xF485C02 EQ PUSH2 0x318 JUMPI DUP1 PUSH4 0x156E29F6 EQ PUSH2 0x32B JUMPI DUP1 PUSH4 0x18160DDD EQ PUSH2 0x34A JUMPI DUP1 PUSH4 0x23B872DD EQ PUSH2 0x35E JUMPI PUSH0 DUP1 REVERT JUMPDEST DUP1 PUSH3 0xCD0110 EQ PUSH2 0x236 JUMPI DUP1 PUSH4 0x1FFC9A7 EQ PUSH2 0x268 JUMPI DUP1 PUSH4 0x6FDDE03 EQ PUSH2 0x297 JUMPI DUP1 PUSH4 0x81812FC EQ PUSH2 0x2B8 JUMPI DUP1 PUSH4 0x95EA7B3 EQ PUSH2 0x2E4 JUMPI JUMPDEST PUSH0 DUP1 REVERT JUMPDEST CALLVALUE DUP1 ISZERO PUSH2 0x241 JUMPI PUSH0 DUP1 REVERT JUMPDEST POP PUSH2 0x255 PUSH2 0x250 CALLDATASIZE PUSH1 0x4 PUSH2 0x30AE JUMP JUMPDEST PUSH2 0x6A0 JUMP JUMPDEST PUSH1 0x40 MLOAD SWAP1 DUP2 MSTORE PUSH1 0x20 ADD JUMPDEST PUSH1 0x40 MLOAD DUP1 SWAP2 SUB SWAP1 RETURN JUMPDEST CALLVALUE DUP1 ISZERO PUSH2 0x273 JUMPI PUSH0 DUP1 REVERT JUMPDEST POP PUSH2 0x287 PUSH2 0x282 CALLDATASIZE PUSH1 0x4 PUSH2 0x30E3 JUMP JUMPDEST PUSH2 0x770 JUMP JUMPDEST PUSH1 0x40 MLOAD SWAP1 ISZERO ISZERO DUP2 MSTORE PUSH1 0x20 ADD PUSH2 0x25F JUMP JUMPDEST CALLVALUE DUP1 ISZERO PUSH2 0x2A2 JUMPI PUSH0 DUP1 REVERT JUMPDEST POP PUSH2 0x2AB PUSH2 0x794 JUMP JUMPDEST PUSH1 0x40 MLOAD PUSH2 0x25F SWAP2 SWAP1 PUSH2 0x314B JUMP JUMPDEST CALLVALUE DUP1 ISZERO PUSH2 0x2C3 JUMPI PUSH0 DUP1 REVERT JUMPDEST POP PUSH2 0x2D7 PUSH2 0x2D2 CALLDATASIZE PUSH1 0x4 PUSH2 0x315D JUMP JUMPDEST PUSH2 0x823 JUMP JUMPDEST PUSH1 0x40 MLOAD PUSH2 0x25F SWAP2 SWAP1 PUSH2 0x3174 JUMP JUMPDEST PUSH2 0x2F7 PUSH2 0x2F2 CALLDATASIZE PUSH1 0x4 PUSH2 0x319E JUMP JUMPDEST PUSH2 0x872 JUMP JUMPDEST STOP JUMPDEST CALLVALUE DUP1 ISZERO PUSH2 0x304 JUMPI PUSH0 DUP1 REVERT JUMPDEST POP PUSH2 0x2AB PUSH2 0x313 CALLDATASIZE PUSH1 0x4 PUSH2 0x315D JUMP JUMPDEST PUSH2 0x96A JUMP JUMPDEST PUSH2 0x255 PUSH2 0x326 CALLDATASIZE PUSH1 0x4 PUSH2 0x31C6 JUMP JUMPDEST PUSH2 0xA48 JUMP JUMPDEST CALLVALUE DUP1 ISZERO PUSH2 0x336 JUMPI PUSH0 DUP1 REVERT JUMPDEST POP PUSH2 0x2F7 PUSH2 0x345 CALLDATASIZE PUSH1 0x4 PUSH2 0x31F8 JUMP JUMPDEST PUSH2 0xA7E JUMP JUMPDEST CALLVALUE DUP1 ISZERO PUSH2 0x355 JUMPI PUSH0 DUP1 REVERT JUMPDEST POP PUSH1 0x5 SLOAD PUSH2 0x255 JUMP JUMPDEST PUSH2 0x2F7 PUSH2 0x36C CALLDATASIZE PUSH1 0x4 PUSH2 0x3228 JUMP JUMPDEST PUSH2 0xA91 JUMP JUMPDEST CALLVALUE DUP1 ISZERO PUSH2 0x37C JUMPI PUSH0 DUP1 REVERT JUMPDEST POP PUSH2 0x255 PUSH2 0x38B CALLDATASIZE PUSH1 0x4 PUSH2 0x315D JUMP JUMPDEST PUSH2 0xAC7 JUMP JUMPDEST CALLVALUE DUP1 ISZERO PUSH2 0x39B JUMPI PUSH0 DUP1 REVERT JUMPDEST POP PUSH2 0x255 PUSH2 0x3AA CALLDATASIZE PUSH1 0x4 PUSH2 0x319E JUMP JUMPDEST PUSH2 0xB0B JUMP JUMPDEST PUSH2 0x2F7 PUSH2 0x3BD CALLDATASIZE PUSH1 0x4 PUSH2 0x3251 JUMP JUMPDEST PUSH2 0xB97 JUMP JUMPDEST CALLVALUE DUP1 ISZERO PUSH2 0x3CD JUMPI PUSH0 DUP1 REVERT JUMPDEST POP PUSH1 0x2 SLOAD PUSH1 0x40 MLOAD PUSH1 0xFF SWAP1 SWAP2 AND DUP2 MSTORE PUSH1 0x20 ADD PUSH2 0x25F JUMP JUMPDEST PUSH2 0x2F7 PUSH2 0x3F1 CALLDATASIZE PUSH1 0x4 PUSH2 0x3228 JUMP JUMPDEST PUSH2 0xBAD JUMP JUMPDEST CALLVALUE DUP1 ISZERO PUSH2 0x401 JUMPI PUSH0 DUP1 REVERT JUMPDEST POP PUSH2 0x255 PUSH2 0x410 CALLDATASIZE PUSH1 0x4 PUSH2 0x315D JUMP JUMPDEST PUSH2 0xBC7 JUMP JUMPDEST CALLVALUE DUP1 ISZERO PUSH2 0x420 JUMPI PUSH0 DUP1 REVERT JUMPDEST POP PUSH2 0x255 PUSH2 0x42F CALLDATASIZE PUSH1 0x4 PUSH2 0x315D JUMP JUMPDEST PUSH2 0xC54 JUMP JUMPDEST PUSH2 0x2F7 PUSH2 0x442 CALLDATASIZE PUSH1 0x4 PUSH2 0x3287 JUMP JUMPDEST PUSH2 0xCA5 JUMP JUMPDEST CALLVALUE DUP1 ISZERO PUSH2 0x452 JUMPI PUSH0 DUP1 REVERT JUMPDEST POP PUSH2 0x2F7 PUSH2 0x461 CALLDATASIZE PUSH1 0x4 PUSH2 0x3378 JUMP JUMPDEST PUSH2 0xD3F JUMP JUMPDEST CALLVALUE DUP1 ISZERO PUSH2 0x471 JUMPI PUSH0 DUP1 REVERT JUMPDEST POP PUSH2 0x255 PUSH2 0x480 CALLDATASIZE PUSH1 0x4 PUSH2 0x315D JUMP JUMPDEST PUSH2 0xD57 JUMP JUMPDEST CALLVALUE DUP1 ISZERO PUSH2 0x490 JUMPI PUSH0 DUP1 REVERT JUMPDEST POP PUSH2 0x2D7 PUSH2 0x49F CALLDATASIZE PUSH1 0x4 PUSH2 0x315D JUMP JUMPDEST PUSH2 0xDAC JUMP JUMPDEST CALLVALUE DUP1 ISZERO PUSH2 0x4AF JUMPI PUSH0 DUP1 REVERT JUMPDEST POP PUSH2 0x2AB PUSH2 0xE19 JUMP JUMPDEST CALLVALUE DUP1 ISZERO PUSH2 0x4C3 JUMPI PUSH0 DUP1 REVERT JUMPDEST POP PUSH2 0x255 PUSH2 0x4D2 CALLDATASIZE PUSH1 0x4 PUSH2 0x33BC JUMP JUMPDEST PUSH2 0xEA5 JUMP JUMPDEST CALLVALUE DUP1 ISZERO PUSH2 0x4E2 JUMPI PUSH0 DUP1 REVERT JUMPDEST POP PUSH2 0x2F7 PUSH2 0xF2B JUMP JUMPDEST CALLVALUE DUP1 ISZERO PUSH2 0x4F6 JUMPI PUSH0 DUP1 REVERT JUMPDEST POP PUSH1 0x8 SLOAD PUSH2 0x2D7 SWAP1 PUSH1 0x1 PUSH1 0x1 PUSH1 0xA0 SHL SUB AND DUP2 JUMP JUMPDEST PUSH2 0x2F7 PUSH2 0x518 CALLDATASIZE PUSH1 0x4 PUSH2 0x31C6 JUMP JUMPDEST PUSH2 0xF3E JUMP JUMPDEST CALLVALUE DUP1 ISZERO PUSH2 0x528 JUMPI PUSH0 DUP1 REVERT JUMPDEST POP PUSH1 0xD SLOAD PUSH1 0x1 PUSH1 0x1 PUSH1 0xA0 SHL SUB AND PUSH2 0x2D7 JUMP JUMPDEST CALLVALUE DUP1 ISZERO PUSH2 0x545 JUMPI PUSH0 DUP1 REVERT JUMPDEST POP PUSH2 0x2AB PUSH2 0xFF6 JUMP JUMPDEST CALLVALUE DUP1 ISZERO PUSH2 0x559 JUMPI PUSH0 DUP1 REVERT JUMPDEST POP PUSH2 0x255 PUSH2 0x568 CALLDATASIZE PUSH1 0x4 PUSH2 0x315D JUMP JUMPDEST PUSH2 0x1005 JUMP JUMPDEST CALLVALUE DUP1 ISZERO PUSH2 0x578 JUMPI PUSH0 DUP1 REVERT JUMPDEST POP PUSH2 0x255 PUSH2 0x587 CALLDATASIZE PUSH1 0x4 PUSH2 0x315D JUMP JUMPDEST PUSH2 0x109E JUMP JUMPDEST CALLVALUE DUP1 ISZERO PUSH2 0x597 JUMPI PUSH0 DUP1 REVERT JUMPDEST POP PUSH2 0x2F7 PUSH2 0x5A6 CALLDATASIZE PUSH1 0x4 PUSH2 0x33D5 JUMP JUMPDEST PUSH2 0x10E2 JUMP JUMPDEST PUSH2 0x2F7 PUSH2 0x5B9 CALLDATASIZE PUSH1 0x4 PUSH2 0x340A JUMP JUMPDEST PUSH2 0x10ED JUMP JUMPDEST CALLVALUE DUP1 ISZERO PUSH2 0x5C9 JUMPI PUSH0 DUP1 REVERT JUMPDEST POP PUSH2 0x2AB PUSH2 0x5D8 CALLDATASIZE PUSH1 0x4 PUSH2 0x315D JUMP JUMPDEST PUSH2 0x111F JUMP JUMPDEST CALLVALUE DUP1 ISZERO PUSH2 0x5E8 JUMPI PUSH0 DUP1 REVERT JUMPDEST POP PUSH2 0x255 PUSH2 0x5F7 CALLDATASIZE PUSH1 0x4 PUSH2 0x3480 JUMP JUMPDEST PUSH2 0x11AE JUMP JUMPDEST CALLVALUE DUP1 ISZERO PUSH2 0x607 JUMPI PUSH0 DUP1 REVERT JUMPDEST POP PUSH2 0x287 PUSH2 0x616 CALLDATASIZE PUSH1 0x4 PUSH2 0x34AA JUMP JUMPDEST PUSH2 0x11E0 JUMP JUMPDEST CALLVALUE DUP1 ISZERO PUSH2 0x626 JUMPI PUSH0 DUP1 REVERT JUMPDEST POP PUSH2 0x2AB PUSH2 0x1215 JUMP JUMPDEST CALLVALUE DUP1 ISZERO PUSH2 0x63A JUMPI PUSH0 DUP1 REVERT JUMPDEST POP PUSH2 0x287 PUSH2 0x649 CALLDATASIZE PUSH1 0x4 PUSH2 0x34E3 JUMP JUMPDEST PUSH2 0x12FA JUMP JUMPDEST CALLVALUE DUP1 ISZERO PUSH2 0x659 JUMPI PUSH0 DUP1 REVERT JUMPDEST POP PUSH1 0xA SLOAD PUSH2 0x255 JUMP JUMPDEST CALLVALUE DUP1 ISZERO PUSH2 0x66D JUMPI PUSH0 DUP1 REVERT JUMPDEST POP PUSH2 0x2F7 PUSH2 0x67C CALLDATASIZE PUSH1 0x4 PUSH2 0x30AE JUMP JUMPDEST PUSH2 0x132B JUMP JUMPDEST CALLVALUE DUP1 ISZERO PUSH2 0x68C JUMPI PUSH0 DUP1 REVERT JUMPDEST POP PUSH2 0x2F7 PUSH2 0x69B CALLDATASIZE PUSH1 0x4 PUSH2 0x33BC JUMP JUMPDEST PUSH2 0x133D JUMP JUMPDEST PUSH0 PUSH2 0x6AA DUP4 PUSH2 0xC54 JUMP JUMPDEST DUP3 LT PUSH2 0x71B JUMPI PUSH1 0x40 MLOAD PUSH3 0x461BCD PUSH1 0xE5 SHL DUP2 MSTORE PUSH1 0x20 PUSH1 0x4 DUP3 ADD MSTORE PUSH1 0x35 PUSH1 0x24 DUP3 ADD MSTORE PUSH32 0x45524333353235536C6F74456E756D657261626C653A20736C6F7420746F6B65 PUSH1 0x44 DUP3 ADD MSTORE PUSH21 0x6E20696E646578206F7574206F6620626F756E6473 PUSH1 0x58 SHL PUSH1 0x64 DUP3 ADD MSTORE PUSH1 0x84 ADD JUMPDEST PUSH1 0x40 MLOAD DUP1 SWAP2 SUB SWAP1 REVERT JUMPDEST PUSH0 DUP4 DUP2 MSTORE PUSH1 0xB PUSH1 0x20 MSTORE PUSH1 0x40 SWAP1 KECCAK256 SLOAD PUSH1 0xA DUP1 SLOAD SWAP1 SWAP2 SWAP1 DUP2 LT PUSH2 0x73E JUMPI PUSH2 0x73E PUSH2 0x350B JUMP JUMPDEST SWAP1 PUSH0 MSTORE PUSH1 0x20 PUSH0 KECCAK256 SWAP1 PUSH1 0x2 MUL ADD PUSH1 0x1 ADD DUP3 DUP2 SLOAD DUP2 LT PUSH2 0x75E JUMPI PUSH2 0x75E PUSH2 0x350B JUMP JUMPDEST SWAP1 PUSH0 MSTORE PUSH1 0x20 PUSH0 KECCAK256 ADD SLOAD SWAP1 POP JUMPDEST SWAP3 SWAP2 POP POP JUMP JUMPDEST PUSH0 PUSH1 0x1 PUSH1 0x1 PUSH1 0xE0 SHL SUB NOT DUP3 AND PUSH4 0x16D117CB PUSH1 0xE3 SHL EQ DUP1 PUSH2 0x76A JUMPI POP PUSH2 0x76A DUP3 PUSH2 0x137A JUMP JUMPDEST PUSH1 0x60 PUSH0 DUP1 SLOAD PUSH2 0x7A2 SWAP1 PUSH2 0x351F JUMP JUMPDEST DUP1 PUSH1 0x1F ADD PUSH1 0x20 DUP1 SWAP2 DIV MUL PUSH1 0x20 ADD PUSH1 0x40 MLOAD SWAP1 DUP2 ADD PUSH1 0x40 MSTORE DUP1 SWAP3 SWAP2 SWAP1 DUP2 DUP2 MSTORE PUSH1 0x20 ADD DUP3 DUP1 SLOAD PUSH2 0x7CE SWAP1 PUSH2 0x351F JUMP JUMPDEST DUP1 ISZERO PUSH2 0x819 JUMPI DUP1 PUSH1 0x1F LT PUSH2 0x7F0 JUMPI PUSH2 0x100 DUP1 DUP4 SLOAD DIV MUL DUP4 MSTORE SWAP2 PUSH1 0x20 ADD SWAP2 PUSH2 0x819 JUMP JUMPDEST DUP3 ADD SWAP2 SWAP1 PUSH0 MSTORE PUSH1 0x20 PUSH0 KECCAK256 SWAP1 JUMPDEST DUP2 SLOAD DUP2 MSTORE SWAP1 PUSH1 0x1 ADD SWAP1 PUSH1 0x20 ADD DUP1 DUP4 GT PUSH2 0x7FC JUMPI DUP3 SWAP1 SUB PUSH1 0x1F AND DUP3 ADD SWAP2 JUMPDEST POP POP POP POP POP SWAP1 POP SWAP1 JUMP JUMPDEST PUSH0 PUSH2 0x82D DUP3 PUSH2 0x139E JUMP JUMPDEST PUSH0 DUP3 DUP2 MSTORE PUSH1 0x6 PUSH1 0x20 MSTORE PUSH1 0x40 SWAP1 KECCAK256 SLOAD PUSH1 0x5 DUP1 SLOAD SWAP1 SWAP2 SWAP1 DUP2 LT PUSH2 0x850 JUMPI PUSH2 0x850 PUSH2 0x350B JUMP JUMPDEST PUSH0 SWAP2 DUP3 MSTORE PUSH1 0x20 SWAP1 SWAP2 KECCAK256 PUSH1 0x4 PUSH1 0x6 SWAP1 SWAP3 MUL ADD ADD SLOAD PUSH1 0x1 PUSH1 0x1 PUSH1 0xA0 SHL SUB AND SWAP3 SWAP2 POP POP JUMP JUMPDEST PUSH0 PUSH2 0x87C DUP3 PUSH2 0xDAC JUMP JUMPDEST SWAP1 POP PUSH0 PUSH2 0x888 DUP4 PUSH2 0xAC7 JUMP JUMPDEST SWAP1 POP DUP2 PUSH1 0x1 PUSH1 0x1 PUSH1 0xA0 SHL SUB AND DUP5 PUSH1 0x1 PUSH1 0x1 PUSH1 0xA0 SHL SUB AND SUB PUSH2 0x8BB JUMPI PUSH1 0x40 MLOAD PUSH3 0x461BCD PUSH1 0xE5 SHL DUP2 MSTORE PUSH1 0x4 ADD PUSH2 0x712 SWAP1 PUSH2 0x3557 JUMP JUMPDEST CALLER PUSH1 0x1 PUSH1 0x1 PUSH1 0xA0 SHL SUB DUP4 AND EQ DUP1 PUSH2 0x8D7 JUMPI POP PUSH2 0x8D7 DUP3 CALLER PUSH2 0x12FA JUMP JUMPDEST DUP1 PUSH2 0x8E8 JUMPI POP PUSH2 0x8E8 DUP3 DUP3 CALLER PUSH2 0x11E0 JUMP JUMPDEST PUSH2 0x95A JUMPI PUSH1 0x40 MLOAD PUSH3 0x461BCD PUSH1 0xE5 SHL DUP2 MSTORE PUSH1 0x20 PUSH1 0x4 DUP3 ADD MSTORE PUSH1 0x3E PUSH1 0x24 DUP3 ADD MSTORE PUSH32 0x455243333532353A20617070726F76652063616C6C6572206973206E6F74206F PUSH1 0x44 DUP3 ADD MSTORE PUSH32 0x776E6572206E6F7220617070726F76656420666F7220616C6C2F736C6F740000 PUSH1 0x64 DUP3 ADD MSTORE PUSH1 0x84 ADD PUSH2 0x712 JUMP JUMPDEST PUSH2 0x964 DUP5 DUP5 PUSH2 0x13C3 JUMP JUMPDEST POP POP POP POP JUMP JUMPDEST PUSH1 0x60 PUSH0 PUSH2 0x975 PUSH2 0x1458 JUMP JUMPDEST PUSH1 0x8 SLOAD SWAP1 SWAP2 POP PUSH1 0x1 PUSH1 0x1 PUSH1 0xA0 SHL SUB AND PUSH2 0x9D3 JUMPI PUSH0 DUP2 MLOAD GT PUSH2 0x9A4 JUMPI PUSH1 0x40 MLOAD DUP1 PUSH1 0x20 ADD PUSH1 0x40 MSTORE DUP1 PUSH0 DUP2 MSTORE POP PUSH2 0xA41 JUMP JUMPDEST DUP1 PUSH2 0x9AE DUP5 PUSH2 0x1467 JUMP JUMPDEST PUSH1 0x40 MLOAD PUSH1 0x20 ADD PUSH2 0x9BF SWAP3 SWAP2 SWAP1 PUSH2 0x3599 JUMP JUMPDEST PUSH1 0x40 MLOAD PUSH1 0x20 DUP2 DUP4 SUB SUB DUP2 MSTORE SWAP1 PUSH1 0x40 MSTORE PUSH2 0xA41 JUMP JUMPDEST PUSH1 0x8 SLOAD PUSH1 0x40 MLOAD PUSH4 0x3601BFC5 PUSH1 0xE1 SHL DUP2 MSTORE PUSH1 0x4 DUP2 ADD DUP6 SWAP1 MSTORE PUSH1 0x1 PUSH1 0x1 PUSH1 0xA0 SHL SUB SWAP1 SWAP2 AND SWAP1 PUSH4 0x6C037F8A SWAP1 PUSH1 0x24 ADD JUMPDEST PUSH0 PUSH1 0x40 MLOAD DUP1 DUP4 SUB DUP2 DUP7 GAS STATICCALL ISZERO DUP1 ISZERO PUSH2 0xA1A JUMPI RETURNDATASIZE PUSH0 DUP1 RETURNDATACOPY RETURNDATASIZE PUSH0 REVERT JUMPDEST POP POP POP POP PUSH1 0x40 MLOAD RETURNDATASIZE PUSH0 DUP3 RETURNDATACOPY PUSH1 0x1F RETURNDATASIZE SWAP1 DUP2 ADD PUSH1 0x1F NOT AND DUP3 ADD PUSH1 0x40 MSTORE PUSH2 0xA41 SWAP2 SWAP1 DUP2 ADD SWAP1 PUSH2 0x35D8 JUMP JUMPDEST SWAP4 SWAP3 POP POP POP JUMP JUMPDEST PUSH0 PUSH2 0xA54 CALLER DUP6 DUP5 PUSH2 0x14F6 JUMP JUMPDEST PUSH2 0xA5D DUP5 PUSH2 0x1584 JUMP JUMPDEST SWAP1 POP PUSH2 0xA73 DUP4 DUP3 PUSH2 0xA6D DUP8 PUSH2 0xAC7 JUMP JUMPDEST PUSH0 PUSH2 0x158D JUMP JUMPDEST PUSH2 0xA41 DUP5 DUP3 DUP5 PUSH2 0x16CD JUMP JUMPDEST PUSH2 0xA86 PUSH2 0x1A10 JUMP JUMPDEST PUSH2 0x964 DUP4 DUP4 DUP4 PUSH2 0x1A3D JUMP JUMPDEST PUSH2 0xA9B CALLER DUP3 PUSH2 0x1A54 JUMP JUMPDEST PUSH2 0xAB7 JUMPI PUSH1 0x40 MLOAD PUSH3 0x461BCD PUSH1 0xE5 SHL DUP2 MSTORE PUSH1 0x4 ADD PUSH2 0x712 SWAP1 PUSH2 0x3640 JUMP JUMPDEST PUSH2 0xAC2 DUP4 DUP4 DUP4 PUSH2 0x1AD9 JUMP JUMPDEST POP POP POP JUMP JUMPDEST PUSH0 PUSH2 0xAD1 DUP3 PUSH2 0x139E JUMP JUMPDEST PUSH0 DUP3 DUP2 MSTORE PUSH1 0x6 PUSH1 0x20 MSTORE PUSH1 0x40 SWAP1 KECCAK256 SLOAD PUSH1 0x5 DUP1 SLOAD SWAP1 SWAP2 SWAP1 DUP2 LT PUSH2 0xAF4 JUMPI PUSH2 0xAF4 PUSH2 0x350B JUMP JUMPDEST SWAP1 PUSH0 MSTORE PUSH1 0x20 PUSH0 KECCAK256 SWAP1 PUSH1 0x6 MUL ADD PUSH1 0x1 ADD SLOAD SWAP1 POP SWAP2 SWAP1 POP JUMP JUMPDEST PUSH0 PUSH2 0xB15 DUP4 PUSH2 0xEA5 JUMP JUMPDEST DUP3 LT PUSH2 0xB6E JUMPI PUSH1 0x40 MLOAD PUSH3 0x461BCD PUSH1 0xE5 SHL DUP2 MSTORE PUSH1 0x20 PUSH1 0x4 DUP3 ADD MSTORE PUSH1 0x22 PUSH1 0x24 DUP3 ADD MSTORE PUSH32 0x455243333532353A206F776E657220696E646578206F7574206F6620626F756E PUSH1 0x44 DUP3 ADD MSTORE PUSH2 0x6473 PUSH1 0xF0 SHL PUSH1 0x64 DUP3 ADD MSTORE PUSH1 0x84 ADD PUSH2 0x712 JUMP JUMPDEST PUSH1 0x1 PUSH1 0x1 PUSH1 0xA0 SHL SUB DUP4 AND PUSH0 SWAP1 DUP2 MSTORE PUSH1 0x7 PUSH1 0x20 MSTORE PUSH1 0x40 SWAP1 KECCAK256 DUP1 SLOAD DUP4 SWAP1 DUP2 LT PUSH2 0x75E JUMPI PUSH2 0x75E PUSH2 0x350B JUMP JUMPDEST PUSH2 0xBA2 CALLER DUP5 DUP4 PUSH2 0x14F6 JUMP JUMPDEST PUSH2 0xAC2 DUP4 DUP4 DUP4 PUSH2 0x16CD JUMP JUMPDEST PUSH2 0xAC2 DUP4 DUP4 DUP4 PUSH1 0x40 MLOAD DUP1 PUSH1 0x20 ADD PUSH1 0x40 MSTORE DUP1 PUSH0 DUP2 MSTORE POP PUSH2 0x10ED JUMP JUMPDEST PUSH0 PUSH2 0xBD1 PUSH1 0x5 SLOAD SWAP1 JUMP JUMPDEST DUP3 LT PUSH2 0xC2B JUMPI PUSH1 0x40 MLOAD PUSH3 0x461BCD PUSH1 0xE5 SHL DUP2 MSTORE PUSH1 0x20 PUSH1 0x4 DUP3 ADD MSTORE PUSH1 0x23 PUSH1 0x24 DUP3 ADD MSTORE PUSH32 0x455243333532353A20676C6F62616C20696E646578206F7574206F6620626F75 PUSH1 0x44 DUP3 ADD MSTORE PUSH3 0x6E6473 PUSH1 0xE8 SHL PUSH1 0x64 DUP3 ADD MSTORE PUSH1 0x84 ADD PUSH2 0x712 JUMP JUMPDEST PUSH1 0x5 DUP3 DUP2 SLOAD DUP2 LT PUSH2 0xC3E JUMPI PUSH2 0xC3E PUSH2 0x350B JUMP JUMPDEST SWAP1 PUSH0 MSTORE PUSH1 0x20 PUSH0 KECCAK256 SWAP1 PUSH1 0x6 MUL ADD PUSH0 ADD SLOAD SWAP1 POP SWAP2 SWAP1 POP JUMP JUMPDEST PUSH0 PUSH2 0xC5E DUP3 PUSH2 0x1C4E JUMP JUMPDEST PUSH2 0xC69 JUMPI POP PUSH0 SWAP2 SWAP1 POP JUMP JUMPDEST PUSH0 DUP3 DUP2 MSTORE PUSH1 0xB PUSH1 0x20 MSTORE PUSH1 0x40 SWAP1 KECCAK256 SLOAD PUSH1 0xA DUP1 SLOAD SWAP1 SWAP2 SWAP1 DUP2 LT PUSH2 0xC8C JUMPI PUSH2 0xC8C PUSH2 0x350B JUMP JUMPDEST PUSH0 SWAP2 DUP3 MSTORE PUSH1 0x20 SWAP1 SWAP2 KECCAK256 PUSH1 0x1 PUSH1 0x2 SWAP1 SWAP3 MUL ADD ADD SLOAD SWAP3 SWAP2 POP POP JUMP JUMPDEST CALLER PUSH1 0x1 PUSH1 0x1 PUSH1 0xA0 SHL SUB DUP6 AND EQ DUP1 PUSH2 0xCC1 JUMPI POP PUSH2 0xCC1 DUP5 CALLER PUSH2 0x12FA JUMP JUMPDEST PUSH2 0xD33 JUMPI PUSH1 0x40 MLOAD PUSH3 0x461BCD PUSH1 0xE5 SHL DUP2 MSTORE PUSH1 0x20 PUSH1 0x4 DUP3 ADD MSTORE PUSH1 0x3F PUSH1 0x24 DUP3 ADD MSTORE PUSH32 0x45524333353235536C6F74417070726F7661626C653A2063616C6C6572206973 PUSH1 0x44 DUP3 ADD MSTORE PUSH32 0x206E6F74206F776E6572206E6F7220617070726F76656420666F7220616C6C00 PUSH1 0x64 DUP3 ADD MSTORE PUSH1 0x84 ADD PUSH2 0x712 JUMP JUMPDEST PUSH2 0x964 DUP5 DUP5 DUP5 DUP5 PUSH2 0x1C95 JUMP JUMPDEST PUSH2 0xD47 PUSH2 0x1A10 JUMP JUMPDEST PUSH1 0xE PUSH2 0xD53 DUP3 DUP3 PUSH2 0x36D7 JUMP JUMPDEST POP POP JUMP JUMPDEST PUSH0 DUP1 DUP1 JUMPDEST PUSH2 0xD64 DUP5 PUSH2 0xC54 JUMP JUMPDEST DUP2 LT ISZERO PUSH2 0xDA5 JUMPI PUSH0 PUSH2 0xD76 DUP6 DUP4 PUSH2 0x6A0 JUMP JUMPDEST SWAP1 POP PUSH0 PUSH2 0xD82 DUP3 PUSH2 0x109E JUMP JUMPDEST SWAP1 POP PUSH2 0xD8E DUP2 DUP6 PUSH2 0x37A6 JUMP JUMPDEST SWAP4 POP POP POP DUP1 DUP1 PUSH2 0xD9D SWAP1 PUSH2 0x37B9 JUMP JUMPDEST SWAP2 POP POP PUSH2 0xD5B JUMP JUMPDEST POP SWAP3 SWAP2 POP POP JUMP JUMPDEST PUSH0 PUSH2 0xDB6 DUP3 PUSH2 0x139E JUMP JUMPDEST PUSH0 DUP3 DUP2 MSTORE PUSH1 0x6 PUSH1 0x20 MSTORE PUSH1 0x40 SWAP1 KECCAK256 SLOAD PUSH1 0x5 DUP1 SLOAD SWAP1 SWAP2 SWAP1 DUP2 LT PUSH2 0xDD9 JUMPI PUSH2 0xDD9 PUSH2 0x350B JUMP JUMPDEST PUSH0 SWAP2 DUP3 MSTORE PUSH1 0x20 SWAP1 SWAP2 KECCAK256 PUSH1 0x3 PUSH1 0x6 SWAP1 SWAP3 MUL ADD ADD SLOAD PUSH1 0x1 PUSH1 0x1 PUSH1 0xA0 SHL SUB AND SWAP1 POP DUP1 PUSH2 0xE14 JUMPI PUSH1 0x40 MLOAD PUSH3 0x461BCD PUSH1 0xE5 SHL DUP2 MSTORE PUSH1 0x4 ADD PUSH2 0x712 SWAP1 PUSH2 0x37D1 JUMP JUMPDEST SWAP2 SWAP1 POP JUMP JUMPDEST PUSH1 0xE DUP1 SLOAD PUSH2 0xE26 SWAP1 PUSH2 0x351F JUMP JUMPDEST DUP1 PUSH1 0x1F ADD PUSH1 0x20 DUP1 SWAP2 DIV MUL PUSH1 0x20 ADD PUSH1 0x40 MLOAD SWAP1 DUP2 ADD PUSH1 0x40 MSTORE DUP1 SWAP3 SWAP2 SWAP1 DUP2 DUP2 MSTORE PUSH1 0x20 ADD DUP3 DUP1 SLOAD PUSH2 0xE52 SWAP1 PUSH2 0x351F JUMP JUMPDEST DUP1 ISZERO PUSH2 0xE9D JUMPI DUP1 PUSH1 0x1F LT PUSH2 0xE74 JUMPI PUSH2 0x100 DUP1 DUP4 SLOAD DIV MUL DUP4 MSTORE SWAP2 PUSH1 0x20 ADD SWAP2 PUSH2 0xE9D JUMP JUMPDEST DUP3 ADD SWAP2 SWAP1 PUSH0 MSTORE PUSH1 0x20 PUSH0 KECCAK256 SWAP1 JUMPDEST DUP2 SLOAD DUP2 MSTORE SWAP1 PUSH1 0x1 ADD SWAP1 PUSH1 0x20 ADD DUP1 DUP4 GT PUSH2 0xE80 JUMPI DUP3 SWAP1 SUB PUSH1 0x1F AND DUP3 ADD SWAP2 JUMPDEST POP POP POP POP POP DUP2 JUMP JUMPDEST PUSH0 PUSH1 0x1 PUSH1 0x1 PUSH1 0xA0 SHL SUB DUP3 AND PUSH2 0xF10 JUMPI PUSH1 0x40 MLOAD PUSH3 0x461BCD PUSH1 0xE5 SHL DUP2 MSTORE PUSH1 0x20 PUSH1 0x4 DUP3 ADD MSTORE PUSH1 0x2B PUSH1 0x24 DUP3 ADD MSTORE PUSH32 0x455243333532353A2062616C616E636520717565727920666F7220746865207A PUSH1 0x44 DUP3 ADD MSTORE PUSH11 0x65726F2061646472657373 PUSH1 0xA8 SHL PUSH1 0x64 DUP3 ADD MSTORE PUSH1 0x84 ADD PUSH2 0x712 JUMP JUMPDEST POP PUSH1 0x1 PUSH1 0x1 PUSH1 0xA0 SHL SUB AND PUSH0 SWAP1 DUP2 MSTORE PUSH1 0x7 PUSH1 0x20 MSTORE PUSH1 0x40 SWAP1 KECCAK256 SLOAD SWAP1 JUMP JUMPDEST PUSH2 0xF33 PUSH2 0x1A10 JUMP JUMPDEST PUSH2 0xF3C PUSH0 PUSH2 0x1D7E JUMP JUMPDEST JUMP JUMPDEST PUSH0 PUSH2 0xF48 DUP5 PUSH2 0xDAC JUMP JUMPDEST SWAP1 POP DUP1 PUSH1 0x1 PUSH1 0x1 PUSH1 0xA0 SHL SUB AND DUP4 PUSH1 0x1 PUSH1 0x1 PUSH1 0xA0 SHL SUB AND SUB PUSH2 0xF7B JUMPI PUSH1 0x40 MLOAD PUSH3 0x461BCD PUSH1 0xE5 SHL DUP2 MSTORE PUSH1 0x4 ADD PUSH2 0x712 SWAP1 PUSH2 0x3557 JUMP JUMPDEST PUSH2 0xF85 CALLER DUP6 PUSH2 0x1A54 JUMP JUMPDEST PUSH2 0xFEB JUMPI PUSH1 0x40 MLOAD PUSH3 0x461BCD PUSH1 0xE5 SHL DUP2 MSTORE PUSH1 0x20 PUSH1 0x4 DUP3 ADD MSTORE PUSH1 0x31 PUSH1 0x24 DUP3 ADD MSTORE PUSH32 0x455243333532353A20617070726F76652063616C6C6572206973206E6F74206F PUSH1 0x44 DUP3 ADD MSTORE PUSH17 0x1DDB995C881B9BDC88185C1C1C9BDD9959 PUSH1 0x7A SHL PUSH1 0x64 DUP3 ADD MSTORE PUSH1 0x84 ADD PUSH2 0x712 JUMP JUMPDEST PUSH2 0x964 DUP5 DUP5 DUP5 PUSH2 0x1DCF JUMP JUMPDEST PUSH1 0x60 PUSH1 0x1 DUP1 SLOAD PUSH2 0x7A2 SWAP1 PUSH2 0x351F JUMP JUMPDEST PUSH0 PUSH2 0x100F PUSH1 0xA SLOAD SWAP1 JUMP JUMPDEST DUP3 LT PUSH2 0x1075 JUMPI PUSH1 0x40 MLOAD PUSH3 0x461BCD PUSH1 0xE5 SHL DUP2 MSTORE PUSH1 0x20 PUSH1 0x4 DUP3 ADD MSTORE PUSH1 0x2F PUSH1 0x24 DUP3 ADD MSTORE PUSH32 0x45524333353235536C6F74456E756D657261626C653A20736C6F7420696E6465 PUSH1 0x44 DUP3 ADD MSTORE PUSH15 0x78206F7574206F6620626F756E6473 PUSH1 0x88 SHL PUSH1 0x64 DUP3 ADD MSTORE PUSH1 0x84 ADD PUSH2 0x712 JUMP JUMPDEST PUSH1 0xA DUP3 DUP2 SLOAD DUP2 LT PUSH2 0x1088 JUMPI PUSH2 0x1088 PUSH2 0x350B JUMP JUMPDEST SWAP1 PUSH0 MSTORE PUSH1 0x20 PUSH0 KECCAK256 SWAP1 PUSH1 0x2 MUL ADD PUSH0 ADD SLOAD SWAP1 POP SWAP2 SWAP1 POP JUMP JUMPDEST PUSH0 PUSH2 0x10A8 DUP3 PUSH2 0x139E JUMP JUMPDEST PUSH0 DUP3 DUP2 MSTORE PUSH1 0x6 PUSH1 0x20 MSTORE PUSH1 0x40 SWAP1 KECCAK256 SLOAD PUSH1 0x5 DUP1 SLOAD SWAP1 SWAP2 SWAP1 DUP2 LT PUSH2 0x10CB JUMPI PUSH2 0x10CB PUSH2 0x350B JUMP JUMPDEST SWAP1 PUSH0 MSTORE PUSH1 0x20 PUSH0 KECCAK256 SWAP1 PUSH1 0x6 MUL ADD PUSH1 0x2 ADD SLOAD SWAP1 POP SWAP2 SWAP1 POP JUMP JUMPDEST PUSH2 0xD53 CALLER DUP4 DUP4 PUSH2 0x1F04 JUMP JUMPDEST PUSH2 0x10F7 CALLER DUP4 PUSH2 0x1A54 JUMP JUMPDEST PUSH2 0x1113 JUMPI PUSH1 0x40 MLOAD PUSH3 0x461BCD PUSH1 0xE5 SHL DUP2 MSTORE PUSH1 0x4 ADD PUSH2 0x712 SWAP1 PUSH2 0x3640 JUMP JUMPDEST PUSH2 0x964 DUP5 DUP5 DUP5 DUP5 PUSH2 0x1FCD JUMP JUMPDEST PUSH1 0x60 PUSH2 0x112A DUP3 PUSH2 0x139E JUMP JUMPDEST PUSH0 PUSH2 0x1133 PUSH2 0x1458 JUMP JUMPDEST PUSH1 0x8 SLOAD SWAP1 SWAP2 POP PUSH1 0x1 PUSH1 0x1 PUSH1 0xA0 SHL SUB AND PUSH2 0x117D JUMPI PUSH0 DUP2 MLOAD GT PUSH2 0x1162 JUMPI PUSH1 0x40 MLOAD DUP1 PUSH1 0x20 ADD PUSH1 0x40 MSTORE DUP1 PUSH0 DUP2 MSTORE POP PUSH2 0xA41 JUMP JUMPDEST DUP1 PUSH2 0x116C DUP5 PUSH2 0x1467 JUMP JUMPDEST PUSH1 0x40 MLOAD PUSH1 0x20 ADD PUSH2 0x9BF SWAP3 SWAP2 SWAP1 PUSH2 0x3804 JUMP JUMPDEST PUSH1 0x8 SLOAD PUSH1 0x40 MLOAD PUSH4 0x44A5A617 PUSH1 0xE1 SHL DUP2 MSTORE PUSH1 0x4 DUP2 ADD DUP6 SWAP1 MSTORE PUSH1 0x1 PUSH1 0x1 PUSH1 0xA0 SHL SUB SWAP1 SWAP2 AND SWAP1 PUSH4 0x894B4C2E SWAP1 PUSH1 0x24 ADD PUSH2 0xA00 JUMP JUMPDEST PUSH0 PUSH2 0x11B8 DUP4 PUSH2 0x139E JUMP JUMPDEST POP PUSH0 SWAP2 DUP3 MSTORE PUSH1 0x4 PUSH1 0x20 SWAP1 DUP2 MSTORE PUSH1 0x40 DUP1 DUP5 KECCAK256 PUSH1 0x1 PUSH1 0x1 PUSH1 0xA0 SHL SUB SWAP4 SWAP1 SWAP4 AND DUP5 MSTORE SWAP2 SWAP1 MSTORE SWAP1 KECCAK256 SLOAD SWAP1 JUMP JUMPDEST PUSH1 0x1 PUSH1 0x1 PUSH1 0xA0 SHL SUB SWAP3 DUP4 AND PUSH0 SWAP1 DUP2 MSTORE PUSH1 0xC PUSH1 0x20 SWAP1 DUP2 MSTORE PUSH1 0x40 DUP1 DUP4 KECCAK256 SWAP5 DUP4 MSTORE SWAP4 DUP2 MSTORE DUP4 DUP3 KECCAK256 SWAP3 SWAP1 SWAP5 AND DUP2 MSTORE SWAP3 MSTORE SWAP1 KECCAK256 SLOAD PUSH1 0xFF AND SWAP1 JUMP JUMPDEST PUSH1 0x60 PUSH0 PUSH2 0x1220 PUSH2 0x1458 JUMP JUMPDEST PUSH1 0x8 SLOAD SWAP1 SWAP2 POP PUSH1 0x1 PUSH1 0x1 PUSH1 0xA0 SHL SUB AND PUSH2 0x127E JUMPI PUSH0 DUP2 MLOAD GT PUSH2 0x124F JUMPI PUSH1 0x40 MLOAD DUP1 PUSH1 0x20 ADD PUSH1 0x40 MSTORE DUP1 PUSH0 DUP2 MSTORE POP PUSH2 0x12F4 JUMP JUMPDEST DUP1 PUSH2 0x1259 ADDRESS PUSH2 0x2040 JUMP JUMPDEST PUSH1 0x40 MLOAD PUSH1 0x20 ADD PUSH2 0x126A SWAP3 SWAP2 SWAP1 PUSH2 0x3832 JUMP JUMPDEST PUSH1 0x40 MLOAD PUSH1 0x20 DUP2 DUP4 SUB SUB DUP2 MSTORE SWAP1 PUSH1 0x40 MSTORE PUSH2 0x12F4 JUMP JUMPDEST PUSH1 0x8 PUSH0 SWAP1 SLOAD SWAP1 PUSH2 0x100 EXP SWAP1 DIV PUSH1 0x1 PUSH1 0x1 PUSH1 0xA0 SHL SUB AND PUSH1 0x1 PUSH1 0x1 PUSH1 0xA0 SHL SUB AND PUSH4 0x725FA09C PUSH1 0x40 MLOAD DUP2 PUSH4 0xFFFFFFFF AND PUSH1 0xE0 SHL DUP2 MSTORE PUSH1 0x4 ADD PUSH0 PUSH1 0x40 MLOAD DUP1 DUP4 SUB DUP2 DUP7 GAS STATICCALL ISZERO DUP1 ISZERO PUSH2 0x12CD JUMPI RETURNDATASIZE PUSH0 DUP1 RETURNDATACOPY RETURNDATASIZE PUSH0 REVERT JUMPDEST POP POP POP POP PUSH1 0x40 MLOAD RETURNDATASIZE PUSH0 DUP3 RETURNDATACOPY PUSH1 0x1F RETURNDATASIZE SWAP1 DUP2 ADD PUSH1 0x1F NOT AND DUP3 ADD PUSH1 0x40 MSTORE PUSH2 0x12F4 SWAP2 SWAP1 DUP2 ADD SWAP1 PUSH2 0x35D8 JUMP JUMPDEST SWAP2 POP POP SWAP1 JUMP JUMPDEST PUSH1 0x1 PUSH1 0x1 PUSH1 0xA0 SHL SUB SWAP2 DUP3 AND PUSH0 SWAP1 DUP2 MSTORE PUSH1 0x7 PUSH1 0x20 SWAP1 DUP2 MSTORE PUSH1 0x40 DUP1 DUP4 KECCAK256 SWAP4 SWAP1 SWAP5 AND DUP3 MSTORE PUSH1 0x2 SWAP1 SWAP3 ADD SWAP1 SWAP2 MSTORE KECCAK256 SLOAD PUSH1 0xFF AND SWAP1 JUMP JUMPDEST PUSH2 0x1333 PUSH2 0x1A10 JUMP JUMPDEST PUSH2 0xD53 DUP3 DUP3 PUSH2 0x2056 JUMP JUMPDEST PUSH2 0x1345 PUSH2 0x1A10 JUMP JUMPDEST PUSH1 0x1 PUSH1 0x1 PUSH1 0xA0 SHL SUB DUP2 AND PUSH2 0x136E JUMPI PUSH0 PUSH1 0x40 MLOAD PUSH4 0x1E4FBDF7 PUSH1 0xE0 SHL DUP2 MSTORE PUSH1 0x4 ADD PUSH2 0x712 SWAP2 SWAP1 PUSH2 0x3174 JUMP JUMPDEST PUSH2 0x1377 DUP2 PUSH2 0x1D7E JUMP JUMPDEST POP JUMP JUMPDEST PUSH0 PUSH1 0x1 PUSH1 0x1 PUSH1 0xE0 SHL SUB NOT DUP3 AND PUSH4 0x1DBA0DCF PUSH1 0xE1 SHL EQ DUP1 PUSH2 0x76A JUMPI POP PUSH2 0x76A DUP3 PUSH2 0x2094 JUMP JUMPDEST PUSH2 0x13A7 DUP2 PUSH2 0x2135 JUMP JUMPDEST PUSH2 0x1377 JUMPI PUSH1 0x40 MLOAD PUSH3 0x461BCD PUSH1 0xE5 SHL DUP2 MSTORE PUSH1 0x4 ADD PUSH2 0x712 SWAP1 PUSH2 0x37D1 JUMP JUMPDEST PUSH0 DUP2 DUP2 MSTORE PUSH1 0x6 PUSH1 0x20 MSTORE PUSH1 0x40 SWAP1 KECCAK256 SLOAD PUSH1 0x5 DUP1 SLOAD DUP5 SWAP3 SWAP1 DUP2 LT PUSH2 0x13E6 JUMPI PUSH2 0x13E6 PUSH2 0x350B JUMP JUMPDEST PUSH0 SWAP2 DUP3 MSTORE PUSH1 0x20 SWAP1 SWAP2 KECCAK256 PUSH1 0x6 SWAP1 SWAP2 MUL ADD PUSH1 0x4 ADD DUP1 SLOAD PUSH1 0x1 PUSH1 0x1 PUSH1 0xA0 SHL SUB NOT AND PUSH1 0x1 PUSH1 0x1 PUSH1 0xA0 SHL SUB SWAP3 DUP4 AND OR SWAP1 SSTORE DUP2 SWAP1 DUP4 AND PUSH2 0x141F DUP3 PUSH2 0xDAC JUMP JUMPDEST PUSH1 0x1 PUSH1 0x1 PUSH1 0xA0 SHL SUB AND PUSH32 0x8C5BE1E5EBEC7D5BD14F71427D1E84F3DD0314C0F7B2291E5B200AC8C7C3B925 PUSH1 0x40 MLOAD PUSH1 0x40 MLOAD DUP1 SWAP2 SUB SWAP1 LOG4 POP POP JUMP JUMPDEST PUSH1 0x60 PUSH1 0xE DUP1 SLOAD PUSH2 0x7A2 SWAP1 PUSH2 0x351F JUMP JUMPDEST PUSH1 0x60 PUSH0 PUSH2 0x1473 DUP4 PUSH2 0x217C JUMP JUMPDEST PUSH1 0x1 ADD SWAP1 POP PUSH0 DUP2 PUSH1 0x1 PUSH1 0x1 PUSH1 0x40 SHL SUB DUP2 GT ISZERO PUSH2 0x1491 JUMPI PUSH2 0x1491 PUSH2 0x32D3 JUMP JUMPDEST PUSH1 0x40 MLOAD SWAP1 DUP1 DUP3 MSTORE DUP1 PUSH1 0x1F ADD PUSH1 0x1F NOT AND PUSH1 0x20 ADD DUP3 ADD PUSH1 0x40 MSTORE DUP1 ISZERO PUSH2 0x14BB JUMPI PUSH1 0x20 DUP3 ADD DUP2 DUP1 CALLDATASIZE DUP4 CALLDATACOPY ADD SWAP1 POP JUMPDEST POP SWAP1 POP DUP2 DUP2 ADD PUSH1 0x20 ADD JUMPDEST PUSH0 NOT ADD PUSH16 0x181899199A1A9B1B9C1CB0B131B232B3 PUSH1 0x81 SHL PUSH1 0xA DUP7 MOD BYTE DUP2 MSTORE8 PUSH1 0xA DUP6 DIV SWAP5 POP DUP5 PUSH2 0x14C5 JUMPI POP SWAP4 SWAP3 POP POP POP JUMP JUMPDEST PUSH0 PUSH2 0x1501 DUP4 DUP6 PUSH2 0x11AE JUMP JUMPDEST SWAP1 POP PUSH2 0x150D DUP5 DUP5 PUSH2 0x1A54 JUMP JUMPDEST ISZERO DUP1 ISZERO PUSH2 0x151B JUMPI POP PUSH0 NOT DUP2 EQ ISZERO JUMPDEST ISZERO PUSH2 0x964 JUMPI DUP2 DUP2 LT ISZERO PUSH2 0x1570 JUMPI PUSH1 0x40 MLOAD PUSH3 0x461BCD PUSH1 0xE5 SHL DUP2 MSTORE PUSH1 0x20 PUSH1 0x4 DUP3 ADD MSTORE PUSH1 0x1F PUSH1 0x24 DUP3 ADD MSTORE PUSH32 0x455243333532353A20696E73756666696369656E7420616C6C6F77616E636500 PUSH1 0x44 DUP3 ADD MSTORE PUSH1 0x64 ADD PUSH2 0x712 JUMP JUMPDEST PUSH2 0x964 DUP4 DUP6 PUSH2 0x157F DUP6 DUP6 PUSH2 0x3875 JUMP JUMPDEST PUSH2 0x1DCF JUMP JUMPDEST PUSH0 PUSH2 0x76A PUSH2 0x2253 JUMP JUMPDEST PUSH1 0x1 PUSH1 0x1 PUSH1 0xA0 SHL SUB DUP5 AND PUSH2 0x15ED JUMPI PUSH1 0x40 MLOAD PUSH3 0x461BCD PUSH1 0xE5 SHL DUP2 MSTORE PUSH1 0x20 PUSH1 0x4 DUP3 ADD MSTORE PUSH1 0x21 PUSH1 0x24 DUP3 ADD MSTORE PUSH32 0x455243333532353A206D696E7420746F20746865207A65726F20616464726573 PUSH1 0x44 DUP3 ADD MSTORE PUSH1 0x73 PUSH1 0xF8 SHL PUSH1 0x64 DUP3 ADD MSTORE PUSH1 0x84 ADD PUSH2 0x712 JUMP JUMPDEST DUP3 PUSH0 SUB PUSH2 0x1646 JUMPI PUSH1 0x40 MLOAD PUSH3 0x461BCD PUSH1 0xE5 SHL DUP2 MSTORE PUSH1 0x20 PUSH1 0x4 DUP3 ADD MSTORE PUSH1 0x21 PUSH1 0x24 DUP3 ADD MSTORE PUSH32 0x455243333532353A2063616E6E6F74206D696E74207A65726F20746F6B656E49 PUSH1 0x44 DUP3 ADD MSTORE PUSH1 0x19 PUSH1 0xFA SHL PUSH1 0x64 DUP3 ADD MSTORE PUSH1 0x84 ADD PUSH2 0x712 JUMP JUMPDEST PUSH2 0x164F DUP4 PUSH2 0x2135 JUMP JUMPDEST ISZERO PUSH2 0x169C JUMPI PUSH1 0x40 MLOAD PUSH3 0x461BCD PUSH1 0xE5 SHL DUP2 MSTORE PUSH1 0x20 PUSH1 0x4 DUP3 ADD MSTORE PUSH1 0x1D PUSH1 0x24 DUP3 ADD MSTORE PUSH32 0x455243333532353A20746F6B656E20616C7265616479206D696E746564000000 PUSH1 0x44 DUP3 ADD MSTORE PUSH1 0x64 ADD PUSH2 0x712 JUMP JUMPDEST PUSH2 0x16AA PUSH0 DUP6 PUSH0 DUP7 DUP7 DUP7 PUSH2 0x226C JUMP JUMPDEST PUSH2 0x16B5 DUP5 DUP5 DUP5 PUSH2 0x22A9 JUMP JUMPDEST PUSH2 0x16BF DUP4 DUP3 PUSH2 0x236C JUMP JUMPDEST PUSH2 0x964 PUSH0 DUP6 PUSH0 DUP7 DUP7 DUP7 PUSH2 0x23EC JUMP JUMPDEST PUSH2 0x16D6 DUP4 PUSH2 0x2135 JUMP JUMPDEST PUSH2 0x1732 JUMPI PUSH1 0x40 MLOAD PUSH3 0x461BCD PUSH1 0xE5 SHL DUP2 MSTORE PUSH1 0x20 PUSH1 0x4 DUP3 ADD MSTORE PUSH1 0x27 PUSH1 0x24 DUP3 ADD MSTORE PUSH32 0x455243333532353A207472616E736665722066726F6D20696E76616C69642074 PUSH1 0x44 DUP3 ADD MSTORE PUSH7 0x1BDAD95B881251 PUSH1 0xCA SHL PUSH1 0x64 DUP3 ADD MSTORE PUSH1 0x84 ADD PUSH2 0x712 JUMP JUMPDEST PUSH2 0x173B DUP3 PUSH2 0x2135 JUMP JUMPDEST PUSH2 0x1795 JUMPI PUSH1 0x40 MLOAD PUSH3 0x461BCD PUSH1 0xE5 SHL DUP2 MSTORE PUSH1 0x20 PUSH1 0x4 DUP3 ADD MSTORE PUSH1 0x25 PUSH1 0x24 DUP3 ADD MSTORE PUSH32 0x455243333532353A207472616E7366657220746F20696E76616C696420746F6B PUSH1 0x44 DUP3 ADD MSTORE PUSH5 0x195B881251 PUSH1 0xDA SHL PUSH1 0x64 DUP3 ADD MSTORE PUSH1 0x84 ADD PUSH2 0x712 JUMP JUMPDEST PUSH0 DUP4 DUP2 MSTORE PUSH1 0x6 PUSH1 0x20 MSTORE PUSH1 0x40 DUP2 KECCAK256 SLOAD PUSH1 0x5 DUP1 SLOAD SWAP1 SWAP2 SWAP1 DUP2 LT PUSH2 0x17B8 JUMPI PUSH2 0x17B8 PUSH2 0x350B JUMP JUMPDEST SWAP1 PUSH0 MSTORE PUSH1 0x20 PUSH0 KECCAK256 SWAP1 PUSH1 0x6 MUL ADD SWAP1 POP PUSH0 PUSH1 0x5 PUSH1 0x6 PUSH0 DUP7 DUP2 MSTORE PUSH1 0x20 ADD SWAP1 DUP2 MSTORE PUSH1 0x20 ADD PUSH0 KECCAK256 SLOAD DUP2 SLOAD DUP2 LT PUSH2 0x17EB JUMPI PUSH2 0x17EB PUSH2 0x350B JUMP JUMPDEST SWAP1 PUSH0 MSTORE PUSH1 0x20 PUSH0 KECCAK256 SWAP1 PUSH1 0x6 MUL ADD SWAP1 POP DUP3 DUP3 PUSH1 0x2 ADD SLOAD LT ISZERO PUSH2 0x1860 JUMPI PUSH1 0x40 MLOAD PUSH3 0x461BCD PUSH1 0xE5 SHL DUP2 MSTORE PUSH1 0x20 PUSH1 0x4 DUP3 ADD MSTORE PUSH1 0x2A PUSH1 0x24 DUP3 ADD MSTORE PUSH32 0x455243333532353A20696E73756666696369656E742062616C616E636520666F PUSH1 0x44 DUP3 ADD MSTORE PUSH10 0x39103A3930B739B332B9 PUSH1 0xB1 SHL PUSH1 0x64 DUP3 ADD MSTORE PUSH1 0x84 ADD PUSH2 0x712 JUMP JUMPDEST DUP1 PUSH1 0x1 ADD SLOAD DUP3 PUSH1 0x1 ADD SLOAD EQ PUSH2 0x18CE JUMPI PUSH1 0x40 MLOAD PUSH3 0x461BCD PUSH1 0xE5 SHL DUP2 MSTORE PUSH1 0x20 PUSH1 0x4 DUP3 ADD MSTORE PUSH1 0x2E PUSH1 0x24 DUP3 ADD MSTORE PUSH32 0x455243333532353A207472616E7366657220746F20746F6B656E207769746820 PUSH1 0x44 DUP3 ADD MSTORE PUSH14 0x191A5999995C995B9D081CDB1BDD PUSH1 0x92 SHL PUSH1 0x64 DUP3 ADD MSTORE PUSH1 0x84 ADD PUSH2 0x712 JUMP JUMPDEST PUSH1 0x3 DUP1 DUP4 ADD SLOAD SWAP1 DUP3 ADD SLOAD PUSH1 0x1 DUP5 ADD SLOAD PUSH2 0x18F9 SWAP3 PUSH1 0x1 PUSH1 0x1 PUSH1 0xA0 SHL SUB SWAP1 DUP2 AND SWAP3 AND SWAP1 DUP9 SWAP1 DUP9 SWAP1 DUP9 PUSH2 0x226C JUMP JUMPDEST DUP3 DUP3 PUSH1 0x2 ADD PUSH0 DUP3 DUP3 SLOAD PUSH2 0x190C SWAP2 SWAP1 PUSH2 0x3875 JUMP JUMPDEST SWAP3 POP POP DUP2 SWAP1 SSTORE POP DUP3 DUP2 PUSH1 0x2 ADD PUSH0 DUP3 DUP3 SLOAD PUSH2 0x1926 SWAP2 SWAP1 PUSH2 0x37A6 JUMP JUMPDEST SWAP1 SWAP2 SSTORE POP POP PUSH1 0x40 MLOAD DUP4 DUP2 MSTORE DUP5 SWAP1 DUP7 SWAP1 PUSH32 0xB2AAC84F3EC956911FD78EAE5311062972FF949F38412E8DA39069D9F068CC6 SWAP1 PUSH1 0x20 ADD PUSH1 0x40 MLOAD DUP1 SWAP2 SUB SWAP1 LOG3 PUSH1 0x3 DUP1 DUP4 ADD SLOAD SWAP1 DUP3 ADD SLOAD PUSH1 0x1 DUP5 ADD SLOAD PUSH2 0x198D SWAP3 PUSH1 0x1 PUSH1 0x1 PUSH1 0xA0 SHL SUB SWAP1 DUP2 AND SWAP3 AND SWAP1 DUP9 SWAP1 DUP9 SWAP1 DUP9 PUSH2 0x23EC JUMP JUMPDEST PUSH2 0x19A7 DUP6 DUP6 DUP6 PUSH1 0x40 MLOAD DUP1 PUSH1 0x20 ADD PUSH1 0x40 MSTORE DUP1 PUSH0 DUP2 MSTORE POP PUSH2 0x245D JUMP JUMPDEST PUSH2 0x1A09 JUMPI PUSH1 0x40 MLOAD PUSH3 0x461BCD PUSH1 0xE5 SHL DUP2 MSTORE PUSH1 0x20 PUSH1 0x4 DUP3 ADD MSTORE PUSH1 0x2D PUSH1 0x24 DUP3 ADD MSTORE PUSH32 0x455243333532353A207472616E736665722072656A6563746564206279204552 PUSH1 0x44 DUP3 ADD MSTORE PUSH13 0x21999A991AA932B1B2B4BB32B9 PUSH1 0x99 SHL PUSH1 0x64 DUP3 ADD MSTORE PUSH1 0x84 ADD PUSH2 0x712 JUMP JUMPDEST POP POP POP POP POP JUMP JUMPDEST PUSH1 0xD SLOAD PUSH1 0x1 PUSH1 0x1 PUSH1 0xA0 SHL SUB AND CALLER EQ PUSH2 0xF3C JUMPI CALLER PUSH1 0x40 MLOAD PUSH4 0x118CDAA7 PUSH1 0xE0 SHL DUP2 MSTORE PUSH1 0x4 ADD PUSH2 0x712 SWAP2 SWAP1 PUSH2 0x3174 JUMP JUMPDEST PUSH0 PUSH2 0x1A46 PUSH2 0x2253 JUMP JUMPDEST SWAP1 POP PUSH2 0xA41 DUP5 DUP3 DUP6 DUP6 PUSH2 0x158D JUMP JUMPDEST PUSH0 PUSH2 0x1A5E DUP3 PUSH2 0x139E JUMP JUMPDEST PUSH0 PUSH2 0x1A68 DUP4 PUSH2 0xDAC JUMP JUMPDEST SWAP1 POP PUSH0 PUSH2 0x1A74 DUP5 PUSH2 0xAC7 JUMP JUMPDEST SWAP1 POP DUP2 PUSH1 0x1 PUSH1 0x1 PUSH1 0xA0 SHL SUB AND DUP6 PUSH1 0x1 PUSH1 0x1 PUSH1 0xA0 SHL SUB AND EQ DUP1 PUSH2 0x1AAF JUMPI POP DUP5 PUSH1 0x1 PUSH1 0x1 PUSH1 0xA0 SHL SUB AND PUSH2 0x1AA4 DUP6 PUSH2 0x823 JUMP JUMPDEST PUSH1 0x1 PUSH1 0x1 PUSH1 0xA0 SHL SUB AND EQ JUMPDEST DUP1 PUSH2 0x1ABF JUMPI POP PUSH2 0x1ABF DUP3 DUP7 PUSH2 0x12FA JUMP JUMPDEST DUP1 PUSH2 0x1AD0 JUMPI POP PUSH2 0x1AD0 DUP3 DUP3 DUP8 PUSH2 0x11E0 JUMP JUMPDEST SWAP6 SWAP5 POP POP POP POP POP JUMP JUMPDEST DUP3 PUSH1 0x1 PUSH1 0x1 PUSH1 0xA0 SHL SUB AND PUSH2 0x1AEC DUP3 PUSH2 0xDAC JUMP JUMPDEST PUSH1 0x1 PUSH1 0x1 PUSH1 0xA0 SHL SUB AND EQ PUSH2 0x1B4E JUMPI PUSH1 0x40 MLOAD PUSH3 0x461BCD PUSH1 0xE5 SHL DUP2 MSTORE PUSH1 0x20 PUSH1 0x4 DUP3 ADD MSTORE PUSH1 0x24 DUP1 DUP3 ADD MSTORE PUSH32 0x455243333532353A207472616E736665722066726F6D20696E76616C6964206F PUSH1 0x44 DUP3 ADD MSTORE PUSH4 0x3BB732B9 PUSH1 0xE1 SHL PUSH1 0x64 DUP3 ADD MSTORE PUSH1 0x84 ADD PUSH2 0x712 JUMP JUMPDEST PUSH1 0x1 PUSH1 0x1 PUSH1 0xA0 SHL SUB DUP3 AND PUSH2 0x1BB2 JUMPI PUSH1 0x40 MLOAD PUSH3 0x461BCD PUSH1 0xE5 SHL DUP2 MSTORE PUSH1 0x20 PUSH1 0x4 DUP3 ADD MSTORE PUSH1 0x25 PUSH1 0x24 DUP3 ADD MSTORE PUSH32 0x455243333532353A207472616E7366657220746F20746865207A65726F206164 PUSH1 0x44 DUP3 ADD MSTORE PUSH5 0x6472657373 PUSH1 0xD8 SHL PUSH1 0x64 DUP3 ADD MSTORE PUSH1 0x84 ADD PUSH2 0x712 JUMP JUMPDEST PUSH0 PUSH2 0x1BBC DUP3 PUSH2 0xAC7 JUMP JUMPDEST SWAP1 POP PUSH0 PUSH2 0x1BC8 DUP4 PUSH2 0x109E JUMP JUMPDEST SWAP1 POP PUSH2 0x1BD8 DUP6 DUP6 DUP6 DUP7 DUP7 DUP7 PUSH2 0x226C JUMP JUMPDEST PUSH2 0x1BE2 PUSH0 DUP5 PUSH2 0x13C3 JUMP JUMPDEST PUSH2 0x1BEB DUP4 PUSH2 0x25CB JUMP JUMPDEST PUSH2 0x1BF5 DUP6 DUP5 PUSH2 0x2671 JUMP JUMPDEST PUSH2 0x1BFF DUP5 DUP5 PUSH2 0x2784 JUMP JUMPDEST DUP3 DUP5 PUSH1 0x1 PUSH1 0x1 PUSH1 0xA0 SHL SUB AND DUP7 PUSH1 0x1 PUSH1 0x1 PUSH1 0xA0 SHL SUB AND PUSH32 0xDDF252AD1BE2C89B69C2B068FC378DAA952BA7F163C4A11628F55A4DF523B3EF PUSH1 0x40 MLOAD PUSH1 0x40 MLOAD DUP1 SWAP2 SUB SWAP1 LOG4 PUSH2 0x1A09 DUP6 DUP6 DUP6 DUP7 DUP7 DUP7 PUSH2 0x23EC JUMP JUMPDEST PUSH1 0xA SLOAD PUSH0 SWAP1 ISZERO DUP1 ISZERO SWAP1 PUSH2 0x76A JUMPI POP PUSH0 DUP3 DUP2 MSTORE PUSH1 0xB PUSH1 0x20 MSTORE PUSH1 0x40 SWAP1 KECCAK256 SLOAD PUSH1 0xA DUP1 SLOAD DUP5 SWAP3 SWAP1 DUP2 LT PUSH2 0x1C7F JUMPI PUSH2 0x1C7F PUSH2 0x350B JUMP JUMPDEST SWAP1 PUSH0 MSTORE PUSH1 0x20 PUSH0 KECCAK256 SWAP1 PUSH1 0x2 MUL ADD PUSH0 ADD SLOAD EQ SWAP3 SWAP2 POP POP JUMP JUMPDEST DUP2 PUSH1 0x1 PUSH1 0x1 PUSH1 0xA0 SHL SUB AND DUP5 PUSH1 0x1 PUSH1 0x1 PUSH1 0xA0 SHL SUB AND SUB PUSH2 0x1D06 JUMPI PUSH1 0x40 MLOAD PUSH3 0x461BCD PUSH1 0xE5 SHL DUP2 MSTORE PUSH1 0x20 PUSH1 0x4 DUP3 ADD MSTORE PUSH1 0x27 PUSH1 0x24 DUP3 ADD MSTORE PUSH32 0x45524333353235536C6F74417070726F7661626C653A20617070726F76652074 PUSH1 0x44 DUP3 ADD MSTORE PUSH7 0x379037BBB732B9 PUSH1 0xC9 SHL PUSH1 0x64 DUP3 ADD MSTORE PUSH1 0x84 ADD PUSH2 0x712 JUMP JUMPDEST PUSH1 0x1 PUSH1 0x1 PUSH1 0xA0 SHL SUB DUP5 DUP2 AND PUSH0 DUP2 DUP2 MSTORE PUSH1 0xC PUSH1 0x20 SWAP1 DUP2 MSTORE PUSH1 0x40 DUP1 DUP4 KECCAK256 DUP9 DUP5 MSTORE DUP3 MSTORE DUP1 DUP4 KECCAK256 SWAP5 DUP8 AND DUP1 DUP5 MSTORE SWAP5 DUP3 MSTORE SWAP2 DUP3 SWAP1 KECCAK256 DUP1 SLOAD PUSH1 0xFF NOT AND DUP7 ISZERO ISZERO SWAP1 DUP2 OR SWAP1 SWAP2 SSTORE SWAP2 MLOAD SWAP2 DUP3 MSTORE DUP7 SWAP3 SWAP2 PUSH32 0x7BDF71E6625AA496095BF08B60C677CF81C963F402CF258981E3BD7507D3480C SWAP2 ADD PUSH1 0x40 MLOAD DUP1 SWAP2 SUB SWAP1 LOG4 POP POP POP POP JUMP JUMPDEST PUSH1 0xD DUP1 SLOAD PUSH1 0x1 PUSH1 0x1 PUSH1 0xA0 SHL SUB DUP4 DUP2 AND PUSH1 0x1 PUSH1 0x1 PUSH1 0xA0 SHL SUB NOT DUP4 AND DUP2 OR SWAP1 SWAP4 SSTORE PUSH1 0x40 MLOAD SWAP2 AND SWAP2 SWAP1 DUP3 SWAP1 PUSH32 0x8BE0079C531659141344CD1FD0A4F28419497F9722A3DAAFE3B4186F6B6457E0 SWAP1 PUSH0 SWAP1 LOG3 POP POP JUMP JUMPDEST PUSH1 0x1 PUSH1 0x1 PUSH1 0xA0 SHL SUB DUP3 AND PUSH2 0x1E38 JUMPI PUSH1 0x40 MLOAD PUSH3 0x461BCD PUSH1 0xE5 SHL DUP2 MSTORE PUSH1 0x20 PUSH1 0x4 DUP3 ADD MSTORE PUSH1 0x2A PUSH1 0x24 DUP3 ADD MSTORE PUSH32 0x455243333532353A20617070726F76652076616C756520746F20746865207A65 PUSH1 0x44 DUP3 ADD MSTORE PUSH10 0x726F2061646472657373 PUSH1 0xB0 SHL PUSH1 0x64 DUP3 ADD MSTORE PUSH1 0x84 ADD PUSH2 0x712 JUMP JUMPDEST PUSH2 0x1E42 DUP3 DUP5 PUSH2 0x280B JUMP JUMPDEST PUSH2 0x1EA6 JUMPI PUSH0 DUP4 DUP2 MSTORE PUSH1 0x6 PUSH1 0x20 MSTORE PUSH1 0x40 SWAP1 KECCAK256 SLOAD PUSH1 0x5 DUP1 SLOAD SWAP1 SWAP2 SWAP1 DUP2 LT PUSH2 0x1E69 JUMPI PUSH2 0x1E69 PUSH2 0x350B JUMP JUMPDEST PUSH0 SWAP2 DUP3 MSTORE PUSH1 0x20 DUP1 DUP4 KECCAK256 PUSH1 0x6 SWAP3 SWAP1 SWAP3 MUL SWAP1 SWAP2 ADD PUSH1 0x5 ADD DUP1 SLOAD PUSH1 0x1 DUP2 ADD DUP3 SSTORE SWAP1 DUP4 MSTORE SWAP2 KECCAK256 ADD DUP1 SLOAD PUSH1 0x1 PUSH1 0x1 PUSH1 0xA0 SHL SUB NOT AND PUSH1 0x1 PUSH1 0x1 PUSH1 0xA0 SHL SUB DUP5 AND OR SWAP1 SSTORE JUMPDEST PUSH0 DUP4 DUP2 MSTORE PUSH1 0x4 PUSH1 0x20 SWAP1 DUP2 MSTORE PUSH1 0x40 DUP1 DUP4 KECCAK256 PUSH1 0x1 PUSH1 0x1 PUSH1 0xA0 SHL SUB DUP7 AND DUP1 DUP6 MSTORE SWAP1 DUP4 MSTORE SWAP3 DUP2 SWAP1 KECCAK256 DUP5 SWAP1 SSTORE MLOAD DUP4 DUP2 MSTORE DUP6 SWAP2 PUSH32 0x621B050DE0AD08B51D19B48B3E6DF75348C4DE6BDD93E81B252CA62E28265B1B SWAP2 ADD JUMPDEST PUSH1 0x40 MLOAD DUP1 SWAP2 SUB SWAP1 LOG3 POP POP POP JUMP JUMPDEST DUP2 PUSH1 0x1 PUSH1 0x1 PUSH1 0xA0 SHL SUB AND DUP4 PUSH1 0x1 PUSH1 0x1 PUSH1 0xA0 SHL SUB AND SUB PUSH2 0x1F65 JUMPI PUSH1 0x40 MLOAD PUSH3 0x461BCD PUSH1 0xE5 SHL DUP2 MSTORE PUSH1 0x20 PUSH1 0x4 DUP3 ADD MSTORE PUSH1 0x1A PUSH1 0x24 DUP3 ADD MSTORE PUSH32 0x455243333532353A20617070726F766520746F2063616C6C6572000000000000 PUSH1 0x44 DUP3 ADD MSTORE PUSH1 0x64 ADD PUSH2 0x712 JUMP JUMPDEST PUSH1 0x1 PUSH1 0x1 PUSH1 0xA0 SHL SUB DUP4 DUP2 AND PUSH0 DUP2 DUP2 MSTORE PUSH1 0x7 PUSH1 0x20 SWAP1 DUP2 MSTORE PUSH1 0x40 DUP1 DUP4 KECCAK256 SWAP5 DUP8 AND DUP1 DUP5 MSTORE PUSH1 0x2 SWAP1 SWAP6 ADD DUP3 MSTORE SWAP2 DUP3 SWAP1 KECCAK256 DUP1 SLOAD PUSH1 0xFF NOT AND DUP7 ISZERO ISZERO SWAP1 DUP2 OR SWAP1 SWAP2 SSTORE SWAP2 MLOAD SWAP2 DUP3 MSTORE PUSH32 0x17307EAB39AB6107E8899845AD3D59BD9653F200F220920489CA2B5937696C31 SWAP2 ADD PUSH2 0x1EF7 JUMP JUMPDEST PUSH2 0x1FD8 DUP5 DUP5 DUP5 PUSH2 0x1AD9 JUMP JUMPDEST PUSH2 0x1FE4 DUP5 DUP5 DUP5 DUP5 PUSH2 0x28D7 JUMP JUMPDEST PUSH2 0x964 JUMPI PUSH1 0x40 MLOAD PUSH3 0x461BCD PUSH1 0xE5 SHL DUP2 MSTORE PUSH1 0x20 PUSH1 0x4 DUP3 ADD MSTORE PUSH1 0x27 PUSH1 0x24 DUP3 ADD MSTORE PUSH32 0x455243333532353A207472616E7366657220746F206E6F6E2045524337323152 PUSH1 0x44 DUP3 ADD MSTORE PUSH7 0x32B1B2B4BB32B9 PUSH1 0xC9 SHL PUSH1 0x64 DUP3 ADD MSTORE PUSH1 0x84 ADD PUSH2 0x712 JUMP JUMPDEST PUSH1 0x60 PUSH2 0x76A PUSH1 0x1 PUSH1 0x1 PUSH1 0xA0 SHL SUB DUP4 AND PUSH1 0x14 PUSH2 0x2A19 JUMP JUMPDEST PUSH0 PUSH2 0x2060 DUP4 PUSH2 0xDAC JUMP JUMPDEST SWAP1 POP PUSH0 PUSH2 0x206C DUP5 PUSH2 0xAC7 JUMP JUMPDEST SWAP1 POP PUSH2 0x207C PUSH0 DUP4 PUSH0 DUP8 DUP6 DUP9 PUSH2 0x226C JUMP JUMPDEST PUSH2 0x2086 DUP5 DUP5 PUSH2 0x236C JUMP JUMPDEST PUSH2 0x964 PUSH0 DUP4 PUSH0 DUP8 DUP6 DUP9 PUSH2 0x23EC JUMP JUMPDEST PUSH0 PUSH1 0x1 PUSH1 0x1 PUSH1 0xE0 SHL SUB NOT DUP3 AND PUSH4 0x1FFC9A7 PUSH1 0xE0 SHL EQ DUP1 PUSH2 0x20C4 JUMPI POP PUSH1 0x1 PUSH1 0x1 PUSH1 0xE0 SHL SUB NOT DUP3 AND PUSH4 0x354D605 PUSH1 0xE6 SHL EQ JUMPDEST DUP1 PUSH2 0x20DF JUMPI POP PUSH1 0x1 PUSH1 0x1 PUSH1 0xE0 SHL SUB NOT DUP3 AND PUSH4 0x80AC58CD PUSH1 0xE0 SHL EQ JUMPDEST DUP1 PUSH2 0x20FA JUMPI POP PUSH1 0x1 PUSH1 0x1 PUSH1 0xE0 SHL SUB NOT DUP3 AND PUSH4 0x70B00481 PUSH1 0xE1 SHL EQ JUMPDEST DUP1 PUSH2 0x2115 JUMPI POP PUSH1 0x1 PUSH1 0x1 PUSH1 0xE0 SHL SUB NOT DUP3 AND PUSH4 0x780E9D63 PUSH1 0xE0 SHL EQ JUMPDEST DUP1 PUSH2 0x76A JUMPI POP PUSH1 0x1 PUSH1 0x1 PUSH1 0xE0 SHL SUB NOT DUP3 AND PUSH4 0x5B5E139F PUSH1 0xE0 SHL EQ SWAP3 SWAP2 POP POP JUMP JUMPDEST PUSH1 0x5 SLOAD PUSH0 SWAP1 ISZERO DUP1 ISZERO SWAP1 PUSH2 0x76A JUMPI POP PUSH0 DUP3 DUP2 MSTORE PUSH1 0x6 PUSH1 0x20 MSTORE PUSH1 0x40 SWAP1 KECCAK256 SLOAD PUSH1 0x5 DUP1 SLOAD DUP5 SWAP3 SWAP1 DUP2 LT PUSH2 0x2166 JUMPI PUSH2 0x2166 PUSH2 0x350B JUMP JUMPDEST SWAP1 PUSH0 MSTORE PUSH1 0x20 PUSH0 KECCAK256 SWAP1 PUSH1 0x6 MUL ADD PUSH0 ADD SLOAD EQ SWAP3 SWAP2 POP POP JUMP JUMPDEST PUSH0 DUP1 PUSH19 0x184F03E93FF9F4DAA797ED6E38ED64BF6A1F01 PUSH1 0x40 SHL DUP4 LT PUSH2 0x21BA JUMPI PUSH19 0x184F03E93FF9F4DAA797ED6E38ED64BF6A1F01 PUSH1 0x40 SHL DUP4 DIV SWAP3 POP PUSH1 0x40 ADD JUMPDEST PUSH14 0x4EE2D6D415B85ACEF8100000000 DUP4 LT PUSH2 0x21E6 JUMPI PUSH14 0x4EE2D6D415B85ACEF8100000000 DUP4 DIV SWAP3 POP PUSH1 0x20 ADD JUMPDEST PUSH7 0x2386F26FC10000 DUP4 LT PUSH2 0x2204 JUMPI PUSH7 0x2386F26FC10000 DUP4 DIV SWAP3 POP PUSH1 0x10 ADD JUMPDEST PUSH4 0x5F5E100 DUP4 LT PUSH2 0x221C JUMPI PUSH4 0x5F5E100 DUP4 DIV SWAP3 POP PUSH1 0x8 ADD JUMPDEST PUSH2 0x2710 DUP4 LT PUSH2 0x2230 JUMPI PUSH2 0x2710 DUP4 DIV SWAP3 POP PUSH1 0x4 ADD JUMPDEST PUSH1 0x64 DUP4 LT PUSH2 0x2242 JUMPI PUSH1 0x64 DUP4 DIV SWAP3 POP PUSH1 0x2 ADD JUMPDEST PUSH1 0xA DUP4 LT PUSH2 0x76A JUMPI PUSH1 0x1 ADD SWAP3 SWAP2 POP POP JUMP JUMPDEST PUSH1 0x3 DUP1 SLOAD PUSH0 SWAP2 DUP3 PUSH2 0x2263 DUP4 PUSH2 0x37B9 JUMP JUMPDEST SWAP2 SWAP1 POP SSTORE SWAP1 POP SWAP1 JUMP JUMPDEST PUSH1 0x1 PUSH1 0x1 PUSH1 0xA0 SHL SUB DUP7 AND ISZERO DUP1 ISZERO PUSH2 0x2281 JUMPI POP DUP4 ISZERO JUMPDEST DUP1 ISZERO PUSH2 0x2293 JUMPI POP PUSH2 0x2291 DUP3 PUSH2 0x1C4E JUMP JUMPDEST ISZERO JUMPDEST ISZERO PUSH2 0x22A1 JUMPI PUSH2 0x22A1 DUP3 PUSH2 0x2B8A JUMP JUMPDEST POP POP POP POP POP POP JUMP JUMPDEST PUSH1 0x40 DUP1 MLOAD PUSH1 0xC0 DUP2 ADD DUP3 MSTORE DUP4 DUP2 MSTORE PUSH1 0x20 DUP1 DUP3 ADD DUP5 SWAP1 MSTORE PUSH0 DUP3 DUP5 ADD DUP2 SWAP1 MSTORE PUSH1 0x1 PUSH1 0x1 PUSH1 0xA0 SHL SUB DUP8 AND PUSH1 0x60 DUP5 ADD MSTORE PUSH1 0x80 DUP4 ADD DUP2 SWAP1 MSTORE DUP4 MLOAD DUP2 DUP2 MSTORE SWAP2 DUP3 ADD SWAP1 SWAP4 MSTORE PUSH1 0xA0 DUP3 ADD MSTORE SWAP1 POP PUSH2 0x22F6 DUP2 PUSH2 0x2C4F JUMP JUMPDEST PUSH2 0x2300 DUP5 DUP5 PUSH2 0x2784 JUMP JUMPDEST PUSH1 0x40 MLOAD DUP4 SWAP1 PUSH1 0x1 PUSH1 0x1 PUSH1 0xA0 SHL SUB DUP7 AND SWAP1 PUSH0 SWAP1 PUSH32 0xDDF252AD1BE2C89B69C2B068FC378DAA952BA7F163C4A11628F55A4DF523B3EF SWAP1 DUP3 SWAP1 LOG4 DUP2 PUSH0 DUP5 PUSH32 0xE4F48C240D3B994948AA54F3E2F5FCA59263DFE1D52B6E4CF39A5D249B5CCB65 PUSH1 0x40 MLOAD PUSH1 0x40 MLOAD DUP1 SWAP2 SUB SWAP1 LOG4 POP POP POP POP JUMP JUMPDEST PUSH0 DUP3 DUP2 MSTORE PUSH1 0x6 PUSH1 0x20 MSTORE PUSH1 0x40 SWAP1 KECCAK256 SLOAD PUSH1 0x5 DUP1 SLOAD DUP4 SWAP3 SWAP1 DUP2 LT PUSH2 0x238F JUMPI PUSH2 0x238F PUSH2 0x350B JUMP JUMPDEST SWAP1 PUSH0 MSTORE PUSH1 0x20 PUSH0 KECCAK256 SWAP1 PUSH1 0x6 MUL ADD PUSH1 0x2 ADD PUSH0 DUP3 DUP3 SLOAD PUSH2 0x23AC SWAP2 SWAP1 PUSH2 0x37A6 JUMP JUMPDEST SWAP1 SWAP2 SSTORE POP POP PUSH1 0x40 MLOAD DUP2 DUP2 MSTORE DUP3 SWAP1 PUSH0 SWAP1 PUSH32 0xB2AAC84F3EC956911FD78EAE5311062972FF949F38412E8DA39069D9F068CC6 SWAP1 PUSH1 0x20 ADD PUSH1 0x40 MLOAD DUP1 SWAP2 SUB SWAP1 LOG3 POP POP JUMP JUMPDEST PUSH1 0x1 PUSH1 0x1 PUSH1 0xA0 SHL SUB DUP7 AND ISZERO DUP1 ISZERO PUSH2 0x2401 JUMPI POP DUP4 ISZERO JUMPDEST DUP1 ISZERO PUSH2 0x2414 JUMPI POP PUSH2 0x2412 DUP3 DUP5 PUSH2 0x2D9D JUMP JUMPDEST ISZERO JUMPDEST ISZERO PUSH2 0x2428 JUMPI PUSH2 0x2423 DUP3 DUP5 PUSH2 0x2E21 JUMP JUMPDEST PUSH2 0x22A1 JUMP JUMPDEST PUSH1 0x1 PUSH1 0x1 PUSH1 0xA0 SHL SUB DUP6 AND ISZERO DUP1 ISZERO PUSH2 0x243D JUMPI POP DUP3 ISZERO JUMPDEST DUP1 ISZERO PUSH2 0x244E JUMPI POP PUSH2 0x244E DUP3 DUP6 PUSH2 0x2D9D JUMP JUMPDEST ISZERO PUSH2 0x2423 JUMPI PUSH2 0x2423 DUP3 DUP6 PUSH2 0x2E80 JUMP JUMPDEST PUSH0 DUP1 PUSH2 0x2468 DUP6 PUSH2 0xDAC JUMP JUMPDEST SWAP1 POP DUP1 EXTCODESIZE PUSH4 0xFFFFFFFF AND ISZERO PUSH2 0x25BD JUMPI PUSH1 0x40 MLOAD PUSH4 0x1FFC9A7 PUSH1 0xE0 SHL DUP2 MSTORE PUSH3 0x9CE20B PUSH1 0xE0 SHL PUSH1 0x4 DUP3 ADD MSTORE PUSH1 0x1 PUSH1 0x1 PUSH1 0xA0 SHL SUB DUP3 AND SWAP1 PUSH4 0x1FFC9A7 SWAP1 PUSH1 0x24 ADD PUSH1 0x20 PUSH1 0x40 MLOAD DUP1 DUP4 SUB DUP2 DUP7 GAS STATICCALL SWAP3 POP POP POP DUP1 ISZERO PUSH2 0x24DD JUMPI POP PUSH1 0x40 DUP1 MLOAD PUSH1 0x1F RETURNDATASIZE SWAP1 DUP2 ADD PUSH1 0x1F NOT AND DUP3 ADD SWAP1 SWAP3 MSTORE PUSH2 0x24DA SWAP2 DUP2 ADD SWAP1 PUSH2 0x3888 JUMP JUMPDEST PUSH1 0x1 JUMPDEST PUSH2 0x251B JUMPI RETURNDATASIZE DUP1 DUP1 ISZERO PUSH2 0x250A JUMPI PUSH1 0x40 MLOAD SWAP2 POP PUSH1 0x1F NOT PUSH1 0x3F RETURNDATASIZE ADD AND DUP3 ADD PUSH1 0x40 MSTORE RETURNDATASIZE DUP3 MSTORE RETURNDATASIZE PUSH0 PUSH1 0x20 DUP5 ADD RETURNDATACOPY PUSH2 0x250F JUMP JUMPDEST PUSH1 0x60 SWAP2 POP JUMPDEST POP PUSH1 0x1 SWAP3 POP POP POP PUSH2 0x25C3 JUMP JUMPDEST DUP1 ISZERO PUSH2 0x25B2 JUMPI PUSH1 0x40 MLOAD PUSH3 0x9CE20B PUSH1 0xE0 SHL DUP2 MSTORE PUSH0 SWAP1 PUSH1 0x1 PUSH1 0x1 PUSH1 0xA0 SHL SUB DUP5 AND SWAP1 PUSH3 0x9CE20B SWAP1 PUSH2 0x2555 SWAP1 CALLER SWAP1 DUP13 SWAP1 DUP13 SWAP1 DUP13 SWAP1 DUP13 SWAP1 PUSH1 0x4 ADD PUSH2 0x38A3 JUMP JUMPDEST PUSH1 0x20 PUSH1 0x40 MLOAD DUP1 DUP4 SUB DUP2 PUSH0 DUP8 GAS CALL ISZERO DUP1 ISZERO PUSH2 0x2571 JUMPI RETURNDATASIZE PUSH0 DUP1 RETURNDATACOPY RETURNDATASIZE PUSH0 REVERT JUMPDEST POP POP POP POP PUSH1 0x40 MLOAD RETURNDATASIZE PUSH1 0x1F NOT PUSH1 0x1F DUP3 ADD AND DUP3 ADD DUP1 PUSH1 0x40 MSTORE POP DUP2 ADD SWAP1 PUSH2 0x2595 SWAP2 SWAP1 PUSH2 0x38E0 JUMP JUMPDEST PUSH1 0x1 PUSH1 0x1 PUSH1 0xE0 SHL SUB NOT AND PUSH3 0x9CE20B PUSH1 0xE0 SHL EQ SWAP4 POP PUSH2 0x25C3 SWAP3 POP POP POP JUMP JUMPDEST PUSH1 0x1 SWAP3 POP POP POP PUSH2 0x25C3 JUMP JUMPDEST PUSH1 0x1 SWAP2 POP POP JUMPDEST SWAP5 SWAP4 POP POP POP POP JUMP JUMPDEST PUSH0 DUP2 DUP2 MSTORE PUSH1 0x6 PUSH1 0x20 MSTORE PUSH1 0x40 DUP2 KECCAK256 SLOAD PUSH1 0x5 DUP1 SLOAD SWAP1 SWAP2 SWAP1 DUP2 LT PUSH2 0x25EE JUMPI PUSH2 0x25EE PUSH2 0x350B JUMP JUMPDEST PUSH0 SWAP2 DUP3 MSTORE PUSH1 0x20 DUP3 KECCAK256 PUSH1 0x5 PUSH1 0x6 SWAP1 SWAP3 MUL ADD SWAP1 DUP2 ADD SLOAD SWAP1 SWAP3 POP SWAP1 JUMPDEST DUP2 DUP2 LT ISZERO PUSH2 0x2663 JUMPI PUSH0 DUP4 PUSH1 0x5 ADD DUP3 DUP2 SLOAD DUP2 LT PUSH2 0x2625 JUMPI PUSH2 0x2625 PUSH2 0x350B JUMP JUMPDEST PUSH0 SWAP2 DUP3 MSTORE PUSH1 0x20 DUP1 DUP4 KECCAK256 SWAP1 SWAP2 ADD SLOAD DUP8 DUP4 MSTORE PUSH1 0x4 DUP3 MSTORE PUSH1 0x40 DUP1 DUP5 KECCAK256 PUSH1 0x1 PUSH1 0x1 PUSH1 0xA0 SHL SUB SWAP1 SWAP3 AND DUP5 MSTORE SWAP2 MSTORE DUP2 KECCAK256 SSTORE POP DUP1 PUSH2 0x265B DUP2 PUSH2 0x37B9 JUMP JUMPDEST SWAP2 POP POP PUSH2 0x2607 JUMP JUMPDEST POP PUSH2 0xAC2 PUSH1 0x5 DUP4 ADD PUSH0 PUSH2 0x2FE3 JUMP JUMPDEST PUSH0 DUP2 DUP2 MSTORE PUSH1 0x6 PUSH1 0x20 MSTORE PUSH1 0x40 DUP2 KECCAK256 SLOAD PUSH1 0x5 DUP1 SLOAD SWAP1 SWAP2 SWAP1 DUP2 LT PUSH2 0x2694 JUMPI PUSH2 0x2694 PUSH2 0x350B JUMP JUMPDEST PUSH0 SWAP2 DUP3 MSTORE PUSH1 0x20 DUP1 DUP4 KECCAK256 PUSH1 0x6 SWAP3 SWAP1 SWAP3 MUL SWAP1 SWAP2 ADD PUSH1 0x3 ADD DUP1 SLOAD PUSH1 0x1 PUSH1 0x1 PUSH1 0xA0 SHL SUB NOT AND PUSH1 0x1 PUSH1 0x1 PUSH1 0xA0 SHL SUB SWAP5 DUP6 AND OR SWAP1 SSTORE SWAP2 DUP5 AND DUP2 MSTORE PUSH1 0x7 SWAP1 SWAP2 MSTORE PUSH1 0x40 DUP2 KECCAK256 DUP1 SLOAD SWAP1 SWAP2 SWAP1 PUSH2 0x26E2 SWAP1 PUSH1 0x1 SWAP1 PUSH2 0x3875 JUMP JUMPDEST SWAP1 POP PUSH0 DUP3 PUSH0 ADD DUP3 DUP2 SLOAD DUP2 LT PUSH2 0x26F9 JUMPI PUSH2 0x26F9 PUSH2 0x350B JUMP JUMPDEST SWAP1 PUSH0 MSTORE PUSH1 0x20 PUSH0 KECCAK256 ADD SLOAD SWAP1 POP PUSH0 DUP4 PUSH1 0x1 ADD PUSH0 DUP7 DUP2 MSTORE PUSH1 0x20 ADD SWAP1 DUP2 MSTORE PUSH1 0x20 ADD PUSH0 KECCAK256 SLOAD SWAP1 POP DUP2 DUP5 PUSH0 ADD DUP3 DUP2 SLOAD DUP2 LT PUSH2 0x2730 JUMPI PUSH2 0x2730 PUSH2 0x350B JUMP JUMPDEST PUSH0 SWAP2 DUP3 MSTORE PUSH1 0x20 DUP1 DUP4 KECCAK256 SWAP1 SWAP2 ADD SWAP3 SWAP1 SWAP3 SSTORE DUP4 DUP2 MSTORE PUSH1 0x1 DUP7 ADD SWAP1 SWAP2 MSTORE PUSH1 0x40 DUP1 DUP3 KECCAK256 DUP4 SWAP1 SSTORE DUP7 DUP3 MSTORE DUP2 KECCAK256 SSTORE DUP4 SLOAD DUP5 SWAP1 DUP1 PUSH2 0x2769 JUMPI PUSH2 0x2769 PUSH2 0x38FB JUMP JUMPDEST PUSH1 0x1 SWAP1 SUB DUP2 DUP2 SWAP1 PUSH0 MSTORE PUSH1 0x20 PUSH0 KECCAK256 ADD PUSH0 SWAP1 SSTORE SWAP1 SSTORE POP POP POP POP POP POP JUMP JUMPDEST PUSH0 DUP2 DUP2 MSTORE PUSH1 0x6 PUSH1 0x20 MSTORE PUSH1 0x40 SWAP1 KECCAK256 SLOAD PUSH1 0x5 DUP1 SLOAD DUP5 SWAP3 SWAP1 DUP2 LT PUSH2 0x27A7 JUMPI PUSH2 0x27A7 PUSH2 0x350B JUMP JUMPDEST PUSH0 SWAP2 DUP3 MSTORE PUSH1 0x20 DUP1 DUP4 KECCAK256 PUSH1 0x6 SWAP3 SWAP1 SWAP3 MUL SWAP1 SWAP2 ADD PUSH1 0x3 ADD DUP1 SLOAD PUSH1 0x1 PUSH1 0x1 PUSH1 0xA0 SHL SUB NOT AND PUSH1 0x1 PUSH1 0x1 PUSH1 0xA0 SHL SUB SWAP5 DUP6 AND OR SWAP1 SSTORE SWAP4 SWAP1 SWAP2 AND DUP2 MSTORE PUSH1 0x7 DUP1 DUP5 MSTORE PUSH1 0x40 DUP1 DUP4 KECCAK256 DUP1 SLOAD DUP6 DUP6 MSTORE PUSH1 0x1 DUP3 DUP2 ADD DUP9 MSTORE SWAP3 DUP6 KECCAK256 DUP2 SWAP1 SSTORE SWAP3 DUP7 MSTORE SWAP1 DUP3 ADD DUP2 SSTORE DUP3 MSTORE SWAP3 SWAP1 KECCAK256 SWAP1 SWAP2 ADD SSTORE JUMP JUMPDEST PUSH0 DUP2 DUP2 MSTORE PUSH1 0x6 PUSH1 0x20 MSTORE PUSH1 0x40 DUP2 KECCAK256 SLOAD PUSH1 0x5 DUP1 SLOAD DUP4 SWAP3 SWAP1 DUP2 LT PUSH2 0x282E JUMPI PUSH2 0x282E PUSH2 0x350B JUMP JUMPDEST PUSH0 SWAP2 DUP3 MSTORE PUSH1 0x20 DUP3 KECCAK256 PUSH1 0x5 PUSH1 0x6 SWAP1 SWAP3 MUL ADD ADD SLOAD SWAP2 POP JUMPDEST DUP2 DUP2 LT ISZERO PUSH2 0x28CD JUMPI PUSH0 DUP5 DUP2 MSTORE PUSH1 0x6 PUSH1 0x20 MSTORE PUSH1 0x40 SWAP1 KECCAK256 SLOAD PUSH1 0x5 DUP1 SLOAD PUSH1 0x1 PUSH1 0x1 PUSH1 0xA0 SHL SUB DUP9 AND SWAP3 SWAP1 DUP2 LT PUSH2 0x2877 JUMPI PUSH2 0x2877 PUSH2 0x350B JUMP JUMPDEST SWAP1 PUSH0 MSTORE PUSH1 0x20 PUSH0 KECCAK256 SWAP1 PUSH1 0x6 MUL ADD PUSH1 0x5 ADD DUP3 DUP2 SLOAD DUP2 LT PUSH2 0x2897 JUMPI PUSH2 0x2897 PUSH2 0x350B JUMP JUMPDEST PUSH0 SWAP2 DUP3 MSTORE PUSH1 0x20 SWAP1 SWAP2 KECCAK256 ADD SLOAD PUSH1 0x1 PUSH1 0x1 PUSH1 0xA0 SHL SUB AND SUB PUSH2 0x28BB JUMPI PUSH1 0x1 SWAP3 POP POP POP PUSH2 0x76A JUMP JUMPDEST DUP1 PUSH2 0x28C5 DUP2 PUSH2 0x37B9 JUMP JUMPDEST SWAP2 POP POP PUSH2 0x2843 JUMP JUMPDEST POP PUSH0 SWAP5 SWAP4 POP POP POP POP JUMP JUMPDEST PUSH0 DUP4 EXTCODESIZE PUSH4 0xFFFFFFFF AND ISZERO PUSH2 0x2A11 JUMPI PUSH1 0x40 MLOAD PUSH4 0xA85BD01 PUSH1 0xE1 SHL DUP2 MSTORE PUSH1 0x1 PUSH1 0x1 PUSH1 0xA0 SHL SUB DUP6 AND SWAP1 PUSH4 0x150B7A02 SWAP1 PUSH2 0x2917 SWAP1 CALLER SWAP1 DUP10 SWAP1 DUP9 SWAP1 DUP9 SWAP1 PUSH1 0x4 ADD PUSH2 0x390F JUMP JUMPDEST PUSH1 0x20 PUSH1 0x40 MLOAD DUP1 DUP4 SUB DUP2 PUSH0 DUP8 GAS CALL SWAP3 POP POP POP DUP1 ISZERO PUSH2 0x2951 JUMPI POP PUSH1 0x40 DUP1 MLOAD PUSH1 0x1F RETURNDATASIZE SWAP1 DUP2 ADD PUSH1 0x1F NOT AND DUP3 ADD SWAP1 SWAP3 MSTORE PUSH2 0x294E SWAP2 DUP2 ADD SWAP1 PUSH2 0x38E0 JUMP JUMPDEST PUSH1 0x1 JUMPDEST PUSH2 0x29F7 JUMPI RETURNDATASIZE DUP1 DUP1 ISZERO PUSH2 0x297E JUMPI PUSH1 0x40 MLOAD SWAP2 POP PUSH1 0x1F NOT PUSH1 0x3F RETURNDATASIZE ADD AND DUP3 ADD PUSH1 0x40 MSTORE RETURNDATASIZE DUP3 MSTORE RETURNDATASIZE PUSH0 PUSH1 0x20 DUP5 ADD RETURNDATACOPY PUSH2 0x2983 JUMP JUMPDEST PUSH1 0x60 SWAP2 POP JUMPDEST POP DUP1 MLOAD PUSH0 SUB PUSH2 0x29EF JUMPI PUSH1 0x40 MLOAD PUSH3 0x461BCD PUSH1 0xE5 SHL DUP2 MSTORE PUSH1 0x20 PUSH1 0x4 DUP3 ADD MSTORE PUSH1 0x32 PUSH1 0x24 DUP3 ADD MSTORE PUSH32 0x4552433732313A207472616E7366657220746F206E6F6E204552433732315265 PUSH1 0x44 DUP3 ADD MSTORE PUSH18 0x31B2B4BB32B91034B6B83632B6B2B73A32B9 PUSH1 0x71 SHL PUSH1 0x64 DUP3 ADD MSTORE PUSH1 0x84 ADD PUSH2 0x712 JUMP JUMPDEST DUP1 MLOAD DUP2 PUSH1 0x20 ADD REVERT JUMPDEST PUSH1 0x1 PUSH1 0x1 PUSH1 0xE0 SHL SUB NOT AND PUSH4 0xA85BD01 PUSH1 0xE1 SHL EQ SWAP1 POP PUSH2 0x25C3 JUMP JUMPDEST POP PUSH1 0x1 PUSH2 0x25C3 JUMP JUMPDEST PUSH1 0x60 DUP3 PUSH0 PUSH2 0x2A28 DUP5 PUSH1 0x2 PUSH2 0x394B JUMP JUMPDEST PUSH2 0x2A33 SWAP1 PUSH1 0x2 PUSH2 0x37A6 JUMP JUMPDEST PUSH1 0x1 PUSH1 0x1 PUSH1 0x40 SHL SUB DUP2 GT ISZERO PUSH2 0x2A4A JUMPI PUSH2 0x2A4A PUSH2 0x32D3 JUMP JUMPDEST PUSH1 0x40 MLOAD SWAP1 DUP1 DUP3 MSTORE DUP1 PUSH1 0x1F ADD PUSH1 0x1F NOT AND PUSH1 0x20 ADD DUP3 ADD PUSH1 0x40 MSTORE DUP1 ISZERO PUSH2 0x2A74 JUMPI PUSH1 0x20 DUP3 ADD DUP2 DUP1 CALLDATASIZE DUP4 CALLDATACOPY ADD SWAP1 POP JUMPDEST POP SWAP1 POP PUSH1 0x3 PUSH1 0xFC SHL DUP2 PUSH0 DUP2 MLOAD DUP2 LT PUSH2 0x2A8E JUMPI PUSH2 0x2A8E PUSH2 0x350B JUMP JUMPDEST PUSH1 0x20 ADD ADD SWAP1 PUSH1 0x1 PUSH1 0x1 PUSH1 0xF8 SHL SUB NOT AND SWAP1 DUP2 PUSH0 BYTE SWAP1 MSTORE8 POP PUSH1 0xF PUSH1 0xFB SHL DUP2 PUSH1 0x1 DUP2 MLOAD DUP2 LT PUSH2 0x2ABC JUMPI PUSH2 0x2ABC PUSH2 0x350B JUMP JUMPDEST PUSH1 0x20 ADD ADD SWAP1 PUSH1 0x1 PUSH1 0x1 PUSH1 0xF8 SHL SUB NOT AND SWAP1 DUP2 PUSH0 BYTE SWAP1 MSTORE8 POP PUSH0 PUSH2 0x2ADE DUP6 PUSH1 0x2 PUSH2 0x394B JUMP JUMPDEST PUSH2 0x2AE9 SWAP1 PUSH1 0x1 PUSH2 0x37A6 JUMP JUMPDEST SWAP1 POP JUMPDEST PUSH1 0x1 DUP2 GT ISZERO PUSH2 0x2B60 JUMPI PUSH16 0x181899199A1A9B1B9C1CB0B131B232B3 PUSH1 0x81 SHL DUP4 PUSH1 0xF AND PUSH1 0x10 DUP2 LT PUSH2 0x2B1D JUMPI PUSH2 0x2B1D PUSH2 0x350B JUMP JUMPDEST BYTE PUSH1 0xF8 SHL DUP3 DUP3 DUP2 MLOAD DUP2 LT PUSH2 0x2B33 JUMPI PUSH2 0x2B33 PUSH2 0x350B JUMP JUMPDEST PUSH1 0x20 ADD ADD SWAP1 PUSH1 0x1 PUSH1 0x1 PUSH1 0xF8 SHL SUB NOT AND SWAP1 DUP2 PUSH0 BYTE SWAP1 MSTORE8 POP PUSH1 0x4 SWAP3 SWAP1 SWAP3 SHR SWAP2 PUSH2 0x2B59 DUP2 PUSH2 0x3962 JUMP JUMPDEST SWAP1 POP PUSH2 0x2AEC JUMP JUMPDEST POP DUP2 ISZERO PUSH2 0x25C3 JUMPI PUSH1 0x40 MLOAD PUSH4 0xE22E27EB PUSH1 0xE0 SHL DUP2 MSTORE PUSH1 0x4 DUP2 ADD DUP7 SWAP1 MSTORE PUSH1 0x24 DUP2 ADD DUP6 SWAP1 MSTORE PUSH1 0x44 ADD PUSH2 0x712 JUMP JUMPDEST PUSH2 0x2B93 DUP2 PUSH2 0x1C4E JUMP JUMPDEST ISZERO PUSH2 0x2BF3 JUMPI PUSH1 0x40 MLOAD PUSH3 0x461BCD PUSH1 0xE5 SHL DUP2 MSTORE PUSH1 0x20 PUSH1 0x4 DUP3 ADD MSTORE PUSH1 0x2A PUSH1 0x24 DUP3 ADD MSTORE PUSH32 0x45524333353235536C6F74456E756D657261626C653A20736C6F7420616C7265 PUSH1 0x44 DUP3 ADD MSTORE PUSH10 0x61647920657869737473 PUSH1 0xB0 SHL PUSH1 0x64 DUP3 ADD MSTORE PUSH1 0x84 ADD PUSH2 0x712 JUMP JUMPDEST PUSH1 0x40 DUP1 MLOAD DUP1 DUP3 ADD DUP3 MSTORE DUP3 DUP2 MSTORE DUP2 MLOAD PUSH0 DUP1 DUP3 MSTORE PUSH1 0x20 DUP3 DUP2 ADD SWAP1 SWAP5 MSTORE SWAP3 DUP3 ADD MSTORE SWAP1 POP PUSH2 0x2C1C DUP2 PUSH2 0x2F5F JUMP JUMPDEST DUP2 PUSH0 DUP1 PUSH32 0xE4F48C240D3B994948AA54F3E2F5FCA59263DFE1D52B6E4CF39A5D249B5CCB65 PUSH1 0x40 MLOAD PUSH1 0x40 MLOAD DUP1 SWAP2 SUB SWAP1 LOG4 POP POP JUMP JUMPDEST PUSH1 0x5 DUP1 SLOAD DUP3 MLOAD PUSH0 SWAP1 DUP2 MSTORE PUSH1 0x6 PUSH1 0x20 DUP2 DUP2 MSTORE PUSH1 0x40 DUP1 DUP5 KECCAK256 DUP6 SWAP1 SSTORE PUSH1 0x1 DUP6 ADD DUP7 SSTORE SWAP5 SWAP1 SWAP3 MSTORE DUP5 MLOAD SWAP3 MUL PUSH32 0x36B6384B5ECA791C62761152D0C79BB0604C104A5FB6F4EB0703F3154BB3DB0 DUP2 ADD SWAP3 DUP4 SSTORE DUP2 DUP6 ADD MLOAD PUSH32 0x36B6384B5ECA791C62761152D0C79BB0604C104A5FB6F4EB0703F3154BB3DB1 DUP3 ADD SSTORE SWAP3 DUP5 ADD MLOAD PUSH32 0x36B6384B5ECA791C62761152D0C79BB0604C104A5FB6F4EB0703F3154BB3DB2 DUP5 ADD SSTORE PUSH1 0x60 DUP5 ADD MLOAD PUSH32 0x36B6384B5ECA791C62761152D0C79BB0604C104A5FB6F4EB0703F3154BB3DB3 DUP5 ADD DUP1 SLOAD PUSH1 0x1 PUSH1 0x1 PUSH1 0xA0 SHL SUB SWAP3 DUP4 AND PUSH1 0x1 PUSH1 0x1 PUSH1 0xA0 SHL SUB NOT SWAP2 DUP3 AND OR SWAP1 SWAP2 SSTORE PUSH1 0x80 DUP7 ADD MLOAD PUSH32 0x36B6384B5ECA791C62761152D0C79BB0604C104A5FB6F4EB0703F3154BB3DB4 DUP7 ADD DUP1 SLOAD SWAP2 SWAP1 SWAP4 AND SWAP2 AND OR SWAP1 SSTORE PUSH1 0xA0 DUP5 ADD MLOAD DUP1 MLOAD DUP6 SWAP5 PUSH2 0x964 SWAP4 PUSH32 0x36B6384B5ECA791C62761152D0C79BB0604C104A5FB6F4EB0703F3154BB3DB5 SWAP1 SWAP2 ADD SWAP3 ADD SWAP1 PUSH2 0x2FFE JUMP JUMPDEST PUSH0 DUP3 DUP2 MSTORE PUSH1 0xB PUSH1 0x20 MSTORE PUSH1 0x40 DUP2 KECCAK256 SLOAD PUSH1 0xA DUP1 SLOAD DUP4 SWAP3 SWAP1 DUP2 LT PUSH2 0x2DC0 JUMPI PUSH2 0x2DC0 PUSH2 0x350B JUMP JUMPDEST SWAP1 PUSH0 MSTORE PUSH1 0x20 PUSH0 KECCAK256 SWAP1 PUSH1 0x2 MUL ADD SWAP1 POP PUSH0 DUP2 PUSH1 0x1 ADD DUP1 SLOAD SWAP1 POP GT DUP1 ISZERO PUSH2 0x25C3 JUMPI POP PUSH0 DUP5 DUP2 MSTORE PUSH1 0x9 PUSH1 0x20 SWAP1 DUP2 MSTORE PUSH1 0x40 DUP1 DUP4 KECCAK256 DUP7 DUP5 MSTORE SWAP1 SWAP2 MSTORE SWAP1 KECCAK256 SLOAD PUSH1 0x1 DUP3 ADD DUP1 SLOAD DUP6 SWAP3 SWAP1 DUP2 LT PUSH2 0x2E0F JUMPI PUSH2 0x2E0F PUSH2 0x350B JUMP JUMPDEST SWAP1 PUSH0 MSTORE PUSH1 0x20 PUSH0 KECCAK256 ADD SLOAD EQ SWAP5 SWAP4 POP POP POP POP JUMP JUMPDEST PUSH0 DUP3 DUP2 MSTORE PUSH1 0xB PUSH1 0x20 MSTORE PUSH1 0x40 DUP2 KECCAK256 SLOAD PUSH1 0xA DUP1 SLOAD SWAP1 SWAP2 SWAP1 DUP2 LT PUSH2 0x2E44 JUMPI PUSH2 0x2E44 PUSH2 0x350B JUMP JUMPDEST PUSH0 SWAP2 DUP3 MSTORE PUSH1 0x20 DUP1 DUP4 KECCAK256 PUSH1 0x1 PUSH1 0x2 SWAP1 SWAP4 MUL ADD DUP3 ADD DUP1 SLOAD SWAP7 DUP5 MSTORE PUSH1 0x9 DUP3 MSTORE PUSH1 0x40 DUP1 DUP6 KECCAK256 DUP8 DUP7 MSTORE DUP4 MSTORE DUP5 KECCAK256 DUP8 SWAP1 SSTORE SWAP2 DUP7 ADD DUP3 SSTORE SWAP1 DUP3 MSTORE SWAP1 KECCAK256 SWAP1 SWAP3 ADD SSTORE POP JUMP JUMPDEST PUSH0 DUP3 DUP2 MSTORE PUSH1 0xB PUSH1 0x20 MSTORE PUSH1 0x40 DUP2 KECCAK256 SLOAD PUSH1 0xA DUP1 SLOAD SWAP1 SWAP2 SWAP1 DUP2 LT PUSH2 0x2EA3 JUMPI PUSH2 0x2EA3 PUSH2 0x350B JUMP JUMPDEST PUSH0 SWAP2 DUP3 MSTORE PUSH1 0x20 DUP3 KECCAK256 PUSH1 0x1 PUSH1 0x2 SWAP1 SWAP3 MUL ADD DUP2 DUP2 ADD SLOAD SWAP1 SWAP4 POP PUSH2 0x2EC4 SWAP2 SWAP1 PUSH2 0x3875 JUMP JUMPDEST SWAP1 POP PUSH0 DUP3 PUSH1 0x1 ADD DUP3 DUP2 SLOAD DUP2 LT PUSH2 0x2EDC JUMPI PUSH2 0x2EDC PUSH2 0x350B JUMP JUMPDEST PUSH0 SWAP2 DUP3 MSTORE PUSH1 0x20 DUP1 DUP4 KECCAK256 SWAP1 SWAP2 ADD SLOAD DUP8 DUP4 MSTORE PUSH1 0x9 DUP3 MSTORE PUSH1 0x40 DUP1 DUP5 KECCAK256 DUP9 DUP6 MSTORE SWAP1 SWAP3 MSTORE SWAP2 KECCAK256 SLOAD PUSH1 0x1 DUP6 ADD DUP1 SLOAD SWAP3 SWAP4 POP SWAP1 SWAP2 DUP4 SWAP2 SWAP1 DUP4 SWAP1 DUP2 LT PUSH2 0x2F1C JUMPI PUSH2 0x2F1C PUSH2 0x350B JUMP JUMPDEST PUSH0 SWAP2 DUP3 MSTORE PUSH1 0x20 DUP1 DUP4 KECCAK256 SWAP2 SWAP1 SWAP2 ADD SWAP3 SWAP1 SWAP3 SSTORE DUP8 DUP2 MSTORE PUSH1 0x9 DUP3 MSTORE PUSH1 0x40 DUP1 DUP3 KECCAK256 DUP6 DUP4 MSTORE SWAP1 SWAP3 MSTORE DUP2 DUP2 KECCAK256 DUP4 SWAP1 SSTORE DUP7 DUP2 MSTORE SWAP1 DUP2 KECCAK256 SSTORE PUSH1 0x1 DUP5 ADD DUP1 SLOAD DUP1 PUSH2 0x2769 JUMPI PUSH2 0x2769 PUSH2 0x38FB JUMP JUMPDEST PUSH1 0xA DUP1 SLOAD DUP3 MLOAD PUSH0 SWAP1 DUP2 MSTORE PUSH1 0xB PUSH1 0x20 SWAP1 DUP2 MSTORE PUSH1 0x40 DUP3 KECCAK256 DUP4 SWAP1 SSTORE PUSH1 0x1 DUP4 ADD DUP5 SSTORE SWAP3 SWAP1 MSTORE DUP3 MLOAD PUSH1 0x2 SWAP1 SWAP2 MUL PUSH32 0xC65A7BB8D6351C1CF70C95A316CC6A92839C986682D98BC35F958F4883F9D2A8 DUP2 ADD SWAP2 DUP3 SSTORE DUP3 DUP5 ADD MLOAD DUP1 MLOAD DUP6 SWAP5 PUSH2 0x964 SWAP4 PUSH32 0xC65A7BB8D6351C1CF70C95A316CC6A92839C986682D98BC35F958F4883F9D2A9 ADD SWAP3 ADD SWAP1 PUSH2 0x3061 JUMP JUMPDEST POP DUP1 SLOAD PUSH0 DUP3 SSTORE SWAP1 PUSH0 MSTORE PUSH1 0x20 PUSH0 KECCAK256 SWAP1 DUP2 ADD SWAP1 PUSH2 0x1377 SWAP2 SWAP1 PUSH2 0x309A JUMP JUMPDEST DUP3 DUP1 SLOAD DUP3 DUP3 SSTORE SWAP1 PUSH0 MSTORE PUSH1 0x20 PUSH0 KECCAK256 SWAP1 DUP2 ADD SWAP3 DUP3 ISZERO PUSH2 0x3051 JUMPI SWAP2 PUSH1 0x20 MUL DUP3 ADD JUMPDEST DUP3 DUP2 GT ISZERO PUSH2 0x3051 JUMPI DUP3 MLOAD DUP3 SLOAD PUSH1 0x1 PUSH1 0x1 PUSH1 0xA0 SHL SUB NOT AND PUSH1 0x1 PUSH1 0x1 PUSH1 0xA0 SHL SUB SWAP1 SWAP2 AND OR DUP3 SSTORE PUSH1 0x20 SWAP1 SWAP3 ADD SWAP2 PUSH1 0x1 SWAP1 SWAP2 ADD SWAP1 PUSH2 0x301C JUMP JUMPDEST POP PUSH2 0x305D SWAP3 SWAP2 POP PUSH2 0x309A JUMP JUMPDEST POP SWAP1 JUMP JUMPDEST DUP3 DUP1 SLOAD DUP3 DUP3 SSTORE SWAP1 PUSH0 MSTORE PUSH1 0x20 PUSH0 KECCAK256 SWAP1 DUP2 ADD SWAP3 DUP3 ISZERO PUSH2 0x3051 JUMPI SWAP2 PUSH1 0x20 MUL DUP3 ADD JUMPDEST DUP3 DUP2 GT ISZERO PUSH2 0x3051 JUMPI DUP3 MLOAD DUP3 SSTORE SWAP2 PUSH1 0x20 ADD SWAP2 SWAP1 PUSH1 0x1 ADD SWAP1 PUSH2 0x307F JUMP JUMPDEST JUMPDEST DUP1 DUP3 GT ISZERO PUSH2 0x305D JUMPI PUSH0 DUP2 SSTORE PUSH1 0x1 ADD PUSH2 0x309B JUMP JUMPDEST PUSH0 DUP1 PUSH1 0x40 DUP4 DUP6 SUB SLT ISZERO PUSH2 0x30BF JUMPI PUSH0 DUP1 REVERT JUMPDEST POP POP DUP1 CALLDATALOAD SWAP3 PUSH1 0x20 SWAP1 SWAP2 ADD CALLDATALOAD SWAP2 POP JUMP JUMPDEST PUSH1 0x1 PUSH1 0x1 PUSH1 0xE0 SHL SUB NOT DUP2 AND DUP2 EQ PUSH2 0x1377 JUMPI PUSH0 DUP1 REVERT JUMPDEST PUSH0 PUSH1 0x20 DUP3 DUP5 SUB SLT ISZERO PUSH2 0x30F3 JUMPI PUSH0 DUP1 REVERT JUMPDEST DUP2 CALLDATALOAD PUSH2 0xA41 DUP2 PUSH2 0x30CE JUMP JUMPDEST PUSH0 JUMPDEST DUP4 DUP2 LT ISZERO PUSH2 0x3118 JUMPI DUP2 DUP2 ADD MLOAD DUP4 DUP3 ADD MSTORE PUSH1 0x20 ADD PUSH2 0x3100 JUMP JUMPDEST POP POP PUSH0 SWAP2 ADD MSTORE JUMP JUMPDEST PUSH0 DUP2 MLOAD DUP1 DUP5 MSTORE PUSH2 0x3137 DUP2 PUSH1 0x20 DUP7 ADD PUSH1 0x20 DUP7 ADD PUSH2 0x30FE JUMP JUMPDEST PUSH1 0x1F ADD PUSH1 0x1F NOT AND SWAP3 SWAP1 SWAP3 ADD PUSH1 0x20 ADD SWAP3 SWAP2 POP POP JUMP JUMPDEST PUSH1 0x20 DUP2 MSTORE PUSH0 PUSH2 0xA41 PUSH1 0x20 DUP4 ADD DUP5 PUSH2 0x3120 JUMP JUMPDEST PUSH0 PUSH1 0x20 DUP3 DUP5 SUB SLT ISZERO PUSH2 0x316D JUMPI PUSH0 DUP1 REVERT JUMPDEST POP CALLDATALOAD SWAP2 SWAP1 POP JUMP JUMPDEST PUSH1 0x1 PUSH1 0x1 PUSH1 0xA0 SHL SUB SWAP2 SWAP1 SWAP2 AND DUP2 MSTORE PUSH1 0x20 ADD SWAP1 JUMP JUMPDEST DUP1 CALLDATALOAD PUSH1 0x1 PUSH1 0x1 PUSH1 0xA0 SHL SUB DUP2 AND DUP2 EQ PUSH2 0xE14 JUMPI PUSH0 DUP1 REVERT JUMPDEST PUSH0 DUP1 PUSH1 0x40 DUP4 DUP6 SUB SLT ISZERO PUSH2 0x31AF JUMPI PUSH0 DUP1 REVERT JUMPDEST PUSH2 0x31B8 DUP4 PUSH2 0x3188 JUMP JUMPDEST SWAP5 PUSH1 0x20 SWAP4 SWAP1 SWAP4 ADD CALLDATALOAD SWAP4 POP POP POP JUMP JUMPDEST PUSH0 DUP1 PUSH0 PUSH1 0x60 DUP5 DUP7 SUB SLT ISZERO PUSH2 0x31D8 JUMPI PUSH0 DUP1 REVERT JUMPDEST DUP4 CALLDATALOAD SWAP3 POP PUSH2 0x31E8 PUSH1 0x20 DUP6 ADD PUSH2 0x3188 JUMP JUMPDEST SWAP2 POP PUSH1 0x40 DUP5 ADD CALLDATALOAD SWAP1 POP SWAP3 POP SWAP3 POP SWAP3 JUMP JUMPDEST PUSH0 DUP1 PUSH0 PUSH1 0x60 DUP5 DUP7 SUB SLT ISZERO PUSH2 0x320A JUMPI PUSH0 DUP1 REVERT JUMPDEST PUSH2 0x3213 DUP5 PUSH2 0x3188 JUMP JUMPDEST SWAP6 PUSH1 0x20 DUP6 ADD CALLDATALOAD SWAP6 POP PUSH1 0x40 SWAP1 SWAP5 ADD CALLDATALOAD SWAP4 SWAP3 POP POP POP JUMP JUMPDEST PUSH0 DUP1 PUSH0 PUSH1 0x60 DUP5 DUP7 SUB SLT ISZERO PUSH2 0x323A JUMPI PUSH0 DUP1 REVERT JUMPDEST PUSH2 0x3243 DUP5 PUSH2 0x3188 JUMP JUMPDEST SWAP3 POP PUSH2 0x31E8 PUSH1 0x20 DUP6 ADD PUSH2 0x3188 JUMP JUMPDEST PUSH0 DUP1 PUSH0 PUSH1 0x60 DUP5 DUP7 SUB SLT ISZERO PUSH2 0x3263 JUMPI PUSH0 DUP1 REVERT JUMPDEST POP POP DUP2 CALLDATALOAD SWAP4 PUSH1 0x20 DUP4 ADD CALLDATALOAD SWAP4 POP PUSH1 0x40 SWAP1 SWAP3 ADD CALLDATALOAD SWAP2 SWAP1 POP JUMP JUMPDEST DUP1 ISZERO ISZERO DUP2 EQ PUSH2 0x1377 JUMPI PUSH0 DUP1 REVERT JUMPDEST PUSH0 DUP1 PUSH0 DUP1 PUSH1 0x80 DUP6 DUP8 SUB SLT ISZERO PUSH2 0x329A JUMPI PUSH0 DUP1 REVERT JUMPDEST PUSH2 0x32A3 DUP6 PUSH2 0x3188 JUMP JUMPDEST SWAP4 POP PUSH1 0x20 DUP6 ADD CALLDATALOAD SWAP3 POP PUSH2 0x32B8 PUSH1 0x40 DUP7 ADD PUSH2 0x3188 JUMP JUMPDEST SWAP2 POP PUSH1 0x60 DUP6 ADD CALLDATALOAD PUSH2 0x32C8 DUP2 PUSH2 0x327A JUMP JUMPDEST SWAP4 SWAP7 SWAP3 SWAP6 POP SWAP1 SWAP4 POP POP JUMP JUMPDEST PUSH4 0x4E487B71 PUSH1 0xE0 SHL PUSH0 MSTORE PUSH1 0x41 PUSH1 0x4 MSTORE PUSH1 0x24 PUSH0 REVERT JUMPDEST PUSH1 0x40 MLOAD PUSH1 0x1F DUP3 ADD PUSH1 0x1F NOT AND DUP2 ADD PUSH1 0x1 PUSH1 0x1 PUSH1 0x40 SHL SUB DUP2 GT DUP3 DUP3 LT OR ISZERO PUSH2 0x330F JUMPI PUSH2 0x330F PUSH2 0x32D3 JUMP JUMPDEST PUSH1 0x40 MSTORE SWAP2 SWAP1 POP JUMP JUMPDEST PUSH0 PUSH1 0x1 PUSH1 0x1 PUSH1 0x40 SHL SUB DUP3 GT ISZERO PUSH2 0x332F JUMPI PUSH2 0x332F PUSH2 0x32D3 JUMP JUMPDEST POP PUSH1 0x1F ADD PUSH1 0x1F NOT AND PUSH1 0x20 ADD SWAP1 JUMP JUMPDEST PUSH0 PUSH2 0x334F PUSH2 0x334A DUP5 PUSH2 0x3317 JUMP JUMPDEST PUSH2 0x32E7 JUMP JUMPDEST SWAP1 POP DUP3 DUP2 MSTORE DUP4 DUP4 DUP4 ADD GT ISZERO PUSH2 0x3362 JUMPI PUSH0 DUP1 REVERT JUMPDEST DUP3 DUP3 PUSH1 0x20 DUP4 ADD CALLDATACOPY PUSH0 PUSH1 0x20 DUP5 DUP4 ADD ADD MSTORE SWAP4 SWAP3 POP POP POP JUMP JUMPDEST PUSH0 PUSH1 0x20 DUP3 DUP5 SUB SLT ISZERO PUSH2 0x3388 JUMPI PUSH0 DUP1 REVERT JUMPDEST DUP2 CALLDATALOAD PUSH1 0x1 PUSH1 0x1 PUSH1 0x40 SHL SUB DUP2 GT ISZERO PUSH2 0x339D JUMPI PUSH0 DUP1 REVERT JUMPDEST DUP3 ADD PUSH1 0x1F DUP2 ADD DUP5 SGT PUSH2 0x33AD JUMPI PUSH0 DUP1 REVERT JUMPDEST PUSH2 0x25C3 DUP5 DUP3 CALLDATALOAD PUSH1 0x20 DUP5 ADD PUSH2 0x333D JUMP JUMPDEST PUSH0 PUSH1 0x20 DUP3 DUP5 SUB SLT ISZERO PUSH2 0x33CC JUMPI PUSH0 DUP1 REVERT JUMPDEST PUSH2 0xA41 DUP3 PUSH2 0x3188 JUMP JUMPDEST PUSH0 DUP1 PUSH1 0x40 DUP4 DUP6 SUB SLT ISZERO PUSH2 0x33E6 JUMPI PUSH0 DUP1 REVERT JUMPDEST PUSH2 0x33EF DUP4 PUSH2 0x3188 JUMP JUMPDEST SWAP2 POP PUSH1 0x20 DUP4 ADD CALLDATALOAD PUSH2 0x33FF DUP2 PUSH2 0x327A JUMP JUMPDEST DUP1 SWAP2 POP POP SWAP3 POP SWAP3 SWAP1 POP JUMP JUMPDEST PUSH0 DUP1 PUSH0 DUP1 PUSH1 0x80 DUP6 DUP8 SUB SLT ISZERO PUSH2 0x341D JUMPI PUSH0 DUP1 REVERT JUMPDEST PUSH2 0x3426 DUP6 PUSH2 0x3188 JUMP JUMPDEST SWAP4 POP PUSH2 0x3434 PUSH1 0x20 DUP7 ADD PUSH2 0x3188 JUMP JUMPDEST SWAP3 POP PUSH1 0x40 DUP6 ADD CALLDATALOAD SWAP2 POP PUSH1 0x60 DUP6 ADD CALLDATALOAD PUSH1 0x1 PUSH1 0x1 PUSH1 0x40 SHL SUB DUP2 GT ISZERO PUSH2 0x3455 JUMPI PUSH0 DUP1 REVERT JUMPDEST DUP6 ADD PUSH1 0x1F DUP2 ADD DUP8 SGT PUSH2 0x3465 JUMPI PUSH0 DUP1 REVERT JUMPDEST PUSH2 0x3474 DUP8 DUP3 CALLDATALOAD PUSH1 0x20 DUP5 ADD PUSH2 0x333D JUMP JUMPDEST SWAP2 POP POP SWAP3 SWAP6 SWAP2 SWAP5 POP SWAP3 POP JUMP JUMPDEST PUSH0 DUP1 PUSH1 0x40 DUP4 DUP6 SUB SLT ISZERO PUSH2 0x3491 JUMPI PUSH0 DUP1 REVERT JUMPDEST DUP3 CALLDATALOAD SWAP2 POP PUSH2 0x34A1 PUSH1 0x20 DUP5 ADD PUSH2 0x3188 JUMP JUMPDEST SWAP1 POP SWAP3 POP SWAP3 SWAP1 POP JUMP JUMPDEST PUSH0 DUP1 PUSH0 PUSH1 0x60 DUP5 DUP7 SUB SLT ISZERO PUSH2 0x34BC JUMPI PUSH0 DUP1 REVERT JUMPDEST PUSH2 0x34C5 DUP5 PUSH2 0x3188 JUMP JUMPDEST SWAP3 POP PUSH1 0x20 DUP5 ADD CALLDATALOAD SWAP2 POP PUSH2 0x34DA PUSH1 0x40 DUP6 ADD PUSH2 0x3188 JUMP JUMPDEST SWAP1 POP SWAP3 POP SWAP3 POP SWAP3 JUMP JUMPDEST PUSH0 DUP1 PUSH1 0x40 DUP4 DUP6 SUB SLT ISZERO PUSH2 0x34F4 JUMPI PUSH0 DUP1 REVERT JUMPDEST PUSH2 0x34FD DUP4 PUSH2 0x3188 JUMP JUMPDEST SWAP2 POP PUSH2 0x34A1 PUSH1 0x20 DUP5 ADD PUSH2 0x3188 JUMP JUMPDEST PUSH4 0x4E487B71 PUSH1 0xE0 SHL PUSH0 MSTORE PUSH1 0x32 PUSH1 0x4 MSTORE PUSH1 0x24 PUSH0 REVERT JUMPDEST PUSH1 0x1 DUP2 DUP2 SHR SWAP1 DUP3 AND DUP1 PUSH2 0x3533 JUMPI PUSH1 0x7F DUP3 AND SWAP2 POP JUMPDEST PUSH1 0x20 DUP3 LT DUP2 SUB PUSH2 0x3551 JUMPI PUSH4 0x4E487B71 PUSH1 0xE0 SHL PUSH0 MSTORE PUSH1 0x22 PUSH1 0x4 MSTORE PUSH1 0x24 PUSH0 REVERT JUMPDEST POP SWAP2 SWAP1 POP JUMP JUMPDEST PUSH1 0x20 DUP1 DUP3 MSTORE PUSH1 0x22 SWAP1 DUP3 ADD MSTORE PUSH32 0x455243333532353A20617070726F76616C20746F2063757272656E74206F776E PUSH1 0x40 DUP3 ADD MSTORE PUSH2 0x32B9 PUSH1 0xF1 SHL PUSH1 0x60 DUP3 ADD MSTORE PUSH1 0x80 ADD SWAP1 JUMP JUMPDEST PUSH0 DUP4 MLOAD PUSH2 0x35AA DUP2 DUP5 PUSH1 0x20 DUP9 ADD PUSH2 0x30FE JUMP JUMPDEST PUSH5 0x736C6F742F PUSH1 0xD8 SHL SWAP1 DUP4 ADD SWAP1 DUP2 MSTORE DUP4 MLOAD PUSH2 0x35CC DUP2 PUSH1 0x5 DUP5 ADD PUSH1 0x20 DUP9 ADD PUSH2 0x30FE JUMP JUMPDEST ADD PUSH1 0x5 ADD SWAP5 SWAP4 POP POP POP POP JUMP JUMPDEST PUSH0 PUSH1 0x20 DUP3 DUP5 SUB SLT ISZERO PUSH2 0x35E8 JUMPI PUSH0 DUP1 REVERT JUMPDEST DUP2 MLOAD PUSH1 0x1 PUSH1 0x1 PUSH1 0x40 SHL SUB DUP2 GT ISZERO PUSH2 0x35FD JUMPI PUSH0 DUP1 REVERT JUMPDEST DUP3 ADD PUSH1 0x1F DUP2 ADD DUP5 SGT PUSH2 0x360D JUMPI PUSH0 DUP1 REVERT JUMPDEST DUP1 MLOAD PUSH2 0x361B PUSH2 0x334A DUP3 PUSH2 0x3317 JUMP JUMPDEST DUP2 DUP2 MSTORE DUP6 PUSH1 0x20 DUP4 DUP6 ADD ADD GT ISZERO PUSH2 0x362F JUMPI PUSH0 DUP1 REVERT JUMPDEST PUSH2 0x1AD0 DUP3 PUSH1 0x20 DUP4 ADD PUSH1 0x20 DUP7 ADD PUSH2 0x30FE JUMP JUMPDEST PUSH1 0x20 DUP1 DUP3 MSTORE PUSH1 0x32 SWAP1 DUP3 ADD MSTORE PUSH32 0x455243333532353A207472616E736665722063616C6C6572206973206E6F7420 PUSH1 0x40 DUP3 ADD MSTORE PUSH18 0x1BDDDB995C881B9BDC88185C1C1C9BDD9959 PUSH1 0x72 SHL PUSH1 0x60 DUP3 ADD MSTORE PUSH1 0x80 ADD SWAP1 JUMP JUMPDEST PUSH1 0x1F DUP3 GT ISZERO PUSH2 0xAC2 JUMPI PUSH0 DUP2 DUP2 MSTORE PUSH1 0x20 DUP2 KECCAK256 PUSH1 0x1F DUP6 ADD PUSH1 0x5 SHR DUP2 ADD PUSH1 0x20 DUP7 LT ISZERO PUSH2 0x36B8 JUMPI POP DUP1 JUMPDEST PUSH1 0x1F DUP6 ADD PUSH1 0x5 SHR DUP3 ADD SWAP2 POP JUMPDEST DUP2 DUP2 LT ISZERO PUSH2 0x22A1 JUMPI DUP3 DUP2 SSTORE PUSH1 0x1 ADD PUSH2 0x36C4 JUMP JUMPDEST DUP2 MLOAD PUSH1 0x1 PUSH1 0x1 PUSH1 0x40 SHL SUB DUP2 GT ISZERO PUSH2 0x36F0 JUMPI PUSH2 0x36F0 PUSH2 0x32D3 JUMP JUMPDEST PUSH2 0x3704 DUP2 PUSH2 0x36FE DUP5 SLOAD PUSH2 0x351F JUMP JUMPDEST DUP5 PUSH2 0x3692 JUMP JUMPDEST PUSH1 0x20 DUP1 PUSH1 0x1F DUP4 GT PUSH1 0x1 DUP2 EQ PUSH2 0x3737 JUMPI PUSH0 DUP5 ISZERO PUSH2 0x3720 JUMPI POP DUP6 DUP4 ADD MLOAD JUMPDEST PUSH0 NOT PUSH1 0x3 DUP7 SWAP1 SHL SHR NOT AND PUSH1 0x1 DUP6 SWAP1 SHL OR DUP6 SSTORE PUSH2 0x22A1 JUMP JUMPDEST PUSH0 DUP6 DUP2 MSTORE PUSH1 0x20 DUP2 KECCAK256 PUSH1 0x1F NOT DUP7 AND SWAP2 JUMPDEST DUP3 DUP2 LT ISZERO PUSH2 0x3765 JUMPI DUP9 DUP7 ADD MLOAD DUP3 SSTORE SWAP5 DUP5 ADD SWAP5 PUSH1 0x1 SWAP1 SWAP2 ADD SWAP1 DUP5 ADD PUSH2 0x3746 JUMP JUMPDEST POP DUP6 DUP3 LT ISZERO PUSH2 0x3782 JUMPI DUP8 DUP6 ADD MLOAD PUSH0 NOT PUSH1 0x3 DUP9 SWAP1 SHL PUSH1 0xF8 AND SHR NOT AND DUP2 SSTORE JUMPDEST POP POP POP POP POP PUSH1 0x1 SWAP1 DUP2 SHL ADD SWAP1 SSTORE POP JUMP JUMPDEST PUSH4 0x4E487B71 PUSH1 0xE0 SHL PUSH0 MSTORE PUSH1 0x11 PUSH1 0x4 MSTORE PUSH1 0x24 PUSH0 REVERT JUMPDEST DUP1 DUP3 ADD DUP1 DUP3 GT ISZERO PUSH2 0x76A JUMPI PUSH2 0x76A PUSH2 0x3792 JUMP JUMPDEST PUSH0 PUSH1 0x1 DUP3 ADD PUSH2 0x37CA JUMPI PUSH2 0x37CA PUSH2 0x3792 JUMP JUMPDEST POP PUSH1 0x1 ADD SWAP1 JUMP JUMPDEST PUSH1 0x20 DUP1 DUP3 MSTORE PUSH1 0x19 SWAP1 DUP3 ADD MSTORE PUSH25 0x115490CCCD4C8D4E881A5B9D985B1A59081D1BDAD95B881251 PUSH1 0x3A SHL PUSH1 0x40 DUP3 ADD MSTORE PUSH1 0x60 ADD SWAP1 JUMP JUMPDEST PUSH0 DUP4 MLOAD PUSH2 0x3815 DUP2 DUP5 PUSH1 0x20 DUP9 ADD PUSH2 0x30FE JUMP JUMPDEST DUP4 MLOAD SWAP1 DUP4 ADD SWAP1 PUSH2 0x3829 DUP2 DUP4 PUSH1 0x20 DUP9 ADD PUSH2 0x30FE JUMP JUMPDEST ADD SWAP5 SWAP4 POP POP POP POP JUMP JUMPDEST PUSH0 DUP4 MLOAD PUSH2 0x3843 DUP2 DUP5 PUSH1 0x20 DUP9 ADD PUSH2 0x30FE JUMP JUMPDEST PUSH9 0x636F6E74726163742F PUSH1 0xB8 SHL SWAP1 DUP4 ADD SWAP1 DUP2 MSTORE DUP4 MLOAD PUSH2 0x3869 DUP2 PUSH1 0x9 DUP5 ADD PUSH1 0x20 DUP9 ADD PUSH2 0x30FE JUMP JUMPDEST ADD PUSH1 0x9 ADD SWAP5 SWAP4 POP POP POP POP JUMP JUMPDEST DUP2 DUP2 SUB DUP2 DUP2 GT ISZERO PUSH2 0x76A JUMPI PUSH2 0x76A PUSH2 0x3792 JUMP JUMPDEST PUSH0 PUSH1 0x20 DUP3 DUP5 SUB SLT ISZERO PUSH2 0x3898 JUMPI PUSH0 DUP1 REVERT JUMPDEST DUP2 MLOAD PUSH2 0xA41 DUP2 PUSH2 0x327A JUMP JUMPDEST PUSH1 0x1 DUP1 PUSH1 0xA0 SHL SUB DUP7 AND DUP2 MSTORE DUP5 PUSH1 0x20 DUP3 ADD MSTORE DUP4 PUSH1 0x40 DUP3 ADD MSTORE DUP3 PUSH1 0x60 DUP3 ADD MSTORE PUSH1 0xA0 PUSH1 0x80 DUP3 ADD MSTORE PUSH0 PUSH2 0x38D5 PUSH1 0xA0 DUP4 ADD DUP5 PUSH2 0x3120 JUMP JUMPDEST SWAP8 SWAP7 POP POP POP POP POP POP POP JUMP JUMPDEST PUSH0 PUSH1 0x20 DUP3 DUP5 SUB SLT ISZERO PUSH2 0x38F0 JUMPI PUSH0 DUP1 REVERT JUMPDEST DUP2 MLOAD PUSH2 0xA41 DUP2 PUSH2 0x30CE JUMP JUMPDEST PUSH4 0x4E487B71 PUSH1 0xE0 SHL PUSH0 MSTORE PUSH1 0x31 PUSH1 0x4 MSTORE PUSH1 0x24 PUSH0 REVERT JUMPDEST PUSH1 0x1 PUSH1 0x1 PUSH1 0xA0 SHL SUB DUP6 DUP2 AND DUP3 MSTORE DUP5 AND PUSH1 0x20 DUP3 ADD MSTORE PUSH1 0x40 DUP2 ADD DUP4 SWAP1 MSTORE PUSH1 0x80 PUSH1 0x60 DUP3 ADD DUP2 SWAP1 MSTORE PUSH0 SWAP1 PUSH2 0x3941 SWAP1 DUP4 ADD DUP5 PUSH2 0x3120 JUMP JUMPDEST SWAP7 SWAP6 POP POP POP POP POP POP JUMP JUMPDEST DUP1 DUP3 MUL DUP2 ISZERO DUP3 DUP3 DIV DUP5 EQ OR PUSH2 0x76A JUMPI PUSH2 0x76A PUSH2 0x3792 JUMP JUMPDEST PUSH0 DUP2 PUSH2 0x3970 JUMPI PUSH2 0x3970 PUSH2 0x3792 JUMP JUMPDEST POP PUSH0 NOT ADD SWAP1 JUMP INVALID LOG2 PUSH5 0x6970667358 0x22 SLT KECCAK256 PUSH31 0xB35B643E1CDCAB7DA6C02C212D3F4762AC392B0B323D67B41ADAA87E0DD686 PUSH5 0x736F6C6343 STOP ADDMOD EQ STOP CALLER "
		},
		"gasEstimates": {
			"creation": {
				"codeDepositCost": "2953000",
				"executionCost": "infinite",
				"totalCost": "infinite"
			},
			"external": {
				"allowance(uint256,address)": "11443",
				"approve(address,uint256)": "infinite",
				"approve(uint256,address,uint256)": "infinite",
				"balanceOf(address)": "2664",
				"balanceOf(uint256)": "15574",
				"baseURI()": "infinite",
				"contractURI()": "infinite",
				"getApproved(uint256)": "15635",
				"isApprovedForAll(address,address)": "infinite",
				"isApprovedForSlot(address,uint256,address)": "infinite",
				"metadataDescriptor()": "2494",
				"mint(address,uint256,uint256)": "infinite",
				"mintValue(uint256,uint256)": "infinite",
				"name()": "infinite",
				"owner()": "2421",
				"ownerOf(uint256)": "15612",
				"renounceOwnership()": "infinite",
				"safeTransferFrom(address,address,uint256)": "infinite",
				"safeTransferFrom(address,address,uint256,bytes)": "infinite",
				"setApprovalForAll(address,bool)": "26775",
				"setApprovalForSlot(address,uint256,address,bool)": "infinite",
				"setBaseURI(string)": "infinite",
				"slotAmount(uint256)": "infinite",
				"slotByIndex(uint256)": "6826",
				"slotCount()": "2368",
				"slotOf(uint256)": "15487",
				"slotURI(uint256)": "infinite",
				"supportsInterface(bytes4)": "infinite",
				"symbol()": "infinite",
				"tokenByIndex(uint256)": "6760",
				"tokenInSlotByIndex(uint256,uint256)": "24204",
				"tokenOfOwnerByIndex(address,uint256)": "7098",
				"tokenSupplyInSlot(uint256)": "15486",
				"tokenURI(uint256)": "infinite",
				"totalSupply()": "2392",
				"transferFrom(address,address,uint256)": "infinite",
				"transferFrom(uint256,address,uint256)": "infinite",
				"transferFrom(uint256,uint256,uint256)": "infinite",
				"transferOwnership(address)": "28465",
				"valueDecimals()": "2400"
			},
			"internal": {
				"_baseURI()": "infinite"
			}
		},
		"methodIdentifiers": {
			"allowance(uint256,address)": "e345e0bc",
			"approve(address,uint256)": "095ea7b3",
			"approve(uint256,address,uint256)": "8cb0a511",
			"balanceOf(address)": "70a08231",
			"balanceOf(uint256)": "9cc7f708",
			"baseURI()": "6c0360eb",
			"contractURI()": "e8a3d485",
			"getApproved(uint256)": "081812fc",
			"isApprovedForAll(address,address)": "e985e9c5",
			"isApprovedForSlot(address,uint256,address)": "e345f05e",
			"metadataDescriptor()": "840f7113",
			"mint(address,uint256,uint256)": "156e29f6",
			"mintValue(uint256,uint256)": "f0e88e7f",
			"name()": "06fdde03",
			"owner()": "8da5cb5b",
			"ownerOf(uint256)": "6352211e",
			"renounceOwnership()": "715018a6",
			"safeTransferFrom(address,address,uint256)": "42842e0e",
			"safeTransferFrom(address,address,uint256,bytes)": "b88d4fde",
			"setApprovalForAll(address,bool)": "a22cb465",
			"setApprovalForSlot(address,uint256,address,bool)": "55cd4e06",
			"setBaseURI(string)": "55f804b3",
			"slotAmount(uint256)": "5a3c7da7",
			"slotByIndex(uint256)": "993bef8d",
			"slotCount()": "ed08fa80",
			"slotOf(uint256)": "263f3e7e",
			"slotURI(uint256)": "09c3dd87",
			"supportsInterface(bytes4)": "01ffc9a7",
			"symbol()": "95d89b41",
			"tokenByIndex(uint256)": "4f6ccce7",
			"tokenInSlotByIndex(uint256,uint256)": "00cd0110",
			"tokenOfOwnerByIndex(address,uint256)": "2f745c59",
			"tokenSupplyInSlot(uint256)": "4f8a0f83",
			"tokenURI(uint256)": "c87b56dd",
			"totalSupply()": "18160ddd",
			"transferFrom(address,address,uint256)": "23b872dd",
			"transferFrom(uint256,address,uint256)": "0f485c02",
			"transferFrom(uint256,uint256,uint256)": "310ed7f0",
			"transferOwnership(address)": "f2fde38b",
			"valueDecimals()": "3e7e8669"
		}
	},
	"abi": [
		{
			"inputs": [
				{
					"internalType": "address",
					"name": "owner_",
					"type": "address"
				},
				{
					"internalType": "string",
					"name": "name_",
					"type": "string"
				},
				{
					"internalType": "string",
					"name": "symbol_",
					"type": "string"
				}
			],
			"stateMutability": "nonpayable",
			"type": "constructor"
		},
		{
			"inputs": [
				{
					"internalType": "address",
					"name": "owner",
					"type": "address"
				}
			],
			"name": "OwnableInvalidOwner",
			"type": "error"
		},
		{
			"inputs": [
				{
					"internalType": "address",
					"name": "account",
					"type": "address"
				}
			],
			"name": "OwnableUnauthorizedAccount",
			"type": "error"
		},
		{
			"inputs": [
				{
					"internalType": "uint256",
					"name": "value",
					"type": "uint256"
				},
				{
					"internalType": "uint256",
					"name": "length",
					"type": "uint256"
				}
			],
			"name": "StringsInsufficientHexLength",
			"type": "error"
		},
		{
			"anonymous": false,
			"inputs": [
				{
					"indexed": true,
					"internalType": "address",
					"name": "_owner",
					"type": "address"
				},
				{
					"indexed": true,
					"internalType": "address",
					"name": "_approved",
					"type": "address"
				},
				{
					"indexed": true,
					"internalType": "uint256",
					"name": "_tokenId",
					"type": "uint256"
				}
			],
			"name": "Approval",
			"type": "event"
		},
		{
			"anonymous": false,
			"inputs": [
				{
					"indexed": true,
					"internalType": "address",
					"name": "_owner",
					"type": "address"
				},
				{
					"indexed": true,
					"internalType": "address",
					"name": "_operator",
					"type": "address"
				},
				{
					"indexed": false,
					"internalType": "bool",
					"name": "_approved",
					"type": "bool"
				}
			],
			"name": "ApprovalForAll",
			"type": "event"
		},
		{
			"anonymous": false,
			"inputs": [
				{
					"indexed": true,
					"internalType": "address",
					"name": "_owner",
					"type": "address"
				},
				{
					"indexed": true,
					"internalType": "uint256",
					"name": "_slot",
					"type": "uint256"
				},
				{
					"indexed": true,
					"internalType": "address",
					"name": "_operator",
					"type": "address"
				},
				{
					"indexed": false,
					"internalType": "bool",
					"name": "_approved",
					"type": "bool"
				}
			],
			"name": "ApprovalForSlot",
			"type": "event"
		},
		{
			"anonymous": false,
			"inputs": [
				{
					"indexed": true,
					"internalType": "uint256",
					"name": "_tokenId",
					"type": "uint256"
				},
				{
					"indexed": true,
					"internalType": "address",
					"name": "_operator",
					"type": "address"
				},
				{
					"indexed": false,
					"internalType": "uint256",
					"name": "_value",
					"type": "uint256"
				}
			],
			"name": "ApprovalValue",
			"type": "event"
		},
		{
			"anonymous": false,
			"inputs": [
				{
					"indexed": true,
					"internalType": "address",
					"name": "previousOwner",
					"type": "address"
				},
				{
					"indexed": true,
					"internalType": "address",
					"name": "newOwner",
					"type": "address"
				}
			],
			"name": "OwnershipTransferred",
			"type": "event"
		},
		{
			"anonymous": false,
			"inputs": [
				{
					"indexed": true,
					"internalType": "address",
					"name": "metadataDescriptor",
					"type": "address"
				}
			],
			"name": "SetMetadataDescriptor",
			"type": "event"
		},
		{
			"anonymous": false,
			"inputs": [
				{
					"indexed": true,
					"internalType": "uint256",
					"name": "_tokenId",
					"type": "uint256"
				},
				{
					"indexed": true,
					"internalType": "uint256",
					"name": "_oldSlot",
					"type": "uint256"
				},
				{
					"indexed": true,
					"internalType": "uint256",
					"name": "_newSlot",
					"type": "uint256"
				}
			],
			"name": "SlotChanged",
			"type": "event"
		},
		{
			"anonymous": false,
			"inputs": [
				{
					"indexed": true,
					"internalType": "address",
					"name": "_from",
					"type": "address"
				},
				{
					"indexed": true,
					"internalType": "address",
					"name": "_to",
					"type": "address"
				},
				{
					"indexed": true,
					"internalType": "uint256",
					"name": "_tokenId",
					"type": "uint256"
				}
			],
			"name": "Transfer",
			"type": "event"
		},
		{
			"anonymous": false,
			"inputs": [
				{
					"indexed": true,
					"internalType": "uint256",
					"name": "_fromTokenId",
					"type": "uint256"
				},
				{
					"indexed": true,
					"internalType": "uint256",
					"name": "_toTokenId",
					"type": "uint256"
				},
				{
					"indexed": false,
					"internalType": "uint256",
					"name": "_value",
					"type": "uint256"
				}
			],
			"name": "TransferValue",
			"type": "event"
		},
		{
			"inputs": [
				{
					"internalType": "uint256",
					"name": "tokenId_",
					"type": "uint256"
				},
				{
					"internalType": "address",
					"name": "operator_",
					"type": "address"
				}
			],
			"name": "allowance",
			"outputs": [
				{
					"internalType": "uint256",
					"name": "",
					"type": "uint256"
				}
			],
			"stateMutability": "view",
			"type": "function"
		},
		{
			"inputs": [
				{
					"internalType": "address",
					"name": "to_",
					"type": "address"
				},
				{
					"internalType": "uint256",
					"name": "tokenId_",
					"type": "uint256"
				}
			],
			"name": "approve",
			"outputs": [],
			"stateMutability": "payable",
			"type": "function"
		},
		{
			"inputs": [
				{
					"internalType": "uint256",
					"name": "tokenId_",
					"type": "uint256"
				},
				{
					"internalType": "address",
					"name": "to_",
					"type": "address"
				},
				{
					"internalType": "uint256",
					"name": "value_",
					"type": "uint256"
				}
			],
			"name": "approve",
			"outputs": [],
			"stateMutability": "payable",
			"type": "function"
		},
		{
			"inputs": [
				{
					"internalType": "address",
					"name": "owner_",
					"type": "address"
				}
			],
			"name": "balanceOf",
			"outputs": [
				{
					"internalType": "uint256",
					"name": "balance",
					"type": "uint256"
				}
			],
			"stateMutability": "view",
			"type": "function"
		},
		{
			"inputs": [
				{
					"internalType": "uint256",
					"name": "tokenId_",
					"type": "uint256"
				}
			],
			"name": "balanceOf",
			"outputs": [
				{
					"internalType": "uint256",
					"name": "",
					"type": "uint256"
				}
			],
			"stateMutability": "view",
			"type": "function"
		},
		{
			"inputs": [],
			"name": "baseURI",
			"outputs": [
				{
					"internalType": "string",
					"name": "",
					"type": "string"
				}
			],
			"stateMutability": "view",
			"type": "function"
		},
		{
			"inputs": [],
			"name": "contractURI",
			"outputs": [
				{
					"internalType": "string",
					"name": "",
					"type": "string"
				}
			],
			"stateMutability": "view",
			"type": "function"
		},
		{
			"inputs": [
				{
					"internalType": "uint256",
					"name": "tokenId_",
					"type": "uint256"
				}
			],
			"name": "getApproved",
			"outputs": [
				{
					"internalType": "address",
					"name": "",
					"type": "address"
				}
			],
			"stateMutability": "view",
			"type": "function"
		},
		{
			"inputs": [
				{
					"internalType": "address",
					"name": "owner_",
					"type": "address"
				},
				{
					"internalType": "address",
					"name": "operator_",
					"type": "address"
				}
			],
			"name": "isApprovedForAll",
			"outputs": [
				{
					"internalType": "bool",
					"name": "",
					"type": "bool"
				}
			],
			"stateMutability": "view",
			"type": "function"
		},
		{
			"inputs": [
				{
					"internalType": "address",
					"name": "owner_",
					"type": "address"
				},
				{
					"internalType": "uint256",
					"name": "slot_",
					"type": "uint256"
				},
				{
					"internalType": "address",
					"name": "operator_",
					"type": "address"
				}
			],
			"name": "isApprovedForSlot",
			"outputs": [
				{
					"internalType": "bool",
					"name": "",
					"type": "bool"
				}
			],
			"stateMutability": "view",
			"type": "function"
		},
		{
			"inputs": [],
			"name": "metadataDescriptor",
			"outputs": [
				{
					"internalType": "contract IERC3525MetadataDescriptor",
					"name": "",
					"type": "address"
				}
			],
			"stateMutability": "view",
			"type": "function"
		},
		{
			"inputs": [
				{
					"internalType": "address",
					"name": "mintTo_",
					"type": "address"
				},
				{
					"internalType": "uint256",
					"name": "slot_",
					"type": "uint256"
				},
				{
					"internalType": "uint256",
					"name": "value_",
					"type": "uint256"
				}
			],
			"name": "mint",
			"outputs": [],
			"stateMutability": "nonpayable",
			"type": "function"
		},
		{
			"inputs": [
				{
					"internalType": "uint256",
					"name": "tokenId_",
					"type": "uint256"
				},
				{
					"internalType": "uint256",
					"name": "value_",
					"type": "uint256"
				}
			],
			"name": "mintValue",
			"outputs": [],
			"stateMutability": "nonpayable",
			"type": "function"
		},
		{
			"inputs": [],
			"name": "name",
			"outputs": [
				{
					"internalType": "string",
					"name": "",
					"type": "string"
				}
			],
			"stateMutability": "view",
			"type": "function"
		},
		{
			"inputs": [],
			"name": "owner",
			"outputs": [
				{
					"internalType": "address",
					"name": "",
					"type": "address"
				}
			],
			"stateMutability": "view",
			"type": "function"
		},
		{
			"inputs": [
				{
					"internalType": "uint256",
					"name": "tokenId_",
					"type": "uint256"
				}
			],
			"name": "ownerOf",
			"outputs": [
				{
					"internalType": "address",
					"name": "owner_",
					"type": "address"
				}
			],
			"stateMutability": "view",
			"type": "function"
		},
		{
			"inputs": [],
			"name": "renounceOwnership",
			"outputs": [],
			"stateMutability": "nonpayable",
			"type": "function"
		},
		{
			"inputs": [
				{
					"internalType": "address",
					"name": "from_",
					"type": "address"
				},
				{
					"internalType": "address",
					"name": "to_",
					"type": "address"
				},
				{
					"internalType": "uint256",
					"name": "tokenId_",
					"type": "uint256"
				}
			],
			"name": "safeTransferFrom",
			"outputs": [],
			"stateMutability": "payable",
			"type": "function"
		},
		{
			"inputs": [
				{
					"internalType": "address",
					"name": "from_",
					"type": "address"
				},
				{
					"internalType": "address",
					"name": "to_",
					"type": "address"
				},
				{
					"internalType": "uint256",
					"name": "tokenId_",
					"type": "uint256"
				},
				{
					"internalType": "bytes",
					"name": "data_",
					"type": "bytes"
				}
			],
			"name": "safeTransferFrom",
			"outputs": [],
			"stateMutability": "payable",
			"type": "function"
		},
		{
			"inputs": [
				{
					"internalType": "address",
					"name": "operator_",
					"type": "address"
				},
				{
					"internalType": "bool",
					"name": "approved_",
					"type": "bool"
				}
			],
			"name": "setApprovalForAll",
			"outputs": [],
			"stateMutability": "nonpayable",
			"type": "function"
		},
		{
			"inputs": [
				{
					"internalType": "address",
					"name": "owner_",
					"type": "address"
				},
				{
					"internalType": "uint256",
					"name": "slot_",
					"type": "uint256"
				},
				{
					"internalType": "address",
					"name": "operator_",
					"type": "address"
				},
				{
					"internalType": "bool",
					"name": "approved_",
					"type": "bool"
				}
			],
			"name": "setApprovalForSlot",
			"outputs": [],
			"stateMutability": "payable",
			"type": "function"
		},
		{
			"inputs": [
				{
					"internalType": "string",
					"name": "newuri",
					"type": "string"
				}
			],
			"name": "setBaseURI",
			"outputs": [],
			"stateMutability": "nonpayable",
			"type": "function"
		},
		{
			"inputs": [
				{
					"internalType": "uint256",
					"name": "sft_slot",
					"type": "uint256"
				}
			],
			"name": "slotAmount",
			"outputs": [
				{
					"internalType": "uint256",
					"name": "",
					"type": "uint256"
				}
			],
			"stateMutability": "view",
			"type": "function"
		},
		{
			"inputs": [
				{
					"internalType": "uint256",
					"name": "index_",
					"type": "uint256"
				}
			],
			"name": "slotByIndex",
			"outputs": [
				{
					"internalType": "uint256",
					"name": "",
					"type": "uint256"
				}
			],
			"stateMutability": "view",
			"type": "function"
		},
		{
			"inputs": [],
			"name": "slotCount",
			"outputs": [
				{
					"internalType": "uint256",
					"name": "",
					"type": "uint256"
				}
			],
			"stateMutability": "view",
			"type": "function"
		},
		{
			"inputs": [
				{
					"internalType": "uint256",
					"name": "tokenId_",
					"type": "uint256"
				}
			],
			"name": "slotOf",
			"outputs": [
				{
					"internalType": "uint256",
					"name": "",
					"type": "uint256"
				}
			],
			"stateMutability": "view",
			"type": "function"
		},
		{
			"inputs": [
				{
					"internalType": "uint256",
					"name": "slot_",
					"type": "uint256"
				}
			],
			"name": "slotURI",
			"outputs": [
				{
					"internalType": "string",
					"name": "",
					"type": "string"
				}
			],
			"stateMutability": "view",
			"type": "function"
		},
		{
			"inputs": [
				{
					"internalType": "bytes4",
					"name": "interfaceId",
					"type": "bytes4"
				}
			],
			"name": "supportsInterface",
			"outputs": [
				{
					"internalType": "bool",
					"name": "",
					"type": "bool"
				}
			],
			"stateMutability": "view",
			"type": "function"
		},
		{
			"inputs": [],
			"name": "symbol",
			"outputs": [
				{
					"internalType": "string",
					"name": "",
					"type": "string"
				}
			],
			"stateMutability": "view",
			"type": "function"
		},
		{
			"inputs": [
				{
					"internalType": "uint256",
					"name": "index_",
					"type": "uint256"
				}
			],
			"name": "tokenByIndex",
			"outputs": [
				{
					"internalType": "uint256",
					"name": "",
					"type": "uint256"
				}
			],
			"stateMutability": "view",
			"type": "function"
		},
		{
			"inputs": [
				{
					"internalType": "uint256",
					"name": "slot_",
					"type": "uint256"
				},
				{
					"internalType": "uint256",
					"name": "index_",
					"type": "uint256"
				}
			],
			"name": "tokenInSlotByIndex",
			"outputs": [
				{
					"internalType": "uint256",
					"name": "",
					"type": "uint256"
				}
			],
			"stateMutability": "view",
			"type": "function"
		},
		{
			"inputs": [
				{
					"internalType": "address",
					"name": "owner_",
					"type": "address"
				},
				{
					"internalType": "uint256",
					"name": "index_",
					"type": "uint256"
				}
			],
			"name": "tokenOfOwnerByIndex",
			"outputs": [
				{
					"internalType": "uint256",
					"name": "",
					"type": "uint256"
				}
			],
			"stateMutability": "view",
			"type": "function"
		},
		{
			"inputs": [
				{
					"internalType": "uint256",
					"name": "slot_",
					"type": "uint256"
				}
			],
			"name": "tokenSupplyInSlot",
			"outputs": [
				{
					"internalType": "uint256",
					"name": "",
					"type": "uint256"
				}
			],
			"stateMutability": "view",
			"type": "function"
		},
		{
			"inputs": [
				{
					"internalType": "uint256",
					"name": "tokenId_",
					"type": "uint256"
				}
			],
			"name": "tokenURI",
			"outputs": [
				{
					"internalType": "string",
					"name": "",
					"type": "string"
				}
			],
			"stateMutability": "view",
			"type": "function"
		},
		{
			"inputs": [],
			"name": "totalSupply",
			"outputs": [
				{
					"internalType": "uint256",
					"name": "",
					"type": "uint256"
				}
			],
			"stateMutability": "view",
			"type": "function"
		},
		{
			"inputs": [
				{
					"internalType": "uint256",
					"name": "fromTokenId_",
					"type": "uint256"
				},
				{
					"internalType": "address",
					"name": "to_",
					"type": "address"
				},
				{
					"internalType": "uint256",
					"name": "value_",
					"type": "uint256"
				}
			],
			"name": "transferFrom",
			"outputs": [
				{
					"internalType": "uint256",
					"name": "newTokenId",
					"type": "uint256"
				}
			],
			"stateMutability": "payable",
			"type": "function"
		},
		{
			"inputs": [
				{
					"internalType": "address",
					"name": "from_",
					"type": "address"
				},
				{
					"internalType": "address",
					"name": "to_",
					"type": "address"
				},
				{
					"internalType": "uint256",
					"name": "tokenId_",
					"type": "uint256"
				}
			],
			"name": "transferFrom",
			"outputs": [],
			"stateMutability": "payable",
			"type": "function"
		},
		{
			"inputs": [
				{
					"internalType": "uint256",
					"name": "fromTokenId_",
					"type": "uint256"
				},
				{
					"internalType": "uint256",
					"name": "toTokenId_",
					"type": "uint256"
				},
				{
					"internalType": "uint256",
					"name": "value_",
					"type": "uint256"
				}
			],
			"name": "transferFrom",
			"outputs": [],
			"stateMutability": "payable",
			"type": "function"
		},
		{
			"inputs": [
				{
					"internalType": "address",
					"name": "newOwner",
					"type": "address"
				}
			],
			"name": "transferOwnership",
			"outputs": [],
			"stateMutability": "nonpayable",
			"type": "function"
		},
		{
			"inputs": [],
			"name": "valueDecimals",
			"outputs": [
				{
					"internalType": "uint8",
					"name": "",
					"type": "uint8"
				}
			],
			"stateMutability": "view",
			"type": "function"
		}
	]
}