{
	"data": {
		"bytecode": {
			"linkReferences": {},
			"object": "608060405234801562000010575f80fd5b5060405162003d3238038062003d328339810160408190526200003391620001d3565b600160035582828260128282828282825f620000508482620002e1565b5060016200005f8382620002e1565b506002805460ff191660ff929092169190911790555050506001600160a01b0386169450620000ac935050505057604051631e4fbdf760e01b81525f600482015260240160405180910390fd5b620000b781620000c1565b50505050620003ad565b600d80546001600160a01b038381166001600160a01b0319831681179093556040519116919082907f8be0079c531659141344cd1fd0a4f28419497f9722a3daafe3b4186f6b6457e0905f90a35050565b634e487b7160e01b5f52604160045260245ffd5b5f82601f83011262000136575f80fd5b81516001600160401b038082111562000153576200015362000112565b604051601f8301601f19908116603f011681019082821181831017156200017e576200017e62000112565b81604052838152602092508660208588010111156200019b575f80fd5b5f91505b83821015620001be57858201830151818301840152908201906200019f565b5f602085830101528094505050505092915050565b5f805f60608486031215620001e6575f80fd5b83516001600160a01b0381168114620001fd575f80fd5b60208501519093506001600160401b03808211156200021a575f80fd5b620002288783880162000126565b935060408601519150808211156200023e575f80fd5b506200024d8682870162000126565b9150509250925092565b600181811c908216806200026c57607f821691505b6020821081036200028b57634e487b7160e01b5f52602260045260245ffd5b50919050565b601f821115620002dc57805f5260205f20601f840160051c81016020851015620002b85750805b601f840160051c820191505b81811015620002d9575f8155600101620002c4565b50505b505050565b81516001600160401b03811115620002fd57620002fd62000112565b62000315816200030e845462000257565b8462000291565b602080601f8311600181146200034b575f8415620003335750858301515b5f19600386901b1c1916600185901b178555620003a5565b5f85815260208120601f198616915b828110156200037b578886015182559484019460019091019084016200035a565b50858210156200039957878501515f19600388901b60f8161c191681555b505060018460011b0185555b505050505050565b61397780620003bb5f395ff3fe608060405260043610610227575f3560e01c80636352211e11610129578063a22cb465116100a8578063e8a3d4851161006d578063e8a3d4851461062c578063e985e9c514610640578063ed08fa801461068b578063f0e88e7f1461069f578063f2fde38b146106be575f80fd5b8063a22cb4651461056d578063b88d4fde1461058c578063c87b56dd1461059f578063e345e0bc146105be578063e345f05e146105dd575f80fd5b80638cb0a511116100ee5780638cb0a511146104eb5780638da5cb5b146104fe57806395d89b411461051b578063993bef8d1461052f5780639cc7f7081461054e575f80fd5b80636352211e146104665780636c0360eb1461048557806370a0823114610499578063715018a6146104b8578063840f7113146104cc575f80fd5b806323b872dd116101b557806342842e0e1161017a57806342842e0e146103e35780634f6ccce7146103f65780634f8a0f831461041557806355cd4e061461043457806355f804b314610447575f80fd5b806323b872dd1461035e578063263f3e7e146103715780632f745c5914610390578063310ed7f0146103af5780633e7e8669146103c2575f80fd5b8063095ea7b3116101fb578063095ea7b3146102e457806309c3dd87146102f95780630f485c0214610318578063156e29f61461032b57806318160ddd1461034a575f80fd5b8062cd01101461022b57806301ffc9a71461025d57806306fdde031461028c578063081812fc146102ad575b5f80fd5b348015610236575f80fd5b5061024a6102453660046130ba565b6106dd565b6040519081526020015b60405180910390f35b348015610268575f80fd5b5061027c6102773660046130ef565b6107ad565b6040519015158152602001610254565b348015610297575f80fd5b506102a06107d1565b6040516102549190613157565b3480156102b8575f80fd5b506102cc6102c7366004613169565b610860565b6040516001600160a01b039091168152602001610254565b6102f76102f2366004613196565b6108af565b005b348015610304575f80fd5b506102a0610313366004613169565b6109a7565b61024a6103263660046131be565b610a85565b348015610336575f80fd5b506102f76103453660046131f0565b610a99565b348015610355575f80fd5b5060055461024a565b6102f761036c366004613220565b610aac565b34801561037c575f80fd5b5061024a61038b366004613169565b610ae2565b34801561039b575f80fd5b5061024a6103aa366004613196565b610b26565b6102f76103bd366004613249565b610bb2565b3480156103cd575f80fd5b5060025460405160ff9091168152602001610254565b6102f76103f1366004613220565b610bbd565b348015610401575f80fd5b5061024a610410366004613169565b610bd7565b348015610420575f80fd5b5061024a61042f366004613169565b610c64565b6102f761044236600461327f565b610cb5565b348015610452575f80fd5b506102f7610461366004613372565b610d4f565b348015610471575f80fd5b506102cc610480366004613169565b610d67565b348015610490575f80fd5b506102a0610e00565b3480156104a4575f80fd5b5061024a6104b33660046133b7565b610e8c565b3480156104c3575f80fd5b506102f7610f12565b3480156104d7575f80fd5b506008546102cc906001600160a01b031681565b6102f76104f93660046131be565b610f25565b348015610509575f80fd5b50600d546001600160a01b03166102cc565b348015610526575f80fd5b506102a0610fdd565b34801561053a575f80fd5b5061024a610549366004613169565b610fec565b348015610559575f80fd5b5061024a610568366004613169565b611085565b348015610578575f80fd5b506102f76105873660046133d0565b6110c9565b6102f761059a366004613405565b6110d4565b3480156105aa575f80fd5b506102a06105b9366004613169565b611106565b3480156105c9575f80fd5b5061024a6105d836600461347c565b611195565b3480156105e8575f80fd5b5061027c6105f73660046134a6565b6001600160a01b039283165f908152600c60209081526040808320948352938152838220929094168152925290205460ff1690565b348015610637575f80fd5b506102a06111c7565b34801561064b575f80fd5b5061027c61065a3660046134df565b6001600160a01b039182165f9081526007602090815260408083209390941682526002909201909152205460ff1690565b348015610696575f80fd5b50600a5461024a565b3480156106aa575f80fd5b506102f76106b93660046130ba565b6112ac565b3480156106c9575f80fd5b506102f76106d83660046133b7565b6112be565b5f6106e783610c64565b82106107585760405162461bcd60e51b815260206004820152603560248201527f45524333353235536c6f74456e756d657261626c653a20736c6f7420746f6b656044820152746e20696e646578206f7574206f6620626f756e647360581b60648201526084015b60405180910390fd5b5f838152600b6020526040902054600a8054909190811061077b5761077b613507565b905f5260205f209060020201600101828154811061079b5761079b613507565b905f5260205f20015490505b92915050565b5f6001600160e01b031982166316d117cb60e31b14806107a757506107a7826112fb565b60605f80546107df9061351b565b80601f016020809104026020016040519081016040528092919081815260200182805461080b9061351b565b80156108565780601f1061082d57610100808354040283529160200191610856565b820191905f5260205f20905b81548152906001019060200180831161083957829003601f168201915b5050505050905090565b5f61086a8261131f565b5f8281526006602052604090205460058054909190811061088d5761088d613507565b5f9182526020909120600460069092020101546001600160a01b031692915050565b5f6108b982610d67565b90505f6108c583610ae2565b9050816001600160a01b0316846001600160a01b0316036108f85760405162461bcd60e51b815260040161074f90613553565b336001600160a01b03831614806109145750610914823361065a565b8061092557506109258282336105f7565b6109975760405162461bcd60e51b815260206004820152603e60248201527f455243333532353a20617070726f76652063616c6c6572206973206e6f74206f60448201527f776e6572206e6f7220617070726f76656420666f7220616c6c2f736c6f740000606482015260840161074f565b6109a18484611370565b50505050565b60605f6109b2611405565b6008549091506001600160a01b0316610a10575f8151116109e15760405180602001604052805f815250610a7e565b806109eb84611414565b6040516020016109fc929190613595565b604051602081830303815290604052610a7e565b600854604051633601bfc560e11b8152600481018590526001600160a01b0390911690636c037f8a906024015b5f60405180830381865afa158015610a57573d5f803e3d5ffd5b505050506040513d5f823e601f3d908101601f19168201604052610a7e91908101906135d4565b9392505050565b5f610a918484846114a4565b949350505050565b610aa16114da565b6109a1838383611507565b610ab6338261151e565b610ad25760405162461bcd60e51b815260040161074f9061363d565b610add8383836115c9565b505050565b5f610aec8261131f565b5f82815260066020526040902054600580549091908110610b0f57610b0f613507565b905f5260205f209060060201600101549050919050565b5f610b3083610e8c565b8210610b895760405162461bcd60e51b815260206004820152602260248201527f455243333532353a206f776e657220696e646578206f7574206f6620626f756e604482015261647360f01b606482015260840161074f565b6001600160a01b0383165f90815260076020526040902080548390811061079b5761079b613507565b610add838383611745565b610add83838360405180602001604052805f8152506110d4565b5f610be160055490565b8210610c3b5760405162461bcd60e51b815260206004820152602360248201527f455243333532353a20676c6f62616c20696e646578206f7574206f6620626f756044820152626e647360e81b606482015260840161074f565b60058281548110610c4e57610c4e613507565b905f5260205f2090600602015f01549050919050565b5f610c6e8261175b565b610c7957505f919050565b5f828152600b6020526040902054600a80549091908110610c9c57610c9c613507565b5f91825260209091206001600290920201015492915050565b336001600160a01b0385161480610cd15750610cd1843361065a565b610d435760405162461bcd60e51b815260206004820152603f60248201527f45524333353235536c6f74417070726f7661626c653a2063616c6c657220697360448201527f206e6f74206f776e6572206e6f7220617070726f76656420666f7220616c6c00606482015260840161074f565b6109a1848484846117a2565b610d576114da565b600e610d6382826136d3565b5050565b5f610d718261131f565b5f82815260066020526040902054600580549091908110610d9457610d94613507565b5f9182526020909120600360069092020101546001600160a01b0316905080610dfb5760405162461bcd60e51b8152602060048201526019602482015278115490cccd4c8d4e881a5b9d985b1a59081d1bdad95b881251603a1b604482015260640161074f565b919050565b600e8054610e0d9061351b565b80601f0160208091040260200160405190810160405280929190818152602001828054610e399061351b565b8015610e845780601f10610e5b57610100808354040283529160200191610e84565b820191905f5260205f20905b815481529060010190602001808311610e6757829003601f168201915b505050505081565b5f6001600160a01b038216610ef75760405162461bcd60e51b815260206004820152602b60248201527f455243333532353a2062616c616e636520717565727920666f7220746865207a60448201526a65726f206164647265737360a81b606482015260840161074f565b506001600160a01b03165f9081526007602052604090205490565b610f1a6114da565b610f235f61188b565b565b5f610f2f84610d67565b9050806001600160a01b0316836001600160a01b031603610f625760405162461bcd60e51b815260040161074f90613553565b610f6c338561151e565b610fd25760405162461bcd60e51b815260206004820152603160248201527f455243333532353a20617070726f76652063616c6c6572206973206e6f74206f6044820152701ddb995c881b9bdc88185c1c1c9bdd9959607a1b606482015260840161074f565b6109a18484846118dc565b6060600180546107df9061351b565b5f610ff6600a5490565b821061105c5760405162461bcd60e51b815260206004820152602f60248201527f45524333353235536c6f74456e756d657261626c653a20736c6f7420696e646560448201526e78206f7574206f6620626f756e647360881b606482015260840161074f565b600a828154811061106f5761106f613507565b905f5260205f2090600202015f01549050919050565b5f61108f8261131f565b5f828152600660205260409020546005805490919081106110b2576110b2613507565b905f5260205f209060060201600201549050919050565b610d63338383611a11565b6110de338361151e565b6110fa5760405162461bcd60e51b815260040161074f9061363d565b6109a184848484611ada565b60606111118261131f565b5f61111a611405565b6008549091506001600160a01b0316611164575f8151116111495760405180602001604052805f815250610a7e565b8061115384611414565b6040516020016109fc92919061378f565b6008546040516344a5a61760e11b8152600481018590526001600160a01b039091169063894b4c2e90602401610a3d565b5f61119f8361131f565b505f9182526004602090815260408084206001600160a01b0393909316845291905290205490565b60605f6111d2611405565b6008549091506001600160a01b0316611230575f8151116112015760405180602001604052805f8152506112a6565b8061120b30611b4d565b60405160200161121c9291906137bd565b6040516020818303038152906040526112a6565b60085f9054906101000a90046001600160a01b03166001600160a01b031663725fa09c6040518163ffffffff1660e01b81526004015f60405180830381865afa15801561127f573d5f803e3d5ffd5b505050506040513d5f823e601f3d908101601f191682016040526112a691908101906135d4565b91505090565b6112b46114da565b610d638282611b63565b6112c66114da565b6001600160a01b0381166112ef57604051631e4fbdf760e01b81525f600482015260240161074f565b6112f88161188b565b50565b5f6001600160e01b03198216631dba0dcf60e11b14806107a757506107a782611ba1565b61132881611c42565b6112f85760405162461bcd60e51b8152602060048201526019602482015278115490cccd4c8d4e881a5b9d985b1a59081d1bdad95b881251603a1b604482015260640161074f565b5f8181526006602052604090205460058054849290811061139357611393613507565b5f918252602090912060069091020160040180546001600160a01b0319166001600160a01b03928316179055819083166113cc82610d67565b6001600160a01b03167f8c5be1e5ebec7d5bd14f71427d1e84f3dd0314c0f7b2291e5b200ac8c7c3b92560405160405180910390a45050565b6060600e80546107df9061351b565b60605f61142083611c89565b60010190505f8167ffffffffffffffff81111561143f5761143f6132cb565b6040519080825280601f01601f191660200182016040528015611469576020820181803683370190505b5090508181016020015b5f19016f181899199a1a9b1b9c1cb0b131b232b360811b600a86061a8153600a850494508461147357509392505050565b5f6114b0338584611d60565b6114b984611dee565b90506114cf83826114c987610ae2565b5f611df7565b610a7e848284611f37565b600d546001600160a01b03163314610f235760405163118cdaa760e01b815233600482015260240161074f565b5f611510612273565b9050610a7e84828585611df7565b5f6115288261131f565b5f61153283610d67565b90505f61153e84610ae2565b9050816001600160a01b0316856001600160a01b031614806115795750846001600160a01b031661156e85610860565b6001600160a01b0316145b806115895750611589828661065a565b806115c057506001600160a01b038083165f908152600c6020908152604080832085845282528083209389168352929052205460ff165b95945050505050565b826001600160a01b03166115dc82610d67565b6001600160a01b03161461163e5760405162461bcd60e51b8152602060048201526024808201527f455243333532353a207472616e736665722066726f6d20696e76616c6964206f6044820152633bb732b960e11b606482015260840161074f565b6001600160a01b0382166116a25760405162461bcd60e51b815260206004820152602560248201527f455243333532353a207472616e7366657220746f20746865207a65726f206164604482015264647265737360d81b606482015260840161074f565b5f6116ac82610ae2565b90505f6116b883611085565b90506116c885858586868661228c565b6116d25f84611370565b6116db836122c9565b6116e58584612365565b6116ef8484612478565b82846001600160a01b0316866001600160a01b03167fddf252ad1be2c89b69c2b068fc378daa952ba7f163c4a11628f55a4df523b3ef60405160405180910390a461173e8585858686866124ff565b5050505050565b611750338483611d60565b610add838383611f37565b600a545f90158015906107a757505f828152600b6020526040902054600a8054849290811061178c5761178c613507565b905f5260205f2090600202015f01541492915050565b816001600160a01b0316846001600160a01b0316036118135760405162461bcd60e51b815260206004820152602760248201527f45524333353235536c6f74417070726f7661626c653a20617070726f76652074604482015266379037bbb732b960c91b606482015260840161074f565b6001600160a01b038481165f818152600c60209081526040808320888452825280832094871680845294825291829020805460ff191686151590811790915591519182528692917f7bdf71e6625aa496095bf08b60c677cf81c963f402cf258981e3bd7507d3480c910160405180910390a450505050565b600d80546001600160a01b038381166001600160a01b0319831681179093556040519116919082907f8be0079c531659141344cd1fd0a4f28419497f9722a3daafe3b4186f6b6457e0905f90a35050565b6001600160a01b0382166119455760405162461bcd60e51b815260206004820152602a60248201527f455243333532353a20617070726f76652076616c756520746f20746865207a65604482015269726f206164647265737360b01b606482015260840161074f565b61194f8284612570565b6119b3575f8381526006602052604090205460058054909190811061197657611976613507565b5f9182526020808320600692909202909101600501805460018101825590835291200180546001600160a01b0319166001600160a01b0384161790555b5f8381526004602090815260408083206001600160a01b038616808552908352928190208490555183815285917f621b050de0ad08b51d19b48b3e6df75348c4de6bdd93e81b252ca62e28265b1b91015b60405180910390a3505050565b816001600160a01b0316836001600160a01b031603611a725760405162461bcd60e51b815260206004820152601a60248201527f455243333532353a20617070726f766520746f2063616c6c6572000000000000604482015260640161074f565b6001600160a01b038381165f8181526007602090815260408083209487168084526002909501825291829020805460ff191686151590811790915591519182527f17307eab39ab6107e8899845ad3d59bd9653f200f220920489ca2b5937696c319101611a04565b611ae58484846115c9565b611af184848484612632565b6109a15760405162461bcd60e51b815260206004820152602760248201527f455243333532353a207472616e7366657220746f206e6f6e204552433732315260448201526632b1b2b4bb32b960c91b606482015260840161074f565b60606107a76001600160a01b0383166014612777565b5f611b6d83610d67565b90505f611b7984610ae2565b9050611b895f835f87858861228c565b611b9384846128e9565b6109a15f835f8785886124ff565b5f6001600160e01b031982166301ffc9a760e01b1480611bd157506001600160e01b03198216630354d60560e61b145b80611bec57506001600160e01b031982166380ac58cd60e01b145b80611c0757506001600160e01b031982166370b0048160e11b145b80611c2257506001600160e01b0319821663780e9d6360e01b145b806107a757506001600160e01b03198216635b5e139f60e01b1492915050565b6005545f90158015906107a757505f82815260066020526040902054600580548492908110611c7357611c73613507565b905f5260205f2090600602015f01541492915050565b5f8072184f03e93ff9f4daa797ed6e38ed64bf6a1f0160401b8310611cc75772184f03e93ff9f4daa797ed6e38ed64bf6a1f0160401b830492506040015b6d04ee2d6d415b85acef81000000008310611cf3576d04ee2d6d415b85acef8100000000830492506020015b662386f26fc100008310611d1157662386f26fc10000830492506010015b6305f5e1008310611d29576305f5e100830492506008015b6127108310611d3d57612710830492506004015b60648310611d4f576064830492506002015b600a83106107a75760010192915050565b5f611d6b8385611195565b9050611d77848461151e565b158015611d8557505f198114155b156109a15781811015611dda5760405162461bcd60e51b815260206004820152601f60248201527f455243333532353a20696e73756666696369656e7420616c6c6f77616e636500604482015260640161074f565b6109a18385611de98585613814565b6118dc565b5f6107a7612273565b6001600160a01b038416611e575760405162461bcd60e51b815260206004820152602160248201527f455243333532353a206d696e7420746f20746865207a65726f206164647265736044820152607360f81b606482015260840161074f565b825f03611eb05760405162461bcd60e51b815260206004820152602160248201527f455243333532353a2063616e6e6f74206d696e74207a65726f20746f6b656e496044820152601960fa1b606482015260840161074f565b611eb983611c42565b15611f065760405162461bcd60e51b815260206004820152601d60248201527f455243333532353a20746f6b656e20616c7265616479206d696e746564000000604482015260640161074f565b611f145f855f86868661228c565b611f1f848484612969565b611f2983826128e9565b6109a15f855f8686866124ff565b611f4083611c42565b611f9c5760405162461bcd60e51b815260206004820152602760248201527f455243333532353a207472616e736665722066726f6d20696e76616c696420746044820152661bdad95b88125160ca1b606482015260840161074f565b611fa582611c42565b611fff5760405162461bcd60e51b815260206004820152602560248201527f455243333532353a207472616e7366657220746f20696e76616c696420746f6b604482015264195b88125160da1b606482015260840161074f565b5f8381526006602052604081205460058054909190811061202257612022613507565b905f5260205f20906006020190505f600560065f8681526020019081526020015f20548154811061205557612055613507565b905f5260205f209060060201905082826002015410156120ca5760405162461bcd60e51b815260206004820152602a60248201527f455243333532353a20696e73756666696369656e742062616c616e636520666f60448201526939103a3930b739b332b960b11b606482015260840161074f565b80600101548260010154146121385760405162461bcd60e51b815260206004820152602e60248201527f455243333532353a207472616e7366657220746f20746f6b656e20776974682060448201526d191a5999995c995b9d081cdb1bdd60921b606482015260840161074f565b600380830154908201546001840154612163926001600160a01b03908116921690889088908861228c565b82826002015f8282546121769190613814565b9250508190555082816002015f8282546121909190613827565b9091555050604051838152849086907f0b2aac84f3ec956911fd78eae5311062972ff949f38412e8da39069d9f068cc69060200160405180910390a36003808301549082015460018401546121f7926001600160a01b0390811692169088908890886124ff565b61221185858560405180602001604052805f815250612a2c565b61173e5760405162461bcd60e51b815260206004820152602d60248201527f455243333532353a207472616e736665722072656a656374656420627920455260448201526c21999a991aa932b1b2b4bb32b960991b606482015260840161074f565b600380545f91826122838361383a565b91905055905090565b6001600160a01b0386161580156122a1575083155b80156122b357506122b18261175b565b155b156122c1576122c182612b96565b505050505050565b5f818152600660205260408120546005805490919081106122ec576122ec613507565b5f91825260208220600560069092020190810154909250905b81811015612357575f83600501828154811061232357612323613507565b5f9182526020808320909101548783526004825260408084206001600160a01b039092168452915281205550600101612305565b50610add600583015f612fef565b5f8181526006602052604081205460058054909190811061238857612388613507565b5f918252602080832060069290920290910160030180546001600160a01b0319166001600160a01b03948516179055918416815260079091526040812080549091906123d690600190613814565b90505f825f0182815481106123ed576123ed613507565b905f5260205f20015490505f836001015f8681526020019081526020015f2054905081845f01828154811061242457612424613507565b5f918252602080832090910192909255838152600186019091526040808220839055868252812055835484908061245d5761245d613852565b600190038181905f5260205f20015f90559055505050505050565b5f8181526006602052604090205460058054849290811061249b5761249b613507565b5f918252602080832060069290920290910160030180546001600160a01b0319166001600160a01b03948516179055939091168152600780845260408083208054858552600182810188529285208190559286529082018155825292902090910155565b6001600160a01b038616158015612514575083155b801561252757506125258284612c5b565b155b1561253b576125368284612cdf565b6122c1565b6001600160a01b038516158015612550575082155b801561256157506125618285612c5b565b15612536576125368285612d3e565b5f8181526006602052604081205460058054839290811061259357612593613507565b5f918252602082206005600690920201015491505b81811015612628575f84815260066020526040902054600580546001600160a01b038816929081106125dc576125dc613507565b905f5260205f20906006020160050182815481106125fc576125fc613507565b5f918252602090912001546001600160a01b031603612620576001925050506107a7565b6001016125a8565b505f949350505050565b5f833b63ffffffff161561276c57604051630a85bd0160e11b81526001600160a01b0385169063150b7a0290612672903390899088908890600401613866565b6020604051808303815f875af19250505080156126ac575060408051601f3d908101601f191682019092526126a9918101906138a2565b60015b612752573d8080156126d9576040519150601f19603f3d011682016040523d82523d5f602084013e6126de565b606091505b5080515f0361274a5760405162461bcd60e51b815260206004820152603260248201527f4552433732313a207472616e7366657220746f206e6f6e20455243373231526560448201527131b2b4bb32b91034b6b83632b6b2b73a32b960711b606482015260840161074f565b805181602001fd5b6001600160e01b031916630a85bd0160e11b149050610a91565b506001949350505050565b6060825f6127868460026138bd565b612791906002613827565b67ffffffffffffffff8111156127a9576127a96132cb565b6040519080825280601f01601f1916602001820160405280156127d3576020820181803683370190505b509050600360fc1b815f815181106127ed576127ed613507565b60200101906001600160f81b03191690815f1a905350600f60fb1b8160018151811061281b5761281b613507565b60200101906001600160f81b03191690815f1a9053505f61283d8560026138bd565b612848906001613827565b90505b60018111156128bf576f181899199a1a9b1b9c1cb0b131b232b360811b83600f166010811061287c5761287c613507565b1a60f81b82828151811061289257612892613507565b60200101906001600160f81b03191690815f1a90535060049290921c916128b8816138d4565b905061284b565b508115610a915760405163e22e27eb60e01b8152600481018690526024810185905260440161074f565b5f8281526006602052604090205460058054839290811061290c5761290c613507565b905f5260205f2090600602016002015f8282546129299190613827565b909155505060405181815282905f907f0b2aac84f3ec956911fd78eae5311062972ff949f38412e8da39069d9f068cc69060200160405180910390a35050565b6040805160c08101825283815260208082018490525f8284018190526001600160a01b038716606084015260808301819052835181815291820190935260a082015290506129b681612e1d565b6129c08484612478565b60405183906001600160a01b038616905f907fddf252ad1be2c89b69c2b068fc378daa952ba7f163c4a11628f55a4df523b3ef908290a4815f847fe4f48c240d3b994948aa54f3e2f5fca59263dfe1d52b6e4cf39a5d249b5ccb6560405160405180910390a450505050565b5f80612a3785610d67565b9050803b63ffffffff1615612b8c576040516301ffc9a760e01b8152629ce20b60e01b60048201526001600160a01b038216906301ffc9a790602401602060405180830381865afa925050508015612aac575060408051601f3d908101601f19168201909252612aa9918101906138e9565b60015b612aea573d808015612ad9576040519150601f19603f3d011682016040523d82523d5f602084013e612ade565b606091505b50600192505050610a91565b8015612b8157604051629ce20b60e01b81525f906001600160a01b03841690629ce20b90612b249033908c908c908c908c90600401613904565b6020604051808303815f875af1158015612b40573d5f803e3d5ffd5b505050506040513d601f19601f82011682018060405250810190612b6491906138a2565b6001600160e01b031916629ce20b60e01b149350610a9192505050565b600192505050610a91565b6001915050610a91565b612b9f8161175b565b15612bff5760405162461bcd60e51b815260206004820152602a60248201527f45524333353235536c6f74456e756d657261626c653a20736c6f7420616c72656044820152696164792065786973747360b01b606482015260840161074f565b60408051808201825282815281515f8082526020828101909452928201529050612c2881612f6b565b815f807fe4f48c240d3b994948aa54f3e2f5fca59263dfe1d52b6e4cf39a5d249b5ccb6560405160405180910390a45050565b5f828152600b6020526040812054600a80548392908110612c7e57612c7e613507565b905f5260205f20906002020190505f8160010180549050118015610a9157505f8481526009602090815260408083208684529091529020546001820180548592908110612ccd57612ccd613507565b905f5260205f20015414949350505050565b5f828152600b6020526040812054600a80549091908110612d0257612d02613507565b5f918252602080832060016002909302018201805496845260098252604080852087865283528420879055918601825590825290209092015550565b5f828152600b6020526040812054600a80549091908110612d6157612d61613507565b5f91825260208220600160029092020181810154909350612d829190613814565b90505f826001018281548110612d9a57612d9a613507565b5f918252602080832090910154878352600982526040808420888552909252912054600185018054929350909183919083908110612dda57612dda613507565b5f91825260208083209190910192909255878152600982526040808220858352909252818120839055868152908120556001840180548061245d5761245d613852565b6005805482515f90815260066020818152604080842085905560018501865594909252845192027f036b6384b5eca791c62761152d0c79bb0604c104a5fb6f4eb0703f3154bb3db08101928355818501517f036b6384b5eca791c62761152d0c79bb0604c104a5fb6f4eb0703f3154bb3db1820155928401517f036b6384b5eca791c62761152d0c79bb0604c104a5fb6f4eb0703f3154bb3db284015560608401517f036b6384b5eca791c62761152d0c79bb0604c104a5fb6f4eb0703f3154bb3db3840180546001600160a01b039283166001600160a01b03199182161790915560808601517f036b6384b5eca791c62761152d0c79bb0604c104a5fb6f4eb0703f3154bb3db48601805491909316911617905560a0840151805185946109a1937f036b6384b5eca791c62761152d0c79bb0604c104a5fb6f4eb0703f3154bb3db590910192019061300a565b600a805482515f908152600b602090815260408220839055600183018455929052825160029091027fc65a7bb8d6351c1cf70c95a316cc6a92839c986682d98bc35f958f4883f9d2a8810191825582840151805185946109a1937fc65a7bb8d6351c1cf70c95a316cc6a92839c986682d98bc35f958f4883f9d2a90192019061306d565b5080545f8255905f5260205f20908101906112f891906130a6565b828054828255905f5260205f2090810192821561305d579160200282015b8281111561305d57825182546001600160a01b0319166001600160a01b03909116178255602090920191600190910190613028565b506130699291506130a6565b5090565b828054828255905f5260205f2090810192821561305d579160200282015b8281111561305d57825182559160200191906001019061308b565b5b80821115613069575f81556001016130a7565b5f80604083850312156130cb575f80fd5b50508035926020909101359150565b6001600160e01b0319811681146112f8575f80fd5b5f602082840312156130ff575f80fd5b8135610a7e816130da565b5f5b8381101561312457818101518382015260200161310c565b50505f910152565b5f815180845261314381602086016020860161310a565b601f01601f19169290920160200192915050565b602081525f610a7e602083018461312c565b5f60208284031215613179575f80fd5b5035919050565b80356001600160a01b0381168114610dfb575f80fd5b5f80604083850312156131a7575f80fd5b6131b083613180565b946020939093013593505050565b5f805f606084860312156131d0575f80fd5b833592506131e060208501613180565b9150604084013590509250925092565b5f805f60608486031215613202575f80fd5b61320b84613180565b95602085013595506040909401359392505050565b5f805f60608486031215613232575f80fd5b61323b84613180565b92506131e060208501613180565b5f805f6060848603121561325b575f80fd5b505081359360208301359350604090920135919050565b80151581146112f8575f80fd5b5f805f8060808587031215613292575f80fd5b61329b85613180565b9350602085013592506132b060408601613180565b915060608501356132c081613272565b939692955090935050565b634e487b7160e01b5f52604160045260245ffd5b604051601f8201601f1916810167ffffffffffffffff81118282101715613308576133086132cb565b604052919050565b5f67ffffffffffffffff821115613329576133296132cb565b50601f01601f191660200190565b5f61334961334484613310565b6132df565b905082815283838301111561335c575f80fd5b828260208301375f602084830101529392505050565b5f60208284031215613382575f80fd5b813567ffffffffffffffff811115613398575f80fd5b8201601f810184136133a8575f80fd5b610a9184823560208401613337565b5f602082840312156133c7575f80fd5b610a7e82613180565b5f80604083850312156133e1575f80fd5b6133ea83613180565b915060208301356133fa81613272565b809150509250929050565b5f805f8060808587031215613418575f80fd5b61342185613180565b935061342f60208601613180565b925060408501359150606085013567ffffffffffffffff811115613451575f80fd5b8501601f81018713613461575f80fd5b61347087823560208401613337565b91505092959194509250565b5f806040838503121561348d575f80fd5b8235915061349d60208401613180565b90509250929050565b5f805f606084860312156134b8575f80fd5b6134c184613180565b9250602084013591506134d660408501613180565b90509250925092565b5f80604083850312156134f0575f80fd5b6134f983613180565b915061349d60208401613180565b634e487b7160e01b5f52603260045260245ffd5b600181811c9082168061352f57607f821691505b60208210810361354d57634e487b7160e01b5f52602260045260245ffd5b50919050565b60208082526022908201527f455243333532353a20617070726f76616c20746f2063757272656e74206f776e60408201526132b960f11b606082015260800190565b5f83516135a681846020880161310a565b64736c6f742f60d81b90830190815283516135c881600584016020880161310a565b01600501949350505050565b5f602082840312156135e4575f80fd5b815167ffffffffffffffff8111156135fa575f80fd5b8201601f8101841361360a575f80fd5b805161361861334482613310565b81815285602083850101111561362c575f80fd5b6115c082602083016020860161310a565b60208082526032908201527f455243333532353a207472616e736665722063616c6c6572206973206e6f74206040820152711bdddb995c881b9bdc88185c1c1c9bdd995960721b606082015260800190565b601f821115610add57805f5260205f20601f840160051c810160208510156136b45750805b601f840160051c820191505b8181101561173e575f81556001016136c0565b815167ffffffffffffffff8111156136ed576136ed6132cb565b613701816136fb845461351b565b8461368f565b602080601f831160018114613734575f841561371d5750858301515b5f19600386901b1c1916600185901b1785556122c1565b5f85815260208120601f198616915b8281101561376257888601518255948401946001909101908401613743565b508582101561377f57878501515f19600388901b60f8161c191681555b5050505050600190811b01905550565b5f83516137a081846020880161310a565b8351908301906137b481836020880161310a565b01949350505050565b5f83516137ce81846020880161310a565b68636f6e74726163742f60b81b90830190815283516137f481600984016020880161310a565b01600901949350505050565b634e487b7160e01b5f52601160045260245ffd5b818103818111156107a7576107a7613800565b808201808211156107a7576107a7613800565b5f6001820161384b5761384b613800565b5060010190565b634e487b7160e01b5f52603160045260245ffd5b6001600160a01b03858116825284166020820152604081018390526080606082018190525f906138989083018461312c565b9695505050505050565b5f602082840312156138b2575f80fd5b8151610a7e816130da565b80820281158282048414176107a7576107a7613800565b5f816138e2576138e2613800565b505f190190565b5f602082840312156138f9575f80fd5b8151610a7e81613272565b60018060a01b038616815284602082015283604082015282606082015260a060808201525f61393660a083018461312c565b97965050505050505056fea2646970667358221220c806865a1a6de3097182e700c715febf756e861035ab215aaf15f45a2629f28f64736f6c63430008160033",
			"opcodes": "PUSH1 0x80 PUSH1 0x40 MSTORE CALLVALUE DUP1 ISZERO PUSH3 0x10 JUMPI PUSH0 DUP1 REVERT JUMPDEST POP PUSH1 0x40 MLOAD PUSH3 0x3D32 CODESIZE SUB DUP1 PUSH3 0x3D32 DUP4 CODECOPY DUP2 ADD PUSH1 0x40 DUP2 SWAP1 MSTORE PUSH3 0x33 SWAP2 PUSH3 0x1D3 JUMP JUMPDEST PUSH1 0x1 PUSH1 0x3 SSTORE DUP3 DUP3 DUP3 PUSH1 0x12 DUP3 DUP3 DUP3 DUP3 DUP3 DUP3 PUSH0 PUSH3 0x50 DUP5 DUP3 PUSH3 0x2E1 JUMP JUMPDEST POP PUSH1 0x1 PUSH3 0x5F DUP4 DUP3 PUSH3 0x2E1 JUMP JUMPDEST POP PUSH1 0x2 DUP1 SLOAD PUSH1 0xFF NOT AND PUSH1 0xFF SWAP3 SWAP1 SWAP3 AND SWAP2 SWAP1 SWAP2 OR SWAP1 SSTORE POP POP POP PUSH1 0x1 PUSH1 0x1 PUSH1 0xA0 SHL SUB DUP7 AND SWAP5 POP PUSH3 0xAC SWAP4 POP POP POP POP JUMPI PUSH1 0x40 MLOAD PUSH4 0x1E4FBDF7 PUSH1 0xE0 SHL DUP2 MSTORE PUSH0 PUSH1 0x4 DUP3 ADD MSTORE PUSH1 0x24 ADD PUSH1 0x40 MLOAD DUP1 SWAP2 SUB SWAP1 REVERT JUMPDEST PUSH3 0xB7 DUP2 PUSH3 0xC1 JUMP JUMPDEST POP POP POP POP PUSH3 0x3AD JUMP JUMPDEST PUSH1 0xD DUP1 SLOAD PUSH1 0x1 PUSH1 0x1 PUSH1 0xA0 SHL SUB DUP4 DUP2 AND PUSH1 0x1 PUSH1 0x1 PUSH1 0xA0 SHL SUB NOT DUP4 AND DUP2 OR SWAP1 SWAP4 SSTORE PUSH1 0x40 MLOAD SWAP2 AND SWAP2 SWAP1 DUP3 SWAP1 PUSH32 0x8BE0079C531659141344CD1FD0A4F28419497F9722A3DAAFE3B4186F6B6457E0 SWAP1 PUSH0 SWAP1 LOG3 POP POP JUMP JUMPDEST PUSH4 0x4E487B71 PUSH1 0xE0 SHL PUSH0 MSTORE PUSH1 0x41 PUSH1 0x4 MSTORE PUSH1 0x24 PUSH0 REVERT JUMPDEST PUSH0 DUP3 PUSH1 0x1F DUP4 ADD SLT PUSH3 0x136 JUMPI PUSH0 DUP1 REVERT JUMPDEST DUP2 MLOAD PUSH1 0x1 PUSH1 0x1 PUSH1 0x40 SHL SUB DUP1 DUP3 GT ISZERO PUSH3 0x153 JUMPI PUSH3 0x153 PUSH3 0x112 JUMP JUMPDEST PUSH1 0x40 MLOAD PUSH1 0x1F DUP4 ADD PUSH1 0x1F NOT SWAP1 DUP2 AND PUSH1 0x3F ADD AND DUP2 ADD SWAP1 DUP3 DUP3 GT DUP2 DUP4 LT OR ISZERO PUSH3 0x17E JUMPI PUSH3 0x17E PUSH3 0x112 JUMP JUMPDEST DUP2 PUSH1 0x40 MSTORE DUP4 DUP2 MSTORE PUSH1 0x20 SWAP3 POP DUP7 PUSH1 0x20 DUP6 DUP9 ADD ADD GT ISZERO PUSH3 0x19B JUMPI PUSH0 DUP1 REVERT JUMPDEST PUSH0 SWAP2 POP JUMPDEST DUP4 DUP3 LT ISZERO PUSH3 0x1BE JUMPI DUP6 DUP3 ADD DUP4 ADD MLOAD DUP2 DUP4 ADD DUP5 ADD MSTORE SWAP1 DUP3 ADD SWAP1 PUSH3 0x19F JUMP JUMPDEST PUSH0 PUSH1 0x20 DUP6 DUP4 ADD ADD MSTORE DUP1 SWAP5 POP POP POP POP POP SWAP3 SWAP2 POP POP JUMP JUMPDEST PUSH0 DUP1 PUSH0 PUSH1 0x60 DUP5 DUP7 SUB SLT ISZERO PUSH3 0x1E6 JUMPI PUSH0 DUP1 REVERT JUMPDEST DUP4 MLOAD PUSH1 0x1 PUSH1 0x1 PUSH1 0xA0 SHL SUB DUP2 AND DUP2 EQ PUSH3 0x1FD JUMPI PUSH0 DUP1 REVERT JUMPDEST PUSH1 0x20 DUP6 ADD MLOAD SWAP1 SWAP4 POP PUSH1 0x1 PUSH1 0x1 PUSH1 0x40 SHL SUB DUP1 DUP3 GT ISZERO PUSH3 0x21A JUMPI PUSH0 DUP1 REVERT JUMPDEST PUSH3 0x228 DUP8 DUP4 DUP9 ADD PUSH3 0x126 JUMP JUMPDEST SWAP4 POP PUSH1 0x40 DUP7 ADD MLOAD SWAP2 POP DUP1 DUP3 GT ISZERO PUSH3 0x23E JUMPI PUSH0 DUP1 REVERT JUMPDEST POP PUSH3 0x24D DUP7 DUP3 DUP8 ADD PUSH3 0x126 JUMP JUMPDEST SWAP2 POP POP SWAP3 POP SWAP3 POP SWAP3 JUMP JUMPDEST PUSH1 0x1 DUP2 DUP2 SHR SWAP1 DUP3 AND DUP1 PUSH3 0x26C JUMPI PUSH1 0x7F DUP3 AND SWAP2 POP JUMPDEST PUSH1 0x20 DUP3 LT DUP2 SUB PUSH3 0x28B JUMPI PUSH4 0x4E487B71 PUSH1 0xE0 SHL PUSH0 MSTORE PUSH1 0x22 PUSH1 0x4 MSTORE PUSH1 0x24 PUSH0 REVERT JUMPDEST POP SWAP2 SWAP1 POP JUMP JUMPDEST PUSH1 0x1F DUP3 GT ISZERO PUSH3 0x2DC JUMPI DUP1 PUSH0 MSTORE PUSH1 0x20 PUSH0 KECCAK256 PUSH1 0x1F DUP5 ADD PUSH1 0x5 SHR DUP2 ADD PUSH1 0x20 DUP6 LT ISZERO PUSH3 0x2B8 JUMPI POP DUP1 JUMPDEST PUSH1 0x1F DUP5 ADD PUSH1 0x5 SHR DUP3 ADD SWAP2 POP JUMPDEST DUP2 DUP2 LT ISZERO PUSH3 0x2D9 JUMPI PUSH0 DUP2 SSTORE PUSH1 0x1 ADD PUSH3 0x2C4 JUMP JUMPDEST POP POP JUMPDEST POP POP POP JUMP JUMPDEST DUP2 MLOAD PUSH1 0x1 PUSH1 0x1 PUSH1 0x40 SHL SUB DUP2 GT ISZERO PUSH3 0x2FD JUMPI PUSH3 0x2FD PUSH3 0x112 JUMP JUMPDEST PUSH3 0x315 DUP2 PUSH3 0x30E DUP5 SLOAD PUSH3 0x257 JUMP JUMPDEST DUP5 PUSH3 0x291 JUMP JUMPDEST PUSH1 0x20 DUP1 PUSH1 0x1F DUP4 GT PUSH1 0x1 DUP2 EQ PUSH3 0x34B JUMPI PUSH0 DUP5 ISZERO PUSH3 0x333 JUMPI POP DUP6 DUP4 ADD MLOAD JUMPDEST PUSH0 NOT PUSH1 0x3 DUP7 SWAP1 SHL SHR NOT AND PUSH1 0x1 DUP6 SWAP1 SHL OR DUP6 SSTORE PUSH3 0x3A5 JUMP JUMPDEST PUSH0 DUP6 DUP2 MSTORE PUSH1 0x20 DUP2 KECCAK256 PUSH1 0x1F NOT DUP7 AND SWAP2 JUMPDEST DUP3 DUP2 LT ISZERO PUSH3 0x37B JUMPI DUP9 DUP7 ADD MLOAD DUP3 SSTORE SWAP5 DUP5 ADD SWAP5 PUSH1 0x1 SWAP1 SWAP2 ADD SWAP1 DUP5 ADD PUSH3 0x35A JUMP JUMPDEST POP DUP6 DUP3 LT ISZERO PUSH3 0x399 JUMPI DUP8 DUP6 ADD MLOAD PUSH0 NOT PUSH1 0x3 DUP9 SWAP1 SHL PUSH1 0xF8 AND SHR NOT AND DUP2 SSTORE JUMPDEST POP POP PUSH1 0x1 DUP5 PUSH1 0x1 SHL ADD DUP6 SSTORE JUMPDEST POP POP POP POP POP POP JUMP JUMPDEST PUSH2 0x3977 DUP1 PUSH3 0x3BB PUSH0 CODECOPY PUSH0 RETURN INVALID PUSH1 0x80 PUSH1 0x40 MSTORE PUSH1 0x4 CALLDATASIZE LT PUSH2 0x227 JUMPI PUSH0 CALLDATALOAD PUSH1 0xE0 SHR DUP1 PUSH4 0x6352211E GT PUSH2 0x129 JUMPI DUP1 PUSH4 0xA22CB465 GT PUSH2 0xA8 JUMPI DUP1 PUSH4 0xE8A3D485 GT PUSH2 0x6D JUMPI DUP1 PUSH4 0xE8A3D485 EQ PUSH2 0x62C JUMPI DUP1 PUSH4 0xE985E9C5 EQ PUSH2 0x640 JUMPI DUP1 PUSH4 0xED08FA80 EQ PUSH2 0x68B JUMPI DUP1 PUSH4 0xF0E88E7F EQ PUSH2 0x69F JUMPI DUP1 PUSH4 0xF2FDE38B EQ PUSH2 0x6BE JUMPI PUSH0 DUP1 REVERT JUMPDEST DUP1 PUSH4 0xA22CB465 EQ PUSH2 0x56D JUMPI DUP1 PUSH4 0xB88D4FDE EQ PUSH2 0x58C JUMPI DUP1 PUSH4 0xC87B56DD EQ PUSH2 0x59F JUMPI DUP1 PUSH4 0xE345E0BC EQ PUSH2 0x5BE JUMPI DUP1 PUSH4 0xE345F05E EQ PUSH2 0x5DD JUMPI PUSH0 DUP1 REVERT JUMPDEST DUP1 PUSH4 0x8CB0A511 GT PUSH2 0xEE JUMPI DUP1 PUSH4 0x8CB0A511 EQ PUSH2 0x4EB JUMPI DUP1 PUSH4 0x8DA5CB5B EQ PUSH2 0x4FE JUMPI DUP1 PUSH4 0x95D89B41 EQ PUSH2 0x51B JUMPI DUP1 PUSH4 0x993BEF8D EQ PUSH2 0x52F JUMPI DUP1 PUSH4 0x9CC7F708 EQ PUSH2 0x54E JUMPI PUSH0 DUP1 REVERT JUMPDEST DUP1 PUSH4 0x6352211E EQ PUSH2 0x466 JUMPI DUP1 PUSH4 0x6C0360EB EQ PUSH2 0x485 JUMPI DUP1 PUSH4 0x70A08231 EQ PUSH2 0x499 JUMPI DUP1 PUSH4 0x715018A6 EQ PUSH2 0x4B8 JUMPI DUP1 PUSH4 0x840F7113 EQ PUSH2 0x4CC JUMPI PUSH0 DUP1 REVERT JUMPDEST DUP1 PUSH4 0x23B872DD GT PUSH2 0x1B5 JUMPI DUP1 PUSH4 0x42842E0E GT PUSH2 0x17A JUMPI DUP1 PUSH4 0x42842E0E EQ PUSH2 0x3E3 JUMPI DUP1 PUSH4 0x4F6CCCE7 EQ PUSH2 0x3F6 JUMPI DUP1 PUSH4 0x4F8A0F83 EQ PUSH2 0x415 JUMPI DUP1 PUSH4 0x55CD4E06 EQ PUSH2 0x434 JUMPI DUP1 PUSH4 0x55F804B3 EQ PUSH2 0x447 JUMPI PUSH0 DUP1 REVERT JUMPDEST DUP1 PUSH4 0x23B872DD EQ PUSH2 0x35E JUMPI DUP1 PUSH4 0x263F3E7E EQ PUSH2 0x371 JUMPI DUP1 PUSH4 0x2F745C59 EQ PUSH2 0x390 JUMPI DUP1 PUSH4 0x310ED7F0 EQ PUSH2 0x3AF JUMPI DUP1 PUSH4 0x3E7E8669 EQ PUSH2 0x3C2 JUMPI PUSH0 DUP1 REVERT JUMPDEST DUP1 PUSH4 0x95EA7B3 GT PUSH2 0x1FB JUMPI DUP1 PUSH4 0x95EA7B3 EQ PUSH2 0x2E4 JUMPI DUP1 PUSH4 0x9C3DD87 EQ PUSH2 0x2F9 JUMPI DUP1 PUSH4 0xF485C02 EQ PUSH2 0x318 JUMPI DUP1 PUSH4 0x156E29F6 EQ PUSH2 0x32B JUMPI DUP1 PUSH4 0x18160DDD EQ PUSH2 0x34A JUMPI PUSH0 DUP1 REVERT JUMPDEST DUP1 PUSH3 0xCD0110 EQ PUSH2 0x22B JUMPI DUP1 PUSH4 0x1FFC9A7 EQ PUSH2 0x25D JUMPI DUP1 PUSH4 0x6FDDE03 EQ PUSH2 0x28C JUMPI DUP1 PUSH4 0x81812FC EQ PUSH2 0x2AD JUMPI JUMPDEST PUSH0 DUP1 REVERT JUMPDEST CALLVALUE DUP1 ISZERO PUSH2 0x236 JUMPI PUSH0 DUP1 REVERT JUMPDEST POP PUSH2 0x24A PUSH2 0x245 CALLDATASIZE PUSH1 0x4 PUSH2 0x30BA JUMP JUMPDEST PUSH2 0x6DD JUMP JUMPDEST PUSH1 0x40 MLOAD SWAP1 DUP2 MSTORE PUSH1 0x20 ADD JUMPDEST PUSH1 0x40 MLOAD DUP1 SWAP2 SUB SWAP1 RETURN JUMPDEST CALLVALUE DUP1 ISZERO PUSH2 0x268 JUMPI PUSH0 DUP1 REVERT JUMPDEST POP PUSH2 0x27C PUSH2 0x277 CALLDATASIZE PUSH1 0x4 PUSH2 0x30EF JUMP JUMPDEST PUSH2 0x7AD JUMP JUMPDEST PUSH1 0x40 MLOAD SWAP1 ISZERO ISZERO DUP2 MSTORE PUSH1 0x20 ADD PUSH2 0x254 JUMP JUMPDEST CALLVALUE DUP1 ISZERO PUSH2 0x297 JUMPI PUSH0 DUP1 REVERT JUMPDEST POP PUSH2 0x2A0 PUSH2 0x7D1 JUMP JUMPDEST PUSH1 0x40 MLOAD PUSH2 0x254 SWAP2 SWAP1 PUSH2 0x3157 JUMP JUMPDEST CALLVALUE DUP1 ISZERO PUSH2 0x2B8 JUMPI PUSH0 DUP1 REVERT JUMPDEST POP PUSH2 0x2CC PUSH2 0x2C7 CALLDATASIZE PUSH1 0x4 PUSH2 0x3169 JUMP JUMPDEST PUSH2 0x860 JUMP JUMPDEST PUSH1 0x40 MLOAD PUSH1 0x1 PUSH1 0x1 PUSH1 0xA0 SHL SUB SWAP1 SWAP2 AND DUP2 MSTORE PUSH1 0x20 ADD PUSH2 0x254 JUMP JUMPDEST PUSH2 0x2F7 PUSH2 0x2F2 CALLDATASIZE PUSH1 0x4 PUSH2 0x3196 JUMP JUMPDEST PUSH2 0x8AF JUMP JUMPDEST STOP JUMPDEST CALLVALUE DUP1 ISZERO PUSH2 0x304 JUMPI PUSH0 DUP1 REVERT JUMPDEST POP PUSH2 0x2A0 PUSH2 0x313 CALLDATASIZE PUSH1 0x4 PUSH2 0x3169 JUMP JUMPDEST PUSH2 0x9A7 JUMP JUMPDEST PUSH2 0x24A PUSH2 0x326 CALLDATASIZE PUSH1 0x4 PUSH2 0x31BE JUMP JUMPDEST PUSH2 0xA85 JUMP JUMPDEST CALLVALUE DUP1 ISZERO PUSH2 0x336 JUMPI PUSH0 DUP1 REVERT JUMPDEST POP PUSH2 0x2F7 PUSH2 0x345 CALLDATASIZE PUSH1 0x4 PUSH2 0x31F0 JUMP JUMPDEST PUSH2 0xA99 JUMP JUMPDEST CALLVALUE DUP1 ISZERO PUSH2 0x355 JUMPI PUSH0 DUP1 REVERT JUMPDEST POP PUSH1 0x5 SLOAD PUSH2 0x24A JUMP JUMPDEST PUSH2 0x2F7 PUSH2 0x36C CALLDATASIZE PUSH1 0x4 PUSH2 0x3220 JUMP JUMPDEST PUSH2 0xAAC JUMP JUMPDEST CALLVALUE DUP1 ISZERO PUSH2 0x37C JUMPI PUSH0 DUP1 REVERT JUMPDEST POP PUSH2 0x24A PUSH2 0x38B CALLDATASIZE PUSH1 0x4 PUSH2 0x3169 JUMP JUMPDEST PUSH2 0xAE2 JUMP JUMPDEST CALLVALUE DUP1 ISZERO PUSH2 0x39B JUMPI PUSH0 DUP1 REVERT JUMPDEST POP PUSH2 0x24A PUSH2 0x3AA CALLDATASIZE PUSH1 0x4 PUSH2 0x3196 JUMP JUMPDEST PUSH2 0xB26 JUMP JUMPDEST PUSH2 0x2F7 PUSH2 0x3BD CALLDATASIZE PUSH1 0x4 PUSH2 0x3249 JUMP JUMPDEST PUSH2 0xBB2 JUMP JUMPDEST CALLVALUE DUP1 ISZERO PUSH2 0x3CD JUMPI PUSH0 DUP1 REVERT JUMPDEST POP PUSH1 0x2 SLOAD PUSH1 0x40 MLOAD PUSH1 0xFF SWAP1 SWAP2 AND DUP2 MSTORE PUSH1 0x20 ADD PUSH2 0x254 JUMP JUMPDEST PUSH2 0x2F7 PUSH2 0x3F1 CALLDATASIZE PUSH1 0x4 PUSH2 0x3220 JUMP JUMPDEST PUSH2 0xBBD JUMP JUMPDEST CALLVALUE DUP1 ISZERO PUSH2 0x401 JUMPI PUSH0 DUP1 REVERT JUMPDEST POP PUSH2 0x24A PUSH2 0x410 CALLDATASIZE PUSH1 0x4 PUSH2 0x3169 JUMP JUMPDEST PUSH2 0xBD7 JUMP JUMPDEST CALLVALUE DUP1 ISZERO PUSH2 0x420 JUMPI PUSH0 DUP1 REVERT JUMPDEST POP PUSH2 0x24A PUSH2 0x42F CALLDATASIZE PUSH1 0x4 PUSH2 0x3169 JUMP JUMPDEST PUSH2 0xC64 JUMP JUMPDEST PUSH2 0x2F7 PUSH2 0x442 CALLDATASIZE PUSH1 0x4 PUSH2 0x327F JUMP JUMPDEST PUSH2 0xCB5 JUMP JUMPDEST CALLVALUE DUP1 ISZERO PUSH2 0x452 JUMPI PUSH0 DUP1 REVERT JUMPDEST POP PUSH2 0x2F7 PUSH2 0x461 CALLDATASIZE PUSH1 0x4 PUSH2 0x3372 JUMP JUMPDEST PUSH2 0xD4F JUMP JUMPDEST CALLVALUE DUP1 ISZERO PUSH2 0x471 JUMPI PUSH0 DUP1 REVERT JUMPDEST POP PUSH2 0x2CC PUSH2 0x480 CALLDATASIZE PUSH1 0x4 PUSH2 0x3169 JUMP JUMPDEST PUSH2 0xD67 JUMP JUMPDEST CALLVALUE DUP1 ISZERO PUSH2 0x490 JUMPI PUSH0 DUP1 REVERT JUMPDEST POP PUSH2 0x2A0 PUSH2 0xE00 JUMP JUMPDEST CALLVALUE DUP1 ISZERO PUSH2 0x4A4 JUMPI PUSH0 DUP1 REVERT JUMPDEST POP PUSH2 0x24A PUSH2 0x4B3 CALLDATASIZE PUSH1 0x4 PUSH2 0x33B7 JUMP JUMPDEST PUSH2 0xE8C JUMP JUMPDEST CALLVALUE DUP1 ISZERO PUSH2 0x4C3 JUMPI PUSH0 DUP1 REVERT JUMPDEST POP PUSH2 0x2F7 PUSH2 0xF12 JUMP JUMPDEST CALLVALUE DUP1 ISZERO PUSH2 0x4D7 JUMPI PUSH0 DUP1 REVERT JUMPDEST POP PUSH1 0x8 SLOAD PUSH2 0x2CC SWAP1 PUSH1 0x1 PUSH1 0x1 PUSH1 0xA0 SHL SUB AND DUP2 JUMP JUMPDEST PUSH2 0x2F7 PUSH2 0x4F9 CALLDATASIZE PUSH1 0x4 PUSH2 0x31BE JUMP JUMPDEST PUSH2 0xF25 JUMP JUMPDEST CALLVALUE DUP1 ISZERO PUSH2 0x509 JUMPI PUSH0 DUP1 REVERT JUMPDEST POP PUSH1 0xD SLOAD PUSH1 0x1 PUSH1 0x1 PUSH1 0xA0 SHL SUB AND PUSH2 0x2CC JUMP JUMPDEST CALLVALUE DUP1 ISZERO PUSH2 0x526 JUMPI PUSH0 DUP1 REVERT JUMPDEST POP PUSH2 0x2A0 PUSH2 0xFDD JUMP JUMPDEST CALLVALUE DUP1 ISZERO PUSH2 0x53A JUMPI PUSH0 DUP1 REVERT JUMPDEST POP PUSH2 0x24A PUSH2 0x549 CALLDATASIZE PUSH1 0x4 PUSH2 0x3169 JUMP JUMPDEST PUSH2 0xFEC JUMP JUMPDEST CALLVALUE DUP1 ISZERO PUSH2 0x559 JUMPI PUSH0 DUP1 REVERT JUMPDEST POP PUSH2 0x24A PUSH2 0x568 CALLDATASIZE PUSH1 0x4 PUSH2 0x3169 JUMP JUMPDEST PUSH2 0x1085 JUMP JUMPDEST CALLVALUE DUP1 ISZERO PUSH2 0x578 JUMPI PUSH0 DUP1 REVERT JUMPDEST POP PUSH2 0x2F7 PUSH2 0x587 CALLDATASIZE PUSH1 0x4 PUSH2 0x33D0 JUMP JUMPDEST PUSH2 0x10C9 JUMP JUMPDEST PUSH2 0x2F7 PUSH2 0x59A CALLDATASIZE PUSH1 0x4 PUSH2 0x3405 JUMP JUMPDEST PUSH2 0x10D4 JUMP JUMPDEST CALLVALUE DUP1 ISZERO PUSH2 0x5AA JUMPI PUSH0 DUP1 REVERT JUMPDEST POP PUSH2 0x2A0 PUSH2 0x5B9 CALLDATASIZE PUSH1 0x4 PUSH2 0x3169 JUMP JUMPDEST PUSH2 0x1106 JUMP JUMPDEST CALLVALUE DUP1 ISZERO PUSH2 0x5C9 JUMPI PUSH0 DUP1 REVERT JUMPDEST POP PUSH2 0x24A PUSH2 0x5D8 CALLDATASIZE PUSH1 0x4 PUSH2 0x347C JUMP JUMPDEST PUSH2 0x1195 JUMP JUMPDEST CALLVALUE DUP1 ISZERO PUSH2 0x5E8 JUMPI PUSH0 DUP1 REVERT JUMPDEST POP PUSH2 0x27C PUSH2 0x5F7 CALLDATASIZE PUSH1 0x4 PUSH2 0x34A6 JUMP JUMPDEST PUSH1 0x1 PUSH1 0x1 PUSH1 0xA0 SHL SUB SWAP3 DUP4 AND PUSH0 SWAP1 DUP2 MSTORE PUSH1 0xC PUSH1 0x20 SWAP1 DUP2 MSTORE PUSH1 0x40 DUP1 DUP4 KECCAK256 SWAP5 DUP4 MSTORE SWAP4 DUP2 MSTORE DUP4 DUP3 KECCAK256 SWAP3 SWAP1 SWAP5 AND DUP2 MSTORE SWAP3 MSTORE SWAP1 KECCAK256 SLOAD PUSH1 0xFF AND SWAP1 JUMP JUMPDEST CALLVALUE DUP1 ISZERO PUSH2 0x637 JUMPI PUSH0 DUP1 REVERT JUMPDEST POP PUSH2 0x2A0 PUSH2 0x11C7 JUMP JUMPDEST CALLVALUE DUP1 ISZERO PUSH2 0x64B JUMPI PUSH0 DUP1 REVERT JUMPDEST POP PUSH2 0x27C PUSH2 0x65A CALLDATASIZE PUSH1 0x4 PUSH2 0x34DF JUMP JUMPDEST PUSH1 0x1 PUSH1 0x1 PUSH1 0xA0 SHL SUB SWAP2 DUP3 AND PUSH0 SWAP1 DUP2 MSTORE PUSH1 0x7 PUSH1 0x20 SWAP1 DUP2 MSTORE PUSH1 0x40 DUP1 DUP4 KECCAK256 SWAP4 SWAP1 SWAP5 AND DUP3 MSTORE PUSH1 0x2 SWAP1 SWAP3 ADD SWAP1 SWAP2 MSTORE KECCAK256 SLOAD PUSH1 0xFF AND SWAP1 JUMP JUMPDEST CALLVALUE DUP1 ISZERO PUSH2 0x696 JUMPI PUSH0 DUP1 REVERT JUMPDEST POP PUSH1 0xA SLOAD PUSH2 0x24A JUMP JUMPDEST CALLVALUE DUP1 ISZERO PUSH2 0x6AA JUMPI PUSH0 DUP1 REVERT JUMPDEST POP PUSH2 0x2F7 PUSH2 0x6B9 CALLDATASIZE PUSH1 0x4 PUSH2 0x30BA JUMP JUMPDEST PUSH2 0x12AC JUMP JUMPDEST CALLVALUE DUP1 ISZERO PUSH2 0x6C9 JUMPI PUSH0 DUP1 REVERT JUMPDEST POP PUSH2 0x2F7 PUSH2 0x6D8 CALLDATASIZE PUSH1 0x4 PUSH2 0x33B7 JUMP JUMPDEST PUSH2 0x12BE JUMP JUMPDEST PUSH0 PUSH2 0x6E7 DUP4 PUSH2 0xC64 JUMP JUMPDEST DUP3 LT PUSH2 0x758 JUMPI PUSH1 0x40 MLOAD PUSH3 0x461BCD PUSH1 0xE5 SHL DUP2 MSTORE PUSH1 0x20 PUSH1 0x4 DUP3 ADD MSTORE PUSH1 0x35 PUSH1 0x24 DUP3 ADD MSTORE PUSH32 0x45524333353235536C6F74456E756D657261626C653A20736C6F7420746F6B65 PUSH1 0x44 DUP3 ADD MSTORE PUSH21 0x6E20696E646578206F7574206F6620626F756E6473 PUSH1 0x58 SHL PUSH1 0x64 DUP3 ADD MSTORE PUSH1 0x84 ADD JUMPDEST PUSH1 0x40 MLOAD DUP1 SWAP2 SUB SWAP1 REVERT JUMPDEST PUSH0 DUP4 DUP2 MSTORE PUSH1 0xB PUSH1 0x20 MSTORE PUSH1 0x40 SWAP1 KECCAK256 SLOAD PUSH1 0xA DUP1 SLOAD SWAP1 SWAP2 SWAP1 DUP2 LT PUSH2 0x77B JUMPI PUSH2 0x77B PUSH2 0x3507 JUMP JUMPDEST SWAP1 PUSH0 MSTORE PUSH1 0x20 PUSH0 KECCAK256 SWAP1 PUSH1 0x2 MUL ADD PUSH1 0x1 ADD DUP3 DUP2 SLOAD DUP2 LT PUSH2 0x79B JUMPI PUSH2 0x79B PUSH2 0x3507 JUMP JUMPDEST SWAP1 PUSH0 MSTORE PUSH1 0x20 PUSH0 KECCAK256 ADD SLOAD SWAP1 POP JUMPDEST SWAP3 SWAP2 POP POP JUMP JUMPDEST PUSH0 PUSH1 0x1 PUSH1 0x1 PUSH1 0xE0 SHL SUB NOT DUP3 AND PUSH4 0x16D117CB PUSH1 0xE3 SHL EQ DUP1 PUSH2 0x7A7 JUMPI POP PUSH2 0x7A7 DUP3 PUSH2 0x12FB JUMP JUMPDEST PUSH1 0x60 PUSH0 DUP1 SLOAD PUSH2 0x7DF SWAP1 PUSH2 0x351B JUMP JUMPDEST DUP1 PUSH1 0x1F ADD PUSH1 0x20 DUP1 SWAP2 DIV MUL PUSH1 0x20 ADD PUSH1 0x40 MLOAD SWAP1 DUP2 ADD PUSH1 0x40 MSTORE DUP1 SWAP3 SWAP2 SWAP1 DUP2 DUP2 MSTORE PUSH1 0x20 ADD DUP3 DUP1 SLOAD PUSH2 0x80B SWAP1 PUSH2 0x351B JUMP JUMPDEST DUP1 ISZERO PUSH2 0x856 JUMPI DUP1 PUSH1 0x1F LT PUSH2 0x82D JUMPI PUSH2 0x100 DUP1 DUP4 SLOAD DIV MUL DUP4 MSTORE SWAP2 PUSH1 0x20 ADD SWAP2 PUSH2 0x856 JUMP JUMPDEST DUP3 ADD SWAP2 SWAP1 PUSH0 MSTORE PUSH1 0x20 PUSH0 KECCAK256 SWAP1 JUMPDEST DUP2 SLOAD DUP2 MSTORE SWAP1 PUSH1 0x1 ADD SWAP1 PUSH1 0x20 ADD DUP1 DUP4 GT PUSH2 0x839 JUMPI DUP3 SWAP1 SUB PUSH1 0x1F AND DUP3 ADD SWAP2 JUMPDEST POP POP POP POP POP SWAP1 POP SWAP1 JUMP JUMPDEST PUSH0 PUSH2 0x86A DUP3 PUSH2 0x131F JUMP JUMPDEST PUSH0 DUP3 DUP2 MSTORE PUSH1 0x6 PUSH1 0x20 MSTORE PUSH1 0x40 SWAP1 KECCAK256 SLOAD PUSH1 0x5 DUP1 SLOAD SWAP1 SWAP2 SWAP1 DUP2 LT PUSH2 0x88D JUMPI PUSH2 0x88D PUSH2 0x3507 JUMP JUMPDEST PUSH0 SWAP2 DUP3 MSTORE PUSH1 0x20 SWAP1 SWAP2 KECCAK256 PUSH1 0x4 PUSH1 0x6 SWAP1 SWAP3 MUL ADD ADD SLOAD PUSH1 0x1 PUSH1 0x1 PUSH1 0xA0 SHL SUB AND SWAP3 SWAP2 POP POP JUMP JUMPDEST PUSH0 PUSH2 0x8B9 DUP3 PUSH2 0xD67 JUMP JUMPDEST SWAP1 POP PUSH0 PUSH2 0x8C5 DUP4 PUSH2 0xAE2 JUMP JUMPDEST SWAP1 POP DUP2 PUSH1 0x1 PUSH1 0x1 PUSH1 0xA0 SHL SUB AND DUP5 PUSH1 0x1 PUSH1 0x1 PUSH1 0xA0 SHL SUB AND SUB PUSH2 0x8F8 JUMPI PUSH1 0x40 MLOAD PUSH3 0x461BCD PUSH1 0xE5 SHL DUP2 MSTORE PUSH1 0x4 ADD PUSH2 0x74F SWAP1 PUSH2 0x3553 JUMP JUMPDEST CALLER PUSH1 0x1 PUSH1 0x1 PUSH1 0xA0 SHL SUB DUP4 AND EQ DUP1 PUSH2 0x914 JUMPI POP PUSH2 0x914 DUP3 CALLER PUSH2 0x65A JUMP JUMPDEST DUP1 PUSH2 0x925 JUMPI POP PUSH2 0x925 DUP3 DUP3 CALLER PUSH2 0x5F7 JUMP JUMPDEST PUSH2 0x997 JUMPI PUSH1 0x40 MLOAD PUSH3 0x461BCD PUSH1 0xE5 SHL DUP2 MSTORE PUSH1 0x20 PUSH1 0x4 DUP3 ADD MSTORE PUSH1 0x3E PUSH1 0x24 DUP3 ADD MSTORE PUSH32 0x455243333532353A20617070726F76652063616C6C6572206973206E6F74206F PUSH1 0x44 DUP3 ADD MSTORE PUSH32 0x776E6572206E6F7220617070726F76656420666F7220616C6C2F736C6F740000 PUSH1 0x64 DUP3 ADD MSTORE PUSH1 0x84 ADD PUSH2 0x74F JUMP JUMPDEST PUSH2 0x9A1 DUP5 DUP5 PUSH2 0x1370 JUMP JUMPDEST POP POP POP POP JUMP JUMPDEST PUSH1 0x60 PUSH0 PUSH2 0x9B2 PUSH2 0x1405 JUMP JUMPDEST PUSH1 0x8 SLOAD SWAP1 SWAP2 POP PUSH1 0x1 PUSH1 0x1 PUSH1 0xA0 SHL SUB AND PUSH2 0xA10 JUMPI PUSH0 DUP2 MLOAD GT PUSH2 0x9E1 JUMPI PUSH1 0x40 MLOAD DUP1 PUSH1 0x20 ADD PUSH1 0x40 MSTORE DUP1 PUSH0 DUP2 MSTORE POP PUSH2 0xA7E JUMP JUMPDEST DUP1 PUSH2 0x9EB DUP5 PUSH2 0x1414 JUMP JUMPDEST PUSH1 0x40 MLOAD PUSH1 0x20 ADD PUSH2 0x9FC SWAP3 SWAP2 SWAP1 PUSH2 0x3595 JUMP JUMPDEST PUSH1 0x40 MLOAD PUSH1 0x20 DUP2 DUP4 SUB SUB DUP2 MSTORE SWAP1 PUSH1 0x40 MSTORE PUSH2 0xA7E JUMP JUMPDEST PUSH1 0x8 SLOAD PUSH1 0x40 MLOAD PUSH4 0x3601BFC5 PUSH1 0xE1 SHL DUP2 MSTORE PUSH1 0x4 DUP2 ADD DUP6 SWAP1 MSTORE PUSH1 0x1 PUSH1 0x1 PUSH1 0xA0 SHL SUB SWAP1 SWAP2 AND SWAP1 PUSH4 0x6C037F8A SWAP1 PUSH1 0x24 ADD JUMPDEST PUSH0 PUSH1 0x40 MLOAD DUP1 DUP4 SUB DUP2 DUP7 GAS STATICCALL ISZERO DUP1 ISZERO PUSH2 0xA57 JUMPI RETURNDATASIZE PUSH0 DUP1 RETURNDATACOPY RETURNDATASIZE PUSH0 REVERT JUMPDEST POP POP POP POP PUSH1 0x40 MLOAD RETURNDATASIZE PUSH0 DUP3 RETURNDATACOPY PUSH1 0x1F RETURNDATASIZE SWAP1 DUP2 ADD PUSH1 0x1F NOT AND DUP3 ADD PUSH1 0x40 MSTORE PUSH2 0xA7E SWAP2 SWAP1 DUP2 ADD SWAP1 PUSH2 0x35D4 JUMP JUMPDEST SWAP4 SWAP3 POP POP POP JUMP JUMPDEST PUSH0 PUSH2 0xA91 DUP5 DUP5 DUP5 PUSH2 0x14A4 JUMP JUMPDEST SWAP5 SWAP4 POP POP POP POP JUMP JUMPDEST PUSH2 0xAA1 PUSH2 0x14DA JUMP JUMPDEST PUSH2 0x9A1 DUP4 DUP4 DUP4 PUSH2 0x1507 JUMP JUMPDEST PUSH2 0xAB6 CALLER DUP3 PUSH2 0x151E JUMP JUMPDEST PUSH2 0xAD2 JUMPI PUSH1 0x40 MLOAD PUSH3 0x461BCD PUSH1 0xE5 SHL DUP2 MSTORE PUSH1 0x4 ADD PUSH2 0x74F SWAP1 PUSH2 0x363D JUMP JUMPDEST PUSH2 0xADD DUP4 DUP4 DUP4 PUSH2 0x15C9 JUMP JUMPDEST POP POP POP JUMP JUMPDEST PUSH0 PUSH2 0xAEC DUP3 PUSH2 0x131F JUMP JUMPDEST PUSH0 DUP3 DUP2 MSTORE PUSH1 0x6 PUSH1 0x20 MSTORE PUSH1 0x40 SWAP1 KECCAK256 SLOAD PUSH1 0x5 DUP1 SLOAD SWAP1 SWAP2 SWAP1 DUP2 LT PUSH2 0xB0F JUMPI PUSH2 0xB0F PUSH2 0x3507 JUMP JUMPDEST SWAP1 PUSH0 MSTORE PUSH1 0x20 PUSH0 KECCAK256 SWAP1 PUSH1 0x6 MUL ADD PUSH1 0x1 ADD SLOAD SWAP1 POP SWAP2 SWAP1 POP JUMP JUMPDEST PUSH0 PUSH2 0xB30 DUP4 PUSH2 0xE8C JUMP JUMPDEST DUP3 LT PUSH2 0xB89 JUMPI PUSH1 0x40 MLOAD PUSH3 0x461BCD PUSH1 0xE5 SHL DUP2 MSTORE PUSH1 0x20 PUSH1 0x4 DUP3 ADD MSTORE PUSH1 0x22 PUSH1 0x24 DUP3 ADD MSTORE PUSH32 0x455243333532353A206F776E657220696E646578206F7574206F6620626F756E PUSH1 0x44 DUP3 ADD MSTORE PUSH2 0x6473 PUSH1 0xF0 SHL PUSH1 0x64 DUP3 ADD MSTORE PUSH1 0x84 ADD PUSH2 0x74F JUMP JUMPDEST PUSH1 0x1 PUSH1 0x1 PUSH1 0xA0 SHL SUB DUP4 AND PUSH0 SWAP1 DUP2 MSTORE PUSH1 0x7 PUSH1 0x20 MSTORE PUSH1 0x40 SWAP1 KECCAK256 DUP1 SLOAD DUP4 SWAP1 DUP2 LT PUSH2 0x79B JUMPI PUSH2 0x79B PUSH2 0x3507 JUMP JUMPDEST PUSH2 0xADD DUP4 DUP4 DUP4 PUSH2 0x1745 JUMP JUMPDEST PUSH2 0xADD DUP4 DUP4 DUP4 PUSH1 0x40 MLOAD DUP1 PUSH1 0x20 ADD PUSH1 0x40 MSTORE DUP1 PUSH0 DUP2 MSTORE POP PUSH2 0x10D4 JUMP JUMPDEST PUSH0 PUSH2 0xBE1 PUSH1 0x5 SLOAD SWAP1 JUMP JUMPDEST DUP3 LT PUSH2 0xC3B JUMPI PUSH1 0x40 MLOAD PUSH3 0x461BCD PUSH1 0xE5 SHL DUP2 MSTORE PUSH1 0x20 PUSH1 0x4 DUP3 ADD MSTORE PUSH1 0x23 PUSH1 0x24 DUP3 ADD MSTORE PUSH32 0x455243333532353A20676C6F62616C20696E646578206F7574206F6620626F75 PUSH1 0x44 DUP3 ADD MSTORE PUSH3 0x6E6473 PUSH1 0xE8 SHL PUSH1 0x64 DUP3 ADD MSTORE PUSH1 0x84 ADD PUSH2 0x74F JUMP JUMPDEST PUSH1 0x5 DUP3 DUP2 SLOAD DUP2 LT PUSH2 0xC4E JUMPI PUSH2 0xC4E PUSH2 0x3507 JUMP JUMPDEST SWAP1 PUSH0 MSTORE PUSH1 0x20 PUSH0 KECCAK256 SWAP1 PUSH1 0x6 MUL ADD PUSH0 ADD SLOAD SWAP1 POP SWAP2 SWAP1 POP JUMP JUMPDEST PUSH0 PUSH2 0xC6E DUP3 PUSH2 0x175B JUMP JUMPDEST PUSH2 0xC79 JUMPI POP PUSH0 SWAP2 SWAP1 POP JUMP JUMPDEST PUSH0 DUP3 DUP2 MSTORE PUSH1 0xB PUSH1 0x20 MSTORE PUSH1 0x40 SWAP1 KECCAK256 SLOAD PUSH1 0xA DUP1 SLOAD SWAP1 SWAP2 SWAP1 DUP2 LT PUSH2 0xC9C JUMPI PUSH2 0xC9C PUSH2 0x3507 JUMP JUMPDEST PUSH0 SWAP2 DUP3 MSTORE PUSH1 0x20 SWAP1 SWAP2 KECCAK256 PUSH1 0x1 PUSH1 0x2 SWAP1 SWAP3 MUL ADD ADD SLOAD SWAP3 SWAP2 POP POP JUMP JUMPDEST CALLER PUSH1 0x1 PUSH1 0x1 PUSH1 0xA0 SHL SUB DUP6 AND EQ DUP1 PUSH2 0xCD1 JUMPI POP PUSH2 0xCD1 DUP5 CALLER PUSH2 0x65A JUMP JUMPDEST PUSH2 0xD43 JUMPI PUSH1 0x40 MLOAD PUSH3 0x461BCD PUSH1 0xE5 SHL DUP2 MSTORE PUSH1 0x20 PUSH1 0x4 DUP3 ADD MSTORE PUSH1 0x3F PUSH1 0x24 DUP3 ADD MSTORE PUSH32 0x45524333353235536C6F74417070726F7661626C653A2063616C6C6572206973 PUSH1 0x44 DUP3 ADD MSTORE PUSH32 0x206E6F74206F776E6572206E6F7220617070726F76656420666F7220616C6C00 PUSH1 0x64 DUP3 ADD MSTORE PUSH1 0x84 ADD PUSH2 0x74F JUMP JUMPDEST PUSH2 0x9A1 DUP5 DUP5 DUP5 DUP5 PUSH2 0x17A2 JUMP JUMPDEST PUSH2 0xD57 PUSH2 0x14DA JUMP JUMPDEST PUSH1 0xE PUSH2 0xD63 DUP3 DUP3 PUSH2 0x36D3 JUMP JUMPDEST POP POP JUMP JUMPDEST PUSH0 PUSH2 0xD71 DUP3 PUSH2 0x131F JUMP JUMPDEST PUSH0 DUP3 DUP2 MSTORE PUSH1 0x6 PUSH1 0x20 MSTORE PUSH1 0x40 SWAP1 KECCAK256 SLOAD PUSH1 0x5 DUP1 SLOAD SWAP1 SWAP2 SWAP1 DUP2 LT PUSH2 0xD94 JUMPI PUSH2 0xD94 PUSH2 0x3507 JUMP JUMPDEST PUSH0 SWAP2 DUP3 MSTORE PUSH1 0x20 SWAP1 SWAP2 KECCAK256 PUSH1 0x3 PUSH1 0x6 SWAP1 SWAP3 MUL ADD ADD SLOAD PUSH1 0x1 PUSH1 0x1 PUSH1 0xA0 SHL SUB AND SWAP1 POP DUP1 PUSH2 0xDFB JUMPI PUSH1 0x40 MLOAD PUSH3 0x461BCD PUSH1 0xE5 SHL DUP2 MSTORE PUSH1 0x20 PUSH1 0x4 DUP3 ADD MSTORE PUSH1 0x19 PUSH1 0x24 DUP3 ADD MSTORE PUSH25 0x115490CCCD4C8D4E881A5B9D985B1A59081D1BDAD95B881251 PUSH1 0x3A SHL PUSH1 0x44 DUP3 ADD MSTORE PUSH1 0x64 ADD PUSH2 0x74F JUMP JUMPDEST SWAP2 SWAP1 POP JUMP JUMPDEST PUSH1 0xE DUP1 SLOAD PUSH2 0xE0D SWAP1 PUSH2 0x351B JUMP JUMPDEST DUP1 PUSH1 0x1F ADD PUSH1 0x20 DUP1 SWAP2 DIV MUL PUSH1 0x20 ADD PUSH1 0x40 MLOAD SWAP1 DUP2 ADD PUSH1 0x40 MSTORE DUP1 SWAP3 SWAP2 SWAP1 DUP2 DUP2 MSTORE PUSH1 0x20 ADD DUP3 DUP1 SLOAD PUSH2 0xE39 SWAP1 PUSH2 0x351B JUMP JUMPDEST DUP1 ISZERO PUSH2 0xE84 JUMPI DUP1 PUSH1 0x1F LT PUSH2 0xE5B JUMPI PUSH2 0x100 DUP1 DUP4 SLOAD DIV MUL DUP4 MSTORE SWAP2 PUSH1 0x20 ADD SWAP2 PUSH2 0xE84 JUMP JUMPDEST DUP3 ADD SWAP2 SWAP1 PUSH0 MSTORE PUSH1 0x20 PUSH0 KECCAK256 SWAP1 JUMPDEST DUP2 SLOAD DUP2 MSTORE SWAP1 PUSH1 0x1 ADD SWAP1 PUSH1 0x20 ADD DUP1 DUP4 GT PUSH2 0xE67 JUMPI DUP3 SWAP1 SUB PUSH1 0x1F AND DUP3 ADD SWAP2 JUMPDEST POP POP POP POP POP DUP2 JUMP JUMPDEST PUSH0 PUSH1 0x1 PUSH1 0x1 PUSH1 0xA0 SHL SUB DUP3 AND PUSH2 0xEF7 JUMPI PUSH1 0x40 MLOAD PUSH3 0x461BCD PUSH1 0xE5 SHL DUP2 MSTORE PUSH1 0x20 PUSH1 0x4 DUP3 ADD MSTORE PUSH1 0x2B PUSH1 0x24 DUP3 ADD MSTORE PUSH32 0x455243333532353A2062616C616E636520717565727920666F7220746865207A PUSH1 0x44 DUP3 ADD MSTORE PUSH11 0x65726F2061646472657373 PUSH1 0xA8 SHL PUSH1 0x64 DUP3 ADD MSTORE PUSH1 0x84 ADD PUSH2 0x74F JUMP JUMPDEST POP PUSH1 0x1 PUSH1 0x1 PUSH1 0xA0 SHL SUB AND PUSH0 SWAP1 DUP2 MSTORE PUSH1 0x7 PUSH1 0x20 MSTORE PUSH1 0x40 SWAP1 KECCAK256 SLOAD SWAP1 JUMP JUMPDEST PUSH2 0xF1A PUSH2 0x14DA JUMP JUMPDEST PUSH2 0xF23 PUSH0 PUSH2 0x188B JUMP JUMPDEST JUMP JUMPDEST PUSH0 PUSH2 0xF2F DUP5 PUSH2 0xD67 JUMP JUMPDEST SWAP1 POP DUP1 PUSH1 0x1 PUSH1 0x1 PUSH1 0xA0 SHL SUB AND DUP4 PUSH1 0x1 PUSH1 0x1 PUSH1 0xA0 SHL SUB AND SUB PUSH2 0xF62 JUMPI PUSH1 0x40 MLOAD PUSH3 0x461BCD PUSH1 0xE5 SHL DUP2 MSTORE PUSH1 0x4 ADD PUSH2 0x74F SWAP1 PUSH2 0x3553 JUMP JUMPDEST PUSH2 0xF6C CALLER DUP6 PUSH2 0x151E JUMP JUMPDEST PUSH2 0xFD2 JUMPI PUSH1 0x40 MLOAD PUSH3 0x461BCD PUSH1 0xE5 SHL DUP2 MSTORE PUSH1 0x20 PUSH1 0x4 DUP3 ADD MSTORE PUSH1 0x31 PUSH1 0x24 DUP3 ADD MSTORE PUSH32 0x455243333532353A20617070726F76652063616C6C6572206973206E6F74206F PUSH1 0x44 DUP3 ADD MSTORE PUSH17 0x1DDB995C881B9BDC88185C1C1C9BDD9959 PUSH1 0x7A SHL PUSH1 0x64 DUP3 ADD MSTORE PUSH1 0x84 ADD PUSH2 0x74F JUMP JUMPDEST PUSH2 0x9A1 DUP5 DUP5 DUP5 PUSH2 0x18DC JUMP JUMPDEST PUSH1 0x60 PUSH1 0x1 DUP1 SLOAD PUSH2 0x7DF SWAP1 PUSH2 0x351B JUMP JUMPDEST PUSH0 PUSH2 0xFF6 PUSH1 0xA SLOAD SWAP1 JUMP JUMPDEST DUP3 LT PUSH2 0x105C JUMPI PUSH1 0x40 MLOAD PUSH3 0x461BCD PUSH1 0xE5 SHL DUP2 MSTORE PUSH1 0x20 PUSH1 0x4 DUP3 ADD MSTORE PUSH1 0x2F PUSH1 0x24 DUP3 ADD MSTORE PUSH32 0x45524333353235536C6F74456E756D657261626C653A20736C6F7420696E6465 PUSH1 0x44 DUP3 ADD MSTORE PUSH15 0x78206F7574206F6620626F756E6473 PUSH1 0x88 SHL PUSH1 0x64 DUP3 ADD MSTORE PUSH1 0x84 ADD PUSH2 0x74F JUMP JUMPDEST PUSH1 0xA DUP3 DUP2 SLOAD DUP2 LT PUSH2 0x106F JUMPI PUSH2 0x106F PUSH2 0x3507 JUMP JUMPDEST SWAP1 PUSH0 MSTORE PUSH1 0x20 PUSH0 KECCAK256 SWAP1 PUSH1 0x2 MUL ADD PUSH0 ADD SLOAD SWAP1 POP SWAP2 SWAP1 POP JUMP JUMPDEST PUSH0 PUSH2 0x108F DUP3 PUSH2 0x131F JUMP JUMPDEST PUSH0 DUP3 DUP2 MSTORE PUSH1 0x6 PUSH1 0x20 MSTORE PUSH1 0x40 SWAP1 KECCAK256 SLOAD PUSH1 0x5 DUP1 SLOAD SWAP1 SWAP2 SWAP1 DUP2 LT PUSH2 0x10B2 JUMPI PUSH2 0x10B2 PUSH2 0x3507 JUMP JUMPDEST SWAP1 PUSH0 MSTORE PUSH1 0x20 PUSH0 KECCAK256 SWAP1 PUSH1 0x6 MUL ADD PUSH1 0x2 ADD SLOAD SWAP1 POP SWAP2 SWAP1 POP JUMP JUMPDEST PUSH2 0xD63 CALLER DUP4 DUP4 PUSH2 0x1A11 JUMP JUMPDEST PUSH2 0x10DE CALLER DUP4 PUSH2 0x151E JUMP JUMPDEST PUSH2 0x10FA JUMPI PUSH1 0x40 MLOAD PUSH3 0x461BCD PUSH1 0xE5 SHL DUP2 MSTORE PUSH1 0x4 ADD PUSH2 0x74F SWAP1 PUSH2 0x363D JUMP JUMPDEST PUSH2 0x9A1 DUP5 DUP5 DUP5 DUP5 PUSH2 0x1ADA JUMP JUMPDEST PUSH1 0x60 PUSH2 0x1111 DUP3 PUSH2 0x131F JUMP JUMPDEST PUSH0 PUSH2 0x111A PUSH2 0x1405 JUMP JUMPDEST PUSH1 0x8 SLOAD SWAP1 SWAP2 POP PUSH1 0x1 PUSH1 0x1 PUSH1 0xA0 SHL SUB AND PUSH2 0x1164 JUMPI PUSH0 DUP2 MLOAD GT PUSH2 0x1149 JUMPI PUSH1 0x40 MLOAD DUP1 PUSH1 0x20 ADD PUSH1 0x40 MSTORE DUP1 PUSH0 DUP2 MSTORE POP PUSH2 0xA7E JUMP JUMPDEST DUP1 PUSH2 0x1153 DUP5 PUSH2 0x1414 JUMP JUMPDEST PUSH1 0x40 MLOAD PUSH1 0x20 ADD PUSH2 0x9FC SWAP3 SWAP2 SWAP1 PUSH2 0x378F JUMP JUMPDEST PUSH1 0x8 SLOAD PUSH1 0x40 MLOAD PUSH4 0x44A5A617 PUSH1 0xE1 SHL DUP2 MSTORE PUSH1 0x4 DUP2 ADD DUP6 SWAP1 MSTORE PUSH1 0x1 PUSH1 0x1 PUSH1 0xA0 SHL SUB SWAP1 SWAP2 AND SWAP1 PUSH4 0x894B4C2E SWAP1 PUSH1 0x24 ADD PUSH2 0xA3D JUMP JUMPDEST PUSH0 PUSH2 0x119F DUP4 PUSH2 0x131F JUMP JUMPDEST POP PUSH0 SWAP2 DUP3 MSTORE PUSH1 0x4 PUSH1 0x20 SWAP1 DUP2 MSTORE PUSH1 0x40 DUP1 DUP5 KECCAK256 PUSH1 0x1 PUSH1 0x1 PUSH1 0xA0 SHL SUB SWAP4 SWAP1 SWAP4 AND DUP5 MSTORE SWAP2 SWAP1 MSTORE SWAP1 KECCAK256 SLOAD SWAP1 JUMP JUMPDEST PUSH1 0x60 PUSH0 PUSH2 0x11D2 PUSH2 0x1405 JUMP JUMPDEST PUSH1 0x8 SLOAD SWAP1 SWAP2 POP PUSH1 0x1 PUSH1 0x1 PUSH1 0xA0 SHL SUB AND PUSH2 0x1230 JUMPI PUSH0 DUP2 MLOAD GT PUSH2 0x1201 JUMPI PUSH1 0x40 MLOAD DUP1 PUSH1 0x20 ADD PUSH1 0x40 MSTORE DUP1 PUSH0 DUP2 MSTORE POP PUSH2 0x12A6 JUMP JUMPDEST DUP1 PUSH2 0x120B ADDRESS PUSH2 0x1B4D JUMP JUMPDEST PUSH1 0x40 MLOAD PUSH1 0x20 ADD PUSH2 0x121C SWAP3 SWAP2 SWAP1 PUSH2 0x37BD JUMP JUMPDEST PUSH1 0x40 MLOAD PUSH1 0x20 DUP2 DUP4 SUB SUB DUP2 MSTORE SWAP1 PUSH1 0x40 MSTORE PUSH2 0x12A6 JUMP JUMPDEST PUSH1 0x8 PUSH0 SWAP1 SLOAD SWAP1 PUSH2 0x100 EXP SWAP1 DIV PUSH1 0x1 PUSH1 0x1 PUSH1 0xA0 SHL SUB AND PUSH1 0x1 PUSH1 0x1 PUSH1 0xA0 SHL SUB AND PUSH4 0x725FA09C PUSH1 0x40 MLOAD DUP2 PUSH4 0xFFFFFFFF AND PUSH1 0xE0 SHL DUP2 MSTORE PUSH1 0x4 ADD PUSH0 PUSH1 0x40 MLOAD DUP1 DUP4 SUB DUP2 DUP7 GAS STATICCALL ISZERO DUP1 ISZERO PUSH2 0x127F JUMPI RETURNDATASIZE PUSH0 DUP1 RETURNDATACOPY RETURNDATASIZE PUSH0 REVERT JUMPDEST POP POP POP POP PUSH1 0x40 MLOAD RETURNDATASIZE PUSH0 DUP3 RETURNDATACOPY PUSH1 0x1F RETURNDATASIZE SWAP1 DUP2 ADD PUSH1 0x1F NOT AND DUP3 ADD PUSH1 0x40 MSTORE PUSH2 0x12A6 SWAP2 SWAP1 DUP2 ADD SWAP1 PUSH2 0x35D4 JUMP JUMPDEST SWAP2 POP POP SWAP1 JUMP JUMPDEST PUSH2 0x12B4 PUSH2 0x14DA JUMP JUMPDEST PUSH2 0xD63 DUP3 DUP3 PUSH2 0x1B63 JUMP JUMPDEST PUSH2 0x12C6 PUSH2 0x14DA JUMP JUMPDEST PUSH1 0x1 PUSH1 0x1 PUSH1 0xA0 SHL SUB DUP2 AND PUSH2 0x12EF JUMPI PUSH1 0x40 MLOAD PUSH4 0x1E4FBDF7 PUSH1 0xE0 SHL DUP2 MSTORE PUSH0 PUSH1 0x4 DUP3 ADD MSTORE PUSH1 0x24 ADD PUSH2 0x74F JUMP JUMPDEST PUSH2 0x12F8 DUP2 PUSH2 0x188B JUMP JUMPDEST POP JUMP JUMPDEST PUSH0 PUSH1 0x1 PUSH1 0x1 PUSH1 0xE0 SHL SUB NOT DUP3 AND PUSH4 0x1DBA0DCF PUSH1 0xE1 SHL EQ DUP1 PUSH2 0x7A7 JUMPI POP PUSH2 0x7A7 DUP3 PUSH2 0x1BA1 JUMP JUMPDEST PUSH2 0x1328 DUP2 PUSH2 0x1C42 JUMP JUMPDEST PUSH2 0x12F8 JUMPI PUSH1 0x40 MLOAD PUSH3 0x461BCD PUSH1 0xE5 SHL DUP2 MSTORE PUSH1 0x20 PUSH1 0x4 DUP3 ADD MSTORE PUSH1 0x19 PUSH1 0x24 DUP3 ADD MSTORE PUSH25 0x115490CCCD4C8D4E881A5B9D985B1A59081D1BDAD95B881251 PUSH1 0x3A SHL PUSH1 0x44 DUP3 ADD MSTORE PUSH1 0x64 ADD PUSH2 0x74F JUMP JUMPDEST PUSH0 DUP2 DUP2 MSTORE PUSH1 0x6 PUSH1 0x20 MSTORE PUSH1 0x40 SWAP1 KECCAK256 SLOAD PUSH1 0x5 DUP1 SLOAD DUP5 SWAP3 SWAP1 DUP2 LT PUSH2 0x1393 JUMPI PUSH2 0x1393 PUSH2 0x3507 JUMP JUMPDEST PUSH0 SWAP2 DUP3 MSTORE PUSH1 0x20 SWAP1 SWAP2 KECCAK256 PUSH1 0x6 SWAP1 SWAP2 MUL ADD PUSH1 0x4 ADD DUP1 SLOAD PUSH1 0x1 PUSH1 0x1 PUSH1 0xA0 SHL SUB NOT AND PUSH1 0x1 PUSH1 0x1 PUSH1 0xA0 SHL SUB SWAP3 DUP4 AND OR SWAP1 SSTORE DUP2 SWAP1 DUP4 AND PUSH2 0x13CC DUP3 PUSH2 0xD67 JUMP JUMPDEST PUSH1 0x1 PUSH1 0x1 PUSH1 0xA0 SHL SUB AND PUSH32 0x8C5BE1E5EBEC7D5BD14F71427D1E84F3DD0314C0F7B2291E5B200AC8C7C3B925 PUSH1 0x40 MLOAD PUSH1 0x40 MLOAD DUP1 SWAP2 SUB SWAP1 LOG4 POP POP JUMP JUMPDEST PUSH1 0x60 PUSH1 0xE DUP1 SLOAD PUSH2 0x7DF SWAP1 PUSH2 0x351B JUMP JUMPDEST PUSH1 0x60 PUSH0 PUSH2 0x1420 DUP4 PUSH2 0x1C89 JUMP JUMPDEST PUSH1 0x1 ADD SWAP1 POP PUSH0 DUP2 PUSH8 0xFFFFFFFFFFFFFFFF DUP2 GT ISZERO PUSH2 0x143F JUMPI PUSH2 0x143F PUSH2 0x32CB JUMP JUMPDEST PUSH1 0x40 MLOAD SWAP1 DUP1 DUP3 MSTORE DUP1 PUSH1 0x1F ADD PUSH1 0x1F NOT AND PUSH1 0x20 ADD DUP3 ADD PUSH1 0x40 MSTORE DUP1 ISZERO PUSH2 0x1469 JUMPI PUSH1 0x20 DUP3 ADD DUP2 DUP1 CALLDATASIZE DUP4 CALLDATACOPY ADD SWAP1 POP JUMPDEST POP SWAP1 POP DUP2 DUP2 ADD PUSH1 0x20 ADD JUMPDEST PUSH0 NOT ADD PUSH16 0x181899199A1A9B1B9C1CB0B131B232B3 PUSH1 0x81 SHL PUSH1 0xA DUP7 MOD BYTE DUP2 MSTORE8 PUSH1 0xA DUP6 DIV SWAP5 POP DUP5 PUSH2 0x1473 JUMPI POP SWAP4 SWAP3 POP POP POP JUMP JUMPDEST PUSH0 PUSH2 0x14B0 CALLER DUP6 DUP5 PUSH2 0x1D60 JUMP JUMPDEST PUSH2 0x14B9 DUP5 PUSH2 0x1DEE JUMP JUMPDEST SWAP1 POP PUSH2 0x14CF DUP4 DUP3 PUSH2 0x14C9 DUP8 PUSH2 0xAE2 JUMP JUMPDEST PUSH0 PUSH2 0x1DF7 JUMP JUMPDEST PUSH2 0xA7E DUP5 DUP3 DUP5 PUSH2 0x1F37 JUMP JUMPDEST PUSH1 0xD SLOAD PUSH1 0x1 PUSH1 0x1 PUSH1 0xA0 SHL SUB AND CALLER EQ PUSH2 0xF23 JUMPI PUSH1 0x40 MLOAD PUSH4 0x118CDAA7 PUSH1 0xE0 SHL DUP2 MSTORE CALLER PUSH1 0x4 DUP3 ADD MSTORE PUSH1 0x24 ADD PUSH2 0x74F JUMP JUMPDEST PUSH0 PUSH2 0x1510 PUSH2 0x2273 JUMP JUMPDEST SWAP1 POP PUSH2 0xA7E DUP5 DUP3 DUP6 DUP6 PUSH2 0x1DF7 JUMP JUMPDEST PUSH0 PUSH2 0x1528 DUP3 PUSH2 0x131F JUMP JUMPDEST PUSH0 PUSH2 0x1532 DUP4 PUSH2 0xD67 JUMP JUMPDEST SWAP1 POP PUSH0 PUSH2 0x153E DUP5 PUSH2 0xAE2 JUMP JUMPDEST SWAP1 POP DUP2 PUSH1 0x1 PUSH1 0x1 PUSH1 0xA0 SHL SUB AND DUP6 PUSH1 0x1 PUSH1 0x1 PUSH1 0xA0 SHL SUB AND EQ DUP1 PUSH2 0x1579 JUMPI POP DUP5 PUSH1 0x1 PUSH1 0x1 PUSH1 0xA0 SHL SUB AND PUSH2 0x156E DUP6 PUSH2 0x860 JUMP JUMPDEST PUSH1 0x1 PUSH1 0x1 PUSH1 0xA0 SHL SUB AND EQ JUMPDEST DUP1 PUSH2 0x1589 JUMPI POP PUSH2 0x1589 DUP3 DUP7 PUSH2 0x65A JUMP JUMPDEST DUP1 PUSH2 0x15C0 JUMPI POP PUSH1 0x1 PUSH1 0x1 PUSH1 0xA0 SHL SUB DUP1 DUP4 AND PUSH0 SWAP1 DUP2 MSTORE PUSH1 0xC PUSH1 0x20 SWAP1 DUP2 MSTORE PUSH1 0x40 DUP1 DUP4 KECCAK256 DUP6 DUP5 MSTORE DUP3 MSTORE DUP1 DUP4 KECCAK256 SWAP4 DUP10 AND DUP4 MSTORE SWAP3 SWAP1 MSTORE KECCAK256 SLOAD PUSH1 0xFF AND JUMPDEST SWAP6 SWAP5 POP POP POP POP POP JUMP JUMPDEST DUP3 PUSH1 0x1 PUSH1 0x1 PUSH1 0xA0 SHL SUB AND PUSH2 0x15DC DUP3 PUSH2 0xD67 JUMP JUMPDEST PUSH1 0x1 PUSH1 0x1 PUSH1 0xA0 SHL SUB AND EQ PUSH2 0x163E JUMPI PUSH1 0x40 MLOAD PUSH3 0x461BCD PUSH1 0xE5 SHL DUP2 MSTORE PUSH1 0x20 PUSH1 0x4 DUP3 ADD MSTORE PUSH1 0x24 DUP1 DUP3 ADD MSTORE PUSH32 0x455243333532353A207472616E736665722066726F6D20696E76616C6964206F PUSH1 0x44 DUP3 ADD MSTORE PUSH4 0x3BB732B9 PUSH1 0xE1 SHL PUSH1 0x64 DUP3 ADD MSTORE PUSH1 0x84 ADD PUSH2 0x74F JUMP JUMPDEST PUSH1 0x1 PUSH1 0x1 PUSH1 0xA0 SHL SUB DUP3 AND PUSH2 0x16A2 JUMPI PUSH1 0x40 MLOAD PUSH3 0x461BCD PUSH1 0xE5 SHL DUP2 MSTORE PUSH1 0x20 PUSH1 0x4 DUP3 ADD MSTORE PUSH1 0x25 PUSH1 0x24 DUP3 ADD MSTORE PUSH32 0x455243333532353A207472616E7366657220746F20746865207A65726F206164 PUSH1 0x44 DUP3 ADD MSTORE PUSH5 0x6472657373 PUSH1 0xD8 SHL PUSH1 0x64 DUP3 ADD MSTORE PUSH1 0x84 ADD PUSH2 0x74F JUMP JUMPDEST PUSH0 PUSH2 0x16AC DUP3 PUSH2 0xAE2 JUMP JUMPDEST SWAP1 POP PUSH0 PUSH2 0x16B8 DUP4 PUSH2 0x1085 JUMP JUMPDEST SWAP1 POP PUSH2 0x16C8 DUP6 DUP6 DUP6 DUP7 DUP7 DUP7 PUSH2 0x228C JUMP JUMPDEST PUSH2 0x16D2 PUSH0 DUP5 PUSH2 0x1370 JUMP JUMPDEST PUSH2 0x16DB DUP4 PUSH2 0x22C9 JUMP JUMPDEST PUSH2 0x16E5 DUP6 DUP5 PUSH2 0x2365 JUMP JUMPDEST PUSH2 0x16EF DUP5 DUP5 PUSH2 0x2478 JUMP JUMPDEST DUP3 DUP5 PUSH1 0x1 PUSH1 0x1 PUSH1 0xA0 SHL SUB AND DUP7 PUSH1 0x1 PUSH1 0x1 PUSH1 0xA0 SHL SUB AND PUSH32 0xDDF252AD1BE2C89B69C2B068FC378DAA952BA7F163C4A11628F55A4DF523B3EF PUSH1 0x40 MLOAD PUSH1 0x40 MLOAD DUP1 SWAP2 SUB SWAP1 LOG4 PUSH2 0x173E DUP6 DUP6 DUP6 DUP7 DUP7 DUP7 PUSH2 0x24FF JUMP JUMPDEST POP POP POP POP POP JUMP JUMPDEST PUSH2 0x1750 CALLER DUP5 DUP4 PUSH2 0x1D60 JUMP JUMPDEST PUSH2 0xADD DUP4 DUP4 DUP4 PUSH2 0x1F37 JUMP JUMPDEST PUSH1 0xA SLOAD PUSH0 SWAP1 ISZERO DUP1 ISZERO SWAP1 PUSH2 0x7A7 JUMPI POP PUSH0 DUP3 DUP2 MSTORE PUSH1 0xB PUSH1 0x20 MSTORE PUSH1 0x40 SWAP1 KECCAK256 SLOAD PUSH1 0xA DUP1 SLOAD DUP5 SWAP3 SWAP1 DUP2 LT PUSH2 0x178C JUMPI PUSH2 0x178C PUSH2 0x3507 JUMP JUMPDEST SWAP1 PUSH0 MSTORE PUSH1 0x20 PUSH0 KECCAK256 SWAP1 PUSH1 0x2 MUL ADD PUSH0 ADD SLOAD EQ SWAP3 SWAP2 POP POP JUMP JUMPDEST DUP2 PUSH1 0x1 PUSH1 0x1 PUSH1 0xA0 SHL SUB AND DUP5 PUSH1 0x1 PUSH1 0x1 PUSH1 0xA0 SHL SUB AND SUB PUSH2 0x1813 JUMPI PUSH1 0x40 MLOAD PUSH3 0x461BCD PUSH1 0xE5 SHL DUP2 MSTORE PUSH1 0x20 PUSH1 0x4 DUP3 ADD MSTORE PUSH1 0x27 PUSH1 0x24 DUP3 ADD MSTORE PUSH32 0x45524333353235536C6F74417070726F7661626C653A20617070726F76652074 PUSH1 0x44 DUP3 ADD MSTORE PUSH7 0x379037BBB732B9 PUSH1 0xC9 SHL PUSH1 0x64 DUP3 ADD MSTORE PUSH1 0x84 ADD PUSH2 0x74F JUMP JUMPDEST PUSH1 0x1 PUSH1 0x1 PUSH1 0xA0 SHL SUB DUP5 DUP2 AND PUSH0 DUP2 DUP2 MSTORE PUSH1 0xC PUSH1 0x20 SWAP1 DUP2 MSTORE PUSH1 0x40 DUP1 DUP4 KECCAK256 DUP9 DUP5 MSTORE DUP3 MSTORE DUP1 DUP4 KECCAK256 SWAP5 DUP8 AND DUP1 DUP5 MSTORE SWAP5 DUP3 MSTORE SWAP2 DUP3 SWAP1 KECCAK256 DUP1 SLOAD PUSH1 0xFF NOT AND DUP7 ISZERO ISZERO SWAP1 DUP2 OR SWAP1 SWAP2 SSTORE SWAP2 MLOAD SWAP2 DUP3 MSTORE DUP7 SWAP3 SWAP2 PUSH32 0x7BDF71E6625AA496095BF08B60C677CF81C963F402CF258981E3BD7507D3480C SWAP2 ADD PUSH1 0x40 MLOAD DUP1 SWAP2 SUB SWAP1 LOG4 POP POP POP POP JUMP JUMPDEST PUSH1 0xD DUP1 SLOAD PUSH1 0x1 PUSH1 0x1 PUSH1 0xA0 SHL SUB DUP4 DUP2 AND PUSH1 0x1 PUSH1 0x1 PUSH1 0xA0 SHL SUB NOT DUP4 AND DUP2 OR SWAP1 SWAP4 SSTORE PUSH1 0x40 MLOAD SWAP2 AND SWAP2 SWAP1 DUP3 SWAP1 PUSH32 0x8BE0079C531659141344CD1FD0A4F28419497F9722A3DAAFE3B4186F6B6457E0 SWAP1 PUSH0 SWAP1 LOG3 POP POP JUMP JUMPDEST PUSH1 0x1 PUSH1 0x1 PUSH1 0xA0 SHL SUB DUP3 AND PUSH2 0x1945 JUMPI PUSH1 0x40 MLOAD PUSH3 0x461BCD PUSH1 0xE5 SHL DUP2 MSTORE PUSH1 0x20 PUSH1 0x4 DUP3 ADD MSTORE PUSH1 0x2A PUSH1 0x24 DUP3 ADD MSTORE PUSH32 0x455243333532353A20617070726F76652076616C756520746F20746865207A65 PUSH1 0x44 DUP3 ADD MSTORE PUSH10 0x726F2061646472657373 PUSH1 0xB0 SHL PUSH1 0x64 DUP3 ADD MSTORE PUSH1 0x84 ADD PUSH2 0x74F JUMP JUMPDEST PUSH2 0x194F DUP3 DUP5 PUSH2 0x2570 JUMP JUMPDEST PUSH2 0x19B3 JUMPI PUSH0 DUP4 DUP2 MSTORE PUSH1 0x6 PUSH1 0x20 MSTORE PUSH1 0x40 SWAP1 KECCAK256 SLOAD PUSH1 0x5 DUP1 SLOAD SWAP1 SWAP2 SWAP1 DUP2 LT PUSH2 0x1976 JUMPI PUSH2 0x1976 PUSH2 0x3507 JUMP JUMPDEST PUSH0 SWAP2 DUP3 MSTORE PUSH1 0x20 DUP1 DUP4 KECCAK256 PUSH1 0x6 SWAP3 SWAP1 SWAP3 MUL SWAP1 SWAP2 ADD PUSH1 0x5 ADD DUP1 SLOAD PUSH1 0x1 DUP2 ADD DUP3 SSTORE SWAP1 DUP4 MSTORE SWAP2 KECCAK256 ADD DUP1 SLOAD PUSH1 0x1 PUSH1 0x1 PUSH1 0xA0 SHL SUB NOT AND PUSH1 0x1 PUSH1 0x1 PUSH1 0xA0 SHL SUB DUP5 AND OR SWAP1 SSTORE JUMPDEST PUSH0 DUP4 DUP2 MSTORE PUSH1 0x4 PUSH1 0x20 SWAP1 DUP2 MSTORE PUSH1 0x40 DUP1 DUP4 KECCAK256 PUSH1 0x1 PUSH1 0x1 PUSH1 0xA0 SHL SUB DUP7 AND DUP1 DUP6 MSTORE SWAP1 DUP4 MSTORE SWAP3 DUP2 SWAP1 KECCAK256 DUP5 SWAP1 SSTORE MLOAD DUP4 DUP2 MSTORE DUP6 SWAP2 PUSH32 0x621B050DE0AD08B51D19B48B3E6DF75348C4DE6BDD93E81B252CA62E28265B1B SWAP2 ADD JUMPDEST PUSH1 0x40 MLOAD DUP1 SWAP2 SUB SWAP1 LOG3 POP POP POP JUMP JUMPDEST DUP2 PUSH1 0x1 PUSH1 0x1 PUSH1 0xA0 SHL SUB AND DUP4 PUSH1 0x1 PUSH1 0x1 PUSH1 0xA0 SHL SUB AND SUB PUSH2 0x1A72 JUMPI PUSH1 0x40 MLOAD PUSH3 0x461BCD PUSH1 0xE5 SHL DUP2 MSTORE PUSH1 0x20 PUSH1 0x4 DUP3 ADD MSTORE PUSH1 0x1A PUSH1 0x24 DUP3 ADD MSTORE PUSH32 0x455243333532353A20617070726F766520746F2063616C6C6572000000000000 PUSH1 0x44 DUP3 ADD MSTORE PUSH1 0x64 ADD PUSH2 0x74F JUMP JUMPDEST PUSH1 0x1 PUSH1 0x1 PUSH1 0xA0 SHL SUB DUP4 DUP2 AND PUSH0 DUP2 DUP2 MSTORE PUSH1 0x7 PUSH1 0x20 SWAP1 DUP2 MSTORE PUSH1 0x40 DUP1 DUP4 KECCAK256 SWAP5 DUP8 AND DUP1 DUP5 MSTORE PUSH1 0x2 SWAP1 SWAP6 ADD DUP3 MSTORE SWAP2 DUP3 SWAP1 KECCAK256 DUP1 SLOAD PUSH1 0xFF NOT AND DUP7 ISZERO ISZERO SWAP1 DUP2 OR SWAP1 SWAP2 SSTORE SWAP2 MLOAD SWAP2 DUP3 MSTORE PUSH32 0x17307EAB39AB6107E8899845AD3D59BD9653F200F220920489CA2B5937696C31 SWAP2 ADD PUSH2 0x1A04 JUMP JUMPDEST PUSH2 0x1AE5 DUP5 DUP5 DUP5 PUSH2 0x15C9 JUMP JUMPDEST PUSH2 0x1AF1 DUP5 DUP5 DUP5 DUP5 PUSH2 0x2632 JUMP JUMPDEST PUSH2 0x9A1 JUMPI PUSH1 0x40 MLOAD PUSH3 0x461BCD PUSH1 0xE5 SHL DUP2 MSTORE PUSH1 0x20 PUSH1 0x4 DUP3 ADD MSTORE PUSH1 0x27 PUSH1 0x24 DUP3 ADD MSTORE PUSH32 0x455243333532353A207472616E7366657220746F206E6F6E2045524337323152 PUSH1 0x44 DUP3 ADD MSTORE PUSH7 0x32B1B2B4BB32B9 PUSH1 0xC9 SHL PUSH1 0x64 DUP3 ADD MSTORE PUSH1 0x84 ADD PUSH2 0x74F JUMP JUMPDEST PUSH1 0x60 PUSH2 0x7A7 PUSH1 0x1 PUSH1 0x1 PUSH1 0xA0 SHL SUB DUP4 AND PUSH1 0x14 PUSH2 0x2777 JUMP JUMPDEST PUSH0 PUSH2 0x1B6D DUP4 PUSH2 0xD67 JUMP JUMPDEST SWAP1 POP PUSH0 PUSH2 0x1B79 DUP5 PUSH2 0xAE2 JUMP JUMPDEST SWAP1 POP PUSH2 0x1B89 PUSH0 DUP4 PUSH0 DUP8 DUP6 DUP9 PUSH2 0x228C JUMP JUMPDEST PUSH2 0x1B93 DUP5 DUP5 PUSH2 0x28E9 JUMP JUMPDEST PUSH2 0x9A1 PUSH0 DUP4 PUSH0 DUP8 DUP6 DUP9 PUSH2 0x24FF JUMP JUMPDEST PUSH0 PUSH1 0x1 PUSH1 0x1 PUSH1 0xE0 SHL SUB NOT DUP3 AND PUSH4 0x1FFC9A7 PUSH1 0xE0 SHL EQ DUP1 PUSH2 0x1BD1 JUMPI POP PUSH1 0x1 PUSH1 0x1 PUSH1 0xE0 SHL SUB NOT DUP3 AND PUSH4 0x354D605 PUSH1 0xE6 SHL EQ JUMPDEST DUP1 PUSH2 0x1BEC JUMPI POP PUSH1 0x1 PUSH1 0x1 PUSH1 0xE0 SHL SUB NOT DUP3 AND PUSH4 0x80AC58CD PUSH1 0xE0 SHL EQ JUMPDEST DUP1 PUSH2 0x1C07 JUMPI POP PUSH1 0x1 PUSH1 0x1 PUSH1 0xE0 SHL SUB NOT DUP3 AND PUSH4 0x70B00481 PUSH1 0xE1 SHL EQ JUMPDEST DUP1 PUSH2 0x1C22 JUMPI POP PUSH1 0x1 PUSH1 0x1 PUSH1 0xE0 SHL SUB NOT DUP3 AND PUSH4 0x780E9D63 PUSH1 0xE0 SHL EQ JUMPDEST DUP1 PUSH2 0x7A7 JUMPI POP PUSH1 0x1 PUSH1 0x1 PUSH1 0xE0 SHL SUB NOT DUP3 AND PUSH4 0x5B5E139F PUSH1 0xE0 SHL EQ SWAP3 SWAP2 POP POP JUMP JUMPDEST PUSH1 0x5 SLOAD PUSH0 SWAP1 ISZERO DUP1 ISZERO SWAP1 PUSH2 0x7A7 JUMPI POP PUSH0 DUP3 DUP2 MSTORE PUSH1 0x6 PUSH1 0x20 MSTORE PUSH1 0x40 SWAP1 KECCAK256 SLOAD PUSH1 0x5 DUP1 SLOAD DUP5 SWAP3 SWAP1 DUP2 LT PUSH2 0x1C73 JUMPI PUSH2 0x1C73 PUSH2 0x3507 JUMP JUMPDEST SWAP1 PUSH0 MSTORE PUSH1 0x20 PUSH0 KECCAK256 SWAP1 PUSH1 0x6 MUL ADD PUSH0 ADD SLOAD EQ SWAP3 SWAP2 POP POP JUMP JUMPDEST PUSH0 DUP1 PUSH19 0x184F03E93FF9F4DAA797ED6E38ED64BF6A1F01 PUSH1 0x40 SHL DUP4 LT PUSH2 0x1CC7 JUMPI PUSH19 0x184F03E93FF9F4DAA797ED6E38ED64BF6A1F01 PUSH1 0x40 SHL DUP4 DIV SWAP3 POP PUSH1 0x40 ADD JUMPDEST PUSH14 0x4EE2D6D415B85ACEF8100000000 DUP4 LT PUSH2 0x1CF3 JUMPI PUSH14 0x4EE2D6D415B85ACEF8100000000 DUP4 DIV SWAP3 POP PUSH1 0x20 ADD JUMPDEST PUSH7 0x2386F26FC10000 DUP4 LT PUSH2 0x1D11 JUMPI PUSH7 0x2386F26FC10000 DUP4 DIV SWAP3 POP PUSH1 0x10 ADD JUMPDEST PUSH4 0x5F5E100 DUP4 LT PUSH2 0x1D29 JUMPI PUSH4 0x5F5E100 DUP4 DIV SWAP3 POP PUSH1 0x8 ADD JUMPDEST PUSH2 0x2710 DUP4 LT PUSH2 0x1D3D JUMPI PUSH2 0x2710 DUP4 DIV SWAP3 POP PUSH1 0x4 ADD JUMPDEST PUSH1 0x64 DUP4 LT PUSH2 0x1D4F JUMPI PUSH1 0x64 DUP4 DIV SWAP3 POP PUSH1 0x2 ADD JUMPDEST PUSH1 0xA DUP4 LT PUSH2 0x7A7 JUMPI PUSH1 0x1 ADD SWAP3 SWAP2 POP POP JUMP JUMPDEST PUSH0 PUSH2 0x1D6B DUP4 DUP6 PUSH2 0x1195 JUMP JUMPDEST SWAP1 POP PUSH2 0x1D77 DUP5 DUP5 PUSH2 0x151E JUMP JUMPDEST ISZERO DUP1 ISZERO PUSH2 0x1D85 JUMPI POP PUSH0 NOT DUP2 EQ ISZERO JUMPDEST ISZERO PUSH2 0x9A1 JUMPI DUP2 DUP2 LT ISZERO PUSH2 0x1DDA JUMPI PUSH1 0x40 MLOAD PUSH3 0x461BCD PUSH1 0xE5 SHL DUP2 MSTORE PUSH1 0x20 PUSH1 0x4 DUP3 ADD MSTORE PUSH1 0x1F PUSH1 0x24 DUP3 ADD MSTORE PUSH32 0x455243333532353A20696E73756666696369656E7420616C6C6F77616E636500 PUSH1 0x44 DUP3 ADD MSTORE PUSH1 0x64 ADD PUSH2 0x74F JUMP JUMPDEST PUSH2 0x9A1 DUP4 DUP6 PUSH2 0x1DE9 DUP6 DUP6 PUSH2 0x3814 JUMP JUMPDEST PUSH2 0x18DC JUMP JUMPDEST PUSH0 PUSH2 0x7A7 PUSH2 0x2273 JUMP JUMPDEST PUSH1 0x1 PUSH1 0x1 PUSH1 0xA0 SHL SUB DUP5 AND PUSH2 0x1E57 JUMPI PUSH1 0x40 MLOAD PUSH3 0x461BCD PUSH1 0xE5 SHL DUP2 MSTORE PUSH1 0x20 PUSH1 0x4 DUP3 ADD MSTORE PUSH1 0x21 PUSH1 0x24 DUP3 ADD MSTORE PUSH32 0x455243333532353A206D696E7420746F20746865207A65726F20616464726573 PUSH1 0x44 DUP3 ADD MSTORE PUSH1 0x73 PUSH1 0xF8 SHL PUSH1 0x64 DUP3 ADD MSTORE PUSH1 0x84 ADD PUSH2 0x74F JUMP JUMPDEST DUP3 PUSH0 SUB PUSH2 0x1EB0 JUMPI PUSH1 0x40 MLOAD PUSH3 0x461BCD PUSH1 0xE5 SHL DUP2 MSTORE PUSH1 0x20 PUSH1 0x4 DUP3 ADD MSTORE PUSH1 0x21 PUSH1 0x24 DUP3 ADD MSTORE PUSH32 0x455243333532353A2063616E6E6F74206D696E74207A65726F20746F6B656E49 PUSH1 0x44 DUP3 ADD MSTORE PUSH1 0x19 PUSH1 0xFA SHL PUSH1 0x64 DUP3 ADD MSTORE PUSH1 0x84 ADD PUSH2 0x74F JUMP JUMPDEST PUSH2 0x1EB9 DUP4 PUSH2 0x1C42 JUMP JUMPDEST ISZERO PUSH2 0x1F06 JUMPI PUSH1 0x40 MLOAD PUSH3 0x461BCD PUSH1 0xE5 SHL DUP2 MSTORE PUSH1 0x20 PUSH1 0x4 DUP3 ADD MSTORE PUSH1 0x1D PUSH1 0x24 DUP3 ADD MSTORE PUSH32 0x455243333532353A20746F6B656E20616C7265616479206D696E746564000000 PUSH1 0x44 DUP3 ADD MSTORE PUSH1 0x64 ADD PUSH2 0x74F JUMP JUMPDEST PUSH2 0x1F14 PUSH0 DUP6 PUSH0 DUP7 DUP7 DUP7 PUSH2 0x228C JUMP JUMPDEST PUSH2 0x1F1F DUP5 DUP5 DUP5 PUSH2 0x2969 JUMP JUMPDEST PUSH2 0x1F29 DUP4 DUP3 PUSH2 0x28E9 JUMP JUMPDEST PUSH2 0x9A1 PUSH0 DUP6 PUSH0 DUP7 DUP7 DUP7 PUSH2 0x24FF JUMP JUMPDEST PUSH2 0x1F40 DUP4 PUSH2 0x1C42 JUMP JUMPDEST PUSH2 0x1F9C JUMPI PUSH1 0x40 MLOAD PUSH3 0x461BCD PUSH1 0xE5 SHL DUP2 MSTORE PUSH1 0x20 PUSH1 0x4 DUP3 ADD MSTORE PUSH1 0x27 PUSH1 0x24 DUP3 ADD MSTORE PUSH32 0x455243333532353A207472616E736665722066726F6D20696E76616C69642074 PUSH1 0x44 DUP3 ADD MSTORE PUSH7 0x1BDAD95B881251 PUSH1 0xCA SHL PUSH1 0x64 DUP3 ADD MSTORE PUSH1 0x84 ADD PUSH2 0x74F JUMP JUMPDEST PUSH2 0x1FA5 DUP3 PUSH2 0x1C42 JUMP JUMPDEST PUSH2 0x1FFF JUMPI PUSH1 0x40 MLOAD PUSH3 0x461BCD PUSH1 0xE5 SHL DUP2 MSTORE PUSH1 0x20 PUSH1 0x4 DUP3 ADD MSTORE PUSH1 0x25 PUSH1 0x24 DUP3 ADD MSTORE PUSH32 0x455243333532353A207472616E7366657220746F20696E76616C696420746F6B PUSH1 0x44 DUP3 ADD MSTORE PUSH5 0x195B881251 PUSH1 0xDA SHL PUSH1 0x64 DUP3 ADD MSTORE PUSH1 0x84 ADD PUSH2 0x74F JUMP JUMPDEST PUSH0 DUP4 DUP2 MSTORE PUSH1 0x6 PUSH1 0x20 MSTORE PUSH1 0x40 DUP2 KECCAK256 SLOAD PUSH1 0x5 DUP1 SLOAD SWAP1 SWAP2 SWAP1 DUP2 LT PUSH2 0x2022 JUMPI PUSH2 0x2022 PUSH2 0x3507 JUMP JUMPDEST SWAP1 PUSH0 MSTORE PUSH1 0x20 PUSH0 KECCAK256 SWAP1 PUSH1 0x6 MUL ADD SWAP1 POP PUSH0 PUSH1 0x5 PUSH1 0x6 PUSH0 DUP7 DUP2 MSTORE PUSH1 0x20 ADD SWAP1 DUP2 MSTORE PUSH1 0x20 ADD PUSH0 KECCAK256 SLOAD DUP2 SLOAD DUP2 LT PUSH2 0x2055 JUMPI PUSH2 0x2055 PUSH2 0x3507 JUMP JUMPDEST SWAP1 PUSH0 MSTORE PUSH1 0x20 PUSH0 KECCAK256 SWAP1 PUSH1 0x6 MUL ADD SWAP1 POP DUP3 DUP3 PUSH1 0x2 ADD SLOAD LT ISZERO PUSH2 0x20CA JUMPI PUSH1 0x40 MLOAD PUSH3 0x461BCD PUSH1 0xE5 SHL DUP2 MSTORE PUSH1 0x20 PUSH1 0x4 DUP3 ADD MSTORE PUSH1 0x2A PUSH1 0x24 DUP3 ADD MSTORE PUSH32 0x455243333532353A20696E73756666696369656E742062616C616E636520666F PUSH1 0x44 DUP3 ADD MSTORE PUSH10 0x39103A3930B739B332B9 PUSH1 0xB1 SHL PUSH1 0x64 DUP3 ADD MSTORE PUSH1 0x84 ADD PUSH2 0x74F JUMP JUMPDEST DUP1 PUSH1 0x1 ADD SLOAD DUP3 PUSH1 0x1 ADD SLOAD EQ PUSH2 0x2138 JUMPI PUSH1 0x40 MLOAD PUSH3 0x461BCD PUSH1 0xE5 SHL DUP2 MSTORE PUSH1 0x20 PUSH1 0x4 DUP3 ADD MSTORE PUSH1 0x2E PUSH1 0x24 DUP3 ADD MSTORE PUSH32 0x455243333532353A207472616E7366657220746F20746F6B656E207769746820 PUSH1 0x44 DUP3 ADD MSTORE PUSH14 0x191A5999995C995B9D081CDB1BDD PUSH1 0x92 SHL PUSH1 0x64 DUP3 ADD MSTORE PUSH1 0x84 ADD PUSH2 0x74F JUMP JUMPDEST PUSH1 0x3 DUP1 DUP4 ADD SLOAD SWAP1 DUP3 ADD SLOAD PUSH1 0x1 DUP5 ADD SLOAD PUSH2 0x2163 SWAP3 PUSH1 0x1 PUSH1 0x1 PUSH1 0xA0 SHL SUB SWAP1 DUP2 AND SWAP3 AND SWAP1 DUP9 SWAP1 DUP9 SWAP1 DUP9 PUSH2 0x228C JUMP JUMPDEST DUP3 DUP3 PUSH1 0x2 ADD PUSH0 DUP3 DUP3 SLOAD PUSH2 0x2176 SWAP2 SWAP1 PUSH2 0x3814 JUMP JUMPDEST SWAP3 POP POP DUP2 SWAP1 SSTORE POP DUP3 DUP2 PUSH1 0x2 ADD PUSH0 DUP3 DUP3 SLOAD PUSH2 0x2190 SWAP2 SWAP1 PUSH2 0x3827 JUMP JUMPDEST SWAP1 SWAP2 SSTORE POP POP PUSH1 0x40 MLOAD DUP4 DUP2 MSTORE DUP5 SWAP1 DUP7 SWAP1 PUSH32 0xB2AAC84F3EC956911FD78EAE5311062972FF949F38412E8DA39069D9F068CC6 SWAP1 PUSH1 0x20 ADD PUSH1 0x40 MLOAD DUP1 SWAP2 SUB SWAP1 LOG3 PUSH1 0x3 DUP1 DUP4 ADD SLOAD SWAP1 DUP3 ADD SLOAD PUSH1 0x1 DUP5 ADD SLOAD PUSH2 0x21F7 SWAP3 PUSH1 0x1 PUSH1 0x1 PUSH1 0xA0 SHL SUB SWAP1 DUP2 AND SWAP3 AND SWAP1 DUP9 SWAP1 DUP9 SWAP1 DUP9 PUSH2 0x24FF JUMP JUMPDEST PUSH2 0x2211 DUP6 DUP6 DUP6 PUSH1 0x40 MLOAD DUP1 PUSH1 0x20 ADD PUSH1 0x40 MSTORE DUP1 PUSH0 DUP2 MSTORE POP PUSH2 0x2A2C JUMP JUMPDEST PUSH2 0x173E JUMPI PUSH1 0x40 MLOAD PUSH3 0x461BCD PUSH1 0xE5 SHL DUP2 MSTORE PUSH1 0x20 PUSH1 0x4 DUP3 ADD MSTORE PUSH1 0x2D PUSH1 0x24 DUP3 ADD MSTORE PUSH32 0x455243333532353A207472616E736665722072656A6563746564206279204552 PUSH1 0x44 DUP3 ADD MSTORE PUSH13 0x21999A991AA932B1B2B4BB32B9 PUSH1 0x99 SHL PUSH1 0x64 DUP3 ADD MSTORE PUSH1 0x84 ADD PUSH2 0x74F JUMP JUMPDEST PUSH1 0x3 DUP1 SLOAD PUSH0 SWAP2 DUP3 PUSH2 0x2283 DUP4 PUSH2 0x383A JUMP JUMPDEST SWAP2 SWAP1 POP SSTORE SWAP1 POP SWAP1 JUMP JUMPDEST PUSH1 0x1 PUSH1 0x1 PUSH1 0xA0 SHL SUB DUP7 AND ISZERO DUP1 ISZERO PUSH2 0x22A1 JUMPI POP DUP4 ISZERO JUMPDEST DUP1 ISZERO PUSH2 0x22B3 JUMPI POP PUSH2 0x22B1 DUP3 PUSH2 0x175B JUMP JUMPDEST ISZERO JUMPDEST ISZERO PUSH2 0x22C1 JUMPI PUSH2 0x22C1 DUP3 PUSH2 0x2B96 JUMP JUMPDEST POP POP POP POP POP POP JUMP JUMPDEST PUSH0 DUP2 DUP2 MSTORE PUSH1 0x6 PUSH1 0x20 MSTORE PUSH1 0x40 DUP2 KECCAK256 SLOAD PUSH1 0x5 DUP1 SLOAD SWAP1 SWAP2 SWAP1 DUP2 LT PUSH2 0x22EC JUMPI PUSH2 0x22EC PUSH2 0x3507 JUMP JUMPDEST PUSH0 SWAP2 DUP3 MSTORE PUSH1 0x20 DUP3 KECCAK256 PUSH1 0x5 PUSH1 0x6 SWAP1 SWAP3 MUL ADD SWAP1 DUP2 ADD SLOAD SWAP1 SWAP3 POP SWAP1 JUMPDEST DUP2 DUP2 LT ISZERO PUSH2 0x2357 JUMPI PUSH0 DUP4 PUSH1 0x5 ADD DUP3 DUP2 SLOAD DUP2 LT PUSH2 0x2323 JUMPI PUSH2 0x2323 PUSH2 0x3507 JUMP JUMPDEST PUSH0 SWAP2 DUP3 MSTORE PUSH1 0x20 DUP1 DUP4 KECCAK256 SWAP1 SWAP2 ADD SLOAD DUP8 DUP4 MSTORE PUSH1 0x4 DUP3 MSTORE PUSH1 0x40 DUP1 DUP5 KECCAK256 PUSH1 0x1 PUSH1 0x1 PUSH1 0xA0 SHL SUB SWAP1 SWAP3 AND DUP5 MSTORE SWAP2 MSTORE DUP2 KECCAK256 SSTORE POP PUSH1 0x1 ADD PUSH2 0x2305 JUMP JUMPDEST POP PUSH2 0xADD PUSH1 0x5 DUP4 ADD PUSH0 PUSH2 0x2FEF JUMP JUMPDEST PUSH0 DUP2 DUP2 MSTORE PUSH1 0x6 PUSH1 0x20 MSTORE PUSH1 0x40 DUP2 KECCAK256 SLOAD PUSH1 0x5 DUP1 SLOAD SWAP1 SWAP2 SWAP1 DUP2 LT PUSH2 0x2388 JUMPI PUSH2 0x2388 PUSH2 0x3507 JUMP JUMPDEST PUSH0 SWAP2 DUP3 MSTORE PUSH1 0x20 DUP1 DUP4 KECCAK256 PUSH1 0x6 SWAP3 SWAP1 SWAP3 MUL SWAP1 SWAP2 ADD PUSH1 0x3 ADD DUP1 SLOAD PUSH1 0x1 PUSH1 0x1 PUSH1 0xA0 SHL SUB NOT AND PUSH1 0x1 PUSH1 0x1 PUSH1 0xA0 SHL SUB SWAP5 DUP6 AND OR SWAP1 SSTORE SWAP2 DUP5 AND DUP2 MSTORE PUSH1 0x7 SWAP1 SWAP2 MSTORE PUSH1 0x40 DUP2 KECCAK256 DUP1 SLOAD SWAP1 SWAP2 SWAP1 PUSH2 0x23D6 SWAP1 PUSH1 0x1 SWAP1 PUSH2 0x3814 JUMP JUMPDEST SWAP1 POP PUSH0 DUP3 PUSH0 ADD DUP3 DUP2 SLOAD DUP2 LT PUSH2 0x23ED JUMPI PUSH2 0x23ED PUSH2 0x3507 JUMP JUMPDEST SWAP1 PUSH0 MSTORE PUSH1 0x20 PUSH0 KECCAK256 ADD SLOAD SWAP1 POP PUSH0 DUP4 PUSH1 0x1 ADD PUSH0 DUP7 DUP2 MSTORE PUSH1 0x20 ADD SWAP1 DUP2 MSTORE PUSH1 0x20 ADD PUSH0 KECCAK256 SLOAD SWAP1 POP DUP2 DUP5 PUSH0 ADD DUP3 DUP2 SLOAD DUP2 LT PUSH2 0x2424 JUMPI PUSH2 0x2424 PUSH2 0x3507 JUMP JUMPDEST PUSH0 SWAP2 DUP3 MSTORE PUSH1 0x20 DUP1 DUP4 KECCAK256 SWAP1 SWAP2 ADD SWAP3 SWAP1 SWAP3 SSTORE DUP4 DUP2 MSTORE PUSH1 0x1 DUP7 ADD SWAP1 SWAP2 MSTORE PUSH1 0x40 DUP1 DUP3 KECCAK256 DUP4 SWAP1 SSTORE DUP7 DUP3 MSTORE DUP2 KECCAK256 SSTORE DUP4 SLOAD DUP5 SWAP1 DUP1 PUSH2 0x245D JUMPI PUSH2 0x245D PUSH2 0x3852 JUMP JUMPDEST PUSH1 0x1 SWAP1 SUB DUP2 DUP2 SWAP1 PUSH0 MSTORE PUSH1 0x20 PUSH0 KECCAK256 ADD PUSH0 SWAP1 SSTORE SWAP1 SSTORE POP POP POP POP POP POP JUMP JUMPDEST PUSH0 DUP2 DUP2 MSTORE PUSH1 0x6 PUSH1 0x20 MSTORE PUSH1 0x40 SWAP1 KECCAK256 SLOAD PUSH1 0x5 DUP1 SLOAD DUP5 SWAP3 SWAP1 DUP2 LT PUSH2 0x249B JUMPI PUSH2 0x249B PUSH2 0x3507 JUMP JUMPDEST PUSH0 SWAP2 DUP3 MSTORE PUSH1 0x20 DUP1 DUP4 KECCAK256 PUSH1 0x6 SWAP3 SWAP1 SWAP3 MUL SWAP1 SWAP2 ADD PUSH1 0x3 ADD DUP1 SLOAD PUSH1 0x1 PUSH1 0x1 PUSH1 0xA0 SHL SUB NOT AND PUSH1 0x1 PUSH1 0x1 PUSH1 0xA0 SHL SUB SWAP5 DUP6 AND OR SWAP1 SSTORE SWAP4 SWAP1 SWAP2 AND DUP2 MSTORE PUSH1 0x7 DUP1 DUP5 MSTORE PUSH1 0x40 DUP1 DUP4 KECCAK256 DUP1 SLOAD DUP6 DUP6 MSTORE PUSH1 0x1 DUP3 DUP2 ADD DUP9 MSTORE SWAP3 DUP6 KECCAK256 DUP2 SWAP1 SSTORE SWAP3 DUP7 MSTORE SWAP1 DUP3 ADD DUP2 SSTORE DUP3 MSTORE SWAP3 SWAP1 KECCAK256 SWAP1 SWAP2 ADD SSTORE JUMP JUMPDEST PUSH1 0x1 PUSH1 0x1 PUSH1 0xA0 SHL SUB DUP7 AND ISZERO DUP1 ISZERO PUSH2 0x2514 JUMPI POP DUP4 ISZERO JUMPDEST DUP1 ISZERO PUSH2 0x2527 JUMPI POP PUSH2 0x2525 DUP3 DUP5 PUSH2 0x2C5B JUMP JUMPDEST ISZERO JUMPDEST ISZERO PUSH2 0x253B JUMPI PUSH2 0x2536 DUP3 DUP5 PUSH2 0x2CDF JUMP JUMPDEST PUSH2 0x22C1 JUMP JUMPDEST PUSH1 0x1 PUSH1 0x1 PUSH1 0xA0 SHL SUB DUP6 AND ISZERO DUP1 ISZERO PUSH2 0x2550 JUMPI POP DUP3 ISZERO JUMPDEST DUP1 ISZERO PUSH2 0x2561 JUMPI POP PUSH2 0x2561 DUP3 DUP6 PUSH2 0x2C5B JUMP JUMPDEST ISZERO PUSH2 0x2536 JUMPI PUSH2 0x2536 DUP3 DUP6 PUSH2 0x2D3E JUMP JUMPDEST PUSH0 DUP2 DUP2 MSTORE PUSH1 0x6 PUSH1 0x20 MSTORE PUSH1 0x40 DUP2 KECCAK256 SLOAD PUSH1 0x5 DUP1 SLOAD DUP4 SWAP3 SWAP1 DUP2 LT PUSH2 0x2593 JUMPI PUSH2 0x2593 PUSH2 0x3507 JUMP JUMPDEST PUSH0 SWAP2 DUP3 MSTORE PUSH1 0x20 DUP3 KECCAK256 PUSH1 0x5 PUSH1 0x6 SWAP1 SWAP3 MUL ADD ADD SLOAD SWAP2 POP JUMPDEST DUP2 DUP2 LT ISZERO PUSH2 0x2628 JUMPI PUSH0 DUP5 DUP2 MSTORE PUSH1 0x6 PUSH1 0x20 MSTORE PUSH1 0x40 SWAP1 KECCAK256 SLOAD PUSH1 0x5 DUP1 SLOAD PUSH1 0x1 PUSH1 0x1 PUSH1 0xA0 SHL SUB DUP9 AND SWAP3 SWAP1 DUP2 LT PUSH2 0x25DC JUMPI PUSH2 0x25DC PUSH2 0x3507 JUMP JUMPDEST SWAP1 PUSH0 MSTORE PUSH1 0x20 PUSH0 KECCAK256 SWAP1 PUSH1 0x6 MUL ADD PUSH1 0x5 ADD DUP3 DUP2 SLOAD DUP2 LT PUSH2 0x25FC JUMPI PUSH2 0x25FC PUSH2 0x3507 JUMP JUMPDEST PUSH0 SWAP2 DUP3 MSTORE PUSH1 0x20 SWAP1 SWAP2 KECCAK256 ADD SLOAD PUSH1 0x1 PUSH1 0x1 PUSH1 0xA0 SHL SUB AND SUB PUSH2 0x2620 JUMPI PUSH1 0x1 SWAP3 POP POP POP PUSH2 0x7A7 JUMP JUMPDEST PUSH1 0x1 ADD PUSH2 0x25A8 JUMP JUMPDEST POP PUSH0 SWAP5 SWAP4 POP POP POP POP JUMP JUMPDEST PUSH0 DUP4 EXTCODESIZE PUSH4 0xFFFFFFFF AND ISZERO PUSH2 0x276C JUMPI PUSH1 0x40 MLOAD PUSH4 0xA85BD01 PUSH1 0xE1 SHL DUP2 MSTORE PUSH1 0x1 PUSH1 0x1 PUSH1 0xA0 SHL SUB DUP6 AND SWAP1 PUSH4 0x150B7A02 SWAP1 PUSH2 0x2672 SWAP1 CALLER SWAP1 DUP10 SWAP1 DUP9 SWAP1 DUP9 SWAP1 PUSH1 0x4 ADD PUSH2 0x3866 JUMP JUMPDEST PUSH1 0x20 PUSH1 0x40 MLOAD DUP1 DUP4 SUB DUP2 PUSH0 DUP8 GAS CALL SWAP3 POP POP POP DUP1 ISZERO PUSH2 0x26AC JUMPI POP PUSH1 0x40 DUP1 MLOAD PUSH1 0x1F RETURNDATASIZE SWAP1 DUP2 ADD PUSH1 0x1F NOT AND DUP3 ADD SWAP1 SWAP3 MSTORE PUSH2 0x26A9 SWAP2 DUP2 ADD SWAP1 PUSH2 0x38A2 JUMP JUMPDEST PUSH1 0x1 JUMPDEST PUSH2 0x2752 JUMPI RETURNDATASIZE DUP1 DUP1 ISZERO PUSH2 0x26D9 JUMPI PUSH1 0x40 MLOAD SWAP2 POP PUSH1 0x1F NOT PUSH1 0x3F RETURNDATASIZE ADD AND DUP3 ADD PUSH1 0x40 MSTORE RETURNDATASIZE DUP3 MSTORE RETURNDATASIZE PUSH0 PUSH1 0x20 DUP5 ADD RETURNDATACOPY PUSH2 0x26DE JUMP JUMPDEST PUSH1 0x60 SWAP2 POP JUMPDEST POP DUP1 MLOAD PUSH0 SUB PUSH2 0x274A JUMPI PUSH1 0x40 MLOAD PUSH3 0x461BCD PUSH1 0xE5 SHL DUP2 MSTORE PUSH1 0x20 PUSH1 0x4 DUP3 ADD MSTORE PUSH1 0x32 PUSH1 0x24 DUP3 ADD MSTORE PUSH32 0x4552433732313A207472616E7366657220746F206E6F6E204552433732315265 PUSH1 0x44 DUP3 ADD MSTORE PUSH18 0x31B2B4BB32B91034B6B83632B6B2B73A32B9 PUSH1 0x71 SHL PUSH1 0x64 DUP3 ADD MSTORE PUSH1 0x84 ADD PUSH2 0x74F JUMP JUMPDEST DUP1 MLOAD DUP2 PUSH1 0x20 ADD REVERT JUMPDEST PUSH1 0x1 PUSH1 0x1 PUSH1 0xE0 SHL SUB NOT AND PUSH4 0xA85BD01 PUSH1 0xE1 SHL EQ SWAP1 POP PUSH2 0xA91 JUMP JUMPDEST POP PUSH1 0x1 SWAP5 SWAP4 POP POP POP POP JUMP JUMPDEST PUSH1 0x60 DUP3 PUSH0 PUSH2 0x2786 DUP5 PUSH1 0x2 PUSH2 0x38BD JUMP JUMPDEST PUSH2 0x2791 SWAP1 PUSH1 0x2 PUSH2 0x3827 JUMP JUMPDEST PUSH8 0xFFFFFFFFFFFFFFFF DUP2 GT ISZERO PUSH2 0x27A9 JUMPI PUSH2 0x27A9 PUSH2 0x32CB JUMP JUMPDEST PUSH1 0x40 MLOAD SWAP1 DUP1 DUP3 MSTORE DUP1 PUSH1 0x1F ADD PUSH1 0x1F NOT AND PUSH1 0x20 ADD DUP3 ADD PUSH1 0x40 MSTORE DUP1 ISZERO PUSH2 0x27D3 JUMPI PUSH1 0x20 DUP3 ADD DUP2 DUP1 CALLDATASIZE DUP4 CALLDATACOPY ADD SWAP1 POP JUMPDEST POP SWAP1 POP PUSH1 0x3 PUSH1 0xFC SHL DUP2 PUSH0 DUP2 MLOAD DUP2 LT PUSH2 0x27ED JUMPI PUSH2 0x27ED PUSH2 0x3507 JUMP JUMPDEST PUSH1 0x20 ADD ADD SWAP1 PUSH1 0x1 PUSH1 0x1 PUSH1 0xF8 SHL SUB NOT AND SWAP1 DUP2 PUSH0 BYTE SWAP1 MSTORE8 POP PUSH1 0xF PUSH1 0xFB SHL DUP2 PUSH1 0x1 DUP2 MLOAD DUP2 LT PUSH2 0x281B JUMPI PUSH2 0x281B PUSH2 0x3507 JUMP JUMPDEST PUSH1 0x20 ADD ADD SWAP1 PUSH1 0x1 PUSH1 0x1 PUSH1 0xF8 SHL SUB NOT AND SWAP1 DUP2 PUSH0 BYTE SWAP1 MSTORE8 POP PUSH0 PUSH2 0x283D DUP6 PUSH1 0x2 PUSH2 0x38BD JUMP JUMPDEST PUSH2 0x2848 SWAP1 PUSH1 0x1 PUSH2 0x3827 JUMP JUMPDEST SWAP1 POP JUMPDEST PUSH1 0x1 DUP2 GT ISZERO PUSH2 0x28BF JUMPI PUSH16 0x181899199A1A9B1B9C1CB0B131B232B3 PUSH1 0x81 SHL DUP4 PUSH1 0xF AND PUSH1 0x10 DUP2 LT PUSH2 0x287C JUMPI PUSH2 0x287C PUSH2 0x3507 JUMP JUMPDEST BYTE PUSH1 0xF8 SHL DUP3 DUP3 DUP2 MLOAD DUP2 LT PUSH2 0x2892 JUMPI PUSH2 0x2892 PUSH2 0x3507 JUMP JUMPDEST PUSH1 0x20 ADD ADD SWAP1 PUSH1 0x1 PUSH1 0x1 PUSH1 0xF8 SHL SUB NOT AND SWAP1 DUP2 PUSH0 BYTE SWAP1 MSTORE8 POP PUSH1 0x4 SWAP3 SWAP1 SWAP3 SHR SWAP2 PUSH2 0x28B8 DUP2 PUSH2 0x38D4 JUMP JUMPDEST SWAP1 POP PUSH2 0x284B JUMP JUMPDEST POP DUP2 ISZERO PUSH2 0xA91 JUMPI PUSH1 0x40 MLOAD PUSH4 0xE22E27EB PUSH1 0xE0 SHL DUP2 MSTORE PUSH1 0x4 DUP2 ADD DUP7 SWAP1 MSTORE PUSH1 0x24 DUP2 ADD DUP6 SWAP1 MSTORE PUSH1 0x44 ADD PUSH2 0x74F JUMP JUMPDEST PUSH0 DUP3 DUP2 MSTORE PUSH1 0x6 PUSH1 0x20 MSTORE PUSH1 0x40 SWAP1 KECCAK256 SLOAD PUSH1 0x5 DUP1 SLOAD DUP4 SWAP3 SWAP1 DUP2 LT PUSH2 0x290C JUMPI PUSH2 0x290C PUSH2 0x3507 JUMP JUMPDEST SWAP1 PUSH0 MSTORE PUSH1 0x20 PUSH0 KECCAK256 SWAP1 PUSH1 0x6 MUL ADD PUSH1 0x2 ADD PUSH0 DUP3 DUP3 SLOAD PUSH2 0x2929 SWAP2 SWAP1 PUSH2 0x3827 JUMP JUMPDEST SWAP1 SWAP2 SSTORE POP POP PUSH1 0x40 MLOAD DUP2 DUP2 MSTORE DUP3 SWAP1 PUSH0 SWAP1 PUSH32 0xB2AAC84F3EC956911FD78EAE5311062972FF949F38412E8DA39069D9F068CC6 SWAP1 PUSH1 0x20 ADD PUSH1 0x40 MLOAD DUP1 SWAP2 SUB SWAP1 LOG3 POP POP JUMP JUMPDEST PUSH1 0x40 DUP1 MLOAD PUSH1 0xC0 DUP2 ADD DUP3 MSTORE DUP4 DUP2 MSTORE PUSH1 0x20 DUP1 DUP3 ADD DUP5 SWAP1 MSTORE PUSH0 DUP3 DUP5 ADD DUP2 SWAP1 MSTORE PUSH1 0x1 PUSH1 0x1 PUSH1 0xA0 SHL SUB DUP8 AND PUSH1 0x60 DUP5 ADD MSTORE PUSH1 0x80 DUP4 ADD DUP2 SWAP1 MSTORE DUP4 MLOAD DUP2 DUP2 MSTORE SWAP2 DUP3 ADD SWAP1 SWAP4 MSTORE PUSH1 0xA0 DUP3 ADD MSTORE SWAP1 POP PUSH2 0x29B6 DUP2 PUSH2 0x2E1D JUMP JUMPDEST PUSH2 0x29C0 DUP5 DUP5 PUSH2 0x2478 JUMP JUMPDEST PUSH1 0x40 MLOAD DUP4 SWAP1 PUSH1 0x1 PUSH1 0x1 PUSH1 0xA0 SHL SUB DUP7 AND SWAP1 PUSH0 SWAP1 PUSH32 0xDDF252AD1BE2C89B69C2B068FC378DAA952BA7F163C4A11628F55A4DF523B3EF SWAP1 DUP3 SWAP1 LOG4 DUP2 PUSH0 DUP5 PUSH32 0xE4F48C240D3B994948AA54F3E2F5FCA59263DFE1D52B6E4CF39A5D249B5CCB65 PUSH1 0x40 MLOAD PUSH1 0x40 MLOAD DUP1 SWAP2 SUB SWAP1 LOG4 POP POP POP POP JUMP JUMPDEST PUSH0 DUP1 PUSH2 0x2A37 DUP6 PUSH2 0xD67 JUMP JUMPDEST SWAP1 POP DUP1 EXTCODESIZE PUSH4 0xFFFFFFFF AND ISZERO PUSH2 0x2B8C JUMPI PUSH1 0x40 MLOAD PUSH4 0x1FFC9A7 PUSH1 0xE0 SHL DUP2 MSTORE PUSH3 0x9CE20B PUSH1 0xE0 SHL PUSH1 0x4 DUP3 ADD MSTORE PUSH1 0x1 PUSH1 0x1 PUSH1 0xA0 SHL SUB DUP3 AND SWAP1 PUSH4 0x1FFC9A7 SWAP1 PUSH1 0x24 ADD PUSH1 0x20 PUSH1 0x40 MLOAD DUP1 DUP4 SUB DUP2 DUP7 GAS STATICCALL SWAP3 POP POP POP DUP1 ISZERO PUSH2 0x2AAC JUMPI POP PUSH1 0x40 DUP1 MLOAD PUSH1 0x1F RETURNDATASIZE SWAP1 DUP2 ADD PUSH1 0x1F NOT AND DUP3 ADD SWAP1 SWAP3 MSTORE PUSH2 0x2AA9 SWAP2 DUP2 ADD SWAP1 PUSH2 0x38E9 JUMP JUMPDEST PUSH1 0x1 JUMPDEST PUSH2 0x2AEA JUMPI RETURNDATASIZE DUP1 DUP1 ISZERO PUSH2 0x2AD9 JUMPI PUSH1 0x40 MLOAD SWAP2 POP PUSH1 0x1F NOT PUSH1 0x3F RETURNDATASIZE ADD AND DUP3 ADD PUSH1 0x40 MSTORE RETURNDATASIZE DUP3 MSTORE RETURNDATASIZE PUSH0 PUSH1 0x20 DUP5 ADD RETURNDATACOPY PUSH2 0x2ADE JUMP JUMPDEST PUSH1 0x60 SWAP2 POP JUMPDEST POP PUSH1 0x1 SWAP3 POP POP POP PUSH2 0xA91 JUMP JUMPDEST DUP1 ISZERO PUSH2 0x2B81 JUMPI PUSH1 0x40 MLOAD PUSH3 0x9CE20B PUSH1 0xE0 SHL DUP2 MSTORE PUSH0 SWAP1 PUSH1 0x1 PUSH1 0x1 PUSH1 0xA0 SHL SUB DUP5 AND SWAP1 PUSH3 0x9CE20B SWAP1 PUSH2 0x2B24 SWAP1 CALLER SWAP1 DUP13 SWAP1 DUP13 SWAP1 DUP13 SWAP1 DUP13 SWAP1 PUSH1 0x4 ADD PUSH2 0x3904 JUMP JUMPDEST PUSH1 0x20 PUSH1 0x40 MLOAD DUP1 DUP4 SUB DUP2 PUSH0 DUP8 GAS CALL ISZERO DUP1 ISZERO PUSH2 0x2B40 JUMPI RETURNDATASIZE PUSH0 DUP1 RETURNDATACOPY RETURNDATASIZE PUSH0 REVERT JUMPDEST POP POP POP POP PUSH1 0x40 MLOAD RETURNDATASIZE PUSH1 0x1F NOT PUSH1 0x1F DUP3 ADD AND DUP3 ADD DUP1 PUSH1 0x40 MSTORE POP DUP2 ADD SWAP1 PUSH2 0x2B64 SWAP2 SWAP1 PUSH2 0x38A2 JUMP JUMPDEST PUSH1 0x1 PUSH1 0x1 PUSH1 0xE0 SHL SUB NOT AND PUSH3 0x9CE20B PUSH1 0xE0 SHL EQ SWAP4 POP PUSH2 0xA91 SWAP3 POP POP POP JUMP JUMPDEST PUSH1 0x1 SWAP3 POP POP POP PUSH2 0xA91 JUMP JUMPDEST PUSH1 0x1 SWAP2 POP POP PUSH2 0xA91 JUMP JUMPDEST PUSH2 0x2B9F DUP2 PUSH2 0x175B JUMP JUMPDEST ISZERO PUSH2 0x2BFF JUMPI PUSH1 0x40 MLOAD PUSH3 0x461BCD PUSH1 0xE5 SHL DUP2 MSTORE PUSH1 0x20 PUSH1 0x4 DUP3 ADD MSTORE PUSH1 0x2A PUSH1 0x24 DUP3 ADD MSTORE PUSH32 0x45524333353235536C6F74456E756D657261626C653A20736C6F7420616C7265 PUSH1 0x44 DUP3 ADD MSTORE PUSH10 0x61647920657869737473 PUSH1 0xB0 SHL PUSH1 0x64 DUP3 ADD MSTORE PUSH1 0x84 ADD PUSH2 0x74F JUMP JUMPDEST PUSH1 0x40 DUP1 MLOAD DUP1 DUP3 ADD DUP3 MSTORE DUP3 DUP2 MSTORE DUP2 MLOAD PUSH0 DUP1 DUP3 MSTORE PUSH1 0x20 DUP3 DUP2 ADD SWAP1 SWAP5 MSTORE SWAP3 DUP3 ADD MSTORE SWAP1 POP PUSH2 0x2C28 DUP2 PUSH2 0x2F6B JUMP JUMPDEST DUP2 PUSH0 DUP1 PUSH32 0xE4F48C240D3B994948AA54F3E2F5FCA59263DFE1D52B6E4CF39A5D249B5CCB65 PUSH1 0x40 MLOAD PUSH1 0x40 MLOAD DUP1 SWAP2 SUB SWAP1 LOG4 POP POP JUMP JUMPDEST PUSH0 DUP3 DUP2 MSTORE PUSH1 0xB PUSH1 0x20 MSTORE PUSH1 0x40 DUP2 KECCAK256 SLOAD PUSH1 0xA DUP1 SLOAD DUP4 SWAP3 SWAP1 DUP2 LT PUSH2 0x2C7E JUMPI PUSH2 0x2C7E PUSH2 0x3507 JUMP JUMPDEST SWAP1 PUSH0 MSTORE PUSH1 0x20 PUSH0 KECCAK256 SWAP1 PUSH1 0x2 MUL ADD SWAP1 POP PUSH0 DUP2 PUSH1 0x1 ADD DUP1 SLOAD SWAP1 POP GT DUP1 ISZERO PUSH2 0xA91 JUMPI POP PUSH0 DUP5 DUP2 MSTORE PUSH1 0x9 PUSH1 0x20 SWAP1 DUP2 MSTORE PUSH1 0x40 DUP1 DUP4 KECCAK256 DUP7 DUP5 MSTORE SWAP1 SWAP2 MSTORE SWAP1 KECCAK256 SLOAD PUSH1 0x1 DUP3 ADD DUP1 SLOAD DUP6 SWAP3 SWAP1 DUP2 LT PUSH2 0x2CCD JUMPI PUSH2 0x2CCD PUSH2 0x3507 JUMP JUMPDEST SWAP1 PUSH0 MSTORE PUSH1 0x20 PUSH0 KECCAK256 ADD SLOAD EQ SWAP5 SWAP4 POP POP POP POP JUMP JUMPDEST PUSH0 DUP3 DUP2 MSTORE PUSH1 0xB PUSH1 0x20 MSTORE PUSH1 0x40 DUP2 KECCAK256 SLOAD PUSH1 0xA DUP1 SLOAD SWAP1 SWAP2 SWAP1 DUP2 LT PUSH2 0x2D02 JUMPI PUSH2 0x2D02 PUSH2 0x3507 JUMP JUMPDEST PUSH0 SWAP2 DUP3 MSTORE PUSH1 0x20 DUP1 DUP4 KECCAK256 PUSH1 0x1 PUSH1 0x2 SWAP1 SWAP4 MUL ADD DUP3 ADD DUP1 SLOAD SWAP7 DUP5 MSTORE PUSH1 0x9 DUP3 MSTORE PUSH1 0x40 DUP1 DUP6 KECCAK256 DUP8 DUP7 MSTORE DUP4 MSTORE DUP5 KECCAK256 DUP8 SWAP1 SSTORE SWAP2 DUP7 ADD DUP3 SSTORE SWAP1 DUP3 MSTORE SWAP1 KECCAK256 SWAP1 SWAP3 ADD SSTORE POP JUMP JUMPDEST PUSH0 DUP3 DUP2 MSTORE PUSH1 0xB PUSH1 0x20 MSTORE PUSH1 0x40 DUP2 KECCAK256 SLOAD PUSH1 0xA DUP1 SLOAD SWAP1 SWAP2 SWAP1 DUP2 LT PUSH2 0x2D61 JUMPI PUSH2 0x2D61 PUSH2 0x3507 JUMP JUMPDEST PUSH0 SWAP2 DUP3 MSTORE PUSH1 0x20 DUP3 KECCAK256 PUSH1 0x1 PUSH1 0x2 SWAP1 SWAP3 MUL ADD DUP2 DUP2 ADD SLOAD SWAP1 SWAP4 POP PUSH2 0x2D82 SWAP2 SWAP1 PUSH2 0x3814 JUMP JUMPDEST SWAP1 POP PUSH0 DUP3 PUSH1 0x1 ADD DUP3 DUP2 SLOAD DUP2 LT PUSH2 0x2D9A JUMPI PUSH2 0x2D9A PUSH2 0x3507 JUMP JUMPDEST PUSH0 SWAP2 DUP3 MSTORE PUSH1 0x20 DUP1 DUP4 KECCAK256 SWAP1 SWAP2 ADD SLOAD DUP8 DUP4 MSTORE PUSH1 0x9 DUP3 MSTORE PUSH1 0x40 DUP1 DUP5 KECCAK256 DUP9 DUP6 MSTORE SWAP1 SWAP3 MSTORE SWAP2 KECCAK256 SLOAD PUSH1 0x1 DUP6 ADD DUP1 SLOAD SWAP3 SWAP4 POP SWAP1 SWAP2 DUP4 SWAP2 SWAP1 DUP4 SWAP1 DUP2 LT PUSH2 0x2DDA JUMPI PUSH2 0x2DDA PUSH2 0x3507 JUMP JUMPDEST PUSH0 SWAP2 DUP3 MSTORE PUSH1 0x20 DUP1 DUP4 KECCAK256 SWAP2 SWAP1 SWAP2 ADD SWAP3 SWAP1 SWAP3 SSTORE DUP8 DUP2 MSTORE PUSH1 0x9 DUP3 MSTORE PUSH1 0x40 DUP1 DUP3 KECCAK256 DUP6 DUP4 MSTORE SWAP1 SWAP3 MSTORE DUP2 DUP2 KECCAK256 DUP4 SWAP1 SSTORE DUP7 DUP2 MSTORE SWAP1 DUP2 KECCAK256 SSTORE PUSH1 0x1 DUP5 ADD DUP1 SLOAD DUP1 PUSH2 0x245D JUMPI PUSH2 0x245D PUSH2 0x3852 JUMP JUMPDEST PUSH1 0x5 DUP1 SLOAD DUP3 MLOAD PUSH0 SWAP1 DUP2 MSTORE PUSH1 0x6 PUSH1 0x20 DUP2 DUP2 MSTORE PUSH1 0x40 DUP1 DUP5 KECCAK256 DUP6 SWAP1 SSTORE PUSH1 0x1 DUP6 ADD DUP7 SSTORE SWAP5 SWAP1 SWAP3 MSTORE DUP5 MLOAD SWAP3 MUL PUSH32 0x36B6384B5ECA791C62761152D0C79BB0604C104A5FB6F4EB0703F3154BB3DB0 DUP2 ADD SWAP3 DUP4 SSTORE DUP2 DUP6 ADD MLOAD PUSH32 0x36B6384B5ECA791C62761152D0C79BB0604C104A5FB6F4EB0703F3154BB3DB1 DUP3 ADD SSTORE SWAP3 DUP5 ADD MLOAD PUSH32 0x36B6384B5ECA791C62761152D0C79BB0604C104A5FB6F4EB0703F3154BB3DB2 DUP5 ADD SSTORE PUSH1 0x60 DUP5 ADD MLOAD PUSH32 0x36B6384B5ECA791C62761152D0C79BB0604C104A5FB6F4EB0703F3154BB3DB3 DUP5 ADD DUP1 SLOAD PUSH1 0x1 PUSH1 0x1 PUSH1 0xA0 SHL SUB SWAP3 DUP4 AND PUSH1 0x1 PUSH1 0x1 PUSH1 0xA0 SHL SUB NOT SWAP2 DUP3 AND OR SWAP1 SWAP2 SSTORE PUSH1 0x80 DUP7 ADD MLOAD PUSH32 0x36B6384B5ECA791C62761152D0C79BB0604C104A5FB6F4EB0703F3154BB3DB4 DUP7 ADD DUP1 SLOAD SWAP2 SWAP1 SWAP4 AND SWAP2 AND OR SWAP1 SSTORE PUSH1 0xA0 DUP5 ADD MLOAD DUP1 MLOAD DUP6 SWAP5 PUSH2 0x9A1 SWAP4 PUSH32 0x36B6384B5ECA791C62761152D0C79BB0604C104A5FB6F4EB0703F3154BB3DB5 SWAP1 SWAP2 ADD SWAP3 ADD SWAP1 PUSH2 0x300A JUMP JUMPDEST PUSH1 0xA DUP1 SLOAD DUP3 MLOAD PUSH0 SWAP1 DUP2 MSTORE PUSH1 0xB PUSH1 0x20 SWAP1 DUP2 MSTORE PUSH1 0x40 DUP3 KECCAK256 DUP4 SWAP1 SSTORE PUSH1 0x1 DUP4 ADD DUP5 SSTORE SWAP3 SWAP1 MSTORE DUP3 MLOAD PUSH1 0x2 SWAP1 SWAP2 MUL PUSH32 0xC65A7BB8D6351C1CF70C95A316CC6A92839C986682D98BC35F958F4883F9D2A8 DUP2 ADD SWAP2 DUP3 SSTORE DUP3 DUP5 ADD MLOAD DUP1 MLOAD DUP6 SWAP5 PUSH2 0x9A1 SWAP4 PUSH32 0xC65A7BB8D6351C1CF70C95A316CC6A92839C986682D98BC35F958F4883F9D2A9 ADD SWAP3 ADD SWAP1 PUSH2 0x306D JUMP JUMPDEST POP DUP1 SLOAD PUSH0 DUP3 SSTORE SWAP1 PUSH0 MSTORE PUSH1 0x20 PUSH0 KECCAK256 SWAP1 DUP2 ADD SWAP1 PUSH2 0x12F8 SWAP2 SWAP1 PUSH2 0x30A6 JUMP JUMPDEST DUP3 DUP1 SLOAD DUP3 DUP3 SSTORE SWAP1 PUSH0 MSTORE PUSH1 0x20 PUSH0 KECCAK256 SWAP1 DUP2 ADD SWAP3 DUP3 ISZERO PUSH2 0x305D JUMPI SWAP2 PUSH1 0x20 MUL DUP3 ADD JUMPDEST DUP3 DUP2 GT ISZERO PUSH2 0x305D JUMPI DUP3 MLOAD DUP3 SLOAD PUSH1 0x1 PUSH1 0x1 PUSH1 0xA0 SHL SUB NOT AND PUSH1 0x1 PUSH1 0x1 PUSH1 0xA0 SHL SUB SWAP1 SWAP2 AND OR DUP3 SSTORE PUSH1 0x20 SWAP1 SWAP3 ADD SWAP2 PUSH1 0x1 SWAP1 SWAP2 ADD SWAP1 PUSH2 0x3028 JUMP JUMPDEST POP PUSH2 0x3069 SWAP3 SWAP2 POP PUSH2 0x30A6 JUMP JUMPDEST POP SWAP1 JUMP JUMPDEST DUP3 DUP1 SLOAD DUP3 DUP3 SSTORE SWAP1 PUSH0 MSTORE PUSH1 0x20 PUSH0 KECCAK256 SWAP1 DUP2 ADD SWAP3 DUP3 ISZERO PUSH2 0x305D JUMPI SWAP2 PUSH1 0x20 MUL DUP3 ADD JUMPDEST DUP3 DUP2 GT ISZERO PUSH2 0x305D JUMPI DUP3 MLOAD DUP3 SSTORE SWAP2 PUSH1 0x20 ADD SWAP2 SWAP1 PUSH1 0x1 ADD SWAP1 PUSH2 0x308B JUMP JUMPDEST JUMPDEST DUP1 DUP3 GT ISZERO PUSH2 0x3069 JUMPI PUSH0 DUP2 SSTORE PUSH1 0x1 ADD PUSH2 0x30A7 JUMP JUMPDEST PUSH0 DUP1 PUSH1 0x40 DUP4 DUP6 SUB SLT ISZERO PUSH2 0x30CB JUMPI PUSH0 DUP1 REVERT JUMPDEST POP POP DUP1 CALLDATALOAD SWAP3 PUSH1 0x20 SWAP1 SWAP2 ADD CALLDATALOAD SWAP2 POP JUMP JUMPDEST PUSH1 0x1 PUSH1 0x1 PUSH1 0xE0 SHL SUB NOT DUP2 AND DUP2 EQ PUSH2 0x12F8 JUMPI PUSH0 DUP1 REVERT JUMPDEST PUSH0 PUSH1 0x20 DUP3 DUP5 SUB SLT ISZERO PUSH2 0x30FF JUMPI PUSH0 DUP1 REVERT JUMPDEST DUP2 CALLDATALOAD PUSH2 0xA7E DUP2 PUSH2 0x30DA JUMP JUMPDEST PUSH0 JUMPDEST DUP4 DUP2 LT ISZERO PUSH2 0x3124 JUMPI DUP2 DUP2 ADD MLOAD DUP4 DUP3 ADD MSTORE PUSH1 0x20 ADD PUSH2 0x310C JUMP JUMPDEST POP POP PUSH0 SWAP2 ADD MSTORE JUMP JUMPDEST PUSH0 DUP2 MLOAD DUP1 DUP5 MSTORE PUSH2 0x3143 DUP2 PUSH1 0x20 DUP7 ADD PUSH1 0x20 DUP7 ADD PUSH2 0x310A JUMP JUMPDEST PUSH1 0x1F ADD PUSH1 0x1F NOT AND SWAP3 SWAP1 SWAP3 ADD PUSH1 0x20 ADD SWAP3 SWAP2 POP POP JUMP JUMPDEST PUSH1 0x20 DUP2 MSTORE PUSH0 PUSH2 0xA7E PUSH1 0x20 DUP4 ADD DUP5 PUSH2 0x312C JUMP JUMPDEST PUSH0 PUSH1 0x20 DUP3 DUP5 SUB SLT ISZERO PUSH2 0x3179 JUMPI PUSH0 DUP1 REVERT JUMPDEST POP CALLDATALOAD SWAP2 SWAP1 POP JUMP JUMPDEST DUP1 CALLDATALOAD PUSH1 0x1 PUSH1 0x1 PUSH1 0xA0 SHL SUB DUP2 AND DUP2 EQ PUSH2 0xDFB JUMPI PUSH0 DUP1 REVERT JUMPDEST PUSH0 DUP1 PUSH1 0x40 DUP4 DUP6 SUB SLT ISZERO PUSH2 0x31A7 JUMPI PUSH0 DUP1 REVERT JUMPDEST PUSH2 0x31B0 DUP4 PUSH2 0x3180 JUMP JUMPDEST SWAP5 PUSH1 0x20 SWAP4 SWAP1 SWAP4 ADD CALLDATALOAD SWAP4 POP POP POP JUMP JUMPDEST PUSH0 DUP1 PUSH0 PUSH1 0x60 DUP5 DUP7 SUB SLT ISZERO PUSH2 0x31D0 JUMPI PUSH0 DUP1 REVERT JUMPDEST DUP4 CALLDATALOAD SWAP3 POP PUSH2 0x31E0 PUSH1 0x20 DUP6 ADD PUSH2 0x3180 JUMP JUMPDEST SWAP2 POP PUSH1 0x40 DUP5 ADD CALLDATALOAD SWAP1 POP SWAP3 POP SWAP3 POP SWAP3 JUMP JUMPDEST PUSH0 DUP1 PUSH0 PUSH1 0x60 DUP5 DUP7 SUB SLT ISZERO PUSH2 0x3202 JUMPI PUSH0 DUP1 REVERT JUMPDEST PUSH2 0x320B DUP5 PUSH2 0x3180 JUMP JUMPDEST SWAP6 PUSH1 0x20 DUP6 ADD CALLDATALOAD SWAP6 POP PUSH1 0x40 SWAP1 SWAP5 ADD CALLDATALOAD SWAP4 SWAP3 POP POP POP JUMP JUMPDEST PUSH0 DUP1 PUSH0 PUSH1 0x60 DUP5 DUP7 SUB SLT ISZERO PUSH2 0x3232 JUMPI PUSH0 DUP1 REVERT JUMPDEST PUSH2 0x323B DUP5 PUSH2 0x3180 JUMP JUMPDEST SWAP3 POP PUSH2 0x31E0 PUSH1 0x20 DUP6 ADD PUSH2 0x3180 JUMP JUMPDEST PUSH0 DUP1 PUSH0 PUSH1 0x60 DUP5 DUP7 SUB SLT ISZERO PUSH2 0x325B JUMPI PUSH0 DUP1 REVERT JUMPDEST POP POP DUP2 CALLDATALOAD SWAP4 PUSH1 0x20 DUP4 ADD CALLDATALOAD SWAP4 POP PUSH1 0x40 SWAP1 SWAP3 ADD CALLDATALOAD SWAP2 SWAP1 POP JUMP JUMPDEST DUP1 ISZERO ISZERO DUP2 EQ PUSH2 0x12F8 JUMPI PUSH0 DUP1 REVERT JUMPDEST PUSH0 DUP1 PUSH0 DUP1 PUSH1 0x80 DUP6 DUP8 SUB SLT ISZERO PUSH2 0x3292 JUMPI PUSH0 DUP1 REVERT JUMPDEST PUSH2 0x329B DUP6 PUSH2 0x3180 JUMP JUMPDEST SWAP4 POP PUSH1 0x20 DUP6 ADD CALLDATALOAD SWAP3 POP PUSH2 0x32B0 PUSH1 0x40 DUP7 ADD PUSH2 0x3180 JUMP JUMPDEST SWAP2 POP PUSH1 0x60 DUP6 ADD CALLDATALOAD PUSH2 0x32C0 DUP2 PUSH2 0x3272 JUMP JUMPDEST SWAP4 SWAP7 SWAP3 SWAP6 POP SWAP1 SWAP4 POP POP JUMP JUMPDEST PUSH4 0x4E487B71 PUSH1 0xE0 SHL PUSH0 MSTORE PUSH1 0x41 PUSH1 0x4 MSTORE PUSH1 0x24 PUSH0 REVERT JUMPDEST PUSH1 0x40 MLOAD PUSH1 0x1F DUP3 ADD PUSH1 0x1F NOT AND DUP2 ADD PUSH8 0xFFFFFFFFFFFFFFFF DUP2 GT DUP3 DUP3 LT OR ISZERO PUSH2 0x3308 JUMPI PUSH2 0x3308 PUSH2 0x32CB JUMP JUMPDEST PUSH1 0x40 MSTORE SWAP2 SWAP1 POP JUMP JUMPDEST PUSH0 PUSH8 0xFFFFFFFFFFFFFFFF DUP3 GT ISZERO PUSH2 0x3329 JUMPI PUSH2 0x3329 PUSH2 0x32CB JUMP JUMPDEST POP PUSH1 0x1F ADD PUSH1 0x1F NOT AND PUSH1 0x20 ADD SWAP1 JUMP JUMPDEST PUSH0 PUSH2 0x3349 PUSH2 0x3344 DUP5 PUSH2 0x3310 JUMP JUMPDEST PUSH2 0x32DF JUMP JUMPDEST SWAP1 POP DUP3 DUP2 MSTORE DUP4 DUP4 DUP4 ADD GT ISZERO PUSH2 0x335C JUMPI PUSH0 DUP1 REVERT JUMPDEST DUP3 DUP3 PUSH1 0x20 DUP4 ADD CALLDATACOPY PUSH0 PUSH1 0x20 DUP5 DUP4 ADD ADD MSTORE SWAP4 SWAP3 POP POP POP JUMP JUMPDEST PUSH0 PUSH1 0x20 DUP3 DUP5 SUB SLT ISZERO PUSH2 0x3382 JUMPI PUSH0 DUP1 REVERT JUMPDEST DUP2 CALLDATALOAD PUSH8 0xFFFFFFFFFFFFFFFF DUP2 GT ISZERO PUSH2 0x3398 JUMPI PUSH0 DUP1 REVERT JUMPDEST DUP3 ADD PUSH1 0x1F DUP2 ADD DUP5 SGT PUSH2 0x33A8 JUMPI PUSH0 DUP1 REVERT JUMPDEST PUSH2 0xA91 DUP5 DUP3 CALLDATALOAD PUSH1 0x20 DUP5 ADD PUSH2 0x3337 JUMP JUMPDEST PUSH0 PUSH1 0x20 DUP3 DUP5 SUB SLT ISZERO PUSH2 0x33C7 JUMPI PUSH0 DUP1 REVERT JUMPDEST PUSH2 0xA7E DUP3 PUSH2 0x3180 JUMP JUMPDEST PUSH0 DUP1 PUSH1 0x40 DUP4 DUP6 SUB SLT ISZERO PUSH2 0x33E1 JUMPI PUSH0 DUP1 REVERT JUMPDEST PUSH2 0x33EA DUP4 PUSH2 0x3180 JUMP JUMPDEST SWAP2 POP PUSH1 0x20 DUP4 ADD CALLDATALOAD PUSH2 0x33FA DUP2 PUSH2 0x3272 JUMP JUMPDEST DUP1 SWAP2 POP POP SWAP3 POP SWAP3 SWAP1 POP JUMP JUMPDEST PUSH0 DUP1 PUSH0 DUP1 PUSH1 0x80 DUP6 DUP8 SUB SLT ISZERO PUSH2 0x3418 JUMPI PUSH0 DUP1 REVERT JUMPDEST PUSH2 0x3421 DUP6 PUSH2 0x3180 JUMP JUMPDEST SWAP4 POP PUSH2 0x342F PUSH1 0x20 DUP7 ADD PUSH2 0x3180 JUMP JUMPDEST SWAP3 POP PUSH1 0x40 DUP6 ADD CALLDATALOAD SWAP2 POP PUSH1 0x60 DUP6 ADD CALLDATALOAD PUSH8 0xFFFFFFFFFFFFFFFF DUP2 GT ISZERO PUSH2 0x3451 JUMPI PUSH0 DUP1 REVERT JUMPDEST DUP6 ADD PUSH1 0x1F DUP2 ADD DUP8 SGT PUSH2 0x3461 JUMPI PUSH0 DUP1 REVERT JUMPDEST PUSH2 0x3470 DUP8 DUP3 CALLDATALOAD PUSH1 0x20 DUP5 ADD PUSH2 0x3337 JUMP JUMPDEST SWAP2 POP POP SWAP3 SWAP6 SWAP2 SWAP5 POP SWAP3 POP JUMP JUMPDEST PUSH0 DUP1 PUSH1 0x40 DUP4 DUP6 SUB SLT ISZERO PUSH2 0x348D JUMPI PUSH0 DUP1 REVERT JUMPDEST DUP3 CALLDATALOAD SWAP2 POP PUSH2 0x349D PUSH1 0x20 DUP5 ADD PUSH2 0x3180 JUMP JUMPDEST SWAP1 POP SWAP3 POP SWAP3 SWAP1 POP JUMP JUMPDEST PUSH0 DUP1 PUSH0 PUSH1 0x60 DUP5 DUP7 SUB SLT ISZERO PUSH2 0x34B8 JUMPI PUSH0 DUP1 REVERT JUMPDEST PUSH2 0x34C1 DUP5 PUSH2 0x3180 JUMP JUMPDEST SWAP3 POP PUSH1 0x20 DUP5 ADD CALLDATALOAD SWAP2 POP PUSH2 0x34D6 PUSH1 0x40 DUP6 ADD PUSH2 0x3180 JUMP JUMPDEST SWAP1 POP SWAP3 POP SWAP3 POP SWAP3 JUMP JUMPDEST PUSH0 DUP1 PUSH1 0x40 DUP4 DUP6 SUB SLT ISZERO PUSH2 0x34F0 JUMPI PUSH0 DUP1 REVERT JUMPDEST PUSH2 0x34F9 DUP4 PUSH2 0x3180 JUMP JUMPDEST SWAP2 POP PUSH2 0x349D PUSH1 0x20 DUP5 ADD PUSH2 0x3180 JUMP JUMPDEST PUSH4 0x4E487B71 PUSH1 0xE0 SHL PUSH0 MSTORE PUSH1 0x32 PUSH1 0x4 MSTORE PUSH1 0x24 PUSH0 REVERT JUMPDEST PUSH1 0x1 DUP2 DUP2 SHR SWAP1 DUP3 AND DUP1 PUSH2 0x352F JUMPI PUSH1 0x7F DUP3 AND SWAP2 POP JUMPDEST PUSH1 0x20 DUP3 LT DUP2 SUB PUSH2 0x354D JUMPI PUSH4 0x4E487B71 PUSH1 0xE0 SHL PUSH0 MSTORE PUSH1 0x22 PUSH1 0x4 MSTORE PUSH1 0x24 PUSH0 REVERT JUMPDEST POP SWAP2 SWAP1 POP JUMP JUMPDEST PUSH1 0x20 DUP1 DUP3 MSTORE PUSH1 0x22 SWAP1 DUP3 ADD MSTORE PUSH32 0x455243333532353A20617070726F76616C20746F2063757272656E74206F776E PUSH1 0x40 DUP3 ADD MSTORE PUSH2 0x32B9 PUSH1 0xF1 SHL PUSH1 0x60 DUP3 ADD MSTORE PUSH1 0x80 ADD SWAP1 JUMP JUMPDEST PUSH0 DUP4 MLOAD PUSH2 0x35A6 DUP2 DUP5 PUSH1 0x20 DUP9 ADD PUSH2 0x310A JUMP JUMPDEST PUSH5 0x736C6F742F PUSH1 0xD8 SHL SWAP1 DUP4 ADD SWAP1 DUP2 MSTORE DUP4 MLOAD PUSH2 0x35C8 DUP2 PUSH1 0x5 DUP5 ADD PUSH1 0x20 DUP9 ADD PUSH2 0x310A JUMP JUMPDEST ADD PUSH1 0x5 ADD SWAP5 SWAP4 POP POP POP POP JUMP JUMPDEST PUSH0 PUSH1 0x20 DUP3 DUP5 SUB SLT ISZERO PUSH2 0x35E4 JUMPI PUSH0 DUP1 REVERT JUMPDEST DUP2 MLOAD PUSH8 0xFFFFFFFFFFFFFFFF DUP2 GT ISZERO PUSH2 0x35FA JUMPI PUSH0 DUP1 REVERT JUMPDEST DUP3 ADD PUSH1 0x1F DUP2 ADD DUP5 SGT PUSH2 0x360A JUMPI PUSH0 DUP1 REVERT JUMPDEST DUP1 MLOAD PUSH2 0x3618 PUSH2 0x3344 DUP3 PUSH2 0x3310 JUMP JUMPDEST DUP2 DUP2 MSTORE DUP6 PUSH1 0x20 DUP4 DUP6 ADD ADD GT ISZERO PUSH2 0x362C JUMPI PUSH0 DUP1 REVERT JUMPDEST PUSH2 0x15C0 DUP3 PUSH1 0x20 DUP4 ADD PUSH1 0x20 DUP7 ADD PUSH2 0x310A JUMP JUMPDEST PUSH1 0x20 DUP1 DUP3 MSTORE PUSH1 0x32 SWAP1 DUP3 ADD MSTORE PUSH32 0x455243333532353A207472616E736665722063616C6C6572206973206E6F7420 PUSH1 0x40 DUP3 ADD MSTORE PUSH18 0x1BDDDB995C881B9BDC88185C1C1C9BDD9959 PUSH1 0x72 SHL PUSH1 0x60 DUP3 ADD MSTORE PUSH1 0x80 ADD SWAP1 JUMP JUMPDEST PUSH1 0x1F DUP3 GT ISZERO PUSH2 0xADD JUMPI DUP1 PUSH0 MSTORE PUSH1 0x20 PUSH0 KECCAK256 PUSH1 0x1F DUP5 ADD PUSH1 0x5 SHR DUP2 ADD PUSH1 0x20 DUP6 LT ISZERO PUSH2 0x36B4 JUMPI POP DUP1 JUMPDEST PUSH1 0x1F DUP5 ADD PUSH1 0x5 SHR DUP3 ADD SWAP2 POP JUMPDEST DUP2 DUP2 LT ISZERO PUSH2 0x173E JUMPI PUSH0 DUP2 SSTORE PUSH1 0x1 ADD PUSH2 0x36C0 JUMP JUMPDEST DUP2 MLOAD PUSH8 0xFFFFFFFFFFFFFFFF DUP2 GT ISZERO PUSH2 0x36ED JUMPI PUSH2 0x36ED PUSH2 0x32CB JUMP JUMPDEST PUSH2 0x3701 DUP2 PUSH2 0x36FB DUP5 SLOAD PUSH2 0x351B JUMP JUMPDEST DUP5 PUSH2 0x368F JUMP JUMPDEST PUSH1 0x20 DUP1 PUSH1 0x1F DUP4 GT PUSH1 0x1 DUP2 EQ PUSH2 0x3734 JUMPI PUSH0 DUP5 ISZERO PUSH2 0x371D JUMPI POP DUP6 DUP4 ADD MLOAD JUMPDEST PUSH0 NOT PUSH1 0x3 DUP7 SWAP1 SHL SHR NOT AND PUSH1 0x1 DUP6 SWAP1 SHL OR DUP6 SSTORE PUSH2 0x22C1 JUMP JUMPDEST PUSH0 DUP6 DUP2 MSTORE PUSH1 0x20 DUP2 KECCAK256 PUSH1 0x1F NOT DUP7 AND SWAP2 JUMPDEST DUP3 DUP2 LT ISZERO PUSH2 0x3762 JUMPI DUP9 DUP7 ADD MLOAD DUP3 SSTORE SWAP5 DUP5 ADD SWAP5 PUSH1 0x1 SWAP1 SWAP2 ADD SWAP1 DUP5 ADD PUSH2 0x3743 JUMP JUMPDEST POP DUP6 DUP3 LT ISZERO PUSH2 0x377F JUMPI DUP8 DUP6 ADD MLOAD PUSH0 NOT PUSH1 0x3 DUP9 SWAP1 SHL PUSH1 0xF8 AND SHR NOT AND DUP2 SSTORE JUMPDEST POP POP POP POP POP PUSH1 0x1 SWAP1 DUP2 SHL ADD SWAP1 SSTORE POP JUMP JUMPDEST PUSH0 DUP4 MLOAD PUSH2 0x37A0 DUP2 DUP5 PUSH1 0x20 DUP9 ADD PUSH2 0x310A JUMP JUMPDEST DUP4 MLOAD SWAP1 DUP4 ADD SWAP1 PUSH2 0x37B4 DUP2 DUP4 PUSH1 0x20 DUP9 ADD PUSH2 0x310A JUMP JUMPDEST ADD SWAP5 SWAP4 POP POP POP POP JUMP JUMPDEST PUSH0 DUP4 MLOAD PUSH2 0x37CE DUP2 DUP5 PUSH1 0x20 DUP9 ADD PUSH2 0x310A JUMP JUMPDEST PUSH9 0x636F6E74726163742F PUSH1 0xB8 SHL SWAP1 DUP4 ADD SWAP1 DUP2 MSTORE DUP4 MLOAD PUSH2 0x37F4 DUP2 PUSH1 0x9 DUP5 ADD PUSH1 0x20 DUP9 ADD PUSH2 0x310A JUMP JUMPDEST ADD PUSH1 0x9 ADD SWAP5 SWAP4 POP POP POP POP JUMP JUMPDEST PUSH4 0x4E487B71 PUSH1 0xE0 SHL PUSH0 MSTORE PUSH1 0x11 PUSH1 0x4 MSTORE PUSH1 0x24 PUSH0 REVERT JUMPDEST DUP2 DUP2 SUB DUP2 DUP2 GT ISZERO PUSH2 0x7A7 JUMPI PUSH2 0x7A7 PUSH2 0x3800 JUMP JUMPDEST DUP1 DUP3 ADD DUP1 DUP3 GT ISZERO PUSH2 0x7A7 JUMPI PUSH2 0x7A7 PUSH2 0x3800 JUMP JUMPDEST PUSH0 PUSH1 0x1 DUP3 ADD PUSH2 0x384B JUMPI PUSH2 0x384B PUSH2 0x3800 JUMP JUMPDEST POP PUSH1 0x1 ADD SWAP1 JUMP JUMPDEST PUSH4 0x4E487B71 PUSH1 0xE0 SHL PUSH0 MSTORE PUSH1 0x31 PUSH1 0x4 MSTORE PUSH1 0x24 PUSH0 REVERT JUMPDEST PUSH1 0x1 PUSH1 0x1 PUSH1 0xA0 SHL SUB DUP6 DUP2 AND DUP3 MSTORE DUP5 AND PUSH1 0x20 DUP3 ADD MSTORE PUSH1 0x40 DUP2 ADD DUP4 SWAP1 MSTORE PUSH1 0x80 PUSH1 0x60 DUP3 ADD DUP2 SWAP1 MSTORE PUSH0 SWAP1 PUSH2 0x3898 SWAP1 DUP4 ADD DUP5 PUSH2 0x312C JUMP JUMPDEST SWAP7 SWAP6 POP POP POP POP POP POP JUMP JUMPDEST PUSH0 PUSH1 0x20 DUP3 DUP5 SUB SLT ISZERO PUSH2 0x38B2 JUMPI PUSH0 DUP1 REVERT JUMPDEST DUP2 MLOAD PUSH2 0xA7E DUP2 PUSH2 0x30DA JUMP JUMPDEST DUP1 DUP3 MUL DUP2 ISZERO DUP3 DUP3 DIV DUP5 EQ OR PUSH2 0x7A7 JUMPI PUSH2 0x7A7 PUSH2 0x3800 JUMP JUMPDEST PUSH0 DUP2 PUSH2 0x38E2 JUMPI PUSH2 0x38E2 PUSH2 0x3800 JUMP JUMPDEST POP PUSH0 NOT ADD SWAP1 JUMP JUMPDEST PUSH0 PUSH1 0x20 DUP3 DUP5 SUB SLT ISZERO PUSH2 0x38F9 JUMPI PUSH0 DUP1 REVERT JUMPDEST DUP2 MLOAD PUSH2 0xA7E DUP2 PUSH2 0x3272 JUMP JUMPDEST PUSH1 0x1 DUP1 PUSH1 0xA0 SHL SUB DUP7 AND DUP2 MSTORE DUP5 PUSH1 0x20 DUP3 ADD MSTORE DUP4 PUSH1 0x40 DUP3 ADD MSTORE DUP3 PUSH1 0x60 DUP3 ADD MSTORE PUSH1 0xA0 PUSH1 0x80 DUP3 ADD MSTORE PUSH0 PUSH2 0x3936 PUSH1 0xA0 DUP4 ADD DUP5 PUSH2 0x312C JUMP JUMPDEST SWAP8 SWAP7 POP POP POP POP POP POP POP JUMP INVALID LOG2 PUSH5 0x6970667358 0x22 SLT KECCAK256 0xC8 MOD DUP7 GAS BYTE PUSH14 0xE3097182E700C715FEBF756E8610 CALLDATALOAD 0xAB 0x21 GAS 0xAF ISZERO DELEGATECALL GAS 0x26 0x29 CALLCODE DUP16 PUSH5 0x736F6C6343 STOP ADDMOD AND STOP CALLER "
		},
		"gasEstimates": {
			"creation": {
				"codeDepositCost": "2942200",
				"executionCost": "infinite",
				"totalCost": "infinite"
			},
			"external": {
				"allowance(uint256,address)": "11443",
				"approve(address,uint256)": "infinite",
				"approve(uint256,address,uint256)": "infinite",
				"balanceOf(address)": "2664",
				"balanceOf(uint256)": "15574",
				"baseURI()": "infinite",
				"contractURI()": "infinite",
				"getApproved(uint256)": "15611",
				"isApprovedForAll(address,address)": "infinite",
				"isApprovedForSlot(address,uint256,address)": "infinite",
				"metadataDescriptor()": "2470",
				"mint(address,uint256,uint256)": "infinite",
				"mintValue(uint256,uint256)": "infinite",
				"name()": "infinite",
				"owner()": "2397",
				"ownerOf(uint256)": "15591",
				"renounceOwnership()": "infinite",
				"safeTransferFrom(address,address,uint256)": "infinite",
				"safeTransferFrom(address,address,uint256,bytes)": "infinite",
				"setApprovalForAll(address,bool)": "26775",
				"setApprovalForSlot(address,uint256,address,bool)": "infinite",
				"setBaseURI(string)": "infinite",
				"slotByIndex(uint256)": "6826",
				"slotCount()": "2368",
				"slotOf(uint256)": "15509",
				"slotURI(uint256)": "infinite",
				"supportsInterface(bytes4)": "infinite",
				"symbol()": "infinite",
				"tokenByIndex(uint256)": "6782",
				"tokenInSlotByIndex(uint256,uint256)": "24204",
				"tokenOfOwnerByIndex(address,uint256)": "7120",
				"tokenSupplyInSlot(uint256)": "15508",
				"tokenURI(uint256)": "infinite",
				"totalSupply()": "2414",
				"transferFrom(address,address,uint256)": "infinite",
				"transferFrom(uint256,address,uint256)": "infinite",
				"transferFrom(uint256,uint256,uint256)": "infinite",
				"transferOwnership(address)": "28465",
				"valueDecimals()": "2422"
			},
			"internal": {
				"_baseURI()": "infinite"
			}
		},
		"methodIdentifiers": {
			"allowance(uint256,address)": "e345e0bc",
			"approve(address,uint256)": "095ea7b3",
			"approve(uint256,address,uint256)": "8cb0a511",
			"balanceOf(address)": "70a08231",
			"balanceOf(uint256)": "9cc7f708",
			"baseURI()": "6c0360eb",
			"contractURI()": "e8a3d485",
			"getApproved(uint256)": "081812fc",
			"isApprovedForAll(address,address)": "e985e9c5",
			"isApprovedForSlot(address,uint256,address)": "e345f05e",
			"metadataDescriptor()": "840f7113",
			"mint(address,uint256,uint256)": "156e29f6",
			"mintValue(uint256,uint256)": "f0e88e7f",
			"name()": "06fdde03",
			"owner()": "8da5cb5b",
			"ownerOf(uint256)": "6352211e",
			"renounceOwnership()": "715018a6",
			"safeTransferFrom(address,address,uint256)": "42842e0e",
			"safeTransferFrom(address,address,uint256,bytes)": "b88d4fde",
			"setApprovalForAll(address,bool)": "a22cb465",
			"setApprovalForSlot(address,uint256,address,bool)": "55cd4e06",
			"setBaseURI(string)": "55f804b3",
			"slotByIndex(uint256)": "993bef8d",
			"slotCount()": "ed08fa80",
			"slotOf(uint256)": "263f3e7e",
			"slotURI(uint256)": "09c3dd87",
			"supportsInterface(bytes4)": "01ffc9a7",
			"symbol()": "95d89b41",
			"tokenByIndex(uint256)": "4f6ccce7",
			"tokenInSlotByIndex(uint256,uint256)": "00cd0110",
			"tokenOfOwnerByIndex(address,uint256)": "2f745c59",
			"tokenSupplyInSlot(uint256)": "4f8a0f83",
			"tokenURI(uint256)": "c87b56dd",
			"totalSupply()": "18160ddd",
			"transferFrom(address,address,uint256)": "23b872dd",
			"transferFrom(uint256,address,uint256)": "0f485c02",
			"transferFrom(uint256,uint256,uint256)": "310ed7f0",
			"transferOwnership(address)": "f2fde38b",
			"valueDecimals()": "3e7e8669"
		}
	},
	"abi": [
		{
			"inputs": [
				{
					"internalType": "address",
					"name": "owner_",
					"type": "address"
				},
				{
					"internalType": "string",
					"name": "name_",
					"type": "string"
				},
				{
					"internalType": "string",
					"name": "symbol_",
					"type": "string"
				}
			],
			"stateMutability": "nonpayable",
			"type": "constructor"
		},
		{
			"inputs": [
				{
					"internalType": "address",
					"name": "owner",
					"type": "address"
				}
			],
			"name": "OwnableInvalidOwner",
			"type": "error"
		},
		{
			"inputs": [
				{
					"internalType": "address",
					"name": "account",
					"type": "address"
				}
			],
			"name": "OwnableUnauthorizedAccount",
			"type": "error"
		},
		{
			"inputs": [
				{
					"internalType": "uint256",
					"name": "value",
					"type": "uint256"
				},
				{
					"internalType": "uint256",
					"name": "length",
					"type": "uint256"
				}
			],
			"name": "StringsInsufficientHexLength",
			"type": "error"
		},
		{
			"anonymous": false,
			"inputs": [
				{
					"indexed": true,
					"internalType": "address",
					"name": "_owner",
					"type": "address"
				},
				{
					"indexed": true,
					"internalType": "address",
					"name": "_approved",
					"type": "address"
				},
				{
					"indexed": true,
					"internalType": "uint256",
					"name": "_tokenId",
					"type": "uint256"
				}
			],
			"name": "Approval",
			"type": "event"
		},
		{
			"anonymous": false,
			"inputs": [
				{
					"indexed": true,
					"internalType": "address",
					"name": "_owner",
					"type": "address"
				},
				{
					"indexed": true,
					"internalType": "address",
					"name": "_operator",
					"type": "address"
				},
				{
					"indexed": false,
					"internalType": "bool",
					"name": "_approved",
					"type": "bool"
				}
			],
			"name": "ApprovalForAll",
			"type": "event"
		},
		{
			"anonymous": false,
			"inputs": [
				{
					"indexed": true,
					"internalType": "address",
					"name": "_owner",
					"type": "address"
				},
				{
					"indexed": true,
					"internalType": "uint256",
					"name": "_slot",
					"type": "uint256"
				},
				{
					"indexed": true,
					"internalType": "address",
					"name": "_operator",
					"type": "address"
				},
				{
					"indexed": false,
					"internalType": "bool",
					"name": "_approved",
					"type": "bool"
				}
			],
			"name": "ApprovalForSlot",
			"type": "event"
		},
		{
			"anonymous": false,
			"inputs": [
				{
					"indexed": true,
					"internalType": "uint256",
					"name": "_tokenId",
					"type": "uint256"
				},
				{
					"indexed": true,
					"internalType": "address",
					"name": "_operator",
					"type": "address"
				},
				{
					"indexed": false,
					"internalType": "uint256",
					"name": "_value",
					"type": "uint256"
				}
			],
			"name": "ApprovalValue",
			"type": "event"
		},
		{
			"anonymous": false,
			"inputs": [
				{
					"indexed": true,
					"internalType": "address",
					"name": "previousOwner",
					"type": "address"
				},
				{
					"indexed": true,
					"internalType": "address",
					"name": "newOwner",
					"type": "address"
				}
			],
			"name": "OwnershipTransferred",
			"type": "event"
		},
		{
			"anonymous": false,
			"inputs": [
				{
					"indexed": true,
					"internalType": "address",
					"name": "metadataDescriptor",
					"type": "address"
				}
			],
			"name": "SetMetadataDescriptor",
			"type": "event"
		},
		{
			"anonymous": false,
			"inputs": [
				{
					"indexed": true,
					"internalType": "uint256",
					"name": "_tokenId",
					"type": "uint256"
				},
				{
					"indexed": true,
					"internalType": "uint256",
					"name": "_oldSlot",
					"type": "uint256"
				},
				{
					"indexed": true,
					"internalType": "uint256",
					"name": "_newSlot",
					"type": "uint256"
				}
			],
			"name": "SlotChanged",
			"type": "event"
		},
		{
			"anonymous": false,
			"inputs": [
				{
					"indexed": true,
					"internalType": "address",
					"name": "_from",
					"type": "address"
				},
				{
					"indexed": true,
					"internalType": "address",
					"name": "_to",
					"type": "address"
				},
				{
					"indexed": true,
					"internalType": "uint256",
					"name": "_tokenId",
					"type": "uint256"
				}
			],
			"name": "Transfer",
			"type": "event"
		},
		{
			"anonymous": false,
			"inputs": [
				{
					"indexed": true,
					"internalType": "uint256",
					"name": "_fromTokenId",
					"type": "uint256"
				},
				{
					"indexed": true,
					"internalType": "uint256",
					"name": "_toTokenId",
					"type": "uint256"
				},
				{
					"indexed": false,
					"internalType": "uint256",
					"name": "_value",
					"type": "uint256"
				}
			],
			"name": "TransferValue",
			"type": "event"
		},
		{
			"inputs": [
				{
					"internalType": "uint256",
					"name": "tokenId_",
					"type": "uint256"
				},
				{
					"internalType": "address",
					"name": "operator_",
					"type": "address"
				}
			],
			"name": "allowance",
			"outputs": [
				{
					"internalType": "uint256",
					"name": "",
					"type": "uint256"
				}
			],
			"stateMutability": "view",
			"type": "function"
		},
		{
			"inputs": [
				{
					"internalType": "address",
					"name": "to_",
					"type": "address"
				},
				{
					"internalType": "uint256",
					"name": "tokenId_",
					"type": "uint256"
				}
			],
			"name": "approve",
			"outputs": [],
			"stateMutability": "payable",
			"type": "function"
		},
		{
			"inputs": [
				{
					"internalType": "uint256",
					"name": "tokenId_",
					"type": "uint256"
				},
				{
					"internalType": "address",
					"name": "to_",
					"type": "address"
				},
				{
					"internalType": "uint256",
					"name": "value_",
					"type": "uint256"
				}
			],
			"name": "approve",
			"outputs": [],
			"stateMutability": "payable",
			"type": "function"
		},
		{
			"inputs": [
				{
					"internalType": "address",
					"name": "owner_",
					"type": "address"
				}
			],
			"name": "balanceOf",
			"outputs": [
				{
					"internalType": "uint256",
					"name": "balance",
					"type": "uint256"
				}
			],
			"stateMutability": "view",
			"type": "function"
		},
		{
			"inputs": [
				{
					"internalType": "uint256",
					"name": "tokenId_",
					"type": "uint256"
				}
			],
			"name": "balanceOf",
			"outputs": [
				{
					"internalType": "uint256",
					"name": "",
					"type": "uint256"
				}
			],
			"stateMutability": "view",
			"type": "function"
		},
		{
			"inputs": [],
			"name": "baseURI",
			"outputs": [
				{
					"internalType": "string",
					"name": "",
					"type": "string"
				}
			],
			"stateMutability": "view",
			"type": "function"
		},
		{
			"inputs": [],
			"name": "contractURI",
			"outputs": [
				{
					"internalType": "string",
					"name": "",
					"type": "string"
				}
			],
			"stateMutability": "view",
			"type": "function"
		},
		{
			"inputs": [
				{
					"internalType": "uint256",
					"name": "tokenId_",
					"type": "uint256"
				}
			],
			"name": "getApproved",
			"outputs": [
				{
					"internalType": "address",
					"name": "",
					"type": "address"
				}
			],
			"stateMutability": "view",
			"type": "function"
		},
		{
			"inputs": [
				{
					"internalType": "address",
					"name": "owner_",
					"type": "address"
				},
				{
					"internalType": "address",
					"name": "operator_",
					"type": "address"
				}
			],
			"name": "isApprovedForAll",
			"outputs": [
				{
					"internalType": "bool",
					"name": "",
					"type": "bool"
				}
			],
			"stateMutability": "view",
			"type": "function"
		},
		{
			"inputs": [
				{
					"internalType": "address",
					"name": "owner_",
					"type": "address"
				},
				{
					"internalType": "uint256",
					"name": "slot_",
					"type": "uint256"
				},
				{
					"internalType": "address",
					"name": "operator_",
					"type": "address"
				}
			],
			"name": "isApprovedForSlot",
			"outputs": [
				{
					"internalType": "bool",
					"name": "",
					"type": "bool"
				}
			],
			"stateMutability": "view",
			"type": "function"
		},
		{
			"inputs": [],
			"name": "metadataDescriptor",
			"outputs": [
				{
					"internalType": "contract IERC3525MetadataDescriptor",
					"name": "",
					"type": "address"
				}
			],
			"stateMutability": "view",
			"type": "function"
		},
		{
			"inputs": [
				{
					"internalType": "address",
					"name": "mintTo_",
					"type": "address"
				},
				{
					"internalType": "uint256",
					"name": "slot_",
					"type": "uint256"
				},
				{
					"internalType": "uint256",
					"name": "value_",
					"type": "uint256"
				}
			],
			"name": "mint",
			"outputs": [],
			"stateMutability": "nonpayable",
			"type": "function"
		},
		{
			"inputs": [
				{
					"internalType": "uint256",
					"name": "tokenId_",
					"type": "uint256"
				},
				{
					"internalType": "uint256",
					"name": "value_",
					"type": "uint256"
				}
			],
			"name": "mintValue",
			"outputs": [],
			"stateMutability": "nonpayable",
			"type": "function"
		},
		{
			"inputs": [],
			"name": "name",
			"outputs": [
				{
					"internalType": "string",
					"name": "",
					"type": "string"
				}
			],
			"stateMutability": "view",
			"type": "function"
		},
		{
			"inputs": [],
			"name": "owner",
			"outputs": [
				{
					"internalType": "address",
					"name": "",
					"type": "address"
				}
			],
			"stateMutability": "view",
			"type": "function"
		},
		{
			"inputs": [
				{
					"internalType": "uint256",
					"name": "tokenId_",
					"type": "uint256"
				}
			],
			"name": "ownerOf",
			"outputs": [
				{
					"internalType": "address",
					"name": "owner_",
					"type": "address"
				}
			],
			"stateMutability": "view",
			"type": "function"
		},
		{
			"inputs": [],
			"name": "renounceOwnership",
			"outputs": [],
			"stateMutability": "nonpayable",
			"type": "function"
		},
		{
			"inputs": [
				{
					"internalType": "address",
					"name": "from_",
					"type": "address"
				},
				{
					"internalType": "address",
					"name": "to_",
					"type": "address"
				},
				{
					"internalType": "uint256",
					"name": "tokenId_",
					"type": "uint256"
				}
			],
			"name": "safeTransferFrom",
			"outputs": [],
			"stateMutability": "payable",
			"type": "function"
		},
		{
			"inputs": [
				{
					"internalType": "address",
					"name": "from_",
					"type": "address"
				},
				{
					"internalType": "address",
					"name": "to_",
					"type": "address"
				},
				{
					"internalType": "uint256",
					"name": "tokenId_",
					"type": "uint256"
				},
				{
					"internalType": "bytes",
					"name": "data_",
					"type": "bytes"
				}
			],
			"name": "safeTransferFrom",
			"outputs": [],
			"stateMutability": "payable",
			"type": "function"
		},
		{
			"inputs": [
				{
					"internalType": "address",
					"name": "operator_",
					"type": "address"
				},
				{
					"internalType": "bool",
					"name": "approved_",
					"type": "bool"
				}
			],
			"name": "setApprovalForAll",
			"outputs": [],
			"stateMutability": "nonpayable",
			"type": "function"
		},
		{
			"inputs": [
				{
					"internalType": "address",
					"name": "owner_",
					"type": "address"
				},
				{
					"internalType": "uint256",
					"name": "slot_",
					"type": "uint256"
				},
				{
					"internalType": "address",
					"name": "operator_",
					"type": "address"
				},
				{
					"internalType": "bool",
					"name": "approved_",
					"type": "bool"
				}
			],
			"name": "setApprovalForSlot",
			"outputs": [],
			"stateMutability": "payable",
			"type": "function"
		},
		{
			"inputs": [
				{
					"internalType": "string",
					"name": "newuri",
					"type": "string"
				}
			],
			"name": "setBaseURI",
			"outputs": [],
			"stateMutability": "nonpayable",
			"type": "function"
		},
		{
			"inputs": [
				{
					"internalType": "uint256",
					"name": "index_",
					"type": "uint256"
				}
			],
			"name": "slotByIndex",
			"outputs": [
				{
					"internalType": "uint256",
					"name": "",
					"type": "uint256"
				}
			],
			"stateMutability": "view",
			"type": "function"
		},
		{
			"inputs": [],
			"name": "slotCount",
			"outputs": [
				{
					"internalType": "uint256",
					"name": "",
					"type": "uint256"
				}
			],
			"stateMutability": "view",
			"type": "function"
		},
		{
			"inputs": [
				{
					"internalType": "uint256",
					"name": "tokenId_",
					"type": "uint256"
				}
			],
			"name": "slotOf",
			"outputs": [
				{
					"internalType": "uint256",
					"name": "",
					"type": "uint256"
				}
			],
			"stateMutability": "view",
			"type": "function"
		},
		{
			"inputs": [
				{
					"internalType": "uint256",
					"name": "slot_",
					"type": "uint256"
				}
			],
			"name": "slotURI",
			"outputs": [
				{
					"internalType": "string",
					"name": "",
					"type": "string"
				}
			],
			"stateMutability": "view",
			"type": "function"
		},
		{
			"inputs": [
				{
					"internalType": "bytes4",
					"name": "interfaceId",
					"type": "bytes4"
				}
			],
			"name": "supportsInterface",
			"outputs": [
				{
					"internalType": "bool",
					"name": "",
					"type": "bool"
				}
			],
			"stateMutability": "view",
			"type": "function"
		},
		{
			"inputs": [],
			"name": "symbol",
			"outputs": [
				{
					"internalType": "string",
					"name": "",
					"type": "string"
				}
			],
			"stateMutability": "view",
			"type": "function"
		},
		{
			"inputs": [
				{
					"internalType": "uint256",
					"name": "index_",
					"type": "uint256"
				}
			],
			"name": "tokenByIndex",
			"outputs": [
				{
					"internalType": "uint256",
					"name": "",
					"type": "uint256"
				}
			],
			"stateMutability": "view",
			"type": "function"
		},
		{
			"inputs": [
				{
					"internalType": "uint256",
					"name": "slot_",
					"type": "uint256"
				},
				{
					"internalType": "uint256",
					"name": "index_",
					"type": "uint256"
				}
			],
			"name": "tokenInSlotByIndex",
			"outputs": [
				{
					"internalType": "uint256",
					"name": "",
					"type": "uint256"
				}
			],
			"stateMutability": "view",
			"type": "function"
		},
		{
			"inputs": [
				{
					"internalType": "address",
					"name": "owner_",
					"type": "address"
				},
				{
					"internalType": "uint256",
					"name": "index_",
					"type": "uint256"
				}
			],
			"name": "tokenOfOwnerByIndex",
			"outputs": [
				{
					"internalType": "uint256",
					"name": "",
					"type": "uint256"
				}
			],
			"stateMutability": "view",
			"type": "function"
		},
		{
			"inputs": [
				{
					"internalType": "uint256",
					"name": "slot_",
					"type": "uint256"
				}
			],
			"name": "tokenSupplyInSlot",
			"outputs": [
				{
					"internalType": "uint256",
					"name": "",
					"type": "uint256"
				}
			],
			"stateMutability": "view",
			"type": "function"
		},
		{
			"inputs": [
				{
					"internalType": "uint256",
					"name": "tokenId_",
					"type": "uint256"
				}
			],
			"name": "tokenURI",
			"outputs": [
				{
					"internalType": "string",
					"name": "",
					"type": "string"
				}
			],
			"stateMutability": "view",
			"type": "function"
		},
		{
			"inputs": [],
			"name": "totalSupply",
			"outputs": [
				{
					"internalType": "uint256",
					"name": "",
					"type": "uint256"
				}
			],
			"stateMutability": "view",
			"type": "function"
		},
		{
			"inputs": [
				{
					"internalType": "uint256",
					"name": "fromTokenId_",
					"type": "uint256"
				},
				{
					"internalType": "address",
					"name": "to_",
					"type": "address"
				},
				{
					"internalType": "uint256",
					"name": "value_",
					"type": "uint256"
				}
			],
			"name": "transferFrom",
			"outputs": [
				{
					"internalType": "uint256",
					"name": "newTokenId",
					"type": "uint256"
				}
			],
			"stateMutability": "payable",
			"type": "function"
		},
		{
			"inputs": [
				{
					"internalType": "address",
					"name": "from_",
					"type": "address"
				},
				{
					"internalType": "address",
					"name": "to_",
					"type": "address"
				},
				{
					"internalType": "uint256",
					"name": "tokenId_",
					"type": "uint256"
				}
			],
			"name": "transferFrom",
			"outputs": [],
			"stateMutability": "payable",
			"type": "function"
		},
		{
			"inputs": [
				{
					"internalType": "uint256",
					"name": "fromTokenId_",
					"type": "uint256"
				},
				{
					"internalType": "uint256",
					"name": "toTokenId_",
					"type": "uint256"
				},
				{
					"internalType": "uint256",
					"name": "value_",
					"type": "uint256"
				}
			],
			"name": "transferFrom",
			"outputs": [],
			"stateMutability": "payable",
			"type": "function"
		},
		{
			"inputs": [
				{
					"internalType": "address",
					"name": "newOwner",
					"type": "address"
				}
			],
			"name": "transferOwnership",
			"outputs": [],
			"stateMutability": "nonpayable",
			"type": "function"
		},
		{
			"inputs": [],
			"name": "valueDecimals",
			"outputs": [
				{
					"internalType": "uint8",
					"name": "",
					"type": "uint8"
				}
			],
			"stateMutability": "view",
			"type": "function"
		}
	]
}