{
	"data": {
		"bytecode": {
			"linkReferences": {},
			"object": "608060405234801562000010575f80fd5b506040516200620338038062006203833981810160405281019062000036919062000454565b868383836001600381905550825f908162000052919062000796565b50816001908162000064919062000796565b508060025f6101000a81548160ff021916908360ff1602179055505050505f73ffffffffffffffffffffffffffffffffffffffff168173ffffffffffffffffffffffffffffffffffffffff1603620000f5575f6040517f1e4fbdf7000000000000000000000000000000000000000000000000000000008152600401620000ec91906200088b565b60405180910390fd5b62000106816200017060201b60201c565b5083600c5f6101000a81548173ffffffffffffffffffffffffffffffffffffffff021916908373ffffffffffffffffffffffffffffffffffffffff1602179055508460ff16600d8190555085600a908162000162919062000796565b5050505050505050620008a6565b5f60095f9054906101000a900473ffffffffffffffffffffffffffffffffffffffff1690508160095f6101000a81548173ffffffffffffffffffffffffffffffffffffffff021916908373ffffffffffffffffffffffffffffffffffffffff1602179055508173ffffffffffffffffffffffffffffffffffffffff168173ffffffffffffffffffffffffffffffffffffffff167f8be0079c531659141344cd1fd0a4f28419497f9722a3daafe3b4186f6b6457e060405160405180910390a35050565b5f604051905090565b5f80fd5b5f80fd5b5f73ffffffffffffffffffffffffffffffffffffffff82169050919050565b5f6200026f8262000244565b9050919050565b620002818162000263565b81146200028c575f80fd5b50565b5f815190506200029f8162000276565b92915050565b5f80fd5b5f80fd5b5f601f19601f8301169050919050565b7f4e487b71000000000000000000000000000000000000000000000000000000005f52604160045260245ffd5b620002f582620002ad565b810181811067ffffffffffffffff82111715620003175762000316620002bd565b5b80604052505050565b5f6200032b62000233565b9050620003398282620002ea565b919050565b5f67ffffffffffffffff8211156200035b576200035a620002bd565b5b6200036682620002ad565b9050602081019050919050565b5f5b838110156200039257808201518184015260208101905062000375565b5f8484015250505050565b5f620003b3620003ad846200033e565b62000320565b905082815260208101848484011115620003d257620003d1620002a9565b5b620003df84828562000373565b509392505050565b5f82601f830112620003fe57620003fd620002a5565b5b8151620004108482602086016200039d565b91505092915050565b5f60ff82169050919050565b620004308162000419565b81146200043b575f80fd5b50565b5f815190506200044e8162000425565b92915050565b5f805f805f805f60e0888a0312156200047257620004716200023c565b5b5f620004818a828b016200028f565b975050602088015167ffffffffffffffff811115620004a557620004a462000240565b5b620004b38a828b01620003e7565b9650506040620004c68a828b016200043e565b9550506060620004d98a828b016200028f565b945050608088015167ffffffffffffffff811115620004fd57620004fc62000240565b5b6200050b8a828b01620003e7565b93505060a088015167ffffffffffffffff8111156200052f576200052e62000240565b5b6200053d8a828b01620003e7565b92505060c0620005508a828b016200043e565b91505092959891949750929550565b5f81519050919050565b7f4e487b71000000000000000000000000000000000000000000000000000000005f52602260045260245ffd5b5f6002820490506001821680620005ae57607f821691505b602082108103620005c457620005c362000569565b5b50919050565b5f819050815f5260205f209050919050565b5f6020601f8301049050919050565b5f82821b905092915050565b5f60088302620006287fffffffffffffffffffffffffffffffffffffffffffffffffffffffffffffffff82620005eb565b620006348683620005eb565b95508019841693508086168417925050509392505050565b5f819050919050565b5f819050919050565b5f6200067e6200067862000672846200064c565b62000655565b6200064c565b9050919050565b5f819050919050565b62000699836200065e565b620006b1620006a88262000685565b848454620005f7565b825550505050565b5f90565b620006c7620006b9565b620006d48184846200068e565b505050565b5b81811015620006fb57620006ef5f82620006bd565b600181019050620006da565b5050565b601f8211156200074a576200071481620005ca565b6200071f84620005dc565b810160208510156200072f578190505b620007476200073e85620005dc565b830182620006d9565b50505b505050565b5f82821c905092915050565b5f6200076c5f19846008026200074f565b1980831691505092915050565b5f6200078683836200075b565b9150826002028217905092915050565b620007a1826200055f565b67ffffffffffffffff811115620007bd57620007bc620002bd565b5b620007c9825462000596565b620007d6828285620006ff565b5f60209050601f8311600181146200080c575f8415620007f7578287015190505b62000803858262000779565b86555062000872565b601f1984166200081c86620005ca565b5f5b8281101562000845578489015182556001820191506020850194506020810190506200081e565b8683101562000865578489015162000861601f8916826200075b565b8355505b6001600288020188555050505b505050505050565b620008858162000263565b82525050565b5f602082019050620008a05f8301846200087a565b92915050565b61594f80620008b45f395ff3fe60806040526004361061023a575f3560e01c806379e8b6511161012d578063b0667cf8116100aa578063e345e0bc1161006e578063e345e0bc14610846578063e8a3d48514610882578063e985e9c5146108ac578063f0e88e7f146108e8578063f2fde38b146109105761023a565b8063b0667cf814610772578063b88d4fde1461079c578063b9592a56146107b8578063c87b56dd146107e0578063dd3fc0ab1461081c5761023a565b806395d89b41116100f157806395d89b41146106905780639cc7f708146106ba5780639e6ec2cb146106f6578063a22cb46514610720578063a786c18b146107485761023a565b806379e8b651146105cc578063840f7113146105f65780638cb0a511146106205780638da5cb5b1461063c5780638f84aa09146106665761023a565b80632f745c59116101bb57806355f804b31161017f57806355f804b3146104ec5780636352211e146105145780636c0360eb1461055057806370a082311461057a578063715018a6146105b65761023a565b80632f745c5914610412578063310ed7f01461044e5780633e7e86691461046a57806342842e0e146104945780634f6ccce7146104b05761023a565b80630f485c02116102025780630f485c0214610338578063156e29f61461036857806318160ddd1461039057806323b872dd146103ba578063263f3e7e146103d65761023a565b806301ffc9a71461023e57806306fdde031461027a578063081812fc146102a4578063095ea7b3146102e057806309c3dd87146102fc575b5f80fd5b348015610249575f80fd5b50610264600480360381019061025f9190613c27565b610938565b6040516102719190613c6c565b60405180910390f35b348015610285575f80fd5b5061028e610ba9565b60405161029b9190613d0f565b60405180910390f35b3480156102af575f80fd5b506102ca60048036038101906102c59190613d62565b610c38565b6040516102d79190613dcc565b60405180910390f35b6102fa60048036038101906102f59190613e0f565b610c9d565b005b348015610307575f80fd5b50610322600480360381019061031d9190613d62565b610db3565b60405161032f9190613d0f565b60405180910390f35b610352600480360381019061034d9190613e4d565b610f05565b60405161035f9190613eac565b60405180910390f35b348015610373575f80fd5b5061038e60048036038101906103899190613ec5565b610f49565b005b34801561039b575f80fd5b506103a4610f62565b6040516103b19190613eac565b60405180910390f35b6103d460048036038101906103cf9190613f15565b610f6e565b005b3480156103e1575f80fd5b506103fc60048036038101906103f79190613d62565b610fce565b6040516104099190613eac565b60405180910390f35b34801561041d575f80fd5b5061043860048036038101906104339190613e0f565b611014565b6040516104459190613eac565b60405180910390f35b61046860048036038101906104639190613f65565b6110c1565b005b348015610475575f80fd5b5061047e6110e3565b60405161048b9190613fd0565b60405180910390f35b6104ae60048036038101906104a99190613f15565b6110f8565b005b3480156104bb575f80fd5b506104d660048036038101906104d19190613d62565b611117565b6040516104e39190613eac565b60405180910390f35b3480156104f7575f80fd5b50610512600480360381019061050d9190614115565b61118b565b005b34801561051f575f80fd5b5061053a60048036038101906105359190613d62565b6111a6565b6040516105479190613dcc565b60405180910390f35b34801561055b575f80fd5b50610564611279565b6040516105719190613d0f565b60405180910390f35b348015610585575f80fd5b506105a0600480360381019061059b919061415c565b611305565b6040516105ad9190613eac565b60405180910390f35b3480156105c1575f80fd5b506105ca6113be565b005b3480156105d7575f80fd5b506105e06113d1565b6040516105ed9190613d0f565b60405180910390f35b348015610601575f80fd5b5061060a61145d565b60405161061791906141e2565b60405180910390f35b61063a60048036038101906106359190613e4d565b611482565b005b348015610647575f80fd5b5061065061155d565b60405161065d9190613dcc565b60405180910390f35b348015610671575f80fd5b5061067a611585565b6040516106879190613dcc565b60405180910390f35b34801561069b575f80fd5b506106a46115aa565b6040516106b19190613d0f565b60405180910390f35b3480156106c5575f80fd5b506106e060048036038101906106db9190613d62565b61163a565b6040516106ed9190613eac565b60405180910390f35b348015610701575f80fd5b5061070a611680565b6040516107179190613eac565b60405180910390f35b34801561072b575f80fd5b5061074660048036038101906107419190614225565b611689565b005b348015610753575f80fd5b5061075c61169f565b6040516107699190613dcc565b60405180910390f35b34801561077d575f80fd5b506107866116c7565b6040516107939190613eac565b60405180910390f35b6107b660048036038101906107b19190614301565b6116cd565b005b3480156107c3575f80fd5b506107de60048036038101906107d99190613d62565b61172f565b005b3480156107eb575f80fd5b5061080660048036038101906108019190613d62565b611806565b6040516108139190613d0f565b60405180910390f35b348015610827575f80fd5b50610830611961565b60405161083d9190613d0f565b60405180910390f35b348015610851575f80fd5b5061086c60048036038101906108679190614381565b6119f1565b6040516108799190613eac565b60405180910390f35b34801561088d575f80fd5b50610896611a50565b6040516108a39190613d0f565b60405180910390f35b3480156108b7575f80fd5b506108d260048036038101906108cd91906143bf565b611b95565b6040516108df9190613c6c565b60405180910390f35b3480156108f3575f80fd5b5061090e600480360381019061090991906143fd565b611c26565b005b34801561091b575f80fd5b506109366004803603810190610931919061415c565b611c3c565b005b5f7f01ffc9a7000000000000000000000000000000000000000000000000000000007bffffffffffffffffffffffffffffffffffffffffffffffffffffffff1916827bffffffffffffffffffffffffffffffffffffffffffffffffffffffff19161480610a0257507fd5358140000000000000000000000000000000000000000000000000000000007bffffffffffffffffffffffffffffffffffffffffffffffffffffffff1916827bffffffffffffffffffffffffffffffffffffffffffffffffffffffff1916145b80610a6a57507f80ac58cd000000000000000000000000000000000000000000000000000000007bffffffffffffffffffffffffffffffffffffffffffffffffffffffff1916827bffffffffffffffffffffffffffffffffffffffffffffffffffffffff1916145b80610ad257507fe1600902000000000000000000000000000000000000000000000000000000007bffffffffffffffffffffffffffffffffffffffffffffffffffffffff1916827bffffffffffffffffffffffffffffffffffffffffffffffffffffffff1916145b80610b3a57507f780e9d63000000000000000000000000000000000000000000000000000000007bffffffffffffffffffffffffffffffffffffffffffffffffffffffff1916827bffffffffffffffffffffffffffffffffffffffffffffffffffffffff1916145b80610ba257507f5b5e139f000000000000000000000000000000000000000000000000000000007bffffffffffffffffffffffffffffffffffffffffffffffffffffffff1916827bffffffffffffffffffffffffffffffffffffffffffffffffffffffff1916145b9050919050565b60605f8054610bb790614468565b80601f0160208091040260200160405190810160405280929190818152602001828054610be390614468565b8015610c2e5780601f10610c0557610100808354040283529160200191610c2e565b820191905f5260205f20905b815481529060010190602001808311610c1157829003601f168201915b5050505050905090565b5f610c4282611cc0565b600560065f8481526020019081526020015f205481548110610c6757610c66614498565b5b905f5260205f2090600602016004015f9054906101000a900473ffffffffffffffffffffffffffffffffffffffff169050919050565b5f610ca7826111a6565b90508073ffffffffffffffffffffffffffffffffffffffff168373ffffffffffffffffffffffffffffffffffffffff1603610d17576040517f08c379a0000000000000000000000000000000000000000000000000000000008152600401610d0e90614535565b60405180910390fd5b8073ffffffffffffffffffffffffffffffffffffffff16610d36611d0b565b73ffffffffffffffffffffffffffffffffffffffff161480610d655750610d6481610d5f611d0b565b611b95565b5b610da4576040517f08c379a0000000000000000000000000000000000000000000000000000000008152600401610d9b906145c3565b60405180910390fd5b610dae8383611d12565b505050565b60605f610dbe611deb565b90505f73ffffffffffffffffffffffffffffffffffffffff1660085f9054906101000a900473ffffffffffffffffffffffffffffffffffffffff1673ffffffffffffffffffffffffffffffffffffffff1603610e60575f815111610e305760405180602001604052805f815250610e5b565b80610e3a84611e7b565b604051602001610e4b929190614665565b6040516020818303038152906040525b610efd565b60085f9054906101000a900473ffffffffffffffffffffffffffffffffffffffff1673ffffffffffffffffffffffffffffffffffffffff16636c037f8a846040518263ffffffff1660e01b8152600401610eba9190613eac565b5f60405180830381865afa158015610ed4573d5f803e3d5ffd5b505050506040513d5f823e3d601f19601f82011682018060405250810190610efc9190614701565b5b915050919050565b5f610f18610f11611d0b565b8584611f45565b610f2184611fee565b9050610f378382610f3187610fce565b5f611ffe565b610f4284828461212e565b9392505050565b610f51612434565b610f5c8383836124bb565b50505050565b5f600580549050905090565b610f7f610f79611d0b565b826124d9565b610fbe576040517f08c379a0000000000000000000000000000000000000000000000000000000008152600401610fb5906147b8565b60405180910390fd5b610fc983838361256d565b505050565b5f610fd882611cc0565b600560065f8481526020019081526020015f205481548110610ffd57610ffc614498565b5b905f5260205f209060060201600101549050919050565b5f61101e83611305565b821061105f576040517f08c379a000000000000000000000000000000000000000000000000000000000815260040161105690614846565b60405180910390fd5b60075f8473ffffffffffffffffffffffffffffffffffffffff1673ffffffffffffffffffffffffffffffffffffffff1681526020019081526020015f205f0182815481106110b0576110af614498565b5b905f5260205f200154905092915050565b6110d36110cc611d0b565b8483611f45565b6110de83838361212e565b505050565b5f60025f9054906101000a900460ff16905090565b61111283838360405180602001604052805f8152506116cd565b505050565b5f611120610f62565b8210611161576040517f08c379a0000000000000000000000000000000000000000000000000000000008152600401611158906148d4565b60405180910390fd5b6005828154811061117557611174614498565b5b905f5260205f2090600602015f01549050919050565b611193612434565b80600b90816111a29190614a86565b5050565b5f6111b082611cc0565b600560065f8481526020019081526020015f2054815481106111d5576111d4614498565b5b905f5260205f2090600602016003015f9054906101000a900473ffffffffffffffffffffffffffffffffffffffff1690505f73ffffffffffffffffffffffffffffffffffffffff168173ffffffffffffffffffffffffffffffffffffffff1603611274576040517f08c379a000000000000000000000000000000000000000000000000000000000815260040161126b90614b9f565b60405180910390fd5b919050565b600b805461128690614468565b80601f01602080910402602001604051908101604052809291908181526020018280546112b290614468565b80156112fd5780601f106112d4576101008083540402835291602001916112fd565b820191905f5260205f20905b8154815290600101906020018083116112e057829003601f168201915b505050505081565b5f8073ffffffffffffffffffffffffffffffffffffffff168273ffffffffffffffffffffffffffffffffffffffff1603611374576040517f08c379a000000000000000000000000000000000000000000000000000000000815260040161136b90614c2d565b60405180910390fd5b60075f8373ffffffffffffffffffffffffffffffffffffffff1673ffffffffffffffffffffffffffffffffffffffff1681526020019081526020015f205f01805490509050919050565b6113c6612434565b6113cf5f61270e565b565b600a80546113de90614468565b80601f016020809104026020016040519081016040528092919081815260200182805461140a90614468565b80156114555780601f1061142c57610100808354040283529160200191611455565b820191905f5260205f20905b81548152906001019060200180831161143857829003601f168201915b505050505081565b60085f9054906101000a900473ffffffffffffffffffffffffffffffffffffffff1681565b5f61148c846111a6565b90508073ffffffffffffffffffffffffffffffffffffffff168373ffffffffffffffffffffffffffffffffffffffff16036114fc576040517f08c379a00000000000000000000000000000000000000000000000000000000081526004016114f390614535565b60405180910390fd5b61150d611507611d0b565b856124d9565b61154c576040517f08c379a000000000000000000000000000000000000000000000000000000000815260040161154390614cbb565b60405180910390fd5b6115578484846127d1565b50505050565b5f60095f9054906101000a900473ffffffffffffffffffffffffffffffffffffffff16905090565b600c5f9054906101000a900473ffffffffffffffffffffffffffffffffffffffff1681565b6060600180546115b990614468565b80601f01602080910402602001604051908101604052809291908181526020018280546115e590614468565b80156116305780601f1061160757610100808354040283529160200191611630565b820191905f5260205f20905b81548152906001019060200180831161161357829003601f168201915b5050505050905090565b5f61164482611cc0565b600560065f8481526020019081526020015f20548154811061166957611668614498565b5b905f5260205f209060060201600201549050919050565b5f600d54905090565b61169b611694611d0b565b8383612985565b5050565b5f600c5f9054906101000a900473ffffffffffffffffffffffffffffffffffffffff16905090565b600d5481565b6116de6116d8611d0b565b836124d9565b61171d576040517f08c379a0000000000000000000000000000000000000000000000000000000008152600401611714906147b8565b60405180910390fd5b61172984848484612aef565b50505050565b600c5f9054906101000a900473ffffffffffffffffffffffffffffffffffffffff1673ffffffffffffffffffffffffffffffffffffffff1661176f611d0b565b73ffffffffffffffffffffffffffffffffffffffff16146117c5576040517f08c379a00000000000000000000000000000000000000000000000000000000081526004016117bc90614d23565b60405180910390fd5b80600d819055507fe61a40be238de5f9cc0fb84cece6b230a18d85edc5674e0b0df879f0d6365cdf816040516117fb9190613eac565b60405180910390a150565b606061181182611cc0565b5f61181a611deb565b90505f73ffffffffffffffffffffffffffffffffffffffff1660085f9054906101000a900473ffffffffffffffffffffffffffffffffffffffff1673ffffffffffffffffffffffffffffffffffffffff16036118bc575f81511161188c5760405180602001604052805f8152506118b7565b8061189684611e7b565b6040516020016118a7929190614d41565b6040516020818303038152906040525b611959565b60085f9054906101000a900473ffffffffffffffffffffffffffffffffffffffff1673ffffffffffffffffffffffffffffffffffffffff1663894b4c2e846040518263ffffffff1660e01b81526004016119169190613eac565b5f60405180830381865afa158015611930573d5f803e3d5ffd5b505050506040513d5f823e3d601f19601f820116820180604052508101906119589190614701565b5b915050919050565b6060600a805461197090614468565b80601f016020809104026020016040519081016040528092919081815260200182805461199c90614468565b80156119e75780601f106119be576101008083540402835291602001916119e7565b820191905f5260205f20905b8154815290600101906020018083116119ca57829003601f168201915b5050505050905090565b5f6119fb83611cc0565b60045f8481526020019081526020015f205f8373ffffffffffffffffffffffffffffffffffffffff1673ffffffffffffffffffffffffffffffffffffffff1681526020019081526020015f2054905092915050565b60605f611a5b611deb565b90505f73ffffffffffffffffffffffffffffffffffffffff1660085f9054906101000a900473ffffffffffffffffffffffffffffffffffffffff1673ffffffffffffffffffffffffffffffffffffffff1603611afd575f815111611acd5760405180602001604052805f815250611af8565b80611ad730612b4b565b604051602001611ae8929190614dae565b6040516020818303038152906040525b611b8f565b60085f9054906101000a900473ffffffffffffffffffffffffffffffffffffffff1673ffffffffffffffffffffffffffffffffffffffff1663725fa09c6040518163ffffffff1660e01b81526004015f60405180830381865afa158015611b66573d5f803e3d5ffd5b505050506040513d5f823e3d601f19601f82011682018060405250810190611b8e9190614701565b5b91505090565b5f60075f8473ffffffffffffffffffffffffffffffffffffffff1673ffffffffffffffffffffffffffffffffffffffff1681526020019081526020015f206002015f8373ffffffffffffffffffffffffffffffffffffffff1673ffffffffffffffffffffffffffffffffffffffff1681526020019081526020015f205f9054906101000a900460ff16905092915050565b611c2e612434565b611c388282612b78565b5050565b611c44612434565b5f73ffffffffffffffffffffffffffffffffffffffff168173ffffffffffffffffffffffffffffffffffffffff1603611cb4575f6040517f1e4fbdf7000000000000000000000000000000000000000000000000000000008152600401611cab9190613dcc565b60405180910390fd5b611cbd8161270e565b50565b611cc981612bbc565b611d08576040517f08c379a0000000000000000000000000000000000000000000000000000000008152600401611cff90614b9f565b60405180910390fd5b50565b5f33905090565b81600560065f8481526020019081526020015f205481548110611d3857611d37614498565b5b905f5260205f2090600602016004015f6101000a81548173ffffffffffffffffffffffffffffffffffffffff021916908373ffffffffffffffffffffffffffffffffffffffff160217905550808273ffffffffffffffffffffffffffffffffffffffff16611da5836111a6565b73ffffffffffffffffffffffffffffffffffffffff167f8c5be1e5ebec7d5bd14f71427d1e84f3dd0314c0f7b2291e5b200ac8c7c3b92560405160405180910390a45050565b6060600b8054611dfa90614468565b80601f0160208091040260200160405190810160405280929190818152602001828054611e2690614468565b8015611e715780601f10611e4857610100808354040283529160200191611e71565b820191905f5260205f20905b815481529060010190602001808311611e5457829003601f168201915b5050505050905090565b60605f6001611e8984612c0b565b0190505f8167ffffffffffffffff811115611ea757611ea6613ff1565b5b6040519080825280601f01601f191660200182016040528015611ed95781602001600182028036833780820191505090505b5090505f82602001820190505b600115611f3a578080600190039150507f3031323334353637383961626364656600000000000000000000000000000000600a86061a8153600a8581611f2f57611f2e614ddc565b5b0494505f8503611ee6575b819350505050919050565b5f611f5083856119f1565b9050611f5c84846124d9565b158015611f8957507fffffffffffffffffffffffffffffffffffffffffffffffffffffffffffffffff8114155b15611fe85781811015611fd1576040517f08c379a0000000000000000000000000000000000000000000000000000000008152600401611fc890614e53565b60405180910390fd5b611fe783858484611fe29190614e9e565b6127d1565b5b50505050565b5f611ff7612d5c565b9050919050565b5f73ffffffffffffffffffffffffffffffffffffffff168473ffffffffffffffffffffffffffffffffffffffff160361206c576040517f08c379a000000000000000000000000000000000000000000000000000000000815260040161206390614f41565b60405180910390fd5b5f83036120ae576040517f08c379a00000000000000000000000000000000000000000000000000000000081526004016120a590614fcf565b60405180910390fd5b6120b783612bbc565b156120f7576040517f08c379a00000000000000000000000000000000000000000000000000000000081526004016120ee90615037565b60405180910390fd5b6121055f855f868686612d78565b612110848484612d80565b61211a8382612ec7565b6121285f855f868686612f4e565b50505050565b61213783612bbc565b612176576040517f08c379a000000000000000000000000000000000000000000000000000000000815260040161216d906150c5565b60405180910390fd5b61217f82612bbc565b6121be576040517f08c379a00000000000000000000000000000000000000000000000000000000081526004016121b590615153565b60405180910390fd5b5f600560065f8681526020019081526020015f2054815481106121e4576121e3614498565b5b905f5260205f20906006020190505f600560065f8681526020019081526020015f20548154811061221857612217614498565b5b905f5260205f2090600602019050828260020154101561226d576040517f08c379a0000000000000000000000000000000000000000000000000000000008152600401612264906151e1565b60405180910390fd5b80600101548260010154146122b7576040517f08c379a00000000000000000000000000000000000000000000000000000000081526004016122ae9061526f565b60405180910390fd5b61230f826003015f9054906101000a900473ffffffffffffffffffffffffffffffffffffffff16826003015f9054906101000a900473ffffffffffffffffffffffffffffffffffffffff168787866001015488612d78565b82826002015f8282546123229190614e9e565b9250508190555082816002015f82825461233c919061528d565b9250508190555083857f0b2aac84f3ec956911fd78eae5311062972ff949f38412e8da39069d9f068cc6856040516123749190613eac565b60405180910390a36123d4826003015f9054906101000a900473ffffffffffffffffffffffffffffffffffffffff16826003015f9054906101000a900473ffffffffffffffffffffffffffffffffffffffff168787866001015488612f4e565b6123ee85858560405180602001604052805f815250612f56565b61242d576040517f08c379a000000000000000000000000000000000000000000000000000000000815260040161242490615330565b60405180910390fd5b5050505050565b61243c611d0b565b73ffffffffffffffffffffffffffffffffffffffff1661245a61155d565b73ffffffffffffffffffffffffffffffffffffffff16146124b95761247d611d0b565b6040517f118cdaa70000000000000000000000000000000000000000000000000000000081526004016124b09190613dcc565b60405180910390fd5b565b5f6124c4612d5c565b90506124d284828585611ffe565b9392505050565b5f806124e4836111a6565b90508073ffffffffffffffffffffffffffffffffffffffff168473ffffffffffffffffffffffffffffffffffffffff16148061252657506125258185611b95565b5b8061256457508373ffffffffffffffffffffffffffffffffffffffff1661254c84610c38565b73ffffffffffffffffffffffffffffffffffffffff16145b91505092915050565b8273ffffffffffffffffffffffffffffffffffffffff1661258d826111a6565b73ffffffffffffffffffffffffffffffffffffffff16146125e3576040517f08c379a00000000000000000000000000000000000000000000000000000000081526004016125da906153be565b60405180910390fd5b5f73ffffffffffffffffffffffffffffffffffffffff168273ffffffffffffffffffffffffffffffffffffffff1603612651576040517f08c379a00000000000000000000000000000000000000000000000000000000081526004016126489061544c565b60405180910390fd5b5f61265b82610fce565b90505f6126678361163a565b9050612677858585868686612d78565b6126815f84611d12565b61268a8361313c565b6126948584613238565b61269e84846133b6565b828473ffffffffffffffffffffffffffffffffffffffff168673ffffffffffffffffffffffffffffffffffffffff167fddf252ad1be2c89b69c2b068fc378daa952ba7f163c4a11628f55a4df523b3ef60405160405180910390a4612707858585868686612f4e565b5050505050565b5f60095f9054906101000a900473ffffffffffffffffffffffffffffffffffffffff1690508160095f6101000a81548173ffffffffffffffffffffffffffffffffffffffff021916908373ffffffffffffffffffffffffffffffffffffffff1602179055508173ffffffffffffffffffffffffffffffffffffffff168173ffffffffffffffffffffffffffffffffffffffff167f8be0079c531659141344cd1fd0a4f28419497f9722a3daafe3b4186f6b6457e060405160405180910390a35050565b5f73ffffffffffffffffffffffffffffffffffffffff168273ffffffffffffffffffffffffffffffffffffffff160361283f576040517f08c379a0000000000000000000000000000000000000000000000000000000008152600401612836906154da565b60405180910390fd5b6128498284613525565b6128e057600560065f8581526020019081526020015f20548154811061287257612871614498565b5b905f5260205f20906006020160050182908060018154018082558091505060019003905f5260205f20015f9091909190916101000a81548173ffffffffffffffffffffffffffffffffffffffff021916908373ffffffffffffffffffffffffffffffffffffffff1602179055505b8060045f8581526020019081526020015f205f8473ffffffffffffffffffffffffffffffffffffffff1673ffffffffffffffffffffffffffffffffffffffff1681526020019081526020015f20819055508173ffffffffffffffffffffffffffffffffffffffff16837f621b050de0ad08b51d19b48b3e6df75348c4de6bdd93e81b252ca62e28265b1b836040516129789190613eac565b60405180910390a3505050565b8173ffffffffffffffffffffffffffffffffffffffff168373ffffffffffffffffffffffffffffffffffffffff16036129f3576040517f08c379a00000000000000000000000000000000000000000000000000000000081526004016129ea90615542565b60405180910390fd5b8060075f8573ffffffffffffffffffffffffffffffffffffffff1673ffffffffffffffffffffffffffffffffffffffff1681526020019081526020015f206002015f8473ffffffffffffffffffffffffffffffffffffffff1673ffffffffffffffffffffffffffffffffffffffff1681526020019081526020015f205f6101000a81548160ff0219169083151502179055508173ffffffffffffffffffffffffffffffffffffffff168373ffffffffffffffffffffffffffffffffffffffff167f17307eab39ab6107e8899845ad3d59bd9653f200f220920489ca2b5937696c3183604051612ae29190613c6c565b60405180910390a3505050565b612afa84848461256d565b612b068484848461362f565b612b45576040517f08c379a0000000000000000000000000000000000000000000000000000000008152600401612b3c906155d0565b60405180910390fd5b50505050565b6060612b718273ffffffffffffffffffffffffffffffffffffffff16601460ff1661379b565b9050919050565b5f612b82836111a6565b90505f612b8e84610fce565b9050612b9e5f835f878588612d78565b612ba88484612ec7565b612bb65f835f878588612f4e565b50505050565b5f8060058054905014158015612c04575081600560065f8581526020019081526020015f205481548110612bf357612bf2614498565b5b905f5260205f2090600602015f0154145b9050919050565b5f805f90507a184f03e93ff9f4daa797ed6e38ed64bf6a1f0100000000000000008310612c67577a184f03e93ff9f4daa797ed6e38ed64bf6a1f0100000000000000008381612c5d57612c5c614ddc565b5b0492506040810190505b6d04ee2d6d415b85acef81000000008310612ca4576d04ee2d6d415b85acef81000000008381612c9a57612c99614ddc565b5b0492506020810190505b662386f26fc100008310612cd357662386f26fc100008381612cc957612cc8614ddc565b5b0492506010810190505b6305f5e1008310612cfc576305f5e1008381612cf257612cf1614ddc565b5b0492506008810190505b6127108310612d21576127108381612d1757612d16614ddc565b5b0492506004810190505b60648310612d445760648381612d3a57612d39614ddc565b5b0492506002810190505b600a8310612d53576001810190505b80915050919050565b5f60035f815480929190612d6f906155ee565b91905055905090565b505050505050565b5f6040518060c001604052808481526020018381526020015f81526020018573ffffffffffffffffffffffffffffffffffffffff1681526020015f73ffffffffffffffffffffffffffffffffffffffff1681526020015f67ffffffffffffffff811115612df057612def613ff1565b5b604051908082528060200260200182016040528015612e1e5781602001602082028036833780820191505090505b508152509050612e2d816139d9565b612e3784846133b6565b828473ffffffffffffffffffffffffffffffffffffffff165f73ffffffffffffffffffffffffffffffffffffffff167fddf252ad1be2c89b69c2b068fc378daa952ba7f163c4a11628f55a4df523b3ef60405160405180910390a4815f847fe4f48c240d3b994948aa54f3e2f5fca59263dfe1d52b6e4cf39a5d249b5ccb6560405160405180910390a450505050565b80600560065f8581526020019081526020015f205481548110612eed57612eec614498565b5b905f5260205f2090600602016002015f828254612f0a919061528d565b92505081905550815f7f0b2aac84f3ec956911fd78eae5311062972ff949f38412e8da39069d9f068cc683604051612f429190613eac565b60405180910390a35050565b505050505050565b5f80612f61856111a6565b9050612f6c81613aea565b1561312e578073ffffffffffffffffffffffffffffffffffffffff166301ffc9a77e9ce20b000000000000000000000000000000000000000000000000000000006040518263ffffffff1660e01b8152600401612fc99190615644565b602060405180830381865afa92505050801561300357506040513d601f19601f820116820180604052508101906130009190615671565b60015b613042573d805f8114613031576040519150601f19603f3d011682016040523d82523d5f602084013e613036565b606091505b50600192505050613134565b8015613123575f8273ffffffffffffffffffffffffffffffffffffffff16629ce20b61306c611d0b565b8a8a8a8a6040518663ffffffff1660e01b81526004016130909594939291906156ee565b6020604051808303815f875af11580156130ac573d5f803e3d5ffd5b505050506040513d601f19601f820116820180604052508101906130d0919061575a565b9050629ce20b60e01b7bffffffffffffffffffffffffffffffffffffffffffffffffffffffff1916817bffffffffffffffffffffffffffffffffffffffffffffffffffffffff1916149350505050613134565b600192505050613134565b60019150505b949350505050565b5f600560065f8481526020019081526020015f20548154811061316257613161614498565b5b905f5260205f20906006020190505f816005018054905090505f5b81811015613223575f83600501828154811061319c5761319b614498565b5b905f5260205f20015f9054906101000a900473ffffffffffffffffffffffffffffffffffffffff16905060045f8681526020019081526020015f205f8273ffffffffffffffffffffffffffffffffffffffff1673ffffffffffffffffffffffffffffffffffffffff1681526020019081526020015f205f905550808060010191505061317d565b50816005015f6132339190613b01565b505050565b5f600560065f8481526020019081526020015f20548154811061325e5761325d614498565b5b905f5260205f2090600602016003015f6101000a81548173ffffffffffffffffffffffffffffffffffffffff021916908373ffffffffffffffffffffffffffffffffffffffff1602179055505f60075f8473ffffffffffffffffffffffffffffffffffffffff1673ffffffffffffffffffffffffffffffffffffffff1681526020019081526020015f2090505f6001825f01805490506132fe9190614e9e565b90505f825f01828154811061331657613315614498565b5b905f5260205f20015490505f836001015f8681526020019081526020015f2054905081845f01828154811061334e5761334d614498565b5b905f5260205f20018190555080846001015f8481526020019081526020015f2081905550836001015f8681526020019081526020015f205f9055835f0180548061339b5761339a615785565b5b600190038181905f5260205f20015f90559055505050505050565b81600560065f8481526020019081526020015f2054815481106133dc576133db614498565b5b905f5260205f2090600602016003015f6101000a81548173ffffffffffffffffffffffffffffffffffffffff021916908373ffffffffffffffffffffffffffffffffffffffff16021790555060075f8373ffffffffffffffffffffffffffffffffffffffff1673ffffffffffffffffffffffffffffffffffffffff1681526020019081526020015f205f018054905060075f8473ffffffffffffffffffffffffffffffffffffffff1673ffffffffffffffffffffffffffffffffffffffff1681526020019081526020015f206001015f8381526020019081526020015f208190555060075f8373ffffffffffffffffffffffffffffffffffffffff1673ffffffffffffffffffffffffffffffffffffffff1681526020019081526020015f205f0181908060018154018082558091505060019003905f5260205f20015f90919091909150555050565b5f80600560065f8581526020019081526020015f20548154811061354c5761354b614498565b5b905f5260205f2090600602016005018054905090505f5b81811015613623578473ffffffffffffffffffffffffffffffffffffffff16600560065f8781526020019081526020015f2054815481106135a7576135a6614498565b5b905f5260205f20906006020160050182815481106135c8576135c7614498565b5b905f5260205f20015f9054906101000a900473ffffffffffffffffffffffffffffffffffffffff1673ffffffffffffffffffffffffffffffffffffffff160361361657600192505050613629565b8080600101915050613563565b505f9150505b92915050565b5f61363984613aea565b1561378e578373ffffffffffffffffffffffffffffffffffffffff1663150b7a02613662611d0b565b8786866040518563ffffffff1660e01b815260040161368494939291906157b2565b6020604051808303815f875af19250505080156136bf57506040513d601f19601f820116820180604052508101906136bc919061575a565b60015b61373e573d805f81146136ed576040519150601f19603f3d011682016040523d82523d5f602084013e6136f2565b606091505b505f815103613736576040517f08c379a000000000000000000000000000000000000000000000000000000000815260040161372d9061586c565b60405180910390fd5b805181602001fd5b63150b7a0260e01b7bffffffffffffffffffffffffffffffffffffffffffffffffffffffff1916817bffffffffffffffffffffffffffffffffffffffffffffffffffffffff191614915050613793565b600190505b949350505050565b60605f8390505f60028460026137b1919061588a565b6137bb919061528d565b67ffffffffffffffff8111156137d4576137d3613ff1565b5b6040519080825280601f01601f1916602001820160405280156138065781602001600182028036833780820191505090505b5090507f3000000000000000000000000000000000000000000000000000000000000000815f8151811061383d5761383c614498565b5b60200101907effffffffffffffffffffffffffffffffffffffffffffffffffffffffffffff191690815f1a9053507f7800000000000000000000000000000000000000000000000000000000000000816001815181106138a05761389f614498565b5b60200101907effffffffffffffffffffffffffffffffffffffffffffffffffffffffffffff191690815f1a9053505f60018560026138de919061588a565b6138e8919061528d565b90505b6001811115613987577f3031323334353637383961626364656600000000000000000000000000000000600f84166010811061392a57613929614498565b5b1a60f81b82828151811061394157613940614498565b5b60200101907effffffffffffffffffffffffffffffffffffffffffffffffffffffffffffff191690815f1a905350600483901c925080613980906158cb565b90506138eb565b505f82146139ce5784846040517fe22e27eb0000000000000000000000000000000000000000000000000000000081526004016139c59291906158f2565b60405180910390fd5b809250505092915050565b60058054905060065f835f015181526020019081526020015f2081905550600581908060018154018082558091505060019003905f5260205f2090600602015f909190919091505f820151815f015560208201518160010155604082015181600201556060820151816003015f6101000a81548173ffffffffffffffffffffffffffffffffffffffff021916908373ffffffffffffffffffffffffffffffffffffffff1602179055506080820151816004015f6101000a81548173ffffffffffffffffffffffffffffffffffffffff021916908373ffffffffffffffffffffffffffffffffffffffff16021790555060a0820151816005019080519060200190613ae4929190613b1f565b50505050565b5f80823b90505f8163ffffffff1611915050919050565b5080545f8255905f5260205f2090810190613b1c9190613ba6565b50565b828054828255905f5260205f20908101928215613b95579160200282015b82811115613b94578251825f6101000a81548173ffffffffffffffffffffffffffffffffffffffff021916908373ffffffffffffffffffffffffffffffffffffffff16021790555091602001919060010190613b3d565b5b509050613ba29190613ba6565b5090565b5b80821115613bbd575f815f905550600101613ba7565b5090565b5f604051905090565b5f80fd5b5f80fd5b5f7fffffffff0000000000000000000000000000000000000000000000000000000082169050919050565b613c0681613bd2565b8114613c10575f80fd5b50565b5f81359050613c2181613bfd565b92915050565b5f60208284031215613c3c57613c3b613bca565b5b5f613c4984828501613c13565b91505092915050565b5f8115159050919050565b613c6681613c52565b82525050565b5f602082019050613c7f5f830184613c5d565b92915050565b5f81519050919050565b5f82825260208201905092915050565b5f5b83811015613cbc578082015181840152602081019050613ca1565b5f8484015250505050565b5f601f19601f8301169050919050565b5f613ce182613c85565b613ceb8185613c8f565b9350613cfb818560208601613c9f565b613d0481613cc7565b840191505092915050565b5f6020820190508181035f830152613d278184613cd7565b905092915050565b5f819050919050565b613d4181613d2f565b8114613d4b575f80fd5b50565b5f81359050613d5c81613d38565b92915050565b5f60208284031215613d7757613d76613bca565b5b5f613d8484828501613d4e565b91505092915050565b5f73ffffffffffffffffffffffffffffffffffffffff82169050919050565b5f613db682613d8d565b9050919050565b613dc681613dac565b82525050565b5f602082019050613ddf5f830184613dbd565b92915050565b613dee81613dac565b8114613df8575f80fd5b50565b5f81359050613e0981613de5565b92915050565b5f8060408385031215613e2557613e24613bca565b5b5f613e3285828601613dfb565b9250506020613e4385828601613d4e565b9150509250929050565b5f805f60608486031215613e6457613e63613bca565b5b5f613e7186828701613d4e565b9350506020613e8286828701613dfb565b9250506040613e9386828701613d4e565b9150509250925092565b613ea681613d2f565b82525050565b5f602082019050613ebf5f830184613e9d565b92915050565b5f805f60608486031215613edc57613edb613bca565b5b5f613ee986828701613dfb565b9350506020613efa86828701613d4e565b9250506040613f0b86828701613d4e565b9150509250925092565b5f805f60608486031215613f2c57613f2b613bca565b5b5f613f3986828701613dfb565b9350506020613f4a86828701613dfb565b9250506040613f5b86828701613d4e565b9150509250925092565b5f805f60608486031215613f7c57613f7b613bca565b5b5f613f8986828701613d4e565b9350506020613f9a86828701613d4e565b9250506040613fab86828701613d4e565b9150509250925092565b5f60ff82169050919050565b613fca81613fb5565b82525050565b5f602082019050613fe35f830184613fc1565b92915050565b5f80fd5b5f80fd5b7f4e487b71000000000000000000000000000000000000000000000000000000005f52604160045260245ffd5b61402782613cc7565b810181811067ffffffffffffffff8211171561404657614045613ff1565b5b80604052505050565b5f614058613bc1565b9050614064828261401e565b919050565b5f67ffffffffffffffff82111561408357614082613ff1565b5b61408c82613cc7565b9050602081019050919050565b828183375f83830152505050565b5f6140b96140b484614069565b61404f565b9050828152602081018484840111156140d5576140d4613fed565b5b6140e0848285614099565b509392505050565b5f82601f8301126140fc576140fb613fe9565b5b813561410c8482602086016140a7565b91505092915050565b5f6020828403121561412a57614129613bca565b5b5f82013567ffffffffffffffff81111561414757614146613bce565b5b614153848285016140e8565b91505092915050565b5f6020828403121561417157614170613bca565b5b5f61417e84828501613dfb565b91505092915050565b5f819050919050565b5f6141aa6141a56141a084613d8d565b614187565b613d8d565b9050919050565b5f6141bb82614190565b9050919050565b5f6141cc826141b1565b9050919050565b6141dc816141c2565b82525050565b5f6020820190506141f55f8301846141d3565b92915050565b61420481613c52565b811461420e575f80fd5b50565b5f8135905061421f816141fb565b92915050565b5f806040838503121561423b5761423a613bca565b5b5f61424885828601613dfb565b925050602061425985828601614211565b9150509250929050565b5f67ffffffffffffffff82111561427d5761427c613ff1565b5b61428682613cc7565b9050602081019050919050565b5f6142a56142a084614263565b61404f565b9050828152602081018484840111156142c1576142c0613fed565b5b6142cc848285614099565b509392505050565b5f82601f8301126142e8576142e7613fe9565b5b81356142f8848260208601614293565b91505092915050565b5f805f806080858703121561431957614318613bca565b5b5f61432687828801613dfb565b945050602061433787828801613dfb565b935050604061434887828801613d4e565b925050606085013567ffffffffffffffff81111561436957614368613bce565b5b614375878288016142d4565b91505092959194509250565b5f806040838503121561439757614396613bca565b5b5f6143a485828601613d4e565b92505060206143b585828601613dfb565b9150509250929050565b5f80604083850312156143d5576143d4613bca565b5b5f6143e285828601613dfb565b92505060206143f385828601613dfb565b9150509250929050565b5f806040838503121561441357614412613bca565b5b5f61442085828601613d4e565b925050602061443185828601613d4e565b9150509250929050565b7f4e487b71000000000000000000000000000000000000000000000000000000005f52602260045260245ffd5b5f600282049050600182168061447f57607f821691505b6020821081036144925761449161443b565b5b50919050565b7f4e487b71000000000000000000000000000000000000000000000000000000005f52603260045260245ffd5b7f455243333532353a20617070726f76616c20746f2063757272656e74206f776e5f8201527f6572000000000000000000000000000000000000000000000000000000000000602082015250565b5f61451f602283613c8f565b915061452a826144c5565b604082019050919050565b5f6020820190508181035f83015261454c81614513565b9050919050565b7f455243333532353a20617070726f76652063616c6c6572206973206e6f74206f5f8201527f776e6572206e6f7220617070726f76656420666f7220616c6c00000000000000602082015250565b5f6145ad603983613c8f565b91506145b882614553565b604082019050919050565b5f6020820190508181035f8301526145da816145a1565b9050919050565b5f81905092915050565b5f6145f582613c85565b6145ff81856145e1565b935061460f818560208601613c9f565b80840191505092915050565b7f736c6f742f0000000000000000000000000000000000000000000000000000005f82015250565b5f61464f6005836145e1565b915061465a8261461b565b600582019050919050565b5f61467082856145eb565b915061467b82614643565b915061468782846145eb565b91508190509392505050565b5f6146a56146a084614069565b61404f565b9050828152602081018484840111156146c1576146c0613fed565b5b6146cc848285613c9f565b509392505050565b5f82601f8301126146e8576146e7613fe9565b5b81516146f8848260208601614693565b91505092915050565b5f6020828403121561471657614715613bca565b5b5f82015167ffffffffffffffff81111561473357614732613bce565b5b61473f848285016146d4565b91505092915050565b7f455243333532353a207472616e736665722063616c6c6572206973206e6f74205f8201527f6f776e6572206e6f7220617070726f7665640000000000000000000000000000602082015250565b5f6147a2603283613c8f565b91506147ad82614748565b604082019050919050565b5f6020820190508181035f8301526147cf81614796565b9050919050565b7f455243333532353a206f776e657220696e646578206f7574206f6620626f756e5f8201527f6473000000000000000000000000000000000000000000000000000000000000602082015250565b5f614830602283613c8f565b915061483b826147d6565b604082019050919050565b5f6020820190508181035f83015261485d81614824565b9050919050565b7f455243333532353a20676c6f62616c20696e646578206f7574206f6620626f755f8201527f6e64730000000000000000000000000000000000000000000000000000000000602082015250565b5f6148be602383613c8f565b91506148c982614864565b604082019050919050565b5f6020820190508181035f8301526148eb816148b2565b9050919050565b5f819050815f5260205f209050919050565b5f6020601f8301049050919050565b5f82821b905092915050565b5f6008830261494e7fffffffffffffffffffffffffffffffffffffffffffffffffffffffffffffffff82614913565b6149588683614913565b95508019841693508086168417925050509392505050565b5f61498a61498561498084613d2f565b614187565b613d2f565b9050919050565b5f819050919050565b6149a383614970565b6149b76149af82614991565b84845461491f565b825550505050565b5f90565b6149cb6149bf565b6149d681848461499a565b505050565b5b818110156149f9576149ee5f826149c3565b6001810190506149dc565b5050565b601f821115614a3e57614a0f816148f2565b614a1884614904565b81016020851015614a27578190505b614a3b614a3385614904565b8301826149db565b50505b505050565b5f82821c905092915050565b5f614a5e5f1984600802614a43565b1980831691505092915050565b5f614a768383614a4f565b9150826002028217905092915050565b614a8f82613c85565b67ffffffffffffffff811115614aa857614aa7613ff1565b5b614ab28254614468565b614abd8282856149fd565b5f60209050601f831160018114614aee575f8415614adc578287015190505b614ae68582614a6b565b865550614b4d565b601f198416614afc866148f2565b5f5b82811015614b2357848901518255600182019150602085019450602081019050614afe565b86831015614b405784890151614b3c601f891682614a4f565b8355505b6001600288020188555050505b505050505050565b7f455243333532353a20696e76616c696420746f6b656e204944000000000000005f82015250565b5f614b89601983613c8f565b9150614b9482614b55565b602082019050919050565b5f6020820190508181035f830152614bb681614b7d565b9050919050565b7f455243333532353a2062616c616e636520717565727920666f7220746865207a5f8201527f65726f2061646472657373000000000000000000000000000000000000000000602082015250565b5f614c17602b83613c8f565b9150614c2282614bbd565b604082019050919050565b5f6020820190508181035f830152614c4481614c0b565b9050919050565b7f455243333532353a20617070726f76652063616c6c6572206973206e6f74206f5f8201527f776e6572206e6f7220617070726f766564000000000000000000000000000000602082015250565b5f614ca5603183613c8f565b9150614cb082614c4b565b604082019050919050565b5f6020820190508181035f830152614cd281614c99565b9050919050565b7f4e6f7420616e204f776e657200000000000000000000000000000000000000005f82015250565b5f614d0d600c83613c8f565b9150614d1882614cd9565b602082019050919050565b5f6020820190508181035f830152614d3a81614d01565b9050919050565b5f614d4c82856145eb565b9150614d5882846145eb565b91508190509392505050565b7f636f6e74726163742f00000000000000000000000000000000000000000000005f82015250565b5f614d986009836145e1565b9150614da382614d64565b600982019050919050565b5f614db982856145eb565b9150614dc482614d8c565b9150614dd082846145eb565b91508190509392505050565b7f4e487b71000000000000000000000000000000000000000000000000000000005f52601260045260245ffd5b7f455243333532353a20696e73756666696369656e7420616c6c6f77616e6365005f82015250565b5f614e3d601f83613c8f565b9150614e4882614e09565b602082019050919050565b5f6020820190508181035f830152614e6a81614e31565b9050919050565b7f4e487b71000000000000000000000000000000000000000000000000000000005f52601160045260245ffd5b5f614ea882613d2f565b9150614eb383613d2f565b9250828203905081811115614ecb57614eca614e71565b5b92915050565b7f455243333532353a206d696e7420746f20746865207a65726f206164647265735f8201527f7300000000000000000000000000000000000000000000000000000000000000602082015250565b5f614f2b602183613c8f565b9150614f3682614ed1565b604082019050919050565b5f6020820190508181035f830152614f5881614f1f565b9050919050565b7f455243333532353a2063616e6e6f74206d696e74207a65726f20746f6b656e495f8201527f6400000000000000000000000000000000000000000000000000000000000000602082015250565b5f614fb9602183613c8f565b9150614fc482614f5f565b604082019050919050565b5f6020820190508181035f830152614fe681614fad565b9050919050565b7f455243333532353a20746f6b656e20616c7265616479206d696e7465640000005f82015250565b5f615021601d83613c8f565b915061502c82614fed565b602082019050919050565b5f6020820190508181035f83015261504e81615015565b9050919050565b7f455243333532353a207472616e736665722066726f6d20696e76616c696420745f8201527f6f6b656e20494400000000000000000000000000000000000000000000000000602082015250565b5f6150af602783613c8f565b91506150ba82615055565b604082019050919050565b5f6020820190508181035f8301526150dc816150a3565b9050919050565b7f455243333532353a207472616e7366657220746f20696e76616c696420746f6b5f8201527f656e204944000000000000000000000000000000000000000000000000000000602082015250565b5f61513d602583613c8f565b9150615148826150e3565b604082019050919050565b5f6020820190508181035f83015261516a81615131565b9050919050565b7f455243333532353a20696e73756666696369656e742062616c616e636520666f5f8201527f72207472616e7366657200000000000000000000000000000000000000000000602082015250565b5f6151cb602a83613c8f565b91506151d682615171565b604082019050919050565b5f6020820190508181035f8301526151f8816151bf565b9050919050565b7f455243333532353a207472616e7366657220746f20746f6b656e2077697468205f8201527f646966666572656e7420736c6f74000000000000000000000000000000000000602082015250565b5f615259602e83613c8f565b9150615264826151ff565b604082019050919050565b5f6020820190508181035f8301526152868161524d565b9050919050565b5f61529782613d2f565b91506152a283613d2f565b92508282019050808211156152ba576152b9614e71565b5b92915050565b7f455243333532353a207472616e736665722072656a65637465642062792045525f8201527f4333353235526563656976657200000000000000000000000000000000000000602082015250565b5f61531a602d83613c8f565b9150615325826152c0565b604082019050919050565b5f6020820190508181035f8301526153478161530e565b9050919050565b7f455243333532353a207472616e736665722066726f6d20696e76616c6964206f5f8201527f776e657200000000000000000000000000000000000000000000000000000000602082015250565b5f6153a8602483613c8f565b91506153b38261534e565b604082019050919050565b5f6020820190508181035f8301526153d58161539c565b9050919050565b7f455243333532353a207472616e7366657220746f20746865207a65726f2061645f8201527f6472657373000000000000000000000000000000000000000000000000000000602082015250565b5f615436602583613c8f565b9150615441826153dc565b604082019050919050565b5f6020820190508181035f8301526154638161542a565b9050919050565b7f455243333532353a20617070726f76652076616c756520746f20746865207a655f8201527f726f206164647265737300000000000000000000000000000000000000000000602082015250565b5f6154c4602a83613c8f565b91506154cf8261546a565b604082019050919050565b5f6020820190508181035f8301526154f1816154b8565b9050919050565b7f455243333532353a20617070726f766520746f2063616c6c65720000000000005f82015250565b5f61552c601a83613c8f565b9150615537826154f8565b602082019050919050565b5f6020820190508181035f83015261555981615520565b9050919050565b7f455243333532353a207472616e7366657220746f206e6f6e20455243373231525f8201527f6563656976657200000000000000000000000000000000000000000000000000602082015250565b5f6155ba602783613c8f565b91506155c582615560565b604082019050919050565b5f6020820190508181035f8301526155e7816155ae565b9050919050565b5f6155f882613d2f565b91507fffffffffffffffffffffffffffffffffffffffffffffffffffffffffffffffff820361562a57615629614e71565b5b600182019050919050565b61563e81613bd2565b82525050565b5f6020820190506156575f830184615635565b92915050565b5f8151905061566b816141fb565b92915050565b5f6020828403121561568657615685613bca565b5b5f6156938482850161565d565b91505092915050565b5f81519050919050565b5f82825260208201905092915050565b5f6156c08261569c565b6156ca81856156a6565b93506156da818560208601613c9f565b6156e381613cc7565b840191505092915050565b5f60a0820190506157015f830188613dbd565b61570e6020830187613e9d565b61571b6040830186613e9d565b6157286060830185613e9d565b818103608083015261573a81846156b6565b90509695505050505050565b5f8151905061575481613bfd565b92915050565b5f6020828403121561576f5761576e613bca565b5b5f61577c84828501615746565b91505092915050565b7f4e487b71000000000000000000000000000000000000000000000000000000005f52603160045260245ffd5b5f6080820190506157c55f830187613dbd565b6157d26020830186613dbd565b6157df6040830185613e9d565b81810360608301526157f181846156b6565b905095945050505050565b7f4552433732313a207472616e7366657220746f206e6f6e2045524337323152655f8201527f63656976657220696d706c656d656e7465720000000000000000000000000000602082015250565b5f615856603283613c8f565b9150615861826157fc565b604082019050919050565b5f6020820190508181035f8301526158838161584a565b9050919050565b5f61589482613d2f565b915061589f83613d2f565b92508282026158ad81613d2f565b915082820484148315176158c4576158c3614e71565b5b5092915050565b5f6158d582613d2f565b91505f82036158e7576158e6614e71565b5b600182039050919050565b5f6040820190506159055f830185613e9d565b6159126020830184613e9d565b939250505056fea264697066735822122037edb66fa50f57e81bfc8364662795bca107df2e9972a778a37e78fc4ec6e43264736f6c63430008160033",
			"opcodes": "PUSH1 0x80 PUSH1 0x40 MSTORE CALLVALUE DUP1 ISZERO PUSH3 0x10 JUMPI PUSH0 DUP1 REVERT JUMPDEST POP PUSH1 0x40 MLOAD PUSH3 0x6203 CODESIZE SUB DUP1 PUSH3 0x6203 DUP4 CODECOPY DUP2 DUP2 ADD PUSH1 0x40 MSTORE DUP2 ADD SWAP1 PUSH3 0x36 SWAP2 SWAP1 PUSH3 0x454 JUMP JUMPDEST DUP7 DUP4 DUP4 DUP4 PUSH1 0x1 PUSH1 0x3 DUP2 SWAP1 SSTORE POP DUP3 PUSH0 SWAP1 DUP2 PUSH3 0x52 SWAP2 SWAP1 PUSH3 0x796 JUMP JUMPDEST POP DUP2 PUSH1 0x1 SWAP1 DUP2 PUSH3 0x64 SWAP2 SWAP1 PUSH3 0x796 JUMP JUMPDEST POP DUP1 PUSH1 0x2 PUSH0 PUSH2 0x100 EXP DUP2 SLOAD DUP2 PUSH1 0xFF MUL NOT AND SWAP1 DUP4 PUSH1 0xFF AND MUL OR SWAP1 SSTORE POP POP POP POP PUSH0 PUSH20 0xFFFFFFFFFFFFFFFFFFFFFFFFFFFFFFFFFFFFFFFF AND DUP2 PUSH20 0xFFFFFFFFFFFFFFFFFFFFFFFFFFFFFFFFFFFFFFFF AND SUB PUSH3 0xF5 JUMPI PUSH0 PUSH1 0x40 MLOAD PUSH32 0x1E4FBDF700000000000000000000000000000000000000000000000000000000 DUP2 MSTORE PUSH1 0x4 ADD PUSH3 0xEC SWAP2 SWAP1 PUSH3 0x88B JUMP JUMPDEST PUSH1 0x40 MLOAD DUP1 SWAP2 SUB SWAP1 REVERT JUMPDEST PUSH3 0x106 DUP2 PUSH3 0x170 PUSH1 0x20 SHL PUSH1 0x20 SHR JUMP JUMPDEST POP DUP4 PUSH1 0xC PUSH0 PUSH2 0x100 EXP DUP2 SLOAD DUP2 PUSH20 0xFFFFFFFFFFFFFFFFFFFFFFFFFFFFFFFFFFFFFFFF MUL NOT AND SWAP1 DUP4 PUSH20 0xFFFFFFFFFFFFFFFFFFFFFFFFFFFFFFFFFFFFFFFF AND MUL OR SWAP1 SSTORE POP DUP5 PUSH1 0xFF AND PUSH1 0xD DUP2 SWAP1 SSTORE POP DUP6 PUSH1 0xA SWAP1 DUP2 PUSH3 0x162 SWAP2 SWAP1 PUSH3 0x796 JUMP JUMPDEST POP POP POP POP POP POP POP POP PUSH3 0x8A6 JUMP JUMPDEST PUSH0 PUSH1 0x9 PUSH0 SWAP1 SLOAD SWAP1 PUSH2 0x100 EXP SWAP1 DIV PUSH20 0xFFFFFFFFFFFFFFFFFFFFFFFFFFFFFFFFFFFFFFFF AND SWAP1 POP DUP2 PUSH1 0x9 PUSH0 PUSH2 0x100 EXP DUP2 SLOAD DUP2 PUSH20 0xFFFFFFFFFFFFFFFFFFFFFFFFFFFFFFFFFFFFFFFF MUL NOT AND SWAP1 DUP4 PUSH20 0xFFFFFFFFFFFFFFFFFFFFFFFFFFFFFFFFFFFFFFFF AND MUL OR SWAP1 SSTORE POP DUP2 PUSH20 0xFFFFFFFFFFFFFFFFFFFFFFFFFFFFFFFFFFFFFFFF AND DUP2 PUSH20 0xFFFFFFFFFFFFFFFFFFFFFFFFFFFFFFFFFFFFFFFF AND PUSH32 0x8BE0079C531659141344CD1FD0A4F28419497F9722A3DAAFE3B4186F6B6457E0 PUSH1 0x40 MLOAD PUSH1 0x40 MLOAD DUP1 SWAP2 SUB SWAP1 LOG3 POP POP JUMP JUMPDEST PUSH0 PUSH1 0x40 MLOAD SWAP1 POP SWAP1 JUMP JUMPDEST PUSH0 DUP1 REVERT JUMPDEST PUSH0 DUP1 REVERT JUMPDEST PUSH0 PUSH20 0xFFFFFFFFFFFFFFFFFFFFFFFFFFFFFFFFFFFFFFFF DUP3 AND SWAP1 POP SWAP2 SWAP1 POP JUMP JUMPDEST PUSH0 PUSH3 0x26F DUP3 PUSH3 0x244 JUMP JUMPDEST SWAP1 POP SWAP2 SWAP1 POP JUMP JUMPDEST PUSH3 0x281 DUP2 PUSH3 0x263 JUMP JUMPDEST DUP2 EQ PUSH3 0x28C JUMPI PUSH0 DUP1 REVERT JUMPDEST POP JUMP JUMPDEST PUSH0 DUP2 MLOAD SWAP1 POP PUSH3 0x29F DUP2 PUSH3 0x276 JUMP JUMPDEST SWAP3 SWAP2 POP POP JUMP JUMPDEST PUSH0 DUP1 REVERT JUMPDEST PUSH0 DUP1 REVERT JUMPDEST PUSH0 PUSH1 0x1F NOT PUSH1 0x1F DUP4 ADD AND SWAP1 POP SWAP2 SWAP1 POP JUMP JUMPDEST PUSH32 0x4E487B7100000000000000000000000000000000000000000000000000000000 PUSH0 MSTORE PUSH1 0x41 PUSH1 0x4 MSTORE PUSH1 0x24 PUSH0 REVERT JUMPDEST PUSH3 0x2F5 DUP3 PUSH3 0x2AD JUMP JUMPDEST DUP2 ADD DUP2 DUP2 LT PUSH8 0xFFFFFFFFFFFFFFFF DUP3 GT OR ISZERO PUSH3 0x317 JUMPI PUSH3 0x316 PUSH3 0x2BD JUMP JUMPDEST JUMPDEST DUP1 PUSH1 0x40 MSTORE POP POP POP JUMP JUMPDEST PUSH0 PUSH3 0x32B PUSH3 0x233 JUMP JUMPDEST SWAP1 POP PUSH3 0x339 DUP3 DUP3 PUSH3 0x2EA JUMP JUMPDEST SWAP2 SWAP1 POP JUMP JUMPDEST PUSH0 PUSH8 0xFFFFFFFFFFFFFFFF DUP3 GT ISZERO PUSH3 0x35B JUMPI PUSH3 0x35A PUSH3 0x2BD JUMP JUMPDEST JUMPDEST PUSH3 0x366 DUP3 PUSH3 0x2AD JUMP JUMPDEST SWAP1 POP PUSH1 0x20 DUP2 ADD SWAP1 POP SWAP2 SWAP1 POP JUMP JUMPDEST PUSH0 JUMPDEST DUP4 DUP2 LT ISZERO PUSH3 0x392 JUMPI DUP1 DUP3 ADD MLOAD DUP2 DUP5 ADD MSTORE PUSH1 0x20 DUP2 ADD SWAP1 POP PUSH3 0x375 JUMP JUMPDEST PUSH0 DUP5 DUP5 ADD MSTORE POP POP POP POP JUMP JUMPDEST PUSH0 PUSH3 0x3B3 PUSH3 0x3AD DUP5 PUSH3 0x33E JUMP JUMPDEST PUSH3 0x320 JUMP JUMPDEST SWAP1 POP DUP3 DUP2 MSTORE PUSH1 0x20 DUP2 ADD DUP5 DUP5 DUP5 ADD GT ISZERO PUSH3 0x3D2 JUMPI PUSH3 0x3D1 PUSH3 0x2A9 JUMP JUMPDEST JUMPDEST PUSH3 0x3DF DUP5 DUP3 DUP6 PUSH3 0x373 JUMP JUMPDEST POP SWAP4 SWAP3 POP POP POP JUMP JUMPDEST PUSH0 DUP3 PUSH1 0x1F DUP4 ADD SLT PUSH3 0x3FE JUMPI PUSH3 0x3FD PUSH3 0x2A5 JUMP JUMPDEST JUMPDEST DUP2 MLOAD PUSH3 0x410 DUP5 DUP3 PUSH1 0x20 DUP7 ADD PUSH3 0x39D JUMP JUMPDEST SWAP2 POP POP SWAP3 SWAP2 POP POP JUMP JUMPDEST PUSH0 PUSH1 0xFF DUP3 AND SWAP1 POP SWAP2 SWAP1 POP JUMP JUMPDEST PUSH3 0x430 DUP2 PUSH3 0x419 JUMP JUMPDEST DUP2 EQ PUSH3 0x43B JUMPI PUSH0 DUP1 REVERT JUMPDEST POP JUMP JUMPDEST PUSH0 DUP2 MLOAD SWAP1 POP PUSH3 0x44E DUP2 PUSH3 0x425 JUMP JUMPDEST SWAP3 SWAP2 POP POP JUMP JUMPDEST PUSH0 DUP1 PUSH0 DUP1 PUSH0 DUP1 PUSH0 PUSH1 0xE0 DUP9 DUP11 SUB SLT ISZERO PUSH3 0x472 JUMPI PUSH3 0x471 PUSH3 0x23C JUMP JUMPDEST JUMPDEST PUSH0 PUSH3 0x481 DUP11 DUP3 DUP12 ADD PUSH3 0x28F JUMP JUMPDEST SWAP8 POP POP PUSH1 0x20 DUP9 ADD MLOAD PUSH8 0xFFFFFFFFFFFFFFFF DUP2 GT ISZERO PUSH3 0x4A5 JUMPI PUSH3 0x4A4 PUSH3 0x240 JUMP JUMPDEST JUMPDEST PUSH3 0x4B3 DUP11 DUP3 DUP12 ADD PUSH3 0x3E7 JUMP JUMPDEST SWAP7 POP POP PUSH1 0x40 PUSH3 0x4C6 DUP11 DUP3 DUP12 ADD PUSH3 0x43E JUMP JUMPDEST SWAP6 POP POP PUSH1 0x60 PUSH3 0x4D9 DUP11 DUP3 DUP12 ADD PUSH3 0x28F JUMP JUMPDEST SWAP5 POP POP PUSH1 0x80 DUP9 ADD MLOAD PUSH8 0xFFFFFFFFFFFFFFFF DUP2 GT ISZERO PUSH3 0x4FD JUMPI PUSH3 0x4FC PUSH3 0x240 JUMP JUMPDEST JUMPDEST PUSH3 0x50B DUP11 DUP3 DUP12 ADD PUSH3 0x3E7 JUMP JUMPDEST SWAP4 POP POP PUSH1 0xA0 DUP9 ADD MLOAD PUSH8 0xFFFFFFFFFFFFFFFF DUP2 GT ISZERO PUSH3 0x52F JUMPI PUSH3 0x52E PUSH3 0x240 JUMP JUMPDEST JUMPDEST PUSH3 0x53D DUP11 DUP3 DUP12 ADD PUSH3 0x3E7 JUMP JUMPDEST SWAP3 POP POP PUSH1 0xC0 PUSH3 0x550 DUP11 DUP3 DUP12 ADD PUSH3 0x43E JUMP JUMPDEST SWAP2 POP POP SWAP3 SWAP6 SWAP9 SWAP2 SWAP5 SWAP8 POP SWAP3 SWAP6 POP JUMP JUMPDEST PUSH0 DUP2 MLOAD SWAP1 POP SWAP2 SWAP1 POP JUMP JUMPDEST PUSH32 0x4E487B7100000000000000000000000000000000000000000000000000000000 PUSH0 MSTORE PUSH1 0x22 PUSH1 0x4 MSTORE PUSH1 0x24 PUSH0 REVERT JUMPDEST PUSH0 PUSH1 0x2 DUP3 DIV SWAP1 POP PUSH1 0x1 DUP3 AND DUP1 PUSH3 0x5AE JUMPI PUSH1 0x7F DUP3 AND SWAP2 POP JUMPDEST PUSH1 0x20 DUP3 LT DUP2 SUB PUSH3 0x5C4 JUMPI PUSH3 0x5C3 PUSH3 0x569 JUMP JUMPDEST JUMPDEST POP SWAP2 SWAP1 POP JUMP JUMPDEST PUSH0 DUP2 SWAP1 POP DUP2 PUSH0 MSTORE PUSH1 0x20 PUSH0 KECCAK256 SWAP1 POP SWAP2 SWAP1 POP JUMP JUMPDEST PUSH0 PUSH1 0x20 PUSH1 0x1F DUP4 ADD DIV SWAP1 POP SWAP2 SWAP1 POP JUMP JUMPDEST PUSH0 DUP3 DUP3 SHL SWAP1 POP SWAP3 SWAP2 POP POP JUMP JUMPDEST PUSH0 PUSH1 0x8 DUP4 MUL PUSH3 0x628 PUSH32 0xFFFFFFFFFFFFFFFFFFFFFFFFFFFFFFFFFFFFFFFFFFFFFFFFFFFFFFFFFFFFFFFF DUP3 PUSH3 0x5EB JUMP JUMPDEST PUSH3 0x634 DUP7 DUP4 PUSH3 0x5EB JUMP JUMPDEST SWAP6 POP DUP1 NOT DUP5 AND SWAP4 POP DUP1 DUP7 AND DUP5 OR SWAP3 POP POP POP SWAP4 SWAP3 POP POP POP JUMP JUMPDEST PUSH0 DUP2 SWAP1 POP SWAP2 SWAP1 POP JUMP JUMPDEST PUSH0 DUP2 SWAP1 POP SWAP2 SWAP1 POP JUMP JUMPDEST PUSH0 PUSH3 0x67E PUSH3 0x678 PUSH3 0x672 DUP5 PUSH3 0x64C JUMP JUMPDEST PUSH3 0x655 JUMP JUMPDEST PUSH3 0x64C JUMP JUMPDEST SWAP1 POP SWAP2 SWAP1 POP JUMP JUMPDEST PUSH0 DUP2 SWAP1 POP SWAP2 SWAP1 POP JUMP JUMPDEST PUSH3 0x699 DUP4 PUSH3 0x65E JUMP JUMPDEST PUSH3 0x6B1 PUSH3 0x6A8 DUP3 PUSH3 0x685 JUMP JUMPDEST DUP5 DUP5 SLOAD PUSH3 0x5F7 JUMP JUMPDEST DUP3 SSTORE POP POP POP POP JUMP JUMPDEST PUSH0 SWAP1 JUMP JUMPDEST PUSH3 0x6C7 PUSH3 0x6B9 JUMP JUMPDEST PUSH3 0x6D4 DUP2 DUP5 DUP5 PUSH3 0x68E JUMP JUMPDEST POP POP POP JUMP JUMPDEST JUMPDEST DUP2 DUP2 LT ISZERO PUSH3 0x6FB JUMPI PUSH3 0x6EF PUSH0 DUP3 PUSH3 0x6BD JUMP JUMPDEST PUSH1 0x1 DUP2 ADD SWAP1 POP PUSH3 0x6DA JUMP JUMPDEST POP POP JUMP JUMPDEST PUSH1 0x1F DUP3 GT ISZERO PUSH3 0x74A JUMPI PUSH3 0x714 DUP2 PUSH3 0x5CA JUMP JUMPDEST PUSH3 0x71F DUP5 PUSH3 0x5DC JUMP JUMPDEST DUP2 ADD PUSH1 0x20 DUP6 LT ISZERO PUSH3 0x72F JUMPI DUP2 SWAP1 POP JUMPDEST PUSH3 0x747 PUSH3 0x73E DUP6 PUSH3 0x5DC JUMP JUMPDEST DUP4 ADD DUP3 PUSH3 0x6D9 JUMP JUMPDEST POP POP JUMPDEST POP POP POP JUMP JUMPDEST PUSH0 DUP3 DUP3 SHR SWAP1 POP SWAP3 SWAP2 POP POP JUMP JUMPDEST PUSH0 PUSH3 0x76C PUSH0 NOT DUP5 PUSH1 0x8 MUL PUSH3 0x74F JUMP JUMPDEST NOT DUP1 DUP4 AND SWAP2 POP POP SWAP3 SWAP2 POP POP JUMP JUMPDEST PUSH0 PUSH3 0x786 DUP4 DUP4 PUSH3 0x75B JUMP JUMPDEST SWAP2 POP DUP3 PUSH1 0x2 MUL DUP3 OR SWAP1 POP SWAP3 SWAP2 POP POP JUMP JUMPDEST PUSH3 0x7A1 DUP3 PUSH3 0x55F JUMP JUMPDEST PUSH8 0xFFFFFFFFFFFFFFFF DUP2 GT ISZERO PUSH3 0x7BD JUMPI PUSH3 0x7BC PUSH3 0x2BD JUMP JUMPDEST JUMPDEST PUSH3 0x7C9 DUP3 SLOAD PUSH3 0x596 JUMP JUMPDEST PUSH3 0x7D6 DUP3 DUP3 DUP6 PUSH3 0x6FF JUMP JUMPDEST PUSH0 PUSH1 0x20 SWAP1 POP PUSH1 0x1F DUP4 GT PUSH1 0x1 DUP2 EQ PUSH3 0x80C JUMPI PUSH0 DUP5 ISZERO PUSH3 0x7F7 JUMPI DUP3 DUP8 ADD MLOAD SWAP1 POP JUMPDEST PUSH3 0x803 DUP6 DUP3 PUSH3 0x779 JUMP JUMPDEST DUP7 SSTORE POP PUSH3 0x872 JUMP JUMPDEST PUSH1 0x1F NOT DUP5 AND PUSH3 0x81C DUP7 PUSH3 0x5CA JUMP JUMPDEST PUSH0 JUMPDEST DUP3 DUP2 LT ISZERO PUSH3 0x845 JUMPI DUP5 DUP10 ADD MLOAD DUP3 SSTORE PUSH1 0x1 DUP3 ADD SWAP2 POP PUSH1 0x20 DUP6 ADD SWAP5 POP PUSH1 0x20 DUP2 ADD SWAP1 POP PUSH3 0x81E JUMP JUMPDEST DUP7 DUP4 LT ISZERO PUSH3 0x865 JUMPI DUP5 DUP10 ADD MLOAD PUSH3 0x861 PUSH1 0x1F DUP10 AND DUP3 PUSH3 0x75B JUMP JUMPDEST DUP4 SSTORE POP JUMPDEST PUSH1 0x1 PUSH1 0x2 DUP9 MUL ADD DUP9 SSTORE POP POP POP JUMPDEST POP POP POP POP POP POP JUMP JUMPDEST PUSH3 0x885 DUP2 PUSH3 0x263 JUMP JUMPDEST DUP3 MSTORE POP POP JUMP JUMPDEST PUSH0 PUSH1 0x20 DUP3 ADD SWAP1 POP PUSH3 0x8A0 PUSH0 DUP4 ADD DUP5 PUSH3 0x87A JUMP JUMPDEST SWAP3 SWAP2 POP POP JUMP JUMPDEST PUSH2 0x594F DUP1 PUSH3 0x8B4 PUSH0 CODECOPY PUSH0 RETURN INVALID PUSH1 0x80 PUSH1 0x40 MSTORE PUSH1 0x4 CALLDATASIZE LT PUSH2 0x23A JUMPI PUSH0 CALLDATALOAD PUSH1 0xE0 SHR DUP1 PUSH4 0x79E8B651 GT PUSH2 0x12D JUMPI DUP1 PUSH4 0xB0667CF8 GT PUSH2 0xAA JUMPI DUP1 PUSH4 0xE345E0BC GT PUSH2 0x6E JUMPI DUP1 PUSH4 0xE345E0BC EQ PUSH2 0x846 JUMPI DUP1 PUSH4 0xE8A3D485 EQ PUSH2 0x882 JUMPI DUP1 PUSH4 0xE985E9C5 EQ PUSH2 0x8AC JUMPI DUP1 PUSH4 0xF0E88E7F EQ PUSH2 0x8E8 JUMPI DUP1 PUSH4 0xF2FDE38B EQ PUSH2 0x910 JUMPI PUSH2 0x23A JUMP JUMPDEST DUP1 PUSH4 0xB0667CF8 EQ PUSH2 0x772 JUMPI DUP1 PUSH4 0xB88D4FDE EQ PUSH2 0x79C JUMPI DUP1 PUSH4 0xB9592A56 EQ PUSH2 0x7B8 JUMPI DUP1 PUSH4 0xC87B56DD EQ PUSH2 0x7E0 JUMPI DUP1 PUSH4 0xDD3FC0AB EQ PUSH2 0x81C JUMPI PUSH2 0x23A JUMP JUMPDEST DUP1 PUSH4 0x95D89B41 GT PUSH2 0xF1 JUMPI DUP1 PUSH4 0x95D89B41 EQ PUSH2 0x690 JUMPI DUP1 PUSH4 0x9CC7F708 EQ PUSH2 0x6BA JUMPI DUP1 PUSH4 0x9E6EC2CB EQ PUSH2 0x6F6 JUMPI DUP1 PUSH4 0xA22CB465 EQ PUSH2 0x720 JUMPI DUP1 PUSH4 0xA786C18B EQ PUSH2 0x748 JUMPI PUSH2 0x23A JUMP JUMPDEST DUP1 PUSH4 0x79E8B651 EQ PUSH2 0x5CC JUMPI DUP1 PUSH4 0x840F7113 EQ PUSH2 0x5F6 JUMPI DUP1 PUSH4 0x8CB0A511 EQ PUSH2 0x620 JUMPI DUP1 PUSH4 0x8DA5CB5B EQ PUSH2 0x63C JUMPI DUP1 PUSH4 0x8F84AA09 EQ PUSH2 0x666 JUMPI PUSH2 0x23A JUMP JUMPDEST DUP1 PUSH4 0x2F745C59 GT PUSH2 0x1BB JUMPI DUP1 PUSH4 0x55F804B3 GT PUSH2 0x17F JUMPI DUP1 PUSH4 0x55F804B3 EQ PUSH2 0x4EC JUMPI DUP1 PUSH4 0x6352211E EQ PUSH2 0x514 JUMPI DUP1 PUSH4 0x6C0360EB EQ PUSH2 0x550 JUMPI DUP1 PUSH4 0x70A08231 EQ PUSH2 0x57A JUMPI DUP1 PUSH4 0x715018A6 EQ PUSH2 0x5B6 JUMPI PUSH2 0x23A JUMP JUMPDEST DUP1 PUSH4 0x2F745C59 EQ PUSH2 0x412 JUMPI DUP1 PUSH4 0x310ED7F0 EQ PUSH2 0x44E JUMPI DUP1 PUSH4 0x3E7E8669 EQ PUSH2 0x46A JUMPI DUP1 PUSH4 0x42842E0E EQ PUSH2 0x494 JUMPI DUP1 PUSH4 0x4F6CCCE7 EQ PUSH2 0x4B0 JUMPI PUSH2 0x23A JUMP JUMPDEST DUP1 PUSH4 0xF485C02 GT PUSH2 0x202 JUMPI DUP1 PUSH4 0xF485C02 EQ PUSH2 0x338 JUMPI DUP1 PUSH4 0x156E29F6 EQ PUSH2 0x368 JUMPI DUP1 PUSH4 0x18160DDD EQ PUSH2 0x390 JUMPI DUP1 PUSH4 0x23B872DD EQ PUSH2 0x3BA JUMPI DUP1 PUSH4 0x263F3E7E EQ PUSH2 0x3D6 JUMPI PUSH2 0x23A JUMP JUMPDEST DUP1 PUSH4 0x1FFC9A7 EQ PUSH2 0x23E JUMPI DUP1 PUSH4 0x6FDDE03 EQ PUSH2 0x27A JUMPI DUP1 PUSH4 0x81812FC EQ PUSH2 0x2A4 JUMPI DUP1 PUSH4 0x95EA7B3 EQ PUSH2 0x2E0 JUMPI DUP1 PUSH4 0x9C3DD87 EQ PUSH2 0x2FC JUMPI JUMPDEST PUSH0 DUP1 REVERT JUMPDEST CALLVALUE DUP1 ISZERO PUSH2 0x249 JUMPI PUSH0 DUP1 REVERT JUMPDEST POP PUSH2 0x264 PUSH1 0x4 DUP1 CALLDATASIZE SUB DUP2 ADD SWAP1 PUSH2 0x25F SWAP2 SWAP1 PUSH2 0x3C27 JUMP JUMPDEST PUSH2 0x938 JUMP JUMPDEST PUSH1 0x40 MLOAD PUSH2 0x271 SWAP2 SWAP1 PUSH2 0x3C6C JUMP JUMPDEST PUSH1 0x40 MLOAD DUP1 SWAP2 SUB SWAP1 RETURN JUMPDEST CALLVALUE DUP1 ISZERO PUSH2 0x285 JUMPI PUSH0 DUP1 REVERT JUMPDEST POP PUSH2 0x28E PUSH2 0xBA9 JUMP JUMPDEST PUSH1 0x40 MLOAD PUSH2 0x29B SWAP2 SWAP1 PUSH2 0x3D0F JUMP JUMPDEST PUSH1 0x40 MLOAD DUP1 SWAP2 SUB SWAP1 RETURN JUMPDEST CALLVALUE DUP1 ISZERO PUSH2 0x2AF JUMPI PUSH0 DUP1 REVERT JUMPDEST POP PUSH2 0x2CA PUSH1 0x4 DUP1 CALLDATASIZE SUB DUP2 ADD SWAP1 PUSH2 0x2C5 SWAP2 SWAP1 PUSH2 0x3D62 JUMP JUMPDEST PUSH2 0xC38 JUMP JUMPDEST PUSH1 0x40 MLOAD PUSH2 0x2D7 SWAP2 SWAP1 PUSH2 0x3DCC JUMP JUMPDEST PUSH1 0x40 MLOAD DUP1 SWAP2 SUB SWAP1 RETURN JUMPDEST PUSH2 0x2FA PUSH1 0x4 DUP1 CALLDATASIZE SUB DUP2 ADD SWAP1 PUSH2 0x2F5 SWAP2 SWAP1 PUSH2 0x3E0F JUMP JUMPDEST PUSH2 0xC9D JUMP JUMPDEST STOP JUMPDEST CALLVALUE DUP1 ISZERO PUSH2 0x307 JUMPI PUSH0 DUP1 REVERT JUMPDEST POP PUSH2 0x322 PUSH1 0x4 DUP1 CALLDATASIZE SUB DUP2 ADD SWAP1 PUSH2 0x31D SWAP2 SWAP1 PUSH2 0x3D62 JUMP JUMPDEST PUSH2 0xDB3 JUMP JUMPDEST PUSH1 0x40 MLOAD PUSH2 0x32F SWAP2 SWAP1 PUSH2 0x3D0F JUMP JUMPDEST PUSH1 0x40 MLOAD DUP1 SWAP2 SUB SWAP1 RETURN JUMPDEST PUSH2 0x352 PUSH1 0x4 DUP1 CALLDATASIZE SUB DUP2 ADD SWAP1 PUSH2 0x34D SWAP2 SWAP1 PUSH2 0x3E4D JUMP JUMPDEST PUSH2 0xF05 JUMP JUMPDEST PUSH1 0x40 MLOAD PUSH2 0x35F SWAP2 SWAP1 PUSH2 0x3EAC JUMP JUMPDEST PUSH1 0x40 MLOAD DUP1 SWAP2 SUB SWAP1 RETURN JUMPDEST CALLVALUE DUP1 ISZERO PUSH2 0x373 JUMPI PUSH0 DUP1 REVERT JUMPDEST POP PUSH2 0x38E PUSH1 0x4 DUP1 CALLDATASIZE SUB DUP2 ADD SWAP1 PUSH2 0x389 SWAP2 SWAP1 PUSH2 0x3EC5 JUMP JUMPDEST PUSH2 0xF49 JUMP JUMPDEST STOP JUMPDEST CALLVALUE DUP1 ISZERO PUSH2 0x39B JUMPI PUSH0 DUP1 REVERT JUMPDEST POP PUSH2 0x3A4 PUSH2 0xF62 JUMP JUMPDEST PUSH1 0x40 MLOAD PUSH2 0x3B1 SWAP2 SWAP1 PUSH2 0x3EAC JUMP JUMPDEST PUSH1 0x40 MLOAD DUP1 SWAP2 SUB SWAP1 RETURN JUMPDEST PUSH2 0x3D4 PUSH1 0x4 DUP1 CALLDATASIZE SUB DUP2 ADD SWAP1 PUSH2 0x3CF SWAP2 SWAP1 PUSH2 0x3F15 JUMP JUMPDEST PUSH2 0xF6E JUMP JUMPDEST STOP JUMPDEST CALLVALUE DUP1 ISZERO PUSH2 0x3E1 JUMPI PUSH0 DUP1 REVERT JUMPDEST POP PUSH2 0x3FC PUSH1 0x4 DUP1 CALLDATASIZE SUB DUP2 ADD SWAP1 PUSH2 0x3F7 SWAP2 SWAP1 PUSH2 0x3D62 JUMP JUMPDEST PUSH2 0xFCE JUMP JUMPDEST PUSH1 0x40 MLOAD PUSH2 0x409 SWAP2 SWAP1 PUSH2 0x3EAC JUMP JUMPDEST PUSH1 0x40 MLOAD DUP1 SWAP2 SUB SWAP1 RETURN JUMPDEST CALLVALUE DUP1 ISZERO PUSH2 0x41D JUMPI PUSH0 DUP1 REVERT JUMPDEST POP PUSH2 0x438 PUSH1 0x4 DUP1 CALLDATASIZE SUB DUP2 ADD SWAP1 PUSH2 0x433 SWAP2 SWAP1 PUSH2 0x3E0F JUMP JUMPDEST PUSH2 0x1014 JUMP JUMPDEST PUSH1 0x40 MLOAD PUSH2 0x445 SWAP2 SWAP1 PUSH2 0x3EAC JUMP JUMPDEST PUSH1 0x40 MLOAD DUP1 SWAP2 SUB SWAP1 RETURN JUMPDEST PUSH2 0x468 PUSH1 0x4 DUP1 CALLDATASIZE SUB DUP2 ADD SWAP1 PUSH2 0x463 SWAP2 SWAP1 PUSH2 0x3F65 JUMP JUMPDEST PUSH2 0x10C1 JUMP JUMPDEST STOP JUMPDEST CALLVALUE DUP1 ISZERO PUSH2 0x475 JUMPI PUSH0 DUP1 REVERT JUMPDEST POP PUSH2 0x47E PUSH2 0x10E3 JUMP JUMPDEST PUSH1 0x40 MLOAD PUSH2 0x48B SWAP2 SWAP1 PUSH2 0x3FD0 JUMP JUMPDEST PUSH1 0x40 MLOAD DUP1 SWAP2 SUB SWAP1 RETURN JUMPDEST PUSH2 0x4AE PUSH1 0x4 DUP1 CALLDATASIZE SUB DUP2 ADD SWAP1 PUSH2 0x4A9 SWAP2 SWAP1 PUSH2 0x3F15 JUMP JUMPDEST PUSH2 0x10F8 JUMP JUMPDEST STOP JUMPDEST CALLVALUE DUP1 ISZERO PUSH2 0x4BB JUMPI PUSH0 DUP1 REVERT JUMPDEST POP PUSH2 0x4D6 PUSH1 0x4 DUP1 CALLDATASIZE SUB DUP2 ADD SWAP1 PUSH2 0x4D1 SWAP2 SWAP1 PUSH2 0x3D62 JUMP JUMPDEST PUSH2 0x1117 JUMP JUMPDEST PUSH1 0x40 MLOAD PUSH2 0x4E3 SWAP2 SWAP1 PUSH2 0x3EAC JUMP JUMPDEST PUSH1 0x40 MLOAD DUP1 SWAP2 SUB SWAP1 RETURN JUMPDEST CALLVALUE DUP1 ISZERO PUSH2 0x4F7 JUMPI PUSH0 DUP1 REVERT JUMPDEST POP PUSH2 0x512 PUSH1 0x4 DUP1 CALLDATASIZE SUB DUP2 ADD SWAP1 PUSH2 0x50D SWAP2 SWAP1 PUSH2 0x4115 JUMP JUMPDEST PUSH2 0x118B JUMP JUMPDEST STOP JUMPDEST CALLVALUE DUP1 ISZERO PUSH2 0x51F JUMPI PUSH0 DUP1 REVERT JUMPDEST POP PUSH2 0x53A PUSH1 0x4 DUP1 CALLDATASIZE SUB DUP2 ADD SWAP1 PUSH2 0x535 SWAP2 SWAP1 PUSH2 0x3D62 JUMP JUMPDEST PUSH2 0x11A6 JUMP JUMPDEST PUSH1 0x40 MLOAD PUSH2 0x547 SWAP2 SWAP1 PUSH2 0x3DCC JUMP JUMPDEST PUSH1 0x40 MLOAD DUP1 SWAP2 SUB SWAP1 RETURN JUMPDEST CALLVALUE DUP1 ISZERO PUSH2 0x55B JUMPI PUSH0 DUP1 REVERT JUMPDEST POP PUSH2 0x564 PUSH2 0x1279 JUMP JUMPDEST PUSH1 0x40 MLOAD PUSH2 0x571 SWAP2 SWAP1 PUSH2 0x3D0F JUMP JUMPDEST PUSH1 0x40 MLOAD DUP1 SWAP2 SUB SWAP1 RETURN JUMPDEST CALLVALUE DUP1 ISZERO PUSH2 0x585 JUMPI PUSH0 DUP1 REVERT JUMPDEST POP PUSH2 0x5A0 PUSH1 0x4 DUP1 CALLDATASIZE SUB DUP2 ADD SWAP1 PUSH2 0x59B SWAP2 SWAP1 PUSH2 0x415C JUMP JUMPDEST PUSH2 0x1305 JUMP JUMPDEST PUSH1 0x40 MLOAD PUSH2 0x5AD SWAP2 SWAP1 PUSH2 0x3EAC JUMP JUMPDEST PUSH1 0x40 MLOAD DUP1 SWAP2 SUB SWAP1 RETURN JUMPDEST CALLVALUE DUP1 ISZERO PUSH2 0x5C1 JUMPI PUSH0 DUP1 REVERT JUMPDEST POP PUSH2 0x5CA PUSH2 0x13BE JUMP JUMPDEST STOP JUMPDEST CALLVALUE DUP1 ISZERO PUSH2 0x5D7 JUMPI PUSH0 DUP1 REVERT JUMPDEST POP PUSH2 0x5E0 PUSH2 0x13D1 JUMP JUMPDEST PUSH1 0x40 MLOAD PUSH2 0x5ED SWAP2 SWAP1 PUSH2 0x3D0F JUMP JUMPDEST PUSH1 0x40 MLOAD DUP1 SWAP2 SUB SWAP1 RETURN JUMPDEST CALLVALUE DUP1 ISZERO PUSH2 0x601 JUMPI PUSH0 DUP1 REVERT JUMPDEST POP PUSH2 0x60A PUSH2 0x145D JUMP JUMPDEST PUSH1 0x40 MLOAD PUSH2 0x617 SWAP2 SWAP1 PUSH2 0x41E2 JUMP JUMPDEST PUSH1 0x40 MLOAD DUP1 SWAP2 SUB SWAP1 RETURN JUMPDEST PUSH2 0x63A PUSH1 0x4 DUP1 CALLDATASIZE SUB DUP2 ADD SWAP1 PUSH2 0x635 SWAP2 SWAP1 PUSH2 0x3E4D JUMP JUMPDEST PUSH2 0x1482 JUMP JUMPDEST STOP JUMPDEST CALLVALUE DUP1 ISZERO PUSH2 0x647 JUMPI PUSH0 DUP1 REVERT JUMPDEST POP PUSH2 0x650 PUSH2 0x155D JUMP JUMPDEST PUSH1 0x40 MLOAD PUSH2 0x65D SWAP2 SWAP1 PUSH2 0x3DCC JUMP JUMPDEST PUSH1 0x40 MLOAD DUP1 SWAP2 SUB SWAP1 RETURN JUMPDEST CALLVALUE DUP1 ISZERO PUSH2 0x671 JUMPI PUSH0 DUP1 REVERT JUMPDEST POP PUSH2 0x67A PUSH2 0x1585 JUMP JUMPDEST PUSH1 0x40 MLOAD PUSH2 0x687 SWAP2 SWAP1 PUSH2 0x3DCC JUMP JUMPDEST PUSH1 0x40 MLOAD DUP1 SWAP2 SUB SWAP1 RETURN JUMPDEST CALLVALUE DUP1 ISZERO PUSH2 0x69B JUMPI PUSH0 DUP1 REVERT JUMPDEST POP PUSH2 0x6A4 PUSH2 0x15AA JUMP JUMPDEST PUSH1 0x40 MLOAD PUSH2 0x6B1 SWAP2 SWAP1 PUSH2 0x3D0F JUMP JUMPDEST PUSH1 0x40 MLOAD DUP1 SWAP2 SUB SWAP1 RETURN JUMPDEST CALLVALUE DUP1 ISZERO PUSH2 0x6C5 JUMPI PUSH0 DUP1 REVERT JUMPDEST POP PUSH2 0x6E0 PUSH1 0x4 DUP1 CALLDATASIZE SUB DUP2 ADD SWAP1 PUSH2 0x6DB SWAP2 SWAP1 PUSH2 0x3D62 JUMP JUMPDEST PUSH2 0x163A JUMP JUMPDEST PUSH1 0x40 MLOAD PUSH2 0x6ED SWAP2 SWAP1 PUSH2 0x3EAC JUMP JUMPDEST PUSH1 0x40 MLOAD DUP1 SWAP2 SUB SWAP1 RETURN JUMPDEST CALLVALUE DUP1 ISZERO PUSH2 0x701 JUMPI PUSH0 DUP1 REVERT JUMPDEST POP PUSH2 0x70A PUSH2 0x1680 JUMP JUMPDEST PUSH1 0x40 MLOAD PUSH2 0x717 SWAP2 SWAP1 PUSH2 0x3EAC JUMP JUMPDEST PUSH1 0x40 MLOAD DUP1 SWAP2 SUB SWAP1 RETURN JUMPDEST CALLVALUE DUP1 ISZERO PUSH2 0x72B JUMPI PUSH0 DUP1 REVERT JUMPDEST POP PUSH2 0x746 PUSH1 0x4 DUP1 CALLDATASIZE SUB DUP2 ADD SWAP1 PUSH2 0x741 SWAP2 SWAP1 PUSH2 0x4225 JUMP JUMPDEST PUSH2 0x1689 JUMP JUMPDEST STOP JUMPDEST CALLVALUE DUP1 ISZERO PUSH2 0x753 JUMPI PUSH0 DUP1 REVERT JUMPDEST POP PUSH2 0x75C PUSH2 0x169F JUMP JUMPDEST PUSH1 0x40 MLOAD PUSH2 0x769 SWAP2 SWAP1 PUSH2 0x3DCC JUMP JUMPDEST PUSH1 0x40 MLOAD DUP1 SWAP2 SUB SWAP1 RETURN JUMPDEST CALLVALUE DUP1 ISZERO PUSH2 0x77D JUMPI PUSH0 DUP1 REVERT JUMPDEST POP PUSH2 0x786 PUSH2 0x16C7 JUMP JUMPDEST PUSH1 0x40 MLOAD PUSH2 0x793 SWAP2 SWAP1 PUSH2 0x3EAC JUMP JUMPDEST PUSH1 0x40 MLOAD DUP1 SWAP2 SUB SWAP1 RETURN JUMPDEST PUSH2 0x7B6 PUSH1 0x4 DUP1 CALLDATASIZE SUB DUP2 ADD SWAP1 PUSH2 0x7B1 SWAP2 SWAP1 PUSH2 0x4301 JUMP JUMPDEST PUSH2 0x16CD JUMP JUMPDEST STOP JUMPDEST CALLVALUE DUP1 ISZERO PUSH2 0x7C3 JUMPI PUSH0 DUP1 REVERT JUMPDEST POP PUSH2 0x7DE PUSH1 0x4 DUP1 CALLDATASIZE SUB DUP2 ADD SWAP1 PUSH2 0x7D9 SWAP2 SWAP1 PUSH2 0x3D62 JUMP JUMPDEST PUSH2 0x172F JUMP JUMPDEST STOP JUMPDEST CALLVALUE DUP1 ISZERO PUSH2 0x7EB JUMPI PUSH0 DUP1 REVERT JUMPDEST POP PUSH2 0x806 PUSH1 0x4 DUP1 CALLDATASIZE SUB DUP2 ADD SWAP1 PUSH2 0x801 SWAP2 SWAP1 PUSH2 0x3D62 JUMP JUMPDEST PUSH2 0x1806 JUMP JUMPDEST PUSH1 0x40 MLOAD PUSH2 0x813 SWAP2 SWAP1 PUSH2 0x3D0F JUMP JUMPDEST PUSH1 0x40 MLOAD DUP1 SWAP2 SUB SWAP1 RETURN JUMPDEST CALLVALUE DUP1 ISZERO PUSH2 0x827 JUMPI PUSH0 DUP1 REVERT JUMPDEST POP PUSH2 0x830 PUSH2 0x1961 JUMP JUMPDEST PUSH1 0x40 MLOAD PUSH2 0x83D SWAP2 SWAP1 PUSH2 0x3D0F JUMP JUMPDEST PUSH1 0x40 MLOAD DUP1 SWAP2 SUB SWAP1 RETURN JUMPDEST CALLVALUE DUP1 ISZERO PUSH2 0x851 JUMPI PUSH0 DUP1 REVERT JUMPDEST POP PUSH2 0x86C PUSH1 0x4 DUP1 CALLDATASIZE SUB DUP2 ADD SWAP1 PUSH2 0x867 SWAP2 SWAP1 PUSH2 0x4381 JUMP JUMPDEST PUSH2 0x19F1 JUMP JUMPDEST PUSH1 0x40 MLOAD PUSH2 0x879 SWAP2 SWAP1 PUSH2 0x3EAC JUMP JUMPDEST PUSH1 0x40 MLOAD DUP1 SWAP2 SUB SWAP1 RETURN JUMPDEST CALLVALUE DUP1 ISZERO PUSH2 0x88D JUMPI PUSH0 DUP1 REVERT JUMPDEST POP PUSH2 0x896 PUSH2 0x1A50 JUMP JUMPDEST PUSH1 0x40 MLOAD PUSH2 0x8A3 SWAP2 SWAP1 PUSH2 0x3D0F JUMP JUMPDEST PUSH1 0x40 MLOAD DUP1 SWAP2 SUB SWAP1 RETURN JUMPDEST CALLVALUE DUP1 ISZERO PUSH2 0x8B7 JUMPI PUSH0 DUP1 REVERT JUMPDEST POP PUSH2 0x8D2 PUSH1 0x4 DUP1 CALLDATASIZE SUB DUP2 ADD SWAP1 PUSH2 0x8CD SWAP2 SWAP1 PUSH2 0x43BF JUMP JUMPDEST PUSH2 0x1B95 JUMP JUMPDEST PUSH1 0x40 MLOAD PUSH2 0x8DF SWAP2 SWAP1 PUSH2 0x3C6C JUMP JUMPDEST PUSH1 0x40 MLOAD DUP1 SWAP2 SUB SWAP1 RETURN JUMPDEST CALLVALUE DUP1 ISZERO PUSH2 0x8F3 JUMPI PUSH0 DUP1 REVERT JUMPDEST POP PUSH2 0x90E PUSH1 0x4 DUP1 CALLDATASIZE SUB DUP2 ADD SWAP1 PUSH2 0x909 SWAP2 SWAP1 PUSH2 0x43FD JUMP JUMPDEST PUSH2 0x1C26 JUMP JUMPDEST STOP JUMPDEST CALLVALUE DUP1 ISZERO PUSH2 0x91B JUMPI PUSH0 DUP1 REVERT JUMPDEST POP PUSH2 0x936 PUSH1 0x4 DUP1 CALLDATASIZE SUB DUP2 ADD SWAP1 PUSH2 0x931 SWAP2 SWAP1 PUSH2 0x415C JUMP JUMPDEST PUSH2 0x1C3C JUMP JUMPDEST STOP JUMPDEST PUSH0 PUSH32 0x1FFC9A700000000000000000000000000000000000000000000000000000000 PUSH28 0xFFFFFFFFFFFFFFFFFFFFFFFFFFFFFFFFFFFFFFFFFFFFFFFFFFFFFFFF NOT AND DUP3 PUSH28 0xFFFFFFFFFFFFFFFFFFFFFFFFFFFFFFFFFFFFFFFFFFFFFFFFFFFFFFFF NOT AND EQ DUP1 PUSH2 0xA02 JUMPI POP PUSH32 0xD535814000000000000000000000000000000000000000000000000000000000 PUSH28 0xFFFFFFFFFFFFFFFFFFFFFFFFFFFFFFFFFFFFFFFFFFFFFFFFFFFFFFFF NOT AND DUP3 PUSH28 0xFFFFFFFFFFFFFFFFFFFFFFFFFFFFFFFFFFFFFFFFFFFFFFFFFFFFFFFF NOT AND EQ JUMPDEST DUP1 PUSH2 0xA6A JUMPI POP PUSH32 0x80AC58CD00000000000000000000000000000000000000000000000000000000 PUSH28 0xFFFFFFFFFFFFFFFFFFFFFFFFFFFFFFFFFFFFFFFFFFFFFFFFFFFFFFFF NOT AND DUP3 PUSH28 0xFFFFFFFFFFFFFFFFFFFFFFFFFFFFFFFFFFFFFFFFFFFFFFFFFFFFFFFF NOT AND EQ JUMPDEST DUP1 PUSH2 0xAD2 JUMPI POP PUSH32 0xE160090200000000000000000000000000000000000000000000000000000000 PUSH28 0xFFFFFFFFFFFFFFFFFFFFFFFFFFFFFFFFFFFFFFFFFFFFFFFFFFFFFFFF NOT AND DUP3 PUSH28 0xFFFFFFFFFFFFFFFFFFFFFFFFFFFFFFFFFFFFFFFFFFFFFFFFFFFFFFFF NOT AND EQ JUMPDEST DUP1 PUSH2 0xB3A JUMPI POP PUSH32 0x780E9D6300000000000000000000000000000000000000000000000000000000 PUSH28 0xFFFFFFFFFFFFFFFFFFFFFFFFFFFFFFFFFFFFFFFFFFFFFFFFFFFFFFFF NOT AND DUP3 PUSH28 0xFFFFFFFFFFFFFFFFFFFFFFFFFFFFFFFFFFFFFFFFFFFFFFFFFFFFFFFF NOT AND EQ JUMPDEST DUP1 PUSH2 0xBA2 JUMPI POP PUSH32 0x5B5E139F00000000000000000000000000000000000000000000000000000000 PUSH28 0xFFFFFFFFFFFFFFFFFFFFFFFFFFFFFFFFFFFFFFFFFFFFFFFFFFFFFFFF NOT AND DUP3 PUSH28 0xFFFFFFFFFFFFFFFFFFFFFFFFFFFFFFFFFFFFFFFFFFFFFFFFFFFFFFFF NOT AND EQ JUMPDEST SWAP1 POP SWAP2 SWAP1 POP JUMP JUMPDEST PUSH1 0x60 PUSH0 DUP1 SLOAD PUSH2 0xBB7 SWAP1 PUSH2 0x4468 JUMP JUMPDEST DUP1 PUSH1 0x1F ADD PUSH1 0x20 DUP1 SWAP2 DIV MUL PUSH1 0x20 ADD PUSH1 0x40 MLOAD SWAP1 DUP2 ADD PUSH1 0x40 MSTORE DUP1 SWAP3 SWAP2 SWAP1 DUP2 DUP2 MSTORE PUSH1 0x20 ADD DUP3 DUP1 SLOAD PUSH2 0xBE3 SWAP1 PUSH2 0x4468 JUMP JUMPDEST DUP1 ISZERO PUSH2 0xC2E JUMPI DUP1 PUSH1 0x1F LT PUSH2 0xC05 JUMPI PUSH2 0x100 DUP1 DUP4 SLOAD DIV MUL DUP4 MSTORE SWAP2 PUSH1 0x20 ADD SWAP2 PUSH2 0xC2E JUMP JUMPDEST DUP3 ADD SWAP2 SWAP1 PUSH0 MSTORE PUSH1 0x20 PUSH0 KECCAK256 SWAP1 JUMPDEST DUP2 SLOAD DUP2 MSTORE SWAP1 PUSH1 0x1 ADD SWAP1 PUSH1 0x20 ADD DUP1 DUP4 GT PUSH2 0xC11 JUMPI DUP3 SWAP1 SUB PUSH1 0x1F AND DUP3 ADD SWAP2 JUMPDEST POP POP POP POP POP SWAP1 POP SWAP1 JUMP JUMPDEST PUSH0 PUSH2 0xC42 DUP3 PUSH2 0x1CC0 JUMP JUMPDEST PUSH1 0x5 PUSH1 0x6 PUSH0 DUP5 DUP2 MSTORE PUSH1 0x20 ADD SWAP1 DUP2 MSTORE PUSH1 0x20 ADD PUSH0 KECCAK256 SLOAD DUP2 SLOAD DUP2 LT PUSH2 0xC67 JUMPI PUSH2 0xC66 PUSH2 0x4498 JUMP JUMPDEST JUMPDEST SWAP1 PUSH0 MSTORE PUSH1 0x20 PUSH0 KECCAK256 SWAP1 PUSH1 0x6 MUL ADD PUSH1 0x4 ADD PUSH0 SWAP1 SLOAD SWAP1 PUSH2 0x100 EXP SWAP1 DIV PUSH20 0xFFFFFFFFFFFFFFFFFFFFFFFFFFFFFFFFFFFFFFFF AND SWAP1 POP SWAP2 SWAP1 POP JUMP JUMPDEST PUSH0 PUSH2 0xCA7 DUP3 PUSH2 0x11A6 JUMP JUMPDEST SWAP1 POP DUP1 PUSH20 0xFFFFFFFFFFFFFFFFFFFFFFFFFFFFFFFFFFFFFFFF AND DUP4 PUSH20 0xFFFFFFFFFFFFFFFFFFFFFFFFFFFFFFFFFFFFFFFF AND SUB PUSH2 0xD17 JUMPI PUSH1 0x40 MLOAD PUSH32 0x8C379A000000000000000000000000000000000000000000000000000000000 DUP2 MSTORE PUSH1 0x4 ADD PUSH2 0xD0E SWAP1 PUSH2 0x4535 JUMP JUMPDEST PUSH1 0x40 MLOAD DUP1 SWAP2 SUB SWAP1 REVERT JUMPDEST DUP1 PUSH20 0xFFFFFFFFFFFFFFFFFFFFFFFFFFFFFFFFFFFFFFFF AND PUSH2 0xD36 PUSH2 0x1D0B JUMP JUMPDEST PUSH20 0xFFFFFFFFFFFFFFFFFFFFFFFFFFFFFFFFFFFFFFFF AND EQ DUP1 PUSH2 0xD65 JUMPI POP PUSH2 0xD64 DUP2 PUSH2 0xD5F PUSH2 0x1D0B JUMP JUMPDEST PUSH2 0x1B95 JUMP JUMPDEST JUMPDEST PUSH2 0xDA4 JUMPI PUSH1 0x40 MLOAD PUSH32 0x8C379A000000000000000000000000000000000000000000000000000000000 DUP2 MSTORE PUSH1 0x4 ADD PUSH2 0xD9B SWAP1 PUSH2 0x45C3 JUMP JUMPDEST PUSH1 0x40 MLOAD DUP1 SWAP2 SUB SWAP1 REVERT JUMPDEST PUSH2 0xDAE DUP4 DUP4 PUSH2 0x1D12 JUMP JUMPDEST POP POP POP JUMP JUMPDEST PUSH1 0x60 PUSH0 PUSH2 0xDBE PUSH2 0x1DEB JUMP JUMPDEST SWAP1 POP PUSH0 PUSH20 0xFFFFFFFFFFFFFFFFFFFFFFFFFFFFFFFFFFFFFFFF AND PUSH1 0x8 PUSH0 SWAP1 SLOAD SWAP1 PUSH2 0x100 EXP SWAP1 DIV PUSH20 0xFFFFFFFFFFFFFFFFFFFFFFFFFFFFFFFFFFFFFFFF AND PUSH20 0xFFFFFFFFFFFFFFFFFFFFFFFFFFFFFFFFFFFFFFFF AND SUB PUSH2 0xE60 JUMPI PUSH0 DUP2 MLOAD GT PUSH2 0xE30 JUMPI PUSH1 0x40 MLOAD DUP1 PUSH1 0x20 ADD PUSH1 0x40 MSTORE DUP1 PUSH0 DUP2 MSTORE POP PUSH2 0xE5B JUMP JUMPDEST DUP1 PUSH2 0xE3A DUP5 PUSH2 0x1E7B JUMP JUMPDEST PUSH1 0x40 MLOAD PUSH1 0x20 ADD PUSH2 0xE4B SWAP3 SWAP2 SWAP1 PUSH2 0x4665 JUMP JUMPDEST PUSH1 0x40 MLOAD PUSH1 0x20 DUP2 DUP4 SUB SUB DUP2 MSTORE SWAP1 PUSH1 0x40 MSTORE JUMPDEST PUSH2 0xEFD JUMP JUMPDEST PUSH1 0x8 PUSH0 SWAP1 SLOAD SWAP1 PUSH2 0x100 EXP SWAP1 DIV PUSH20 0xFFFFFFFFFFFFFFFFFFFFFFFFFFFFFFFFFFFFFFFF AND PUSH20 0xFFFFFFFFFFFFFFFFFFFFFFFFFFFFFFFFFFFFFFFF AND PUSH4 0x6C037F8A DUP5 PUSH1 0x40 MLOAD DUP3 PUSH4 0xFFFFFFFF AND PUSH1 0xE0 SHL DUP2 MSTORE PUSH1 0x4 ADD PUSH2 0xEBA SWAP2 SWAP1 PUSH2 0x3EAC JUMP JUMPDEST PUSH0 PUSH1 0x40 MLOAD DUP1 DUP4 SUB DUP2 DUP7 GAS STATICCALL ISZERO DUP1 ISZERO PUSH2 0xED4 JUMPI RETURNDATASIZE PUSH0 DUP1 RETURNDATACOPY RETURNDATASIZE PUSH0 REVERT JUMPDEST POP POP POP POP PUSH1 0x40 MLOAD RETURNDATASIZE PUSH0 DUP3 RETURNDATACOPY RETURNDATASIZE PUSH1 0x1F NOT PUSH1 0x1F DUP3 ADD AND DUP3 ADD DUP1 PUSH1 0x40 MSTORE POP DUP2 ADD SWAP1 PUSH2 0xEFC SWAP2 SWAP1 PUSH2 0x4701 JUMP JUMPDEST JUMPDEST SWAP2 POP POP SWAP2 SWAP1 POP JUMP JUMPDEST PUSH0 PUSH2 0xF18 PUSH2 0xF11 PUSH2 0x1D0B JUMP JUMPDEST DUP6 DUP5 PUSH2 0x1F45 JUMP JUMPDEST PUSH2 0xF21 DUP5 PUSH2 0x1FEE JUMP JUMPDEST SWAP1 POP PUSH2 0xF37 DUP4 DUP3 PUSH2 0xF31 DUP8 PUSH2 0xFCE JUMP JUMPDEST PUSH0 PUSH2 0x1FFE JUMP JUMPDEST PUSH2 0xF42 DUP5 DUP3 DUP5 PUSH2 0x212E JUMP JUMPDEST SWAP4 SWAP3 POP POP POP JUMP JUMPDEST PUSH2 0xF51 PUSH2 0x2434 JUMP JUMPDEST PUSH2 0xF5C DUP4 DUP4 DUP4 PUSH2 0x24BB JUMP JUMPDEST POP POP POP POP JUMP JUMPDEST PUSH0 PUSH1 0x5 DUP1 SLOAD SWAP1 POP SWAP1 POP SWAP1 JUMP JUMPDEST PUSH2 0xF7F PUSH2 0xF79 PUSH2 0x1D0B JUMP JUMPDEST DUP3 PUSH2 0x24D9 JUMP JUMPDEST PUSH2 0xFBE JUMPI PUSH1 0x40 MLOAD PUSH32 0x8C379A000000000000000000000000000000000000000000000000000000000 DUP2 MSTORE PUSH1 0x4 ADD PUSH2 0xFB5 SWAP1 PUSH2 0x47B8 JUMP JUMPDEST PUSH1 0x40 MLOAD DUP1 SWAP2 SUB SWAP1 REVERT JUMPDEST PUSH2 0xFC9 DUP4 DUP4 DUP4 PUSH2 0x256D JUMP JUMPDEST POP POP POP JUMP JUMPDEST PUSH0 PUSH2 0xFD8 DUP3 PUSH2 0x1CC0 JUMP JUMPDEST PUSH1 0x5 PUSH1 0x6 PUSH0 DUP5 DUP2 MSTORE PUSH1 0x20 ADD SWAP1 DUP2 MSTORE PUSH1 0x20 ADD PUSH0 KECCAK256 SLOAD DUP2 SLOAD DUP2 LT PUSH2 0xFFD JUMPI PUSH2 0xFFC PUSH2 0x4498 JUMP JUMPDEST JUMPDEST SWAP1 PUSH0 MSTORE PUSH1 0x20 PUSH0 KECCAK256 SWAP1 PUSH1 0x6 MUL ADD PUSH1 0x1 ADD SLOAD SWAP1 POP SWAP2 SWAP1 POP JUMP JUMPDEST PUSH0 PUSH2 0x101E DUP4 PUSH2 0x1305 JUMP JUMPDEST DUP3 LT PUSH2 0x105F JUMPI PUSH1 0x40 MLOAD PUSH32 0x8C379A000000000000000000000000000000000000000000000000000000000 DUP2 MSTORE PUSH1 0x4 ADD PUSH2 0x1056 SWAP1 PUSH2 0x4846 JUMP JUMPDEST PUSH1 0x40 MLOAD DUP1 SWAP2 SUB SWAP1 REVERT JUMPDEST PUSH1 0x7 PUSH0 DUP5 PUSH20 0xFFFFFFFFFFFFFFFFFFFFFFFFFFFFFFFFFFFFFFFF AND PUSH20 0xFFFFFFFFFFFFFFFFFFFFFFFFFFFFFFFFFFFFFFFF AND DUP2 MSTORE PUSH1 0x20 ADD SWAP1 DUP2 MSTORE PUSH1 0x20 ADD PUSH0 KECCAK256 PUSH0 ADD DUP3 DUP2 SLOAD DUP2 LT PUSH2 0x10B0 JUMPI PUSH2 0x10AF PUSH2 0x4498 JUMP JUMPDEST JUMPDEST SWAP1 PUSH0 MSTORE PUSH1 0x20 PUSH0 KECCAK256 ADD SLOAD SWAP1 POP SWAP3 SWAP2 POP POP JUMP JUMPDEST PUSH2 0x10D3 PUSH2 0x10CC PUSH2 0x1D0B JUMP JUMPDEST DUP5 DUP4 PUSH2 0x1F45 JUMP JUMPDEST PUSH2 0x10DE DUP4 DUP4 DUP4 PUSH2 0x212E JUMP JUMPDEST POP POP POP JUMP JUMPDEST PUSH0 PUSH1 0x2 PUSH0 SWAP1 SLOAD SWAP1 PUSH2 0x100 EXP SWAP1 DIV PUSH1 0xFF AND SWAP1 POP SWAP1 JUMP JUMPDEST PUSH2 0x1112 DUP4 DUP4 DUP4 PUSH1 0x40 MLOAD DUP1 PUSH1 0x20 ADD PUSH1 0x40 MSTORE DUP1 PUSH0 DUP2 MSTORE POP PUSH2 0x16CD JUMP JUMPDEST POP POP POP JUMP JUMPDEST PUSH0 PUSH2 0x1120 PUSH2 0xF62 JUMP JUMPDEST DUP3 LT PUSH2 0x1161 JUMPI PUSH1 0x40 MLOAD PUSH32 0x8C379A000000000000000000000000000000000000000000000000000000000 DUP2 MSTORE PUSH1 0x4 ADD PUSH2 0x1158 SWAP1 PUSH2 0x48D4 JUMP JUMPDEST PUSH1 0x40 MLOAD DUP1 SWAP2 SUB SWAP1 REVERT JUMPDEST PUSH1 0x5 DUP3 DUP2 SLOAD DUP2 LT PUSH2 0x1175 JUMPI PUSH2 0x1174 PUSH2 0x4498 JUMP JUMPDEST JUMPDEST SWAP1 PUSH0 MSTORE PUSH1 0x20 PUSH0 KECCAK256 SWAP1 PUSH1 0x6 MUL ADD PUSH0 ADD SLOAD SWAP1 POP SWAP2 SWAP1 POP JUMP JUMPDEST PUSH2 0x1193 PUSH2 0x2434 JUMP JUMPDEST DUP1 PUSH1 0xB SWAP1 DUP2 PUSH2 0x11A2 SWAP2 SWAP1 PUSH2 0x4A86 JUMP JUMPDEST POP POP JUMP JUMPDEST PUSH0 PUSH2 0x11B0 DUP3 PUSH2 0x1CC0 JUMP JUMPDEST PUSH1 0x5 PUSH1 0x6 PUSH0 DUP5 DUP2 MSTORE PUSH1 0x20 ADD SWAP1 DUP2 MSTORE PUSH1 0x20 ADD PUSH0 KECCAK256 SLOAD DUP2 SLOAD DUP2 LT PUSH2 0x11D5 JUMPI PUSH2 0x11D4 PUSH2 0x4498 JUMP JUMPDEST JUMPDEST SWAP1 PUSH0 MSTORE PUSH1 0x20 PUSH0 KECCAK256 SWAP1 PUSH1 0x6 MUL ADD PUSH1 0x3 ADD PUSH0 SWAP1 SLOAD SWAP1 PUSH2 0x100 EXP SWAP1 DIV PUSH20 0xFFFFFFFFFFFFFFFFFFFFFFFFFFFFFFFFFFFFFFFF AND SWAP1 POP PUSH0 PUSH20 0xFFFFFFFFFFFFFFFFFFFFFFFFFFFFFFFFFFFFFFFF AND DUP2 PUSH20 0xFFFFFFFFFFFFFFFFFFFFFFFFFFFFFFFFFFFFFFFF AND SUB PUSH2 0x1274 JUMPI PUSH1 0x40 MLOAD PUSH32 0x8C379A000000000000000000000000000000000000000000000000000000000 DUP2 MSTORE PUSH1 0x4 ADD PUSH2 0x126B SWAP1 PUSH2 0x4B9F JUMP JUMPDEST PUSH1 0x40 MLOAD DUP1 SWAP2 SUB SWAP1 REVERT JUMPDEST SWAP2 SWAP1 POP JUMP JUMPDEST PUSH1 0xB DUP1 SLOAD PUSH2 0x1286 SWAP1 PUSH2 0x4468 JUMP JUMPDEST DUP1 PUSH1 0x1F ADD PUSH1 0x20 DUP1 SWAP2 DIV MUL PUSH1 0x20 ADD PUSH1 0x40 MLOAD SWAP1 DUP2 ADD PUSH1 0x40 MSTORE DUP1 SWAP3 SWAP2 SWAP1 DUP2 DUP2 MSTORE PUSH1 0x20 ADD DUP3 DUP1 SLOAD PUSH2 0x12B2 SWAP1 PUSH2 0x4468 JUMP JUMPDEST DUP1 ISZERO PUSH2 0x12FD JUMPI DUP1 PUSH1 0x1F LT PUSH2 0x12D4 JUMPI PUSH2 0x100 DUP1 DUP4 SLOAD DIV MUL DUP4 MSTORE SWAP2 PUSH1 0x20 ADD SWAP2 PUSH2 0x12FD JUMP JUMPDEST DUP3 ADD SWAP2 SWAP1 PUSH0 MSTORE PUSH1 0x20 PUSH0 KECCAK256 SWAP1 JUMPDEST DUP2 SLOAD DUP2 MSTORE SWAP1 PUSH1 0x1 ADD SWAP1 PUSH1 0x20 ADD DUP1 DUP4 GT PUSH2 0x12E0 JUMPI DUP3 SWAP1 SUB PUSH1 0x1F AND DUP3 ADD SWAP2 JUMPDEST POP POP POP POP POP DUP2 JUMP JUMPDEST PUSH0 DUP1 PUSH20 0xFFFFFFFFFFFFFFFFFFFFFFFFFFFFFFFFFFFFFFFF AND DUP3 PUSH20 0xFFFFFFFFFFFFFFFFFFFFFFFFFFFFFFFFFFFFFFFF AND SUB PUSH2 0x1374 JUMPI PUSH1 0x40 MLOAD PUSH32 0x8C379A000000000000000000000000000000000000000000000000000000000 DUP2 MSTORE PUSH1 0x4 ADD PUSH2 0x136B SWAP1 PUSH2 0x4C2D JUMP JUMPDEST PUSH1 0x40 MLOAD DUP1 SWAP2 SUB SWAP1 REVERT JUMPDEST PUSH1 0x7 PUSH0 DUP4 PUSH20 0xFFFFFFFFFFFFFFFFFFFFFFFFFFFFFFFFFFFFFFFF AND PUSH20 0xFFFFFFFFFFFFFFFFFFFFFFFFFFFFFFFFFFFFFFFF AND DUP2 MSTORE PUSH1 0x20 ADD SWAP1 DUP2 MSTORE PUSH1 0x20 ADD PUSH0 KECCAK256 PUSH0 ADD DUP1 SLOAD SWAP1 POP SWAP1 POP SWAP2 SWAP1 POP JUMP JUMPDEST PUSH2 0x13C6 PUSH2 0x2434 JUMP JUMPDEST PUSH2 0x13CF PUSH0 PUSH2 0x270E JUMP JUMPDEST JUMP JUMPDEST PUSH1 0xA DUP1 SLOAD PUSH2 0x13DE SWAP1 PUSH2 0x4468 JUMP JUMPDEST DUP1 PUSH1 0x1F ADD PUSH1 0x20 DUP1 SWAP2 DIV MUL PUSH1 0x20 ADD PUSH1 0x40 MLOAD SWAP1 DUP2 ADD PUSH1 0x40 MSTORE DUP1 SWAP3 SWAP2 SWAP1 DUP2 DUP2 MSTORE PUSH1 0x20 ADD DUP3 DUP1 SLOAD PUSH2 0x140A SWAP1 PUSH2 0x4468 JUMP JUMPDEST DUP1 ISZERO PUSH2 0x1455 JUMPI DUP1 PUSH1 0x1F LT PUSH2 0x142C JUMPI PUSH2 0x100 DUP1 DUP4 SLOAD DIV MUL DUP4 MSTORE SWAP2 PUSH1 0x20 ADD SWAP2 PUSH2 0x1455 JUMP JUMPDEST DUP3 ADD SWAP2 SWAP1 PUSH0 MSTORE PUSH1 0x20 PUSH0 KECCAK256 SWAP1 JUMPDEST DUP2 SLOAD DUP2 MSTORE SWAP1 PUSH1 0x1 ADD SWAP1 PUSH1 0x20 ADD DUP1 DUP4 GT PUSH2 0x1438 JUMPI DUP3 SWAP1 SUB PUSH1 0x1F AND DUP3 ADD SWAP2 JUMPDEST POP POP POP POP POP DUP2 JUMP JUMPDEST PUSH1 0x8 PUSH0 SWAP1 SLOAD SWAP1 PUSH2 0x100 EXP SWAP1 DIV PUSH20 0xFFFFFFFFFFFFFFFFFFFFFFFFFFFFFFFFFFFFFFFF AND DUP2 JUMP JUMPDEST PUSH0 PUSH2 0x148C DUP5 PUSH2 0x11A6 JUMP JUMPDEST SWAP1 POP DUP1 PUSH20 0xFFFFFFFFFFFFFFFFFFFFFFFFFFFFFFFFFFFFFFFF AND DUP4 PUSH20 0xFFFFFFFFFFFFFFFFFFFFFFFFFFFFFFFFFFFFFFFF AND SUB PUSH2 0x14FC JUMPI PUSH1 0x40 MLOAD PUSH32 0x8C379A000000000000000000000000000000000000000000000000000000000 DUP2 MSTORE PUSH1 0x4 ADD PUSH2 0x14F3 SWAP1 PUSH2 0x4535 JUMP JUMPDEST PUSH1 0x40 MLOAD DUP1 SWAP2 SUB SWAP1 REVERT JUMPDEST PUSH2 0x150D PUSH2 0x1507 PUSH2 0x1D0B JUMP JUMPDEST DUP6 PUSH2 0x24D9 JUMP JUMPDEST PUSH2 0x154C JUMPI PUSH1 0x40 MLOAD PUSH32 0x8C379A000000000000000000000000000000000000000000000000000000000 DUP2 MSTORE PUSH1 0x4 ADD PUSH2 0x1543 SWAP1 PUSH2 0x4CBB JUMP JUMPDEST PUSH1 0x40 MLOAD DUP1 SWAP2 SUB SWAP1 REVERT JUMPDEST PUSH2 0x1557 DUP5 DUP5 DUP5 PUSH2 0x27D1 JUMP JUMPDEST POP POP POP POP JUMP JUMPDEST PUSH0 PUSH1 0x9 PUSH0 SWAP1 SLOAD SWAP1 PUSH2 0x100 EXP SWAP1 DIV PUSH20 0xFFFFFFFFFFFFFFFFFFFFFFFFFFFFFFFFFFFFFFFF AND SWAP1 POP SWAP1 JUMP JUMPDEST PUSH1 0xC PUSH0 SWAP1 SLOAD SWAP1 PUSH2 0x100 EXP SWAP1 DIV PUSH20 0xFFFFFFFFFFFFFFFFFFFFFFFFFFFFFFFFFFFFFFFF AND DUP2 JUMP JUMPDEST PUSH1 0x60 PUSH1 0x1 DUP1 SLOAD PUSH2 0x15B9 SWAP1 PUSH2 0x4468 JUMP JUMPDEST DUP1 PUSH1 0x1F ADD PUSH1 0x20 DUP1 SWAP2 DIV MUL PUSH1 0x20 ADD PUSH1 0x40 MLOAD SWAP1 DUP2 ADD PUSH1 0x40 MSTORE DUP1 SWAP3 SWAP2 SWAP1 DUP2 DUP2 MSTORE PUSH1 0x20 ADD DUP3 DUP1 SLOAD PUSH2 0x15E5 SWAP1 PUSH2 0x4468 JUMP JUMPDEST DUP1 ISZERO PUSH2 0x1630 JUMPI DUP1 PUSH1 0x1F LT PUSH2 0x1607 JUMPI PUSH2 0x100 DUP1 DUP4 SLOAD DIV MUL DUP4 MSTORE SWAP2 PUSH1 0x20 ADD SWAP2 PUSH2 0x1630 JUMP JUMPDEST DUP3 ADD SWAP2 SWAP1 PUSH0 MSTORE PUSH1 0x20 PUSH0 KECCAK256 SWAP1 JUMPDEST DUP2 SLOAD DUP2 MSTORE SWAP1 PUSH1 0x1 ADD SWAP1 PUSH1 0x20 ADD DUP1 DUP4 GT PUSH2 0x1613 JUMPI DUP3 SWAP1 SUB PUSH1 0x1F AND DUP3 ADD SWAP2 JUMPDEST POP POP POP POP POP SWAP1 POP SWAP1 JUMP JUMPDEST PUSH0 PUSH2 0x1644 DUP3 PUSH2 0x1CC0 JUMP JUMPDEST PUSH1 0x5 PUSH1 0x6 PUSH0 DUP5 DUP2 MSTORE PUSH1 0x20 ADD SWAP1 DUP2 MSTORE PUSH1 0x20 ADD PUSH0 KECCAK256 SLOAD DUP2 SLOAD DUP2 LT PUSH2 0x1669 JUMPI PUSH2 0x1668 PUSH2 0x4498 JUMP JUMPDEST JUMPDEST SWAP1 PUSH0 MSTORE PUSH1 0x20 PUSH0 KECCAK256 SWAP1 PUSH1 0x6 MUL ADD PUSH1 0x2 ADD SLOAD SWAP1 POP SWAP2 SWAP1 POP JUMP JUMPDEST PUSH0 PUSH1 0xD SLOAD SWAP1 POP SWAP1 JUMP JUMPDEST PUSH2 0x169B PUSH2 0x1694 PUSH2 0x1D0B JUMP JUMPDEST DUP4 DUP4 PUSH2 0x2985 JUMP JUMPDEST POP POP JUMP JUMPDEST PUSH0 PUSH1 0xC PUSH0 SWAP1 SLOAD SWAP1 PUSH2 0x100 EXP SWAP1 DIV PUSH20 0xFFFFFFFFFFFFFFFFFFFFFFFFFFFFFFFFFFFFFFFF AND SWAP1 POP SWAP1 JUMP JUMPDEST PUSH1 0xD SLOAD DUP2 JUMP JUMPDEST PUSH2 0x16DE PUSH2 0x16D8 PUSH2 0x1D0B JUMP JUMPDEST DUP4 PUSH2 0x24D9 JUMP JUMPDEST PUSH2 0x171D JUMPI PUSH1 0x40 MLOAD PUSH32 0x8C379A000000000000000000000000000000000000000000000000000000000 DUP2 MSTORE PUSH1 0x4 ADD PUSH2 0x1714 SWAP1 PUSH2 0x47B8 JUMP JUMPDEST PUSH1 0x40 MLOAD DUP1 SWAP2 SUB SWAP1 REVERT JUMPDEST PUSH2 0x1729 DUP5 DUP5 DUP5 DUP5 PUSH2 0x2AEF JUMP JUMPDEST POP POP POP POP JUMP JUMPDEST PUSH1 0xC PUSH0 SWAP1 SLOAD SWAP1 PUSH2 0x100 EXP SWAP1 DIV PUSH20 0xFFFFFFFFFFFFFFFFFFFFFFFFFFFFFFFFFFFFFFFF AND PUSH20 0xFFFFFFFFFFFFFFFFFFFFFFFFFFFFFFFFFFFFFFFF AND PUSH2 0x176F PUSH2 0x1D0B JUMP JUMPDEST PUSH20 0xFFFFFFFFFFFFFFFFFFFFFFFFFFFFFFFFFFFFFFFF AND EQ PUSH2 0x17C5 JUMPI PUSH1 0x40 MLOAD PUSH32 0x8C379A000000000000000000000000000000000000000000000000000000000 DUP2 MSTORE PUSH1 0x4 ADD PUSH2 0x17BC SWAP1 PUSH2 0x4D23 JUMP JUMPDEST PUSH1 0x40 MLOAD DUP1 SWAP2 SUB SWAP1 REVERT JUMPDEST DUP1 PUSH1 0xD DUP2 SWAP1 SSTORE POP PUSH32 0xE61A40BE238DE5F9CC0FB84CECE6B230A18D85EDC5674E0B0DF879F0D6365CDF DUP2 PUSH1 0x40 MLOAD PUSH2 0x17FB SWAP2 SWAP1 PUSH2 0x3EAC JUMP JUMPDEST PUSH1 0x40 MLOAD DUP1 SWAP2 SUB SWAP1 LOG1 POP JUMP JUMPDEST PUSH1 0x60 PUSH2 0x1811 DUP3 PUSH2 0x1CC0 JUMP JUMPDEST PUSH0 PUSH2 0x181A PUSH2 0x1DEB JUMP JUMPDEST SWAP1 POP PUSH0 PUSH20 0xFFFFFFFFFFFFFFFFFFFFFFFFFFFFFFFFFFFFFFFF AND PUSH1 0x8 PUSH0 SWAP1 SLOAD SWAP1 PUSH2 0x100 EXP SWAP1 DIV PUSH20 0xFFFFFFFFFFFFFFFFFFFFFFFFFFFFFFFFFFFFFFFF AND PUSH20 0xFFFFFFFFFFFFFFFFFFFFFFFFFFFFFFFFFFFFFFFF AND SUB PUSH2 0x18BC JUMPI PUSH0 DUP2 MLOAD GT PUSH2 0x188C JUMPI PUSH1 0x40 MLOAD DUP1 PUSH1 0x20 ADD PUSH1 0x40 MSTORE DUP1 PUSH0 DUP2 MSTORE POP PUSH2 0x18B7 JUMP JUMPDEST DUP1 PUSH2 0x1896 DUP5 PUSH2 0x1E7B JUMP JUMPDEST PUSH1 0x40 MLOAD PUSH1 0x20 ADD PUSH2 0x18A7 SWAP3 SWAP2 SWAP1 PUSH2 0x4D41 JUMP JUMPDEST PUSH1 0x40 MLOAD PUSH1 0x20 DUP2 DUP4 SUB SUB DUP2 MSTORE SWAP1 PUSH1 0x40 MSTORE JUMPDEST PUSH2 0x1959 JUMP JUMPDEST PUSH1 0x8 PUSH0 SWAP1 SLOAD SWAP1 PUSH2 0x100 EXP SWAP1 DIV PUSH20 0xFFFFFFFFFFFFFFFFFFFFFFFFFFFFFFFFFFFFFFFF AND PUSH20 0xFFFFFFFFFFFFFFFFFFFFFFFFFFFFFFFFFFFFFFFF AND PUSH4 0x894B4C2E DUP5 PUSH1 0x40 MLOAD DUP3 PUSH4 0xFFFFFFFF AND PUSH1 0xE0 SHL DUP2 MSTORE PUSH1 0x4 ADD PUSH2 0x1916 SWAP2 SWAP1 PUSH2 0x3EAC JUMP JUMPDEST PUSH0 PUSH1 0x40 MLOAD DUP1 DUP4 SUB DUP2 DUP7 GAS STATICCALL ISZERO DUP1 ISZERO PUSH2 0x1930 JUMPI RETURNDATASIZE PUSH0 DUP1 RETURNDATACOPY RETURNDATASIZE PUSH0 REVERT JUMPDEST POP POP POP POP PUSH1 0x40 MLOAD RETURNDATASIZE PUSH0 DUP3 RETURNDATACOPY RETURNDATASIZE PUSH1 0x1F NOT PUSH1 0x1F DUP3 ADD AND DUP3 ADD DUP1 PUSH1 0x40 MSTORE POP DUP2 ADD SWAP1 PUSH2 0x1958 SWAP2 SWAP1 PUSH2 0x4701 JUMP JUMPDEST JUMPDEST SWAP2 POP POP SWAP2 SWAP1 POP JUMP JUMPDEST PUSH1 0x60 PUSH1 0xA DUP1 SLOAD PUSH2 0x1970 SWAP1 PUSH2 0x4468 JUMP JUMPDEST DUP1 PUSH1 0x1F ADD PUSH1 0x20 DUP1 SWAP2 DIV MUL PUSH1 0x20 ADD PUSH1 0x40 MLOAD SWAP1 DUP2 ADD PUSH1 0x40 MSTORE DUP1 SWAP3 SWAP2 SWAP1 DUP2 DUP2 MSTORE PUSH1 0x20 ADD DUP3 DUP1 SLOAD PUSH2 0x199C SWAP1 PUSH2 0x4468 JUMP JUMPDEST DUP1 ISZERO PUSH2 0x19E7 JUMPI DUP1 PUSH1 0x1F LT PUSH2 0x19BE JUMPI PUSH2 0x100 DUP1 DUP4 SLOAD DIV MUL DUP4 MSTORE SWAP2 PUSH1 0x20 ADD SWAP2 PUSH2 0x19E7 JUMP JUMPDEST DUP3 ADD SWAP2 SWAP1 PUSH0 MSTORE PUSH1 0x20 PUSH0 KECCAK256 SWAP1 JUMPDEST DUP2 SLOAD DUP2 MSTORE SWAP1 PUSH1 0x1 ADD SWAP1 PUSH1 0x20 ADD DUP1 DUP4 GT PUSH2 0x19CA JUMPI DUP3 SWAP1 SUB PUSH1 0x1F AND DUP3 ADD SWAP2 JUMPDEST POP POP POP POP POP SWAP1 POP SWAP1 JUMP JUMPDEST PUSH0 PUSH2 0x19FB DUP4 PUSH2 0x1CC0 JUMP JUMPDEST PUSH1 0x4 PUSH0 DUP5 DUP2 MSTORE PUSH1 0x20 ADD SWAP1 DUP2 MSTORE PUSH1 0x20 ADD PUSH0 KECCAK256 PUSH0 DUP4 PUSH20 0xFFFFFFFFFFFFFFFFFFFFFFFFFFFFFFFFFFFFFFFF AND PUSH20 0xFFFFFFFFFFFFFFFFFFFFFFFFFFFFFFFFFFFFFFFF AND DUP2 MSTORE PUSH1 0x20 ADD SWAP1 DUP2 MSTORE PUSH1 0x20 ADD PUSH0 KECCAK256 SLOAD SWAP1 POP SWAP3 SWAP2 POP POP JUMP JUMPDEST PUSH1 0x60 PUSH0 PUSH2 0x1A5B PUSH2 0x1DEB JUMP JUMPDEST SWAP1 POP PUSH0 PUSH20 0xFFFFFFFFFFFFFFFFFFFFFFFFFFFFFFFFFFFFFFFF AND PUSH1 0x8 PUSH0 SWAP1 SLOAD SWAP1 PUSH2 0x100 EXP SWAP1 DIV PUSH20 0xFFFFFFFFFFFFFFFFFFFFFFFFFFFFFFFFFFFFFFFF AND PUSH20 0xFFFFFFFFFFFFFFFFFFFFFFFFFFFFFFFFFFFFFFFF AND SUB PUSH2 0x1AFD JUMPI PUSH0 DUP2 MLOAD GT PUSH2 0x1ACD JUMPI PUSH1 0x40 MLOAD DUP1 PUSH1 0x20 ADD PUSH1 0x40 MSTORE DUP1 PUSH0 DUP2 MSTORE POP PUSH2 0x1AF8 JUMP JUMPDEST DUP1 PUSH2 0x1AD7 ADDRESS PUSH2 0x2B4B JUMP JUMPDEST PUSH1 0x40 MLOAD PUSH1 0x20 ADD PUSH2 0x1AE8 SWAP3 SWAP2 SWAP1 PUSH2 0x4DAE JUMP JUMPDEST PUSH1 0x40 MLOAD PUSH1 0x20 DUP2 DUP4 SUB SUB DUP2 MSTORE SWAP1 PUSH1 0x40 MSTORE JUMPDEST PUSH2 0x1B8F JUMP JUMPDEST PUSH1 0x8 PUSH0 SWAP1 SLOAD SWAP1 PUSH2 0x100 EXP SWAP1 DIV PUSH20 0xFFFFFFFFFFFFFFFFFFFFFFFFFFFFFFFFFFFFFFFF AND PUSH20 0xFFFFFFFFFFFFFFFFFFFFFFFFFFFFFFFFFFFFFFFF AND PUSH4 0x725FA09C PUSH1 0x40 MLOAD DUP2 PUSH4 0xFFFFFFFF AND PUSH1 0xE0 SHL DUP2 MSTORE PUSH1 0x4 ADD PUSH0 PUSH1 0x40 MLOAD DUP1 DUP4 SUB DUP2 DUP7 GAS STATICCALL ISZERO DUP1 ISZERO PUSH2 0x1B66 JUMPI RETURNDATASIZE PUSH0 DUP1 RETURNDATACOPY RETURNDATASIZE PUSH0 REVERT JUMPDEST POP POP POP POP PUSH1 0x40 MLOAD RETURNDATASIZE PUSH0 DUP3 RETURNDATACOPY RETURNDATASIZE PUSH1 0x1F NOT PUSH1 0x1F DUP3 ADD AND DUP3 ADD DUP1 PUSH1 0x40 MSTORE POP DUP2 ADD SWAP1 PUSH2 0x1B8E SWAP2 SWAP1 PUSH2 0x4701 JUMP JUMPDEST JUMPDEST SWAP2 POP POP SWAP1 JUMP JUMPDEST PUSH0 PUSH1 0x7 PUSH0 DUP5 PUSH20 0xFFFFFFFFFFFFFFFFFFFFFFFFFFFFFFFFFFFFFFFF AND PUSH20 0xFFFFFFFFFFFFFFFFFFFFFFFFFFFFFFFFFFFFFFFF AND DUP2 MSTORE PUSH1 0x20 ADD SWAP1 DUP2 MSTORE PUSH1 0x20 ADD PUSH0 KECCAK256 PUSH1 0x2 ADD PUSH0 DUP4 PUSH20 0xFFFFFFFFFFFFFFFFFFFFFFFFFFFFFFFFFFFFFFFF AND PUSH20 0xFFFFFFFFFFFFFFFFFFFFFFFFFFFFFFFFFFFFFFFF AND DUP2 MSTORE PUSH1 0x20 ADD SWAP1 DUP2 MSTORE PUSH1 0x20 ADD PUSH0 KECCAK256 PUSH0 SWAP1 SLOAD SWAP1 PUSH2 0x100 EXP SWAP1 DIV PUSH1 0xFF AND SWAP1 POP SWAP3 SWAP2 POP POP JUMP JUMPDEST PUSH2 0x1C2E PUSH2 0x2434 JUMP JUMPDEST PUSH2 0x1C38 DUP3 DUP3 PUSH2 0x2B78 JUMP JUMPDEST POP POP JUMP JUMPDEST PUSH2 0x1C44 PUSH2 0x2434 JUMP JUMPDEST PUSH0 PUSH20 0xFFFFFFFFFFFFFFFFFFFFFFFFFFFFFFFFFFFFFFFF AND DUP2 PUSH20 0xFFFFFFFFFFFFFFFFFFFFFFFFFFFFFFFFFFFFFFFF AND SUB PUSH2 0x1CB4 JUMPI PUSH0 PUSH1 0x40 MLOAD PUSH32 0x1E4FBDF700000000000000000000000000000000000000000000000000000000 DUP2 MSTORE PUSH1 0x4 ADD PUSH2 0x1CAB SWAP2 SWAP1 PUSH2 0x3DCC JUMP JUMPDEST PUSH1 0x40 MLOAD DUP1 SWAP2 SUB SWAP1 REVERT JUMPDEST PUSH2 0x1CBD DUP2 PUSH2 0x270E JUMP JUMPDEST POP JUMP JUMPDEST PUSH2 0x1CC9 DUP2 PUSH2 0x2BBC JUMP JUMPDEST PUSH2 0x1D08 JUMPI PUSH1 0x40 MLOAD PUSH32 0x8C379A000000000000000000000000000000000000000000000000000000000 DUP2 MSTORE PUSH1 0x4 ADD PUSH2 0x1CFF SWAP1 PUSH2 0x4B9F JUMP JUMPDEST PUSH1 0x40 MLOAD DUP1 SWAP2 SUB SWAP1 REVERT JUMPDEST POP JUMP JUMPDEST PUSH0 CALLER SWAP1 POP SWAP1 JUMP JUMPDEST DUP2 PUSH1 0x5 PUSH1 0x6 PUSH0 DUP5 DUP2 MSTORE PUSH1 0x20 ADD SWAP1 DUP2 MSTORE PUSH1 0x20 ADD PUSH0 KECCAK256 SLOAD DUP2 SLOAD DUP2 LT PUSH2 0x1D38 JUMPI PUSH2 0x1D37 PUSH2 0x4498 JUMP JUMPDEST JUMPDEST SWAP1 PUSH0 MSTORE PUSH1 0x20 PUSH0 KECCAK256 SWAP1 PUSH1 0x6 MUL ADD PUSH1 0x4 ADD PUSH0 PUSH2 0x100 EXP DUP2 SLOAD DUP2 PUSH20 0xFFFFFFFFFFFFFFFFFFFFFFFFFFFFFFFFFFFFFFFF MUL NOT AND SWAP1 DUP4 PUSH20 0xFFFFFFFFFFFFFFFFFFFFFFFFFFFFFFFFFFFFFFFF AND MUL OR SWAP1 SSTORE POP DUP1 DUP3 PUSH20 0xFFFFFFFFFFFFFFFFFFFFFFFFFFFFFFFFFFFFFFFF AND PUSH2 0x1DA5 DUP4 PUSH2 0x11A6 JUMP JUMPDEST PUSH20 0xFFFFFFFFFFFFFFFFFFFFFFFFFFFFFFFFFFFFFFFF AND PUSH32 0x8C5BE1E5EBEC7D5BD14F71427D1E84F3DD0314C0F7B2291E5B200AC8C7C3B925 PUSH1 0x40 MLOAD PUSH1 0x40 MLOAD DUP1 SWAP2 SUB SWAP1 LOG4 POP POP JUMP JUMPDEST PUSH1 0x60 PUSH1 0xB DUP1 SLOAD PUSH2 0x1DFA SWAP1 PUSH2 0x4468 JUMP JUMPDEST DUP1 PUSH1 0x1F ADD PUSH1 0x20 DUP1 SWAP2 DIV MUL PUSH1 0x20 ADD PUSH1 0x40 MLOAD SWAP1 DUP2 ADD PUSH1 0x40 MSTORE DUP1 SWAP3 SWAP2 SWAP1 DUP2 DUP2 MSTORE PUSH1 0x20 ADD DUP3 DUP1 SLOAD PUSH2 0x1E26 SWAP1 PUSH2 0x4468 JUMP JUMPDEST DUP1 ISZERO PUSH2 0x1E71 JUMPI DUP1 PUSH1 0x1F LT PUSH2 0x1E48 JUMPI PUSH2 0x100 DUP1 DUP4 SLOAD DIV MUL DUP4 MSTORE SWAP2 PUSH1 0x20 ADD SWAP2 PUSH2 0x1E71 JUMP JUMPDEST DUP3 ADD SWAP2 SWAP1 PUSH0 MSTORE PUSH1 0x20 PUSH0 KECCAK256 SWAP1 JUMPDEST DUP2 SLOAD DUP2 MSTORE SWAP1 PUSH1 0x1 ADD SWAP1 PUSH1 0x20 ADD DUP1 DUP4 GT PUSH2 0x1E54 JUMPI DUP3 SWAP1 SUB PUSH1 0x1F AND DUP3 ADD SWAP2 JUMPDEST POP POP POP POP POP SWAP1 POP SWAP1 JUMP JUMPDEST PUSH1 0x60 PUSH0 PUSH1 0x1 PUSH2 0x1E89 DUP5 PUSH2 0x2C0B JUMP JUMPDEST ADD SWAP1 POP PUSH0 DUP2 PUSH8 0xFFFFFFFFFFFFFFFF DUP2 GT ISZERO PUSH2 0x1EA7 JUMPI PUSH2 0x1EA6 PUSH2 0x3FF1 JUMP JUMPDEST JUMPDEST PUSH1 0x40 MLOAD SWAP1 DUP1 DUP3 MSTORE DUP1 PUSH1 0x1F ADD PUSH1 0x1F NOT AND PUSH1 0x20 ADD DUP3 ADD PUSH1 0x40 MSTORE DUP1 ISZERO PUSH2 0x1ED9 JUMPI DUP2 PUSH1 0x20 ADD PUSH1 0x1 DUP3 MUL DUP1 CALLDATASIZE DUP4 CALLDATACOPY DUP1 DUP3 ADD SWAP2 POP POP SWAP1 POP JUMPDEST POP SWAP1 POP PUSH0 DUP3 PUSH1 0x20 ADD DUP3 ADD SWAP1 POP JUMPDEST PUSH1 0x1 ISZERO PUSH2 0x1F3A JUMPI DUP1 DUP1 PUSH1 0x1 SWAP1 SUB SWAP2 POP POP PUSH32 0x3031323334353637383961626364656600000000000000000000000000000000 PUSH1 0xA DUP7 MOD BYTE DUP2 MSTORE8 PUSH1 0xA DUP6 DUP2 PUSH2 0x1F2F JUMPI PUSH2 0x1F2E PUSH2 0x4DDC JUMP JUMPDEST JUMPDEST DIV SWAP5 POP PUSH0 DUP6 SUB PUSH2 0x1EE6 JUMPI JUMPDEST DUP2 SWAP4 POP POP POP POP SWAP2 SWAP1 POP JUMP JUMPDEST PUSH0 PUSH2 0x1F50 DUP4 DUP6 PUSH2 0x19F1 JUMP JUMPDEST SWAP1 POP PUSH2 0x1F5C DUP5 DUP5 PUSH2 0x24D9 JUMP JUMPDEST ISZERO DUP1 ISZERO PUSH2 0x1F89 JUMPI POP PUSH32 0xFFFFFFFFFFFFFFFFFFFFFFFFFFFFFFFFFFFFFFFFFFFFFFFFFFFFFFFFFFFFFFFF DUP2 EQ ISZERO JUMPDEST ISZERO PUSH2 0x1FE8 JUMPI DUP2 DUP2 LT ISZERO PUSH2 0x1FD1 JUMPI PUSH1 0x40 MLOAD PUSH32 0x8C379A000000000000000000000000000000000000000000000000000000000 DUP2 MSTORE PUSH1 0x4 ADD PUSH2 0x1FC8 SWAP1 PUSH2 0x4E53 JUMP JUMPDEST PUSH1 0x40 MLOAD DUP1 SWAP2 SUB SWAP1 REVERT JUMPDEST PUSH2 0x1FE7 DUP4 DUP6 DUP5 DUP5 PUSH2 0x1FE2 SWAP2 SWAP1 PUSH2 0x4E9E JUMP JUMPDEST PUSH2 0x27D1 JUMP JUMPDEST JUMPDEST POP POP POP POP JUMP JUMPDEST PUSH0 PUSH2 0x1FF7 PUSH2 0x2D5C JUMP JUMPDEST SWAP1 POP SWAP2 SWAP1 POP JUMP JUMPDEST PUSH0 PUSH20 0xFFFFFFFFFFFFFFFFFFFFFFFFFFFFFFFFFFFFFFFF AND DUP5 PUSH20 0xFFFFFFFFFFFFFFFFFFFFFFFFFFFFFFFFFFFFFFFF AND SUB PUSH2 0x206C JUMPI PUSH1 0x40 MLOAD PUSH32 0x8C379A000000000000000000000000000000000000000000000000000000000 DUP2 MSTORE PUSH1 0x4 ADD PUSH2 0x2063 SWAP1 PUSH2 0x4F41 JUMP JUMPDEST PUSH1 0x40 MLOAD DUP1 SWAP2 SUB SWAP1 REVERT JUMPDEST PUSH0 DUP4 SUB PUSH2 0x20AE JUMPI PUSH1 0x40 MLOAD PUSH32 0x8C379A000000000000000000000000000000000000000000000000000000000 DUP2 MSTORE PUSH1 0x4 ADD PUSH2 0x20A5 SWAP1 PUSH2 0x4FCF JUMP JUMPDEST PUSH1 0x40 MLOAD DUP1 SWAP2 SUB SWAP1 REVERT JUMPDEST PUSH2 0x20B7 DUP4 PUSH2 0x2BBC JUMP JUMPDEST ISZERO PUSH2 0x20F7 JUMPI PUSH1 0x40 MLOAD PUSH32 0x8C379A000000000000000000000000000000000000000000000000000000000 DUP2 MSTORE PUSH1 0x4 ADD PUSH2 0x20EE SWAP1 PUSH2 0x5037 JUMP JUMPDEST PUSH1 0x40 MLOAD DUP1 SWAP2 SUB SWAP1 REVERT JUMPDEST PUSH2 0x2105 PUSH0 DUP6 PUSH0 DUP7 DUP7 DUP7 PUSH2 0x2D78 JUMP JUMPDEST PUSH2 0x2110 DUP5 DUP5 DUP5 PUSH2 0x2D80 JUMP JUMPDEST PUSH2 0x211A DUP4 DUP3 PUSH2 0x2EC7 JUMP JUMPDEST PUSH2 0x2128 PUSH0 DUP6 PUSH0 DUP7 DUP7 DUP7 PUSH2 0x2F4E JUMP JUMPDEST POP POP POP POP JUMP JUMPDEST PUSH2 0x2137 DUP4 PUSH2 0x2BBC JUMP JUMPDEST PUSH2 0x2176 JUMPI PUSH1 0x40 MLOAD PUSH32 0x8C379A000000000000000000000000000000000000000000000000000000000 DUP2 MSTORE PUSH1 0x4 ADD PUSH2 0x216D SWAP1 PUSH2 0x50C5 JUMP JUMPDEST PUSH1 0x40 MLOAD DUP1 SWAP2 SUB SWAP1 REVERT JUMPDEST PUSH2 0x217F DUP3 PUSH2 0x2BBC JUMP JUMPDEST PUSH2 0x21BE JUMPI PUSH1 0x40 MLOAD PUSH32 0x8C379A000000000000000000000000000000000000000000000000000000000 DUP2 MSTORE PUSH1 0x4 ADD PUSH2 0x21B5 SWAP1 PUSH2 0x5153 JUMP JUMPDEST PUSH1 0x40 MLOAD DUP1 SWAP2 SUB SWAP1 REVERT JUMPDEST PUSH0 PUSH1 0x5 PUSH1 0x6 PUSH0 DUP7 DUP2 MSTORE PUSH1 0x20 ADD SWAP1 DUP2 MSTORE PUSH1 0x20 ADD PUSH0 KECCAK256 SLOAD DUP2 SLOAD DUP2 LT PUSH2 0x21E4 JUMPI PUSH2 0x21E3 PUSH2 0x4498 JUMP JUMPDEST JUMPDEST SWAP1 PUSH0 MSTORE PUSH1 0x20 PUSH0 KECCAK256 SWAP1 PUSH1 0x6 MUL ADD SWAP1 POP PUSH0 PUSH1 0x5 PUSH1 0x6 PUSH0 DUP7 DUP2 MSTORE PUSH1 0x20 ADD SWAP1 DUP2 MSTORE PUSH1 0x20 ADD PUSH0 KECCAK256 SLOAD DUP2 SLOAD DUP2 LT PUSH2 0x2218 JUMPI PUSH2 0x2217 PUSH2 0x4498 JUMP JUMPDEST JUMPDEST SWAP1 PUSH0 MSTORE PUSH1 0x20 PUSH0 KECCAK256 SWAP1 PUSH1 0x6 MUL ADD SWAP1 POP DUP3 DUP3 PUSH1 0x2 ADD SLOAD LT ISZERO PUSH2 0x226D JUMPI PUSH1 0x40 MLOAD PUSH32 0x8C379A000000000000000000000000000000000000000000000000000000000 DUP2 MSTORE PUSH1 0x4 ADD PUSH2 0x2264 SWAP1 PUSH2 0x51E1 JUMP JUMPDEST PUSH1 0x40 MLOAD DUP1 SWAP2 SUB SWAP1 REVERT JUMPDEST DUP1 PUSH1 0x1 ADD SLOAD DUP3 PUSH1 0x1 ADD SLOAD EQ PUSH2 0x22B7 JUMPI PUSH1 0x40 MLOAD PUSH32 0x8C379A000000000000000000000000000000000000000000000000000000000 DUP2 MSTORE PUSH1 0x4 ADD PUSH2 0x22AE SWAP1 PUSH2 0x526F JUMP JUMPDEST PUSH1 0x40 MLOAD DUP1 SWAP2 SUB SWAP1 REVERT JUMPDEST PUSH2 0x230F DUP3 PUSH1 0x3 ADD PUSH0 SWAP1 SLOAD SWAP1 PUSH2 0x100 EXP SWAP1 DIV PUSH20 0xFFFFFFFFFFFFFFFFFFFFFFFFFFFFFFFFFFFFFFFF AND DUP3 PUSH1 0x3 ADD PUSH0 SWAP1 SLOAD SWAP1 PUSH2 0x100 EXP SWAP1 DIV PUSH20 0xFFFFFFFFFFFFFFFFFFFFFFFFFFFFFFFFFFFFFFFF AND DUP8 DUP8 DUP7 PUSH1 0x1 ADD SLOAD DUP9 PUSH2 0x2D78 JUMP JUMPDEST DUP3 DUP3 PUSH1 0x2 ADD PUSH0 DUP3 DUP3 SLOAD PUSH2 0x2322 SWAP2 SWAP1 PUSH2 0x4E9E JUMP JUMPDEST SWAP3 POP POP DUP2 SWAP1 SSTORE POP DUP3 DUP2 PUSH1 0x2 ADD PUSH0 DUP3 DUP3 SLOAD PUSH2 0x233C SWAP2 SWAP1 PUSH2 0x528D JUMP JUMPDEST SWAP3 POP POP DUP2 SWAP1 SSTORE POP DUP4 DUP6 PUSH32 0xB2AAC84F3EC956911FD78EAE5311062972FF949F38412E8DA39069D9F068CC6 DUP6 PUSH1 0x40 MLOAD PUSH2 0x2374 SWAP2 SWAP1 PUSH2 0x3EAC JUMP JUMPDEST PUSH1 0x40 MLOAD DUP1 SWAP2 SUB SWAP1 LOG3 PUSH2 0x23D4 DUP3 PUSH1 0x3 ADD PUSH0 SWAP1 SLOAD SWAP1 PUSH2 0x100 EXP SWAP1 DIV PUSH20 0xFFFFFFFFFFFFFFFFFFFFFFFFFFFFFFFFFFFFFFFF AND DUP3 PUSH1 0x3 ADD PUSH0 SWAP1 SLOAD SWAP1 PUSH2 0x100 EXP SWAP1 DIV PUSH20 0xFFFFFFFFFFFFFFFFFFFFFFFFFFFFFFFFFFFFFFFF AND DUP8 DUP8 DUP7 PUSH1 0x1 ADD SLOAD DUP9 PUSH2 0x2F4E JUMP JUMPDEST PUSH2 0x23EE DUP6 DUP6 DUP6 PUSH1 0x40 MLOAD DUP1 PUSH1 0x20 ADD PUSH1 0x40 MSTORE DUP1 PUSH0 DUP2 MSTORE POP PUSH2 0x2F56 JUMP JUMPDEST PUSH2 0x242D JUMPI PUSH1 0x40 MLOAD PUSH32 0x8C379A000000000000000000000000000000000000000000000000000000000 DUP2 MSTORE PUSH1 0x4 ADD PUSH2 0x2424 SWAP1 PUSH2 0x5330 JUMP JUMPDEST PUSH1 0x40 MLOAD DUP1 SWAP2 SUB SWAP1 REVERT JUMPDEST POP POP POP POP POP JUMP JUMPDEST PUSH2 0x243C PUSH2 0x1D0B JUMP JUMPDEST PUSH20 0xFFFFFFFFFFFFFFFFFFFFFFFFFFFFFFFFFFFFFFFF AND PUSH2 0x245A PUSH2 0x155D JUMP JUMPDEST PUSH20 0xFFFFFFFFFFFFFFFFFFFFFFFFFFFFFFFFFFFFFFFF AND EQ PUSH2 0x24B9 JUMPI PUSH2 0x247D PUSH2 0x1D0B JUMP JUMPDEST PUSH1 0x40 MLOAD PUSH32 0x118CDAA700000000000000000000000000000000000000000000000000000000 DUP2 MSTORE PUSH1 0x4 ADD PUSH2 0x24B0 SWAP2 SWAP1 PUSH2 0x3DCC JUMP JUMPDEST PUSH1 0x40 MLOAD DUP1 SWAP2 SUB SWAP1 REVERT JUMPDEST JUMP JUMPDEST PUSH0 PUSH2 0x24C4 PUSH2 0x2D5C JUMP JUMPDEST SWAP1 POP PUSH2 0x24D2 DUP5 DUP3 DUP6 DUP6 PUSH2 0x1FFE JUMP JUMPDEST SWAP4 SWAP3 POP POP POP JUMP JUMPDEST PUSH0 DUP1 PUSH2 0x24E4 DUP4 PUSH2 0x11A6 JUMP JUMPDEST SWAP1 POP DUP1 PUSH20 0xFFFFFFFFFFFFFFFFFFFFFFFFFFFFFFFFFFFFFFFF AND DUP5 PUSH20 0xFFFFFFFFFFFFFFFFFFFFFFFFFFFFFFFFFFFFFFFF AND EQ DUP1 PUSH2 0x2526 JUMPI POP PUSH2 0x2525 DUP2 DUP6 PUSH2 0x1B95 JUMP JUMPDEST JUMPDEST DUP1 PUSH2 0x2564 JUMPI POP DUP4 PUSH20 0xFFFFFFFFFFFFFFFFFFFFFFFFFFFFFFFFFFFFFFFF AND PUSH2 0x254C DUP5 PUSH2 0xC38 JUMP JUMPDEST PUSH20 0xFFFFFFFFFFFFFFFFFFFFFFFFFFFFFFFFFFFFFFFF AND EQ JUMPDEST SWAP2 POP POP SWAP3 SWAP2 POP POP JUMP JUMPDEST DUP3 PUSH20 0xFFFFFFFFFFFFFFFFFFFFFFFFFFFFFFFFFFFFFFFF AND PUSH2 0x258D DUP3 PUSH2 0x11A6 JUMP JUMPDEST PUSH20 0xFFFFFFFFFFFFFFFFFFFFFFFFFFFFFFFFFFFFFFFF AND EQ PUSH2 0x25E3 JUMPI PUSH1 0x40 MLOAD PUSH32 0x8C379A000000000000000000000000000000000000000000000000000000000 DUP2 MSTORE PUSH1 0x4 ADD PUSH2 0x25DA SWAP1 PUSH2 0x53BE JUMP JUMPDEST PUSH1 0x40 MLOAD DUP1 SWAP2 SUB SWAP1 REVERT JUMPDEST PUSH0 PUSH20 0xFFFFFFFFFFFFFFFFFFFFFFFFFFFFFFFFFFFFFFFF AND DUP3 PUSH20 0xFFFFFFFFFFFFFFFFFFFFFFFFFFFFFFFFFFFFFFFF AND SUB PUSH2 0x2651 JUMPI PUSH1 0x40 MLOAD PUSH32 0x8C379A000000000000000000000000000000000000000000000000000000000 DUP2 MSTORE PUSH1 0x4 ADD PUSH2 0x2648 SWAP1 PUSH2 0x544C JUMP JUMPDEST PUSH1 0x40 MLOAD DUP1 SWAP2 SUB SWAP1 REVERT JUMPDEST PUSH0 PUSH2 0x265B DUP3 PUSH2 0xFCE JUMP JUMPDEST SWAP1 POP PUSH0 PUSH2 0x2667 DUP4 PUSH2 0x163A JUMP JUMPDEST SWAP1 POP PUSH2 0x2677 DUP6 DUP6 DUP6 DUP7 DUP7 DUP7 PUSH2 0x2D78 JUMP JUMPDEST PUSH2 0x2681 PUSH0 DUP5 PUSH2 0x1D12 JUMP JUMPDEST PUSH2 0x268A DUP4 PUSH2 0x313C JUMP JUMPDEST PUSH2 0x2694 DUP6 DUP5 PUSH2 0x3238 JUMP JUMPDEST PUSH2 0x269E DUP5 DUP5 PUSH2 0x33B6 JUMP JUMPDEST DUP3 DUP5 PUSH20 0xFFFFFFFFFFFFFFFFFFFFFFFFFFFFFFFFFFFFFFFF AND DUP7 PUSH20 0xFFFFFFFFFFFFFFFFFFFFFFFFFFFFFFFFFFFFFFFF AND PUSH32 0xDDF252AD1BE2C89B69C2B068FC378DAA952BA7F163C4A11628F55A4DF523B3EF PUSH1 0x40 MLOAD PUSH1 0x40 MLOAD DUP1 SWAP2 SUB SWAP1 LOG4 PUSH2 0x2707 DUP6 DUP6 DUP6 DUP7 DUP7 DUP7 PUSH2 0x2F4E JUMP JUMPDEST POP POP POP POP POP JUMP JUMPDEST PUSH0 PUSH1 0x9 PUSH0 SWAP1 SLOAD SWAP1 PUSH2 0x100 EXP SWAP1 DIV PUSH20 0xFFFFFFFFFFFFFFFFFFFFFFFFFFFFFFFFFFFFFFFF AND SWAP1 POP DUP2 PUSH1 0x9 PUSH0 PUSH2 0x100 EXP DUP2 SLOAD DUP2 PUSH20 0xFFFFFFFFFFFFFFFFFFFFFFFFFFFFFFFFFFFFFFFF MUL NOT AND SWAP1 DUP4 PUSH20 0xFFFFFFFFFFFFFFFFFFFFFFFFFFFFFFFFFFFFFFFF AND MUL OR SWAP1 SSTORE POP DUP2 PUSH20 0xFFFFFFFFFFFFFFFFFFFFFFFFFFFFFFFFFFFFFFFF AND DUP2 PUSH20 0xFFFFFFFFFFFFFFFFFFFFFFFFFFFFFFFFFFFFFFFF AND PUSH32 0x8BE0079C531659141344CD1FD0A4F28419497F9722A3DAAFE3B4186F6B6457E0 PUSH1 0x40 MLOAD PUSH1 0x40 MLOAD DUP1 SWAP2 SUB SWAP1 LOG3 POP POP JUMP JUMPDEST PUSH0 PUSH20 0xFFFFFFFFFFFFFFFFFFFFFFFFFFFFFFFFFFFFFFFF AND DUP3 PUSH20 0xFFFFFFFFFFFFFFFFFFFFFFFFFFFFFFFFFFFFFFFF AND SUB PUSH2 0x283F JUMPI PUSH1 0x40 MLOAD PUSH32 0x8C379A000000000000000000000000000000000000000000000000000000000 DUP2 MSTORE PUSH1 0x4 ADD PUSH2 0x2836 SWAP1 PUSH2 0x54DA JUMP JUMPDEST PUSH1 0x40 MLOAD DUP1 SWAP2 SUB SWAP1 REVERT JUMPDEST PUSH2 0x2849 DUP3 DUP5 PUSH2 0x3525 JUMP JUMPDEST PUSH2 0x28E0 JUMPI PUSH1 0x5 PUSH1 0x6 PUSH0 DUP6 DUP2 MSTORE PUSH1 0x20 ADD SWAP1 DUP2 MSTORE PUSH1 0x20 ADD PUSH0 KECCAK256 SLOAD DUP2 SLOAD DUP2 LT PUSH2 0x2872 JUMPI PUSH2 0x2871 PUSH2 0x4498 JUMP JUMPDEST JUMPDEST SWAP1 PUSH0 MSTORE PUSH1 0x20 PUSH0 KECCAK256 SWAP1 PUSH1 0x6 MUL ADD PUSH1 0x5 ADD DUP3 SWAP1 DUP1 PUSH1 0x1 DUP2 SLOAD ADD DUP1 DUP3 SSTORE DUP1 SWAP2 POP POP PUSH1 0x1 SWAP1 SUB SWAP1 PUSH0 MSTORE PUSH1 0x20 PUSH0 KECCAK256 ADD PUSH0 SWAP1 SWAP2 SWAP1 SWAP2 SWAP1 SWAP2 PUSH2 0x100 EXP DUP2 SLOAD DUP2 PUSH20 0xFFFFFFFFFFFFFFFFFFFFFFFFFFFFFFFFFFFFFFFF MUL NOT AND SWAP1 DUP4 PUSH20 0xFFFFFFFFFFFFFFFFFFFFFFFFFFFFFFFFFFFFFFFF AND MUL OR SWAP1 SSTORE POP JUMPDEST DUP1 PUSH1 0x4 PUSH0 DUP6 DUP2 MSTORE PUSH1 0x20 ADD SWAP1 DUP2 MSTORE PUSH1 0x20 ADD PUSH0 KECCAK256 PUSH0 DUP5 PUSH20 0xFFFFFFFFFFFFFFFFFFFFFFFFFFFFFFFFFFFFFFFF AND PUSH20 0xFFFFFFFFFFFFFFFFFFFFFFFFFFFFFFFFFFFFFFFF AND DUP2 MSTORE PUSH1 0x20 ADD SWAP1 DUP2 MSTORE PUSH1 0x20 ADD PUSH0 KECCAK256 DUP2 SWAP1 SSTORE POP DUP2 PUSH20 0xFFFFFFFFFFFFFFFFFFFFFFFFFFFFFFFFFFFFFFFF AND DUP4 PUSH32 0x621B050DE0AD08B51D19B48B3E6DF75348C4DE6BDD93E81B252CA62E28265B1B DUP4 PUSH1 0x40 MLOAD PUSH2 0x2978 SWAP2 SWAP1 PUSH2 0x3EAC JUMP JUMPDEST PUSH1 0x40 MLOAD DUP1 SWAP2 SUB SWAP1 LOG3 POP POP POP JUMP JUMPDEST DUP2 PUSH20 0xFFFFFFFFFFFFFFFFFFFFFFFFFFFFFFFFFFFFFFFF AND DUP4 PUSH20 0xFFFFFFFFFFFFFFFFFFFFFFFFFFFFFFFFFFFFFFFF AND SUB PUSH2 0x29F3 JUMPI PUSH1 0x40 MLOAD PUSH32 0x8C379A000000000000000000000000000000000000000000000000000000000 DUP2 MSTORE PUSH1 0x4 ADD PUSH2 0x29EA SWAP1 PUSH2 0x5542 JUMP JUMPDEST PUSH1 0x40 MLOAD DUP1 SWAP2 SUB SWAP1 REVERT JUMPDEST DUP1 PUSH1 0x7 PUSH0 DUP6 PUSH20 0xFFFFFFFFFFFFFFFFFFFFFFFFFFFFFFFFFFFFFFFF AND PUSH20 0xFFFFFFFFFFFFFFFFFFFFFFFFFFFFFFFFFFFFFFFF AND DUP2 MSTORE PUSH1 0x20 ADD SWAP1 DUP2 MSTORE PUSH1 0x20 ADD PUSH0 KECCAK256 PUSH1 0x2 ADD PUSH0 DUP5 PUSH20 0xFFFFFFFFFFFFFFFFFFFFFFFFFFFFFFFFFFFFFFFF AND PUSH20 0xFFFFFFFFFFFFFFFFFFFFFFFFFFFFFFFFFFFFFFFF AND DUP2 MSTORE PUSH1 0x20 ADD SWAP1 DUP2 MSTORE PUSH1 0x20 ADD PUSH0 KECCAK256 PUSH0 PUSH2 0x100 EXP DUP2 SLOAD DUP2 PUSH1 0xFF MUL NOT AND SWAP1 DUP4 ISZERO ISZERO MUL OR SWAP1 SSTORE POP DUP2 PUSH20 0xFFFFFFFFFFFFFFFFFFFFFFFFFFFFFFFFFFFFFFFF AND DUP4 PUSH20 0xFFFFFFFFFFFFFFFFFFFFFFFFFFFFFFFFFFFFFFFF AND PUSH32 0x17307EAB39AB6107E8899845AD3D59BD9653F200F220920489CA2B5937696C31 DUP4 PUSH1 0x40 MLOAD PUSH2 0x2AE2 SWAP2 SWAP1 PUSH2 0x3C6C JUMP JUMPDEST PUSH1 0x40 MLOAD DUP1 SWAP2 SUB SWAP1 LOG3 POP POP POP JUMP JUMPDEST PUSH2 0x2AFA DUP5 DUP5 DUP5 PUSH2 0x256D JUMP JUMPDEST PUSH2 0x2B06 DUP5 DUP5 DUP5 DUP5 PUSH2 0x362F JUMP JUMPDEST PUSH2 0x2B45 JUMPI PUSH1 0x40 MLOAD PUSH32 0x8C379A000000000000000000000000000000000000000000000000000000000 DUP2 MSTORE PUSH1 0x4 ADD PUSH2 0x2B3C SWAP1 PUSH2 0x55D0 JUMP JUMPDEST PUSH1 0x40 MLOAD DUP1 SWAP2 SUB SWAP1 REVERT JUMPDEST POP POP POP POP JUMP JUMPDEST PUSH1 0x60 PUSH2 0x2B71 DUP3 PUSH20 0xFFFFFFFFFFFFFFFFFFFFFFFFFFFFFFFFFFFFFFFF AND PUSH1 0x14 PUSH1 0xFF AND PUSH2 0x379B JUMP JUMPDEST SWAP1 POP SWAP2 SWAP1 POP JUMP JUMPDEST PUSH0 PUSH2 0x2B82 DUP4 PUSH2 0x11A6 JUMP JUMPDEST SWAP1 POP PUSH0 PUSH2 0x2B8E DUP5 PUSH2 0xFCE JUMP JUMPDEST SWAP1 POP PUSH2 0x2B9E PUSH0 DUP4 PUSH0 DUP8 DUP6 DUP9 PUSH2 0x2D78 JUMP JUMPDEST PUSH2 0x2BA8 DUP5 DUP5 PUSH2 0x2EC7 JUMP JUMPDEST PUSH2 0x2BB6 PUSH0 DUP4 PUSH0 DUP8 DUP6 DUP9 PUSH2 0x2F4E JUMP JUMPDEST POP POP POP POP JUMP JUMPDEST PUSH0 DUP1 PUSH1 0x5 DUP1 SLOAD SWAP1 POP EQ ISZERO DUP1 ISZERO PUSH2 0x2C04 JUMPI POP DUP2 PUSH1 0x5 PUSH1 0x6 PUSH0 DUP6 DUP2 MSTORE PUSH1 0x20 ADD SWAP1 DUP2 MSTORE PUSH1 0x20 ADD PUSH0 KECCAK256 SLOAD DUP2 SLOAD DUP2 LT PUSH2 0x2BF3 JUMPI PUSH2 0x2BF2 PUSH2 0x4498 JUMP JUMPDEST JUMPDEST SWAP1 PUSH0 MSTORE PUSH1 0x20 PUSH0 KECCAK256 SWAP1 PUSH1 0x6 MUL ADD PUSH0 ADD SLOAD EQ JUMPDEST SWAP1 POP SWAP2 SWAP1 POP JUMP JUMPDEST PUSH0 DUP1 PUSH0 SWAP1 POP PUSH27 0x184F03E93FF9F4DAA797ED6E38ED64BF6A1F010000000000000000 DUP4 LT PUSH2 0x2C67 JUMPI PUSH27 0x184F03E93FF9F4DAA797ED6E38ED64BF6A1F010000000000000000 DUP4 DUP2 PUSH2 0x2C5D JUMPI PUSH2 0x2C5C PUSH2 0x4DDC JUMP JUMPDEST JUMPDEST DIV SWAP3 POP PUSH1 0x40 DUP2 ADD SWAP1 POP JUMPDEST PUSH14 0x4EE2D6D415B85ACEF8100000000 DUP4 LT PUSH2 0x2CA4 JUMPI PUSH14 0x4EE2D6D415B85ACEF8100000000 DUP4 DUP2 PUSH2 0x2C9A JUMPI PUSH2 0x2C99 PUSH2 0x4DDC JUMP JUMPDEST JUMPDEST DIV SWAP3 POP PUSH1 0x20 DUP2 ADD SWAP1 POP JUMPDEST PUSH7 0x2386F26FC10000 DUP4 LT PUSH2 0x2CD3 JUMPI PUSH7 0x2386F26FC10000 DUP4 DUP2 PUSH2 0x2CC9 JUMPI PUSH2 0x2CC8 PUSH2 0x4DDC JUMP JUMPDEST JUMPDEST DIV SWAP3 POP PUSH1 0x10 DUP2 ADD SWAP1 POP JUMPDEST PUSH4 0x5F5E100 DUP4 LT PUSH2 0x2CFC JUMPI PUSH4 0x5F5E100 DUP4 DUP2 PUSH2 0x2CF2 JUMPI PUSH2 0x2CF1 PUSH2 0x4DDC JUMP JUMPDEST JUMPDEST DIV SWAP3 POP PUSH1 0x8 DUP2 ADD SWAP1 POP JUMPDEST PUSH2 0x2710 DUP4 LT PUSH2 0x2D21 JUMPI PUSH2 0x2710 DUP4 DUP2 PUSH2 0x2D17 JUMPI PUSH2 0x2D16 PUSH2 0x4DDC JUMP JUMPDEST JUMPDEST DIV SWAP3 POP PUSH1 0x4 DUP2 ADD SWAP1 POP JUMPDEST PUSH1 0x64 DUP4 LT PUSH2 0x2D44 JUMPI PUSH1 0x64 DUP4 DUP2 PUSH2 0x2D3A JUMPI PUSH2 0x2D39 PUSH2 0x4DDC JUMP JUMPDEST JUMPDEST DIV SWAP3 POP PUSH1 0x2 DUP2 ADD SWAP1 POP JUMPDEST PUSH1 0xA DUP4 LT PUSH2 0x2D53 JUMPI PUSH1 0x1 DUP2 ADD SWAP1 POP JUMPDEST DUP1 SWAP2 POP POP SWAP2 SWAP1 POP JUMP JUMPDEST PUSH0 PUSH1 0x3 PUSH0 DUP2 SLOAD DUP1 SWAP3 SWAP2 SWAP1 PUSH2 0x2D6F SWAP1 PUSH2 0x55EE JUMP JUMPDEST SWAP2 SWAP1 POP SSTORE SWAP1 POP SWAP1 JUMP JUMPDEST POP POP POP POP POP POP JUMP JUMPDEST PUSH0 PUSH1 0x40 MLOAD DUP1 PUSH1 0xC0 ADD PUSH1 0x40 MSTORE DUP1 DUP5 DUP2 MSTORE PUSH1 0x20 ADD DUP4 DUP2 MSTORE PUSH1 0x20 ADD PUSH0 DUP2 MSTORE PUSH1 0x20 ADD DUP6 PUSH20 0xFFFFFFFFFFFFFFFFFFFFFFFFFFFFFFFFFFFFFFFF AND DUP2 MSTORE PUSH1 0x20 ADD PUSH0 PUSH20 0xFFFFFFFFFFFFFFFFFFFFFFFFFFFFFFFFFFFFFFFF AND DUP2 MSTORE PUSH1 0x20 ADD PUSH0 PUSH8 0xFFFFFFFFFFFFFFFF DUP2 GT ISZERO PUSH2 0x2DF0 JUMPI PUSH2 0x2DEF PUSH2 0x3FF1 JUMP JUMPDEST JUMPDEST PUSH1 0x40 MLOAD SWAP1 DUP1 DUP3 MSTORE DUP1 PUSH1 0x20 MUL PUSH1 0x20 ADD DUP3 ADD PUSH1 0x40 MSTORE DUP1 ISZERO PUSH2 0x2E1E JUMPI DUP2 PUSH1 0x20 ADD PUSH1 0x20 DUP3 MUL DUP1 CALLDATASIZE DUP4 CALLDATACOPY DUP1 DUP3 ADD SWAP2 POP POP SWAP1 POP JUMPDEST POP DUP2 MSTORE POP SWAP1 POP PUSH2 0x2E2D DUP2 PUSH2 0x39D9 JUMP JUMPDEST PUSH2 0x2E37 DUP5 DUP5 PUSH2 0x33B6 JUMP JUMPDEST DUP3 DUP5 PUSH20 0xFFFFFFFFFFFFFFFFFFFFFFFFFFFFFFFFFFFFFFFF AND PUSH0 PUSH20 0xFFFFFFFFFFFFFFFFFFFFFFFFFFFFFFFFFFFFFFFF AND PUSH32 0xDDF252AD1BE2C89B69C2B068FC378DAA952BA7F163C4A11628F55A4DF523B3EF PUSH1 0x40 MLOAD PUSH1 0x40 MLOAD DUP1 SWAP2 SUB SWAP1 LOG4 DUP2 PUSH0 DUP5 PUSH32 0xE4F48C240D3B994948AA54F3E2F5FCA59263DFE1D52B6E4CF39A5D249B5CCB65 PUSH1 0x40 MLOAD PUSH1 0x40 MLOAD DUP1 SWAP2 SUB SWAP1 LOG4 POP POP POP POP JUMP JUMPDEST DUP1 PUSH1 0x5 PUSH1 0x6 PUSH0 DUP6 DUP2 MSTORE PUSH1 0x20 ADD SWAP1 DUP2 MSTORE PUSH1 0x20 ADD PUSH0 KECCAK256 SLOAD DUP2 SLOAD DUP2 LT PUSH2 0x2EED JUMPI PUSH2 0x2EEC PUSH2 0x4498 JUMP JUMPDEST JUMPDEST SWAP1 PUSH0 MSTORE PUSH1 0x20 PUSH0 KECCAK256 SWAP1 PUSH1 0x6 MUL ADD PUSH1 0x2 ADD PUSH0 DUP3 DUP3 SLOAD PUSH2 0x2F0A SWAP2 SWAP1 PUSH2 0x528D JUMP JUMPDEST SWAP3 POP POP DUP2 SWAP1 SSTORE POP DUP2 PUSH0 PUSH32 0xB2AAC84F3EC956911FD78EAE5311062972FF949F38412E8DA39069D9F068CC6 DUP4 PUSH1 0x40 MLOAD PUSH2 0x2F42 SWAP2 SWAP1 PUSH2 0x3EAC JUMP JUMPDEST PUSH1 0x40 MLOAD DUP1 SWAP2 SUB SWAP1 LOG3 POP POP JUMP JUMPDEST POP POP POP POP POP POP JUMP JUMPDEST PUSH0 DUP1 PUSH2 0x2F61 DUP6 PUSH2 0x11A6 JUMP JUMPDEST SWAP1 POP PUSH2 0x2F6C DUP2 PUSH2 0x3AEA JUMP JUMPDEST ISZERO PUSH2 0x312E JUMPI DUP1 PUSH20 0xFFFFFFFFFFFFFFFFFFFFFFFFFFFFFFFFFFFFFFFF AND PUSH4 0x1FFC9A7 PUSH31 0x9CE20B00000000000000000000000000000000000000000000000000000000 PUSH1 0x40 MLOAD DUP3 PUSH4 0xFFFFFFFF AND PUSH1 0xE0 SHL DUP2 MSTORE PUSH1 0x4 ADD PUSH2 0x2FC9 SWAP2 SWAP1 PUSH2 0x5644 JUMP JUMPDEST PUSH1 0x20 PUSH1 0x40 MLOAD DUP1 DUP4 SUB DUP2 DUP7 GAS STATICCALL SWAP3 POP POP POP DUP1 ISZERO PUSH2 0x3003 JUMPI POP PUSH1 0x40 MLOAD RETURNDATASIZE PUSH1 0x1F NOT PUSH1 0x1F DUP3 ADD AND DUP3 ADD DUP1 PUSH1 0x40 MSTORE POP DUP2 ADD SWAP1 PUSH2 0x3000 SWAP2 SWAP1 PUSH2 0x5671 JUMP JUMPDEST PUSH1 0x1 JUMPDEST PUSH2 0x3042 JUMPI RETURNDATASIZE DUP1 PUSH0 DUP2 EQ PUSH2 0x3031 JUMPI PUSH1 0x40 MLOAD SWAP2 POP PUSH1 0x1F NOT PUSH1 0x3F RETURNDATASIZE ADD AND DUP3 ADD PUSH1 0x40 MSTORE RETURNDATASIZE DUP3 MSTORE RETURNDATASIZE PUSH0 PUSH1 0x20 DUP5 ADD RETURNDATACOPY PUSH2 0x3036 JUMP JUMPDEST PUSH1 0x60 SWAP2 POP JUMPDEST POP PUSH1 0x1 SWAP3 POP POP POP PUSH2 0x3134 JUMP JUMPDEST DUP1 ISZERO PUSH2 0x3123 JUMPI PUSH0 DUP3 PUSH20 0xFFFFFFFFFFFFFFFFFFFFFFFFFFFFFFFFFFFFFFFF AND PUSH3 0x9CE20B PUSH2 0x306C PUSH2 0x1D0B JUMP JUMPDEST DUP11 DUP11 DUP11 DUP11 PUSH1 0x40 MLOAD DUP7 PUSH4 0xFFFFFFFF AND PUSH1 0xE0 SHL DUP2 MSTORE PUSH1 0x4 ADD PUSH2 0x3090 SWAP6 SWAP5 SWAP4 SWAP3 SWAP2 SWAP1 PUSH2 0x56EE JUMP JUMPDEST PUSH1 0x20 PUSH1 0x40 MLOAD DUP1 DUP4 SUB DUP2 PUSH0 DUP8 GAS CALL ISZERO DUP1 ISZERO PUSH2 0x30AC JUMPI RETURNDATASIZE PUSH0 DUP1 RETURNDATACOPY RETURNDATASIZE PUSH0 REVERT JUMPDEST POP POP POP POP PUSH1 0x40 MLOAD RETURNDATASIZE PUSH1 0x1F NOT PUSH1 0x1F DUP3 ADD AND DUP3 ADD DUP1 PUSH1 0x40 MSTORE POP DUP2 ADD SWAP1 PUSH2 0x30D0 SWAP2 SWAP1 PUSH2 0x575A JUMP JUMPDEST SWAP1 POP PUSH3 0x9CE20B PUSH1 0xE0 SHL PUSH28 0xFFFFFFFFFFFFFFFFFFFFFFFFFFFFFFFFFFFFFFFFFFFFFFFFFFFFFFFF NOT AND DUP2 PUSH28 0xFFFFFFFFFFFFFFFFFFFFFFFFFFFFFFFFFFFFFFFFFFFFFFFFFFFFFFFF NOT AND EQ SWAP4 POP POP POP POP PUSH2 0x3134 JUMP JUMPDEST PUSH1 0x1 SWAP3 POP POP POP PUSH2 0x3134 JUMP JUMPDEST PUSH1 0x1 SWAP2 POP POP JUMPDEST SWAP5 SWAP4 POP POP POP POP JUMP JUMPDEST PUSH0 PUSH1 0x5 PUSH1 0x6 PUSH0 DUP5 DUP2 MSTORE PUSH1 0x20 ADD SWAP1 DUP2 MSTORE PUSH1 0x20 ADD PUSH0 KECCAK256 SLOAD DUP2 SLOAD DUP2 LT PUSH2 0x3162 JUMPI PUSH2 0x3161 PUSH2 0x4498 JUMP JUMPDEST JUMPDEST SWAP1 PUSH0 MSTORE PUSH1 0x20 PUSH0 KECCAK256 SWAP1 PUSH1 0x6 MUL ADD SWAP1 POP PUSH0 DUP2 PUSH1 0x5 ADD DUP1 SLOAD SWAP1 POP SWAP1 POP PUSH0 JUMPDEST DUP2 DUP2 LT ISZERO PUSH2 0x3223 JUMPI PUSH0 DUP4 PUSH1 0x5 ADD DUP3 DUP2 SLOAD DUP2 LT PUSH2 0x319C JUMPI PUSH2 0x319B PUSH2 0x4498 JUMP JUMPDEST JUMPDEST SWAP1 PUSH0 MSTORE PUSH1 0x20 PUSH0 KECCAK256 ADD PUSH0 SWAP1 SLOAD SWAP1 PUSH2 0x100 EXP SWAP1 DIV PUSH20 0xFFFFFFFFFFFFFFFFFFFFFFFFFFFFFFFFFFFFFFFF AND SWAP1 POP PUSH1 0x4 PUSH0 DUP7 DUP2 MSTORE PUSH1 0x20 ADD SWAP1 DUP2 MSTORE PUSH1 0x20 ADD PUSH0 KECCAK256 PUSH0 DUP3 PUSH20 0xFFFFFFFFFFFFFFFFFFFFFFFFFFFFFFFFFFFFFFFF AND PUSH20 0xFFFFFFFFFFFFFFFFFFFFFFFFFFFFFFFFFFFFFFFF AND DUP2 MSTORE PUSH1 0x20 ADD SWAP1 DUP2 MSTORE PUSH1 0x20 ADD PUSH0 KECCAK256 PUSH0 SWAP1 SSTORE POP DUP1 DUP1 PUSH1 0x1 ADD SWAP2 POP POP PUSH2 0x317D JUMP JUMPDEST POP DUP2 PUSH1 0x5 ADD PUSH0 PUSH2 0x3233 SWAP2 SWAP1 PUSH2 0x3B01 JUMP JUMPDEST POP POP POP JUMP JUMPDEST PUSH0 PUSH1 0x5 PUSH1 0x6 PUSH0 DUP5 DUP2 MSTORE PUSH1 0x20 ADD SWAP1 DUP2 MSTORE PUSH1 0x20 ADD PUSH0 KECCAK256 SLOAD DUP2 SLOAD DUP2 LT PUSH2 0x325E JUMPI PUSH2 0x325D PUSH2 0x4498 JUMP JUMPDEST JUMPDEST SWAP1 PUSH0 MSTORE PUSH1 0x20 PUSH0 KECCAK256 SWAP1 PUSH1 0x6 MUL ADD PUSH1 0x3 ADD PUSH0 PUSH2 0x100 EXP DUP2 SLOAD DUP2 PUSH20 0xFFFFFFFFFFFFFFFFFFFFFFFFFFFFFFFFFFFFFFFF MUL NOT AND SWAP1 DUP4 PUSH20 0xFFFFFFFFFFFFFFFFFFFFFFFFFFFFFFFFFFFFFFFF AND MUL OR SWAP1 SSTORE POP PUSH0 PUSH1 0x7 PUSH0 DUP5 PUSH20 0xFFFFFFFFFFFFFFFFFFFFFFFFFFFFFFFFFFFFFFFF AND PUSH20 0xFFFFFFFFFFFFFFFFFFFFFFFFFFFFFFFFFFFFFFFF AND DUP2 MSTORE PUSH1 0x20 ADD SWAP1 DUP2 MSTORE PUSH1 0x20 ADD PUSH0 KECCAK256 SWAP1 POP PUSH0 PUSH1 0x1 DUP3 PUSH0 ADD DUP1 SLOAD SWAP1 POP PUSH2 0x32FE SWAP2 SWAP1 PUSH2 0x4E9E JUMP JUMPDEST SWAP1 POP PUSH0 DUP3 PUSH0 ADD DUP3 DUP2 SLOAD DUP2 LT PUSH2 0x3316 JUMPI PUSH2 0x3315 PUSH2 0x4498 JUMP JUMPDEST JUMPDEST SWAP1 PUSH0 MSTORE PUSH1 0x20 PUSH0 KECCAK256 ADD SLOAD SWAP1 POP PUSH0 DUP4 PUSH1 0x1 ADD PUSH0 DUP7 DUP2 MSTORE PUSH1 0x20 ADD SWAP1 DUP2 MSTORE PUSH1 0x20 ADD PUSH0 KECCAK256 SLOAD SWAP1 POP DUP2 DUP5 PUSH0 ADD DUP3 DUP2 SLOAD DUP2 LT PUSH2 0x334E JUMPI PUSH2 0x334D PUSH2 0x4498 JUMP JUMPDEST JUMPDEST SWAP1 PUSH0 MSTORE PUSH1 0x20 PUSH0 KECCAK256 ADD DUP2 SWAP1 SSTORE POP DUP1 DUP5 PUSH1 0x1 ADD PUSH0 DUP5 DUP2 MSTORE PUSH1 0x20 ADD SWAP1 DUP2 MSTORE PUSH1 0x20 ADD PUSH0 KECCAK256 DUP2 SWAP1 SSTORE POP DUP4 PUSH1 0x1 ADD PUSH0 DUP7 DUP2 MSTORE PUSH1 0x20 ADD SWAP1 DUP2 MSTORE PUSH1 0x20 ADD PUSH0 KECCAK256 PUSH0 SWAP1 SSTORE DUP4 PUSH0 ADD DUP1 SLOAD DUP1 PUSH2 0x339B JUMPI PUSH2 0x339A PUSH2 0x5785 JUMP JUMPDEST JUMPDEST PUSH1 0x1 SWAP1 SUB DUP2 DUP2 SWAP1 PUSH0 MSTORE PUSH1 0x20 PUSH0 KECCAK256 ADD PUSH0 SWAP1 SSTORE SWAP1 SSTORE POP POP POP POP POP POP JUMP JUMPDEST DUP2 PUSH1 0x5 PUSH1 0x6 PUSH0 DUP5 DUP2 MSTORE PUSH1 0x20 ADD SWAP1 DUP2 MSTORE PUSH1 0x20 ADD PUSH0 KECCAK256 SLOAD DUP2 SLOAD DUP2 LT PUSH2 0x33DC JUMPI PUSH2 0x33DB PUSH2 0x4498 JUMP JUMPDEST JUMPDEST SWAP1 PUSH0 MSTORE PUSH1 0x20 PUSH0 KECCAK256 SWAP1 PUSH1 0x6 MUL ADD PUSH1 0x3 ADD PUSH0 PUSH2 0x100 EXP DUP2 SLOAD DUP2 PUSH20 0xFFFFFFFFFFFFFFFFFFFFFFFFFFFFFFFFFFFFFFFF MUL NOT AND SWAP1 DUP4 PUSH20 0xFFFFFFFFFFFFFFFFFFFFFFFFFFFFFFFFFFFFFFFF AND MUL OR SWAP1 SSTORE POP PUSH1 0x7 PUSH0 DUP4 PUSH20 0xFFFFFFFFFFFFFFFFFFFFFFFFFFFFFFFFFFFFFFFF AND PUSH20 0xFFFFFFFFFFFFFFFFFFFFFFFFFFFFFFFFFFFFFFFF AND DUP2 MSTORE PUSH1 0x20 ADD SWAP1 DUP2 MSTORE PUSH1 0x20 ADD PUSH0 KECCAK256 PUSH0 ADD DUP1 SLOAD SWAP1 POP PUSH1 0x7 PUSH0 DUP5 PUSH20 0xFFFFFFFFFFFFFFFFFFFFFFFFFFFFFFFFFFFFFFFF AND PUSH20 0xFFFFFFFFFFFFFFFFFFFFFFFFFFFFFFFFFFFFFFFF AND DUP2 MSTORE PUSH1 0x20 ADD SWAP1 DUP2 MSTORE PUSH1 0x20 ADD PUSH0 KECCAK256 PUSH1 0x1 ADD PUSH0 DUP4 DUP2 MSTORE PUSH1 0x20 ADD SWAP1 DUP2 MSTORE PUSH1 0x20 ADD PUSH0 KECCAK256 DUP2 SWAP1 SSTORE POP PUSH1 0x7 PUSH0 DUP4 PUSH20 0xFFFFFFFFFFFFFFFFFFFFFFFFFFFFFFFFFFFFFFFF AND PUSH20 0xFFFFFFFFFFFFFFFFFFFFFFFFFFFFFFFFFFFFFFFF AND DUP2 MSTORE PUSH1 0x20 ADD SWAP1 DUP2 MSTORE PUSH1 0x20 ADD PUSH0 KECCAK256 PUSH0 ADD DUP2 SWAP1 DUP1 PUSH1 0x1 DUP2 SLOAD ADD DUP1 DUP3 SSTORE DUP1 SWAP2 POP POP PUSH1 0x1 SWAP1 SUB SWAP1 PUSH0 MSTORE PUSH1 0x20 PUSH0 KECCAK256 ADD PUSH0 SWAP1 SWAP2 SWAP1 SWAP2 SWAP1 SWAP2 POP SSTORE POP POP JUMP JUMPDEST PUSH0 DUP1 PUSH1 0x5 PUSH1 0x6 PUSH0 DUP6 DUP2 MSTORE PUSH1 0x20 ADD SWAP1 DUP2 MSTORE PUSH1 0x20 ADD PUSH0 KECCAK256 SLOAD DUP2 SLOAD DUP2 LT PUSH2 0x354C JUMPI PUSH2 0x354B PUSH2 0x4498 JUMP JUMPDEST JUMPDEST SWAP1 PUSH0 MSTORE PUSH1 0x20 PUSH0 KECCAK256 SWAP1 PUSH1 0x6 MUL ADD PUSH1 0x5 ADD DUP1 SLOAD SWAP1 POP SWAP1 POP PUSH0 JUMPDEST DUP2 DUP2 LT ISZERO PUSH2 0x3623 JUMPI DUP5 PUSH20 0xFFFFFFFFFFFFFFFFFFFFFFFFFFFFFFFFFFFFFFFF AND PUSH1 0x5 PUSH1 0x6 PUSH0 DUP8 DUP2 MSTORE PUSH1 0x20 ADD SWAP1 DUP2 MSTORE PUSH1 0x20 ADD PUSH0 KECCAK256 SLOAD DUP2 SLOAD DUP2 LT PUSH2 0x35A7 JUMPI PUSH2 0x35A6 PUSH2 0x4498 JUMP JUMPDEST JUMPDEST SWAP1 PUSH0 MSTORE PUSH1 0x20 PUSH0 KECCAK256 SWAP1 PUSH1 0x6 MUL ADD PUSH1 0x5 ADD DUP3 DUP2 SLOAD DUP2 LT PUSH2 0x35C8 JUMPI PUSH2 0x35C7 PUSH2 0x4498 JUMP JUMPDEST JUMPDEST SWAP1 PUSH0 MSTORE PUSH1 0x20 PUSH0 KECCAK256 ADD PUSH0 SWAP1 SLOAD SWAP1 PUSH2 0x100 EXP SWAP1 DIV PUSH20 0xFFFFFFFFFFFFFFFFFFFFFFFFFFFFFFFFFFFFFFFF AND PUSH20 0xFFFFFFFFFFFFFFFFFFFFFFFFFFFFFFFFFFFFFFFF AND SUB PUSH2 0x3616 JUMPI PUSH1 0x1 SWAP3 POP POP POP PUSH2 0x3629 JUMP JUMPDEST DUP1 DUP1 PUSH1 0x1 ADD SWAP2 POP POP PUSH2 0x3563 JUMP JUMPDEST POP PUSH0 SWAP2 POP POP JUMPDEST SWAP3 SWAP2 POP POP JUMP JUMPDEST PUSH0 PUSH2 0x3639 DUP5 PUSH2 0x3AEA JUMP JUMPDEST ISZERO PUSH2 0x378E JUMPI DUP4 PUSH20 0xFFFFFFFFFFFFFFFFFFFFFFFFFFFFFFFFFFFFFFFF AND PUSH4 0x150B7A02 PUSH2 0x3662 PUSH2 0x1D0B JUMP JUMPDEST DUP8 DUP7 DUP7 PUSH1 0x40 MLOAD DUP6 PUSH4 0xFFFFFFFF AND PUSH1 0xE0 SHL DUP2 MSTORE PUSH1 0x4 ADD PUSH2 0x3684 SWAP5 SWAP4 SWAP3 SWAP2 SWAP1 PUSH2 0x57B2 JUMP JUMPDEST PUSH1 0x20 PUSH1 0x40 MLOAD DUP1 DUP4 SUB DUP2 PUSH0 DUP8 GAS CALL SWAP3 POP POP POP DUP1 ISZERO PUSH2 0x36BF JUMPI POP PUSH1 0x40 MLOAD RETURNDATASIZE PUSH1 0x1F NOT PUSH1 0x1F DUP3 ADD AND DUP3 ADD DUP1 PUSH1 0x40 MSTORE POP DUP2 ADD SWAP1 PUSH2 0x36BC SWAP2 SWAP1 PUSH2 0x575A JUMP JUMPDEST PUSH1 0x1 JUMPDEST PUSH2 0x373E JUMPI RETURNDATASIZE DUP1 PUSH0 DUP2 EQ PUSH2 0x36ED JUMPI PUSH1 0x40 MLOAD SWAP2 POP PUSH1 0x1F NOT PUSH1 0x3F RETURNDATASIZE ADD AND DUP3 ADD PUSH1 0x40 MSTORE RETURNDATASIZE DUP3 MSTORE RETURNDATASIZE PUSH0 PUSH1 0x20 DUP5 ADD RETURNDATACOPY PUSH2 0x36F2 JUMP JUMPDEST PUSH1 0x60 SWAP2 POP JUMPDEST POP PUSH0 DUP2 MLOAD SUB PUSH2 0x3736 JUMPI PUSH1 0x40 MLOAD PUSH32 0x8C379A000000000000000000000000000000000000000000000000000000000 DUP2 MSTORE PUSH1 0x4 ADD PUSH2 0x372D SWAP1 PUSH2 0x586C JUMP JUMPDEST PUSH1 0x40 MLOAD DUP1 SWAP2 SUB SWAP1 REVERT JUMPDEST DUP1 MLOAD DUP2 PUSH1 0x20 ADD REVERT JUMPDEST PUSH4 0x150B7A02 PUSH1 0xE0 SHL PUSH28 0xFFFFFFFFFFFFFFFFFFFFFFFFFFFFFFFFFFFFFFFFFFFFFFFFFFFFFFFF NOT AND DUP2 PUSH28 0xFFFFFFFFFFFFFFFFFFFFFFFFFFFFFFFFFFFFFFFFFFFFFFFFFFFFFFFF NOT AND EQ SWAP2 POP POP PUSH2 0x3793 JUMP JUMPDEST PUSH1 0x1 SWAP1 POP JUMPDEST SWAP5 SWAP4 POP POP POP POP JUMP JUMPDEST PUSH1 0x60 PUSH0 DUP4 SWAP1 POP PUSH0 PUSH1 0x2 DUP5 PUSH1 0x2 PUSH2 0x37B1 SWAP2 SWAP1 PUSH2 0x588A JUMP JUMPDEST PUSH2 0x37BB SWAP2 SWAP1 PUSH2 0x528D JUMP JUMPDEST PUSH8 0xFFFFFFFFFFFFFFFF DUP2 GT ISZERO PUSH2 0x37D4 JUMPI PUSH2 0x37D3 PUSH2 0x3FF1 JUMP JUMPDEST JUMPDEST PUSH1 0x40 MLOAD SWAP1 DUP1 DUP3 MSTORE DUP1 PUSH1 0x1F ADD PUSH1 0x1F NOT AND PUSH1 0x20 ADD DUP3 ADD PUSH1 0x40 MSTORE DUP1 ISZERO PUSH2 0x3806 JUMPI DUP2 PUSH1 0x20 ADD PUSH1 0x1 DUP3 MUL DUP1 CALLDATASIZE DUP4 CALLDATACOPY DUP1 DUP3 ADD SWAP2 POP POP SWAP1 POP JUMPDEST POP SWAP1 POP PUSH32 0x3000000000000000000000000000000000000000000000000000000000000000 DUP2 PUSH0 DUP2 MLOAD DUP2 LT PUSH2 0x383D JUMPI PUSH2 0x383C PUSH2 0x4498 JUMP JUMPDEST JUMPDEST PUSH1 0x20 ADD ADD SWAP1 PUSH31 0xFFFFFFFFFFFFFFFFFFFFFFFFFFFFFFFFFFFFFFFFFFFFFFFFFFFFFFFFFFFFFF NOT AND SWAP1 DUP2 PUSH0 BYTE SWAP1 MSTORE8 POP PUSH32 0x7800000000000000000000000000000000000000000000000000000000000000 DUP2 PUSH1 0x1 DUP2 MLOAD DUP2 LT PUSH2 0x38A0 JUMPI PUSH2 0x389F PUSH2 0x4498 JUMP JUMPDEST JUMPDEST PUSH1 0x20 ADD ADD SWAP1 PUSH31 0xFFFFFFFFFFFFFFFFFFFFFFFFFFFFFFFFFFFFFFFFFFFFFFFFFFFFFFFFFFFFFF NOT AND SWAP1 DUP2 PUSH0 BYTE SWAP1 MSTORE8 POP PUSH0 PUSH1 0x1 DUP6 PUSH1 0x2 PUSH2 0x38DE SWAP2 SWAP1 PUSH2 0x588A JUMP JUMPDEST PUSH2 0x38E8 SWAP2 SWAP1 PUSH2 0x528D JUMP JUMPDEST SWAP1 POP JUMPDEST PUSH1 0x1 DUP2 GT ISZERO PUSH2 0x3987 JUMPI PUSH32 0x3031323334353637383961626364656600000000000000000000000000000000 PUSH1 0xF DUP5 AND PUSH1 0x10 DUP2 LT PUSH2 0x392A JUMPI PUSH2 0x3929 PUSH2 0x4498 JUMP JUMPDEST JUMPDEST BYTE PUSH1 0xF8 SHL DUP3 DUP3 DUP2 MLOAD DUP2 LT PUSH2 0x3941 JUMPI PUSH2 0x3940 PUSH2 0x4498 JUMP JUMPDEST JUMPDEST PUSH1 0x20 ADD ADD SWAP1 PUSH31 0xFFFFFFFFFFFFFFFFFFFFFFFFFFFFFFFFFFFFFFFFFFFFFFFFFFFFFFFFFFFFFF NOT AND SWAP1 DUP2 PUSH0 BYTE SWAP1 MSTORE8 POP PUSH1 0x4 DUP4 SWAP1 SHR SWAP3 POP DUP1 PUSH2 0x3980 SWAP1 PUSH2 0x58CB JUMP JUMPDEST SWAP1 POP PUSH2 0x38EB JUMP JUMPDEST POP PUSH0 DUP3 EQ PUSH2 0x39CE JUMPI DUP5 DUP5 PUSH1 0x40 MLOAD PUSH32 0xE22E27EB00000000000000000000000000000000000000000000000000000000 DUP2 MSTORE PUSH1 0x4 ADD PUSH2 0x39C5 SWAP3 SWAP2 SWAP1 PUSH2 0x58F2 JUMP JUMPDEST PUSH1 0x40 MLOAD DUP1 SWAP2 SUB SWAP1 REVERT JUMPDEST DUP1 SWAP3 POP POP POP SWAP3 SWAP2 POP POP JUMP JUMPDEST PUSH1 0x5 DUP1 SLOAD SWAP1 POP PUSH1 0x6 PUSH0 DUP4 PUSH0 ADD MLOAD DUP2 MSTORE PUSH1 0x20 ADD SWAP1 DUP2 MSTORE PUSH1 0x20 ADD PUSH0 KECCAK256 DUP2 SWAP1 SSTORE POP PUSH1 0x5 DUP2 SWAP1 DUP1 PUSH1 0x1 DUP2 SLOAD ADD DUP1 DUP3 SSTORE DUP1 SWAP2 POP POP PUSH1 0x1 SWAP1 SUB SWAP1 PUSH0 MSTORE PUSH1 0x20 PUSH0 KECCAK256 SWAP1 PUSH1 0x6 MUL ADD PUSH0 SWAP1 SWAP2 SWAP1 SWAP2 SWAP1 SWAP2 POP PUSH0 DUP3 ADD MLOAD DUP2 PUSH0 ADD SSTORE PUSH1 0x20 DUP3 ADD MLOAD DUP2 PUSH1 0x1 ADD SSTORE PUSH1 0x40 DUP3 ADD MLOAD DUP2 PUSH1 0x2 ADD SSTORE PUSH1 0x60 DUP3 ADD MLOAD DUP2 PUSH1 0x3 ADD PUSH0 PUSH2 0x100 EXP DUP2 SLOAD DUP2 PUSH20 0xFFFFFFFFFFFFFFFFFFFFFFFFFFFFFFFFFFFFFFFF MUL NOT AND SWAP1 DUP4 PUSH20 0xFFFFFFFFFFFFFFFFFFFFFFFFFFFFFFFFFFFFFFFF AND MUL OR SWAP1 SSTORE POP PUSH1 0x80 DUP3 ADD MLOAD DUP2 PUSH1 0x4 ADD PUSH0 PUSH2 0x100 EXP DUP2 SLOAD DUP2 PUSH20 0xFFFFFFFFFFFFFFFFFFFFFFFFFFFFFFFFFFFFFFFF MUL NOT AND SWAP1 DUP4 PUSH20 0xFFFFFFFFFFFFFFFFFFFFFFFFFFFFFFFFFFFFFFFF AND MUL OR SWAP1 SSTORE POP PUSH1 0xA0 DUP3 ADD MLOAD DUP2 PUSH1 0x5 ADD SWAP1 DUP1 MLOAD SWAP1 PUSH1 0x20 ADD SWAP1 PUSH2 0x3AE4 SWAP3 SWAP2 SWAP1 PUSH2 0x3B1F JUMP JUMPDEST POP POP POP POP JUMP JUMPDEST PUSH0 DUP1 DUP3 EXTCODESIZE SWAP1 POP PUSH0 DUP2 PUSH4 0xFFFFFFFF AND GT SWAP2 POP POP SWAP2 SWAP1 POP JUMP JUMPDEST POP DUP1 SLOAD PUSH0 DUP3 SSTORE SWAP1 PUSH0 MSTORE PUSH1 0x20 PUSH0 KECCAK256 SWAP1 DUP2 ADD SWAP1 PUSH2 0x3B1C SWAP2 SWAP1 PUSH2 0x3BA6 JUMP JUMPDEST POP JUMP JUMPDEST DUP3 DUP1 SLOAD DUP3 DUP3 SSTORE SWAP1 PUSH0 MSTORE PUSH1 0x20 PUSH0 KECCAK256 SWAP1 DUP2 ADD SWAP3 DUP3 ISZERO PUSH2 0x3B95 JUMPI SWAP2 PUSH1 0x20 MUL DUP3 ADD JUMPDEST DUP3 DUP2 GT ISZERO PUSH2 0x3B94 JUMPI DUP3 MLOAD DUP3 PUSH0 PUSH2 0x100 EXP DUP2 SLOAD DUP2 PUSH20 0xFFFFFFFFFFFFFFFFFFFFFFFFFFFFFFFFFFFFFFFF MUL NOT AND SWAP1 DUP4 PUSH20 0xFFFFFFFFFFFFFFFFFFFFFFFFFFFFFFFFFFFFFFFF AND MUL OR SWAP1 SSTORE POP SWAP2 PUSH1 0x20 ADD SWAP2 SWAP1 PUSH1 0x1 ADD SWAP1 PUSH2 0x3B3D JUMP JUMPDEST JUMPDEST POP SWAP1 POP PUSH2 0x3BA2 SWAP2 SWAP1 PUSH2 0x3BA6 JUMP JUMPDEST POP SWAP1 JUMP JUMPDEST JUMPDEST DUP1 DUP3 GT ISZERO PUSH2 0x3BBD JUMPI PUSH0 DUP2 PUSH0 SWAP1 SSTORE POP PUSH1 0x1 ADD PUSH2 0x3BA7 JUMP JUMPDEST POP SWAP1 JUMP JUMPDEST PUSH0 PUSH1 0x40 MLOAD SWAP1 POP SWAP1 JUMP JUMPDEST PUSH0 DUP1 REVERT JUMPDEST PUSH0 DUP1 REVERT JUMPDEST PUSH0 PUSH32 0xFFFFFFFF00000000000000000000000000000000000000000000000000000000 DUP3 AND SWAP1 POP SWAP2 SWAP1 POP JUMP JUMPDEST PUSH2 0x3C06 DUP2 PUSH2 0x3BD2 JUMP JUMPDEST DUP2 EQ PUSH2 0x3C10 JUMPI PUSH0 DUP1 REVERT JUMPDEST POP JUMP JUMPDEST PUSH0 DUP2 CALLDATALOAD SWAP1 POP PUSH2 0x3C21 DUP2 PUSH2 0x3BFD JUMP JUMPDEST SWAP3 SWAP2 POP POP JUMP JUMPDEST PUSH0 PUSH1 0x20 DUP3 DUP5 SUB SLT ISZERO PUSH2 0x3C3C JUMPI PUSH2 0x3C3B PUSH2 0x3BCA JUMP JUMPDEST JUMPDEST PUSH0 PUSH2 0x3C49 DUP5 DUP3 DUP6 ADD PUSH2 0x3C13 JUMP JUMPDEST SWAP2 POP POP SWAP3 SWAP2 POP POP JUMP JUMPDEST PUSH0 DUP2 ISZERO ISZERO SWAP1 POP SWAP2 SWAP1 POP JUMP JUMPDEST PUSH2 0x3C66 DUP2 PUSH2 0x3C52 JUMP JUMPDEST DUP3 MSTORE POP POP JUMP JUMPDEST PUSH0 PUSH1 0x20 DUP3 ADD SWAP1 POP PUSH2 0x3C7F PUSH0 DUP4 ADD DUP5 PUSH2 0x3C5D JUMP JUMPDEST SWAP3 SWAP2 POP POP JUMP JUMPDEST PUSH0 DUP2 MLOAD SWAP1 POP SWAP2 SWAP1 POP JUMP JUMPDEST PUSH0 DUP3 DUP3 MSTORE PUSH1 0x20 DUP3 ADD SWAP1 POP SWAP3 SWAP2 POP POP JUMP JUMPDEST PUSH0 JUMPDEST DUP4 DUP2 LT ISZERO PUSH2 0x3CBC JUMPI DUP1 DUP3 ADD MLOAD DUP2 DUP5 ADD MSTORE PUSH1 0x20 DUP2 ADD SWAP1 POP PUSH2 0x3CA1 JUMP JUMPDEST PUSH0 DUP5 DUP5 ADD MSTORE POP POP POP POP JUMP JUMPDEST PUSH0 PUSH1 0x1F NOT PUSH1 0x1F DUP4 ADD AND SWAP1 POP SWAP2 SWAP1 POP JUMP JUMPDEST PUSH0 PUSH2 0x3CE1 DUP3 PUSH2 0x3C85 JUMP JUMPDEST PUSH2 0x3CEB DUP2 DUP6 PUSH2 0x3C8F JUMP JUMPDEST SWAP4 POP PUSH2 0x3CFB DUP2 DUP6 PUSH1 0x20 DUP7 ADD PUSH2 0x3C9F JUMP JUMPDEST PUSH2 0x3D04 DUP2 PUSH2 0x3CC7 JUMP JUMPDEST DUP5 ADD SWAP2 POP POP SWAP3 SWAP2 POP POP JUMP JUMPDEST PUSH0 PUSH1 0x20 DUP3 ADD SWAP1 POP DUP2 DUP2 SUB PUSH0 DUP4 ADD MSTORE PUSH2 0x3D27 DUP2 DUP5 PUSH2 0x3CD7 JUMP JUMPDEST SWAP1 POP SWAP3 SWAP2 POP POP JUMP JUMPDEST PUSH0 DUP2 SWAP1 POP SWAP2 SWAP1 POP JUMP JUMPDEST PUSH2 0x3D41 DUP2 PUSH2 0x3D2F JUMP JUMPDEST DUP2 EQ PUSH2 0x3D4B JUMPI PUSH0 DUP1 REVERT JUMPDEST POP JUMP JUMPDEST PUSH0 DUP2 CALLDATALOAD SWAP1 POP PUSH2 0x3D5C DUP2 PUSH2 0x3D38 JUMP JUMPDEST SWAP3 SWAP2 POP POP JUMP JUMPDEST PUSH0 PUSH1 0x20 DUP3 DUP5 SUB SLT ISZERO PUSH2 0x3D77 JUMPI PUSH2 0x3D76 PUSH2 0x3BCA JUMP JUMPDEST JUMPDEST PUSH0 PUSH2 0x3D84 DUP5 DUP3 DUP6 ADD PUSH2 0x3D4E JUMP JUMPDEST SWAP2 POP POP SWAP3 SWAP2 POP POP JUMP JUMPDEST PUSH0 PUSH20 0xFFFFFFFFFFFFFFFFFFFFFFFFFFFFFFFFFFFFFFFF DUP3 AND SWAP1 POP SWAP2 SWAP1 POP JUMP JUMPDEST PUSH0 PUSH2 0x3DB6 DUP3 PUSH2 0x3D8D JUMP JUMPDEST SWAP1 POP SWAP2 SWAP1 POP JUMP JUMPDEST PUSH2 0x3DC6 DUP2 PUSH2 0x3DAC JUMP JUMPDEST DUP3 MSTORE POP POP JUMP JUMPDEST PUSH0 PUSH1 0x20 DUP3 ADD SWAP1 POP PUSH2 0x3DDF PUSH0 DUP4 ADD DUP5 PUSH2 0x3DBD JUMP JUMPDEST SWAP3 SWAP2 POP POP JUMP JUMPDEST PUSH2 0x3DEE DUP2 PUSH2 0x3DAC JUMP JUMPDEST DUP2 EQ PUSH2 0x3DF8 JUMPI PUSH0 DUP1 REVERT JUMPDEST POP JUMP JUMPDEST PUSH0 DUP2 CALLDATALOAD SWAP1 POP PUSH2 0x3E09 DUP2 PUSH2 0x3DE5 JUMP JUMPDEST SWAP3 SWAP2 POP POP JUMP JUMPDEST PUSH0 DUP1 PUSH1 0x40 DUP4 DUP6 SUB SLT ISZERO PUSH2 0x3E25 JUMPI PUSH2 0x3E24 PUSH2 0x3BCA JUMP JUMPDEST JUMPDEST PUSH0 PUSH2 0x3E32 DUP6 DUP3 DUP7 ADD PUSH2 0x3DFB JUMP JUMPDEST SWAP3 POP POP PUSH1 0x20 PUSH2 0x3E43 DUP6 DUP3 DUP7 ADD PUSH2 0x3D4E JUMP JUMPDEST SWAP2 POP POP SWAP3 POP SWAP3 SWAP1 POP JUMP JUMPDEST PUSH0 DUP1 PUSH0 PUSH1 0x60 DUP5 DUP7 SUB SLT ISZERO PUSH2 0x3E64 JUMPI PUSH2 0x3E63 PUSH2 0x3BCA JUMP JUMPDEST JUMPDEST PUSH0 PUSH2 0x3E71 DUP7 DUP3 DUP8 ADD PUSH2 0x3D4E JUMP JUMPDEST SWAP4 POP POP PUSH1 0x20 PUSH2 0x3E82 DUP7 DUP3 DUP8 ADD PUSH2 0x3DFB JUMP JUMPDEST SWAP3 POP POP PUSH1 0x40 PUSH2 0x3E93 DUP7 DUP3 DUP8 ADD PUSH2 0x3D4E JUMP JUMPDEST SWAP2 POP POP SWAP3 POP SWAP3 POP SWAP3 JUMP JUMPDEST PUSH2 0x3EA6 DUP2 PUSH2 0x3D2F JUMP JUMPDEST DUP3 MSTORE POP POP JUMP JUMPDEST PUSH0 PUSH1 0x20 DUP3 ADD SWAP1 POP PUSH2 0x3EBF PUSH0 DUP4 ADD DUP5 PUSH2 0x3E9D JUMP JUMPDEST SWAP3 SWAP2 POP POP JUMP JUMPDEST PUSH0 DUP1 PUSH0 PUSH1 0x60 DUP5 DUP7 SUB SLT ISZERO PUSH2 0x3EDC JUMPI PUSH2 0x3EDB PUSH2 0x3BCA JUMP JUMPDEST JUMPDEST PUSH0 PUSH2 0x3EE9 DUP7 DUP3 DUP8 ADD PUSH2 0x3DFB JUMP JUMPDEST SWAP4 POP POP PUSH1 0x20 PUSH2 0x3EFA DUP7 DUP3 DUP8 ADD PUSH2 0x3D4E JUMP JUMPDEST SWAP3 POP POP PUSH1 0x40 PUSH2 0x3F0B DUP7 DUP3 DUP8 ADD PUSH2 0x3D4E JUMP JUMPDEST SWAP2 POP POP SWAP3 POP SWAP3 POP SWAP3 JUMP JUMPDEST PUSH0 DUP1 PUSH0 PUSH1 0x60 DUP5 DUP7 SUB SLT ISZERO PUSH2 0x3F2C JUMPI PUSH2 0x3F2B PUSH2 0x3BCA JUMP JUMPDEST JUMPDEST PUSH0 PUSH2 0x3F39 DUP7 DUP3 DUP8 ADD PUSH2 0x3DFB JUMP JUMPDEST SWAP4 POP POP PUSH1 0x20 PUSH2 0x3F4A DUP7 DUP3 DUP8 ADD PUSH2 0x3DFB JUMP JUMPDEST SWAP3 POP POP PUSH1 0x40 PUSH2 0x3F5B DUP7 DUP3 DUP8 ADD PUSH2 0x3D4E JUMP JUMPDEST SWAP2 POP POP SWAP3 POP SWAP3 POP SWAP3 JUMP JUMPDEST PUSH0 DUP1 PUSH0 PUSH1 0x60 DUP5 DUP7 SUB SLT ISZERO PUSH2 0x3F7C JUMPI PUSH2 0x3F7B PUSH2 0x3BCA JUMP JUMPDEST JUMPDEST PUSH0 PUSH2 0x3F89 DUP7 DUP3 DUP8 ADD PUSH2 0x3D4E JUMP JUMPDEST SWAP4 POP POP PUSH1 0x20 PUSH2 0x3F9A DUP7 DUP3 DUP8 ADD PUSH2 0x3D4E JUMP JUMPDEST SWAP3 POP POP PUSH1 0x40 PUSH2 0x3FAB DUP7 DUP3 DUP8 ADD PUSH2 0x3D4E JUMP JUMPDEST SWAP2 POP POP SWAP3 POP SWAP3 POP SWAP3 JUMP JUMPDEST PUSH0 PUSH1 0xFF DUP3 AND SWAP1 POP SWAP2 SWAP1 POP JUMP JUMPDEST PUSH2 0x3FCA DUP2 PUSH2 0x3FB5 JUMP JUMPDEST DUP3 MSTORE POP POP JUMP JUMPDEST PUSH0 PUSH1 0x20 DUP3 ADD SWAP1 POP PUSH2 0x3FE3 PUSH0 DUP4 ADD DUP5 PUSH2 0x3FC1 JUMP JUMPDEST SWAP3 SWAP2 POP POP JUMP JUMPDEST PUSH0 DUP1 REVERT JUMPDEST PUSH0 DUP1 REVERT JUMPDEST PUSH32 0x4E487B7100000000000000000000000000000000000000000000000000000000 PUSH0 MSTORE PUSH1 0x41 PUSH1 0x4 MSTORE PUSH1 0x24 PUSH0 REVERT JUMPDEST PUSH2 0x4027 DUP3 PUSH2 0x3CC7 JUMP JUMPDEST DUP2 ADD DUP2 DUP2 LT PUSH8 0xFFFFFFFFFFFFFFFF DUP3 GT OR ISZERO PUSH2 0x4046 JUMPI PUSH2 0x4045 PUSH2 0x3FF1 JUMP JUMPDEST JUMPDEST DUP1 PUSH1 0x40 MSTORE POP POP POP JUMP JUMPDEST PUSH0 PUSH2 0x4058 PUSH2 0x3BC1 JUMP JUMPDEST SWAP1 POP PUSH2 0x4064 DUP3 DUP3 PUSH2 0x401E JUMP JUMPDEST SWAP2 SWAP1 POP JUMP JUMPDEST PUSH0 PUSH8 0xFFFFFFFFFFFFFFFF DUP3 GT ISZERO PUSH2 0x4083 JUMPI PUSH2 0x4082 PUSH2 0x3FF1 JUMP JUMPDEST JUMPDEST PUSH2 0x408C DUP3 PUSH2 0x3CC7 JUMP JUMPDEST SWAP1 POP PUSH1 0x20 DUP2 ADD SWAP1 POP SWAP2 SWAP1 POP JUMP JUMPDEST DUP3 DUP2 DUP4 CALLDATACOPY PUSH0 DUP4 DUP4 ADD MSTORE POP POP POP JUMP JUMPDEST PUSH0 PUSH2 0x40B9 PUSH2 0x40B4 DUP5 PUSH2 0x4069 JUMP JUMPDEST PUSH2 0x404F JUMP JUMPDEST SWAP1 POP DUP3 DUP2 MSTORE PUSH1 0x20 DUP2 ADD DUP5 DUP5 DUP5 ADD GT ISZERO PUSH2 0x40D5 JUMPI PUSH2 0x40D4 PUSH2 0x3FED JUMP JUMPDEST JUMPDEST PUSH2 0x40E0 DUP5 DUP3 DUP6 PUSH2 0x4099 JUMP JUMPDEST POP SWAP4 SWAP3 POP POP POP JUMP JUMPDEST PUSH0 DUP3 PUSH1 0x1F DUP4 ADD SLT PUSH2 0x40FC JUMPI PUSH2 0x40FB PUSH2 0x3FE9 JUMP JUMPDEST JUMPDEST DUP2 CALLDATALOAD PUSH2 0x410C DUP5 DUP3 PUSH1 0x20 DUP7 ADD PUSH2 0x40A7 JUMP JUMPDEST SWAP2 POP POP SWAP3 SWAP2 POP POP JUMP JUMPDEST PUSH0 PUSH1 0x20 DUP3 DUP5 SUB SLT ISZERO PUSH2 0x412A JUMPI PUSH2 0x4129 PUSH2 0x3BCA JUMP JUMPDEST JUMPDEST PUSH0 DUP3 ADD CALLDATALOAD PUSH8 0xFFFFFFFFFFFFFFFF DUP2 GT ISZERO PUSH2 0x4147 JUMPI PUSH2 0x4146 PUSH2 0x3BCE JUMP JUMPDEST JUMPDEST PUSH2 0x4153 DUP5 DUP3 DUP6 ADD PUSH2 0x40E8 JUMP JUMPDEST SWAP2 POP POP SWAP3 SWAP2 POP POP JUMP JUMPDEST PUSH0 PUSH1 0x20 DUP3 DUP5 SUB SLT ISZERO PUSH2 0x4171 JUMPI PUSH2 0x4170 PUSH2 0x3BCA JUMP JUMPDEST JUMPDEST PUSH0 PUSH2 0x417E DUP5 DUP3 DUP6 ADD PUSH2 0x3DFB JUMP JUMPDEST SWAP2 POP POP SWAP3 SWAP2 POP POP JUMP JUMPDEST PUSH0 DUP2 SWAP1 POP SWAP2 SWAP1 POP JUMP JUMPDEST PUSH0 PUSH2 0x41AA PUSH2 0x41A5 PUSH2 0x41A0 DUP5 PUSH2 0x3D8D JUMP JUMPDEST PUSH2 0x4187 JUMP JUMPDEST PUSH2 0x3D8D JUMP JUMPDEST SWAP1 POP SWAP2 SWAP1 POP JUMP JUMPDEST PUSH0 PUSH2 0x41BB DUP3 PUSH2 0x4190 JUMP JUMPDEST SWAP1 POP SWAP2 SWAP1 POP JUMP JUMPDEST PUSH0 PUSH2 0x41CC DUP3 PUSH2 0x41B1 JUMP JUMPDEST SWAP1 POP SWAP2 SWAP1 POP JUMP JUMPDEST PUSH2 0x41DC DUP2 PUSH2 0x41C2 JUMP JUMPDEST DUP3 MSTORE POP POP JUMP JUMPDEST PUSH0 PUSH1 0x20 DUP3 ADD SWAP1 POP PUSH2 0x41F5 PUSH0 DUP4 ADD DUP5 PUSH2 0x41D3 JUMP JUMPDEST SWAP3 SWAP2 POP POP JUMP JUMPDEST PUSH2 0x4204 DUP2 PUSH2 0x3C52 JUMP JUMPDEST DUP2 EQ PUSH2 0x420E JUMPI PUSH0 DUP1 REVERT JUMPDEST POP JUMP JUMPDEST PUSH0 DUP2 CALLDATALOAD SWAP1 POP PUSH2 0x421F DUP2 PUSH2 0x41FB JUMP JUMPDEST SWAP3 SWAP2 POP POP JUMP JUMPDEST PUSH0 DUP1 PUSH1 0x40 DUP4 DUP6 SUB SLT ISZERO PUSH2 0x423B JUMPI PUSH2 0x423A PUSH2 0x3BCA JUMP JUMPDEST JUMPDEST PUSH0 PUSH2 0x4248 DUP6 DUP3 DUP7 ADD PUSH2 0x3DFB JUMP JUMPDEST SWAP3 POP POP PUSH1 0x20 PUSH2 0x4259 DUP6 DUP3 DUP7 ADD PUSH2 0x4211 JUMP JUMPDEST SWAP2 POP POP SWAP3 POP SWAP3 SWAP1 POP JUMP JUMPDEST PUSH0 PUSH8 0xFFFFFFFFFFFFFFFF DUP3 GT ISZERO PUSH2 0x427D JUMPI PUSH2 0x427C PUSH2 0x3FF1 JUMP JUMPDEST JUMPDEST PUSH2 0x4286 DUP3 PUSH2 0x3CC7 JUMP JUMPDEST SWAP1 POP PUSH1 0x20 DUP2 ADD SWAP1 POP SWAP2 SWAP1 POP JUMP JUMPDEST PUSH0 PUSH2 0x42A5 PUSH2 0x42A0 DUP5 PUSH2 0x4263 JUMP JUMPDEST PUSH2 0x404F JUMP JUMPDEST SWAP1 POP DUP3 DUP2 MSTORE PUSH1 0x20 DUP2 ADD DUP5 DUP5 DUP5 ADD GT ISZERO PUSH2 0x42C1 JUMPI PUSH2 0x42C0 PUSH2 0x3FED JUMP JUMPDEST JUMPDEST PUSH2 0x42CC DUP5 DUP3 DUP6 PUSH2 0x4099 JUMP JUMPDEST POP SWAP4 SWAP3 POP POP POP JUMP JUMPDEST PUSH0 DUP3 PUSH1 0x1F DUP4 ADD SLT PUSH2 0x42E8 JUMPI PUSH2 0x42E7 PUSH2 0x3FE9 JUMP JUMPDEST JUMPDEST DUP2 CALLDATALOAD PUSH2 0x42F8 DUP5 DUP3 PUSH1 0x20 DUP7 ADD PUSH2 0x4293 JUMP JUMPDEST SWAP2 POP POP SWAP3 SWAP2 POP POP JUMP JUMPDEST PUSH0 DUP1 PUSH0 DUP1 PUSH1 0x80 DUP6 DUP8 SUB SLT ISZERO PUSH2 0x4319 JUMPI PUSH2 0x4318 PUSH2 0x3BCA JUMP JUMPDEST JUMPDEST PUSH0 PUSH2 0x4326 DUP8 DUP3 DUP9 ADD PUSH2 0x3DFB JUMP JUMPDEST SWAP5 POP POP PUSH1 0x20 PUSH2 0x4337 DUP8 DUP3 DUP9 ADD PUSH2 0x3DFB JUMP JUMPDEST SWAP4 POP POP PUSH1 0x40 PUSH2 0x4348 DUP8 DUP3 DUP9 ADD PUSH2 0x3D4E JUMP JUMPDEST SWAP3 POP POP PUSH1 0x60 DUP6 ADD CALLDATALOAD PUSH8 0xFFFFFFFFFFFFFFFF DUP2 GT ISZERO PUSH2 0x4369 JUMPI PUSH2 0x4368 PUSH2 0x3BCE JUMP JUMPDEST JUMPDEST PUSH2 0x4375 DUP8 DUP3 DUP9 ADD PUSH2 0x42D4 JUMP JUMPDEST SWAP2 POP POP SWAP3 SWAP6 SWAP2 SWAP5 POP SWAP3 POP JUMP JUMPDEST PUSH0 DUP1 PUSH1 0x40 DUP4 DUP6 SUB SLT ISZERO PUSH2 0x4397 JUMPI PUSH2 0x4396 PUSH2 0x3BCA JUMP JUMPDEST JUMPDEST PUSH0 PUSH2 0x43A4 DUP6 DUP3 DUP7 ADD PUSH2 0x3D4E JUMP JUMPDEST SWAP3 POP POP PUSH1 0x20 PUSH2 0x43B5 DUP6 DUP3 DUP7 ADD PUSH2 0x3DFB JUMP JUMPDEST SWAP2 POP POP SWAP3 POP SWAP3 SWAP1 POP JUMP JUMPDEST PUSH0 DUP1 PUSH1 0x40 DUP4 DUP6 SUB SLT ISZERO PUSH2 0x43D5 JUMPI PUSH2 0x43D4 PUSH2 0x3BCA JUMP JUMPDEST JUMPDEST PUSH0 PUSH2 0x43E2 DUP6 DUP3 DUP7 ADD PUSH2 0x3DFB JUMP JUMPDEST SWAP3 POP POP PUSH1 0x20 PUSH2 0x43F3 DUP6 DUP3 DUP7 ADD PUSH2 0x3DFB JUMP JUMPDEST SWAP2 POP POP SWAP3 POP SWAP3 SWAP1 POP JUMP JUMPDEST PUSH0 DUP1 PUSH1 0x40 DUP4 DUP6 SUB SLT ISZERO PUSH2 0x4413 JUMPI PUSH2 0x4412 PUSH2 0x3BCA JUMP JUMPDEST JUMPDEST PUSH0 PUSH2 0x4420 DUP6 DUP3 DUP7 ADD PUSH2 0x3D4E JUMP JUMPDEST SWAP3 POP POP PUSH1 0x20 PUSH2 0x4431 DUP6 DUP3 DUP7 ADD PUSH2 0x3D4E JUMP JUMPDEST SWAP2 POP POP SWAP3 POP SWAP3 SWAP1 POP JUMP JUMPDEST PUSH32 0x4E487B7100000000000000000000000000000000000000000000000000000000 PUSH0 MSTORE PUSH1 0x22 PUSH1 0x4 MSTORE PUSH1 0x24 PUSH0 REVERT JUMPDEST PUSH0 PUSH1 0x2 DUP3 DIV SWAP1 POP PUSH1 0x1 DUP3 AND DUP1 PUSH2 0x447F JUMPI PUSH1 0x7F DUP3 AND SWAP2 POP JUMPDEST PUSH1 0x20 DUP3 LT DUP2 SUB PUSH2 0x4492 JUMPI PUSH2 0x4491 PUSH2 0x443B JUMP JUMPDEST JUMPDEST POP SWAP2 SWAP1 POP JUMP JUMPDEST PUSH32 0x4E487B7100000000000000000000000000000000000000000000000000000000 PUSH0 MSTORE PUSH1 0x32 PUSH1 0x4 MSTORE PUSH1 0x24 PUSH0 REVERT JUMPDEST PUSH32 0x455243333532353A20617070726F76616C20746F2063757272656E74206F776E PUSH0 DUP3 ADD MSTORE PUSH32 0x6572000000000000000000000000000000000000000000000000000000000000 PUSH1 0x20 DUP3 ADD MSTORE POP JUMP JUMPDEST PUSH0 PUSH2 0x451F PUSH1 0x22 DUP4 PUSH2 0x3C8F JUMP JUMPDEST SWAP2 POP PUSH2 0x452A DUP3 PUSH2 0x44C5 JUMP JUMPDEST PUSH1 0x40 DUP3 ADD SWAP1 POP SWAP2 SWAP1 POP JUMP JUMPDEST PUSH0 PUSH1 0x20 DUP3 ADD SWAP1 POP DUP2 DUP2 SUB PUSH0 DUP4 ADD MSTORE PUSH2 0x454C DUP2 PUSH2 0x4513 JUMP JUMPDEST SWAP1 POP SWAP2 SWAP1 POP JUMP JUMPDEST PUSH32 0x455243333532353A20617070726F76652063616C6C6572206973206E6F74206F PUSH0 DUP3 ADD MSTORE PUSH32 0x776E6572206E6F7220617070726F76656420666F7220616C6C00000000000000 PUSH1 0x20 DUP3 ADD MSTORE POP JUMP JUMPDEST PUSH0 PUSH2 0x45AD PUSH1 0x39 DUP4 PUSH2 0x3C8F JUMP JUMPDEST SWAP2 POP PUSH2 0x45B8 DUP3 PUSH2 0x4553 JUMP JUMPDEST PUSH1 0x40 DUP3 ADD SWAP1 POP SWAP2 SWAP1 POP JUMP JUMPDEST PUSH0 PUSH1 0x20 DUP3 ADD SWAP1 POP DUP2 DUP2 SUB PUSH0 DUP4 ADD MSTORE PUSH2 0x45DA DUP2 PUSH2 0x45A1 JUMP JUMPDEST SWAP1 POP SWAP2 SWAP1 POP JUMP JUMPDEST PUSH0 DUP2 SWAP1 POP SWAP3 SWAP2 POP POP JUMP JUMPDEST PUSH0 PUSH2 0x45F5 DUP3 PUSH2 0x3C85 JUMP JUMPDEST PUSH2 0x45FF DUP2 DUP6 PUSH2 0x45E1 JUMP JUMPDEST SWAP4 POP PUSH2 0x460F DUP2 DUP6 PUSH1 0x20 DUP7 ADD PUSH2 0x3C9F JUMP JUMPDEST DUP1 DUP5 ADD SWAP2 POP POP SWAP3 SWAP2 POP POP JUMP JUMPDEST PUSH32 0x736C6F742F000000000000000000000000000000000000000000000000000000 PUSH0 DUP3 ADD MSTORE POP JUMP JUMPDEST PUSH0 PUSH2 0x464F PUSH1 0x5 DUP4 PUSH2 0x45E1 JUMP JUMPDEST SWAP2 POP PUSH2 0x465A DUP3 PUSH2 0x461B JUMP JUMPDEST PUSH1 0x5 DUP3 ADD SWAP1 POP SWAP2 SWAP1 POP JUMP JUMPDEST PUSH0 PUSH2 0x4670 DUP3 DUP6 PUSH2 0x45EB JUMP JUMPDEST SWAP2 POP PUSH2 0x467B DUP3 PUSH2 0x4643 JUMP JUMPDEST SWAP2 POP PUSH2 0x4687 DUP3 DUP5 PUSH2 0x45EB JUMP JUMPDEST SWAP2 POP DUP2 SWAP1 POP SWAP4 SWAP3 POP POP POP JUMP JUMPDEST PUSH0 PUSH2 0x46A5 PUSH2 0x46A0 DUP5 PUSH2 0x4069 JUMP JUMPDEST PUSH2 0x404F JUMP JUMPDEST SWAP1 POP DUP3 DUP2 MSTORE PUSH1 0x20 DUP2 ADD DUP5 DUP5 DUP5 ADD GT ISZERO PUSH2 0x46C1 JUMPI PUSH2 0x46C0 PUSH2 0x3FED JUMP JUMPDEST JUMPDEST PUSH2 0x46CC DUP5 DUP3 DUP6 PUSH2 0x3C9F JUMP JUMPDEST POP SWAP4 SWAP3 POP POP POP JUMP JUMPDEST PUSH0 DUP3 PUSH1 0x1F DUP4 ADD SLT PUSH2 0x46E8 JUMPI PUSH2 0x46E7 PUSH2 0x3FE9 JUMP JUMPDEST JUMPDEST DUP2 MLOAD PUSH2 0x46F8 DUP5 DUP3 PUSH1 0x20 DUP7 ADD PUSH2 0x4693 JUMP JUMPDEST SWAP2 POP POP SWAP3 SWAP2 POP POP JUMP JUMPDEST PUSH0 PUSH1 0x20 DUP3 DUP5 SUB SLT ISZERO PUSH2 0x4716 JUMPI PUSH2 0x4715 PUSH2 0x3BCA JUMP JUMPDEST JUMPDEST PUSH0 DUP3 ADD MLOAD PUSH8 0xFFFFFFFFFFFFFFFF DUP2 GT ISZERO PUSH2 0x4733 JUMPI PUSH2 0x4732 PUSH2 0x3BCE JUMP JUMPDEST JUMPDEST PUSH2 0x473F DUP5 DUP3 DUP6 ADD PUSH2 0x46D4 JUMP JUMPDEST SWAP2 POP POP SWAP3 SWAP2 POP POP JUMP JUMPDEST PUSH32 0x455243333532353A207472616E736665722063616C6C6572206973206E6F7420 PUSH0 DUP3 ADD MSTORE PUSH32 0x6F776E6572206E6F7220617070726F7665640000000000000000000000000000 PUSH1 0x20 DUP3 ADD MSTORE POP JUMP JUMPDEST PUSH0 PUSH2 0x47A2 PUSH1 0x32 DUP4 PUSH2 0x3C8F JUMP JUMPDEST SWAP2 POP PUSH2 0x47AD DUP3 PUSH2 0x4748 JUMP JUMPDEST PUSH1 0x40 DUP3 ADD SWAP1 POP SWAP2 SWAP1 POP JUMP JUMPDEST PUSH0 PUSH1 0x20 DUP3 ADD SWAP1 POP DUP2 DUP2 SUB PUSH0 DUP4 ADD MSTORE PUSH2 0x47CF DUP2 PUSH2 0x4796 JUMP JUMPDEST SWAP1 POP SWAP2 SWAP1 POP JUMP JUMPDEST PUSH32 0x455243333532353A206F776E657220696E646578206F7574206F6620626F756E PUSH0 DUP3 ADD MSTORE PUSH32 0x6473000000000000000000000000000000000000000000000000000000000000 PUSH1 0x20 DUP3 ADD MSTORE POP JUMP JUMPDEST PUSH0 PUSH2 0x4830 PUSH1 0x22 DUP4 PUSH2 0x3C8F JUMP JUMPDEST SWAP2 POP PUSH2 0x483B DUP3 PUSH2 0x47D6 JUMP JUMPDEST PUSH1 0x40 DUP3 ADD SWAP1 POP SWAP2 SWAP1 POP JUMP JUMPDEST PUSH0 PUSH1 0x20 DUP3 ADD SWAP1 POP DUP2 DUP2 SUB PUSH0 DUP4 ADD MSTORE PUSH2 0x485D DUP2 PUSH2 0x4824 JUMP JUMPDEST SWAP1 POP SWAP2 SWAP1 POP JUMP JUMPDEST PUSH32 0x455243333532353A20676C6F62616C20696E646578206F7574206F6620626F75 PUSH0 DUP3 ADD MSTORE PUSH32 0x6E64730000000000000000000000000000000000000000000000000000000000 PUSH1 0x20 DUP3 ADD MSTORE POP JUMP JUMPDEST PUSH0 PUSH2 0x48BE PUSH1 0x23 DUP4 PUSH2 0x3C8F JUMP JUMPDEST SWAP2 POP PUSH2 0x48C9 DUP3 PUSH2 0x4864 JUMP JUMPDEST PUSH1 0x40 DUP3 ADD SWAP1 POP SWAP2 SWAP1 POP JUMP JUMPDEST PUSH0 PUSH1 0x20 DUP3 ADD SWAP1 POP DUP2 DUP2 SUB PUSH0 DUP4 ADD MSTORE PUSH2 0x48EB DUP2 PUSH2 0x48B2 JUMP JUMPDEST SWAP1 POP SWAP2 SWAP1 POP JUMP JUMPDEST PUSH0 DUP2 SWAP1 POP DUP2 PUSH0 MSTORE PUSH1 0x20 PUSH0 KECCAK256 SWAP1 POP SWAP2 SWAP1 POP JUMP JUMPDEST PUSH0 PUSH1 0x20 PUSH1 0x1F DUP4 ADD DIV SWAP1 POP SWAP2 SWAP1 POP JUMP JUMPDEST PUSH0 DUP3 DUP3 SHL SWAP1 POP SWAP3 SWAP2 POP POP JUMP JUMPDEST PUSH0 PUSH1 0x8 DUP4 MUL PUSH2 0x494E PUSH32 0xFFFFFFFFFFFFFFFFFFFFFFFFFFFFFFFFFFFFFFFFFFFFFFFFFFFFFFFFFFFFFFFF DUP3 PUSH2 0x4913 JUMP JUMPDEST PUSH2 0x4958 DUP7 DUP4 PUSH2 0x4913 JUMP JUMPDEST SWAP6 POP DUP1 NOT DUP5 AND SWAP4 POP DUP1 DUP7 AND DUP5 OR SWAP3 POP POP POP SWAP4 SWAP3 POP POP POP JUMP JUMPDEST PUSH0 PUSH2 0x498A PUSH2 0x4985 PUSH2 0x4980 DUP5 PUSH2 0x3D2F JUMP JUMPDEST PUSH2 0x4187 JUMP JUMPDEST PUSH2 0x3D2F JUMP JUMPDEST SWAP1 POP SWAP2 SWAP1 POP JUMP JUMPDEST PUSH0 DUP2 SWAP1 POP SWAP2 SWAP1 POP JUMP JUMPDEST PUSH2 0x49A3 DUP4 PUSH2 0x4970 JUMP JUMPDEST PUSH2 0x49B7 PUSH2 0x49AF DUP3 PUSH2 0x4991 JUMP JUMPDEST DUP5 DUP5 SLOAD PUSH2 0x491F JUMP JUMPDEST DUP3 SSTORE POP POP POP POP JUMP JUMPDEST PUSH0 SWAP1 JUMP JUMPDEST PUSH2 0x49CB PUSH2 0x49BF JUMP JUMPDEST PUSH2 0x49D6 DUP2 DUP5 DUP5 PUSH2 0x499A JUMP JUMPDEST POP POP POP JUMP JUMPDEST JUMPDEST DUP2 DUP2 LT ISZERO PUSH2 0x49F9 JUMPI PUSH2 0x49EE PUSH0 DUP3 PUSH2 0x49C3 JUMP JUMPDEST PUSH1 0x1 DUP2 ADD SWAP1 POP PUSH2 0x49DC JUMP JUMPDEST POP POP JUMP JUMPDEST PUSH1 0x1F DUP3 GT ISZERO PUSH2 0x4A3E JUMPI PUSH2 0x4A0F DUP2 PUSH2 0x48F2 JUMP JUMPDEST PUSH2 0x4A18 DUP5 PUSH2 0x4904 JUMP JUMPDEST DUP2 ADD PUSH1 0x20 DUP6 LT ISZERO PUSH2 0x4A27 JUMPI DUP2 SWAP1 POP JUMPDEST PUSH2 0x4A3B PUSH2 0x4A33 DUP6 PUSH2 0x4904 JUMP JUMPDEST DUP4 ADD DUP3 PUSH2 0x49DB JUMP JUMPDEST POP POP JUMPDEST POP POP POP JUMP JUMPDEST PUSH0 DUP3 DUP3 SHR SWAP1 POP SWAP3 SWAP2 POP POP JUMP JUMPDEST PUSH0 PUSH2 0x4A5E PUSH0 NOT DUP5 PUSH1 0x8 MUL PUSH2 0x4A43 JUMP JUMPDEST NOT DUP1 DUP4 AND SWAP2 POP POP SWAP3 SWAP2 POP POP JUMP JUMPDEST PUSH0 PUSH2 0x4A76 DUP4 DUP4 PUSH2 0x4A4F JUMP JUMPDEST SWAP2 POP DUP3 PUSH1 0x2 MUL DUP3 OR SWAP1 POP SWAP3 SWAP2 POP POP JUMP JUMPDEST PUSH2 0x4A8F DUP3 PUSH2 0x3C85 JUMP JUMPDEST PUSH8 0xFFFFFFFFFFFFFFFF DUP2 GT ISZERO PUSH2 0x4AA8 JUMPI PUSH2 0x4AA7 PUSH2 0x3FF1 JUMP JUMPDEST JUMPDEST PUSH2 0x4AB2 DUP3 SLOAD PUSH2 0x4468 JUMP JUMPDEST PUSH2 0x4ABD DUP3 DUP3 DUP6 PUSH2 0x49FD JUMP JUMPDEST PUSH0 PUSH1 0x20 SWAP1 POP PUSH1 0x1F DUP4 GT PUSH1 0x1 DUP2 EQ PUSH2 0x4AEE JUMPI PUSH0 DUP5 ISZERO PUSH2 0x4ADC JUMPI DUP3 DUP8 ADD MLOAD SWAP1 POP JUMPDEST PUSH2 0x4AE6 DUP6 DUP3 PUSH2 0x4A6B JUMP JUMPDEST DUP7 SSTORE POP PUSH2 0x4B4D JUMP JUMPDEST PUSH1 0x1F NOT DUP5 AND PUSH2 0x4AFC DUP7 PUSH2 0x48F2 JUMP JUMPDEST PUSH0 JUMPDEST DUP3 DUP2 LT ISZERO PUSH2 0x4B23 JUMPI DUP5 DUP10 ADD MLOAD DUP3 SSTORE PUSH1 0x1 DUP3 ADD SWAP2 POP PUSH1 0x20 DUP6 ADD SWAP5 POP PUSH1 0x20 DUP2 ADD SWAP1 POP PUSH2 0x4AFE JUMP JUMPDEST DUP7 DUP4 LT ISZERO PUSH2 0x4B40 JUMPI DUP5 DUP10 ADD MLOAD PUSH2 0x4B3C PUSH1 0x1F DUP10 AND DUP3 PUSH2 0x4A4F JUMP JUMPDEST DUP4 SSTORE POP JUMPDEST PUSH1 0x1 PUSH1 0x2 DUP9 MUL ADD DUP9 SSTORE POP POP POP JUMPDEST POP POP POP POP POP POP JUMP JUMPDEST PUSH32 0x455243333532353A20696E76616C696420746F6B656E20494400000000000000 PUSH0 DUP3 ADD MSTORE POP JUMP JUMPDEST PUSH0 PUSH2 0x4B89 PUSH1 0x19 DUP4 PUSH2 0x3C8F JUMP JUMPDEST SWAP2 POP PUSH2 0x4B94 DUP3 PUSH2 0x4B55 JUMP JUMPDEST PUSH1 0x20 DUP3 ADD SWAP1 POP SWAP2 SWAP1 POP JUMP JUMPDEST PUSH0 PUSH1 0x20 DUP3 ADD SWAP1 POP DUP2 DUP2 SUB PUSH0 DUP4 ADD MSTORE PUSH2 0x4BB6 DUP2 PUSH2 0x4B7D JUMP JUMPDEST SWAP1 POP SWAP2 SWAP1 POP JUMP JUMPDEST PUSH32 0x455243333532353A2062616C616E636520717565727920666F7220746865207A PUSH0 DUP3 ADD MSTORE PUSH32 0x65726F2061646472657373000000000000000000000000000000000000000000 PUSH1 0x20 DUP3 ADD MSTORE POP JUMP JUMPDEST PUSH0 PUSH2 0x4C17 PUSH1 0x2B DUP4 PUSH2 0x3C8F JUMP JUMPDEST SWAP2 POP PUSH2 0x4C22 DUP3 PUSH2 0x4BBD JUMP JUMPDEST PUSH1 0x40 DUP3 ADD SWAP1 POP SWAP2 SWAP1 POP JUMP JUMPDEST PUSH0 PUSH1 0x20 DUP3 ADD SWAP1 POP DUP2 DUP2 SUB PUSH0 DUP4 ADD MSTORE PUSH2 0x4C44 DUP2 PUSH2 0x4C0B JUMP JUMPDEST SWAP1 POP SWAP2 SWAP1 POP JUMP JUMPDEST PUSH32 0x455243333532353A20617070726F76652063616C6C6572206973206E6F74206F PUSH0 DUP3 ADD MSTORE PUSH32 0x776E6572206E6F7220617070726F766564000000000000000000000000000000 PUSH1 0x20 DUP3 ADD MSTORE POP JUMP JUMPDEST PUSH0 PUSH2 0x4CA5 PUSH1 0x31 DUP4 PUSH2 0x3C8F JUMP JUMPDEST SWAP2 POP PUSH2 0x4CB0 DUP3 PUSH2 0x4C4B JUMP JUMPDEST PUSH1 0x40 DUP3 ADD SWAP1 POP SWAP2 SWAP1 POP JUMP JUMPDEST PUSH0 PUSH1 0x20 DUP3 ADD SWAP1 POP DUP2 DUP2 SUB PUSH0 DUP4 ADD MSTORE PUSH2 0x4CD2 DUP2 PUSH2 0x4C99 JUMP JUMPDEST SWAP1 POP SWAP2 SWAP1 POP JUMP JUMPDEST PUSH32 0x4E6F7420616E204F776E65720000000000000000000000000000000000000000 PUSH0 DUP3 ADD MSTORE POP JUMP JUMPDEST PUSH0 PUSH2 0x4D0D PUSH1 0xC DUP4 PUSH2 0x3C8F JUMP JUMPDEST SWAP2 POP PUSH2 0x4D18 DUP3 PUSH2 0x4CD9 JUMP JUMPDEST PUSH1 0x20 DUP3 ADD SWAP1 POP SWAP2 SWAP1 POP JUMP JUMPDEST PUSH0 PUSH1 0x20 DUP3 ADD SWAP1 POP DUP2 DUP2 SUB PUSH0 DUP4 ADD MSTORE PUSH2 0x4D3A DUP2 PUSH2 0x4D01 JUMP JUMPDEST SWAP1 POP SWAP2 SWAP1 POP JUMP JUMPDEST PUSH0 PUSH2 0x4D4C DUP3 DUP6 PUSH2 0x45EB JUMP JUMPDEST SWAP2 POP PUSH2 0x4D58 DUP3 DUP5 PUSH2 0x45EB JUMP JUMPDEST SWAP2 POP DUP2 SWAP1 POP SWAP4 SWAP3 POP POP POP JUMP JUMPDEST PUSH32 0x636F6E74726163742F0000000000000000000000000000000000000000000000 PUSH0 DUP3 ADD MSTORE POP JUMP JUMPDEST PUSH0 PUSH2 0x4D98 PUSH1 0x9 DUP4 PUSH2 0x45E1 JUMP JUMPDEST SWAP2 POP PUSH2 0x4DA3 DUP3 PUSH2 0x4D64 JUMP JUMPDEST PUSH1 0x9 DUP3 ADD SWAP1 POP SWAP2 SWAP1 POP JUMP JUMPDEST PUSH0 PUSH2 0x4DB9 DUP3 DUP6 PUSH2 0x45EB JUMP JUMPDEST SWAP2 POP PUSH2 0x4DC4 DUP3 PUSH2 0x4D8C JUMP JUMPDEST SWAP2 POP PUSH2 0x4DD0 DUP3 DUP5 PUSH2 0x45EB JUMP JUMPDEST SWAP2 POP DUP2 SWAP1 POP SWAP4 SWAP3 POP POP POP JUMP JUMPDEST PUSH32 0x4E487B7100000000000000000000000000000000000000000000000000000000 PUSH0 MSTORE PUSH1 0x12 PUSH1 0x4 MSTORE PUSH1 0x24 PUSH0 REVERT JUMPDEST PUSH32 0x455243333532353A20696E73756666696369656E7420616C6C6F77616E636500 PUSH0 DUP3 ADD MSTORE POP JUMP JUMPDEST PUSH0 PUSH2 0x4E3D PUSH1 0x1F DUP4 PUSH2 0x3C8F JUMP JUMPDEST SWAP2 POP PUSH2 0x4E48 DUP3 PUSH2 0x4E09 JUMP JUMPDEST PUSH1 0x20 DUP3 ADD SWAP1 POP SWAP2 SWAP1 POP JUMP JUMPDEST PUSH0 PUSH1 0x20 DUP3 ADD SWAP1 POP DUP2 DUP2 SUB PUSH0 DUP4 ADD MSTORE PUSH2 0x4E6A DUP2 PUSH2 0x4E31 JUMP JUMPDEST SWAP1 POP SWAP2 SWAP1 POP JUMP JUMPDEST PUSH32 0x4E487B7100000000000000000000000000000000000000000000000000000000 PUSH0 MSTORE PUSH1 0x11 PUSH1 0x4 MSTORE PUSH1 0x24 PUSH0 REVERT JUMPDEST PUSH0 PUSH2 0x4EA8 DUP3 PUSH2 0x3D2F JUMP JUMPDEST SWAP2 POP PUSH2 0x4EB3 DUP4 PUSH2 0x3D2F JUMP JUMPDEST SWAP3 POP DUP3 DUP3 SUB SWAP1 POP DUP2 DUP2 GT ISZERO PUSH2 0x4ECB JUMPI PUSH2 0x4ECA PUSH2 0x4E71 JUMP JUMPDEST JUMPDEST SWAP3 SWAP2 POP POP JUMP JUMPDEST PUSH32 0x455243333532353A206D696E7420746F20746865207A65726F20616464726573 PUSH0 DUP3 ADD MSTORE PUSH32 0x7300000000000000000000000000000000000000000000000000000000000000 PUSH1 0x20 DUP3 ADD MSTORE POP JUMP JUMPDEST PUSH0 PUSH2 0x4F2B PUSH1 0x21 DUP4 PUSH2 0x3C8F JUMP JUMPDEST SWAP2 POP PUSH2 0x4F36 DUP3 PUSH2 0x4ED1 JUMP JUMPDEST PUSH1 0x40 DUP3 ADD SWAP1 POP SWAP2 SWAP1 POP JUMP JUMPDEST PUSH0 PUSH1 0x20 DUP3 ADD SWAP1 POP DUP2 DUP2 SUB PUSH0 DUP4 ADD MSTORE PUSH2 0x4F58 DUP2 PUSH2 0x4F1F JUMP JUMPDEST SWAP1 POP SWAP2 SWAP1 POP JUMP JUMPDEST PUSH32 0x455243333532353A2063616E6E6F74206D696E74207A65726F20746F6B656E49 PUSH0 DUP3 ADD MSTORE PUSH32 0x6400000000000000000000000000000000000000000000000000000000000000 PUSH1 0x20 DUP3 ADD MSTORE POP JUMP JUMPDEST PUSH0 PUSH2 0x4FB9 PUSH1 0x21 DUP4 PUSH2 0x3C8F JUMP JUMPDEST SWAP2 POP PUSH2 0x4FC4 DUP3 PUSH2 0x4F5F JUMP JUMPDEST PUSH1 0x40 DUP3 ADD SWAP1 POP SWAP2 SWAP1 POP JUMP JUMPDEST PUSH0 PUSH1 0x20 DUP3 ADD SWAP1 POP DUP2 DUP2 SUB PUSH0 DUP4 ADD MSTORE PUSH2 0x4FE6 DUP2 PUSH2 0x4FAD JUMP JUMPDEST SWAP1 POP SWAP2 SWAP1 POP JUMP JUMPDEST PUSH32 0x455243333532353A20746F6B656E20616C7265616479206D696E746564000000 PUSH0 DUP3 ADD MSTORE POP JUMP JUMPDEST PUSH0 PUSH2 0x5021 PUSH1 0x1D DUP4 PUSH2 0x3C8F JUMP JUMPDEST SWAP2 POP PUSH2 0x502C DUP3 PUSH2 0x4FED JUMP JUMPDEST PUSH1 0x20 DUP3 ADD SWAP1 POP SWAP2 SWAP1 POP JUMP JUMPDEST PUSH0 PUSH1 0x20 DUP3 ADD SWAP1 POP DUP2 DUP2 SUB PUSH0 DUP4 ADD MSTORE PUSH2 0x504E DUP2 PUSH2 0x5015 JUMP JUMPDEST SWAP1 POP SWAP2 SWAP1 POP JUMP JUMPDEST PUSH32 0x455243333532353A207472616E736665722066726F6D20696E76616C69642074 PUSH0 DUP3 ADD MSTORE PUSH32 0x6F6B656E20494400000000000000000000000000000000000000000000000000 PUSH1 0x20 DUP3 ADD MSTORE POP JUMP JUMPDEST PUSH0 PUSH2 0x50AF PUSH1 0x27 DUP4 PUSH2 0x3C8F JUMP JUMPDEST SWAP2 POP PUSH2 0x50BA DUP3 PUSH2 0x5055 JUMP JUMPDEST PUSH1 0x40 DUP3 ADD SWAP1 POP SWAP2 SWAP1 POP JUMP JUMPDEST PUSH0 PUSH1 0x20 DUP3 ADD SWAP1 POP DUP2 DUP2 SUB PUSH0 DUP4 ADD MSTORE PUSH2 0x50DC DUP2 PUSH2 0x50A3 JUMP JUMPDEST SWAP1 POP SWAP2 SWAP1 POP JUMP JUMPDEST PUSH32 0x455243333532353A207472616E7366657220746F20696E76616C696420746F6B PUSH0 DUP3 ADD MSTORE PUSH32 0x656E204944000000000000000000000000000000000000000000000000000000 PUSH1 0x20 DUP3 ADD MSTORE POP JUMP JUMPDEST PUSH0 PUSH2 0x513D PUSH1 0x25 DUP4 PUSH2 0x3C8F JUMP JUMPDEST SWAP2 POP PUSH2 0x5148 DUP3 PUSH2 0x50E3 JUMP JUMPDEST PUSH1 0x40 DUP3 ADD SWAP1 POP SWAP2 SWAP1 POP JUMP JUMPDEST PUSH0 PUSH1 0x20 DUP3 ADD SWAP1 POP DUP2 DUP2 SUB PUSH0 DUP4 ADD MSTORE PUSH2 0x516A DUP2 PUSH2 0x5131 JUMP JUMPDEST SWAP1 POP SWAP2 SWAP1 POP JUMP JUMPDEST PUSH32 0x455243333532353A20696E73756666696369656E742062616C616E636520666F PUSH0 DUP3 ADD MSTORE PUSH32 0x72207472616E7366657200000000000000000000000000000000000000000000 PUSH1 0x20 DUP3 ADD MSTORE POP JUMP JUMPDEST PUSH0 PUSH2 0x51CB PUSH1 0x2A DUP4 PUSH2 0x3C8F JUMP JUMPDEST SWAP2 POP PUSH2 0x51D6 DUP3 PUSH2 0x5171 JUMP JUMPDEST PUSH1 0x40 DUP3 ADD SWAP1 POP SWAP2 SWAP1 POP JUMP JUMPDEST PUSH0 PUSH1 0x20 DUP3 ADD SWAP1 POP DUP2 DUP2 SUB PUSH0 DUP4 ADD MSTORE PUSH2 0x51F8 DUP2 PUSH2 0x51BF JUMP JUMPDEST SWAP1 POP SWAP2 SWAP1 POP JUMP JUMPDEST PUSH32 0x455243333532353A207472616E7366657220746F20746F6B656E207769746820 PUSH0 DUP3 ADD MSTORE PUSH32 0x646966666572656E7420736C6F74000000000000000000000000000000000000 PUSH1 0x20 DUP3 ADD MSTORE POP JUMP JUMPDEST PUSH0 PUSH2 0x5259 PUSH1 0x2E DUP4 PUSH2 0x3C8F JUMP JUMPDEST SWAP2 POP PUSH2 0x5264 DUP3 PUSH2 0x51FF JUMP JUMPDEST PUSH1 0x40 DUP3 ADD SWAP1 POP SWAP2 SWAP1 POP JUMP JUMPDEST PUSH0 PUSH1 0x20 DUP3 ADD SWAP1 POP DUP2 DUP2 SUB PUSH0 DUP4 ADD MSTORE PUSH2 0x5286 DUP2 PUSH2 0x524D JUMP JUMPDEST SWAP1 POP SWAP2 SWAP1 POP JUMP JUMPDEST PUSH0 PUSH2 0x5297 DUP3 PUSH2 0x3D2F JUMP JUMPDEST SWAP2 POP PUSH2 0x52A2 DUP4 PUSH2 0x3D2F JUMP JUMPDEST SWAP3 POP DUP3 DUP3 ADD SWAP1 POP DUP1 DUP3 GT ISZERO PUSH2 0x52BA JUMPI PUSH2 0x52B9 PUSH2 0x4E71 JUMP JUMPDEST JUMPDEST SWAP3 SWAP2 POP POP JUMP JUMPDEST PUSH32 0x455243333532353A207472616E736665722072656A6563746564206279204552 PUSH0 DUP3 ADD MSTORE PUSH32 0x4333353235526563656976657200000000000000000000000000000000000000 PUSH1 0x20 DUP3 ADD MSTORE POP JUMP JUMPDEST PUSH0 PUSH2 0x531A PUSH1 0x2D DUP4 PUSH2 0x3C8F JUMP JUMPDEST SWAP2 POP PUSH2 0x5325 DUP3 PUSH2 0x52C0 JUMP JUMPDEST PUSH1 0x40 DUP3 ADD SWAP1 POP SWAP2 SWAP1 POP JUMP JUMPDEST PUSH0 PUSH1 0x20 DUP3 ADD SWAP1 POP DUP2 DUP2 SUB PUSH0 DUP4 ADD MSTORE PUSH2 0x5347 DUP2 PUSH2 0x530E JUMP JUMPDEST SWAP1 POP SWAP2 SWAP1 POP JUMP JUMPDEST PUSH32 0x455243333532353A207472616E736665722066726F6D20696E76616C6964206F PUSH0 DUP3 ADD MSTORE PUSH32 0x776E657200000000000000000000000000000000000000000000000000000000 PUSH1 0x20 DUP3 ADD MSTORE POP JUMP JUMPDEST PUSH0 PUSH2 0x53A8 PUSH1 0x24 DUP4 PUSH2 0x3C8F JUMP JUMPDEST SWAP2 POP PUSH2 0x53B3 DUP3 PUSH2 0x534E JUMP JUMPDEST PUSH1 0x40 DUP3 ADD SWAP1 POP SWAP2 SWAP1 POP JUMP JUMPDEST PUSH0 PUSH1 0x20 DUP3 ADD SWAP1 POP DUP2 DUP2 SUB PUSH0 DUP4 ADD MSTORE PUSH2 0x53D5 DUP2 PUSH2 0x539C JUMP JUMPDEST SWAP1 POP SWAP2 SWAP1 POP JUMP JUMPDEST PUSH32 0x455243333532353A207472616E7366657220746F20746865207A65726F206164 PUSH0 DUP3 ADD MSTORE PUSH32 0x6472657373000000000000000000000000000000000000000000000000000000 PUSH1 0x20 DUP3 ADD MSTORE POP JUMP JUMPDEST PUSH0 PUSH2 0x5436 PUSH1 0x25 DUP4 PUSH2 0x3C8F JUMP JUMPDEST SWAP2 POP PUSH2 0x5441 DUP3 PUSH2 0x53DC JUMP JUMPDEST PUSH1 0x40 DUP3 ADD SWAP1 POP SWAP2 SWAP1 POP JUMP JUMPDEST PUSH0 PUSH1 0x20 DUP3 ADD SWAP1 POP DUP2 DUP2 SUB PUSH0 DUP4 ADD MSTORE PUSH2 0x5463 DUP2 PUSH2 0x542A JUMP JUMPDEST SWAP1 POP SWAP2 SWAP1 POP JUMP JUMPDEST PUSH32 0x455243333532353A20617070726F76652076616C756520746F20746865207A65 PUSH0 DUP3 ADD MSTORE PUSH32 0x726F206164647265737300000000000000000000000000000000000000000000 PUSH1 0x20 DUP3 ADD MSTORE POP JUMP JUMPDEST PUSH0 PUSH2 0x54C4 PUSH1 0x2A DUP4 PUSH2 0x3C8F JUMP JUMPDEST SWAP2 POP PUSH2 0x54CF DUP3 PUSH2 0x546A JUMP JUMPDEST PUSH1 0x40 DUP3 ADD SWAP1 POP SWAP2 SWAP1 POP JUMP JUMPDEST PUSH0 PUSH1 0x20 DUP3 ADD SWAP1 POP DUP2 DUP2 SUB PUSH0 DUP4 ADD MSTORE PUSH2 0x54F1 DUP2 PUSH2 0x54B8 JUMP JUMPDEST SWAP1 POP SWAP2 SWAP1 POP JUMP JUMPDEST PUSH32 0x455243333532353A20617070726F766520746F2063616C6C6572000000000000 PUSH0 DUP3 ADD MSTORE POP JUMP JUMPDEST PUSH0 PUSH2 0x552C PUSH1 0x1A DUP4 PUSH2 0x3C8F JUMP JUMPDEST SWAP2 POP PUSH2 0x5537 DUP3 PUSH2 0x54F8 JUMP JUMPDEST PUSH1 0x20 DUP3 ADD SWAP1 POP SWAP2 SWAP1 POP JUMP JUMPDEST PUSH0 PUSH1 0x20 DUP3 ADD SWAP1 POP DUP2 DUP2 SUB PUSH0 DUP4 ADD MSTORE PUSH2 0x5559 DUP2 PUSH2 0x5520 JUMP JUMPDEST SWAP1 POP SWAP2 SWAP1 POP JUMP JUMPDEST PUSH32 0x455243333532353A207472616E7366657220746F206E6F6E2045524337323152 PUSH0 DUP3 ADD MSTORE PUSH32 0x6563656976657200000000000000000000000000000000000000000000000000 PUSH1 0x20 DUP3 ADD MSTORE POP JUMP JUMPDEST PUSH0 PUSH2 0x55BA PUSH1 0x27 DUP4 PUSH2 0x3C8F JUMP JUMPDEST SWAP2 POP PUSH2 0x55C5 DUP3 PUSH2 0x5560 JUMP JUMPDEST PUSH1 0x40 DUP3 ADD SWAP1 POP SWAP2 SWAP1 POP JUMP JUMPDEST PUSH0 PUSH1 0x20 DUP3 ADD SWAP1 POP DUP2 DUP2 SUB PUSH0 DUP4 ADD MSTORE PUSH2 0x55E7 DUP2 PUSH2 0x55AE JUMP JUMPDEST SWAP1 POP SWAP2 SWAP1 POP JUMP JUMPDEST PUSH0 PUSH2 0x55F8 DUP3 PUSH2 0x3D2F JUMP JUMPDEST SWAP2 POP PUSH32 0xFFFFFFFFFFFFFFFFFFFFFFFFFFFFFFFFFFFFFFFFFFFFFFFFFFFFFFFFFFFFFFFF DUP3 SUB PUSH2 0x562A JUMPI PUSH2 0x5629 PUSH2 0x4E71 JUMP JUMPDEST JUMPDEST PUSH1 0x1 DUP3 ADD SWAP1 POP SWAP2 SWAP1 POP JUMP JUMPDEST PUSH2 0x563E DUP2 PUSH2 0x3BD2 JUMP JUMPDEST DUP3 MSTORE POP POP JUMP JUMPDEST PUSH0 PUSH1 0x20 DUP3 ADD SWAP1 POP PUSH2 0x5657 PUSH0 DUP4 ADD DUP5 PUSH2 0x5635 JUMP JUMPDEST SWAP3 SWAP2 POP POP JUMP JUMPDEST PUSH0 DUP2 MLOAD SWAP1 POP PUSH2 0x566B DUP2 PUSH2 0x41FB JUMP JUMPDEST SWAP3 SWAP2 POP POP JUMP JUMPDEST PUSH0 PUSH1 0x20 DUP3 DUP5 SUB SLT ISZERO PUSH2 0x5686 JUMPI PUSH2 0x5685 PUSH2 0x3BCA JUMP JUMPDEST JUMPDEST PUSH0 PUSH2 0x5693 DUP5 DUP3 DUP6 ADD PUSH2 0x565D JUMP JUMPDEST SWAP2 POP POP SWAP3 SWAP2 POP POP JUMP JUMPDEST PUSH0 DUP2 MLOAD SWAP1 POP SWAP2 SWAP1 POP JUMP JUMPDEST PUSH0 DUP3 DUP3 MSTORE PUSH1 0x20 DUP3 ADD SWAP1 POP SWAP3 SWAP2 POP POP JUMP JUMPDEST PUSH0 PUSH2 0x56C0 DUP3 PUSH2 0x569C JUMP JUMPDEST PUSH2 0x56CA DUP2 DUP6 PUSH2 0x56A6 JUMP JUMPDEST SWAP4 POP PUSH2 0x56DA DUP2 DUP6 PUSH1 0x20 DUP7 ADD PUSH2 0x3C9F JUMP JUMPDEST PUSH2 0x56E3 DUP2 PUSH2 0x3CC7 JUMP JUMPDEST DUP5 ADD SWAP2 POP POP SWAP3 SWAP2 POP POP JUMP JUMPDEST PUSH0 PUSH1 0xA0 DUP3 ADD SWAP1 POP PUSH2 0x5701 PUSH0 DUP4 ADD DUP9 PUSH2 0x3DBD JUMP JUMPDEST PUSH2 0x570E PUSH1 0x20 DUP4 ADD DUP8 PUSH2 0x3E9D JUMP JUMPDEST PUSH2 0x571B PUSH1 0x40 DUP4 ADD DUP7 PUSH2 0x3E9D JUMP JUMPDEST PUSH2 0x5728 PUSH1 0x60 DUP4 ADD DUP6 PUSH2 0x3E9D JUMP JUMPDEST DUP2 DUP2 SUB PUSH1 0x80 DUP4 ADD MSTORE PUSH2 0x573A DUP2 DUP5 PUSH2 0x56B6 JUMP JUMPDEST SWAP1 POP SWAP7 SWAP6 POP POP POP POP POP POP JUMP JUMPDEST PUSH0 DUP2 MLOAD SWAP1 POP PUSH2 0x5754 DUP2 PUSH2 0x3BFD JUMP JUMPDEST SWAP3 SWAP2 POP POP JUMP JUMPDEST PUSH0 PUSH1 0x20 DUP3 DUP5 SUB SLT ISZERO PUSH2 0x576F JUMPI PUSH2 0x576E PUSH2 0x3BCA JUMP JUMPDEST JUMPDEST PUSH0 PUSH2 0x577C DUP5 DUP3 DUP6 ADD PUSH2 0x5746 JUMP JUMPDEST SWAP2 POP POP SWAP3 SWAP2 POP POP JUMP JUMPDEST PUSH32 0x4E487B7100000000000000000000000000000000000000000000000000000000 PUSH0 MSTORE PUSH1 0x31 PUSH1 0x4 MSTORE PUSH1 0x24 PUSH0 REVERT JUMPDEST PUSH0 PUSH1 0x80 DUP3 ADD SWAP1 POP PUSH2 0x57C5 PUSH0 DUP4 ADD DUP8 PUSH2 0x3DBD JUMP JUMPDEST PUSH2 0x57D2 PUSH1 0x20 DUP4 ADD DUP7 PUSH2 0x3DBD JUMP JUMPDEST PUSH2 0x57DF PUSH1 0x40 DUP4 ADD DUP6 PUSH2 0x3E9D JUMP JUMPDEST DUP2 DUP2 SUB PUSH1 0x60 DUP4 ADD MSTORE PUSH2 0x57F1 DUP2 DUP5 PUSH2 0x56B6 JUMP JUMPDEST SWAP1 POP SWAP6 SWAP5 POP POP POP POP POP JUMP JUMPDEST PUSH32 0x4552433732313A207472616E7366657220746F206E6F6E204552433732315265 PUSH0 DUP3 ADD MSTORE PUSH32 0x63656976657220696D706C656D656E7465720000000000000000000000000000 PUSH1 0x20 DUP3 ADD MSTORE POP JUMP JUMPDEST PUSH0 PUSH2 0x5856 PUSH1 0x32 DUP4 PUSH2 0x3C8F JUMP JUMPDEST SWAP2 POP PUSH2 0x5861 DUP3 PUSH2 0x57FC JUMP JUMPDEST PUSH1 0x40 DUP3 ADD SWAP1 POP SWAP2 SWAP1 POP JUMP JUMPDEST PUSH0 PUSH1 0x20 DUP3 ADD SWAP1 POP DUP2 DUP2 SUB PUSH0 DUP4 ADD MSTORE PUSH2 0x5883 DUP2 PUSH2 0x584A JUMP JUMPDEST SWAP1 POP SWAP2 SWAP1 POP JUMP JUMPDEST PUSH0 PUSH2 0x5894 DUP3 PUSH2 0x3D2F JUMP JUMPDEST SWAP2 POP PUSH2 0x589F DUP4 PUSH2 0x3D2F JUMP JUMPDEST SWAP3 POP DUP3 DUP3 MUL PUSH2 0x58AD DUP2 PUSH2 0x3D2F JUMP JUMPDEST SWAP2 POP DUP3 DUP3 DIV DUP5 EQ DUP4 ISZERO OR PUSH2 0x58C4 JUMPI PUSH2 0x58C3 PUSH2 0x4E71 JUMP JUMPDEST JUMPDEST POP SWAP3 SWAP2 POP POP JUMP JUMPDEST PUSH0 PUSH2 0x58D5 DUP3 PUSH2 0x3D2F JUMP JUMPDEST SWAP2 POP PUSH0 DUP3 SUB PUSH2 0x58E7 JUMPI PUSH2 0x58E6 PUSH2 0x4E71 JUMP JUMPDEST JUMPDEST PUSH1 0x1 DUP3 SUB SWAP1 POP SWAP2 SWAP1 POP JUMP JUMPDEST PUSH0 PUSH1 0x40 DUP3 ADD SWAP1 POP PUSH2 0x5905 PUSH0 DUP4 ADD DUP6 PUSH2 0x3E9D JUMP JUMPDEST PUSH2 0x5912 PUSH1 0x20 DUP4 ADD DUP5 PUSH2 0x3E9D JUMP JUMPDEST SWAP4 SWAP3 POP POP POP JUMP INVALID LOG2 PUSH5 0x6970667358 0x22 SLT KECCAK256 CALLDATACOPY 0xED 0xB6 PUSH16 0xA50F57E81BFC8364662795BCA107DF2E SWAP10 PUSH19 0xA778A37E78FC4EC6E43264736F6C6343000816 STOP CALLER "
		},
		"gasEstimates": {
			"creation": {
				"codeDepositCost": "4572600",
				"executionCost": "infinite",
				"totalCost": "infinite"
			},
			"external": {
				"_offchainReferenceID()": "infinite",
				"_ownerAddress()": "2648",
				"_queryPrice()": "2521",
				"allowance(uint256,address)": "infinite",
				"approve(address,uint256)": "infinite",
				"approve(uint256,address,uint256)": "infinite",
				"balanceOf(address)": "2988",
				"balanceOf(uint256)": "infinite",
				"baseURI()": "infinite",
				"contractURI()": "infinite",
				"getApproved(uint256)": "15944",
				"isApprovedForAll(address,address)": "infinite",
				"metadataDescriptor()": "infinite",
				"mint(address,uint256,uint256)": "infinite",
				"mintValue(uint256,uint256)": "infinite",
				"name()": "infinite",
				"offchainReferenceID()": "infinite",
				"owner()": "2627",
				"ownerAddress()": "2642",
				"ownerOf(uint256)": "16006",
				"queryPrice()": "2470",
				"renounceOwnership()": "infinite",
				"safeTransferFrom(address,address,uint256)": "infinite",
				"safeTransferFrom(address,address,uint256,bytes)": "infinite",
				"setApprovalForAll(address,bool)": "infinite",
				"setBaseURI(string)": "infinite",
				"setQueryPrice(uint256)": "infinite",
				"slotOf(uint256)": "infinite",
				"slotURI(uint256)": "infinite",
				"supportsInterface(bytes4)": "906",
				"symbol()": "infinite",
				"tokenByIndex(uint256)": "infinite",
				"tokenOfOwnerByIndex(address,uint256)": "infinite",
				"tokenURI(uint256)": "infinite",
				"totalSupply()": "2530",
				"transferFrom(address,address,uint256)": "infinite",
				"transferFrom(uint256,address,uint256)": "infinite",
				"transferFrom(uint256,uint256,uint256)": "infinite",
				"transferOwnership(address)": "infinite",
				"valueDecimals()": "2563"
			},
			"internal": {
				"_baseURI()": "infinite"
			}
		},
		"methodIdentifiers": {
			"_offchainReferenceID()": "dd3fc0ab",
			"_ownerAddress()": "a786c18b",
			"_queryPrice()": "9e6ec2cb",
			"allowance(uint256,address)": "e345e0bc",
			"approve(address,uint256)": "095ea7b3",
			"approve(uint256,address,uint256)": "8cb0a511",
			"balanceOf(address)": "70a08231",
			"balanceOf(uint256)": "9cc7f708",
			"baseURI()": "6c0360eb",
			"contractURI()": "e8a3d485",
			"getApproved(uint256)": "081812fc",
			"isApprovedForAll(address,address)": "e985e9c5",
			"metadataDescriptor()": "840f7113",
			"mint(address,uint256,uint256)": "156e29f6",
			"mintValue(uint256,uint256)": "f0e88e7f",
			"name()": "06fdde03",
			"offchainReferenceID()": "79e8b651",
			"owner()": "8da5cb5b",
			"ownerAddress()": "8f84aa09",
			"ownerOf(uint256)": "6352211e",
			"queryPrice()": "b0667cf8",
			"renounceOwnership()": "715018a6",
			"safeTransferFrom(address,address,uint256)": "42842e0e",
			"safeTransferFrom(address,address,uint256,bytes)": "b88d4fde",
			"setApprovalForAll(address,bool)": "a22cb465",
			"setBaseURI(string)": "55f804b3",
			"setQueryPrice(uint256)": "b9592a56",
			"slotOf(uint256)": "263f3e7e",
			"slotURI(uint256)": "09c3dd87",
			"supportsInterface(bytes4)": "01ffc9a7",
			"symbol()": "95d89b41",
			"tokenByIndex(uint256)": "4f6ccce7",
			"tokenOfOwnerByIndex(address,uint256)": "2f745c59",
			"tokenURI(uint256)": "c87b56dd",
			"totalSupply()": "18160ddd",
			"transferFrom(address,address,uint256)": "23b872dd",
			"transferFrom(uint256,address,uint256)": "0f485c02",
			"transferFrom(uint256,uint256,uint256)": "310ed7f0",
			"transferOwnership(address)": "f2fde38b",
			"valueDecimals()": "3e7e8669"
		}
	},
	"abi": [
		{
			"inputs": [
				{
					"internalType": "address",
					"name": "kip_address",
					"type": "address"
				},
				{
					"internalType": "string",
					"name": "reference_id",
					"type": "string"
				},
				{
					"internalType": "uint8",
					"name": "price_",
					"type": "uint8"
				},
				{
					"internalType": "address",
					"name": "owner_",
					"type": "address"
				},
				{
					"internalType": "string",
					"name": "name_",
					"type": "string"
				},
				{
					"internalType": "string",
					"name": "symbol_",
					"type": "string"
				},
				{
					"internalType": "uint8",
					"name": "decimals_",
					"type": "uint8"
				}
			],
			"stateMutability": "nonpayable",
			"type": "constructor"
		},
		{
			"inputs": [
				{
					"internalType": "address",
					"name": "owner",
					"type": "address"
				}
			],
			"name": "OwnableInvalidOwner",
			"type": "error"
		},
		{
			"inputs": [
				{
					"internalType": "address",
					"name": "account",
					"type": "address"
				}
			],
			"name": "OwnableUnauthorizedAccount",
			"type": "error"
		},
		{
			"inputs": [
				{
					"internalType": "uint256",
					"name": "value",
					"type": "uint256"
				},
				{
					"internalType": "uint256",
					"name": "length",
					"type": "uint256"
				}
			],
			"name": "StringsInsufficientHexLength",
			"type": "error"
		},
		{
			"anonymous": false,
			"inputs": [
				{
					"indexed": true,
					"internalType": "address",
					"name": "_owner",
					"type": "address"
				},
				{
					"indexed": true,
					"internalType": "address",
					"name": "_approved",
					"type": "address"
				},
				{
					"indexed": true,
					"internalType": "uint256",
					"name": "_tokenId",
					"type": "uint256"
				}
			],
			"name": "Approval",
			"type": "event"
		},
		{
			"anonymous": false,
			"inputs": [
				{
					"indexed": true,
					"internalType": "address",
					"name": "_owner",
					"type": "address"
				},
				{
					"indexed": true,
					"internalType": "address",
					"name": "_operator",
					"type": "address"
				},
				{
					"indexed": false,
					"internalType": "bool",
					"name": "_approved",
					"type": "bool"
				}
			],
			"name": "ApprovalForAll",
			"type": "event"
		},
		{
			"anonymous": false,
			"inputs": [
				{
					"indexed": true,
					"internalType": "uint256",
					"name": "_tokenId",
					"type": "uint256"
				},
				{
					"indexed": true,
					"internalType": "address",
					"name": "_operator",
					"type": "address"
				},
				{
					"indexed": false,
					"internalType": "uint256",
					"name": "_value",
					"type": "uint256"
				}
			],
			"name": "ApprovalValue",
			"type": "event"
		},
		{
			"anonymous": false,
			"inputs": [
				{
					"indexed": true,
					"internalType": "address",
					"name": "previousOwner",
					"type": "address"
				},
				{
					"indexed": true,
					"internalType": "address",
					"name": "newOwner",
					"type": "address"
				}
			],
			"name": "OwnershipTransferred",
			"type": "event"
		},
		{
			"anonymous": false,
			"inputs": [
				{
					"indexed": false,
					"internalType": "uint256",
					"name": "newprice_",
					"type": "uint256"
				}
			],
			"name": "QueryPriceChanged",
			"type": "event"
		},
		{
			"anonymous": false,
			"inputs": [
				{
					"indexed": true,
					"internalType": "address",
					"name": "metadataDescriptor",
					"type": "address"
				}
			],
			"name": "SetMetadataDescriptor",
			"type": "event"
		},
		{
			"anonymous": false,
			"inputs": [
				{
					"indexed": true,
					"internalType": "uint256",
					"name": "_tokenId",
					"type": "uint256"
				},
				{
					"indexed": true,
					"internalType": "uint256",
					"name": "_oldSlot",
					"type": "uint256"
				},
				{
					"indexed": true,
					"internalType": "uint256",
					"name": "_newSlot",
					"type": "uint256"
				}
			],
			"name": "SlotChanged",
			"type": "event"
		},
		{
			"anonymous": false,
			"inputs": [
				{
					"indexed": true,
					"internalType": "address",
					"name": "_from",
					"type": "address"
				},
				{
					"indexed": true,
					"internalType": "address",
					"name": "_to",
					"type": "address"
				},
				{
					"indexed": true,
					"internalType": "uint256",
					"name": "_tokenId",
					"type": "uint256"
				}
			],
			"name": "Transfer",
			"type": "event"
		},
		{
			"anonymous": false,
			"inputs": [
				{
					"indexed": true,
					"internalType": "uint256",
					"name": "_fromTokenId",
					"type": "uint256"
				},
				{
					"indexed": true,
					"internalType": "uint256",
					"name": "_toTokenId",
					"type": "uint256"
				},
				{
					"indexed": false,
					"internalType": "uint256",
					"name": "_value",
					"type": "uint256"
				}
			],
			"name": "TransferValue",
			"type": "event"
		},
		{
			"inputs": [],
			"name": "_offchainReferenceID",
			"outputs": [
				{
					"internalType": "string",
					"name": "",
					"type": "string"
				}
			],
			"stateMutability": "view",
			"type": "function"
		},
		{
			"inputs": [],
			"name": "_ownerAddress",
			"outputs": [
				{
					"internalType": "address",
					"name": "",
					"type": "address"
				}
			],
			"stateMutability": "view",
			"type": "function"
		},
		{
			"inputs": [],
			"name": "_queryPrice",
			"outputs": [
				{
					"internalType": "uint256",
					"name": "",
					"type": "uint256"
				}
			],
			"stateMutability": "view",
			"type": "function"
		},
		{
			"inputs": [
				{
					"internalType": "uint256",
					"name": "tokenId_",
					"type": "uint256"
				},
				{
					"internalType": "address",
					"name": "operator_",
					"type": "address"
				}
			],
			"name": "allowance",
			"outputs": [
				{
					"internalType": "uint256",
					"name": "",
					"type": "uint256"
				}
			],
			"stateMutability": "view",
			"type": "function"
		},
		{
			"inputs": [
				{
					"internalType": "address",
					"name": "to_",
					"type": "address"
				},
				{
					"internalType": "uint256",
					"name": "tokenId_",
					"type": "uint256"
				}
			],
			"name": "approve",
			"outputs": [],
			"stateMutability": "payable",
			"type": "function"
		},
		{
			"inputs": [
				{
					"internalType": "uint256",
					"name": "tokenId_",
					"type": "uint256"
				},
				{
					"internalType": "address",
					"name": "to_",
					"type": "address"
				},
				{
					"internalType": "uint256",
					"name": "value_",
					"type": "uint256"
				}
			],
			"name": "approve",
			"outputs": [],
			"stateMutability": "payable",
			"type": "function"
		},
		{
			"inputs": [
				{
					"internalType": "address",
					"name": "owner_",
					"type": "address"
				}
			],
			"name": "balanceOf",
			"outputs": [
				{
					"internalType": "uint256",
					"name": "balance",
					"type": "uint256"
				}
			],
			"stateMutability": "view",
			"type": "function"
		},
		{
			"inputs": [
				{
					"internalType": "uint256",
					"name": "tokenId_",
					"type": "uint256"
				}
			],
			"name": "balanceOf",
			"outputs": [
				{
					"internalType": "uint256",
					"name": "",
					"type": "uint256"
				}
			],
			"stateMutability": "view",
			"type": "function"
		},
		{
			"inputs": [],
			"name": "baseURI",
			"outputs": [
				{
					"internalType": "string",
					"name": "",
					"type": "string"
				}
			],
			"stateMutability": "view",
			"type": "function"
		},
		{
			"inputs": [],
			"name": "contractURI",
			"outputs": [
				{
					"internalType": "string",
					"name": "",
					"type": "string"
				}
			],
			"stateMutability": "view",
			"type": "function"
		},
		{
			"inputs": [
				{
					"internalType": "uint256",
					"name": "tokenId_",
					"type": "uint256"
				}
			],
			"name": "getApproved",
			"outputs": [
				{
					"internalType": "address",
					"name": "",
					"type": "address"
				}
			],
			"stateMutability": "view",
			"type": "function"
		},
		{
			"inputs": [
				{
					"internalType": "address",
					"name": "owner_",
					"type": "address"
				},
				{
					"internalType": "address",
					"name": "operator_",
					"type": "address"
				}
			],
			"name": "isApprovedForAll",
			"outputs": [
				{
					"internalType": "bool",
					"name": "",
					"type": "bool"
				}
			],
			"stateMutability": "view",
			"type": "function"
		},
		{
			"inputs": [],
			"name": "metadataDescriptor",
			"outputs": [
				{
					"internalType": "contract IERC3525MetadataDescriptor",
					"name": "",
					"type": "address"
				}
			],
			"stateMutability": "view",
			"type": "function"
		},
		{
			"inputs": [
				{
					"internalType": "address",
					"name": "mintTo_",
					"type": "address"
				},
				{
					"internalType": "uint256",
					"name": "slot_",
					"type": "uint256"
				},
				{
					"internalType": "uint256",
					"name": "value_",
					"type": "uint256"
				}
			],
			"name": "mint",
			"outputs": [],
			"stateMutability": "nonpayable",
			"type": "function"
		},
		{
			"inputs": [
				{
					"internalType": "uint256",
					"name": "tokenId_",
					"type": "uint256"
				},
				{
					"internalType": "uint256",
					"name": "value_",
					"type": "uint256"
				}
			],
			"name": "mintValue",
			"outputs": [],
			"stateMutability": "nonpayable",
			"type": "function"
		},
		{
			"inputs": [],
			"name": "name",
			"outputs": [
				{
					"internalType": "string",
					"name": "",
					"type": "string"
				}
			],
			"stateMutability": "view",
			"type": "function"
		},
		{
			"inputs": [],
			"name": "offchainReferenceID",
			"outputs": [
				{
					"internalType": "string",
					"name": "",
					"type": "string"
				}
			],
			"stateMutability": "view",
			"type": "function"
		},
		{
			"inputs": [],
			"name": "owner",
			"outputs": [
				{
					"internalType": "address",
					"name": "",
					"type": "address"
				}
			],
			"stateMutability": "view",
			"type": "function"
		},
		{
			"inputs": [],
			"name": "ownerAddress",
			"outputs": [
				{
					"internalType": "address",
					"name": "",
					"type": "address"
				}
			],
			"stateMutability": "view",
			"type": "function"
		},
		{
			"inputs": [
				{
					"internalType": "uint256",
					"name": "tokenId_",
					"type": "uint256"
				}
			],
			"name": "ownerOf",
			"outputs": [
				{
					"internalType": "address",
					"name": "owner_",
					"type": "address"
				}
			],
			"stateMutability": "view",
			"type": "function"
		},
		{
			"inputs": [],
			"name": "queryPrice",
			"outputs": [
				{
					"internalType": "uint256",
					"name": "",
					"type": "uint256"
				}
			],
			"stateMutability": "view",
			"type": "function"
		},
		{
			"inputs": [],
			"name": "renounceOwnership",
			"outputs": [],
			"stateMutability": "nonpayable",
			"type": "function"
		},
		{
			"inputs": [
				{
					"internalType": "address",
					"name": "from_",
					"type": "address"
				},
				{
					"internalType": "address",
					"name": "to_",
					"type": "address"
				},
				{
					"internalType": "uint256",
					"name": "tokenId_",
					"type": "uint256"
				}
			],
			"name": "safeTransferFrom",
			"outputs": [],
			"stateMutability": "payable",
			"type": "function"
		},
		{
			"inputs": [
				{
					"internalType": "address",
					"name": "from_",
					"type": "address"
				},
				{
					"internalType": "address",
					"name": "to_",
					"type": "address"
				},
				{
					"internalType": "uint256",
					"name": "tokenId_",
					"type": "uint256"
				},
				{
					"internalType": "bytes",
					"name": "data_",
					"type": "bytes"
				}
			],
			"name": "safeTransferFrom",
			"outputs": [],
			"stateMutability": "payable",
			"type": "function"
		},
		{
			"inputs": [
				{
					"internalType": "address",
					"name": "operator_",
					"type": "address"
				},
				{
					"internalType": "bool",
					"name": "approved_",
					"type": "bool"
				}
			],
			"name": "setApprovalForAll",
			"outputs": [],
			"stateMutability": "nonpayable",
			"type": "function"
		},
		{
			"inputs": [
				{
					"internalType": "string",
					"name": "newuri",
					"type": "string"
				}
			],
			"name": "setBaseURI",
			"outputs": [],
			"stateMutability": "nonpayable",
			"type": "function"
		},
		{
			"inputs": [
				{
					"internalType": "uint256",
					"name": "_newprice",
					"type": "uint256"
				}
			],
			"name": "setQueryPrice",
			"outputs": [],
			"stateMutability": "nonpayable",
			"type": "function"
		},
		{
			"inputs": [
				{
					"internalType": "uint256",
					"name": "tokenId_",
					"type": "uint256"
				}
			],
			"name": "slotOf",
			"outputs": [
				{
					"internalType": "uint256",
					"name": "",
					"type": "uint256"
				}
			],
			"stateMutability": "view",
			"type": "function"
		},
		{
			"inputs": [
				{
					"internalType": "uint256",
					"name": "slot_",
					"type": "uint256"
				}
			],
			"name": "slotURI",
			"outputs": [
				{
					"internalType": "string",
					"name": "",
					"type": "string"
				}
			],
			"stateMutability": "view",
			"type": "function"
		},
		{
			"inputs": [
				{
					"internalType": "bytes4",
					"name": "interfaceId",
					"type": "bytes4"
				}
			],
			"name": "supportsInterface",
			"outputs": [
				{
					"internalType": "bool",
					"name": "",
					"type": "bool"
				}
			],
			"stateMutability": "view",
			"type": "function"
		},
		{
			"inputs": [],
			"name": "symbol",
			"outputs": [
				{
					"internalType": "string",
					"name": "",
					"type": "string"
				}
			],
			"stateMutability": "view",
			"type": "function"
		},
		{
			"inputs": [
				{
					"internalType": "uint256",
					"name": "index_",
					"type": "uint256"
				}
			],
			"name": "tokenByIndex",
			"outputs": [
				{
					"internalType": "uint256",
					"name": "",
					"type": "uint256"
				}
			],
			"stateMutability": "view",
			"type": "function"
		},
		{
			"inputs": [
				{
					"internalType": "address",
					"name": "owner_",
					"type": "address"
				},
				{
					"internalType": "uint256",
					"name": "index_",
					"type": "uint256"
				}
			],
			"name": "tokenOfOwnerByIndex",
			"outputs": [
				{
					"internalType": "uint256",
					"name": "",
					"type": "uint256"
				}
			],
			"stateMutability": "view",
			"type": "function"
		},
		{
			"inputs": [
				{
					"internalType": "uint256",
					"name": "tokenId_",
					"type": "uint256"
				}
			],
			"name": "tokenURI",
			"outputs": [
				{
					"internalType": "string",
					"name": "",
					"type": "string"
				}
			],
			"stateMutability": "view",
			"type": "function"
		},
		{
			"inputs": [],
			"name": "totalSupply",
			"outputs": [
				{
					"internalType": "uint256",
					"name": "",
					"type": "uint256"
				}
			],
			"stateMutability": "view",
			"type": "function"
		},
		{
			"inputs": [
				{
					"internalType": "uint256",
					"name": "fromTokenId_",
					"type": "uint256"
				},
				{
					"internalType": "address",
					"name": "to_",
					"type": "address"
				},
				{
					"internalType": "uint256",
					"name": "value_",
					"type": "uint256"
				}
			],
			"name": "transferFrom",
			"outputs": [
				{
					"internalType": "uint256",
					"name": "newTokenId",
					"type": "uint256"
				}
			],
			"stateMutability": "payable",
			"type": "function"
		},
		{
			"inputs": [
				{
					"internalType": "address",
					"name": "from_",
					"type": "address"
				},
				{
					"internalType": "address",
					"name": "to_",
					"type": "address"
				},
				{
					"internalType": "uint256",
					"name": "tokenId_",
					"type": "uint256"
				}
			],
			"name": "transferFrom",
			"outputs": [],
			"stateMutability": "payable",
			"type": "function"
		},
		{
			"inputs": [
				{
					"internalType": "uint256",
					"name": "fromTokenId_",
					"type": "uint256"
				},
				{
					"internalType": "uint256",
					"name": "toTokenId_",
					"type": "uint256"
				},
				{
					"internalType": "uint256",
					"name": "value_",
					"type": "uint256"
				}
			],
			"name": "transferFrom",
			"outputs": [],
			"stateMutability": "payable",
			"type": "function"
		},
		{
			"inputs": [
				{
					"internalType": "address",
					"name": "newOwner",
					"type": "address"
				}
			],
			"name": "transferOwnership",
			"outputs": [],
			"stateMutability": "nonpayable",
			"type": "function"
		},
		{
			"inputs": [],
			"name": "valueDecimals",
			"outputs": [
				{
					"internalType": "uint8",
					"name": "",
					"type": "uint8"
				}
			],
			"stateMutability": "view",
			"type": "function"
		}
	]
}