{
	"data": {
		"bytecode": {
			"linkReferences": {},
			"object": "608060405234801562000010575f80fd5b5060405162003ff438038062003ff48339810160408190526200003391620001d3565b600160035582828260128282828282825f620000508482620002e1565b5060016200005f8382620002e1565b506002805460ff191660ff929092169190911790555050506001600160a01b0386169450620000ac935050505057604051631e4fbdf760e01b81525f600482015260240160405180910390fd5b620000b781620000c1565b50505050620003ad565b600d80546001600160a01b038381166001600160a01b0319831681179093556040519116919082907f8be0079c531659141344cd1fd0a4f28419497f9722a3daafe3b4186f6b6457e0905f90a35050565b634e487b7160e01b5f52604160045260245ffd5b5f82601f83011262000136575f80fd5b81516001600160401b038082111562000153576200015362000112565b604051601f8301601f19908116603f011681019082821181831017156200017e576200017e62000112565b81604052838152602092508660208588010111156200019b575f80fd5b5f91505b83821015620001be57858201830151818301840152908201906200019f565b5f602085830101528094505050505092915050565b5f805f60608486031215620001e6575f80fd5b83516001600160a01b0381168114620001fd575f80fd5b60208501519093506001600160401b03808211156200021a575f80fd5b620002288783880162000126565b935060408601519150808211156200023e575f80fd5b506200024d8682870162000126565b9150509250925092565b600181811c908216806200026c57607f821691505b6020821081036200028b57634e487b7160e01b5f52602260045260245ffd5b50919050565b601f821115620002dc57805f5260205f20601f840160051c81016020851015620002b85750805b601f840160051c820191505b81811015620002d9575f8155600101620002c4565b50505b505050565b81516001600160401b03811115620002fd57620002fd62000112565b62000315816200030e845462000257565b8462000291565b602080601f8311600181146200034b575f8415620003335750858301515b5f19600386901b1c1916600185901b178555620003a5565b5f85815260208120601f198616915b828110156200037b578886015182559484019460019091019084016200035a565b50858210156200039957878501515f19600388901b60f8161c191681555b505060018460011b0185555b505050505050565b613c3980620003bb5f395ff3fe608060405260043610610248575f3560e01c806370a0823111610134578063a4ef8dcc116100b3578063e345f05e11610078578063e345f05e14610650578063e8a3d4851461069f578063e985e9c5146106b3578063ed08fa80146106fe578063f0e88e7f14610712578063f2fde38b14610731575f80fd5b8063a4ef8dcc146105cc578063b88d4fde146105eb578063c87b56dd146105fe578063cbb277bb1461061d578063e345e0bc14610631575f80fd5b80638e3ed45e116100f95780638e3ed45e1461053c57806395d89b411461055b578063993bef8d1461056f5780639cc7f7081461058e578063a22cb465146105ad575f80fd5b806370a08231146104ba578063715018a6146104d9578063840f7113146104ed5780638cb0a5111461050c5780638da5cb5b1461051f575f80fd5b8063263f3e7e116101cb5780634f6ccce7116101905780634f6ccce7146104175780634f8a0f831461043657806355cd4e061461045557806355f804b3146104685780636352211e146104875780636c0360eb146104a6575f80fd5b8063263f3e7e146103925780632f745c59146103b1578063310ed7f0146103d05780633e7e8669146103e357806342842e0e14610404575f80fd5b806309c3dd871161021157806309c3dd871461031a5780630f485c0214610339578063156e29f61461034c57806318160ddd1461036b57806323b872dd1461037f575f80fd5b8062cd01101461024c57806301ffc9a71461027e57806306fdde03146102ad578063081812fc146102ce578063095ea7b314610305575b5f80fd5b348015610257575f80fd5b5061026b610266366004613346565b610750565b6040519081526020015b60405180910390f35b348015610289575f80fd5b5061029d61029836600461337b565b610820565b6040519015158152602001610275565b3480156102b8575f80fd5b506102c1610844565b60405161027591906133e3565b3480156102d9575f80fd5b506102ed6102e83660046133f5565b6108d3565b6040516001600160a01b039091168152602001610275565b610318610313366004613422565b610922565b005b348015610325575f80fd5b506102c16103343660046133f5565b610a1a565b61026b61034736600461344a565b610af8565b348015610357575f80fd5b5061031861036636600461347c565b610b0c565b348015610376575f80fd5b5060055461026b565b61031861038d3660046134ac565b610b1f565b34801561039d575f80fd5b5061026b6103ac3660046133f5565b610b55565b3480156103bc575f80fd5b5061026b6103cb366004613422565b610b99565b6103186103de3660046134d5565b610c25565b3480156103ee575f80fd5b5060025460405160ff9091168152602001610275565b6103186104123660046134ac565b610c30565b348015610422575f80fd5b5061026b6104313660046133f5565b610c4a565b348015610441575f80fd5b5061026b6104503660046133f5565b610cd7565b61031861046336600461350b565b610d28565b348015610473575f80fd5b506103186104823660046135fe565b610dc2565b348015610492575f80fd5b506102ed6104a13660046133f5565b610dda565b3480156104b1575f80fd5b506102c1610e73565b3480156104c5575f80fd5b5061026b6104d4366004613643565b610eff565b3480156104e4575f80fd5b50610318610f85565b3480156104f8575f80fd5b506008546102ed906001600160a01b031681565b61031861051a36600461344a565b610f98565b34801561052a575f80fd5b50600d546001600160a01b03166102ed565b348015610547575f80fd5b5061026b6105563660046133f5565b611050565b348015610566575f80fd5b506102c16111a2565b34801561057a575f80fd5b5061026b6105893660046133f5565b6111b1565b348015610599575f80fd5b5061026b6105a83660046133f5565b61124a565b3480156105b8575f80fd5b506103186105c736600461365c565b61128e565b3480156105d7575f80fd5b5061026b6105e63660046133f5565b611299565b6103186105f9366004613691565b6112e3565b348015610609575f80fd5b506102c16106183660046133f5565b611315565b348015610628575f80fd5b5061026b6113a4565b34801561063c575f80fd5b5061026b61064b366004613708565b611427565b34801561065b575f80fd5b5061029d61066a366004613732565b6001600160a01b039283165f908152600c60209081526040808320948352938152838220929094168152925290205460ff1690565b3480156106aa575f80fd5b506102c1611459565b3480156106be575f80fd5b5061029d6106cd36600461376b565b6001600160a01b039182165f9081526007602090815260408083209390941682526002909201909152205460ff1690565b348015610709575f80fd5b50600a5461026b565b34801561071d575f80fd5b5061031861072c366004613346565b611538565b34801561073c575f80fd5b5061031861074b366004613643565b61154a565b5f61075a83610cd7565b82106107cb5760405162461bcd60e51b815260206004820152603560248201527f45524333353235536c6f74456e756d657261626c653a20736c6f7420746f6b656044820152746e20696e646578206f7574206f6620626f756e647360581b60648201526084015b60405180910390fd5b5f838152600b6020526040902054600a805490919081106107ee576107ee613793565b905f5260205f209060020201600101828154811061080e5761080e613793565b905f5260205f20015490505b92915050565b5f6001600160e01b031982166316d117cb60e31b148061081a575061081a82611587565b60605f8054610852906137a7565b80601f016020809104026020016040519081016040528092919081815260200182805461087e906137a7565b80156108c95780601f106108a0576101008083540402835291602001916108c9565b820191905f5260205f20905b8154815290600101906020018083116108ac57829003601f168201915b5050505050905090565b5f6108dd826115ab565b5f8281526006602052604090205460058054909190811061090057610900613793565b5f9182526020909120600460069092020101546001600160a01b031692915050565b5f61092c82610dda565b90505f61093883610b55565b9050816001600160a01b0316846001600160a01b03160361096b5760405162461bcd60e51b81526004016107c2906137df565b336001600160a01b0383161480610987575061098782336106cd565b80610998575061099882823361066a565b610a0a5760405162461bcd60e51b815260206004820152603e60248201527f455243333532353a20617070726f76652063616c6c6572206973206e6f74206f60448201527f776e6572206e6f7220617070726f76656420666f7220616c6c2f736c6f74000060648201526084016107c2565b610a1484846115fc565b50505050565b60605f610a25611691565b6008549091506001600160a01b0316610a83575f815111610a545760405180602001604052805f815250610af1565b80610a5e846116a0565b604051602001610a6f929190613821565b604051602081830303815290604052610af1565b600854604051633601bfc560e11b8152600481018590526001600160a01b0390911690636c037f8a906024015b5f60405180830381865afa158015610aca573d5f803e3d5ffd5b505050506040513d5f823e601f3d908101601f19168201604052610af19190810190613860565b9392505050565b5f610b04848484611730565b949350505050565b610b14611766565b610a14838383611793565b610b2933826117aa565b610b455760405162461bcd60e51b81526004016107c2906138c9565b610b50838383611855565b505050565b5f610b5f826115ab565b5f82815260066020526040902054600580549091908110610b8257610b82613793565b905f5260205f209060060201600101549050919050565b5f610ba383610eff565b8210610bfc5760405162461bcd60e51b815260206004820152602260248201527f455243333532353a206f776e657220696e646578206f7574206f6620626f756e604482015261647360f01b60648201526084016107c2565b6001600160a01b0383165f90815260076020526040902080548390811061080e5761080e613793565b610b508383836119d1565b610b5083838360405180602001604052805f8152506112e3565b5f610c5460055490565b8210610cae5760405162461bcd60e51b815260206004820152602360248201527f455243333532353a20676c6f62616c20696e646578206f7574206f6620626f756044820152626e647360e81b60648201526084016107c2565b60058281548110610cc157610cc1613793565b905f5260205f2090600602015f01549050919050565b5f610ce1826119e7565b610cec57505f919050565b5f828152600b6020526040902054600a80549091908110610d0f57610d0f613793565b5f91825260209091206001600290920201015492915050565b336001600160a01b0385161480610d445750610d4484336106cd565b610db65760405162461bcd60e51b815260206004820152603f60248201527f45524333353235536c6f74417070726f7661626c653a2063616c6c657220697360448201527f206e6f74206f776e6572206e6f7220617070726f76656420666f7220616c6c0060648201526084016107c2565b610a1484848484611a2e565b610dca611766565b600e610dd6828261395f565b5050565b5f610de4826115ab565b5f82815260066020526040902054600580549091908110610e0757610e07613793565b5f9182526020909120600360069092020101546001600160a01b0316905080610e6e5760405162461bcd60e51b8152602060048201526019602482015278115490cccd4c8d4e881a5b9d985b1a59081d1bdad95b881251603a1b60448201526064016107c2565b919050565b600e8054610e80906137a7565b80601f0160208091040260200160405190810160405280929190818152602001828054610eac906137a7565b8015610ef75780601f10610ece57610100808354040283529160200191610ef7565b820191905f5260205f20905b815481529060010190602001808311610eda57829003601f168201915b505050505081565b5f6001600160a01b038216610f6a5760405162461bcd60e51b815260206004820152602b60248201527f455243333532353a2062616c616e636520717565727920666f7220746865207a60448201526a65726f206164647265737360a81b60648201526084016107c2565b506001600160a01b03165f9081526007602052604090205490565b610f8d611766565b610f965f611b17565b565b5f610fa284610dda565b9050806001600160a01b0316836001600160a01b031603610fd55760405162461bcd60e51b81526004016107c2906137df565b610fdf33856117aa565b6110455760405162461bcd60e51b815260206004820152603160248201527f455243333532353a20617070726f76652063616c6c6572206973206e6f74206f6044820152701ddb995c881b9bdc88185c1c1c9bdd9959607a1b60648201526084016107c2565b610a14848484611b68565b5f80611064600d546001600160a01b031690565b90505f816001600160a01b03166313d18a246040518163ffffffff1660e01b8152600401602060405180830381865afa1580156110a3573d5f803e3d5ffd5b505050506040513d601f19601f820116820180604052508101906110c79190613a1b565b9050806110d385610b55565b146111165760405162461bcd60e51b8152602060048201526013602482015272139bc81b585d18da081cda185c99481cdb1bdd606a1b60448201526064016107c2565b61111f84611299565b6111288561124a565b6111329190613a46565b60405163140e29cb60e31b81523060048201526001600160a01b0384169063a0714e5890602401602060405180830381865afa158015611174573d5f803e3d5ffd5b505050506040513d601f19601f820116820180604052508101906111989190613a1b565b610b049190613a65565b606060018054610852906137a7565b5f6111bb600a5490565b82106112215760405162461bcd60e51b815260206004820152602f60248201527f45524333353235536c6f74456e756d657261626c653a20736c6f7420696e646560448201526e78206f7574206f6620626f756e647360881b60648201526084016107c2565b600a828154811061123457611234613793565b905f5260205f2090600202015f01549050919050565b5f611254826115ab565b5f8281526006602052604090205460058054909190811061127757611277613793565b905f5260205f209060060201600201549050919050565b610dd6338383611c9d565b5f80805b6112a684610cd7565b8110156112dc575f6112b88583610750565b90505f6112c48261124a565b90506112d08185613a7c565b9350505060010161129d565b5092915050565b6112ed33836117aa565b6113095760405162461bcd60e51b81526004016107c2906138c9565b610a1484848484611d66565b6060611320826115ab565b5f611329611691565b6008549091506001600160a01b0316611373575f8151116113585760405180602001604052805f815250610af1565b80611362846116a0565b604051602001610a6f929190613a8f565b6008546040516344a5a61760e11b8152600481018590526001600160a01b039091169063894b4c2e90602401610ab0565b5f806113b8600d546001600160a01b031690565b60405163140e29cb60e31b81523060048201529091506001600160a01b0382169063a0714e5890602401602060405180830381865afa1580156113fd573d5f803e3d5ffd5b505050506040513d601f19601f820116820180604052508101906114219190613a1b565b91505090565b5f611431836115ab565b505f9182526004602090815260408084206001600160a01b0393909316845291905290205490565b60605f611464611691565b6008549091506001600160a01b03166114c2575f8151116114935760405180602001604052805f815250611421565b8061149d30611dd9565b6040516020016114ae929190613abd565b604051602081830303815290604052611421565b60085f9054906101000a90046001600160a01b03166001600160a01b031663725fa09c6040518163ffffffff1660e01b81526004015f60405180830381865afa158015611511573d5f803e3d5ffd5b505050506040513d5f823e601f3d908101601f191682016040526114219190810190613860565b611540611766565b610dd68282611def565b611552611766565b6001600160a01b03811661157b57604051631e4fbdf760e01b81525f60048201526024016107c2565b61158481611b17565b50565b5f6001600160e01b03198216631dba0dcf60e11b148061081a575061081a82611e2d565b6115b481611ece565b6115845760405162461bcd60e51b8152602060048201526019602482015278115490cccd4c8d4e881a5b9d985b1a59081d1bdad95b881251603a1b60448201526064016107c2565b5f8181526006602052604090205460058054849290811061161f5761161f613793565b5f918252602090912060069091020160040180546001600160a01b0319166001600160a01b039283161790558190831661165882610dda565b6001600160a01b03167f8c5be1e5ebec7d5bd14f71427d1e84f3dd0314c0f7b2291e5b200ac8c7c3b92560405160405180910390a45050565b6060600e8054610852906137a7565b60605f6116ac83611f15565b60010190505f8167ffffffffffffffff8111156116cb576116cb613557565b6040519080825280601f01601f1916602001820160405280156116f5576020820181803683370190505b5090508181016020015b5f19016f181899199a1a9b1b9c1cb0b131b232b360811b600a86061a8153600a85049450846116ff57509392505050565b5f61173c338584611fec565b6117458461207a565b905061175b838261175587610b55565b5f612083565b610af18482846121c3565b600d546001600160a01b03163314610f965760405163118cdaa760e01b81523360048201526024016107c2565b5f61179c6124ff565b9050610af184828585612083565b5f6117b4826115ab565b5f6117be83610dda565b90505f6117ca84610b55565b9050816001600160a01b0316856001600160a01b031614806118055750846001600160a01b03166117fa856108d3565b6001600160a01b0316145b80611815575061181582866106cd565b8061184c57506001600160a01b038083165f908152600c6020908152604080832085845282528083209389168352929052205460ff165b95945050505050565b826001600160a01b031661186882610dda565b6001600160a01b0316146118ca5760405162461bcd60e51b8152602060048201526024808201527f455243333532353a207472616e736665722066726f6d20696e76616c6964206f6044820152633bb732b960e11b60648201526084016107c2565b6001600160a01b03821661192e5760405162461bcd60e51b815260206004820152602560248201527f455243333532353a207472616e7366657220746f20746865207a65726f206164604482015264647265737360d81b60648201526084016107c2565b5f61193882610b55565b90505f6119448361124a565b9050611954858585868686612518565b61195e5f846115fc565b61196783612555565b61197185846125f1565b61197b8484612704565b82846001600160a01b0316866001600160a01b03167fddf252ad1be2c89b69c2b068fc378daa952ba7f163c4a11628f55a4df523b3ef60405160405180910390a46119ca85858586868661278b565b5050505050565b6119dc338483611fec565b610b508383836121c3565b600a545f901580159061081a57505f828152600b6020526040902054600a80548492908110611a1857611a18613793565b905f5260205f2090600202015f01541492915050565b816001600160a01b0316846001600160a01b031603611a9f5760405162461bcd60e51b815260206004820152602760248201527f45524333353235536c6f74417070726f7661626c653a20617070726f76652074604482015266379037bbb732b960c91b60648201526084016107c2565b6001600160a01b038481165f818152600c60209081526040808320888452825280832094871680845294825291829020805460ff191686151590811790915591519182528692917f7bdf71e6625aa496095bf08b60c677cf81c963f402cf258981e3bd7507d3480c910160405180910390a450505050565b600d80546001600160a01b038381166001600160a01b0319831681179093556040519116919082907f8be0079c531659141344cd1fd0a4f28419497f9722a3daafe3b4186f6b6457e0905f90a35050565b6001600160a01b038216611bd15760405162461bcd60e51b815260206004820152602a60248201527f455243333532353a20617070726f76652076616c756520746f20746865207a65604482015269726f206164647265737360b01b60648201526084016107c2565b611bdb82846127fc565b611c3f575f83815260066020526040902054600580549091908110611c0257611c02613793565b5f9182526020808320600692909202909101600501805460018101825590835291200180546001600160a01b0319166001600160a01b0384161790555b5f8381526004602090815260408083206001600160a01b038616808552908352928190208490555183815285917f621b050de0ad08b51d19b48b3e6df75348c4de6bdd93e81b252ca62e28265b1b91015b60405180910390a3505050565b816001600160a01b0316836001600160a01b031603611cfe5760405162461bcd60e51b815260206004820152601a60248201527f455243333532353a20617070726f766520746f2063616c6c657200000000000060448201526064016107c2565b6001600160a01b038381165f8181526007602090815260408083209487168084526002909501825291829020805460ff191686151590811790915591519182527f17307eab39ab6107e8899845ad3d59bd9653f200f220920489ca2b5937696c319101611c90565b611d71848484611855565b611d7d848484846128be565b610a145760405162461bcd60e51b815260206004820152602760248201527f455243333532353a207472616e7366657220746f206e6f6e204552433732315260448201526632b1b2b4bb32b960c91b60648201526084016107c2565b606061081a6001600160a01b0383166014612a03565b5f611df983610dda565b90505f611e0584610b55565b9050611e155f835f878588612518565b611e1f8484612b75565b610a145f835f87858861278b565b5f6001600160e01b031982166301ffc9a760e01b1480611e5d57506001600160e01b03198216630354d60560e61b145b80611e7857506001600160e01b031982166380ac58cd60e01b145b80611e9357506001600160e01b031982166370b0048160e11b145b80611eae57506001600160e01b0319821663780e9d6360e01b145b8061081a57506001600160e01b03198216635b5e139f60e01b1492915050565b6005545f901580159061081a57505f82815260066020526040902054600580548492908110611eff57611eff613793565b905f5260205f2090600602015f01541492915050565b5f8072184f03e93ff9f4daa797ed6e38ed64bf6a1f0160401b8310611f535772184f03e93ff9f4daa797ed6e38ed64bf6a1f0160401b830492506040015b6d04ee2d6d415b85acef81000000008310611f7f576d04ee2d6d415b85acef8100000000830492506020015b662386f26fc100008310611f9d57662386f26fc10000830492506010015b6305f5e1008310611fb5576305f5e100830492506008015b6127108310611fc957612710830492506004015b60648310611fdb576064830492506002015b600a831061081a5760010192915050565b5f611ff78385611427565b905061200384846117aa565b15801561201157505f198114155b15610a1457818110156120665760405162461bcd60e51b815260206004820152601f60248201527f455243333532353a20696e73756666696369656e7420616c6c6f77616e63650060448201526064016107c2565b610a1483856120758585613b00565b611b68565b5f61081a6124ff565b6001600160a01b0384166120e35760405162461bcd60e51b815260206004820152602160248201527f455243333532353a206d696e7420746f20746865207a65726f206164647265736044820152607360f81b60648201526084016107c2565b825f0361213c5760405162461bcd60e51b815260206004820152602160248201527f455243333532353a2063616e6e6f74206d696e74207a65726f20746f6b656e496044820152601960fa1b60648201526084016107c2565b61214583611ece565b156121925760405162461bcd60e51b815260206004820152601d60248201527f455243333532353a20746f6b656e20616c7265616479206d696e74656400000060448201526064016107c2565b6121a05f855f868686612518565b6121ab848484612bf5565b6121b58382612b75565b610a145f855f86868661278b565b6121cc83611ece565b6122285760405162461bcd60e51b815260206004820152602760248201527f455243333532353a207472616e736665722066726f6d20696e76616c696420746044820152661bdad95b88125160ca1b60648201526084016107c2565b61223182611ece565b61228b5760405162461bcd60e51b815260206004820152602560248201527f455243333532353a207472616e7366657220746f20696e76616c696420746f6b604482015264195b88125160da1b60648201526084016107c2565b5f838152600660205260408120546005805490919081106122ae576122ae613793565b905f5260205f20906006020190505f600560065f8681526020019081526020015f2054815481106122e1576122e1613793565b905f5260205f209060060201905082826002015410156123565760405162461bcd60e51b815260206004820152602a60248201527f455243333532353a20696e73756666696369656e742062616c616e636520666f60448201526939103a3930b739b332b960b11b60648201526084016107c2565b80600101548260010154146123c45760405162461bcd60e51b815260206004820152602e60248201527f455243333532353a207472616e7366657220746f20746f6b656e20776974682060448201526d191a5999995c995b9d081cdb1bdd60921b60648201526084016107c2565b6003808301549082015460018401546123ef926001600160a01b039081169216908890889088612518565b82826002015f8282546124029190613b00565b9250508190555082816002015f82825461241c9190613a7c565b9091555050604051838152849086907f0b2aac84f3ec956911fd78eae5311062972ff949f38412e8da39069d9f068cc69060200160405180910390a3600380830154908201546001840154612483926001600160a01b03908116921690889088908861278b565b61249d85858560405180602001604052805f815250612cb8565b6119ca5760405162461bcd60e51b815260206004820152602d60248201527f455243333532353a207472616e736665722072656a656374656420627920455260448201526c21999a991aa932b1b2b4bb32b960991b60648201526084016107c2565b600380545f918261250f83613b13565b91905055905090565b6001600160a01b03861615801561252d575083155b801561253f575061253d826119e7565b155b1561254d5761254d82612e22565b505050505050565b5f8181526006602052604081205460058054909190811061257857612578613793565b5f91825260208220600560069092020190810154909250905b818110156125e3575f8360050182815481106125af576125af613793565b5f9182526020808320909101548783526004825260408084206001600160a01b039092168452915281205550600101612591565b50610b50600583015f61327b565b5f8181526006602052604081205460058054909190811061261457612614613793565b5f918252602080832060069290920290910160030180546001600160a01b0319166001600160a01b039485161790559184168152600790915260408120805490919061266290600190613b00565b90505f825f01828154811061267957612679613793565b905f5260205f20015490505f836001015f8681526020019081526020015f2054905081845f0182815481106126b0576126b0613793565b5f91825260208083209091019290925583815260018601909152604080822083905586825281205583548490806126e9576126e9613b2b565b600190038181905f5260205f20015f90559055505050505050565b5f8181526006602052604090205460058054849290811061272757612727613793565b5f918252602080832060069290920290910160030180546001600160a01b0319166001600160a01b03948516179055939091168152600780845260408083208054858552600182810188529285208190559286529082018155825292902090910155565b6001600160a01b0386161580156127a0575083155b80156127b357506127b18284612ee7565b155b156127c7576127c28284612f6b565b61254d565b6001600160a01b0385161580156127dc575082155b80156127ed57506127ed8285612ee7565b156127c2576127c28285612fca565b5f8181526006602052604081205460058054839290811061281f5761281f613793565b5f918252602082206005600690920201015491505b818110156128b4575f84815260066020526040902054600580546001600160a01b0388169290811061286857612868613793565b905f5260205f209060060201600501828154811061288857612888613793565b5f918252602090912001546001600160a01b0316036128ac5760019250505061081a565b600101612834565b505f949350505050565b5f833b63ffffffff16156129f857604051630a85bd0160e11b81526001600160a01b0385169063150b7a02906128fe903390899088908890600401613b3f565b6020604051808303815f875af1925050508015612938575060408051601f3d908101601f1916820190925261293591810190613b7b565b60015b6129de573d808015612965576040519150601f19603f3d011682016040523d82523d5f602084013e61296a565b606091505b5080515f036129d65760405162461bcd60e51b815260206004820152603260248201527f4552433732313a207472616e7366657220746f206e6f6e20455243373231526560448201527131b2b4bb32b91034b6b83632b6b2b73a32b960711b60648201526084016107c2565b805181602001fd5b6001600160e01b031916630a85bd0160e11b149050610b04565b506001949350505050565b6060825f612a12846002613a65565b612a1d906002613a7c565b67ffffffffffffffff811115612a3557612a35613557565b6040519080825280601f01601f191660200182016040528015612a5f576020820181803683370190505b509050600360fc1b815f81518110612a7957612a79613793565b60200101906001600160f81b03191690815f1a905350600f60fb1b81600181518110612aa757612aa7613793565b60200101906001600160f81b03191690815f1a9053505f612ac9856002613a65565b612ad4906001613a7c565b90505b6001811115612b4b576f181899199a1a9b1b9c1cb0b131b232b360811b83600f1660108110612b0857612b08613793565b1a60f81b828281518110612b1e57612b1e613793565b60200101906001600160f81b03191690815f1a90535060049290921c91612b4481613b96565b9050612ad7565b508115610b045760405163e22e27eb60e01b815260048101869052602481018590526044016107c2565b5f82815260066020526040902054600580548392908110612b9857612b98613793565b905f5260205f2090600602016002015f828254612bb59190613a7c565b909155505060405181815282905f907f0b2aac84f3ec956911fd78eae5311062972ff949f38412e8da39069d9f068cc69060200160405180910390a35050565b6040805160c08101825283815260208082018490525f8284018190526001600160a01b038716606084015260808301819052835181815291820190935260a08201529050612c42816130a9565b612c4c8484612704565b60405183906001600160a01b038616905f907fddf252ad1be2c89b69c2b068fc378daa952ba7f163c4a11628f55a4df523b3ef908290a4815f847fe4f48c240d3b994948aa54f3e2f5fca59263dfe1d52b6e4cf39a5d249b5ccb6560405160405180910390a450505050565b5f80612cc385610dda565b9050803b63ffffffff1615612e18576040516301ffc9a760e01b8152629ce20b60e01b60048201526001600160a01b038216906301ffc9a790602401602060405180830381865afa925050508015612d38575060408051601f3d908101601f19168201909252612d3591810190613bab565b60015b612d76573d808015612d65576040519150601f19603f3d011682016040523d82523d5f602084013e612d6a565b606091505b50600192505050610b04565b8015612e0d57604051629ce20b60e01b81525f906001600160a01b03841690629ce20b90612db09033908c908c908c908c90600401613bc6565b6020604051808303815f875af1158015612dcc573d5f803e3d5ffd5b505050506040513d601f19601f82011682018060405250810190612df09190613b7b565b6001600160e01b031916629ce20b60e01b149350610b0492505050565b600192505050610b04565b6001915050610b04565b612e2b816119e7565b15612e8b5760405162461bcd60e51b815260206004820152602a60248201527f45524333353235536c6f74456e756d657261626c653a20736c6f7420616c72656044820152696164792065786973747360b01b60648201526084016107c2565b60408051808201825282815281515f8082526020828101909452928201529050612eb4816131f7565b815f807fe4f48c240d3b994948aa54f3e2f5fca59263dfe1d52b6e4cf39a5d249b5ccb6560405160405180910390a45050565b5f828152600b6020526040812054600a80548392908110612f0a57612f0a613793565b905f5260205f20906002020190505f8160010180549050118015610b0457505f8481526009602090815260408083208684529091529020546001820180548592908110612f5957612f59613793565b905f5260205f20015414949350505050565b5f828152600b6020526040812054600a80549091908110612f8e57612f8e613793565b5f918252602080832060016002909302018201805496845260098252604080852087865283528420879055918601825590825290209092015550565b5f828152600b6020526040812054600a80549091908110612fed57612fed613793565b5f9182526020822060016002909202018181015490935061300e9190613b00565b90505f82600101828154811061302657613026613793565b5f91825260208083209091015487835260098252604080842088855290925291205460018501805492935090918391908390811061306657613066613793565b5f9182526020808320919091019290925587815260098252604080822085835290925281812083905586815290812055600184018054806126e9576126e9613b2b565b6005805482515f90815260066020818152604080842085905560018501865594909252845192027f036b6384b5eca791c62761152d0c79bb0604c104a5fb6f4eb0703f3154bb3db08101928355818501517f036b6384b5eca791c62761152d0c79bb0604c104a5fb6f4eb0703f3154bb3db1820155928401517f036b6384b5eca791c62761152d0c79bb0604c104a5fb6f4eb0703f3154bb3db284015560608401517f036b6384b5eca791c62761152d0c79bb0604c104a5fb6f4eb0703f3154bb3db3840180546001600160a01b039283166001600160a01b03199182161790915560808601517f036b6384b5eca791c62761152d0c79bb0604c104a5fb6f4eb0703f3154bb3db48601805491909316911617905560a084015180518594610a14937f036b6384b5eca791c62761152d0c79bb0604c104a5fb6f4eb0703f3154bb3db5909101920190613296565b600a805482515f908152600b602090815260408220839055600183018455929052825160029091027fc65a7bb8d6351c1cf70c95a316cc6a92839c986682d98bc35f958f4883f9d2a881019182558284015180518594610a14937fc65a7bb8d6351c1cf70c95a316cc6a92839c986682d98bc35f958f4883f9d2a9019201906132f9565b5080545f8255905f5260205f20908101906115849190613332565b828054828255905f5260205f209081019282156132e9579160200282015b828111156132e957825182546001600160a01b0319166001600160a01b039091161782556020909201916001909101906132b4565b506132f5929150613332565b5090565b828054828255905f5260205f209081019282156132e9579160200282015b828111156132e9578251825591602001919060010190613317565b5b808211156132f5575f8155600101613333565b5f8060408385031215613357575f80fd5b50508035926020909101359150565b6001600160e01b031981168114611584575f80fd5b5f6020828403121561338b575f80fd5b8135610af181613366565b5f5b838110156133b0578181015183820152602001613398565b50505f910152565b5f81518084526133cf816020860160208601613396565b601f01601f19169290920160200192915050565b602081525f610af160208301846133b8565b5f60208284031215613405575f80fd5b5035919050565b80356001600160a01b0381168114610e6e575f80fd5b5f8060408385031215613433575f80fd5b61343c8361340c565b946020939093013593505050565b5f805f6060848603121561345c575f80fd5b8335925061346c6020850161340c565b9150604084013590509250925092565b5f805f6060848603121561348e575f80fd5b6134978461340c565b95602085013595506040909401359392505050565b5f805f606084860312156134be575f80fd5b6134c78461340c565b925061346c6020850161340c565b5f805f606084860312156134e7575f80fd5b505081359360208301359350604090920135919050565b8015158114611584575f80fd5b5f805f806080858703121561351e575f80fd5b6135278561340c565b93506020850135925061353c6040860161340c565b9150606085013561354c816134fe565b939692955090935050565b634e487b7160e01b5f52604160045260245ffd5b604051601f8201601f1916810167ffffffffffffffff8111828210171561359457613594613557565b604052919050565b5f67ffffffffffffffff8211156135b5576135b5613557565b50601f01601f191660200190565b5f6135d56135d08461359c565b61356b565b90508281528383830111156135e8575f80fd5b828260208301375f602084830101529392505050565b5f6020828403121561360e575f80fd5b813567ffffffffffffffff811115613624575f80fd5b8201601f81018413613634575f80fd5b610b04848235602084016135c3565b5f60208284031215613653575f80fd5b610af18261340c565b5f806040838503121561366d575f80fd5b6136768361340c565b91506020830135613686816134fe565b809150509250929050565b5f805f80608085870312156136a4575f80fd5b6136ad8561340c565b93506136bb6020860161340c565b925060408501359150606085013567ffffffffffffffff8111156136dd575f80fd5b8501601f810187136136ed575f80fd5b6136fc878235602084016135c3565b91505092959194509250565b5f8060408385031215613719575f80fd5b823591506137296020840161340c565b90509250929050565b5f805f60608486031215613744575f80fd5b61374d8461340c565b9250602084013591506137626040850161340c565b90509250925092565b5f806040838503121561377c575f80fd5b6137858361340c565b91506137296020840161340c565b634e487b7160e01b5f52603260045260245ffd5b600181811c908216806137bb57607f821691505b6020821081036137d957634e487b7160e01b5f52602260045260245ffd5b50919050565b60208082526022908201527f455243333532353a20617070726f76616c20746f2063757272656e74206f776e60408201526132b960f11b606082015260800190565b5f8351613832818460208801613396565b64736c6f742f60d81b9083019081528351613854816005840160208801613396565b01600501949350505050565b5f60208284031215613870575f80fd5b815167ffffffffffffffff811115613886575f80fd5b8201601f81018413613896575f80fd5b80516138a46135d08261359c565b8181528560208385010111156138b8575f80fd5b61184c826020830160208601613396565b60208082526032908201527f455243333532353a207472616e736665722063616c6c6572206973206e6f74206040820152711bdddb995c881b9bdc88185c1c1c9bdd995960721b606082015260800190565b601f821115610b5057805f5260205f20601f840160051c810160208510156139405750805b601f840160051c820191505b818110156119ca575f815560010161394c565b815167ffffffffffffffff81111561397957613979613557565b61398d8161398784546137a7565b8461391b565b602080601f8311600181146139c0575f84156139a95750858301515b5f19600386901b1c1916600185901b17855561254d565b5f85815260208120601f198616915b828110156139ee578886015182559484019460019091019084016139cf565b5085821015613a0b57878501515f19600388901b60f8161c191681555b5050505050600190811b01905550565b5f60208284031215613a2b575f80fd5b5051919050565b634e487b7160e01b5f52601160045260245ffd5b5f82613a6057634e487b7160e01b5f52601260045260245ffd5b500490565b808202811582820484141761081a5761081a613a32565b8082018082111561081a5761081a613a32565b5f8351613aa0818460208801613396565b835190830190613ab4818360208801613396565b01949350505050565b5f8351613ace818460208801613396565b68636f6e74726163742f60b81b9083019081528351613af4816009840160208801613396565b01600901949350505050565b8181038181111561081a5761081a613a32565b5f60018201613b2457613b24613a32565b5060010190565b634e487b7160e01b5f52603160045260245ffd5b6001600160a01b03858116825284166020820152604081018390526080606082018190525f90613b71908301846133b8565b9695505050505050565b5f60208284031215613b8b575f80fd5b8151610af181613366565b5f81613ba457613ba4613a32565b505f190190565b5f60208284031215613bbb575f80fd5b8151610af1816134fe565b60018060a01b038616815284602082015283604082015282606082015260a060808201525f613bf860a08301846133b8565b97965050505050505056fea264697066735822122045b69c362ca66529a8113fe377205ba2437fdbdb8d62391d3039ad7cfec4acdf64736f6c63430008160033",
			"opcodes": "PUSH1 0x80 PUSH1 0x40 MSTORE CALLVALUE DUP1 ISZERO PUSH3 0x10 JUMPI PUSH0 DUP1 REVERT JUMPDEST POP PUSH1 0x40 MLOAD PUSH3 0x3FF4 CODESIZE SUB DUP1 PUSH3 0x3FF4 DUP4 CODECOPY DUP2 ADD PUSH1 0x40 DUP2 SWAP1 MSTORE PUSH3 0x33 SWAP2 PUSH3 0x1D3 JUMP JUMPDEST PUSH1 0x1 PUSH1 0x3 SSTORE DUP3 DUP3 DUP3 PUSH1 0x12 DUP3 DUP3 DUP3 DUP3 DUP3 DUP3 PUSH0 PUSH3 0x50 DUP5 DUP3 PUSH3 0x2E1 JUMP JUMPDEST POP PUSH1 0x1 PUSH3 0x5F DUP4 DUP3 PUSH3 0x2E1 JUMP JUMPDEST POP PUSH1 0x2 DUP1 SLOAD PUSH1 0xFF NOT AND PUSH1 0xFF SWAP3 SWAP1 SWAP3 AND SWAP2 SWAP1 SWAP2 OR SWAP1 SSTORE POP POP POP PUSH1 0x1 PUSH1 0x1 PUSH1 0xA0 SHL SUB DUP7 AND SWAP5 POP PUSH3 0xAC SWAP4 POP POP POP POP JUMPI PUSH1 0x40 MLOAD PUSH4 0x1E4FBDF7 PUSH1 0xE0 SHL DUP2 MSTORE PUSH0 PUSH1 0x4 DUP3 ADD MSTORE PUSH1 0x24 ADD PUSH1 0x40 MLOAD DUP1 SWAP2 SUB SWAP1 REVERT JUMPDEST PUSH3 0xB7 DUP2 PUSH3 0xC1 JUMP JUMPDEST POP POP POP POP PUSH3 0x3AD JUMP JUMPDEST PUSH1 0xD DUP1 SLOAD PUSH1 0x1 PUSH1 0x1 PUSH1 0xA0 SHL SUB DUP4 DUP2 AND PUSH1 0x1 PUSH1 0x1 PUSH1 0xA0 SHL SUB NOT DUP4 AND DUP2 OR SWAP1 SWAP4 SSTORE PUSH1 0x40 MLOAD SWAP2 AND SWAP2 SWAP1 DUP3 SWAP1 PUSH32 0x8BE0079C531659141344CD1FD0A4F28419497F9722A3DAAFE3B4186F6B6457E0 SWAP1 PUSH0 SWAP1 LOG3 POP POP JUMP JUMPDEST PUSH4 0x4E487B71 PUSH1 0xE0 SHL PUSH0 MSTORE PUSH1 0x41 PUSH1 0x4 MSTORE PUSH1 0x24 PUSH0 REVERT JUMPDEST PUSH0 DUP3 PUSH1 0x1F DUP4 ADD SLT PUSH3 0x136 JUMPI PUSH0 DUP1 REVERT JUMPDEST DUP2 MLOAD PUSH1 0x1 PUSH1 0x1 PUSH1 0x40 SHL SUB DUP1 DUP3 GT ISZERO PUSH3 0x153 JUMPI PUSH3 0x153 PUSH3 0x112 JUMP JUMPDEST PUSH1 0x40 MLOAD PUSH1 0x1F DUP4 ADD PUSH1 0x1F NOT SWAP1 DUP2 AND PUSH1 0x3F ADD AND DUP2 ADD SWAP1 DUP3 DUP3 GT DUP2 DUP4 LT OR ISZERO PUSH3 0x17E JUMPI PUSH3 0x17E PUSH3 0x112 JUMP JUMPDEST DUP2 PUSH1 0x40 MSTORE DUP4 DUP2 MSTORE PUSH1 0x20 SWAP3 POP DUP7 PUSH1 0x20 DUP6 DUP9 ADD ADD GT ISZERO PUSH3 0x19B JUMPI PUSH0 DUP1 REVERT JUMPDEST PUSH0 SWAP2 POP JUMPDEST DUP4 DUP3 LT ISZERO PUSH3 0x1BE JUMPI DUP6 DUP3 ADD DUP4 ADD MLOAD DUP2 DUP4 ADD DUP5 ADD MSTORE SWAP1 DUP3 ADD SWAP1 PUSH3 0x19F JUMP JUMPDEST PUSH0 PUSH1 0x20 DUP6 DUP4 ADD ADD MSTORE DUP1 SWAP5 POP POP POP POP POP SWAP3 SWAP2 POP POP JUMP JUMPDEST PUSH0 DUP1 PUSH0 PUSH1 0x60 DUP5 DUP7 SUB SLT ISZERO PUSH3 0x1E6 JUMPI PUSH0 DUP1 REVERT JUMPDEST DUP4 MLOAD PUSH1 0x1 PUSH1 0x1 PUSH1 0xA0 SHL SUB DUP2 AND DUP2 EQ PUSH3 0x1FD JUMPI PUSH0 DUP1 REVERT JUMPDEST PUSH1 0x20 DUP6 ADD MLOAD SWAP1 SWAP4 POP PUSH1 0x1 PUSH1 0x1 PUSH1 0x40 SHL SUB DUP1 DUP3 GT ISZERO PUSH3 0x21A JUMPI PUSH0 DUP1 REVERT JUMPDEST PUSH3 0x228 DUP8 DUP4 DUP9 ADD PUSH3 0x126 JUMP JUMPDEST SWAP4 POP PUSH1 0x40 DUP7 ADD MLOAD SWAP2 POP DUP1 DUP3 GT ISZERO PUSH3 0x23E JUMPI PUSH0 DUP1 REVERT JUMPDEST POP PUSH3 0x24D DUP7 DUP3 DUP8 ADD PUSH3 0x126 JUMP JUMPDEST SWAP2 POP POP SWAP3 POP SWAP3 POP SWAP3 JUMP JUMPDEST PUSH1 0x1 DUP2 DUP2 SHR SWAP1 DUP3 AND DUP1 PUSH3 0x26C JUMPI PUSH1 0x7F DUP3 AND SWAP2 POP JUMPDEST PUSH1 0x20 DUP3 LT DUP2 SUB PUSH3 0x28B JUMPI PUSH4 0x4E487B71 PUSH1 0xE0 SHL PUSH0 MSTORE PUSH1 0x22 PUSH1 0x4 MSTORE PUSH1 0x24 PUSH0 REVERT JUMPDEST POP SWAP2 SWAP1 POP JUMP JUMPDEST PUSH1 0x1F DUP3 GT ISZERO PUSH3 0x2DC JUMPI DUP1 PUSH0 MSTORE PUSH1 0x20 PUSH0 KECCAK256 PUSH1 0x1F DUP5 ADD PUSH1 0x5 SHR DUP2 ADD PUSH1 0x20 DUP6 LT ISZERO PUSH3 0x2B8 JUMPI POP DUP1 JUMPDEST PUSH1 0x1F DUP5 ADD PUSH1 0x5 SHR DUP3 ADD SWAP2 POP JUMPDEST DUP2 DUP2 LT ISZERO PUSH3 0x2D9 JUMPI PUSH0 DUP2 SSTORE PUSH1 0x1 ADD PUSH3 0x2C4 JUMP JUMPDEST POP POP JUMPDEST POP POP POP JUMP JUMPDEST DUP2 MLOAD PUSH1 0x1 PUSH1 0x1 PUSH1 0x40 SHL SUB DUP2 GT ISZERO PUSH3 0x2FD JUMPI PUSH3 0x2FD PUSH3 0x112 JUMP JUMPDEST PUSH3 0x315 DUP2 PUSH3 0x30E DUP5 SLOAD PUSH3 0x257 JUMP JUMPDEST DUP5 PUSH3 0x291 JUMP JUMPDEST PUSH1 0x20 DUP1 PUSH1 0x1F DUP4 GT PUSH1 0x1 DUP2 EQ PUSH3 0x34B JUMPI PUSH0 DUP5 ISZERO PUSH3 0x333 JUMPI POP DUP6 DUP4 ADD MLOAD JUMPDEST PUSH0 NOT PUSH1 0x3 DUP7 SWAP1 SHL SHR NOT AND PUSH1 0x1 DUP6 SWAP1 SHL OR DUP6 SSTORE PUSH3 0x3A5 JUMP JUMPDEST PUSH0 DUP6 DUP2 MSTORE PUSH1 0x20 DUP2 KECCAK256 PUSH1 0x1F NOT DUP7 AND SWAP2 JUMPDEST DUP3 DUP2 LT ISZERO PUSH3 0x37B JUMPI DUP9 DUP7 ADD MLOAD DUP3 SSTORE SWAP5 DUP5 ADD SWAP5 PUSH1 0x1 SWAP1 SWAP2 ADD SWAP1 DUP5 ADD PUSH3 0x35A JUMP JUMPDEST POP DUP6 DUP3 LT ISZERO PUSH3 0x399 JUMPI DUP8 DUP6 ADD MLOAD PUSH0 NOT PUSH1 0x3 DUP9 SWAP1 SHL PUSH1 0xF8 AND SHR NOT AND DUP2 SSTORE JUMPDEST POP POP PUSH1 0x1 DUP5 PUSH1 0x1 SHL ADD DUP6 SSTORE JUMPDEST POP POP POP POP POP POP JUMP JUMPDEST PUSH2 0x3C39 DUP1 PUSH3 0x3BB PUSH0 CODECOPY PUSH0 RETURN INVALID PUSH1 0x80 PUSH1 0x40 MSTORE PUSH1 0x4 CALLDATASIZE LT PUSH2 0x248 JUMPI PUSH0 CALLDATALOAD PUSH1 0xE0 SHR DUP1 PUSH4 0x70A08231 GT PUSH2 0x134 JUMPI DUP1 PUSH4 0xA4EF8DCC GT PUSH2 0xB3 JUMPI DUP1 PUSH4 0xE345F05E GT PUSH2 0x78 JUMPI DUP1 PUSH4 0xE345F05E EQ PUSH2 0x650 JUMPI DUP1 PUSH4 0xE8A3D485 EQ PUSH2 0x69F JUMPI DUP1 PUSH4 0xE985E9C5 EQ PUSH2 0x6B3 JUMPI DUP1 PUSH4 0xED08FA80 EQ PUSH2 0x6FE JUMPI DUP1 PUSH4 0xF0E88E7F EQ PUSH2 0x712 JUMPI DUP1 PUSH4 0xF2FDE38B EQ PUSH2 0x731 JUMPI PUSH0 DUP1 REVERT JUMPDEST DUP1 PUSH4 0xA4EF8DCC EQ PUSH2 0x5CC JUMPI DUP1 PUSH4 0xB88D4FDE EQ PUSH2 0x5EB JUMPI DUP1 PUSH4 0xC87B56DD EQ PUSH2 0x5FE JUMPI DUP1 PUSH4 0xCBB277BB EQ PUSH2 0x61D JUMPI DUP1 PUSH4 0xE345E0BC EQ PUSH2 0x631 JUMPI PUSH0 DUP1 REVERT JUMPDEST DUP1 PUSH4 0x8E3ED45E GT PUSH2 0xF9 JUMPI DUP1 PUSH4 0x8E3ED45E EQ PUSH2 0x53C JUMPI DUP1 PUSH4 0x95D89B41 EQ PUSH2 0x55B JUMPI DUP1 PUSH4 0x993BEF8D EQ PUSH2 0x56F JUMPI DUP1 PUSH4 0x9CC7F708 EQ PUSH2 0x58E JUMPI DUP1 PUSH4 0xA22CB465 EQ PUSH2 0x5AD JUMPI PUSH0 DUP1 REVERT JUMPDEST DUP1 PUSH4 0x70A08231 EQ PUSH2 0x4BA JUMPI DUP1 PUSH4 0x715018A6 EQ PUSH2 0x4D9 JUMPI DUP1 PUSH4 0x840F7113 EQ PUSH2 0x4ED JUMPI DUP1 PUSH4 0x8CB0A511 EQ PUSH2 0x50C JUMPI DUP1 PUSH4 0x8DA5CB5B EQ PUSH2 0x51F JUMPI PUSH0 DUP1 REVERT JUMPDEST DUP1 PUSH4 0x263F3E7E GT PUSH2 0x1CB JUMPI DUP1 PUSH4 0x4F6CCCE7 GT PUSH2 0x190 JUMPI DUP1 PUSH4 0x4F6CCCE7 EQ PUSH2 0x417 JUMPI DUP1 PUSH4 0x4F8A0F83 EQ PUSH2 0x436 JUMPI DUP1 PUSH4 0x55CD4E06 EQ PUSH2 0x455 JUMPI DUP1 PUSH4 0x55F804B3 EQ PUSH2 0x468 JUMPI DUP1 PUSH4 0x6352211E EQ PUSH2 0x487 JUMPI DUP1 PUSH4 0x6C0360EB EQ PUSH2 0x4A6 JUMPI PUSH0 DUP1 REVERT JUMPDEST DUP1 PUSH4 0x263F3E7E EQ PUSH2 0x392 JUMPI DUP1 PUSH4 0x2F745C59 EQ PUSH2 0x3B1 JUMPI DUP1 PUSH4 0x310ED7F0 EQ PUSH2 0x3D0 JUMPI DUP1 PUSH4 0x3E7E8669 EQ PUSH2 0x3E3 JUMPI DUP1 PUSH4 0x42842E0E EQ PUSH2 0x404 JUMPI PUSH0 DUP1 REVERT JUMPDEST DUP1 PUSH4 0x9C3DD87 GT PUSH2 0x211 JUMPI DUP1 PUSH4 0x9C3DD87 EQ PUSH2 0x31A JUMPI DUP1 PUSH4 0xF485C02 EQ PUSH2 0x339 JUMPI DUP1 PUSH4 0x156E29F6 EQ PUSH2 0x34C JUMPI DUP1 PUSH4 0x18160DDD EQ PUSH2 0x36B JUMPI DUP1 PUSH4 0x23B872DD EQ PUSH2 0x37F JUMPI PUSH0 DUP1 REVERT JUMPDEST DUP1 PUSH3 0xCD0110 EQ PUSH2 0x24C JUMPI DUP1 PUSH4 0x1FFC9A7 EQ PUSH2 0x27E JUMPI DUP1 PUSH4 0x6FDDE03 EQ PUSH2 0x2AD JUMPI DUP1 PUSH4 0x81812FC EQ PUSH2 0x2CE JUMPI DUP1 PUSH4 0x95EA7B3 EQ PUSH2 0x305 JUMPI JUMPDEST PUSH0 DUP1 REVERT JUMPDEST CALLVALUE DUP1 ISZERO PUSH2 0x257 JUMPI PUSH0 DUP1 REVERT JUMPDEST POP PUSH2 0x26B PUSH2 0x266 CALLDATASIZE PUSH1 0x4 PUSH2 0x3346 JUMP JUMPDEST PUSH2 0x750 JUMP JUMPDEST PUSH1 0x40 MLOAD SWAP1 DUP2 MSTORE PUSH1 0x20 ADD JUMPDEST PUSH1 0x40 MLOAD DUP1 SWAP2 SUB SWAP1 RETURN JUMPDEST CALLVALUE DUP1 ISZERO PUSH2 0x289 JUMPI PUSH0 DUP1 REVERT JUMPDEST POP PUSH2 0x29D PUSH2 0x298 CALLDATASIZE PUSH1 0x4 PUSH2 0x337B JUMP JUMPDEST PUSH2 0x820 JUMP JUMPDEST PUSH1 0x40 MLOAD SWAP1 ISZERO ISZERO DUP2 MSTORE PUSH1 0x20 ADD PUSH2 0x275 JUMP JUMPDEST CALLVALUE DUP1 ISZERO PUSH2 0x2B8 JUMPI PUSH0 DUP1 REVERT JUMPDEST POP PUSH2 0x2C1 PUSH2 0x844 JUMP JUMPDEST PUSH1 0x40 MLOAD PUSH2 0x275 SWAP2 SWAP1 PUSH2 0x33E3 JUMP JUMPDEST CALLVALUE DUP1 ISZERO PUSH2 0x2D9 JUMPI PUSH0 DUP1 REVERT JUMPDEST POP PUSH2 0x2ED PUSH2 0x2E8 CALLDATASIZE PUSH1 0x4 PUSH2 0x33F5 JUMP JUMPDEST PUSH2 0x8D3 JUMP JUMPDEST PUSH1 0x40 MLOAD PUSH1 0x1 PUSH1 0x1 PUSH1 0xA0 SHL SUB SWAP1 SWAP2 AND DUP2 MSTORE PUSH1 0x20 ADD PUSH2 0x275 JUMP JUMPDEST PUSH2 0x318 PUSH2 0x313 CALLDATASIZE PUSH1 0x4 PUSH2 0x3422 JUMP JUMPDEST PUSH2 0x922 JUMP JUMPDEST STOP JUMPDEST CALLVALUE DUP1 ISZERO PUSH2 0x325 JUMPI PUSH0 DUP1 REVERT JUMPDEST POP PUSH2 0x2C1 PUSH2 0x334 CALLDATASIZE PUSH1 0x4 PUSH2 0x33F5 JUMP JUMPDEST PUSH2 0xA1A JUMP JUMPDEST PUSH2 0x26B PUSH2 0x347 CALLDATASIZE PUSH1 0x4 PUSH2 0x344A JUMP JUMPDEST PUSH2 0xAF8 JUMP JUMPDEST CALLVALUE DUP1 ISZERO PUSH2 0x357 JUMPI PUSH0 DUP1 REVERT JUMPDEST POP PUSH2 0x318 PUSH2 0x366 CALLDATASIZE PUSH1 0x4 PUSH2 0x347C JUMP JUMPDEST PUSH2 0xB0C JUMP JUMPDEST CALLVALUE DUP1 ISZERO PUSH2 0x376 JUMPI PUSH0 DUP1 REVERT JUMPDEST POP PUSH1 0x5 SLOAD PUSH2 0x26B JUMP JUMPDEST PUSH2 0x318 PUSH2 0x38D CALLDATASIZE PUSH1 0x4 PUSH2 0x34AC JUMP JUMPDEST PUSH2 0xB1F JUMP JUMPDEST CALLVALUE DUP1 ISZERO PUSH2 0x39D JUMPI PUSH0 DUP1 REVERT JUMPDEST POP PUSH2 0x26B PUSH2 0x3AC CALLDATASIZE PUSH1 0x4 PUSH2 0x33F5 JUMP JUMPDEST PUSH2 0xB55 JUMP JUMPDEST CALLVALUE DUP1 ISZERO PUSH2 0x3BC JUMPI PUSH0 DUP1 REVERT JUMPDEST POP PUSH2 0x26B PUSH2 0x3CB CALLDATASIZE PUSH1 0x4 PUSH2 0x3422 JUMP JUMPDEST PUSH2 0xB99 JUMP JUMPDEST PUSH2 0x318 PUSH2 0x3DE CALLDATASIZE PUSH1 0x4 PUSH2 0x34D5 JUMP JUMPDEST PUSH2 0xC25 JUMP JUMPDEST CALLVALUE DUP1 ISZERO PUSH2 0x3EE JUMPI PUSH0 DUP1 REVERT JUMPDEST POP PUSH1 0x2 SLOAD PUSH1 0x40 MLOAD PUSH1 0xFF SWAP1 SWAP2 AND DUP2 MSTORE PUSH1 0x20 ADD PUSH2 0x275 JUMP JUMPDEST PUSH2 0x318 PUSH2 0x412 CALLDATASIZE PUSH1 0x4 PUSH2 0x34AC JUMP JUMPDEST PUSH2 0xC30 JUMP JUMPDEST CALLVALUE DUP1 ISZERO PUSH2 0x422 JUMPI PUSH0 DUP1 REVERT JUMPDEST POP PUSH2 0x26B PUSH2 0x431 CALLDATASIZE PUSH1 0x4 PUSH2 0x33F5 JUMP JUMPDEST PUSH2 0xC4A JUMP JUMPDEST CALLVALUE DUP1 ISZERO PUSH2 0x441 JUMPI PUSH0 DUP1 REVERT JUMPDEST POP PUSH2 0x26B PUSH2 0x450 CALLDATASIZE PUSH1 0x4 PUSH2 0x33F5 JUMP JUMPDEST PUSH2 0xCD7 JUMP JUMPDEST PUSH2 0x318 PUSH2 0x463 CALLDATASIZE PUSH1 0x4 PUSH2 0x350B JUMP JUMPDEST PUSH2 0xD28 JUMP JUMPDEST CALLVALUE DUP1 ISZERO PUSH2 0x473 JUMPI PUSH0 DUP1 REVERT JUMPDEST POP PUSH2 0x318 PUSH2 0x482 CALLDATASIZE PUSH1 0x4 PUSH2 0x35FE JUMP JUMPDEST PUSH2 0xDC2 JUMP JUMPDEST CALLVALUE DUP1 ISZERO PUSH2 0x492 JUMPI PUSH0 DUP1 REVERT JUMPDEST POP PUSH2 0x2ED PUSH2 0x4A1 CALLDATASIZE PUSH1 0x4 PUSH2 0x33F5 JUMP JUMPDEST PUSH2 0xDDA JUMP JUMPDEST CALLVALUE DUP1 ISZERO PUSH2 0x4B1 JUMPI PUSH0 DUP1 REVERT JUMPDEST POP PUSH2 0x2C1 PUSH2 0xE73 JUMP JUMPDEST CALLVALUE DUP1 ISZERO PUSH2 0x4C5 JUMPI PUSH0 DUP1 REVERT JUMPDEST POP PUSH2 0x26B PUSH2 0x4D4 CALLDATASIZE PUSH1 0x4 PUSH2 0x3643 JUMP JUMPDEST PUSH2 0xEFF JUMP JUMPDEST CALLVALUE DUP1 ISZERO PUSH2 0x4E4 JUMPI PUSH0 DUP1 REVERT JUMPDEST POP PUSH2 0x318 PUSH2 0xF85 JUMP JUMPDEST CALLVALUE DUP1 ISZERO PUSH2 0x4F8 JUMPI PUSH0 DUP1 REVERT JUMPDEST POP PUSH1 0x8 SLOAD PUSH2 0x2ED SWAP1 PUSH1 0x1 PUSH1 0x1 PUSH1 0xA0 SHL SUB AND DUP2 JUMP JUMPDEST PUSH2 0x318 PUSH2 0x51A CALLDATASIZE PUSH1 0x4 PUSH2 0x344A JUMP JUMPDEST PUSH2 0xF98 JUMP JUMPDEST CALLVALUE DUP1 ISZERO PUSH2 0x52A JUMPI PUSH0 DUP1 REVERT JUMPDEST POP PUSH1 0xD SLOAD PUSH1 0x1 PUSH1 0x1 PUSH1 0xA0 SHL SUB AND PUSH2 0x2ED JUMP JUMPDEST CALLVALUE DUP1 ISZERO PUSH2 0x547 JUMPI PUSH0 DUP1 REVERT JUMPDEST POP PUSH2 0x26B PUSH2 0x556 CALLDATASIZE PUSH1 0x4 PUSH2 0x33F5 JUMP JUMPDEST PUSH2 0x1050 JUMP JUMPDEST CALLVALUE DUP1 ISZERO PUSH2 0x566 JUMPI PUSH0 DUP1 REVERT JUMPDEST POP PUSH2 0x2C1 PUSH2 0x11A2 JUMP JUMPDEST CALLVALUE DUP1 ISZERO PUSH2 0x57A JUMPI PUSH0 DUP1 REVERT JUMPDEST POP PUSH2 0x26B PUSH2 0x589 CALLDATASIZE PUSH1 0x4 PUSH2 0x33F5 JUMP JUMPDEST PUSH2 0x11B1 JUMP JUMPDEST CALLVALUE DUP1 ISZERO PUSH2 0x599 JUMPI PUSH0 DUP1 REVERT JUMPDEST POP PUSH2 0x26B PUSH2 0x5A8 CALLDATASIZE PUSH1 0x4 PUSH2 0x33F5 JUMP JUMPDEST PUSH2 0x124A JUMP JUMPDEST CALLVALUE DUP1 ISZERO PUSH2 0x5B8 JUMPI PUSH0 DUP1 REVERT JUMPDEST POP PUSH2 0x318 PUSH2 0x5C7 CALLDATASIZE PUSH1 0x4 PUSH2 0x365C JUMP JUMPDEST PUSH2 0x128E JUMP JUMPDEST CALLVALUE DUP1 ISZERO PUSH2 0x5D7 JUMPI PUSH0 DUP1 REVERT JUMPDEST POP PUSH2 0x26B PUSH2 0x5E6 CALLDATASIZE PUSH1 0x4 PUSH2 0x33F5 JUMP JUMPDEST PUSH2 0x1299 JUMP JUMPDEST PUSH2 0x318 PUSH2 0x5F9 CALLDATASIZE PUSH1 0x4 PUSH2 0x3691 JUMP JUMPDEST PUSH2 0x12E3 JUMP JUMPDEST CALLVALUE DUP1 ISZERO PUSH2 0x609 JUMPI PUSH0 DUP1 REVERT JUMPDEST POP PUSH2 0x2C1 PUSH2 0x618 CALLDATASIZE PUSH1 0x4 PUSH2 0x33F5 JUMP JUMPDEST PUSH2 0x1315 JUMP JUMPDEST CALLVALUE DUP1 ISZERO PUSH2 0x628 JUMPI PUSH0 DUP1 REVERT JUMPDEST POP PUSH2 0x26B PUSH2 0x13A4 JUMP JUMPDEST CALLVALUE DUP1 ISZERO PUSH2 0x63C JUMPI PUSH0 DUP1 REVERT JUMPDEST POP PUSH2 0x26B PUSH2 0x64B CALLDATASIZE PUSH1 0x4 PUSH2 0x3708 JUMP JUMPDEST PUSH2 0x1427 JUMP JUMPDEST CALLVALUE DUP1 ISZERO PUSH2 0x65B JUMPI PUSH0 DUP1 REVERT JUMPDEST POP PUSH2 0x29D PUSH2 0x66A CALLDATASIZE PUSH1 0x4 PUSH2 0x3732 JUMP JUMPDEST PUSH1 0x1 PUSH1 0x1 PUSH1 0xA0 SHL SUB SWAP3 DUP4 AND PUSH0 SWAP1 DUP2 MSTORE PUSH1 0xC PUSH1 0x20 SWAP1 DUP2 MSTORE PUSH1 0x40 DUP1 DUP4 KECCAK256 SWAP5 DUP4 MSTORE SWAP4 DUP2 MSTORE DUP4 DUP3 KECCAK256 SWAP3 SWAP1 SWAP5 AND DUP2 MSTORE SWAP3 MSTORE SWAP1 KECCAK256 SLOAD PUSH1 0xFF AND SWAP1 JUMP JUMPDEST CALLVALUE DUP1 ISZERO PUSH2 0x6AA JUMPI PUSH0 DUP1 REVERT JUMPDEST POP PUSH2 0x2C1 PUSH2 0x1459 JUMP JUMPDEST CALLVALUE DUP1 ISZERO PUSH2 0x6BE JUMPI PUSH0 DUP1 REVERT JUMPDEST POP PUSH2 0x29D PUSH2 0x6CD CALLDATASIZE PUSH1 0x4 PUSH2 0x376B JUMP JUMPDEST PUSH1 0x1 PUSH1 0x1 PUSH1 0xA0 SHL SUB SWAP2 DUP3 AND PUSH0 SWAP1 DUP2 MSTORE PUSH1 0x7 PUSH1 0x20 SWAP1 DUP2 MSTORE PUSH1 0x40 DUP1 DUP4 KECCAK256 SWAP4 SWAP1 SWAP5 AND DUP3 MSTORE PUSH1 0x2 SWAP1 SWAP3 ADD SWAP1 SWAP2 MSTORE KECCAK256 SLOAD PUSH1 0xFF AND SWAP1 JUMP JUMPDEST CALLVALUE DUP1 ISZERO PUSH2 0x709 JUMPI PUSH0 DUP1 REVERT JUMPDEST POP PUSH1 0xA SLOAD PUSH2 0x26B JUMP JUMPDEST CALLVALUE DUP1 ISZERO PUSH2 0x71D JUMPI PUSH0 DUP1 REVERT JUMPDEST POP PUSH2 0x318 PUSH2 0x72C CALLDATASIZE PUSH1 0x4 PUSH2 0x3346 JUMP JUMPDEST PUSH2 0x1538 JUMP JUMPDEST CALLVALUE DUP1 ISZERO PUSH2 0x73C JUMPI PUSH0 DUP1 REVERT JUMPDEST POP PUSH2 0x318 PUSH2 0x74B CALLDATASIZE PUSH1 0x4 PUSH2 0x3643 JUMP JUMPDEST PUSH2 0x154A JUMP JUMPDEST PUSH0 PUSH2 0x75A DUP4 PUSH2 0xCD7 JUMP JUMPDEST DUP3 LT PUSH2 0x7CB JUMPI PUSH1 0x40 MLOAD PUSH3 0x461BCD PUSH1 0xE5 SHL DUP2 MSTORE PUSH1 0x20 PUSH1 0x4 DUP3 ADD MSTORE PUSH1 0x35 PUSH1 0x24 DUP3 ADD MSTORE PUSH32 0x45524333353235536C6F74456E756D657261626C653A20736C6F7420746F6B65 PUSH1 0x44 DUP3 ADD MSTORE PUSH21 0x6E20696E646578206F7574206F6620626F756E6473 PUSH1 0x58 SHL PUSH1 0x64 DUP3 ADD MSTORE PUSH1 0x84 ADD JUMPDEST PUSH1 0x40 MLOAD DUP1 SWAP2 SUB SWAP1 REVERT JUMPDEST PUSH0 DUP4 DUP2 MSTORE PUSH1 0xB PUSH1 0x20 MSTORE PUSH1 0x40 SWAP1 KECCAK256 SLOAD PUSH1 0xA DUP1 SLOAD SWAP1 SWAP2 SWAP1 DUP2 LT PUSH2 0x7EE JUMPI PUSH2 0x7EE PUSH2 0x3793 JUMP JUMPDEST SWAP1 PUSH0 MSTORE PUSH1 0x20 PUSH0 KECCAK256 SWAP1 PUSH1 0x2 MUL ADD PUSH1 0x1 ADD DUP3 DUP2 SLOAD DUP2 LT PUSH2 0x80E JUMPI PUSH2 0x80E PUSH2 0x3793 JUMP JUMPDEST SWAP1 PUSH0 MSTORE PUSH1 0x20 PUSH0 KECCAK256 ADD SLOAD SWAP1 POP JUMPDEST SWAP3 SWAP2 POP POP JUMP JUMPDEST PUSH0 PUSH1 0x1 PUSH1 0x1 PUSH1 0xE0 SHL SUB NOT DUP3 AND PUSH4 0x16D117CB PUSH1 0xE3 SHL EQ DUP1 PUSH2 0x81A JUMPI POP PUSH2 0x81A DUP3 PUSH2 0x1587 JUMP JUMPDEST PUSH1 0x60 PUSH0 DUP1 SLOAD PUSH2 0x852 SWAP1 PUSH2 0x37A7 JUMP JUMPDEST DUP1 PUSH1 0x1F ADD PUSH1 0x20 DUP1 SWAP2 DIV MUL PUSH1 0x20 ADD PUSH1 0x40 MLOAD SWAP1 DUP2 ADD PUSH1 0x40 MSTORE DUP1 SWAP3 SWAP2 SWAP1 DUP2 DUP2 MSTORE PUSH1 0x20 ADD DUP3 DUP1 SLOAD PUSH2 0x87E SWAP1 PUSH2 0x37A7 JUMP JUMPDEST DUP1 ISZERO PUSH2 0x8C9 JUMPI DUP1 PUSH1 0x1F LT PUSH2 0x8A0 JUMPI PUSH2 0x100 DUP1 DUP4 SLOAD DIV MUL DUP4 MSTORE SWAP2 PUSH1 0x20 ADD SWAP2 PUSH2 0x8C9 JUMP JUMPDEST DUP3 ADD SWAP2 SWAP1 PUSH0 MSTORE PUSH1 0x20 PUSH0 KECCAK256 SWAP1 JUMPDEST DUP2 SLOAD DUP2 MSTORE SWAP1 PUSH1 0x1 ADD SWAP1 PUSH1 0x20 ADD DUP1 DUP4 GT PUSH2 0x8AC JUMPI DUP3 SWAP1 SUB PUSH1 0x1F AND DUP3 ADD SWAP2 JUMPDEST POP POP POP POP POP SWAP1 POP SWAP1 JUMP JUMPDEST PUSH0 PUSH2 0x8DD DUP3 PUSH2 0x15AB JUMP JUMPDEST PUSH0 DUP3 DUP2 MSTORE PUSH1 0x6 PUSH1 0x20 MSTORE PUSH1 0x40 SWAP1 KECCAK256 SLOAD PUSH1 0x5 DUP1 SLOAD SWAP1 SWAP2 SWAP1 DUP2 LT PUSH2 0x900 JUMPI PUSH2 0x900 PUSH2 0x3793 JUMP JUMPDEST PUSH0 SWAP2 DUP3 MSTORE PUSH1 0x20 SWAP1 SWAP2 KECCAK256 PUSH1 0x4 PUSH1 0x6 SWAP1 SWAP3 MUL ADD ADD SLOAD PUSH1 0x1 PUSH1 0x1 PUSH1 0xA0 SHL SUB AND SWAP3 SWAP2 POP POP JUMP JUMPDEST PUSH0 PUSH2 0x92C DUP3 PUSH2 0xDDA JUMP JUMPDEST SWAP1 POP PUSH0 PUSH2 0x938 DUP4 PUSH2 0xB55 JUMP JUMPDEST SWAP1 POP DUP2 PUSH1 0x1 PUSH1 0x1 PUSH1 0xA0 SHL SUB AND DUP5 PUSH1 0x1 PUSH1 0x1 PUSH1 0xA0 SHL SUB AND SUB PUSH2 0x96B JUMPI PUSH1 0x40 MLOAD PUSH3 0x461BCD PUSH1 0xE5 SHL DUP2 MSTORE PUSH1 0x4 ADD PUSH2 0x7C2 SWAP1 PUSH2 0x37DF JUMP JUMPDEST CALLER PUSH1 0x1 PUSH1 0x1 PUSH1 0xA0 SHL SUB DUP4 AND EQ DUP1 PUSH2 0x987 JUMPI POP PUSH2 0x987 DUP3 CALLER PUSH2 0x6CD JUMP JUMPDEST DUP1 PUSH2 0x998 JUMPI POP PUSH2 0x998 DUP3 DUP3 CALLER PUSH2 0x66A JUMP JUMPDEST PUSH2 0xA0A JUMPI PUSH1 0x40 MLOAD PUSH3 0x461BCD PUSH1 0xE5 SHL DUP2 MSTORE PUSH1 0x20 PUSH1 0x4 DUP3 ADD MSTORE PUSH1 0x3E PUSH1 0x24 DUP3 ADD MSTORE PUSH32 0x455243333532353A20617070726F76652063616C6C6572206973206E6F74206F PUSH1 0x44 DUP3 ADD MSTORE PUSH32 0x776E6572206E6F7220617070726F76656420666F7220616C6C2F736C6F740000 PUSH1 0x64 DUP3 ADD MSTORE PUSH1 0x84 ADD PUSH2 0x7C2 JUMP JUMPDEST PUSH2 0xA14 DUP5 DUP5 PUSH2 0x15FC JUMP JUMPDEST POP POP POP POP JUMP JUMPDEST PUSH1 0x60 PUSH0 PUSH2 0xA25 PUSH2 0x1691 JUMP JUMPDEST PUSH1 0x8 SLOAD SWAP1 SWAP2 POP PUSH1 0x1 PUSH1 0x1 PUSH1 0xA0 SHL SUB AND PUSH2 0xA83 JUMPI PUSH0 DUP2 MLOAD GT PUSH2 0xA54 JUMPI PUSH1 0x40 MLOAD DUP1 PUSH1 0x20 ADD PUSH1 0x40 MSTORE DUP1 PUSH0 DUP2 MSTORE POP PUSH2 0xAF1 JUMP JUMPDEST DUP1 PUSH2 0xA5E DUP5 PUSH2 0x16A0 JUMP JUMPDEST PUSH1 0x40 MLOAD PUSH1 0x20 ADD PUSH2 0xA6F SWAP3 SWAP2 SWAP1 PUSH2 0x3821 JUMP JUMPDEST PUSH1 0x40 MLOAD PUSH1 0x20 DUP2 DUP4 SUB SUB DUP2 MSTORE SWAP1 PUSH1 0x40 MSTORE PUSH2 0xAF1 JUMP JUMPDEST PUSH1 0x8 SLOAD PUSH1 0x40 MLOAD PUSH4 0x3601BFC5 PUSH1 0xE1 SHL DUP2 MSTORE PUSH1 0x4 DUP2 ADD DUP6 SWAP1 MSTORE PUSH1 0x1 PUSH1 0x1 PUSH1 0xA0 SHL SUB SWAP1 SWAP2 AND SWAP1 PUSH4 0x6C037F8A SWAP1 PUSH1 0x24 ADD JUMPDEST PUSH0 PUSH1 0x40 MLOAD DUP1 DUP4 SUB DUP2 DUP7 GAS STATICCALL ISZERO DUP1 ISZERO PUSH2 0xACA JUMPI RETURNDATASIZE PUSH0 DUP1 RETURNDATACOPY RETURNDATASIZE PUSH0 REVERT JUMPDEST POP POP POP POP PUSH1 0x40 MLOAD RETURNDATASIZE PUSH0 DUP3 RETURNDATACOPY PUSH1 0x1F RETURNDATASIZE SWAP1 DUP2 ADD PUSH1 0x1F NOT AND DUP3 ADD PUSH1 0x40 MSTORE PUSH2 0xAF1 SWAP2 SWAP1 DUP2 ADD SWAP1 PUSH2 0x3860 JUMP JUMPDEST SWAP4 SWAP3 POP POP POP JUMP JUMPDEST PUSH0 PUSH2 0xB04 DUP5 DUP5 DUP5 PUSH2 0x1730 JUMP JUMPDEST SWAP5 SWAP4 POP POP POP POP JUMP JUMPDEST PUSH2 0xB14 PUSH2 0x1766 JUMP JUMPDEST PUSH2 0xA14 DUP4 DUP4 DUP4 PUSH2 0x1793 JUMP JUMPDEST PUSH2 0xB29 CALLER DUP3 PUSH2 0x17AA JUMP JUMPDEST PUSH2 0xB45 JUMPI PUSH1 0x40 MLOAD PUSH3 0x461BCD PUSH1 0xE5 SHL DUP2 MSTORE PUSH1 0x4 ADD PUSH2 0x7C2 SWAP1 PUSH2 0x38C9 JUMP JUMPDEST PUSH2 0xB50 DUP4 DUP4 DUP4 PUSH2 0x1855 JUMP JUMPDEST POP POP POP JUMP JUMPDEST PUSH0 PUSH2 0xB5F DUP3 PUSH2 0x15AB JUMP JUMPDEST PUSH0 DUP3 DUP2 MSTORE PUSH1 0x6 PUSH1 0x20 MSTORE PUSH1 0x40 SWAP1 KECCAK256 SLOAD PUSH1 0x5 DUP1 SLOAD SWAP1 SWAP2 SWAP1 DUP2 LT PUSH2 0xB82 JUMPI PUSH2 0xB82 PUSH2 0x3793 JUMP JUMPDEST SWAP1 PUSH0 MSTORE PUSH1 0x20 PUSH0 KECCAK256 SWAP1 PUSH1 0x6 MUL ADD PUSH1 0x1 ADD SLOAD SWAP1 POP SWAP2 SWAP1 POP JUMP JUMPDEST PUSH0 PUSH2 0xBA3 DUP4 PUSH2 0xEFF JUMP JUMPDEST DUP3 LT PUSH2 0xBFC JUMPI PUSH1 0x40 MLOAD PUSH3 0x461BCD PUSH1 0xE5 SHL DUP2 MSTORE PUSH1 0x20 PUSH1 0x4 DUP3 ADD MSTORE PUSH1 0x22 PUSH1 0x24 DUP3 ADD MSTORE PUSH32 0x455243333532353A206F776E657220696E646578206F7574206F6620626F756E PUSH1 0x44 DUP3 ADD MSTORE PUSH2 0x6473 PUSH1 0xF0 SHL PUSH1 0x64 DUP3 ADD MSTORE PUSH1 0x84 ADD PUSH2 0x7C2 JUMP JUMPDEST PUSH1 0x1 PUSH1 0x1 PUSH1 0xA0 SHL SUB DUP4 AND PUSH0 SWAP1 DUP2 MSTORE PUSH1 0x7 PUSH1 0x20 MSTORE PUSH1 0x40 SWAP1 KECCAK256 DUP1 SLOAD DUP4 SWAP1 DUP2 LT PUSH2 0x80E JUMPI PUSH2 0x80E PUSH2 0x3793 JUMP JUMPDEST PUSH2 0xB50 DUP4 DUP4 DUP4 PUSH2 0x19D1 JUMP JUMPDEST PUSH2 0xB50 DUP4 DUP4 DUP4 PUSH1 0x40 MLOAD DUP1 PUSH1 0x20 ADD PUSH1 0x40 MSTORE DUP1 PUSH0 DUP2 MSTORE POP PUSH2 0x12E3 JUMP JUMPDEST PUSH0 PUSH2 0xC54 PUSH1 0x5 SLOAD SWAP1 JUMP JUMPDEST DUP3 LT PUSH2 0xCAE JUMPI PUSH1 0x40 MLOAD PUSH3 0x461BCD PUSH1 0xE5 SHL DUP2 MSTORE PUSH1 0x20 PUSH1 0x4 DUP3 ADD MSTORE PUSH1 0x23 PUSH1 0x24 DUP3 ADD MSTORE PUSH32 0x455243333532353A20676C6F62616C20696E646578206F7574206F6620626F75 PUSH1 0x44 DUP3 ADD MSTORE PUSH3 0x6E6473 PUSH1 0xE8 SHL PUSH1 0x64 DUP3 ADD MSTORE PUSH1 0x84 ADD PUSH2 0x7C2 JUMP JUMPDEST PUSH1 0x5 DUP3 DUP2 SLOAD DUP2 LT PUSH2 0xCC1 JUMPI PUSH2 0xCC1 PUSH2 0x3793 JUMP JUMPDEST SWAP1 PUSH0 MSTORE PUSH1 0x20 PUSH0 KECCAK256 SWAP1 PUSH1 0x6 MUL ADD PUSH0 ADD SLOAD SWAP1 POP SWAP2 SWAP1 POP JUMP JUMPDEST PUSH0 PUSH2 0xCE1 DUP3 PUSH2 0x19E7 JUMP JUMPDEST PUSH2 0xCEC JUMPI POP PUSH0 SWAP2 SWAP1 POP JUMP JUMPDEST PUSH0 DUP3 DUP2 MSTORE PUSH1 0xB PUSH1 0x20 MSTORE PUSH1 0x40 SWAP1 KECCAK256 SLOAD PUSH1 0xA DUP1 SLOAD SWAP1 SWAP2 SWAP1 DUP2 LT PUSH2 0xD0F JUMPI PUSH2 0xD0F PUSH2 0x3793 JUMP JUMPDEST PUSH0 SWAP2 DUP3 MSTORE PUSH1 0x20 SWAP1 SWAP2 KECCAK256 PUSH1 0x1 PUSH1 0x2 SWAP1 SWAP3 MUL ADD ADD SLOAD SWAP3 SWAP2 POP POP JUMP JUMPDEST CALLER PUSH1 0x1 PUSH1 0x1 PUSH1 0xA0 SHL SUB DUP6 AND EQ DUP1 PUSH2 0xD44 JUMPI POP PUSH2 0xD44 DUP5 CALLER PUSH2 0x6CD JUMP JUMPDEST PUSH2 0xDB6 JUMPI PUSH1 0x40 MLOAD PUSH3 0x461BCD PUSH1 0xE5 SHL DUP2 MSTORE PUSH1 0x20 PUSH1 0x4 DUP3 ADD MSTORE PUSH1 0x3F PUSH1 0x24 DUP3 ADD MSTORE PUSH32 0x45524333353235536C6F74417070726F7661626C653A2063616C6C6572206973 PUSH1 0x44 DUP3 ADD MSTORE PUSH32 0x206E6F74206F776E6572206E6F7220617070726F76656420666F7220616C6C00 PUSH1 0x64 DUP3 ADD MSTORE PUSH1 0x84 ADD PUSH2 0x7C2 JUMP JUMPDEST PUSH2 0xA14 DUP5 DUP5 DUP5 DUP5 PUSH2 0x1A2E JUMP JUMPDEST PUSH2 0xDCA PUSH2 0x1766 JUMP JUMPDEST PUSH1 0xE PUSH2 0xDD6 DUP3 DUP3 PUSH2 0x395F JUMP JUMPDEST POP POP JUMP JUMPDEST PUSH0 PUSH2 0xDE4 DUP3 PUSH2 0x15AB JUMP JUMPDEST PUSH0 DUP3 DUP2 MSTORE PUSH1 0x6 PUSH1 0x20 MSTORE PUSH1 0x40 SWAP1 KECCAK256 SLOAD PUSH1 0x5 DUP1 SLOAD SWAP1 SWAP2 SWAP1 DUP2 LT PUSH2 0xE07 JUMPI PUSH2 0xE07 PUSH2 0x3793 JUMP JUMPDEST PUSH0 SWAP2 DUP3 MSTORE PUSH1 0x20 SWAP1 SWAP2 KECCAK256 PUSH1 0x3 PUSH1 0x6 SWAP1 SWAP3 MUL ADD ADD SLOAD PUSH1 0x1 PUSH1 0x1 PUSH1 0xA0 SHL SUB AND SWAP1 POP DUP1 PUSH2 0xE6E JUMPI PUSH1 0x40 MLOAD PUSH3 0x461BCD PUSH1 0xE5 SHL DUP2 MSTORE PUSH1 0x20 PUSH1 0x4 DUP3 ADD MSTORE PUSH1 0x19 PUSH1 0x24 DUP3 ADD MSTORE PUSH25 0x115490CCCD4C8D4E881A5B9D985B1A59081D1BDAD95B881251 PUSH1 0x3A SHL PUSH1 0x44 DUP3 ADD MSTORE PUSH1 0x64 ADD PUSH2 0x7C2 JUMP JUMPDEST SWAP2 SWAP1 POP JUMP JUMPDEST PUSH1 0xE DUP1 SLOAD PUSH2 0xE80 SWAP1 PUSH2 0x37A7 JUMP JUMPDEST DUP1 PUSH1 0x1F ADD PUSH1 0x20 DUP1 SWAP2 DIV MUL PUSH1 0x20 ADD PUSH1 0x40 MLOAD SWAP1 DUP2 ADD PUSH1 0x40 MSTORE DUP1 SWAP3 SWAP2 SWAP1 DUP2 DUP2 MSTORE PUSH1 0x20 ADD DUP3 DUP1 SLOAD PUSH2 0xEAC SWAP1 PUSH2 0x37A7 JUMP JUMPDEST DUP1 ISZERO PUSH2 0xEF7 JUMPI DUP1 PUSH1 0x1F LT PUSH2 0xECE JUMPI PUSH2 0x100 DUP1 DUP4 SLOAD DIV MUL DUP4 MSTORE SWAP2 PUSH1 0x20 ADD SWAP2 PUSH2 0xEF7 JUMP JUMPDEST DUP3 ADD SWAP2 SWAP1 PUSH0 MSTORE PUSH1 0x20 PUSH0 KECCAK256 SWAP1 JUMPDEST DUP2 SLOAD DUP2 MSTORE SWAP1 PUSH1 0x1 ADD SWAP1 PUSH1 0x20 ADD DUP1 DUP4 GT PUSH2 0xEDA JUMPI DUP3 SWAP1 SUB PUSH1 0x1F AND DUP3 ADD SWAP2 JUMPDEST POP POP POP POP POP DUP2 JUMP JUMPDEST PUSH0 PUSH1 0x1 PUSH1 0x1 PUSH1 0xA0 SHL SUB DUP3 AND PUSH2 0xF6A JUMPI PUSH1 0x40 MLOAD PUSH3 0x461BCD PUSH1 0xE5 SHL DUP2 MSTORE PUSH1 0x20 PUSH1 0x4 DUP3 ADD MSTORE PUSH1 0x2B PUSH1 0x24 DUP3 ADD MSTORE PUSH32 0x455243333532353A2062616C616E636520717565727920666F7220746865207A PUSH1 0x44 DUP3 ADD MSTORE PUSH11 0x65726F2061646472657373 PUSH1 0xA8 SHL PUSH1 0x64 DUP3 ADD MSTORE PUSH1 0x84 ADD PUSH2 0x7C2 JUMP JUMPDEST POP PUSH1 0x1 PUSH1 0x1 PUSH1 0xA0 SHL SUB AND PUSH0 SWAP1 DUP2 MSTORE PUSH1 0x7 PUSH1 0x20 MSTORE PUSH1 0x40 SWAP1 KECCAK256 SLOAD SWAP1 JUMP JUMPDEST PUSH2 0xF8D PUSH2 0x1766 JUMP JUMPDEST PUSH2 0xF96 PUSH0 PUSH2 0x1B17 JUMP JUMPDEST JUMP JUMPDEST PUSH0 PUSH2 0xFA2 DUP5 PUSH2 0xDDA JUMP JUMPDEST SWAP1 POP DUP1 PUSH1 0x1 PUSH1 0x1 PUSH1 0xA0 SHL SUB AND DUP4 PUSH1 0x1 PUSH1 0x1 PUSH1 0xA0 SHL SUB AND SUB PUSH2 0xFD5 JUMPI PUSH1 0x40 MLOAD PUSH3 0x461BCD PUSH1 0xE5 SHL DUP2 MSTORE PUSH1 0x4 ADD PUSH2 0x7C2 SWAP1 PUSH2 0x37DF JUMP JUMPDEST PUSH2 0xFDF CALLER DUP6 PUSH2 0x17AA JUMP JUMPDEST PUSH2 0x1045 JUMPI PUSH1 0x40 MLOAD PUSH3 0x461BCD PUSH1 0xE5 SHL DUP2 MSTORE PUSH1 0x20 PUSH1 0x4 DUP3 ADD MSTORE PUSH1 0x31 PUSH1 0x24 DUP3 ADD MSTORE PUSH32 0x455243333532353A20617070726F76652063616C6C6572206973206E6F74206F PUSH1 0x44 DUP3 ADD MSTORE PUSH17 0x1DDB995C881B9BDC88185C1C1C9BDD9959 PUSH1 0x7A SHL PUSH1 0x64 DUP3 ADD MSTORE PUSH1 0x84 ADD PUSH2 0x7C2 JUMP JUMPDEST PUSH2 0xA14 DUP5 DUP5 DUP5 PUSH2 0x1B68 JUMP JUMPDEST PUSH0 DUP1 PUSH2 0x1064 PUSH1 0xD SLOAD PUSH1 0x1 PUSH1 0x1 PUSH1 0xA0 SHL SUB AND SWAP1 JUMP JUMPDEST SWAP1 POP PUSH0 DUP2 PUSH1 0x1 PUSH1 0x1 PUSH1 0xA0 SHL SUB AND PUSH4 0x13D18A24 PUSH1 0x40 MLOAD DUP2 PUSH4 0xFFFFFFFF AND PUSH1 0xE0 SHL DUP2 MSTORE PUSH1 0x4 ADD PUSH1 0x20 PUSH1 0x40 MLOAD DUP1 DUP4 SUB DUP2 DUP7 GAS STATICCALL ISZERO DUP1 ISZERO PUSH2 0x10A3 JUMPI RETURNDATASIZE PUSH0 DUP1 RETURNDATACOPY RETURNDATASIZE PUSH0 REVERT JUMPDEST POP POP POP POP PUSH1 0x40 MLOAD RETURNDATASIZE PUSH1 0x1F NOT PUSH1 0x1F DUP3 ADD AND DUP3 ADD DUP1 PUSH1 0x40 MSTORE POP DUP2 ADD SWAP1 PUSH2 0x10C7 SWAP2 SWAP1 PUSH2 0x3A1B JUMP JUMPDEST SWAP1 POP DUP1 PUSH2 0x10D3 DUP6 PUSH2 0xB55 JUMP JUMPDEST EQ PUSH2 0x1116 JUMPI PUSH1 0x40 MLOAD PUSH3 0x461BCD PUSH1 0xE5 SHL DUP2 MSTORE PUSH1 0x20 PUSH1 0x4 DUP3 ADD MSTORE PUSH1 0x13 PUSH1 0x24 DUP3 ADD MSTORE PUSH19 0x139BC81B585D18DA081CDA185C99481CDB1BDD PUSH1 0x6A SHL PUSH1 0x44 DUP3 ADD MSTORE PUSH1 0x64 ADD PUSH2 0x7C2 JUMP JUMPDEST PUSH2 0x111F DUP5 PUSH2 0x1299 JUMP JUMPDEST PUSH2 0x1128 DUP6 PUSH2 0x124A JUMP JUMPDEST PUSH2 0x1132 SWAP2 SWAP1 PUSH2 0x3A46 JUMP JUMPDEST PUSH1 0x40 MLOAD PUSH4 0x140E29CB PUSH1 0xE3 SHL DUP2 MSTORE ADDRESS PUSH1 0x4 DUP3 ADD MSTORE PUSH1 0x1 PUSH1 0x1 PUSH1 0xA0 SHL SUB DUP5 AND SWAP1 PUSH4 0xA0714E58 SWAP1 PUSH1 0x24 ADD PUSH1 0x20 PUSH1 0x40 MLOAD DUP1 DUP4 SUB DUP2 DUP7 GAS STATICCALL ISZERO DUP1 ISZERO PUSH2 0x1174 JUMPI RETURNDATASIZE PUSH0 DUP1 RETURNDATACOPY RETURNDATASIZE PUSH0 REVERT JUMPDEST POP POP POP POP PUSH1 0x40 MLOAD RETURNDATASIZE PUSH1 0x1F NOT PUSH1 0x1F DUP3 ADD AND DUP3 ADD DUP1 PUSH1 0x40 MSTORE POP DUP2 ADD SWAP1 PUSH2 0x1198 SWAP2 SWAP1 PUSH2 0x3A1B JUMP JUMPDEST PUSH2 0xB04 SWAP2 SWAP1 PUSH2 0x3A65 JUMP JUMPDEST PUSH1 0x60 PUSH1 0x1 DUP1 SLOAD PUSH2 0x852 SWAP1 PUSH2 0x37A7 JUMP JUMPDEST PUSH0 PUSH2 0x11BB PUSH1 0xA SLOAD SWAP1 JUMP JUMPDEST DUP3 LT PUSH2 0x1221 JUMPI PUSH1 0x40 MLOAD PUSH3 0x461BCD PUSH1 0xE5 SHL DUP2 MSTORE PUSH1 0x20 PUSH1 0x4 DUP3 ADD MSTORE PUSH1 0x2F PUSH1 0x24 DUP3 ADD MSTORE PUSH32 0x45524333353235536C6F74456E756D657261626C653A20736C6F7420696E6465 PUSH1 0x44 DUP3 ADD MSTORE PUSH15 0x78206F7574206F6620626F756E6473 PUSH1 0x88 SHL PUSH1 0x64 DUP3 ADD MSTORE PUSH1 0x84 ADD PUSH2 0x7C2 JUMP JUMPDEST PUSH1 0xA DUP3 DUP2 SLOAD DUP2 LT PUSH2 0x1234 JUMPI PUSH2 0x1234 PUSH2 0x3793 JUMP JUMPDEST SWAP1 PUSH0 MSTORE PUSH1 0x20 PUSH0 KECCAK256 SWAP1 PUSH1 0x2 MUL ADD PUSH0 ADD SLOAD SWAP1 POP SWAP2 SWAP1 POP JUMP JUMPDEST PUSH0 PUSH2 0x1254 DUP3 PUSH2 0x15AB JUMP JUMPDEST PUSH0 DUP3 DUP2 MSTORE PUSH1 0x6 PUSH1 0x20 MSTORE PUSH1 0x40 SWAP1 KECCAK256 SLOAD PUSH1 0x5 DUP1 SLOAD SWAP1 SWAP2 SWAP1 DUP2 LT PUSH2 0x1277 JUMPI PUSH2 0x1277 PUSH2 0x3793 JUMP JUMPDEST SWAP1 PUSH0 MSTORE PUSH1 0x20 PUSH0 KECCAK256 SWAP1 PUSH1 0x6 MUL ADD PUSH1 0x2 ADD SLOAD SWAP1 POP SWAP2 SWAP1 POP JUMP JUMPDEST PUSH2 0xDD6 CALLER DUP4 DUP4 PUSH2 0x1C9D JUMP JUMPDEST PUSH0 DUP1 DUP1 JUMPDEST PUSH2 0x12A6 DUP5 PUSH2 0xCD7 JUMP JUMPDEST DUP2 LT ISZERO PUSH2 0x12DC JUMPI PUSH0 PUSH2 0x12B8 DUP6 DUP4 PUSH2 0x750 JUMP JUMPDEST SWAP1 POP PUSH0 PUSH2 0x12C4 DUP3 PUSH2 0x124A JUMP JUMPDEST SWAP1 POP PUSH2 0x12D0 DUP2 DUP6 PUSH2 0x3A7C JUMP JUMPDEST SWAP4 POP POP POP PUSH1 0x1 ADD PUSH2 0x129D JUMP JUMPDEST POP SWAP3 SWAP2 POP POP JUMP JUMPDEST PUSH2 0x12ED CALLER DUP4 PUSH2 0x17AA JUMP JUMPDEST PUSH2 0x1309 JUMPI PUSH1 0x40 MLOAD PUSH3 0x461BCD PUSH1 0xE5 SHL DUP2 MSTORE PUSH1 0x4 ADD PUSH2 0x7C2 SWAP1 PUSH2 0x38C9 JUMP JUMPDEST PUSH2 0xA14 DUP5 DUP5 DUP5 DUP5 PUSH2 0x1D66 JUMP JUMPDEST PUSH1 0x60 PUSH2 0x1320 DUP3 PUSH2 0x15AB JUMP JUMPDEST PUSH0 PUSH2 0x1329 PUSH2 0x1691 JUMP JUMPDEST PUSH1 0x8 SLOAD SWAP1 SWAP2 POP PUSH1 0x1 PUSH1 0x1 PUSH1 0xA0 SHL SUB AND PUSH2 0x1373 JUMPI PUSH0 DUP2 MLOAD GT PUSH2 0x1358 JUMPI PUSH1 0x40 MLOAD DUP1 PUSH1 0x20 ADD PUSH1 0x40 MSTORE DUP1 PUSH0 DUP2 MSTORE POP PUSH2 0xAF1 JUMP JUMPDEST DUP1 PUSH2 0x1362 DUP5 PUSH2 0x16A0 JUMP JUMPDEST PUSH1 0x40 MLOAD PUSH1 0x20 ADD PUSH2 0xA6F SWAP3 SWAP2 SWAP1 PUSH2 0x3A8F JUMP JUMPDEST PUSH1 0x8 SLOAD PUSH1 0x40 MLOAD PUSH4 0x44A5A617 PUSH1 0xE1 SHL DUP2 MSTORE PUSH1 0x4 DUP2 ADD DUP6 SWAP1 MSTORE PUSH1 0x1 PUSH1 0x1 PUSH1 0xA0 SHL SUB SWAP1 SWAP2 AND SWAP1 PUSH4 0x894B4C2E SWAP1 PUSH1 0x24 ADD PUSH2 0xAB0 JUMP JUMPDEST PUSH0 DUP1 PUSH2 0x13B8 PUSH1 0xD SLOAD PUSH1 0x1 PUSH1 0x1 PUSH1 0xA0 SHL SUB AND SWAP1 JUMP JUMPDEST PUSH1 0x40 MLOAD PUSH4 0x140E29CB PUSH1 0xE3 SHL DUP2 MSTORE ADDRESS PUSH1 0x4 DUP3 ADD MSTORE SWAP1 SWAP2 POP PUSH1 0x1 PUSH1 0x1 PUSH1 0xA0 SHL SUB DUP3 AND SWAP1 PUSH4 0xA0714E58 SWAP1 PUSH1 0x24 ADD PUSH1 0x20 PUSH1 0x40 MLOAD DUP1 DUP4 SUB DUP2 DUP7 GAS STATICCALL ISZERO DUP1 ISZERO PUSH2 0x13FD JUMPI RETURNDATASIZE PUSH0 DUP1 RETURNDATACOPY RETURNDATASIZE PUSH0 REVERT JUMPDEST POP POP POP POP PUSH1 0x40 MLOAD RETURNDATASIZE PUSH1 0x1F NOT PUSH1 0x1F DUP3 ADD AND DUP3 ADD DUP1 PUSH1 0x40 MSTORE POP DUP2 ADD SWAP1 PUSH2 0x1421 SWAP2 SWAP1 PUSH2 0x3A1B JUMP JUMPDEST SWAP2 POP POP SWAP1 JUMP JUMPDEST PUSH0 PUSH2 0x1431 DUP4 PUSH2 0x15AB JUMP JUMPDEST POP PUSH0 SWAP2 DUP3 MSTORE PUSH1 0x4 PUSH1 0x20 SWAP1 DUP2 MSTORE PUSH1 0x40 DUP1 DUP5 KECCAK256 PUSH1 0x1 PUSH1 0x1 PUSH1 0xA0 SHL SUB SWAP4 SWAP1 SWAP4 AND DUP5 MSTORE SWAP2 SWAP1 MSTORE SWAP1 KECCAK256 SLOAD SWAP1 JUMP JUMPDEST PUSH1 0x60 PUSH0 PUSH2 0x1464 PUSH2 0x1691 JUMP JUMPDEST PUSH1 0x8 SLOAD SWAP1 SWAP2 POP PUSH1 0x1 PUSH1 0x1 PUSH1 0xA0 SHL SUB AND PUSH2 0x14C2 JUMPI PUSH0 DUP2 MLOAD GT PUSH2 0x1493 JUMPI PUSH1 0x40 MLOAD DUP1 PUSH1 0x20 ADD PUSH1 0x40 MSTORE DUP1 PUSH0 DUP2 MSTORE POP PUSH2 0x1421 JUMP JUMPDEST DUP1 PUSH2 0x149D ADDRESS PUSH2 0x1DD9 JUMP JUMPDEST PUSH1 0x40 MLOAD PUSH1 0x20 ADD PUSH2 0x14AE SWAP3 SWAP2 SWAP1 PUSH2 0x3ABD JUMP JUMPDEST PUSH1 0x40 MLOAD PUSH1 0x20 DUP2 DUP4 SUB SUB DUP2 MSTORE SWAP1 PUSH1 0x40 MSTORE PUSH2 0x1421 JUMP JUMPDEST PUSH1 0x8 PUSH0 SWAP1 SLOAD SWAP1 PUSH2 0x100 EXP SWAP1 DIV PUSH1 0x1 PUSH1 0x1 PUSH1 0xA0 SHL SUB AND PUSH1 0x1 PUSH1 0x1 PUSH1 0xA0 SHL SUB AND PUSH4 0x725FA09C PUSH1 0x40 MLOAD DUP2 PUSH4 0xFFFFFFFF AND PUSH1 0xE0 SHL DUP2 MSTORE PUSH1 0x4 ADD PUSH0 PUSH1 0x40 MLOAD DUP1 DUP4 SUB DUP2 DUP7 GAS STATICCALL ISZERO DUP1 ISZERO PUSH2 0x1511 JUMPI RETURNDATASIZE PUSH0 DUP1 RETURNDATACOPY RETURNDATASIZE PUSH0 REVERT JUMPDEST POP POP POP POP PUSH1 0x40 MLOAD RETURNDATASIZE PUSH0 DUP3 RETURNDATACOPY PUSH1 0x1F RETURNDATASIZE SWAP1 DUP2 ADD PUSH1 0x1F NOT AND DUP3 ADD PUSH1 0x40 MSTORE PUSH2 0x1421 SWAP2 SWAP1 DUP2 ADD SWAP1 PUSH2 0x3860 JUMP JUMPDEST PUSH2 0x1540 PUSH2 0x1766 JUMP JUMPDEST PUSH2 0xDD6 DUP3 DUP3 PUSH2 0x1DEF JUMP JUMPDEST PUSH2 0x1552 PUSH2 0x1766 JUMP JUMPDEST PUSH1 0x1 PUSH1 0x1 PUSH1 0xA0 SHL SUB DUP2 AND PUSH2 0x157B JUMPI PUSH1 0x40 MLOAD PUSH4 0x1E4FBDF7 PUSH1 0xE0 SHL DUP2 MSTORE PUSH0 PUSH1 0x4 DUP3 ADD MSTORE PUSH1 0x24 ADD PUSH2 0x7C2 JUMP JUMPDEST PUSH2 0x1584 DUP2 PUSH2 0x1B17 JUMP JUMPDEST POP JUMP JUMPDEST PUSH0 PUSH1 0x1 PUSH1 0x1 PUSH1 0xE0 SHL SUB NOT DUP3 AND PUSH4 0x1DBA0DCF PUSH1 0xE1 SHL EQ DUP1 PUSH2 0x81A JUMPI POP PUSH2 0x81A DUP3 PUSH2 0x1E2D JUMP JUMPDEST PUSH2 0x15B4 DUP2 PUSH2 0x1ECE JUMP JUMPDEST PUSH2 0x1584 JUMPI PUSH1 0x40 MLOAD PUSH3 0x461BCD PUSH1 0xE5 SHL DUP2 MSTORE PUSH1 0x20 PUSH1 0x4 DUP3 ADD MSTORE PUSH1 0x19 PUSH1 0x24 DUP3 ADD MSTORE PUSH25 0x115490CCCD4C8D4E881A5B9D985B1A59081D1BDAD95B881251 PUSH1 0x3A SHL PUSH1 0x44 DUP3 ADD MSTORE PUSH1 0x64 ADD PUSH2 0x7C2 JUMP JUMPDEST PUSH0 DUP2 DUP2 MSTORE PUSH1 0x6 PUSH1 0x20 MSTORE PUSH1 0x40 SWAP1 KECCAK256 SLOAD PUSH1 0x5 DUP1 SLOAD DUP5 SWAP3 SWAP1 DUP2 LT PUSH2 0x161F JUMPI PUSH2 0x161F PUSH2 0x3793 JUMP JUMPDEST PUSH0 SWAP2 DUP3 MSTORE PUSH1 0x20 SWAP1 SWAP2 KECCAK256 PUSH1 0x6 SWAP1 SWAP2 MUL ADD PUSH1 0x4 ADD DUP1 SLOAD PUSH1 0x1 PUSH1 0x1 PUSH1 0xA0 SHL SUB NOT AND PUSH1 0x1 PUSH1 0x1 PUSH1 0xA0 SHL SUB SWAP3 DUP4 AND OR SWAP1 SSTORE DUP2 SWAP1 DUP4 AND PUSH2 0x1658 DUP3 PUSH2 0xDDA JUMP JUMPDEST PUSH1 0x1 PUSH1 0x1 PUSH1 0xA0 SHL SUB AND PUSH32 0x8C5BE1E5EBEC7D5BD14F71427D1E84F3DD0314C0F7B2291E5B200AC8C7C3B925 PUSH1 0x40 MLOAD PUSH1 0x40 MLOAD DUP1 SWAP2 SUB SWAP1 LOG4 POP POP JUMP JUMPDEST PUSH1 0x60 PUSH1 0xE DUP1 SLOAD PUSH2 0x852 SWAP1 PUSH2 0x37A7 JUMP JUMPDEST PUSH1 0x60 PUSH0 PUSH2 0x16AC DUP4 PUSH2 0x1F15 JUMP JUMPDEST PUSH1 0x1 ADD SWAP1 POP PUSH0 DUP2 PUSH8 0xFFFFFFFFFFFFFFFF DUP2 GT ISZERO PUSH2 0x16CB JUMPI PUSH2 0x16CB PUSH2 0x3557 JUMP JUMPDEST PUSH1 0x40 MLOAD SWAP1 DUP1 DUP3 MSTORE DUP1 PUSH1 0x1F ADD PUSH1 0x1F NOT AND PUSH1 0x20 ADD DUP3 ADD PUSH1 0x40 MSTORE DUP1 ISZERO PUSH2 0x16F5 JUMPI PUSH1 0x20 DUP3 ADD DUP2 DUP1 CALLDATASIZE DUP4 CALLDATACOPY ADD SWAP1 POP JUMPDEST POP SWAP1 POP DUP2 DUP2 ADD PUSH1 0x20 ADD JUMPDEST PUSH0 NOT ADD PUSH16 0x181899199A1A9B1B9C1CB0B131B232B3 PUSH1 0x81 SHL PUSH1 0xA DUP7 MOD BYTE DUP2 MSTORE8 PUSH1 0xA DUP6 DIV SWAP5 POP DUP5 PUSH2 0x16FF JUMPI POP SWAP4 SWAP3 POP POP POP JUMP JUMPDEST PUSH0 PUSH2 0x173C CALLER DUP6 DUP5 PUSH2 0x1FEC JUMP JUMPDEST PUSH2 0x1745 DUP5 PUSH2 0x207A JUMP JUMPDEST SWAP1 POP PUSH2 0x175B DUP4 DUP3 PUSH2 0x1755 DUP8 PUSH2 0xB55 JUMP JUMPDEST PUSH0 PUSH2 0x2083 JUMP JUMPDEST PUSH2 0xAF1 DUP5 DUP3 DUP5 PUSH2 0x21C3 JUMP JUMPDEST PUSH1 0xD SLOAD PUSH1 0x1 PUSH1 0x1 PUSH1 0xA0 SHL SUB AND CALLER EQ PUSH2 0xF96 JUMPI PUSH1 0x40 MLOAD PUSH4 0x118CDAA7 PUSH1 0xE0 SHL DUP2 MSTORE CALLER PUSH1 0x4 DUP3 ADD MSTORE PUSH1 0x24 ADD PUSH2 0x7C2 JUMP JUMPDEST PUSH0 PUSH2 0x179C PUSH2 0x24FF JUMP JUMPDEST SWAP1 POP PUSH2 0xAF1 DUP5 DUP3 DUP6 DUP6 PUSH2 0x2083 JUMP JUMPDEST PUSH0 PUSH2 0x17B4 DUP3 PUSH2 0x15AB JUMP JUMPDEST PUSH0 PUSH2 0x17BE DUP4 PUSH2 0xDDA JUMP JUMPDEST SWAP1 POP PUSH0 PUSH2 0x17CA DUP5 PUSH2 0xB55 JUMP JUMPDEST SWAP1 POP DUP2 PUSH1 0x1 PUSH1 0x1 PUSH1 0xA0 SHL SUB AND DUP6 PUSH1 0x1 PUSH1 0x1 PUSH1 0xA0 SHL SUB AND EQ DUP1 PUSH2 0x1805 JUMPI POP DUP5 PUSH1 0x1 PUSH1 0x1 PUSH1 0xA0 SHL SUB AND PUSH2 0x17FA DUP6 PUSH2 0x8D3 JUMP JUMPDEST PUSH1 0x1 PUSH1 0x1 PUSH1 0xA0 SHL SUB AND EQ JUMPDEST DUP1 PUSH2 0x1815 JUMPI POP PUSH2 0x1815 DUP3 DUP7 PUSH2 0x6CD JUMP JUMPDEST DUP1 PUSH2 0x184C JUMPI POP PUSH1 0x1 PUSH1 0x1 PUSH1 0xA0 SHL SUB DUP1 DUP4 AND PUSH0 SWAP1 DUP2 MSTORE PUSH1 0xC PUSH1 0x20 SWAP1 DUP2 MSTORE PUSH1 0x40 DUP1 DUP4 KECCAK256 DUP6 DUP5 MSTORE DUP3 MSTORE DUP1 DUP4 KECCAK256 SWAP4 DUP10 AND DUP4 MSTORE SWAP3 SWAP1 MSTORE KECCAK256 SLOAD PUSH1 0xFF AND JUMPDEST SWAP6 SWAP5 POP POP POP POP POP JUMP JUMPDEST DUP3 PUSH1 0x1 PUSH1 0x1 PUSH1 0xA0 SHL SUB AND PUSH2 0x1868 DUP3 PUSH2 0xDDA JUMP JUMPDEST PUSH1 0x1 PUSH1 0x1 PUSH1 0xA0 SHL SUB AND EQ PUSH2 0x18CA JUMPI PUSH1 0x40 MLOAD PUSH3 0x461BCD PUSH1 0xE5 SHL DUP2 MSTORE PUSH1 0x20 PUSH1 0x4 DUP3 ADD MSTORE PUSH1 0x24 DUP1 DUP3 ADD MSTORE PUSH32 0x455243333532353A207472616E736665722066726F6D20696E76616C6964206F PUSH1 0x44 DUP3 ADD MSTORE PUSH4 0x3BB732B9 PUSH1 0xE1 SHL PUSH1 0x64 DUP3 ADD MSTORE PUSH1 0x84 ADD PUSH2 0x7C2 JUMP JUMPDEST PUSH1 0x1 PUSH1 0x1 PUSH1 0xA0 SHL SUB DUP3 AND PUSH2 0x192E JUMPI PUSH1 0x40 MLOAD PUSH3 0x461BCD PUSH1 0xE5 SHL DUP2 MSTORE PUSH1 0x20 PUSH1 0x4 DUP3 ADD MSTORE PUSH1 0x25 PUSH1 0x24 DUP3 ADD MSTORE PUSH32 0x455243333532353A207472616E7366657220746F20746865207A65726F206164 PUSH1 0x44 DUP3 ADD MSTORE PUSH5 0x6472657373 PUSH1 0xD8 SHL PUSH1 0x64 DUP3 ADD MSTORE PUSH1 0x84 ADD PUSH2 0x7C2 JUMP JUMPDEST PUSH0 PUSH2 0x1938 DUP3 PUSH2 0xB55 JUMP JUMPDEST SWAP1 POP PUSH0 PUSH2 0x1944 DUP4 PUSH2 0x124A JUMP JUMPDEST SWAP1 POP PUSH2 0x1954 DUP6 DUP6 DUP6 DUP7 DUP7 DUP7 PUSH2 0x2518 JUMP JUMPDEST PUSH2 0x195E PUSH0 DUP5 PUSH2 0x15FC JUMP JUMPDEST PUSH2 0x1967 DUP4 PUSH2 0x2555 JUMP JUMPDEST PUSH2 0x1971 DUP6 DUP5 PUSH2 0x25F1 JUMP JUMPDEST PUSH2 0x197B DUP5 DUP5 PUSH2 0x2704 JUMP JUMPDEST DUP3 DUP5 PUSH1 0x1 PUSH1 0x1 PUSH1 0xA0 SHL SUB AND DUP7 PUSH1 0x1 PUSH1 0x1 PUSH1 0xA0 SHL SUB AND PUSH32 0xDDF252AD1BE2C89B69C2B068FC378DAA952BA7F163C4A11628F55A4DF523B3EF PUSH1 0x40 MLOAD PUSH1 0x40 MLOAD DUP1 SWAP2 SUB SWAP1 LOG4 PUSH2 0x19CA DUP6 DUP6 DUP6 DUP7 DUP7 DUP7 PUSH2 0x278B JUMP JUMPDEST POP POP POP POP POP JUMP JUMPDEST PUSH2 0x19DC CALLER DUP5 DUP4 PUSH2 0x1FEC JUMP JUMPDEST PUSH2 0xB50 DUP4 DUP4 DUP4 PUSH2 0x21C3 JUMP JUMPDEST PUSH1 0xA SLOAD PUSH0 SWAP1 ISZERO DUP1 ISZERO SWAP1 PUSH2 0x81A JUMPI POP PUSH0 DUP3 DUP2 MSTORE PUSH1 0xB PUSH1 0x20 MSTORE PUSH1 0x40 SWAP1 KECCAK256 SLOAD PUSH1 0xA DUP1 SLOAD DUP5 SWAP3 SWAP1 DUP2 LT PUSH2 0x1A18 JUMPI PUSH2 0x1A18 PUSH2 0x3793 JUMP JUMPDEST SWAP1 PUSH0 MSTORE PUSH1 0x20 PUSH0 KECCAK256 SWAP1 PUSH1 0x2 MUL ADD PUSH0 ADD SLOAD EQ SWAP3 SWAP2 POP POP JUMP JUMPDEST DUP2 PUSH1 0x1 PUSH1 0x1 PUSH1 0xA0 SHL SUB AND DUP5 PUSH1 0x1 PUSH1 0x1 PUSH1 0xA0 SHL SUB AND SUB PUSH2 0x1A9F JUMPI PUSH1 0x40 MLOAD PUSH3 0x461BCD PUSH1 0xE5 SHL DUP2 MSTORE PUSH1 0x20 PUSH1 0x4 DUP3 ADD MSTORE PUSH1 0x27 PUSH1 0x24 DUP3 ADD MSTORE PUSH32 0x45524333353235536C6F74417070726F7661626C653A20617070726F76652074 PUSH1 0x44 DUP3 ADD MSTORE PUSH7 0x379037BBB732B9 PUSH1 0xC9 SHL PUSH1 0x64 DUP3 ADD MSTORE PUSH1 0x84 ADD PUSH2 0x7C2 JUMP JUMPDEST PUSH1 0x1 PUSH1 0x1 PUSH1 0xA0 SHL SUB DUP5 DUP2 AND PUSH0 DUP2 DUP2 MSTORE PUSH1 0xC PUSH1 0x20 SWAP1 DUP2 MSTORE PUSH1 0x40 DUP1 DUP4 KECCAK256 DUP9 DUP5 MSTORE DUP3 MSTORE DUP1 DUP4 KECCAK256 SWAP5 DUP8 AND DUP1 DUP5 MSTORE SWAP5 DUP3 MSTORE SWAP2 DUP3 SWAP1 KECCAK256 DUP1 SLOAD PUSH1 0xFF NOT AND DUP7 ISZERO ISZERO SWAP1 DUP2 OR SWAP1 SWAP2 SSTORE SWAP2 MLOAD SWAP2 DUP3 MSTORE DUP7 SWAP3 SWAP2 PUSH32 0x7BDF71E6625AA496095BF08B60C677CF81C963F402CF258981E3BD7507D3480C SWAP2 ADD PUSH1 0x40 MLOAD DUP1 SWAP2 SUB SWAP1 LOG4 POP POP POP POP JUMP JUMPDEST PUSH1 0xD DUP1 SLOAD PUSH1 0x1 PUSH1 0x1 PUSH1 0xA0 SHL SUB DUP4 DUP2 AND PUSH1 0x1 PUSH1 0x1 PUSH1 0xA0 SHL SUB NOT DUP4 AND DUP2 OR SWAP1 SWAP4 SSTORE PUSH1 0x40 MLOAD SWAP2 AND SWAP2 SWAP1 DUP3 SWAP1 PUSH32 0x8BE0079C531659141344CD1FD0A4F28419497F9722A3DAAFE3B4186F6B6457E0 SWAP1 PUSH0 SWAP1 LOG3 POP POP JUMP JUMPDEST PUSH1 0x1 PUSH1 0x1 PUSH1 0xA0 SHL SUB DUP3 AND PUSH2 0x1BD1 JUMPI PUSH1 0x40 MLOAD PUSH3 0x461BCD PUSH1 0xE5 SHL DUP2 MSTORE PUSH1 0x20 PUSH1 0x4 DUP3 ADD MSTORE PUSH1 0x2A PUSH1 0x24 DUP3 ADD MSTORE PUSH32 0x455243333532353A20617070726F76652076616C756520746F20746865207A65 PUSH1 0x44 DUP3 ADD MSTORE PUSH10 0x726F2061646472657373 PUSH1 0xB0 SHL PUSH1 0x64 DUP3 ADD MSTORE PUSH1 0x84 ADD PUSH2 0x7C2 JUMP JUMPDEST PUSH2 0x1BDB DUP3 DUP5 PUSH2 0x27FC JUMP JUMPDEST PUSH2 0x1C3F JUMPI PUSH0 DUP4 DUP2 MSTORE PUSH1 0x6 PUSH1 0x20 MSTORE PUSH1 0x40 SWAP1 KECCAK256 SLOAD PUSH1 0x5 DUP1 SLOAD SWAP1 SWAP2 SWAP1 DUP2 LT PUSH2 0x1C02 JUMPI PUSH2 0x1C02 PUSH2 0x3793 JUMP JUMPDEST PUSH0 SWAP2 DUP3 MSTORE PUSH1 0x20 DUP1 DUP4 KECCAK256 PUSH1 0x6 SWAP3 SWAP1 SWAP3 MUL SWAP1 SWAP2 ADD PUSH1 0x5 ADD DUP1 SLOAD PUSH1 0x1 DUP2 ADD DUP3 SSTORE SWAP1 DUP4 MSTORE SWAP2 KECCAK256 ADD DUP1 SLOAD PUSH1 0x1 PUSH1 0x1 PUSH1 0xA0 SHL SUB NOT AND PUSH1 0x1 PUSH1 0x1 PUSH1 0xA0 SHL SUB DUP5 AND OR SWAP1 SSTORE JUMPDEST PUSH0 DUP4 DUP2 MSTORE PUSH1 0x4 PUSH1 0x20 SWAP1 DUP2 MSTORE PUSH1 0x40 DUP1 DUP4 KECCAK256 PUSH1 0x1 PUSH1 0x1 PUSH1 0xA0 SHL SUB DUP7 AND DUP1 DUP6 MSTORE SWAP1 DUP4 MSTORE SWAP3 DUP2 SWAP1 KECCAK256 DUP5 SWAP1 SSTORE MLOAD DUP4 DUP2 MSTORE DUP6 SWAP2 PUSH32 0x621B050DE0AD08B51D19B48B3E6DF75348C4DE6BDD93E81B252CA62E28265B1B SWAP2 ADD JUMPDEST PUSH1 0x40 MLOAD DUP1 SWAP2 SUB SWAP1 LOG3 POP POP POP JUMP JUMPDEST DUP2 PUSH1 0x1 PUSH1 0x1 PUSH1 0xA0 SHL SUB AND DUP4 PUSH1 0x1 PUSH1 0x1 PUSH1 0xA0 SHL SUB AND SUB PUSH2 0x1CFE JUMPI PUSH1 0x40 MLOAD PUSH3 0x461BCD PUSH1 0xE5 SHL DUP2 MSTORE PUSH1 0x20 PUSH1 0x4 DUP3 ADD MSTORE PUSH1 0x1A PUSH1 0x24 DUP3 ADD MSTORE PUSH32 0x455243333532353A20617070726F766520746F2063616C6C6572000000000000 PUSH1 0x44 DUP3 ADD MSTORE PUSH1 0x64 ADD PUSH2 0x7C2 JUMP JUMPDEST PUSH1 0x1 PUSH1 0x1 PUSH1 0xA0 SHL SUB DUP4 DUP2 AND PUSH0 DUP2 DUP2 MSTORE PUSH1 0x7 PUSH1 0x20 SWAP1 DUP2 MSTORE PUSH1 0x40 DUP1 DUP4 KECCAK256 SWAP5 DUP8 AND DUP1 DUP5 MSTORE PUSH1 0x2 SWAP1 SWAP6 ADD DUP3 MSTORE SWAP2 DUP3 SWAP1 KECCAK256 DUP1 SLOAD PUSH1 0xFF NOT AND DUP7 ISZERO ISZERO SWAP1 DUP2 OR SWAP1 SWAP2 SSTORE SWAP2 MLOAD SWAP2 DUP3 MSTORE PUSH32 0x17307EAB39AB6107E8899845AD3D59BD9653F200F220920489CA2B5937696C31 SWAP2 ADD PUSH2 0x1C90 JUMP JUMPDEST PUSH2 0x1D71 DUP5 DUP5 DUP5 PUSH2 0x1855 JUMP JUMPDEST PUSH2 0x1D7D DUP5 DUP5 DUP5 DUP5 PUSH2 0x28BE JUMP JUMPDEST PUSH2 0xA14 JUMPI PUSH1 0x40 MLOAD PUSH3 0x461BCD PUSH1 0xE5 SHL DUP2 MSTORE PUSH1 0x20 PUSH1 0x4 DUP3 ADD MSTORE PUSH1 0x27 PUSH1 0x24 DUP3 ADD MSTORE PUSH32 0x455243333532353A207472616E7366657220746F206E6F6E2045524337323152 PUSH1 0x44 DUP3 ADD MSTORE PUSH7 0x32B1B2B4BB32B9 PUSH1 0xC9 SHL PUSH1 0x64 DUP3 ADD MSTORE PUSH1 0x84 ADD PUSH2 0x7C2 JUMP JUMPDEST PUSH1 0x60 PUSH2 0x81A PUSH1 0x1 PUSH1 0x1 PUSH1 0xA0 SHL SUB DUP4 AND PUSH1 0x14 PUSH2 0x2A03 JUMP JUMPDEST PUSH0 PUSH2 0x1DF9 DUP4 PUSH2 0xDDA JUMP JUMPDEST SWAP1 POP PUSH0 PUSH2 0x1E05 DUP5 PUSH2 0xB55 JUMP JUMPDEST SWAP1 POP PUSH2 0x1E15 PUSH0 DUP4 PUSH0 DUP8 DUP6 DUP9 PUSH2 0x2518 JUMP JUMPDEST PUSH2 0x1E1F DUP5 DUP5 PUSH2 0x2B75 JUMP JUMPDEST PUSH2 0xA14 PUSH0 DUP4 PUSH0 DUP8 DUP6 DUP9 PUSH2 0x278B JUMP JUMPDEST PUSH0 PUSH1 0x1 PUSH1 0x1 PUSH1 0xE0 SHL SUB NOT DUP3 AND PUSH4 0x1FFC9A7 PUSH1 0xE0 SHL EQ DUP1 PUSH2 0x1E5D JUMPI POP PUSH1 0x1 PUSH1 0x1 PUSH1 0xE0 SHL SUB NOT DUP3 AND PUSH4 0x354D605 PUSH1 0xE6 SHL EQ JUMPDEST DUP1 PUSH2 0x1E78 JUMPI POP PUSH1 0x1 PUSH1 0x1 PUSH1 0xE0 SHL SUB NOT DUP3 AND PUSH4 0x80AC58CD PUSH1 0xE0 SHL EQ JUMPDEST DUP1 PUSH2 0x1E93 JUMPI POP PUSH1 0x1 PUSH1 0x1 PUSH1 0xE0 SHL SUB NOT DUP3 AND PUSH4 0x70B00481 PUSH1 0xE1 SHL EQ JUMPDEST DUP1 PUSH2 0x1EAE JUMPI POP PUSH1 0x1 PUSH1 0x1 PUSH1 0xE0 SHL SUB NOT DUP3 AND PUSH4 0x780E9D63 PUSH1 0xE0 SHL EQ JUMPDEST DUP1 PUSH2 0x81A JUMPI POP PUSH1 0x1 PUSH1 0x1 PUSH1 0xE0 SHL SUB NOT DUP3 AND PUSH4 0x5B5E139F PUSH1 0xE0 SHL EQ SWAP3 SWAP2 POP POP JUMP JUMPDEST PUSH1 0x5 SLOAD PUSH0 SWAP1 ISZERO DUP1 ISZERO SWAP1 PUSH2 0x81A JUMPI POP PUSH0 DUP3 DUP2 MSTORE PUSH1 0x6 PUSH1 0x20 MSTORE PUSH1 0x40 SWAP1 KECCAK256 SLOAD PUSH1 0x5 DUP1 SLOAD DUP5 SWAP3 SWAP1 DUP2 LT PUSH2 0x1EFF JUMPI PUSH2 0x1EFF PUSH2 0x3793 JUMP JUMPDEST SWAP1 PUSH0 MSTORE PUSH1 0x20 PUSH0 KECCAK256 SWAP1 PUSH1 0x6 MUL ADD PUSH0 ADD SLOAD EQ SWAP3 SWAP2 POP POP JUMP JUMPDEST PUSH0 DUP1 PUSH19 0x184F03E93FF9F4DAA797ED6E38ED64BF6A1F01 PUSH1 0x40 SHL DUP4 LT PUSH2 0x1F53 JUMPI PUSH19 0x184F03E93FF9F4DAA797ED6E38ED64BF6A1F01 PUSH1 0x40 SHL DUP4 DIV SWAP3 POP PUSH1 0x40 ADD JUMPDEST PUSH14 0x4EE2D6D415B85ACEF8100000000 DUP4 LT PUSH2 0x1F7F JUMPI PUSH14 0x4EE2D6D415B85ACEF8100000000 DUP4 DIV SWAP3 POP PUSH1 0x20 ADD JUMPDEST PUSH7 0x2386F26FC10000 DUP4 LT PUSH2 0x1F9D JUMPI PUSH7 0x2386F26FC10000 DUP4 DIV SWAP3 POP PUSH1 0x10 ADD JUMPDEST PUSH4 0x5F5E100 DUP4 LT PUSH2 0x1FB5 JUMPI PUSH4 0x5F5E100 DUP4 DIV SWAP3 POP PUSH1 0x8 ADD JUMPDEST PUSH2 0x2710 DUP4 LT PUSH2 0x1FC9 JUMPI PUSH2 0x2710 DUP4 DIV SWAP3 POP PUSH1 0x4 ADD JUMPDEST PUSH1 0x64 DUP4 LT PUSH2 0x1FDB JUMPI PUSH1 0x64 DUP4 DIV SWAP3 POP PUSH1 0x2 ADD JUMPDEST PUSH1 0xA DUP4 LT PUSH2 0x81A JUMPI PUSH1 0x1 ADD SWAP3 SWAP2 POP POP JUMP JUMPDEST PUSH0 PUSH2 0x1FF7 DUP4 DUP6 PUSH2 0x1427 JUMP JUMPDEST SWAP1 POP PUSH2 0x2003 DUP5 DUP5 PUSH2 0x17AA JUMP JUMPDEST ISZERO DUP1 ISZERO PUSH2 0x2011 JUMPI POP PUSH0 NOT DUP2 EQ ISZERO JUMPDEST ISZERO PUSH2 0xA14 JUMPI DUP2 DUP2 LT ISZERO PUSH2 0x2066 JUMPI PUSH1 0x40 MLOAD PUSH3 0x461BCD PUSH1 0xE5 SHL DUP2 MSTORE PUSH1 0x20 PUSH1 0x4 DUP3 ADD MSTORE PUSH1 0x1F PUSH1 0x24 DUP3 ADD MSTORE PUSH32 0x455243333532353A20696E73756666696369656E7420616C6C6F77616E636500 PUSH1 0x44 DUP3 ADD MSTORE PUSH1 0x64 ADD PUSH2 0x7C2 JUMP JUMPDEST PUSH2 0xA14 DUP4 DUP6 PUSH2 0x2075 DUP6 DUP6 PUSH2 0x3B00 JUMP JUMPDEST PUSH2 0x1B68 JUMP JUMPDEST PUSH0 PUSH2 0x81A PUSH2 0x24FF JUMP JUMPDEST PUSH1 0x1 PUSH1 0x1 PUSH1 0xA0 SHL SUB DUP5 AND PUSH2 0x20E3 JUMPI PUSH1 0x40 MLOAD PUSH3 0x461BCD PUSH1 0xE5 SHL DUP2 MSTORE PUSH1 0x20 PUSH1 0x4 DUP3 ADD MSTORE PUSH1 0x21 PUSH1 0x24 DUP3 ADD MSTORE PUSH32 0x455243333532353A206D696E7420746F20746865207A65726F20616464726573 PUSH1 0x44 DUP3 ADD MSTORE PUSH1 0x73 PUSH1 0xF8 SHL PUSH1 0x64 DUP3 ADD MSTORE PUSH1 0x84 ADD PUSH2 0x7C2 JUMP JUMPDEST DUP3 PUSH0 SUB PUSH2 0x213C JUMPI PUSH1 0x40 MLOAD PUSH3 0x461BCD PUSH1 0xE5 SHL DUP2 MSTORE PUSH1 0x20 PUSH1 0x4 DUP3 ADD MSTORE PUSH1 0x21 PUSH1 0x24 DUP3 ADD MSTORE PUSH32 0x455243333532353A2063616E6E6F74206D696E74207A65726F20746F6B656E49 PUSH1 0x44 DUP3 ADD MSTORE PUSH1 0x19 PUSH1 0xFA SHL PUSH1 0x64 DUP3 ADD MSTORE PUSH1 0x84 ADD PUSH2 0x7C2 JUMP JUMPDEST PUSH2 0x2145 DUP4 PUSH2 0x1ECE JUMP JUMPDEST ISZERO PUSH2 0x2192 JUMPI PUSH1 0x40 MLOAD PUSH3 0x461BCD PUSH1 0xE5 SHL DUP2 MSTORE PUSH1 0x20 PUSH1 0x4 DUP3 ADD MSTORE PUSH1 0x1D PUSH1 0x24 DUP3 ADD MSTORE PUSH32 0x455243333532353A20746F6B656E20616C7265616479206D696E746564000000 PUSH1 0x44 DUP3 ADD MSTORE PUSH1 0x64 ADD PUSH2 0x7C2 JUMP JUMPDEST PUSH2 0x21A0 PUSH0 DUP6 PUSH0 DUP7 DUP7 DUP7 PUSH2 0x2518 JUMP JUMPDEST PUSH2 0x21AB DUP5 DUP5 DUP5 PUSH2 0x2BF5 JUMP JUMPDEST PUSH2 0x21B5 DUP4 DUP3 PUSH2 0x2B75 JUMP JUMPDEST PUSH2 0xA14 PUSH0 DUP6 PUSH0 DUP7 DUP7 DUP7 PUSH2 0x278B JUMP JUMPDEST PUSH2 0x21CC DUP4 PUSH2 0x1ECE JUMP JUMPDEST PUSH2 0x2228 JUMPI PUSH1 0x40 MLOAD PUSH3 0x461BCD PUSH1 0xE5 SHL DUP2 MSTORE PUSH1 0x20 PUSH1 0x4 DUP3 ADD MSTORE PUSH1 0x27 PUSH1 0x24 DUP3 ADD MSTORE PUSH32 0x455243333532353A207472616E736665722066726F6D20696E76616C69642074 PUSH1 0x44 DUP3 ADD MSTORE PUSH7 0x1BDAD95B881251 PUSH1 0xCA SHL PUSH1 0x64 DUP3 ADD MSTORE PUSH1 0x84 ADD PUSH2 0x7C2 JUMP JUMPDEST PUSH2 0x2231 DUP3 PUSH2 0x1ECE JUMP JUMPDEST PUSH2 0x228B JUMPI PUSH1 0x40 MLOAD PUSH3 0x461BCD PUSH1 0xE5 SHL DUP2 MSTORE PUSH1 0x20 PUSH1 0x4 DUP3 ADD MSTORE PUSH1 0x25 PUSH1 0x24 DUP3 ADD MSTORE PUSH32 0x455243333532353A207472616E7366657220746F20696E76616C696420746F6B PUSH1 0x44 DUP3 ADD MSTORE PUSH5 0x195B881251 PUSH1 0xDA SHL PUSH1 0x64 DUP3 ADD MSTORE PUSH1 0x84 ADD PUSH2 0x7C2 JUMP JUMPDEST PUSH0 DUP4 DUP2 MSTORE PUSH1 0x6 PUSH1 0x20 MSTORE PUSH1 0x40 DUP2 KECCAK256 SLOAD PUSH1 0x5 DUP1 SLOAD SWAP1 SWAP2 SWAP1 DUP2 LT PUSH2 0x22AE JUMPI PUSH2 0x22AE PUSH2 0x3793 JUMP JUMPDEST SWAP1 PUSH0 MSTORE PUSH1 0x20 PUSH0 KECCAK256 SWAP1 PUSH1 0x6 MUL ADD SWAP1 POP PUSH0 PUSH1 0x5 PUSH1 0x6 PUSH0 DUP7 DUP2 MSTORE PUSH1 0x20 ADD SWAP1 DUP2 MSTORE PUSH1 0x20 ADD PUSH0 KECCAK256 SLOAD DUP2 SLOAD DUP2 LT PUSH2 0x22E1 JUMPI PUSH2 0x22E1 PUSH2 0x3793 JUMP JUMPDEST SWAP1 PUSH0 MSTORE PUSH1 0x20 PUSH0 KECCAK256 SWAP1 PUSH1 0x6 MUL ADD SWAP1 POP DUP3 DUP3 PUSH1 0x2 ADD SLOAD LT ISZERO PUSH2 0x2356 JUMPI PUSH1 0x40 MLOAD PUSH3 0x461BCD PUSH1 0xE5 SHL DUP2 MSTORE PUSH1 0x20 PUSH1 0x4 DUP3 ADD MSTORE PUSH1 0x2A PUSH1 0x24 DUP3 ADD MSTORE PUSH32 0x455243333532353A20696E73756666696369656E742062616C616E636520666F PUSH1 0x44 DUP3 ADD MSTORE PUSH10 0x39103A3930B739B332B9 PUSH1 0xB1 SHL PUSH1 0x64 DUP3 ADD MSTORE PUSH1 0x84 ADD PUSH2 0x7C2 JUMP JUMPDEST DUP1 PUSH1 0x1 ADD SLOAD DUP3 PUSH1 0x1 ADD SLOAD EQ PUSH2 0x23C4 JUMPI PUSH1 0x40 MLOAD PUSH3 0x461BCD PUSH1 0xE5 SHL DUP2 MSTORE PUSH1 0x20 PUSH1 0x4 DUP3 ADD MSTORE PUSH1 0x2E PUSH1 0x24 DUP3 ADD MSTORE PUSH32 0x455243333532353A207472616E7366657220746F20746F6B656E207769746820 PUSH1 0x44 DUP3 ADD MSTORE PUSH14 0x191A5999995C995B9D081CDB1BDD PUSH1 0x92 SHL PUSH1 0x64 DUP3 ADD MSTORE PUSH1 0x84 ADD PUSH2 0x7C2 JUMP JUMPDEST PUSH1 0x3 DUP1 DUP4 ADD SLOAD SWAP1 DUP3 ADD SLOAD PUSH1 0x1 DUP5 ADD SLOAD PUSH2 0x23EF SWAP3 PUSH1 0x1 PUSH1 0x1 PUSH1 0xA0 SHL SUB SWAP1 DUP2 AND SWAP3 AND SWAP1 DUP9 SWAP1 DUP9 SWAP1 DUP9 PUSH2 0x2518 JUMP JUMPDEST DUP3 DUP3 PUSH1 0x2 ADD PUSH0 DUP3 DUP3 SLOAD PUSH2 0x2402 SWAP2 SWAP1 PUSH2 0x3B00 JUMP JUMPDEST SWAP3 POP POP DUP2 SWAP1 SSTORE POP DUP3 DUP2 PUSH1 0x2 ADD PUSH0 DUP3 DUP3 SLOAD PUSH2 0x241C SWAP2 SWAP1 PUSH2 0x3A7C JUMP JUMPDEST SWAP1 SWAP2 SSTORE POP POP PUSH1 0x40 MLOAD DUP4 DUP2 MSTORE DUP5 SWAP1 DUP7 SWAP1 PUSH32 0xB2AAC84F3EC956911FD78EAE5311062972FF949F38412E8DA39069D9F068CC6 SWAP1 PUSH1 0x20 ADD PUSH1 0x40 MLOAD DUP1 SWAP2 SUB SWAP1 LOG3 PUSH1 0x3 DUP1 DUP4 ADD SLOAD SWAP1 DUP3 ADD SLOAD PUSH1 0x1 DUP5 ADD SLOAD PUSH2 0x2483 SWAP3 PUSH1 0x1 PUSH1 0x1 PUSH1 0xA0 SHL SUB SWAP1 DUP2 AND SWAP3 AND SWAP1 DUP9 SWAP1 DUP9 SWAP1 DUP9 PUSH2 0x278B JUMP JUMPDEST PUSH2 0x249D DUP6 DUP6 DUP6 PUSH1 0x40 MLOAD DUP1 PUSH1 0x20 ADD PUSH1 0x40 MSTORE DUP1 PUSH0 DUP2 MSTORE POP PUSH2 0x2CB8 JUMP JUMPDEST PUSH2 0x19CA JUMPI PUSH1 0x40 MLOAD PUSH3 0x461BCD PUSH1 0xE5 SHL DUP2 MSTORE PUSH1 0x20 PUSH1 0x4 DUP3 ADD MSTORE PUSH1 0x2D PUSH1 0x24 DUP3 ADD MSTORE PUSH32 0x455243333532353A207472616E736665722072656A6563746564206279204552 PUSH1 0x44 DUP3 ADD MSTORE PUSH13 0x21999A991AA932B1B2B4BB32B9 PUSH1 0x99 SHL PUSH1 0x64 DUP3 ADD MSTORE PUSH1 0x84 ADD PUSH2 0x7C2 JUMP JUMPDEST PUSH1 0x3 DUP1 SLOAD PUSH0 SWAP2 DUP3 PUSH2 0x250F DUP4 PUSH2 0x3B13 JUMP JUMPDEST SWAP2 SWAP1 POP SSTORE SWAP1 POP SWAP1 JUMP JUMPDEST PUSH1 0x1 PUSH1 0x1 PUSH1 0xA0 SHL SUB DUP7 AND ISZERO DUP1 ISZERO PUSH2 0x252D JUMPI POP DUP4 ISZERO JUMPDEST DUP1 ISZERO PUSH2 0x253F JUMPI POP PUSH2 0x253D DUP3 PUSH2 0x19E7 JUMP JUMPDEST ISZERO JUMPDEST ISZERO PUSH2 0x254D JUMPI PUSH2 0x254D DUP3 PUSH2 0x2E22 JUMP JUMPDEST POP POP POP POP POP POP JUMP JUMPDEST PUSH0 DUP2 DUP2 MSTORE PUSH1 0x6 PUSH1 0x20 MSTORE PUSH1 0x40 DUP2 KECCAK256 SLOAD PUSH1 0x5 DUP1 SLOAD SWAP1 SWAP2 SWAP1 DUP2 LT PUSH2 0x2578 JUMPI PUSH2 0x2578 PUSH2 0x3793 JUMP JUMPDEST PUSH0 SWAP2 DUP3 MSTORE PUSH1 0x20 DUP3 KECCAK256 PUSH1 0x5 PUSH1 0x6 SWAP1 SWAP3 MUL ADD SWAP1 DUP2 ADD SLOAD SWAP1 SWAP3 POP SWAP1 JUMPDEST DUP2 DUP2 LT ISZERO PUSH2 0x25E3 JUMPI PUSH0 DUP4 PUSH1 0x5 ADD DUP3 DUP2 SLOAD DUP2 LT PUSH2 0x25AF JUMPI PUSH2 0x25AF PUSH2 0x3793 JUMP JUMPDEST PUSH0 SWAP2 DUP3 MSTORE PUSH1 0x20 DUP1 DUP4 KECCAK256 SWAP1 SWAP2 ADD SLOAD DUP8 DUP4 MSTORE PUSH1 0x4 DUP3 MSTORE PUSH1 0x40 DUP1 DUP5 KECCAK256 PUSH1 0x1 PUSH1 0x1 PUSH1 0xA0 SHL SUB SWAP1 SWAP3 AND DUP5 MSTORE SWAP2 MSTORE DUP2 KECCAK256 SSTORE POP PUSH1 0x1 ADD PUSH2 0x2591 JUMP JUMPDEST POP PUSH2 0xB50 PUSH1 0x5 DUP4 ADD PUSH0 PUSH2 0x327B JUMP JUMPDEST PUSH0 DUP2 DUP2 MSTORE PUSH1 0x6 PUSH1 0x20 MSTORE PUSH1 0x40 DUP2 KECCAK256 SLOAD PUSH1 0x5 DUP1 SLOAD SWAP1 SWAP2 SWAP1 DUP2 LT PUSH2 0x2614 JUMPI PUSH2 0x2614 PUSH2 0x3793 JUMP JUMPDEST PUSH0 SWAP2 DUP3 MSTORE PUSH1 0x20 DUP1 DUP4 KECCAK256 PUSH1 0x6 SWAP3 SWAP1 SWAP3 MUL SWAP1 SWAP2 ADD PUSH1 0x3 ADD DUP1 SLOAD PUSH1 0x1 PUSH1 0x1 PUSH1 0xA0 SHL SUB NOT AND PUSH1 0x1 PUSH1 0x1 PUSH1 0xA0 SHL SUB SWAP5 DUP6 AND OR SWAP1 SSTORE SWAP2 DUP5 AND DUP2 MSTORE PUSH1 0x7 SWAP1 SWAP2 MSTORE PUSH1 0x40 DUP2 KECCAK256 DUP1 SLOAD SWAP1 SWAP2 SWAP1 PUSH2 0x2662 SWAP1 PUSH1 0x1 SWAP1 PUSH2 0x3B00 JUMP JUMPDEST SWAP1 POP PUSH0 DUP3 PUSH0 ADD DUP3 DUP2 SLOAD DUP2 LT PUSH2 0x2679 JUMPI PUSH2 0x2679 PUSH2 0x3793 JUMP JUMPDEST SWAP1 PUSH0 MSTORE PUSH1 0x20 PUSH0 KECCAK256 ADD SLOAD SWAP1 POP PUSH0 DUP4 PUSH1 0x1 ADD PUSH0 DUP7 DUP2 MSTORE PUSH1 0x20 ADD SWAP1 DUP2 MSTORE PUSH1 0x20 ADD PUSH0 KECCAK256 SLOAD SWAP1 POP DUP2 DUP5 PUSH0 ADD DUP3 DUP2 SLOAD DUP2 LT PUSH2 0x26B0 JUMPI PUSH2 0x26B0 PUSH2 0x3793 JUMP JUMPDEST PUSH0 SWAP2 DUP3 MSTORE PUSH1 0x20 DUP1 DUP4 KECCAK256 SWAP1 SWAP2 ADD SWAP3 SWAP1 SWAP3 SSTORE DUP4 DUP2 MSTORE PUSH1 0x1 DUP7 ADD SWAP1 SWAP2 MSTORE PUSH1 0x40 DUP1 DUP3 KECCAK256 DUP4 SWAP1 SSTORE DUP7 DUP3 MSTORE DUP2 KECCAK256 SSTORE DUP4 SLOAD DUP5 SWAP1 DUP1 PUSH2 0x26E9 JUMPI PUSH2 0x26E9 PUSH2 0x3B2B JUMP JUMPDEST PUSH1 0x1 SWAP1 SUB DUP2 DUP2 SWAP1 PUSH0 MSTORE PUSH1 0x20 PUSH0 KECCAK256 ADD PUSH0 SWAP1 SSTORE SWAP1 SSTORE POP POP POP POP POP POP JUMP JUMPDEST PUSH0 DUP2 DUP2 MSTORE PUSH1 0x6 PUSH1 0x20 MSTORE PUSH1 0x40 SWAP1 KECCAK256 SLOAD PUSH1 0x5 DUP1 SLOAD DUP5 SWAP3 SWAP1 DUP2 LT PUSH2 0x2727 JUMPI PUSH2 0x2727 PUSH2 0x3793 JUMP JUMPDEST PUSH0 SWAP2 DUP3 MSTORE PUSH1 0x20 DUP1 DUP4 KECCAK256 PUSH1 0x6 SWAP3 SWAP1 SWAP3 MUL SWAP1 SWAP2 ADD PUSH1 0x3 ADD DUP1 SLOAD PUSH1 0x1 PUSH1 0x1 PUSH1 0xA0 SHL SUB NOT AND PUSH1 0x1 PUSH1 0x1 PUSH1 0xA0 SHL SUB SWAP5 DUP6 AND OR SWAP1 SSTORE SWAP4 SWAP1 SWAP2 AND DUP2 MSTORE PUSH1 0x7 DUP1 DUP5 MSTORE PUSH1 0x40 DUP1 DUP4 KECCAK256 DUP1 SLOAD DUP6 DUP6 MSTORE PUSH1 0x1 DUP3 DUP2 ADD DUP9 MSTORE SWAP3 DUP6 KECCAK256 DUP2 SWAP1 SSTORE SWAP3 DUP7 MSTORE SWAP1 DUP3 ADD DUP2 SSTORE DUP3 MSTORE SWAP3 SWAP1 KECCAK256 SWAP1 SWAP2 ADD SSTORE JUMP JUMPDEST PUSH1 0x1 PUSH1 0x1 PUSH1 0xA0 SHL SUB DUP7 AND ISZERO DUP1 ISZERO PUSH2 0x27A0 JUMPI POP DUP4 ISZERO JUMPDEST DUP1 ISZERO PUSH2 0x27B3 JUMPI POP PUSH2 0x27B1 DUP3 DUP5 PUSH2 0x2EE7 JUMP JUMPDEST ISZERO JUMPDEST ISZERO PUSH2 0x27C7 JUMPI PUSH2 0x27C2 DUP3 DUP5 PUSH2 0x2F6B JUMP JUMPDEST PUSH2 0x254D JUMP JUMPDEST PUSH1 0x1 PUSH1 0x1 PUSH1 0xA0 SHL SUB DUP6 AND ISZERO DUP1 ISZERO PUSH2 0x27DC JUMPI POP DUP3 ISZERO JUMPDEST DUP1 ISZERO PUSH2 0x27ED JUMPI POP PUSH2 0x27ED DUP3 DUP6 PUSH2 0x2EE7 JUMP JUMPDEST ISZERO PUSH2 0x27C2 JUMPI PUSH2 0x27C2 DUP3 DUP6 PUSH2 0x2FCA JUMP JUMPDEST PUSH0 DUP2 DUP2 MSTORE PUSH1 0x6 PUSH1 0x20 MSTORE PUSH1 0x40 DUP2 KECCAK256 SLOAD PUSH1 0x5 DUP1 SLOAD DUP4 SWAP3 SWAP1 DUP2 LT PUSH2 0x281F JUMPI PUSH2 0x281F PUSH2 0x3793 JUMP JUMPDEST PUSH0 SWAP2 DUP3 MSTORE PUSH1 0x20 DUP3 KECCAK256 PUSH1 0x5 PUSH1 0x6 SWAP1 SWAP3 MUL ADD ADD SLOAD SWAP2 POP JUMPDEST DUP2 DUP2 LT ISZERO PUSH2 0x28B4 JUMPI PUSH0 DUP5 DUP2 MSTORE PUSH1 0x6 PUSH1 0x20 MSTORE PUSH1 0x40 SWAP1 KECCAK256 SLOAD PUSH1 0x5 DUP1 SLOAD PUSH1 0x1 PUSH1 0x1 PUSH1 0xA0 SHL SUB DUP9 AND SWAP3 SWAP1 DUP2 LT PUSH2 0x2868 JUMPI PUSH2 0x2868 PUSH2 0x3793 JUMP JUMPDEST SWAP1 PUSH0 MSTORE PUSH1 0x20 PUSH0 KECCAK256 SWAP1 PUSH1 0x6 MUL ADD PUSH1 0x5 ADD DUP3 DUP2 SLOAD DUP2 LT PUSH2 0x2888 JUMPI PUSH2 0x2888 PUSH2 0x3793 JUMP JUMPDEST PUSH0 SWAP2 DUP3 MSTORE PUSH1 0x20 SWAP1 SWAP2 KECCAK256 ADD SLOAD PUSH1 0x1 PUSH1 0x1 PUSH1 0xA0 SHL SUB AND SUB PUSH2 0x28AC JUMPI PUSH1 0x1 SWAP3 POP POP POP PUSH2 0x81A JUMP JUMPDEST PUSH1 0x1 ADD PUSH2 0x2834 JUMP JUMPDEST POP PUSH0 SWAP5 SWAP4 POP POP POP POP JUMP JUMPDEST PUSH0 DUP4 EXTCODESIZE PUSH4 0xFFFFFFFF AND ISZERO PUSH2 0x29F8 JUMPI PUSH1 0x40 MLOAD PUSH4 0xA85BD01 PUSH1 0xE1 SHL DUP2 MSTORE PUSH1 0x1 PUSH1 0x1 PUSH1 0xA0 SHL SUB DUP6 AND SWAP1 PUSH4 0x150B7A02 SWAP1 PUSH2 0x28FE SWAP1 CALLER SWAP1 DUP10 SWAP1 DUP9 SWAP1 DUP9 SWAP1 PUSH1 0x4 ADD PUSH2 0x3B3F JUMP JUMPDEST PUSH1 0x20 PUSH1 0x40 MLOAD DUP1 DUP4 SUB DUP2 PUSH0 DUP8 GAS CALL SWAP3 POP POP POP DUP1 ISZERO PUSH2 0x2938 JUMPI POP PUSH1 0x40 DUP1 MLOAD PUSH1 0x1F RETURNDATASIZE SWAP1 DUP2 ADD PUSH1 0x1F NOT AND DUP3 ADD SWAP1 SWAP3 MSTORE PUSH2 0x2935 SWAP2 DUP2 ADD SWAP1 PUSH2 0x3B7B JUMP JUMPDEST PUSH1 0x1 JUMPDEST PUSH2 0x29DE JUMPI RETURNDATASIZE DUP1 DUP1 ISZERO PUSH2 0x2965 JUMPI PUSH1 0x40 MLOAD SWAP2 POP PUSH1 0x1F NOT PUSH1 0x3F RETURNDATASIZE ADD AND DUP3 ADD PUSH1 0x40 MSTORE RETURNDATASIZE DUP3 MSTORE RETURNDATASIZE PUSH0 PUSH1 0x20 DUP5 ADD RETURNDATACOPY PUSH2 0x296A JUMP JUMPDEST PUSH1 0x60 SWAP2 POP JUMPDEST POP DUP1 MLOAD PUSH0 SUB PUSH2 0x29D6 JUMPI PUSH1 0x40 MLOAD PUSH3 0x461BCD PUSH1 0xE5 SHL DUP2 MSTORE PUSH1 0x20 PUSH1 0x4 DUP3 ADD MSTORE PUSH1 0x32 PUSH1 0x24 DUP3 ADD MSTORE PUSH32 0x4552433732313A207472616E7366657220746F206E6F6E204552433732315265 PUSH1 0x44 DUP3 ADD MSTORE PUSH18 0x31B2B4BB32B91034B6B83632B6B2B73A32B9 PUSH1 0x71 SHL PUSH1 0x64 DUP3 ADD MSTORE PUSH1 0x84 ADD PUSH2 0x7C2 JUMP JUMPDEST DUP1 MLOAD DUP2 PUSH1 0x20 ADD REVERT JUMPDEST PUSH1 0x1 PUSH1 0x1 PUSH1 0xE0 SHL SUB NOT AND PUSH4 0xA85BD01 PUSH1 0xE1 SHL EQ SWAP1 POP PUSH2 0xB04 JUMP JUMPDEST POP PUSH1 0x1 SWAP5 SWAP4 POP POP POP POP JUMP JUMPDEST PUSH1 0x60 DUP3 PUSH0 PUSH2 0x2A12 DUP5 PUSH1 0x2 PUSH2 0x3A65 JUMP JUMPDEST PUSH2 0x2A1D SWAP1 PUSH1 0x2 PUSH2 0x3A7C JUMP JUMPDEST PUSH8 0xFFFFFFFFFFFFFFFF DUP2 GT ISZERO PUSH2 0x2A35 JUMPI PUSH2 0x2A35 PUSH2 0x3557 JUMP JUMPDEST PUSH1 0x40 MLOAD SWAP1 DUP1 DUP3 MSTORE DUP1 PUSH1 0x1F ADD PUSH1 0x1F NOT AND PUSH1 0x20 ADD DUP3 ADD PUSH1 0x40 MSTORE DUP1 ISZERO PUSH2 0x2A5F JUMPI PUSH1 0x20 DUP3 ADD DUP2 DUP1 CALLDATASIZE DUP4 CALLDATACOPY ADD SWAP1 POP JUMPDEST POP SWAP1 POP PUSH1 0x3 PUSH1 0xFC SHL DUP2 PUSH0 DUP2 MLOAD DUP2 LT PUSH2 0x2A79 JUMPI PUSH2 0x2A79 PUSH2 0x3793 JUMP JUMPDEST PUSH1 0x20 ADD ADD SWAP1 PUSH1 0x1 PUSH1 0x1 PUSH1 0xF8 SHL SUB NOT AND SWAP1 DUP2 PUSH0 BYTE SWAP1 MSTORE8 POP PUSH1 0xF PUSH1 0xFB SHL DUP2 PUSH1 0x1 DUP2 MLOAD DUP2 LT PUSH2 0x2AA7 JUMPI PUSH2 0x2AA7 PUSH2 0x3793 JUMP JUMPDEST PUSH1 0x20 ADD ADD SWAP1 PUSH1 0x1 PUSH1 0x1 PUSH1 0xF8 SHL SUB NOT AND SWAP1 DUP2 PUSH0 BYTE SWAP1 MSTORE8 POP PUSH0 PUSH2 0x2AC9 DUP6 PUSH1 0x2 PUSH2 0x3A65 JUMP JUMPDEST PUSH2 0x2AD4 SWAP1 PUSH1 0x1 PUSH2 0x3A7C JUMP JUMPDEST SWAP1 POP JUMPDEST PUSH1 0x1 DUP2 GT ISZERO PUSH2 0x2B4B JUMPI PUSH16 0x181899199A1A9B1B9C1CB0B131B232B3 PUSH1 0x81 SHL DUP4 PUSH1 0xF AND PUSH1 0x10 DUP2 LT PUSH2 0x2B08 JUMPI PUSH2 0x2B08 PUSH2 0x3793 JUMP JUMPDEST BYTE PUSH1 0xF8 SHL DUP3 DUP3 DUP2 MLOAD DUP2 LT PUSH2 0x2B1E JUMPI PUSH2 0x2B1E PUSH2 0x3793 JUMP JUMPDEST PUSH1 0x20 ADD ADD SWAP1 PUSH1 0x1 PUSH1 0x1 PUSH1 0xF8 SHL SUB NOT AND SWAP1 DUP2 PUSH0 BYTE SWAP1 MSTORE8 POP PUSH1 0x4 SWAP3 SWAP1 SWAP3 SHR SWAP2 PUSH2 0x2B44 DUP2 PUSH2 0x3B96 JUMP JUMPDEST SWAP1 POP PUSH2 0x2AD7 JUMP JUMPDEST POP DUP2 ISZERO PUSH2 0xB04 JUMPI PUSH1 0x40 MLOAD PUSH4 0xE22E27EB PUSH1 0xE0 SHL DUP2 MSTORE PUSH1 0x4 DUP2 ADD DUP7 SWAP1 MSTORE PUSH1 0x24 DUP2 ADD DUP6 SWAP1 MSTORE PUSH1 0x44 ADD PUSH2 0x7C2 JUMP JUMPDEST PUSH0 DUP3 DUP2 MSTORE PUSH1 0x6 PUSH1 0x20 MSTORE PUSH1 0x40 SWAP1 KECCAK256 SLOAD PUSH1 0x5 DUP1 SLOAD DUP4 SWAP3 SWAP1 DUP2 LT PUSH2 0x2B98 JUMPI PUSH2 0x2B98 PUSH2 0x3793 JUMP JUMPDEST SWAP1 PUSH0 MSTORE PUSH1 0x20 PUSH0 KECCAK256 SWAP1 PUSH1 0x6 MUL ADD PUSH1 0x2 ADD PUSH0 DUP3 DUP3 SLOAD PUSH2 0x2BB5 SWAP2 SWAP1 PUSH2 0x3A7C JUMP JUMPDEST SWAP1 SWAP2 SSTORE POP POP PUSH1 0x40 MLOAD DUP2 DUP2 MSTORE DUP3 SWAP1 PUSH0 SWAP1 PUSH32 0xB2AAC84F3EC956911FD78EAE5311062972FF949F38412E8DA39069D9F068CC6 SWAP1 PUSH1 0x20 ADD PUSH1 0x40 MLOAD DUP1 SWAP2 SUB SWAP1 LOG3 POP POP JUMP JUMPDEST PUSH1 0x40 DUP1 MLOAD PUSH1 0xC0 DUP2 ADD DUP3 MSTORE DUP4 DUP2 MSTORE PUSH1 0x20 DUP1 DUP3 ADD DUP5 SWAP1 MSTORE PUSH0 DUP3 DUP5 ADD DUP2 SWAP1 MSTORE PUSH1 0x1 PUSH1 0x1 PUSH1 0xA0 SHL SUB DUP8 AND PUSH1 0x60 DUP5 ADD MSTORE PUSH1 0x80 DUP4 ADD DUP2 SWAP1 MSTORE DUP4 MLOAD DUP2 DUP2 MSTORE SWAP2 DUP3 ADD SWAP1 SWAP4 MSTORE PUSH1 0xA0 DUP3 ADD MSTORE SWAP1 POP PUSH2 0x2C42 DUP2 PUSH2 0x30A9 JUMP JUMPDEST PUSH2 0x2C4C DUP5 DUP5 PUSH2 0x2704 JUMP JUMPDEST PUSH1 0x40 MLOAD DUP4 SWAP1 PUSH1 0x1 PUSH1 0x1 PUSH1 0xA0 SHL SUB DUP7 AND SWAP1 PUSH0 SWAP1 PUSH32 0xDDF252AD1BE2C89B69C2B068FC378DAA952BA7F163C4A11628F55A4DF523B3EF SWAP1 DUP3 SWAP1 LOG4 DUP2 PUSH0 DUP5 PUSH32 0xE4F48C240D3B994948AA54F3E2F5FCA59263DFE1D52B6E4CF39A5D249B5CCB65 PUSH1 0x40 MLOAD PUSH1 0x40 MLOAD DUP1 SWAP2 SUB SWAP1 LOG4 POP POP POP POP JUMP JUMPDEST PUSH0 DUP1 PUSH2 0x2CC3 DUP6 PUSH2 0xDDA JUMP JUMPDEST SWAP1 POP DUP1 EXTCODESIZE PUSH4 0xFFFFFFFF AND ISZERO PUSH2 0x2E18 JUMPI PUSH1 0x40 MLOAD PUSH4 0x1FFC9A7 PUSH1 0xE0 SHL DUP2 MSTORE PUSH3 0x9CE20B PUSH1 0xE0 SHL PUSH1 0x4 DUP3 ADD MSTORE PUSH1 0x1 PUSH1 0x1 PUSH1 0xA0 SHL SUB DUP3 AND SWAP1 PUSH4 0x1FFC9A7 SWAP1 PUSH1 0x24 ADD PUSH1 0x20 PUSH1 0x40 MLOAD DUP1 DUP4 SUB DUP2 DUP7 GAS STATICCALL SWAP3 POP POP POP DUP1 ISZERO PUSH2 0x2D38 JUMPI POP PUSH1 0x40 DUP1 MLOAD PUSH1 0x1F RETURNDATASIZE SWAP1 DUP2 ADD PUSH1 0x1F NOT AND DUP3 ADD SWAP1 SWAP3 MSTORE PUSH2 0x2D35 SWAP2 DUP2 ADD SWAP1 PUSH2 0x3BAB JUMP JUMPDEST PUSH1 0x1 JUMPDEST PUSH2 0x2D76 JUMPI RETURNDATASIZE DUP1 DUP1 ISZERO PUSH2 0x2D65 JUMPI PUSH1 0x40 MLOAD SWAP2 POP PUSH1 0x1F NOT PUSH1 0x3F RETURNDATASIZE ADD AND DUP3 ADD PUSH1 0x40 MSTORE RETURNDATASIZE DUP3 MSTORE RETURNDATASIZE PUSH0 PUSH1 0x20 DUP5 ADD RETURNDATACOPY PUSH2 0x2D6A JUMP JUMPDEST PUSH1 0x60 SWAP2 POP JUMPDEST POP PUSH1 0x1 SWAP3 POP POP POP PUSH2 0xB04 JUMP JUMPDEST DUP1 ISZERO PUSH2 0x2E0D JUMPI PUSH1 0x40 MLOAD PUSH3 0x9CE20B PUSH1 0xE0 SHL DUP2 MSTORE PUSH0 SWAP1 PUSH1 0x1 PUSH1 0x1 PUSH1 0xA0 SHL SUB DUP5 AND SWAP1 PUSH3 0x9CE20B SWAP1 PUSH2 0x2DB0 SWAP1 CALLER SWAP1 DUP13 SWAP1 DUP13 SWAP1 DUP13 SWAP1 DUP13 SWAP1 PUSH1 0x4 ADD PUSH2 0x3BC6 JUMP JUMPDEST PUSH1 0x20 PUSH1 0x40 MLOAD DUP1 DUP4 SUB DUP2 PUSH0 DUP8 GAS CALL ISZERO DUP1 ISZERO PUSH2 0x2DCC JUMPI RETURNDATASIZE PUSH0 DUP1 RETURNDATACOPY RETURNDATASIZE PUSH0 REVERT JUMPDEST POP POP POP POP PUSH1 0x40 MLOAD RETURNDATASIZE PUSH1 0x1F NOT PUSH1 0x1F DUP3 ADD AND DUP3 ADD DUP1 PUSH1 0x40 MSTORE POP DUP2 ADD SWAP1 PUSH2 0x2DF0 SWAP2 SWAP1 PUSH2 0x3B7B JUMP JUMPDEST PUSH1 0x1 PUSH1 0x1 PUSH1 0xE0 SHL SUB NOT AND PUSH3 0x9CE20B PUSH1 0xE0 SHL EQ SWAP4 POP PUSH2 0xB04 SWAP3 POP POP POP JUMP JUMPDEST PUSH1 0x1 SWAP3 POP POP POP PUSH2 0xB04 JUMP JUMPDEST PUSH1 0x1 SWAP2 POP POP PUSH2 0xB04 JUMP JUMPDEST PUSH2 0x2E2B DUP2 PUSH2 0x19E7 JUMP JUMPDEST ISZERO PUSH2 0x2E8B JUMPI PUSH1 0x40 MLOAD PUSH3 0x461BCD PUSH1 0xE5 SHL DUP2 MSTORE PUSH1 0x20 PUSH1 0x4 DUP3 ADD MSTORE PUSH1 0x2A PUSH1 0x24 DUP3 ADD MSTORE PUSH32 0x45524333353235536C6F74456E756D657261626C653A20736C6F7420616C7265 PUSH1 0x44 DUP3 ADD MSTORE PUSH10 0x61647920657869737473 PUSH1 0xB0 SHL PUSH1 0x64 DUP3 ADD MSTORE PUSH1 0x84 ADD PUSH2 0x7C2 JUMP JUMPDEST PUSH1 0x40 DUP1 MLOAD DUP1 DUP3 ADD DUP3 MSTORE DUP3 DUP2 MSTORE DUP2 MLOAD PUSH0 DUP1 DUP3 MSTORE PUSH1 0x20 DUP3 DUP2 ADD SWAP1 SWAP5 MSTORE SWAP3 DUP3 ADD MSTORE SWAP1 POP PUSH2 0x2EB4 DUP2 PUSH2 0x31F7 JUMP JUMPDEST DUP2 PUSH0 DUP1 PUSH32 0xE4F48C240D3B994948AA54F3E2F5FCA59263DFE1D52B6E4CF39A5D249B5CCB65 PUSH1 0x40 MLOAD PUSH1 0x40 MLOAD DUP1 SWAP2 SUB SWAP1 LOG4 POP POP JUMP JUMPDEST PUSH0 DUP3 DUP2 MSTORE PUSH1 0xB PUSH1 0x20 MSTORE PUSH1 0x40 DUP2 KECCAK256 SLOAD PUSH1 0xA DUP1 SLOAD DUP4 SWAP3 SWAP1 DUP2 LT PUSH2 0x2F0A JUMPI PUSH2 0x2F0A PUSH2 0x3793 JUMP JUMPDEST SWAP1 PUSH0 MSTORE PUSH1 0x20 PUSH0 KECCAK256 SWAP1 PUSH1 0x2 MUL ADD SWAP1 POP PUSH0 DUP2 PUSH1 0x1 ADD DUP1 SLOAD SWAP1 POP GT DUP1 ISZERO PUSH2 0xB04 JUMPI POP PUSH0 DUP5 DUP2 MSTORE PUSH1 0x9 PUSH1 0x20 SWAP1 DUP2 MSTORE PUSH1 0x40 DUP1 DUP4 KECCAK256 DUP7 DUP5 MSTORE SWAP1 SWAP2 MSTORE SWAP1 KECCAK256 SLOAD PUSH1 0x1 DUP3 ADD DUP1 SLOAD DUP6 SWAP3 SWAP1 DUP2 LT PUSH2 0x2F59 JUMPI PUSH2 0x2F59 PUSH2 0x3793 JUMP JUMPDEST SWAP1 PUSH0 MSTORE PUSH1 0x20 PUSH0 KECCAK256 ADD SLOAD EQ SWAP5 SWAP4 POP POP POP POP JUMP JUMPDEST PUSH0 DUP3 DUP2 MSTORE PUSH1 0xB PUSH1 0x20 MSTORE PUSH1 0x40 DUP2 KECCAK256 SLOAD PUSH1 0xA DUP1 SLOAD SWAP1 SWAP2 SWAP1 DUP2 LT PUSH2 0x2F8E JUMPI PUSH2 0x2F8E PUSH2 0x3793 JUMP JUMPDEST PUSH0 SWAP2 DUP3 MSTORE PUSH1 0x20 DUP1 DUP4 KECCAK256 PUSH1 0x1 PUSH1 0x2 SWAP1 SWAP4 MUL ADD DUP3 ADD DUP1 SLOAD SWAP7 DUP5 MSTORE PUSH1 0x9 DUP3 MSTORE PUSH1 0x40 DUP1 DUP6 KECCAK256 DUP8 DUP7 MSTORE DUP4 MSTORE DUP5 KECCAK256 DUP8 SWAP1 SSTORE SWAP2 DUP7 ADD DUP3 SSTORE SWAP1 DUP3 MSTORE SWAP1 KECCAK256 SWAP1 SWAP3 ADD SSTORE POP JUMP JUMPDEST PUSH0 DUP3 DUP2 MSTORE PUSH1 0xB PUSH1 0x20 MSTORE PUSH1 0x40 DUP2 KECCAK256 SLOAD PUSH1 0xA DUP1 SLOAD SWAP1 SWAP2 SWAP1 DUP2 LT PUSH2 0x2FED JUMPI PUSH2 0x2FED PUSH2 0x3793 JUMP JUMPDEST PUSH0 SWAP2 DUP3 MSTORE PUSH1 0x20 DUP3 KECCAK256 PUSH1 0x1 PUSH1 0x2 SWAP1 SWAP3 MUL ADD DUP2 DUP2 ADD SLOAD SWAP1 SWAP4 POP PUSH2 0x300E SWAP2 SWAP1 PUSH2 0x3B00 JUMP JUMPDEST SWAP1 POP PUSH0 DUP3 PUSH1 0x1 ADD DUP3 DUP2 SLOAD DUP2 LT PUSH2 0x3026 JUMPI PUSH2 0x3026 PUSH2 0x3793 JUMP JUMPDEST PUSH0 SWAP2 DUP3 MSTORE PUSH1 0x20 DUP1 DUP4 KECCAK256 SWAP1 SWAP2 ADD SLOAD DUP8 DUP4 MSTORE PUSH1 0x9 DUP3 MSTORE PUSH1 0x40 DUP1 DUP5 KECCAK256 DUP9 DUP6 MSTORE SWAP1 SWAP3 MSTORE SWAP2 KECCAK256 SLOAD PUSH1 0x1 DUP6 ADD DUP1 SLOAD SWAP3 SWAP4 POP SWAP1 SWAP2 DUP4 SWAP2 SWAP1 DUP4 SWAP1 DUP2 LT PUSH2 0x3066 JUMPI PUSH2 0x3066 PUSH2 0x3793 JUMP JUMPDEST PUSH0 SWAP2 DUP3 MSTORE PUSH1 0x20 DUP1 DUP4 KECCAK256 SWAP2 SWAP1 SWAP2 ADD SWAP3 SWAP1 SWAP3 SSTORE DUP8 DUP2 MSTORE PUSH1 0x9 DUP3 MSTORE PUSH1 0x40 DUP1 DUP3 KECCAK256 DUP6 DUP4 MSTORE SWAP1 SWAP3 MSTORE DUP2 DUP2 KECCAK256 DUP4 SWAP1 SSTORE DUP7 DUP2 MSTORE SWAP1 DUP2 KECCAK256 SSTORE PUSH1 0x1 DUP5 ADD DUP1 SLOAD DUP1 PUSH2 0x26E9 JUMPI PUSH2 0x26E9 PUSH2 0x3B2B JUMP JUMPDEST PUSH1 0x5 DUP1 SLOAD DUP3 MLOAD PUSH0 SWAP1 DUP2 MSTORE PUSH1 0x6 PUSH1 0x20 DUP2 DUP2 MSTORE PUSH1 0x40 DUP1 DUP5 KECCAK256 DUP6 SWAP1 SSTORE PUSH1 0x1 DUP6 ADD DUP7 SSTORE SWAP5 SWAP1 SWAP3 MSTORE DUP5 MLOAD SWAP3 MUL PUSH32 0x36B6384B5ECA791C62761152D0C79BB0604C104A5FB6F4EB0703F3154BB3DB0 DUP2 ADD SWAP3 DUP4 SSTORE DUP2 DUP6 ADD MLOAD PUSH32 0x36B6384B5ECA791C62761152D0C79BB0604C104A5FB6F4EB0703F3154BB3DB1 DUP3 ADD SSTORE SWAP3 DUP5 ADD MLOAD PUSH32 0x36B6384B5ECA791C62761152D0C79BB0604C104A5FB6F4EB0703F3154BB3DB2 DUP5 ADD SSTORE PUSH1 0x60 DUP5 ADD MLOAD PUSH32 0x36B6384B5ECA791C62761152D0C79BB0604C104A5FB6F4EB0703F3154BB3DB3 DUP5 ADD DUP1 SLOAD PUSH1 0x1 PUSH1 0x1 PUSH1 0xA0 SHL SUB SWAP3 DUP4 AND PUSH1 0x1 PUSH1 0x1 PUSH1 0xA0 SHL SUB NOT SWAP2 DUP3 AND OR SWAP1 SWAP2 SSTORE PUSH1 0x80 DUP7 ADD MLOAD PUSH32 0x36B6384B5ECA791C62761152D0C79BB0604C104A5FB6F4EB0703F3154BB3DB4 DUP7 ADD DUP1 SLOAD SWAP2 SWAP1 SWAP4 AND SWAP2 AND OR SWAP1 SSTORE PUSH1 0xA0 DUP5 ADD MLOAD DUP1 MLOAD DUP6 SWAP5 PUSH2 0xA14 SWAP4 PUSH32 0x36B6384B5ECA791C62761152D0C79BB0604C104A5FB6F4EB0703F3154BB3DB5 SWAP1 SWAP2 ADD SWAP3 ADD SWAP1 PUSH2 0x3296 JUMP JUMPDEST PUSH1 0xA DUP1 SLOAD DUP3 MLOAD PUSH0 SWAP1 DUP2 MSTORE PUSH1 0xB PUSH1 0x20 SWAP1 DUP2 MSTORE PUSH1 0x40 DUP3 KECCAK256 DUP4 SWAP1 SSTORE PUSH1 0x1 DUP4 ADD DUP5 SSTORE SWAP3 SWAP1 MSTORE DUP3 MLOAD PUSH1 0x2 SWAP1 SWAP2 MUL PUSH32 0xC65A7BB8D6351C1CF70C95A316CC6A92839C986682D98BC35F958F4883F9D2A8 DUP2 ADD SWAP2 DUP3 SSTORE DUP3 DUP5 ADD MLOAD DUP1 MLOAD DUP6 SWAP5 PUSH2 0xA14 SWAP4 PUSH32 0xC65A7BB8D6351C1CF70C95A316CC6A92839C986682D98BC35F958F4883F9D2A9 ADD SWAP3 ADD SWAP1 PUSH2 0x32F9 JUMP JUMPDEST POP DUP1 SLOAD PUSH0 DUP3 SSTORE SWAP1 PUSH0 MSTORE PUSH1 0x20 PUSH0 KECCAK256 SWAP1 DUP2 ADD SWAP1 PUSH2 0x1584 SWAP2 SWAP1 PUSH2 0x3332 JUMP JUMPDEST DUP3 DUP1 SLOAD DUP3 DUP3 SSTORE SWAP1 PUSH0 MSTORE PUSH1 0x20 PUSH0 KECCAK256 SWAP1 DUP2 ADD SWAP3 DUP3 ISZERO PUSH2 0x32E9 JUMPI SWAP2 PUSH1 0x20 MUL DUP3 ADD JUMPDEST DUP3 DUP2 GT ISZERO PUSH2 0x32E9 JUMPI DUP3 MLOAD DUP3 SLOAD PUSH1 0x1 PUSH1 0x1 PUSH1 0xA0 SHL SUB NOT AND PUSH1 0x1 PUSH1 0x1 PUSH1 0xA0 SHL SUB SWAP1 SWAP2 AND OR DUP3 SSTORE PUSH1 0x20 SWAP1 SWAP3 ADD SWAP2 PUSH1 0x1 SWAP1 SWAP2 ADD SWAP1 PUSH2 0x32B4 JUMP JUMPDEST POP PUSH2 0x32F5 SWAP3 SWAP2 POP PUSH2 0x3332 JUMP JUMPDEST POP SWAP1 JUMP JUMPDEST DUP3 DUP1 SLOAD DUP3 DUP3 SSTORE SWAP1 PUSH0 MSTORE PUSH1 0x20 PUSH0 KECCAK256 SWAP1 DUP2 ADD SWAP3 DUP3 ISZERO PUSH2 0x32E9 JUMPI SWAP2 PUSH1 0x20 MUL DUP3 ADD JUMPDEST DUP3 DUP2 GT ISZERO PUSH2 0x32E9 JUMPI DUP3 MLOAD DUP3 SSTORE SWAP2 PUSH1 0x20 ADD SWAP2 SWAP1 PUSH1 0x1 ADD SWAP1 PUSH2 0x3317 JUMP JUMPDEST JUMPDEST DUP1 DUP3 GT ISZERO PUSH2 0x32F5 JUMPI PUSH0 DUP2 SSTORE PUSH1 0x1 ADD PUSH2 0x3333 JUMP JUMPDEST PUSH0 DUP1 PUSH1 0x40 DUP4 DUP6 SUB SLT ISZERO PUSH2 0x3357 JUMPI PUSH0 DUP1 REVERT JUMPDEST POP POP DUP1 CALLDATALOAD SWAP3 PUSH1 0x20 SWAP1 SWAP2 ADD CALLDATALOAD SWAP2 POP JUMP JUMPDEST PUSH1 0x1 PUSH1 0x1 PUSH1 0xE0 SHL SUB NOT DUP2 AND DUP2 EQ PUSH2 0x1584 JUMPI PUSH0 DUP1 REVERT JUMPDEST PUSH0 PUSH1 0x20 DUP3 DUP5 SUB SLT ISZERO PUSH2 0x338B JUMPI PUSH0 DUP1 REVERT JUMPDEST DUP2 CALLDATALOAD PUSH2 0xAF1 DUP2 PUSH2 0x3366 JUMP JUMPDEST PUSH0 JUMPDEST DUP4 DUP2 LT ISZERO PUSH2 0x33B0 JUMPI DUP2 DUP2 ADD MLOAD DUP4 DUP3 ADD MSTORE PUSH1 0x20 ADD PUSH2 0x3398 JUMP JUMPDEST POP POP PUSH0 SWAP2 ADD MSTORE JUMP JUMPDEST PUSH0 DUP2 MLOAD DUP1 DUP5 MSTORE PUSH2 0x33CF DUP2 PUSH1 0x20 DUP7 ADD PUSH1 0x20 DUP7 ADD PUSH2 0x3396 JUMP JUMPDEST PUSH1 0x1F ADD PUSH1 0x1F NOT AND SWAP3 SWAP1 SWAP3 ADD PUSH1 0x20 ADD SWAP3 SWAP2 POP POP JUMP JUMPDEST PUSH1 0x20 DUP2 MSTORE PUSH0 PUSH2 0xAF1 PUSH1 0x20 DUP4 ADD DUP5 PUSH2 0x33B8 JUMP JUMPDEST PUSH0 PUSH1 0x20 DUP3 DUP5 SUB SLT ISZERO PUSH2 0x3405 JUMPI PUSH0 DUP1 REVERT JUMPDEST POP CALLDATALOAD SWAP2 SWAP1 POP JUMP JUMPDEST DUP1 CALLDATALOAD PUSH1 0x1 PUSH1 0x1 PUSH1 0xA0 SHL SUB DUP2 AND DUP2 EQ PUSH2 0xE6E JUMPI PUSH0 DUP1 REVERT JUMPDEST PUSH0 DUP1 PUSH1 0x40 DUP4 DUP6 SUB SLT ISZERO PUSH2 0x3433 JUMPI PUSH0 DUP1 REVERT JUMPDEST PUSH2 0x343C DUP4 PUSH2 0x340C JUMP JUMPDEST SWAP5 PUSH1 0x20 SWAP4 SWAP1 SWAP4 ADD CALLDATALOAD SWAP4 POP POP POP JUMP JUMPDEST PUSH0 DUP1 PUSH0 PUSH1 0x60 DUP5 DUP7 SUB SLT ISZERO PUSH2 0x345C JUMPI PUSH0 DUP1 REVERT JUMPDEST DUP4 CALLDATALOAD SWAP3 POP PUSH2 0x346C PUSH1 0x20 DUP6 ADD PUSH2 0x340C JUMP JUMPDEST SWAP2 POP PUSH1 0x40 DUP5 ADD CALLDATALOAD SWAP1 POP SWAP3 POP SWAP3 POP SWAP3 JUMP JUMPDEST PUSH0 DUP1 PUSH0 PUSH1 0x60 DUP5 DUP7 SUB SLT ISZERO PUSH2 0x348E JUMPI PUSH0 DUP1 REVERT JUMPDEST PUSH2 0x3497 DUP5 PUSH2 0x340C JUMP JUMPDEST SWAP6 PUSH1 0x20 DUP6 ADD CALLDATALOAD SWAP6 POP PUSH1 0x40 SWAP1 SWAP5 ADD CALLDATALOAD SWAP4 SWAP3 POP POP POP JUMP JUMPDEST PUSH0 DUP1 PUSH0 PUSH1 0x60 DUP5 DUP7 SUB SLT ISZERO PUSH2 0x34BE JUMPI PUSH0 DUP1 REVERT JUMPDEST PUSH2 0x34C7 DUP5 PUSH2 0x340C JUMP JUMPDEST SWAP3 POP PUSH2 0x346C PUSH1 0x20 DUP6 ADD PUSH2 0x340C JUMP JUMPDEST PUSH0 DUP1 PUSH0 PUSH1 0x60 DUP5 DUP7 SUB SLT ISZERO PUSH2 0x34E7 JUMPI PUSH0 DUP1 REVERT JUMPDEST POP POP DUP2 CALLDATALOAD SWAP4 PUSH1 0x20 DUP4 ADD CALLDATALOAD SWAP4 POP PUSH1 0x40 SWAP1 SWAP3 ADD CALLDATALOAD SWAP2 SWAP1 POP JUMP JUMPDEST DUP1 ISZERO ISZERO DUP2 EQ PUSH2 0x1584 JUMPI PUSH0 DUP1 REVERT JUMPDEST PUSH0 DUP1 PUSH0 DUP1 PUSH1 0x80 DUP6 DUP8 SUB SLT ISZERO PUSH2 0x351E JUMPI PUSH0 DUP1 REVERT JUMPDEST PUSH2 0x3527 DUP6 PUSH2 0x340C JUMP JUMPDEST SWAP4 POP PUSH1 0x20 DUP6 ADD CALLDATALOAD SWAP3 POP PUSH2 0x353C PUSH1 0x40 DUP7 ADD PUSH2 0x340C JUMP JUMPDEST SWAP2 POP PUSH1 0x60 DUP6 ADD CALLDATALOAD PUSH2 0x354C DUP2 PUSH2 0x34FE JUMP JUMPDEST SWAP4 SWAP7 SWAP3 SWAP6 POP SWAP1 SWAP4 POP POP JUMP JUMPDEST PUSH4 0x4E487B71 PUSH1 0xE0 SHL PUSH0 MSTORE PUSH1 0x41 PUSH1 0x4 MSTORE PUSH1 0x24 PUSH0 REVERT JUMPDEST PUSH1 0x40 MLOAD PUSH1 0x1F DUP3 ADD PUSH1 0x1F NOT AND DUP2 ADD PUSH8 0xFFFFFFFFFFFFFFFF DUP2 GT DUP3 DUP3 LT OR ISZERO PUSH2 0x3594 JUMPI PUSH2 0x3594 PUSH2 0x3557 JUMP JUMPDEST PUSH1 0x40 MSTORE SWAP2 SWAP1 POP JUMP JUMPDEST PUSH0 PUSH8 0xFFFFFFFFFFFFFFFF DUP3 GT ISZERO PUSH2 0x35B5 JUMPI PUSH2 0x35B5 PUSH2 0x3557 JUMP JUMPDEST POP PUSH1 0x1F ADD PUSH1 0x1F NOT AND PUSH1 0x20 ADD SWAP1 JUMP JUMPDEST PUSH0 PUSH2 0x35D5 PUSH2 0x35D0 DUP5 PUSH2 0x359C JUMP JUMPDEST PUSH2 0x356B JUMP JUMPDEST SWAP1 POP DUP3 DUP2 MSTORE DUP4 DUP4 DUP4 ADD GT ISZERO PUSH2 0x35E8 JUMPI PUSH0 DUP1 REVERT JUMPDEST DUP3 DUP3 PUSH1 0x20 DUP4 ADD CALLDATACOPY PUSH0 PUSH1 0x20 DUP5 DUP4 ADD ADD MSTORE SWAP4 SWAP3 POP POP POP JUMP JUMPDEST PUSH0 PUSH1 0x20 DUP3 DUP5 SUB SLT ISZERO PUSH2 0x360E JUMPI PUSH0 DUP1 REVERT JUMPDEST DUP2 CALLDATALOAD PUSH8 0xFFFFFFFFFFFFFFFF DUP2 GT ISZERO PUSH2 0x3624 JUMPI PUSH0 DUP1 REVERT JUMPDEST DUP3 ADD PUSH1 0x1F DUP2 ADD DUP5 SGT PUSH2 0x3634 JUMPI PUSH0 DUP1 REVERT JUMPDEST PUSH2 0xB04 DUP5 DUP3 CALLDATALOAD PUSH1 0x20 DUP5 ADD PUSH2 0x35C3 JUMP JUMPDEST PUSH0 PUSH1 0x20 DUP3 DUP5 SUB SLT ISZERO PUSH2 0x3653 JUMPI PUSH0 DUP1 REVERT JUMPDEST PUSH2 0xAF1 DUP3 PUSH2 0x340C JUMP JUMPDEST PUSH0 DUP1 PUSH1 0x40 DUP4 DUP6 SUB SLT ISZERO PUSH2 0x366D JUMPI PUSH0 DUP1 REVERT JUMPDEST PUSH2 0x3676 DUP4 PUSH2 0x340C JUMP JUMPDEST SWAP2 POP PUSH1 0x20 DUP4 ADD CALLDATALOAD PUSH2 0x3686 DUP2 PUSH2 0x34FE JUMP JUMPDEST DUP1 SWAP2 POP POP SWAP3 POP SWAP3 SWAP1 POP JUMP JUMPDEST PUSH0 DUP1 PUSH0 DUP1 PUSH1 0x80 DUP6 DUP8 SUB SLT ISZERO PUSH2 0x36A4 JUMPI PUSH0 DUP1 REVERT JUMPDEST PUSH2 0x36AD DUP6 PUSH2 0x340C JUMP JUMPDEST SWAP4 POP PUSH2 0x36BB PUSH1 0x20 DUP7 ADD PUSH2 0x340C JUMP JUMPDEST SWAP3 POP PUSH1 0x40 DUP6 ADD CALLDATALOAD SWAP2 POP PUSH1 0x60 DUP6 ADD CALLDATALOAD PUSH8 0xFFFFFFFFFFFFFFFF DUP2 GT ISZERO PUSH2 0x36DD JUMPI PUSH0 DUP1 REVERT JUMPDEST DUP6 ADD PUSH1 0x1F DUP2 ADD DUP8 SGT PUSH2 0x36ED JUMPI PUSH0 DUP1 REVERT JUMPDEST PUSH2 0x36FC DUP8 DUP3 CALLDATALOAD PUSH1 0x20 DUP5 ADD PUSH2 0x35C3 JUMP JUMPDEST SWAP2 POP POP SWAP3 SWAP6 SWAP2 SWAP5 POP SWAP3 POP JUMP JUMPDEST PUSH0 DUP1 PUSH1 0x40 DUP4 DUP6 SUB SLT ISZERO PUSH2 0x3719 JUMPI PUSH0 DUP1 REVERT JUMPDEST DUP3 CALLDATALOAD SWAP2 POP PUSH2 0x3729 PUSH1 0x20 DUP5 ADD PUSH2 0x340C JUMP JUMPDEST SWAP1 POP SWAP3 POP SWAP3 SWAP1 POP JUMP JUMPDEST PUSH0 DUP1 PUSH0 PUSH1 0x60 DUP5 DUP7 SUB SLT ISZERO PUSH2 0x3744 JUMPI PUSH0 DUP1 REVERT JUMPDEST PUSH2 0x374D DUP5 PUSH2 0x340C JUMP JUMPDEST SWAP3 POP PUSH1 0x20 DUP5 ADD CALLDATALOAD SWAP2 POP PUSH2 0x3762 PUSH1 0x40 DUP6 ADD PUSH2 0x340C JUMP JUMPDEST SWAP1 POP SWAP3 POP SWAP3 POP SWAP3 JUMP JUMPDEST PUSH0 DUP1 PUSH1 0x40 DUP4 DUP6 SUB SLT ISZERO PUSH2 0x377C JUMPI PUSH0 DUP1 REVERT JUMPDEST PUSH2 0x3785 DUP4 PUSH2 0x340C JUMP JUMPDEST SWAP2 POP PUSH2 0x3729 PUSH1 0x20 DUP5 ADD PUSH2 0x340C JUMP JUMPDEST PUSH4 0x4E487B71 PUSH1 0xE0 SHL PUSH0 MSTORE PUSH1 0x32 PUSH1 0x4 MSTORE PUSH1 0x24 PUSH0 REVERT JUMPDEST PUSH1 0x1 DUP2 DUP2 SHR SWAP1 DUP3 AND DUP1 PUSH2 0x37BB JUMPI PUSH1 0x7F DUP3 AND SWAP2 POP JUMPDEST PUSH1 0x20 DUP3 LT DUP2 SUB PUSH2 0x37D9 JUMPI PUSH4 0x4E487B71 PUSH1 0xE0 SHL PUSH0 MSTORE PUSH1 0x22 PUSH1 0x4 MSTORE PUSH1 0x24 PUSH0 REVERT JUMPDEST POP SWAP2 SWAP1 POP JUMP JUMPDEST PUSH1 0x20 DUP1 DUP3 MSTORE PUSH1 0x22 SWAP1 DUP3 ADD MSTORE PUSH32 0x455243333532353A20617070726F76616C20746F2063757272656E74206F776E PUSH1 0x40 DUP3 ADD MSTORE PUSH2 0x32B9 PUSH1 0xF1 SHL PUSH1 0x60 DUP3 ADD MSTORE PUSH1 0x80 ADD SWAP1 JUMP JUMPDEST PUSH0 DUP4 MLOAD PUSH2 0x3832 DUP2 DUP5 PUSH1 0x20 DUP9 ADD PUSH2 0x3396 JUMP JUMPDEST PUSH5 0x736C6F742F PUSH1 0xD8 SHL SWAP1 DUP4 ADD SWAP1 DUP2 MSTORE DUP4 MLOAD PUSH2 0x3854 DUP2 PUSH1 0x5 DUP5 ADD PUSH1 0x20 DUP9 ADD PUSH2 0x3396 JUMP JUMPDEST ADD PUSH1 0x5 ADD SWAP5 SWAP4 POP POP POP POP JUMP JUMPDEST PUSH0 PUSH1 0x20 DUP3 DUP5 SUB SLT ISZERO PUSH2 0x3870 JUMPI PUSH0 DUP1 REVERT JUMPDEST DUP2 MLOAD PUSH8 0xFFFFFFFFFFFFFFFF DUP2 GT ISZERO PUSH2 0x3886 JUMPI PUSH0 DUP1 REVERT JUMPDEST DUP3 ADD PUSH1 0x1F DUP2 ADD DUP5 SGT PUSH2 0x3896 JUMPI PUSH0 DUP1 REVERT JUMPDEST DUP1 MLOAD PUSH2 0x38A4 PUSH2 0x35D0 DUP3 PUSH2 0x359C JUMP JUMPDEST DUP2 DUP2 MSTORE DUP6 PUSH1 0x20 DUP4 DUP6 ADD ADD GT ISZERO PUSH2 0x38B8 JUMPI PUSH0 DUP1 REVERT JUMPDEST PUSH2 0x184C DUP3 PUSH1 0x20 DUP4 ADD PUSH1 0x20 DUP7 ADD PUSH2 0x3396 JUMP JUMPDEST PUSH1 0x20 DUP1 DUP3 MSTORE PUSH1 0x32 SWAP1 DUP3 ADD MSTORE PUSH32 0x455243333532353A207472616E736665722063616C6C6572206973206E6F7420 PUSH1 0x40 DUP3 ADD MSTORE PUSH18 0x1BDDDB995C881B9BDC88185C1C1C9BDD9959 PUSH1 0x72 SHL PUSH1 0x60 DUP3 ADD MSTORE PUSH1 0x80 ADD SWAP1 JUMP JUMPDEST PUSH1 0x1F DUP3 GT ISZERO PUSH2 0xB50 JUMPI DUP1 PUSH0 MSTORE PUSH1 0x20 PUSH0 KECCAK256 PUSH1 0x1F DUP5 ADD PUSH1 0x5 SHR DUP2 ADD PUSH1 0x20 DUP6 LT ISZERO PUSH2 0x3940 JUMPI POP DUP1 JUMPDEST PUSH1 0x1F DUP5 ADD PUSH1 0x5 SHR DUP3 ADD SWAP2 POP JUMPDEST DUP2 DUP2 LT ISZERO PUSH2 0x19CA JUMPI PUSH0 DUP2 SSTORE PUSH1 0x1 ADD PUSH2 0x394C JUMP JUMPDEST DUP2 MLOAD PUSH8 0xFFFFFFFFFFFFFFFF DUP2 GT ISZERO PUSH2 0x3979 JUMPI PUSH2 0x3979 PUSH2 0x3557 JUMP JUMPDEST PUSH2 0x398D DUP2 PUSH2 0x3987 DUP5 SLOAD PUSH2 0x37A7 JUMP JUMPDEST DUP5 PUSH2 0x391B JUMP JUMPDEST PUSH1 0x20 DUP1 PUSH1 0x1F DUP4 GT PUSH1 0x1 DUP2 EQ PUSH2 0x39C0 JUMPI PUSH0 DUP5 ISZERO PUSH2 0x39A9 JUMPI POP DUP6 DUP4 ADD MLOAD JUMPDEST PUSH0 NOT PUSH1 0x3 DUP7 SWAP1 SHL SHR NOT AND PUSH1 0x1 DUP6 SWAP1 SHL OR DUP6 SSTORE PUSH2 0x254D JUMP JUMPDEST PUSH0 DUP6 DUP2 MSTORE PUSH1 0x20 DUP2 KECCAK256 PUSH1 0x1F NOT DUP7 AND SWAP2 JUMPDEST DUP3 DUP2 LT ISZERO PUSH2 0x39EE JUMPI DUP9 DUP7 ADD MLOAD DUP3 SSTORE SWAP5 DUP5 ADD SWAP5 PUSH1 0x1 SWAP1 SWAP2 ADD SWAP1 DUP5 ADD PUSH2 0x39CF JUMP JUMPDEST POP DUP6 DUP3 LT ISZERO PUSH2 0x3A0B JUMPI DUP8 DUP6 ADD MLOAD PUSH0 NOT PUSH1 0x3 DUP9 SWAP1 SHL PUSH1 0xF8 AND SHR NOT AND DUP2 SSTORE JUMPDEST POP POP POP POP POP PUSH1 0x1 SWAP1 DUP2 SHL ADD SWAP1 SSTORE POP JUMP JUMPDEST PUSH0 PUSH1 0x20 DUP3 DUP5 SUB SLT ISZERO PUSH2 0x3A2B JUMPI PUSH0 DUP1 REVERT JUMPDEST POP MLOAD SWAP2 SWAP1 POP JUMP JUMPDEST PUSH4 0x4E487B71 PUSH1 0xE0 SHL PUSH0 MSTORE PUSH1 0x11 PUSH1 0x4 MSTORE PUSH1 0x24 PUSH0 REVERT JUMPDEST PUSH0 DUP3 PUSH2 0x3A60 JUMPI PUSH4 0x4E487B71 PUSH1 0xE0 SHL PUSH0 MSTORE PUSH1 0x12 PUSH1 0x4 MSTORE PUSH1 0x24 PUSH0 REVERT JUMPDEST POP DIV SWAP1 JUMP JUMPDEST DUP1 DUP3 MUL DUP2 ISZERO DUP3 DUP3 DIV DUP5 EQ OR PUSH2 0x81A JUMPI PUSH2 0x81A PUSH2 0x3A32 JUMP JUMPDEST DUP1 DUP3 ADD DUP1 DUP3 GT ISZERO PUSH2 0x81A JUMPI PUSH2 0x81A PUSH2 0x3A32 JUMP JUMPDEST PUSH0 DUP4 MLOAD PUSH2 0x3AA0 DUP2 DUP5 PUSH1 0x20 DUP9 ADD PUSH2 0x3396 JUMP JUMPDEST DUP4 MLOAD SWAP1 DUP4 ADD SWAP1 PUSH2 0x3AB4 DUP2 DUP4 PUSH1 0x20 DUP9 ADD PUSH2 0x3396 JUMP JUMPDEST ADD SWAP5 SWAP4 POP POP POP POP JUMP JUMPDEST PUSH0 DUP4 MLOAD PUSH2 0x3ACE DUP2 DUP5 PUSH1 0x20 DUP9 ADD PUSH2 0x3396 JUMP JUMPDEST PUSH9 0x636F6E74726163742F PUSH1 0xB8 SHL SWAP1 DUP4 ADD SWAP1 DUP2 MSTORE DUP4 MLOAD PUSH2 0x3AF4 DUP2 PUSH1 0x9 DUP5 ADD PUSH1 0x20 DUP9 ADD PUSH2 0x3396 JUMP JUMPDEST ADD PUSH1 0x9 ADD SWAP5 SWAP4 POP POP POP POP JUMP JUMPDEST DUP2 DUP2 SUB DUP2 DUP2 GT ISZERO PUSH2 0x81A JUMPI PUSH2 0x81A PUSH2 0x3A32 JUMP JUMPDEST PUSH0 PUSH1 0x1 DUP3 ADD PUSH2 0x3B24 JUMPI PUSH2 0x3B24 PUSH2 0x3A32 JUMP JUMPDEST POP PUSH1 0x1 ADD SWAP1 JUMP JUMPDEST PUSH4 0x4E487B71 PUSH1 0xE0 SHL PUSH0 MSTORE PUSH1 0x31 PUSH1 0x4 MSTORE PUSH1 0x24 PUSH0 REVERT JUMPDEST PUSH1 0x1 PUSH1 0x1 PUSH1 0xA0 SHL SUB DUP6 DUP2 AND DUP3 MSTORE DUP5 AND PUSH1 0x20 DUP3 ADD MSTORE PUSH1 0x40 DUP2 ADD DUP4 SWAP1 MSTORE PUSH1 0x80 PUSH1 0x60 DUP3 ADD DUP2 SWAP1 MSTORE PUSH0 SWAP1 PUSH2 0x3B71 SWAP1 DUP4 ADD DUP5 PUSH2 0x33B8 JUMP JUMPDEST SWAP7 SWAP6 POP POP POP POP POP POP JUMP JUMPDEST PUSH0 PUSH1 0x20 DUP3 DUP5 SUB SLT ISZERO PUSH2 0x3B8B JUMPI PUSH0 DUP1 REVERT JUMPDEST DUP2 MLOAD PUSH2 0xAF1 DUP2 PUSH2 0x3366 JUMP JUMPDEST PUSH0 DUP2 PUSH2 0x3BA4 JUMPI PUSH2 0x3BA4 PUSH2 0x3A32 JUMP JUMPDEST POP PUSH0 NOT ADD SWAP1 JUMP JUMPDEST PUSH0 PUSH1 0x20 DUP3 DUP5 SUB SLT ISZERO PUSH2 0x3BBB JUMPI PUSH0 DUP1 REVERT JUMPDEST DUP2 MLOAD PUSH2 0xAF1 DUP2 PUSH2 0x34FE JUMP JUMPDEST PUSH1 0x1 DUP1 PUSH1 0xA0 SHL SUB DUP7 AND DUP2 MSTORE DUP5 PUSH1 0x20 DUP3 ADD MSTORE DUP4 PUSH1 0x40 DUP3 ADD MSTORE DUP3 PUSH1 0x60 DUP3 ADD MSTORE PUSH1 0xA0 PUSH1 0x80 DUP3 ADD MSTORE PUSH0 PUSH2 0x3BF8 PUSH1 0xA0 DUP4 ADD DUP5 PUSH2 0x33B8 JUMP JUMPDEST SWAP8 SWAP7 POP POP POP POP POP POP POP JUMP INVALID LOG2 PUSH5 0x6970667358 0x22 SLT KECCAK256 GASLIMIT 0xB6 SWAP13 CALLDATASIZE 0x2C 0xA6 PUSH6 0x29A8113FE377 KECCAK256 JUMPDEST LOG2 NUMBER PUSH32 0xDBDB8D62391D3039AD7CFEC4ACDF64736F6C6343000816003300000000000000 "
		},
		"gasEstimates": {
			"creation": {
				"codeDepositCost": "3083400",
				"executionCost": "infinite",
				"totalCost": "infinite"
			},
			"external": {
				"_profitEstimate()": "infinite",
				"_slotAmount(uint256)": "infinite",
				"_tokenProfitEstimate(uint256)": "infinite",
				"allowance(uint256,address)": "11465",
				"approve(address,uint256)": "infinite",
				"approve(uint256,address,uint256)": "infinite",
				"balanceOf(address)": "2620",
				"balanceOf(uint256)": "15552",
				"baseURI()": "infinite",
				"contractURI()": "infinite",
				"getApproved(uint256)": "15611",
				"isApprovedForAll(address,address)": "infinite",
				"isApprovedForSlot(address,uint256,address)": "infinite",
				"metadataDescriptor()": "2426",
				"mint(address,uint256,uint256)": "infinite",
				"mintValue(uint256,uint256)": "infinite",
				"name()": "infinite",
				"owner()": "2464",
				"ownerOf(uint256)": "15678",
				"renounceOwnership()": "infinite",
				"safeTransferFrom(address,address,uint256)": "infinite",
				"safeTransferFrom(address,address,uint256,bytes)": "infinite",
				"setApprovalForAll(address,bool)": "26863",
				"setApprovalForSlot(address,uint256,address,bool)": "infinite",
				"setBaseURI(string)": "infinite",
				"slotByIndex(uint256)": "6804",
				"slotCount()": "2390",
				"slotOf(uint256)": "15487",
				"slotURI(uint256)": "infinite",
				"supportsInterface(bytes4)": "infinite",
				"symbol()": "infinite",
				"tokenByIndex(uint256)": "6760",
				"tokenInSlotByIndex(uint256,uint256)": "24204",
				"tokenOfOwnerByIndex(address,uint256)": "7098",
				"tokenSupplyInSlot(uint256)": "15486",
				"tokenURI(uint256)": "infinite",
				"totalSupply()": "2392",
				"transferFrom(address,address,uint256)": "infinite",
				"transferFrom(uint256,address,uint256)": "infinite",
				"transferFrom(uint256,uint256,uint256)": "infinite",
				"transferOwnership(address)": "28487",
				"valueDecimals()": "2400"
			},
			"internal": {
				"_baseURI()": "infinite"
			}
		},
		"methodIdentifiers": {
			"_profitEstimate()": "cbb277bb",
			"_slotAmount(uint256)": "a4ef8dcc",
			"_tokenProfitEstimate(uint256)": "8e3ed45e",
			"allowance(uint256,address)": "e345e0bc",
			"approve(address,uint256)": "095ea7b3",
			"approve(uint256,address,uint256)": "8cb0a511",
			"balanceOf(address)": "70a08231",
			"balanceOf(uint256)": "9cc7f708",
			"baseURI()": "6c0360eb",
			"contractURI()": "e8a3d485",
			"getApproved(uint256)": "081812fc",
			"isApprovedForAll(address,address)": "e985e9c5",
			"isApprovedForSlot(address,uint256,address)": "e345f05e",
			"metadataDescriptor()": "840f7113",
			"mint(address,uint256,uint256)": "156e29f6",
			"mintValue(uint256,uint256)": "f0e88e7f",
			"name()": "06fdde03",
			"owner()": "8da5cb5b",
			"ownerOf(uint256)": "6352211e",
			"renounceOwnership()": "715018a6",
			"safeTransferFrom(address,address,uint256)": "42842e0e",
			"safeTransferFrom(address,address,uint256,bytes)": "b88d4fde",
			"setApprovalForAll(address,bool)": "a22cb465",
			"setApprovalForSlot(address,uint256,address,bool)": "55cd4e06",
			"setBaseURI(string)": "55f804b3",
			"slotByIndex(uint256)": "993bef8d",
			"slotCount()": "ed08fa80",
			"slotOf(uint256)": "263f3e7e",
			"slotURI(uint256)": "09c3dd87",
			"supportsInterface(bytes4)": "01ffc9a7",
			"symbol()": "95d89b41",
			"tokenByIndex(uint256)": "4f6ccce7",
			"tokenInSlotByIndex(uint256,uint256)": "00cd0110",
			"tokenOfOwnerByIndex(address,uint256)": "2f745c59",
			"tokenSupplyInSlot(uint256)": "4f8a0f83",
			"tokenURI(uint256)": "c87b56dd",
			"totalSupply()": "18160ddd",
			"transferFrom(address,address,uint256)": "23b872dd",
			"transferFrom(uint256,address,uint256)": "0f485c02",
			"transferFrom(uint256,uint256,uint256)": "310ed7f0",
			"transferOwnership(address)": "f2fde38b",
			"valueDecimals()": "3e7e8669"
		}
	},
	"abi": [
		{
			"inputs": [
				{
					"internalType": "address",
					"name": "owner_",
					"type": "address"
				},
				{
					"internalType": "string",
					"name": "name_",
					"type": "string"
				},
				{
					"internalType": "string",
					"name": "symbol_",
					"type": "string"
				}
			],
			"stateMutability": "nonpayable",
			"type": "constructor"
		},
		{
			"inputs": [
				{
					"internalType": "address",
					"name": "owner",
					"type": "address"
				}
			],
			"name": "OwnableInvalidOwner",
			"type": "error"
		},
		{
			"inputs": [
				{
					"internalType": "address",
					"name": "account",
					"type": "address"
				}
			],
			"name": "OwnableUnauthorizedAccount",
			"type": "error"
		},
		{
			"inputs": [
				{
					"internalType": "uint256",
					"name": "value",
					"type": "uint256"
				},
				{
					"internalType": "uint256",
					"name": "length",
					"type": "uint256"
				}
			],
			"name": "StringsInsufficientHexLength",
			"type": "error"
		},
		{
			"anonymous": false,
			"inputs": [
				{
					"indexed": true,
					"internalType": "address",
					"name": "_owner",
					"type": "address"
				},
				{
					"indexed": true,
					"internalType": "address",
					"name": "_approved",
					"type": "address"
				},
				{
					"indexed": true,
					"internalType": "uint256",
					"name": "_tokenId",
					"type": "uint256"
				}
			],
			"name": "Approval",
			"type": "event"
		},
		{
			"anonymous": false,
			"inputs": [
				{
					"indexed": true,
					"internalType": "address",
					"name": "_owner",
					"type": "address"
				},
				{
					"indexed": true,
					"internalType": "address",
					"name": "_operator",
					"type": "address"
				},
				{
					"indexed": false,
					"internalType": "bool",
					"name": "_approved",
					"type": "bool"
				}
			],
			"name": "ApprovalForAll",
			"type": "event"
		},
		{
			"anonymous": false,
			"inputs": [
				{
					"indexed": true,
					"internalType": "address",
					"name": "_owner",
					"type": "address"
				},
				{
					"indexed": true,
					"internalType": "uint256",
					"name": "_slot",
					"type": "uint256"
				},
				{
					"indexed": true,
					"internalType": "address",
					"name": "_operator",
					"type": "address"
				},
				{
					"indexed": false,
					"internalType": "bool",
					"name": "_approved",
					"type": "bool"
				}
			],
			"name": "ApprovalForSlot",
			"type": "event"
		},
		{
			"anonymous": false,
			"inputs": [
				{
					"indexed": true,
					"internalType": "uint256",
					"name": "_tokenId",
					"type": "uint256"
				},
				{
					"indexed": true,
					"internalType": "address",
					"name": "_operator",
					"type": "address"
				},
				{
					"indexed": false,
					"internalType": "uint256",
					"name": "_value",
					"type": "uint256"
				}
			],
			"name": "ApprovalValue",
			"type": "event"
		},
		{
			"anonymous": false,
			"inputs": [
				{
					"indexed": true,
					"internalType": "address",
					"name": "previousOwner",
					"type": "address"
				},
				{
					"indexed": true,
					"internalType": "address",
					"name": "newOwner",
					"type": "address"
				}
			],
			"name": "OwnershipTransferred",
			"type": "event"
		},
		{
			"anonymous": false,
			"inputs": [
				{
					"indexed": true,
					"internalType": "address",
					"name": "metadataDescriptor",
					"type": "address"
				}
			],
			"name": "SetMetadataDescriptor",
			"type": "event"
		},
		{
			"anonymous": false,
			"inputs": [
				{
					"indexed": true,
					"internalType": "uint256",
					"name": "_tokenId",
					"type": "uint256"
				},
				{
					"indexed": true,
					"internalType": "uint256",
					"name": "_oldSlot",
					"type": "uint256"
				},
				{
					"indexed": true,
					"internalType": "uint256",
					"name": "_newSlot",
					"type": "uint256"
				}
			],
			"name": "SlotChanged",
			"type": "event"
		},
		{
			"anonymous": false,
			"inputs": [
				{
					"indexed": true,
					"internalType": "address",
					"name": "_from",
					"type": "address"
				},
				{
					"indexed": true,
					"internalType": "address",
					"name": "_to",
					"type": "address"
				},
				{
					"indexed": true,
					"internalType": "uint256",
					"name": "_tokenId",
					"type": "uint256"
				}
			],
			"name": "Transfer",
			"type": "event"
		},
		{
			"anonymous": false,
			"inputs": [
				{
					"indexed": true,
					"internalType": "uint256",
					"name": "_fromTokenId",
					"type": "uint256"
				},
				{
					"indexed": true,
					"internalType": "uint256",
					"name": "_toTokenId",
					"type": "uint256"
				},
				{
					"indexed": false,
					"internalType": "uint256",
					"name": "_value",
					"type": "uint256"
				}
			],
			"name": "TransferValue",
			"type": "event"
		},
		{
			"inputs": [],
			"name": "_profitEstimate",
			"outputs": [
				{
					"internalType": "uint256",
					"name": "",
					"type": "uint256"
				}
			],
			"stateMutability": "view",
			"type": "function"
		},
		{
			"inputs": [
				{
					"internalType": "uint256",
					"name": "sft_slot",
					"type": "uint256"
				}
			],
			"name": "_slotAmount",
			"outputs": [
				{
					"internalType": "uint256",
					"name": "",
					"type": "uint256"
				}
			],
			"stateMutability": "view",
			"type": "function"
		},
		{
			"inputs": [
				{
					"internalType": "uint256",
					"name": "token_id",
					"type": "uint256"
				}
			],
			"name": "_tokenProfitEstimate",
			"outputs": [
				{
					"internalType": "uint256",
					"name": "",
					"type": "uint256"
				}
			],
			"stateMutability": "view",
			"type": "function"
		},
		{
			"inputs": [
				{
					"internalType": "uint256",
					"name": "tokenId_",
					"type": "uint256"
				},
				{
					"internalType": "address",
					"name": "operator_",
					"type": "address"
				}
			],
			"name": "allowance",
			"outputs": [
				{
					"internalType": "uint256",
					"name": "",
					"type": "uint256"
				}
			],
			"stateMutability": "view",
			"type": "function"
		},
		{
			"inputs": [
				{
					"internalType": "address",
					"name": "to_",
					"type": "address"
				},
				{
					"internalType": "uint256",
					"name": "tokenId_",
					"type": "uint256"
				}
			],
			"name": "approve",
			"outputs": [],
			"stateMutability": "payable",
			"type": "function"
		},
		{
			"inputs": [
				{
					"internalType": "uint256",
					"name": "tokenId_",
					"type": "uint256"
				},
				{
					"internalType": "address",
					"name": "to_",
					"type": "address"
				},
				{
					"internalType": "uint256",
					"name": "value_",
					"type": "uint256"
				}
			],
			"name": "approve",
			"outputs": [],
			"stateMutability": "payable",
			"type": "function"
		},
		{
			"inputs": [
				{
					"internalType": "address",
					"name": "owner_",
					"type": "address"
				}
			],
			"name": "balanceOf",
			"outputs": [
				{
					"internalType": "uint256",
					"name": "balance",
					"type": "uint256"
				}
			],
			"stateMutability": "view",
			"type": "function"
		},
		{
			"inputs": [
				{
					"internalType": "uint256",
					"name": "tokenId_",
					"type": "uint256"
				}
			],
			"name": "balanceOf",
			"outputs": [
				{
					"internalType": "uint256",
					"name": "",
					"type": "uint256"
				}
			],
			"stateMutability": "view",
			"type": "function"
		},
		{
			"inputs": [],
			"name": "baseURI",
			"outputs": [
				{
					"internalType": "string",
					"name": "",
					"type": "string"
				}
			],
			"stateMutability": "view",
			"type": "function"
		},
		{
			"inputs": [],
			"name": "contractURI",
			"outputs": [
				{
					"internalType": "string",
					"name": "",
					"type": "string"
				}
			],
			"stateMutability": "view",
			"type": "function"
		},
		{
			"inputs": [
				{
					"internalType": "uint256",
					"name": "tokenId_",
					"type": "uint256"
				}
			],
			"name": "getApproved",
			"outputs": [
				{
					"internalType": "address",
					"name": "",
					"type": "address"
				}
			],
			"stateMutability": "view",
			"type": "function"
		},
		{
			"inputs": [
				{
					"internalType": "address",
					"name": "owner_",
					"type": "address"
				},
				{
					"internalType": "address",
					"name": "operator_",
					"type": "address"
				}
			],
			"name": "isApprovedForAll",
			"outputs": [
				{
					"internalType": "bool",
					"name": "",
					"type": "bool"
				}
			],
			"stateMutability": "view",
			"type": "function"
		},
		{
			"inputs": [
				{
					"internalType": "address",
					"name": "owner_",
					"type": "address"
				},
				{
					"internalType": "uint256",
					"name": "slot_",
					"type": "uint256"
				},
				{
					"internalType": "address",
					"name": "operator_",
					"type": "address"
				}
			],
			"name": "isApprovedForSlot",
			"outputs": [
				{
					"internalType": "bool",
					"name": "",
					"type": "bool"
				}
			],
			"stateMutability": "view",
			"type": "function"
		},
		{
			"inputs": [],
			"name": "metadataDescriptor",
			"outputs": [
				{
					"internalType": "contract IERC3525MetadataDescriptor",
					"name": "",
					"type": "address"
				}
			],
			"stateMutability": "view",
			"type": "function"
		},
		{
			"inputs": [
				{
					"internalType": "address",
					"name": "mintTo_",
					"type": "address"
				},
				{
					"internalType": "uint256",
					"name": "slot_",
					"type": "uint256"
				},
				{
					"internalType": "uint256",
					"name": "value_",
					"type": "uint256"
				}
			],
			"name": "mint",
			"outputs": [],
			"stateMutability": "nonpayable",
			"type": "function"
		},
		{
			"inputs": [
				{
					"internalType": "uint256",
					"name": "tokenId_",
					"type": "uint256"
				},
				{
					"internalType": "uint256",
					"name": "value_",
					"type": "uint256"
				}
			],
			"name": "mintValue",
			"outputs": [],
			"stateMutability": "nonpayable",
			"type": "function"
		},
		{
			"inputs": [],
			"name": "name",
			"outputs": [
				{
					"internalType": "string",
					"name": "",
					"type": "string"
				}
			],
			"stateMutability": "view",
			"type": "function"
		},
		{
			"inputs": [],
			"name": "owner",
			"outputs": [
				{
					"internalType": "address",
					"name": "",
					"type": "address"
				}
			],
			"stateMutability": "view",
			"type": "function"
		},
		{
			"inputs": [
				{
					"internalType": "uint256",
					"name": "tokenId_",
					"type": "uint256"
				}
			],
			"name": "ownerOf",
			"outputs": [
				{
					"internalType": "address",
					"name": "owner_",
					"type": "address"
				}
			],
			"stateMutability": "view",
			"type": "function"
		},
		{
			"inputs": [],
			"name": "renounceOwnership",
			"outputs": [],
			"stateMutability": "nonpayable",
			"type": "function"
		},
		{
			"inputs": [
				{
					"internalType": "address",
					"name": "from_",
					"type": "address"
				},
				{
					"internalType": "address",
					"name": "to_",
					"type": "address"
				},
				{
					"internalType": "uint256",
					"name": "tokenId_",
					"type": "uint256"
				}
			],
			"name": "safeTransferFrom",
			"outputs": [],
			"stateMutability": "payable",
			"type": "function"
		},
		{
			"inputs": [
				{
					"internalType": "address",
					"name": "from_",
					"type": "address"
				},
				{
					"internalType": "address",
					"name": "to_",
					"type": "address"
				},
				{
					"internalType": "uint256",
					"name": "tokenId_",
					"type": "uint256"
				},
				{
					"internalType": "bytes",
					"name": "data_",
					"type": "bytes"
				}
			],
			"name": "safeTransferFrom",
			"outputs": [],
			"stateMutability": "payable",
			"type": "function"
		},
		{
			"inputs": [
				{
					"internalType": "address",
					"name": "operator_",
					"type": "address"
				},
				{
					"internalType": "bool",
					"name": "approved_",
					"type": "bool"
				}
			],
			"name": "setApprovalForAll",
			"outputs": [],
			"stateMutability": "nonpayable",
			"type": "function"
		},
		{
			"inputs": [
				{
					"internalType": "address",
					"name": "owner_",
					"type": "address"
				},
				{
					"internalType": "uint256",
					"name": "slot_",
					"type": "uint256"
				},
				{
					"internalType": "address",
					"name": "operator_",
					"type": "address"
				},
				{
					"internalType": "bool",
					"name": "approved_",
					"type": "bool"
				}
			],
			"name": "setApprovalForSlot",
			"outputs": [],
			"stateMutability": "payable",
			"type": "function"
		},
		{
			"inputs": [
				{
					"internalType": "string",
					"name": "newuri",
					"type": "string"
				}
			],
			"name": "setBaseURI",
			"outputs": [],
			"stateMutability": "nonpayable",
			"type": "function"
		},
		{
			"inputs": [
				{
					"internalType": "uint256",
					"name": "index_",
					"type": "uint256"
				}
			],
			"name": "slotByIndex",
			"outputs": [
				{
					"internalType": "uint256",
					"name": "",
					"type": "uint256"
				}
			],
			"stateMutability": "view",
			"type": "function"
		},
		{
			"inputs": [],
			"name": "slotCount",
			"outputs": [
				{
					"internalType": "uint256",
					"name": "",
					"type": "uint256"
				}
			],
			"stateMutability": "view",
			"type": "function"
		},
		{
			"inputs": [
				{
					"internalType": "uint256",
					"name": "tokenId_",
					"type": "uint256"
				}
			],
			"name": "slotOf",
			"outputs": [
				{
					"internalType": "uint256",
					"name": "",
					"type": "uint256"
				}
			],
			"stateMutability": "view",
			"type": "function"
		},
		{
			"inputs": [
				{
					"internalType": "uint256",
					"name": "slot_",
					"type": "uint256"
				}
			],
			"name": "slotURI",
			"outputs": [
				{
					"internalType": "string",
					"name": "",
					"type": "string"
				}
			],
			"stateMutability": "view",
			"type": "function"
		},
		{
			"inputs": [
				{
					"internalType": "bytes4",
					"name": "interfaceId",
					"type": "bytes4"
				}
			],
			"name": "supportsInterface",
			"outputs": [
				{
					"internalType": "bool",
					"name": "",
					"type": "bool"
				}
			],
			"stateMutability": "view",
			"type": "function"
		},
		{
			"inputs": [],
			"name": "symbol",
			"outputs": [
				{
					"internalType": "string",
					"name": "",
					"type": "string"
				}
			],
			"stateMutability": "view",
			"type": "function"
		},
		{
			"inputs": [
				{
					"internalType": "uint256",
					"name": "index_",
					"type": "uint256"
				}
			],
			"name": "tokenByIndex",
			"outputs": [
				{
					"internalType": "uint256",
					"name": "",
					"type": "uint256"
				}
			],
			"stateMutability": "view",
			"type": "function"
		},
		{
			"inputs": [
				{
					"internalType": "uint256",
					"name": "slot_",
					"type": "uint256"
				},
				{
					"internalType": "uint256",
					"name": "index_",
					"type": "uint256"
				}
			],
			"name": "tokenInSlotByIndex",
			"outputs": [
				{
					"internalType": "uint256",
					"name": "",
					"type": "uint256"
				}
			],
			"stateMutability": "view",
			"type": "function"
		},
		{
			"inputs": [
				{
					"internalType": "address",
					"name": "owner_",
					"type": "address"
				},
				{
					"internalType": "uint256",
					"name": "index_",
					"type": "uint256"
				}
			],
			"name": "tokenOfOwnerByIndex",
			"outputs": [
				{
					"internalType": "uint256",
					"name": "",
					"type": "uint256"
				}
			],
			"stateMutability": "view",
			"type": "function"
		},
		{
			"inputs": [
				{
					"internalType": "uint256",
					"name": "slot_",
					"type": "uint256"
				}
			],
			"name": "tokenSupplyInSlot",
			"outputs": [
				{
					"internalType": "uint256",
					"name": "",
					"type": "uint256"
				}
			],
			"stateMutability": "view",
			"type": "function"
		},
		{
			"inputs": [
				{
					"internalType": "uint256",
					"name": "tokenId_",
					"type": "uint256"
				}
			],
			"name": "tokenURI",
			"outputs": [
				{
					"internalType": "string",
					"name": "",
					"type": "string"
				}
			],
			"stateMutability": "view",
			"type": "function"
		},
		{
			"inputs": [],
			"name": "totalSupply",
			"outputs": [
				{
					"internalType": "uint256",
					"name": "",
					"type": "uint256"
				}
			],
			"stateMutability": "view",
			"type": "function"
		},
		{
			"inputs": [
				{
					"internalType": "uint256",
					"name": "fromTokenId_",
					"type": "uint256"
				},
				{
					"internalType": "address",
					"name": "to_",
					"type": "address"
				},
				{
					"internalType": "uint256",
					"name": "value_",
					"type": "uint256"
				}
			],
			"name": "transferFrom",
			"outputs": [
				{
					"internalType": "uint256",
					"name": "newTokenId",
					"type": "uint256"
				}
			],
			"stateMutability": "payable",
			"type": "function"
		},
		{
			"inputs": [
				{
					"internalType": "address",
					"name": "from_",
					"type": "address"
				},
				{
					"internalType": "address",
					"name": "to_",
					"type": "address"
				},
				{
					"internalType": "uint256",
					"name": "tokenId_",
					"type": "uint256"
				}
			],
			"name": "transferFrom",
			"outputs": [],
			"stateMutability": "payable",
			"type": "function"
		},
		{
			"inputs": [
				{
					"internalType": "uint256",
					"name": "fromTokenId_",
					"type": "uint256"
				},
				{
					"internalType": "uint256",
					"name": "toTokenId_",
					"type": "uint256"
				},
				{
					"internalType": "uint256",
					"name": "value_",
					"type": "uint256"
				}
			],
			"name": "transferFrom",
			"outputs": [],
			"stateMutability": "payable",
			"type": "function"
		},
		{
			"inputs": [
				{
					"internalType": "address",
					"name": "newOwner",
					"type": "address"
				}
			],
			"name": "transferOwnership",
			"outputs": [],
			"stateMutability": "nonpayable",
			"type": "function"
		},
		{
			"inputs": [],
			"name": "valueDecimals",
			"outputs": [
				{
					"internalType": "uint8",
					"name": "",
					"type": "uint8"
				}
			],
			"stateMutability": "view",
			"type": "function"
		}
	]
}